{
	"contracts/imiltestTwo.sol": {
		"imiltestTwo": {
			"abi": [
				{
					"inputs": [
						{
							"internalType": "string",
							"name": "_initBaseURI",
							"type": "string"
						},
						{
							"internalType": "string",
							"name": "_initClaimURI",
							"type": "string"
						}
					],
					"stateMutability": "nonpayable",
					"type": "constructor"
				},
				{
					"inputs": [],
					"name": "ApprovalCallerNotOwnerNorApproved",
					"type": "error"
				},
				{
					"inputs": [],
					"name": "ApprovalQueryForNonexistentToken",
					"type": "error"
				},
				{
					"inputs": [],
					"name": "BalanceQueryForZeroAddress",
					"type": "error"
				},
				{
					"inputs": [],
					"name": "MintERC2309QuantityExceedsLimit",
					"type": "error"
				},
				{
					"inputs": [],
					"name": "MintToZeroAddress",
					"type": "error"
				},
				{
					"inputs": [],
					"name": "MintZeroQuantity",
					"type": "error"
				},
				{
					"inputs": [],
					"name": "OwnerQueryForNonexistentToken",
					"type": "error"
				},
				{
					"inputs": [],
					"name": "OwnershipNotInitializedForExtraData",
					"type": "error"
				},
				{
					"inputs": [],
					"name": "TransferCallerNotOwnerNorApproved",
					"type": "error"
				},
				{
					"inputs": [],
					"name": "TransferFromIncorrectOwner",
					"type": "error"
				},
				{
					"inputs": [],
					"name": "TransferToNonERC721ReceiverImplementer",
					"type": "error"
				},
				{
					"inputs": [],
					"name": "TransferToZeroAddress",
					"type": "error"
				},
				{
					"inputs": [],
					"name": "URIQueryForNonexistentToken",
					"type": "error"
				},
				{
					"anonymous": false,
					"inputs": [
						{
							"indexed": true,
							"internalType": "address",
							"name": "owner",
							"type": "address"
						},
						{
							"indexed": true,
							"internalType": "address",
							"name": "approved",
							"type": "address"
						},
						{
							"indexed": true,
							"internalType": "uint256",
							"name": "tokenId",
							"type": "uint256"
						}
					],
					"name": "Approval",
					"type": "event"
				},
				{
					"anonymous": false,
					"inputs": [
						{
							"indexed": true,
							"internalType": "address",
							"name": "owner",
							"type": "address"
						},
						{
							"indexed": true,
							"internalType": "address",
							"name": "operator",
							"type": "address"
						},
						{
							"indexed": false,
							"internalType": "bool",
							"name": "approved",
							"type": "bool"
						}
					],
					"name": "ApprovalForAll",
					"type": "event"
				},
				{
					"anonymous": false,
					"inputs": [
						{
							"indexed": true,
							"internalType": "uint256",
							"name": "fromTokenId",
							"type": "uint256"
						},
						{
							"indexed": false,
							"internalType": "uint256",
							"name": "toTokenId",
							"type": "uint256"
						},
						{
							"indexed": true,
							"internalType": "address",
							"name": "from",
							"type": "address"
						},
						{
							"indexed": true,
							"internalType": "address",
							"name": "to",
							"type": "address"
						}
					],
					"name": "ConsecutiveTransfer",
					"type": "event"
				},
				{
					"anonymous": false,
					"inputs": [
						{
							"indexed": true,
							"internalType": "address",
							"name": "previousOwner",
							"type": "address"
						},
						{
							"indexed": true,
							"internalType": "address",
							"name": "newOwner",
							"type": "address"
						}
					],
					"name": "OwnershipTransferred",
					"type": "event"
				},
				{
					"anonymous": false,
					"inputs": [
						{
							"indexed": true,
							"internalType": "address",
							"name": "from",
							"type": "address"
						},
						{
							"indexed": true,
							"internalType": "address",
							"name": "to",
							"type": "address"
						},
						{
							"indexed": true,
							"internalType": "uint256",
							"name": "tokenId",
							"type": "uint256"
						}
					],
					"name": "Transfer",
					"type": "event"
				},
				{
					"inputs": [],
					"name": "AllowlistLimit",
					"outputs": [
						{
							"internalType": "uint256",
							"name": "",
							"type": "uint256"
						}
					],
					"stateMutability": "view",
					"type": "function"
				},
				{
					"inputs": [
						{
							"internalType": "address",
							"name": "",
							"type": "address"
						}
					],
					"name": "addressMintedBalance",
					"outputs": [
						{
							"internalType": "uint256",
							"name": "",
							"type": "uint256"
						}
					],
					"stateMutability": "view",
					"type": "function"
				},
				{
					"inputs": [
						{
							"internalType": "address",
							"name": "",
							"type": "address"
						}
					],
					"name": "allowlist",
					"outputs": [
						{
							"internalType": "bool",
							"name": "",
							"type": "bool"
						}
					],
					"stateMutability": "view",
					"type": "function"
				},
				{
					"inputs": [
						{
							"internalType": "address[]",
							"name": "addresses",
							"type": "address[]"
						}
					],
					"name": "allowlistUsers",
					"outputs": [],
					"stateMutability": "nonpayable",
					"type": "function"
				},
				{
					"inputs": [
						{
							"internalType": "address",
							"name": "to",
							"type": "address"
						},
						{
							"internalType": "uint256",
							"name": "tokenId",
							"type": "uint256"
						}
					],
					"name": "approve",
					"outputs": [],
					"stateMutability": "nonpayable",
					"type": "function"
				},
				{
					"inputs": [
						{
							"internalType": "address",
							"name": "owner",
							"type": "address"
						}
					],
					"name": "balanceOf",
					"outputs": [
						{
							"internalType": "uint256",
							"name": "",
							"type": "uint256"
						}
					],
					"stateMutability": "view",
					"type": "function"
				},
				{
					"inputs": [],
					"name": "baseExtension",
					"outputs": [
						{
							"internalType": "string",
							"name": "",
							"type": "string"
						}
					],
					"stateMutability": "view",
					"type": "function"
				},
				{
					"inputs": [
						{
							"internalType": "uint256",
							"name": "tokenId",
							"type": "uint256"
						},
						{
							"internalType": "uint256",
							"name": "claim",
							"type": "uint256"
						}
					],
					"name": "checkClaimed",
					"outputs": [
						{
							"internalType": "bool",
							"name": "",
							"type": "bool"
						}
					],
					"stateMutability": "view",
					"type": "function"
				},
				{
					"inputs": [
						{
							"internalType": "uint256",
							"name": "",
							"type": "uint256"
						}
					],
					"name": "claimActiveByPhase",
					"outputs": [
						{
							"internalType": "bool",
							"name": "",
							"type": "bool"
						}
					],
					"stateMutability": "view",
					"type": "function"
				},
				{
					"inputs": [
						{
							"internalType": "uint256",
							"name": "tokenId",
							"type": "uint256"
						},
						{
							"internalType": "uint256",
							"name": "claim",
							"type": "uint256"
						}
					],
					"name": "claimItem",
					"outputs": [],
					"stateMutability": "nonpayable",
					"type": "function"
				},
				{
					"inputs": [
						{
							"internalType": "uint256",
							"name": "",
							"type": "uint256"
						}
					],
					"name": "claimPhaseByToken",
					"outputs": [
						{
							"internalType": "uint256",
							"name": "",
							"type": "uint256"
						}
					],
					"stateMutability": "view",
					"type": "function"
				},
				{
					"inputs": [
						{
							"internalType": "uint256",
							"name": "",
							"type": "uint256"
						},
						{
							"internalType": "uint256",
							"name": "",
							"type": "uint256"
						}
					],
					"name": "claimedItemByPhase",
					"outputs": [
						{
							"internalType": "bool",
							"name": "",
							"type": "bool"
						}
					],
					"stateMutability": "view",
					"type": "function"
				},
				{
					"inputs": [],
					"name": "cost",
					"outputs": [
						{
							"internalType": "uint256",
							"name": "",
							"type": "uint256"
						}
					],
					"stateMutability": "view",
					"type": "function"
				},
				{
					"inputs": [],
					"name": "currentSet",
					"outputs": [
						{
							"internalType": "uint256",
							"name": "",
							"type": "uint256"
						}
					],
					"stateMutability": "view",
					"type": "function"
				},
				{
					"inputs": [
						{
							"internalType": "uint256",
							"name": "tokenId",
							"type": "uint256"
						}
					],
					"name": "getApproved",
					"outputs": [
						{
							"internalType": "address",
							"name": "",
							"type": "address"
						}
					],
					"stateMutability": "view",
					"type": "function"
				},
				{
					"inputs": [
						{
							"internalType": "address",
							"name": "_user",
							"type": "address"
						}
					],
					"name": "isAllowlisted",
					"outputs": [
						{
							"internalType": "bool",
							"name": "",
							"type": "bool"
						}
					],
					"stateMutability": "view",
					"type": "function"
				},
				{
					"inputs": [
						{
							"internalType": "address",
							"name": "owner",
							"type": "address"
						},
						{
							"internalType": "address",
							"name": "operator",
							"type": "address"
						}
					],
					"name": "isApprovedForAll",
					"outputs": [
						{
							"internalType": "bool",
							"name": "",
							"type": "bool"
						}
					],
					"stateMutability": "view",
					"type": "function"
				},
				{
					"inputs": [],
					"name": "maxSupply",
					"outputs": [
						{
							"internalType": "uint256",
							"name": "",
							"type": "uint256"
						}
					],
					"stateMutability": "view",
					"type": "function"
				},
				{
					"inputs": [
						{
							"internalType": "uint256",
							"name": "_mintAmount",
							"type": "uint256"
						}
					],
					"name": "mint",
					"outputs": [],
					"stateMutability": "payable",
					"type": "function"
				},
				{
					"inputs": [],
					"name": "name",
					"outputs": [
						{
							"internalType": "string",
							"name": "",
							"type": "string"
						}
					],
					"stateMutability": "view",
					"type": "function"
				},
				{
					"inputs": [],
					"name": "onlyAllowlisted",
					"outputs": [
						{
							"internalType": "bool",
							"name": "",
							"type": "bool"
						}
					],
					"stateMutability": "view",
					"type": "function"
				},
				{
					"inputs": [],
					"name": "owner",
					"outputs": [
						{
							"internalType": "address",
							"name": "",
							"type": "address"
						}
					],
					"stateMutability": "view",
					"type": "function"
				},
				{
					"inputs": [
						{
							"internalType": "uint256",
							"name": "tokenId",
							"type": "uint256"
						}
					],
					"name": "ownerOf",
					"outputs": [
						{
							"internalType": "address",
							"name": "",
							"type": "address"
						}
					],
					"stateMutability": "view",
					"type": "function"
				},
				{
					"inputs": [
						{
							"internalType": "address",
							"name": "tokenOwner",
							"type": "address"
						}
					],
					"name": "ownerOfTokenIds",
					"outputs": [
						{
							"internalType": "uint256[]",
							"name": "",
							"type": "uint256[]"
						}
					],
					"stateMutability": "view",
					"type": "function"
				},
				{
					"inputs": [
						{
							"internalType": "bool",
							"name": "_state",
							"type": "bool"
						}
					],
					"name": "pause",
					"outputs": [],
					"stateMutability": "nonpayable",
					"type": "function"
				},
				{
					"inputs": [],
					"name": "paused",
					"outputs": [
						{
							"internalType": "bool",
							"name": "",
							"type": "bool"
						}
					],
					"stateMutability": "view",
					"type": "function"
				},
				{
					"inputs": [
						{
							"internalType": "address[]",
							"name": "addresses",
							"type": "address[]"
						}
					],
					"name": "removeUsersFromAllowlist",
					"outputs": [],
					"stateMutability": "nonpayable",
					"type": "function"
				},
				{
					"inputs": [],
					"name": "renounceOwnership",
					"outputs": [],
					"stateMutability": "nonpayable",
					"type": "function"
				},
				{
					"inputs": [
						{
							"internalType": "address",
							"name": "from",
							"type": "address"
						},
						{
							"internalType": "address",
							"name": "to",
							"type": "address"
						},
						{
							"internalType": "uint256",
							"name": "tokenId",
							"type": "uint256"
						}
					],
					"name": "safeTransferFrom",
					"outputs": [],
					"stateMutability": "nonpayable",
					"type": "function"
				},
				{
					"inputs": [
						{
							"internalType": "address",
							"name": "from",
							"type": "address"
						},
						{
							"internalType": "address",
							"name": "to",
							"type": "address"
						},
						{
							"internalType": "uint256",
							"name": "tokenId",
							"type": "uint256"
						},
						{
							"internalType": "bytes",
							"name": "_data",
							"type": "bytes"
						}
					],
					"name": "safeTransferFrom",
					"outputs": [],
					"stateMutability": "nonpayable",
					"type": "function"
				},
				{
					"inputs": [
						{
							"internalType": "address",
							"name": "operator",
							"type": "address"
						},
						{
							"internalType": "bool",
							"name": "approved",
							"type": "bool"
						}
					],
					"name": "setApprovalForAll",
					"outputs": [],
					"stateMutability": "nonpayable",
					"type": "function"
				},
				{
					"inputs": [
						{
							"internalType": "string",
							"name": "_newBaseExtension",
							"type": "string"
						}
					],
					"name": "setBaseExtension",
					"outputs": [],
					"stateMutability": "nonpayable",
					"type": "function"
				},
				{
					"inputs": [
						{
							"internalType": "string",
							"name": "_newBaseURI",
							"type": "string"
						}
					],
					"name": "setBaseURI",
					"outputs": [],
					"stateMutability": "nonpayable",
					"type": "function"
				},
				{
					"inputs": [
						{
							"internalType": "string",
							"name": "_newClaimURI",
							"type": "string"
						},
						{
							"internalType": "uint256",
							"name": "claim",
							"type": "uint256"
						}
					],
					"name": "setClaimURI",
					"outputs": [],
					"stateMutability": "nonpayable",
					"type": "function"
				},
				{
					"inputs": [
						{
							"internalType": "uint256",
							"name": "setTotal",
							"type": "uint256"
						}
					],
					"name": "setCurrentSetAmount",
					"outputs": [],
					"stateMutability": "nonpayable",
					"type": "function"
				},
				{
					"inputs": [
						{
							"internalType": "bool",
							"name": "_state",
							"type": "bool"
						}
					],
					"name": "setOnlyAllowlisted",
					"outputs": [],
					"stateMutability": "nonpayable",
					"type": "function"
				},
				{
					"inputs": [
						{
							"internalType": "bytes4",
							"name": "interfaceId",
							"type": "bytes4"
						}
					],
					"name": "supportsInterface",
					"outputs": [
						{
							"internalType": "bool",
							"name": "",
							"type": "bool"
						}
					],
					"stateMutability": "view",
					"type": "function"
				},
				{
					"inputs": [],
					"name": "symbol",
					"outputs": [
						{
							"internalType": "string",
							"name": "",
							"type": "string"
						}
					],
					"stateMutability": "view",
					"type": "function"
				},
				{
					"inputs": [
						{
							"internalType": "bool",
							"name": "_state",
							"type": "bool"
						},
						{
							"internalType": "uint256",
							"name": "claim",
							"type": "uint256"
						}
					],
					"name": "toggleClaim",
					"outputs": [],
					"stateMutability": "nonpayable",
					"type": "function"
				},
				{
					"inputs": [
						{
							"internalType": "uint256",
							"name": "tokenId",
							"type": "uint256"
						}
					],
					"name": "tokenURI",
					"outputs": [
						{
							"internalType": "string",
							"name": "",
							"type": "string"
						}
					],
					"stateMutability": "view",
					"type": "function"
				},
				{
					"inputs": [],
					"name": "totalSupply",
					"outputs": [
						{
							"internalType": "uint256",
							"name": "",
							"type": "uint256"
						}
					],
					"stateMutability": "view",
					"type": "function"
				},
				{
					"inputs": [
						{
							"internalType": "address",
							"name": "from",
							"type": "address"
						},
						{
							"internalType": "address",
							"name": "to",
							"type": "address"
						},
						{
							"internalType": "uint256",
							"name": "tokenId",
							"type": "uint256"
						}
					],
					"name": "transferFrom",
					"outputs": [],
					"stateMutability": "nonpayable",
					"type": "function"
				},
				{
					"inputs": [
						{
							"internalType": "address",
							"name": "newOwner",
							"type": "address"
						}
					],
					"name": "transferOwnership",
					"outputs": [],
					"stateMutability": "nonpayable",
					"type": "function"
				},
				{
					"inputs": [],
					"name": "withdraw",
					"outputs": [],
					"stateMutability": "payable",
					"type": "function"
				}
			],
			"devdoc": {
				"kind": "dev",
				"methods": {
					"approve(address,uint256)": {
						"details": "Gives permission to `to` to transfer `tokenId` token to another account. The approval is cleared when the token is transferred. Only a single account can be approved at a time, so approving the zero address clears previous approvals. Requirements: - The caller must own the token or be an approved operator. - `tokenId` must exist. Emits an {Approval} event."
					},
					"balanceOf(address)": {
						"details": "Returns the number of tokens in `owner`'s account."
					},
					"getApproved(uint256)": {
						"details": "Returns the account approved for `tokenId` token. Requirements: - `tokenId` must exist."
					},
					"isApprovedForAll(address,address)": {
						"details": "Returns if the `operator` is allowed to manage all of the assets of `owner`. See {setApprovalForAll}."
					},
					"name()": {
						"details": "Returns the token collection name."
					},
					"owner()": {
						"details": "Returns the address of the current owner."
					},
					"ownerOf(uint256)": {
						"details": "Returns the owner of the `tokenId` token. Requirements: - `tokenId` must exist."
					},
					"renounceOwnership()": {
						"details": "Leaves the contract without owner. It will not be possible to call `onlyOwner` functions anymore. Can only be called by the current owner. NOTE: Renouncing ownership will leave the contract without an owner, thereby removing any functionality that is only available to the owner."
					},
					"safeTransferFrom(address,address,uint256)": {
						"details": "Equivalent to `safeTransferFrom(from, to, tokenId, '')`."
					},
					"safeTransferFrom(address,address,uint256,bytes)": {
						"details": "Safely transfers `tokenId` token from `from` to `to`. Requirements: - `from` cannot be the zero address. - `to` cannot be the zero address. - `tokenId` token must exist and be owned by `from`. - If the caller is not `from`, it must be approved to move this token by either {approve} or {setApprovalForAll}. - If `to` refers to a smart contract, it must implement {IERC721Receiver-onERC721Received}, which is called upon a safe transfer. Emits a {Transfer} event."
					},
					"setApprovalForAll(address,bool)": {
						"details": "Approve or remove `operator` as an operator for the caller. Operators can call {transferFrom} or {safeTransferFrom} for any token owned by the caller. Requirements: - The `operator` cannot be the caller. Emits an {ApprovalForAll} event."
					},
					"supportsInterface(bytes4)": {
						"details": "Returns true if this contract implements the interface defined by `interfaceId`. See the corresponding [EIP section](https://eips.ethereum.org/EIPS/eip-165#how-interfaces-are-identified) to learn more about how these ids are created. This function call must use less than 30000 gas."
					},
					"symbol()": {
						"details": "Returns the token collection symbol."
					},
					"tokenURI(uint256)": {
						"details": "Returns the Uniform Resource Identifier (URI) for `tokenId` token."
					},
					"totalSupply()": {
						"details": "Returns the total number of tokens in existence. Burned tokens will reduce the count. To get the total number of tokens minted, please see {_totalMinted}."
					},
					"transferFrom(address,address,uint256)": {
						"details": "Transfers `tokenId` from `from` to `to`. Requirements: - `from` cannot be the zero address. - `to` cannot be the zero address. - `tokenId` token must be owned by `from`. - If the caller is not `from`, it must be approved to move this token by either {approve} or {setApprovalForAll}. Emits a {Transfer} event."
					},
					"transferOwnership(address)": {
						"details": "Transfers ownership of the contract to a new account (`newOwner`). Can only be called by the current owner."
					}
				},
				"version": 1
			},
			"evm": {
				"assembly": "    /* \"contracts/imiltestTwo.sol\":359:396  string public baseExtension = \".json\" */\n  0xc0\n    /* \"contracts/imiltestTwo.sol\":205:5632  contract imiltestTwo is Ownable, ERC721A, ReentrancyGuard {... */\n  0x40\n    /* \"contracts/imiltestTwo.sol\":359:396  string public baseExtension = \".json\" */\n  mstore\n  0x05\n    /* \"contracts/imiltestTwo.sol\":205:5632  contract imiltestTwo is Ownable, ERC721A, ReentrancyGuard {... */\n  0x80\n    /* \"contracts/imiltestTwo.sol\":359:396  string public baseExtension = \".json\" */\n  dup2\n  swap1\n  mstore\n  shl(0xd9, 0x173539b7b7)\n  0xa0\n  swap1\n  dup2\n  mstore\n  tag_1\n  swap2\n  0x0c\n  swap2\n  swap1\n  tag_2\n  jump\t// in\ntag_1:\n  pop\n    /* \"contracts/imiltestTwo.sol\":425:436  0.033 ether */\n  0x753d533d968000\n    /* \"contracts/imiltestTwo.sol\":403:436  uint256 public cost = 0.033 ether */\n  0x0d\n  sstore\n    /* \"contracts/imiltestTwo.sol\":468:470  69 */\n  0x45\n    /* \"contracts/imiltestTwo.sol\":441:470  uint256 public maxSupply = 69 */\n  0x0e\n  sstore\n    /* \"contracts/imiltestTwo.sol\":503:504  9 */\n  0x09\n    /* \"contracts/imiltestTwo.sol\":475:504  uint256 public currentSet = 9 */\n  0x0f\n  sstore\n    /* \"contracts/imiltestTwo.sol\":541:542  5 */\n  0x05\n    /* \"contracts/imiltestTwo.sol\":509:542  uint256 public AllowlistLimit = 5 */\n  0x10\n  sstore\n    /* \"contracts/imiltestTwo.sol\":549:575  bool public paused = false */\n  0x11\n  dup1\n  sload\n  not(0xff)\n  swap1\n  dup2\n  and\n  swap1\n  swap2\n  sstore\n    /* \"contracts/imiltestTwo.sol\":767:802  bool public onlyAllowlisted = false */\n  0x15\n  dup1\n  sload\n  swap1\n  swap2\n  and\n  swap1\n  sstore\n    /* \"contracts/imiltestTwo.sol\":915:1098  constructor(... */\n  callvalue\n  dup1\n  iszero\n  tag_3\n  jumpi\n  0x00\n  dup1\n  revert\ntag_3:\n  pop\n  mload(0x40)\n  sub(codesize, bytecodeSize)\n  dup1\n  bytecodeSize\n  dup4\n  codecopy\n  dup2\n  add\n  0x40\n  dup2\n  swap1\n  mstore\n  tag_4\n  swap2\n  tag_5\n  jump\t// in\ntag_4:\n    /* \"contracts/ERC721A.sol\":5201:5359  constructor(string memory name_, string memory symbol_) {\r... */\n  mload(0x40)\n  dup1\n  0x40\n  add\n  0x40\n  mstore\n  dup1\n  0x08\n  dup2\n  mstore\n  0x20\n  add\n  shl(0xc1, 0x34b6b4ba32b9ba19)\n  dup2\n  mstore\n  pop\n  mload(0x40)\n  dup1\n  0x40\n  add\n  0x40\n  mstore\n  dup1\n  0x03\n  dup2\n  mstore\n  0x20\n  add\n  shl(0xe8, 0x494d49)\n  dup2\n  mstore\n  pop\n    /* \"@openzeppelin/contracts/access/Ownable.sol\":936:968  _transferOwnership(_msgSender()) */\n  tag_11\n    /* \"@openzeppelin/contracts/access/Ownable.sol\":955:967  _msgSender() */\n  tag_12\n    /* \"@openzeppelin/contracts/access/Ownable.sol\":955:965  _msgSender */\n  shl(0x20, tag_13)\n    /* \"@openzeppelin/contracts/access/Ownable.sol\":955:967  _msgSender() */\n  0x20\n  shr\n  jump\t// in\ntag_12:\n    /* \"@openzeppelin/contracts/access/Ownable.sol\":936:954  _transferOwnership */\n  tag_14\n    /* \"@openzeppelin/contracts/access/Ownable.sol\":936:968  _transferOwnership(_msgSender()) */\n  jump\t// in\ntag_11:\n    /* \"contracts/ERC721A.sol\":5268:5281  _name = name_ */\n  dup2\n  mload\n  tag_16\n  swap1\n    /* \"contracts/ERC721A.sol\":5268:5273  _name */\n  0x03\n  swap1\n    /* \"contracts/ERC721A.sol\":5268:5281  _name = name_ */\n  0x20\n  dup6\n  add\n  swap1\n  tag_2\n  jump\t// in\ntag_16:\n  pop\n    /* \"contracts/ERC721A.sol\":5292:5309  _symbol = symbol_ */\n  dup1\n  mload\n  tag_17\n  swap1\n    /* \"contracts/ERC721A.sol\":5292:5299  _symbol */\n  0x04\n  swap1\n    /* \"contracts/ERC721A.sol\":5292:5309  _symbol = symbol_ */\n  0x20\n  dup5\n  add\n  swap1\n  tag_2\n  jump\t// in\ntag_17:\n  pop\n  pop\n    /* \"contracts/ERC721A.sol\":5751:5758  uint256 */\n  0x00\n    /* \"contracts/ERC721A.sol\":5320:5333  _currentIndex */\n  0x01\n    /* \"contracts/ERC721A.sol\":5320:5351  _currentIndex = _startTokenId() */\n  swap1\n  dup2\n  sstore\n    /* \"@openzeppelin/contracts/security/ReentrancyGuard.sol\":1806:1813  _status */\n  0x09\n    /* \"@openzeppelin/contracts/security/ReentrancyGuard.sol\":1806:1828  _status = _NOT_ENTERED */\n  sstore\n  pop\n    /* \"contracts/imiltestTwo.sol\":1033:1057  setBaseURI(_initBaseURI) */\n  tag_22\n    /* \"contracts/imiltestTwo.sol\":1044:1056  _initBaseURI */\n  dup3\n    /* \"contracts/imiltestTwo.sol\":1033:1043  setBaseURI */\n  tag_23\n    /* \"contracts/imiltestTwo.sol\":1033:1057  setBaseURI(_initBaseURI) */\n  jump\t// in\ntag_22:\n    /* \"contracts/imiltestTwo.sol\":1064:1092  setClaimURI(_initClaimURI,1) */\n  tag_24\n    /* \"contracts/imiltestTwo.sol\":1076:1089  _initClaimURI */\n  dup2\n    /* \"contracts/imiltestTwo.sol\":1090:1091  1 */\n  0x01\n    /* \"contracts/imiltestTwo.sol\":1064:1075  setClaimURI */\n  tag_25\n    /* \"contracts/imiltestTwo.sol\":1064:1092  setClaimURI(_initClaimURI,1) */\n  jump\t// in\ntag_24:\n    /* \"contracts/imiltestTwo.sol\":915:1098  constructor(... */\n  pop\n  pop\n    /* \"contracts/imiltestTwo.sol\":205:5632  contract imiltestTwo is Ownable, ERC721A, ReentrancyGuard {... */\n  jump(tag_58)\n    /* \"@openzeppelin/contracts/utils/Context.sol\":640:736  function _msgSender() internal view virtual returns (address) {... */\ntag_13:\n    /* \"@openzeppelin/contracts/utils/Context.sol\":719:729  msg.sender */\n  caller\n  swap1\n    /* \"@openzeppelin/contracts/utils/Context.sol\":640:736  function _msgSender() internal view virtual returns (address) {... */\n  jump\t// out\n    /* \"@openzeppelin/contracts/access/Ownable.sol\":2433:2620  function _transferOwnership(address newOwner) internal virtual {... */\ntag_14:\n    /* \"@openzeppelin/contracts/access/Ownable.sol\":2506:2522  address oldOwner */\n  0x00\n    /* \"@openzeppelin/contracts/access/Ownable.sol\":2525:2531  _owner */\n  dup1\n  sload\n  sub(shl(0xa0, 0x01), 0x01)\n    /* \"@openzeppelin/contracts/access/Ownable.sol\":2541:2558  _owner = newOwner */\n  dup4\n  dup2\n  and\n  not(sub(shl(0xa0, 0x01), 0x01))\n  dup4\n  and\n  dup2\n  or\n  dup5\n  sstore\n    /* \"@openzeppelin/contracts/access/Ownable.sol\":2573:2613  OwnershipTransferred(oldOwner, newOwner) */\n  mload(0x40)\n    /* \"@openzeppelin/contracts/access/Ownable.sol\":2525:2531  _owner */\n  swap2\n  swap1\n  swap3\n  and\n  swap3\n  dup4\n  swap2\n    /* \"@openzeppelin/contracts/access/Ownable.sol\":2573:2613  OwnershipTransferred(oldOwner, newOwner) */\n  0x8be0079c531659141344cd1fd0a4f28419497f9722a3daafe3b4186f6b6457e0\n  swap2\n    /* \"@openzeppelin/contracts/access/Ownable.sol\":2506:2522  address oldOwner */\n  swap1\n    /* \"@openzeppelin/contracts/access/Ownable.sol\":2573:2613  OwnershipTransferred(oldOwner, newOwner) */\n  log3\n    /* \"@openzeppelin/contracts/access/Ownable.sol\":2496:2620  {... */\n  pop\n    /* \"@openzeppelin/contracts/access/Ownable.sol\":2433:2620  function _transferOwnership(address newOwner) internal virtual {... */\n  pop\n  jump\t// out\n    /* \"contracts/imiltestTwo.sol\":4022:4120  function setBaseURI(string memory _newBaseURI) public onlyOwner {... */\ntag_23:\n    /* \"@openzeppelin/contracts/access/Ownable.sol\":1094:1107  _checkOwner() */\n  tag_31\n    /* \"@openzeppelin/contracts/access/Ownable.sol\":1094:1105  _checkOwner */\n  tag_32\n    /* \"@openzeppelin/contracts/access/Ownable.sol\":1094:1107  _checkOwner() */\n  jump\t// in\ntag_31:\n    /* \"contracts/imiltestTwo.sol\":4093:4114  baseURI = _newBaseURI */\n  dup1\n  mload\n  tag_34\n  swap1\n    /* \"contracts/imiltestTwo.sol\":4093:4100  baseURI */\n  0x0a\n  swap1\n    /* \"contracts/imiltestTwo.sol\":4093:4114  baseURI = _newBaseURI */\n  0x20\n  dup5\n  add\n  swap1\n  tag_2\n  jump\t// in\ntag_34:\n  pop\n    /* \"contracts/imiltestTwo.sol\":4022:4120  function setBaseURI(string memory _newBaseURI) public onlyOwner {... */\n  pop\n  jump\t// out\n    /* \"contracts/imiltestTwo.sol\":4127:4248  function setClaimURI(string memory _newClaimURI, uint claim) public onlyOwner {... */\ntag_25:\n    /* \"@openzeppelin/contracts/access/Ownable.sol\":1094:1107  _checkOwner() */\n  tag_36\n    /* \"@openzeppelin/contracts/access/Ownable.sol\":1094:1105  _checkOwner */\n  tag_32\n    /* \"@openzeppelin/contracts/access/Ownable.sol\":1094:1107  _checkOwner() */\n  jump\t// in\ntag_36:\n    /* \"contracts/imiltestTwo.sol\":4212:4227  claimURI[claim] */\n  0x00\n  dup2\n  dup2\n  mstore\n    /* \"contracts/imiltestTwo.sol\":4212:4220  claimURI */\n  0x0b\n    /* \"contracts/imiltestTwo.sol\":4212:4227  claimURI[claim] */\n  0x20\n  swap1\n  dup2\n  mstore\n  0x40\n  swap1\n  swap2\n  keccak256\n    /* \"contracts/imiltestTwo.sol\":4212:4242  claimURI[claim] = _newClaimURI */\n  dup4\n  mload\n  tag_38\n  swap3\n  dup6\n  add\n  swap1\n  tag_2\n  jump\t// in\ntag_38:\n  pop\n    /* \"contracts/imiltestTwo.sol\":4127:4248  function setClaimURI(string memory _newClaimURI, uint claim) public onlyOwner {... */\n  pop\n  pop\n  jump\t// out\n    /* \"@openzeppelin/contracts/access/Ownable.sol\":1359:1489  function _checkOwner() internal view virtual {... */\ntag_32:\n    /* \"@openzeppelin/contracts/access/Ownable.sol\":1247:1254  address */\n  0x00\n    /* \"@openzeppelin/contracts/access/Ownable.sol\":1273:1279  _owner */\n  sload\n  sub(shl(0xa0, 0x01), 0x01)\n  and\n    /* \"@openzeppelin/contracts/utils/Context.sol\":719:729  msg.sender */\n  caller\n    /* \"@openzeppelin/contracts/access/Ownable.sol\":1422:1445  owner() == _msgSender() */\n  eq\n    /* \"@openzeppelin/contracts/access/Ownable.sol\":1414:1482  require(owner() == _msgSender(), \"Ownable: caller is not the owner\") */\n  tag_43\n  jumpi\n  mload(0x40)\n  shl(0xe5, 0x461bcd)\n  dup2\n  mstore\n    /* \"#utility.yul\":1673:1675   */\n  0x20\n    /* \"@openzeppelin/contracts/access/Ownable.sol\":1414:1482  require(owner() == _msgSender(), \"Ownable: caller is not the owner\") */\n  0x04\n  dup3\n  add\n    /* \"#utility.yul\":1655:1676   */\n  dup2\n  swap1\n  mstore\n    /* \"#utility.yul\":1692:1710   */\n  0x24\n  dup3\n  add\n    /* \"#utility.yul\":1685:1715   */\n  mstore\n    /* \"#utility.yul\":1751:1785   */\n  0x4f776e61626c653a2063616c6c6572206973206e6f7420746865206f776e6572\n    /* \"#utility.yul\":1731:1749   */\n  0x44\n  dup3\n  add\n    /* \"#utility.yul\":1724:1786   */\n  mstore\n    /* \"#utility.yul\":1803:1821   */\n  0x64\n  add\n    /* \"@openzeppelin/contracts/access/Ownable.sol\":1414:1482  require(owner() == _msgSender(), \"Ownable: caller is not the owner\") */\n  mload(0x40)\n  dup1\n  swap2\n  sub\n  swap1\n  revert\ntag_43:\n    /* \"@openzeppelin/contracts/access/Ownable.sol\":1359:1489  function _checkOwner() internal view virtual {... */\n  jump\t// out\n    /* \"contracts/imiltestTwo.sol\":205:5632  contract imiltestTwo is Ownable, ERC721A, ReentrancyGuard {... */\ntag_2:\n  dup3\n  dup1\n  sload\n  tag_47\n  swap1\n  tag_48\n  jump\t// in\ntag_47:\n  swap1\n  0x00\n  mstore\n  keccak256(0x00, 0x20)\n  swap1\n  0x1f\n  add\n  0x20\n  swap1\n  div\n  dup2\n  add\n  swap3\n  dup3\n  tag_50\n  jumpi\n  0x00\n  dup6\n  sstore\n  jump(tag_53)\ntag_50:\n  dup3\n  0x1f\n  lt\n  tag_51\n  jumpi\n  dup1\n  mload\n  not(0xff)\n  and\n  dup4\n  dup1\n  add\n  or\n  dup6\n  sstore\n  jump(tag_53)\ntag_51:\n  dup3\n  dup1\n  add\n  0x01\n  add\n  dup6\n  sstore\n  dup3\n  iszero\n  tag_53\n  jumpi\n  swap2\n  dup3\n  add\ntag_52:\n  dup3\n  dup2\n  gt\n  iszero\n  tag_53\n  jumpi\n  dup3\n  mload\n  dup3\n  sstore\n  swap2\n  0x20\n  add\n  swap2\n  swap1\n  0x01\n  add\n  swap1\n  jump(tag_52)\ntag_53:\n  pop\n  tag_54\n  swap3\n  swap2\n  pop\n  tag_55\n  jump\t// in\ntag_54:\n  pop\n  swap1\n  jump\t// out\ntag_55:\ntag_56:\n  dup1\n  dup3\n  gt\n  iszero\n  tag_54\n  jumpi\n  0x00\n  dup2\n  sstore\n  0x01\n  add\n  jump(tag_56)\n    /* \"#utility.yul\":14:899   */\ntag_59:\n    /* \"#utility.yul\":68:73   */\n  0x00\n    /* \"#utility.yul\":121:124   */\n  dup3\n    /* \"#utility.yul\":114:118   */\n  0x1f\n    /* \"#utility.yul\":106:112   */\n  dup4\n    /* \"#utility.yul\":102:119   */\n  add\n    /* \"#utility.yul\":98:125   */\n  slt\n    /* \"#utility.yul\":88:143   */\n  tag_61\n  jumpi\n    /* \"#utility.yul\":139:140   */\n  0x00\n    /* \"#utility.yul\":136:137   */\n  dup1\n    /* \"#utility.yul\":129:141   */\n  revert\n    /* \"#utility.yul\":88:143   */\ntag_61:\n    /* \"#utility.yul\":162:175   */\n  dup2\n  mload\n  sub(shl(0x40, 0x01), 0x01)\n    /* \"#utility.yul\":224:234   */\n  dup1\n  dup3\n  gt\n    /* \"#utility.yul\":221:257   */\n  iszero\n  tag_63\n  jumpi\n    /* \"#utility.yul\":237:255   */\n  tag_63\n  tag_64\n  jump\t// in\ntag_63:\n    /* \"#utility.yul\":312:314   */\n  0x40\n    /* \"#utility.yul\":306:315   */\n  mload\n    /* \"#utility.yul\":280:282   */\n  0x1f\n    /* \"#utility.yul\":366:379   */\n  dup4\n  add\n  not(0x1f)\n    /* \"#utility.yul\":362:384   */\n  swap1\n  dup2\n  and\n    /* \"#utility.yul\":386:388   */\n  0x3f\n    /* \"#utility.yul\":358:389   */\n  add\n    /* \"#utility.yul\":354:394   */\n  and\n    /* \"#utility.yul\":342:395   */\n  dup2\n  add\n  swap1\n    /* \"#utility.yul\":410:428   */\n  dup3\n  dup3\n  gt\n    /* \"#utility.yul\":430:452   */\n  dup2\n  dup4\n  lt\n    /* \"#utility.yul\":407:453   */\n  or\n    /* \"#utility.yul\":404:476   */\n  iszero\n  tag_66\n  jumpi\n    /* \"#utility.yul\":456:474   */\n  tag_66\n  tag_64\n  jump\t// in\ntag_66:\n    /* \"#utility.yul\":496:506   */\n  dup2\n    /* \"#utility.yul\":492:494   */\n  0x40\n    /* \"#utility.yul\":485:507   */\n  mstore\n    /* \"#utility.yul\":531:533   */\n  dup4\n    /* \"#utility.yul\":523:529   */\n  dup2\n    /* \"#utility.yul\":516:534   */\n  mstore\n    /* \"#utility.yul\":553:557   */\n  0x20\n    /* \"#utility.yul\":543:557   */\n  swap3\n  pop\n    /* \"#utility.yul\":598:601   */\n  dup7\n    /* \"#utility.yul\":593:595   */\n  dup4\n    /* \"#utility.yul\":588:590   */\n  dup6\n    /* \"#utility.yul\":580:586   */\n  dup9\n    /* \"#utility.yul\":576:591   */\n  add\n    /* \"#utility.yul\":572:596   */\n  add\n    /* \"#utility.yul\":569:602   */\n  gt\n    /* \"#utility.yul\":566:619   */\n  iszero\n  tag_67\n  jumpi\n    /* \"#utility.yul\":615:616   */\n  0x00\n    /* \"#utility.yul\":612:613   */\n  dup1\n    /* \"#utility.yul\":605:617   */\n  revert\n    /* \"#utility.yul\":566:619   */\ntag_67:\n    /* \"#utility.yul\":637:638   */\n  0x00\n    /* \"#utility.yul\":628:638   */\n  swap2\n  pop\n    /* \"#utility.yul\":647:780   */\ntag_68:\n    /* \"#utility.yul\":661:663   */\n  dup4\n    /* \"#utility.yul\":658:659   */\n  dup3\n    /* \"#utility.yul\":655:664   */\n  lt\n    /* \"#utility.yul\":647:780   */\n  iszero\n  tag_70\n  jumpi\n    /* \"#utility.yul\":749:763   */\n  dup6\n  dup3\n  add\n    /* \"#utility.yul\":745:768   */\n  dup4\n  add\n    /* \"#utility.yul\":739:769   */\n  mload\n    /* \"#utility.yul\":718:732   */\n  dup2\n  dup4\n  add\n    /* \"#utility.yul\":714:737   */\n  dup5\n  add\n    /* \"#utility.yul\":707:770   */\n  mstore\n    /* \"#utility.yul\":672:682   */\n  swap1\n  dup3\n  add\n  swap1\n    /* \"#utility.yul\":647:780   */\n  jump(tag_68)\ntag_70:\n    /* \"#utility.yul\":798:800   */\n  dup4\n    /* \"#utility.yul\":795:796   */\n  dup3\n    /* \"#utility.yul\":792:801   */\n  gt\n    /* \"#utility.yul\":789:869   */\n  iszero\n  tag_71\n  jumpi\n    /* \"#utility.yul\":857:858   */\n  0x00\n    /* \"#utility.yul\":852:854   */\n  dup4\n    /* \"#utility.yul\":847:849   */\n  dup6\n    /* \"#utility.yul\":839:845   */\n  dup4\n    /* \"#utility.yul\":835:850   */\n  add\n    /* \"#utility.yul\":831:855   */\n  add\n    /* \"#utility.yul\":824:859   */\n  mstore\n    /* \"#utility.yul\":789:869   */\ntag_71:\n    /* \"#utility.yul\":887:893   */\n  swap7\n    /* \"#utility.yul\":14:899   */\n  swap6\n  pop\n  pop\n  pop\n  pop\n  pop\n  pop\n  jump\t// out\n    /* \"#utility.yul\":904:1466   */\ntag_5:\n    /* \"#utility.yul\":1003:1009   */\n  0x00\n    /* \"#utility.yul\":1011:1017   */\n  dup1\n    /* \"#utility.yul\":1064:1066   */\n  0x40\n    /* \"#utility.yul\":1052:1061   */\n  dup4\n    /* \"#utility.yul\":1043:1050   */\n  dup6\n    /* \"#utility.yul\":1039:1062   */\n  sub\n    /* \"#utility.yul\":1035:1067   */\n  slt\n    /* \"#utility.yul\":1032:1084   */\n  iszero\n  tag_73\n  jumpi\n    /* \"#utility.yul\":1080:1081   */\n  0x00\n    /* \"#utility.yul\":1077:1078   */\n  dup1\n    /* \"#utility.yul\":1070:1082   */\n  revert\n    /* \"#utility.yul\":1032:1084   */\ntag_73:\n    /* \"#utility.yul\":1107:1123   */\n  dup3\n  mload\n  sub(shl(0x40, 0x01), 0x01)\n    /* \"#utility.yul\":1172:1186   */\n  dup1\n  dup3\n  gt\n    /* \"#utility.yul\":1169:1203   */\n  iszero\n  tag_74\n  jumpi\n    /* \"#utility.yul\":1199:1200   */\n  0x00\n    /* \"#utility.yul\":1196:1197   */\n  dup1\n    /* \"#utility.yul\":1189:1201   */\n  revert\n    /* \"#utility.yul\":1169:1203   */\ntag_74:\n    /* \"#utility.yul\":1222:1283   */\n  tag_75\n    /* \"#utility.yul\":1275:1282   */\n  dup7\n    /* \"#utility.yul\":1266:1272   */\n  dup4\n    /* \"#utility.yul\":1255:1264   */\n  dup8\n    /* \"#utility.yul\":1251:1273   */\n  add\n    /* \"#utility.yul\":1222:1283   */\n  tag_59\n  jump\t// in\ntag_75:\n    /* \"#utility.yul\":1212:1283   */\n  swap4\n  pop\n    /* \"#utility.yul\":1329:1331   */\n  0x20\n    /* \"#utility.yul\":1318:1327   */\n  dup6\n    /* \"#utility.yul\":1314:1332   */\n  add\n    /* \"#utility.yul\":1308:1333   */\n  mload\n    /* \"#utility.yul\":1292:1333   */\n  swap2\n  pop\n    /* \"#utility.yul\":1358:1360   */\n  dup1\n    /* \"#utility.yul\":1348:1356   */\n  dup3\n    /* \"#utility.yul\":1345:1361   */\n  gt\n    /* \"#utility.yul\":1342:1378   */\n  iszero\n  tag_76\n  jumpi\n    /* \"#utility.yul\":1374:1375   */\n  0x00\n    /* \"#utility.yul\":1371:1372   */\n  dup1\n    /* \"#utility.yul\":1364:1376   */\n  revert\n    /* \"#utility.yul\":1342:1378   */\ntag_76:\n  pop\n    /* \"#utility.yul\":1397:1460   */\n  tag_77\n    /* \"#utility.yul\":1452:1459   */\n  dup6\n    /* \"#utility.yul\":1441:1449   */\n  dup3\n    /* \"#utility.yul\":1430:1439   */\n  dup7\n    /* \"#utility.yul\":1426:1450   */\n  add\n    /* \"#utility.yul\":1397:1460   */\n  tag_59\n  jump\t// in\ntag_77:\n    /* \"#utility.yul\":1387:1460   */\n  swap2\n  pop\n  pop\n    /* \"#utility.yul\":904:1466   */\n  swap3\n  pop\n  swap3\n  swap1\n  pop\n  jump\t// out\n    /* \"#utility.yul\":1832:2212   */\ntag_48:\n    /* \"#utility.yul\":1911:1912   */\n  0x01\n    /* \"#utility.yul\":1907:1919   */\n  dup2\n  dup2\n  shr\n  swap1\n    /* \"#utility.yul\":1954:1966   */\n  dup3\n  and\n  dup1\n    /* \"#utility.yul\":1975:2036   */\n  tag_80\n  jumpi\n    /* \"#utility.yul\":2029:2033   */\n  0x7f\n    /* \"#utility.yul\":2021:2027   */\n  dup3\n    /* \"#utility.yul\":2017:2034   */\n  and\n    /* \"#utility.yul\":2007:2034   */\n  swap2\n  pop\n    /* \"#utility.yul\":1975:2036   */\ntag_80:\n    /* \"#utility.yul\":2082:2084   */\n  0x20\n    /* \"#utility.yul\":2074:2080   */\n  dup3\n    /* \"#utility.yul\":2071:2085   */\n  lt\n    /* \"#utility.yul\":2051:2069   */\n  dup2\n    /* \"#utility.yul\":2048:2086   */\n  eq\n    /* \"#utility.yul\":2045:2206   */\n  iszero\n  tag_81\n  jumpi\n    /* \"#utility.yul\":2128:2138   */\n  0x4e487b71\n    /* \"#utility.yul\":2123:2126   */\n  0xe0\n    /* \"#utility.yul\":2119:2139   */\n  shl\n    /* \"#utility.yul\":2116:2117   */\n  0x00\n    /* \"#utility.yul\":2109:2140   */\n  mstore\n    /* \"#utility.yul\":2163:2167   */\n  0x22\n    /* \"#utility.yul\":2160:2161   */\n  0x04\n    /* \"#utility.yul\":2153:2168   */\n  mstore\n    /* \"#utility.yul\":2191:2195   */\n  0x24\n    /* \"#utility.yul\":2188:2189   */\n  0x00\n    /* \"#utility.yul\":2181:2196   */\n  revert\n    /* \"#utility.yul\":2045:2206   */\ntag_81:\n  pop\n    /* \"#utility.yul\":1832:2212   */\n  swap2\n  swap1\n  pop\n  jump\t// out\n    /* \"#utility.yul\":2217:2344   */\ntag_64:\n    /* \"#utility.yul\":2278:2288   */\n  0x4e487b71\n    /* \"#utility.yul\":2273:2276   */\n  0xe0\n    /* \"#utility.yul\":2269:2289   */\n  shl\n    /* \"#utility.yul\":2266:2267   */\n  0x00\n    /* \"#utility.yul\":2259:2290   */\n  mstore\n    /* \"#utility.yul\":2309:2313   */\n  0x41\n    /* \"#utility.yul\":2306:2307   */\n  0x04\n    /* \"#utility.yul\":2299:2314   */\n  mstore\n    /* \"#utility.yul\":2333:2337   */\n  0x24\n    /* \"#utility.yul\":2330:2331   */\n  0x00\n    /* \"#utility.yul\":2323:2338   */\n  revert\n    /* \"#utility.yul\":2217:2344   */\ntag_58:\n    /* \"contracts/imiltestTwo.sol\":205:5632  contract imiltestTwo is Ownable, ERC721A, ReentrancyGuard {... */\n  dataSize(sub_0)\n  dup1\n  dataOffset(sub_0)\n  0x00\n  codecopy\n  0x00\n  return\nstop\n\nsub_0: assembly {\n        /* \"contracts/imiltestTwo.sol\":205:5632  contract imiltestTwo is Ownable, ERC721A, ReentrancyGuard {... */\n      mstore(0x40, 0x80)\n      jumpi(tag_1, lt(calldatasize, 0x04))\n      shr(0xe0, calldataload(0x00))\n      dup1\n      0x674c02aa\n      gt\n      tag_46\n      jumpi\n      dup1\n      0xb3807b1d\n      gt\n      tag_47\n      jumpi\n      dup1\n      0xc87b56dd\n      gt\n      tag_48\n      jumpi\n      dup1\n      0xc87b56dd\n      eq\n      tag_40\n      jumpi\n      dup1\n      0xca8a7d5e\n      eq\n      tag_41\n      jumpi\n      dup1\n      0xd5abeb01\n      eq\n      tag_42\n      jumpi\n      dup1\n      0xda3ef23f\n      eq\n      tag_43\n      jumpi\n      dup1\n      0xe985e9c5\n      eq\n      tag_44\n      jumpi\n      dup1\n      0xf2fde38b\n      eq\n      tag_45\n      jumpi\n      0x00\n      dup1\n      revert\n    tag_48:\n      dup1\n      0xb3807b1d\n      eq\n      tag_35\n      jumpi\n      dup1\n      0xb88d4fde\n      eq\n      tag_36\n      jumpi\n      dup1\n      0xbf705b1c\n      eq\n      tag_37\n      jumpi\n      dup1\n      0xc4d2e8d6\n      eq\n      tag_38\n      jumpi\n      dup1\n      0xc6682862\n      eq\n      tag_39\n      jumpi\n      0x00\n      dup1\n      revert\n    tag_47:\n      dup1\n      0x8da5cb5b\n      gt\n      tag_49\n      jumpi\n      dup1\n      0x8da5cb5b\n      eq\n      tag_29\n      jumpi\n      dup1\n      0x95d89b41\n      eq\n      tag_30\n      jumpi\n      dup1\n      0xa0712d68\n      eq\n      tag_31\n      jumpi\n      dup1\n      0xa22cb465\n      eq\n      tag_32\n      jumpi\n      dup1\n      0xa7cd52cb\n      eq\n      tag_33\n      jumpi\n      dup1\n      0xa7dc7f2a\n      eq\n      tag_34\n      jumpi\n      0x00\n      dup1\n      revert\n    tag_49:\n      dup1\n      0x674c02aa\n      eq\n      tag_24\n      jumpi\n      dup1\n      0x70a08231\n      eq\n      tag_25\n      jumpi\n      dup1\n      0x715018a6\n      eq\n      tag_26\n      jumpi\n      dup1\n      0x74f59666\n      eq\n      tag_27\n      jumpi\n      dup1\n      0x85649743\n      eq\n      tag_28\n      jumpi\n      0x00\n      dup1\n      revert\n    tag_46:\n      dup1\n      0x18cae269\n      gt\n      tag_50\n      jumpi\n      dup1\n      0x42842e0e\n      gt\n      tag_51\n      jumpi\n      dup1\n      0x42842e0e\n      eq\n      tag_18\n      jumpi\n      dup1\n      0x55f804b3\n      eq\n      tag_19\n      jumpi\n      dup1\n      0x5b9e3ccf\n      eq\n      tag_20\n      jumpi\n      dup1\n      0x5c975abb\n      eq\n      tag_21\n      jumpi\n      dup1\n      0x5f93e9e3\n      eq\n      tag_22\n      jumpi\n      dup1\n      0x6352211e\n      eq\n      tag_23\n      jumpi\n      0x00\n      dup1\n      revert\n    tag_51:\n      dup1\n      0x18cae269\n      eq\n      tag_13\n      jumpi\n      dup1\n      0x1ee50697\n      eq\n      tag_14\n      jumpi\n      dup1\n      0x23b872dd\n      eq\n      tag_15\n      jumpi\n      dup1\n      0x30b86627\n      eq\n      tag_16\n      jumpi\n      dup1\n      0x3ccfd60b\n      eq\n      tag_17\n      jumpi\n      0x00\n      dup1\n      revert\n    tag_50:\n      dup1\n      0x095ea7b3\n      gt\n      tag_52\n      jumpi\n      dup1\n      0x095ea7b3\n      eq\n      tag_7\n      jumpi\n      dup1\n      0x0a70a191\n      eq\n      tag_8\n      jumpi\n      dup1\n      0x13faede6\n      eq\n      tag_9\n      jumpi\n      dup1\n      0x142b0fbe\n      eq\n      tag_10\n      jumpi\n      dup1\n      0x17dc10c4\n      eq\n      tag_11\n      jumpi\n      dup1\n      0x18160ddd\n      eq\n      tag_12\n      jumpi\n      0x00\n      dup1\n      revert\n    tag_52:\n      dup1\n      0x01ffc9a7\n      eq\n      tag_2\n      jumpi\n      dup1\n      0x02329a29\n      eq\n      tag_3\n      jumpi\n      dup1\n      0x05a3b809\n      eq\n      tag_4\n      jumpi\n      dup1\n      0x06fdde03\n      eq\n      tag_5\n      jumpi\n      dup1\n      0x081812fc\n      eq\n      tag_6\n      jumpi\n    tag_1:\n      0x00\n      dup1\n      revert\n        /* \"contracts/ERC721A.sol\":9526:10165  function supportsInterface(bytes4 interfaceId) public view virtual override returns (bool) {\r... */\n    tag_2:\n      callvalue\n      dup1\n      iszero\n      tag_53\n      jumpi\n      0x00\n      dup1\n      revert\n    tag_53:\n      pop\n      tag_54\n      tag_55\n      calldatasize\n      0x04\n      tag_56\n      jump\t// in\n    tag_55:\n      tag_57\n      jump\t// in\n    tag_54:\n      mload(0x40)\n        /* \"#utility.yul\":9216:9230   */\n      swap1\n      iszero\n        /* \"#utility.yul\":9209:9231   */\n      iszero\n        /* \"#utility.yul\":9191:9232   */\n      dup2\n      mstore\n        /* \"#utility.yul\":9179:9181   */\n      0x20\n        /* \"#utility.yul\":9164:9182   */\n      add\n        /* \"contracts/ERC721A.sol\":9526:10165  function supportsInterface(bytes4 interfaceId) public view virtual override returns (bool) {\r... */\n    tag_58:\n      mload(0x40)\n      dup1\n      swap2\n      sub\n      swap1\n      return\n        /* \"contracts/imiltestTwo.sol\":4488:4563  function pause(bool _state) external onlyOwner {... */\n    tag_3:\n      callvalue\n      dup1\n      iszero\n      tag_60\n      jumpi\n      0x00\n      dup1\n      revert\n    tag_60:\n      pop\n      tag_61\n      tag_62\n      calldatasize\n      0x04\n      tag_63\n      jump\t// in\n    tag_62:\n      tag_64\n      jump\t// in\n    tag_61:\n      stop\n        /* \"contracts/imiltestTwo.sol\":2504:2605  function isAllowlisted(address _user) public view returns (bool) {... */\n    tag_4:\n      callvalue\n      dup1\n      iszero\n      tag_65\n      jumpi\n      0x00\n      dup1\n      revert\n    tag_65:\n      pop\n      tag_54\n      tag_67\n      calldatasize\n      0x04\n      tag_68\n      jump\t// in\n    tag_67:\n      sub(shl(0xa0, 0x01), 0x01)\n        /* \"contracts/imiltestTwo.sol\":2583:2599  allowlist[_user] */\n      and\n        /* \"contracts/imiltestTwo.sol\":2563:2567  bool */\n      0x00\n        /* \"contracts/imiltestTwo.sol\":2583:2599  allowlist[_user] */\n      swap1\n      dup2\n      mstore\n        /* \"contracts/imiltestTwo.sol\":2583:2592  allowlist */\n      0x16\n        /* \"contracts/imiltestTwo.sol\":2583:2599  allowlist[_user] */\n      0x20\n      mstore\n      0x40\n      swap1\n      keccak256\n      sload\n      0xff\n      and\n      swap1\n        /* \"contracts/imiltestTwo.sol\":2504:2605  function isAllowlisted(address _user) public view returns (bool) {... */\n      jump\n        /* \"contracts/ERC721A.sol\":10428:10528  function name() public view virtual override returns (string memory) {\r... */\n    tag_5:\n      callvalue\n      dup1\n      iszero\n      tag_71\n      jumpi\n      0x00\n      dup1\n      revert\n    tag_71:\n      pop\n      tag_72\n      tag_73\n      jump\t// in\n    tag_72:\n      mload(0x40)\n      tag_58\n      swap2\n      swap1\n      tag_75\n      jump\t// in\n        /* \"contracts/ERC721A.sol\":16911:17129  function getApproved(uint256 tokenId) public view virtual override returns (address) {\r... */\n    tag_6:\n      callvalue\n      dup1\n      iszero\n      tag_76\n      jumpi\n      0x00\n      dup1\n      revert\n    tag_76:\n      pop\n      tag_77\n      tag_78\n      calldatasize\n      0x04\n      tag_79\n      jump\t// in\n    tag_78:\n      tag_80\n      jump\t// in\n    tag_77:\n      mload(0x40)\n      sub(shl(0xa0, 0x01), 0x01)\n        /* \"#utility.yul\":7877:7909   */\n      swap1\n      swap2\n      and\n        /* \"#utility.yul\":7859:7910   */\n      dup2\n      mstore\n        /* \"#utility.yul\":7847:7849   */\n      0x20\n        /* \"#utility.yul\":7832:7850   */\n      add\n        /* \"contracts/ERC721A.sol\":16911:17129  function getApproved(uint256 tokenId) public view virtual override returns (address) {\r... */\n      tag_58\n        /* \"#utility.yul\":7713:7916   */\n      jump\n        /* \"contracts/ERC721A.sol\":16352:16752  function approve(address to, uint256 tokenId) public virtual override {\r... */\n    tag_7:\n      callvalue\n      dup1\n      iszero\n      tag_83\n      jumpi\n      0x00\n      dup1\n      revert\n    tag_83:\n      pop\n      tag_61\n      tag_85\n      calldatasize\n      0x04\n      tag_86\n      jump\t// in\n    tag_85:\n      tag_87\n      jump\t// in\n        /* \"contracts/imiltestTwo.sol\":3392:3502  function toggleClaim(bool _state, uint claim) public onlyOwner {... */\n    tag_8:\n      callvalue\n      dup1\n      iszero\n      tag_88\n      jumpi\n      0x00\n      dup1\n      revert\n    tag_88:\n      pop\n      tag_61\n      tag_90\n      calldatasize\n      0x04\n      tag_91\n      jump\t// in\n    tag_90:\n      tag_92\n      jump\t// in\n        /* \"contracts/imiltestTwo.sol\":403:436  uint256 public cost = 0.033 ether */\n    tag_9:\n      callvalue\n      dup1\n      iszero\n      tag_93\n      jumpi\n      0x00\n      dup1\n      revert\n    tag_93:\n      pop\n      tag_94\n      sload(0x0d)\n      dup2\n      jump\n    tag_94:\n      mload(0x40)\n        /* \"#utility.yul\":15011:15036   */\n      swap1\n      dup2\n      mstore\n        /* \"#utility.yul\":14999:15001   */\n      0x20\n        /* \"#utility.yul\":14984:15002   */\n      add\n        /* \"contracts/imiltestTwo.sol\":403:436  uint256 public cost = 0.033 ether */\n      tag_58\n        /* \"#utility.yul\":14865:15042   */\n      jump\n        /* \"contracts/imiltestTwo.sol\":4855:5045  function removeUsersFromAllowlist(address[] calldata addresses) external onlyOwner {... */\n    tag_10:\n      callvalue\n      dup1\n      iszero\n      tag_98\n      jumpi\n      0x00\n      dup1\n      revert\n    tag_98:\n      pop\n      tag_61\n      tag_100\n      calldatasize\n      0x04\n      tag_101\n      jump\t// in\n    tag_100:\n      tag_102\n      jump\t// in\n        /* \"contracts/imiltestTwo.sol\":4569:4664  function setOnlyAllowlisted(bool _state) public onlyOwner {... */\n    tag_11:\n      callvalue\n      dup1\n      iszero\n      tag_103\n      jumpi\n      0x00\n      dup1\n      revert\n    tag_103:\n      pop\n      tag_61\n      tag_105\n      calldatasize\n      0x04\n      tag_63\n      jump\t// in\n    tag_105:\n      tag_106\n      jump\t// in\n        /* \"contracts/ERC721A.sol\":6179:6502  function totalSupply() public view virtual override returns (uint256) {\r... */\n    tag_12:\n      callvalue\n      dup1\n      iszero\n      tag_107\n      jumpi\n      0x00\n      dup1\n      revert\n    tag_107:\n      pop\n        /* \"contracts/ERC721A.sol\":6453:6465  _burnCounter */\n      sload(0x02)\n        /* \"contracts/ERC721A.sol\":6437:6450  _currentIndex */\n      sload(0x01)\n        /* \"contracts/ERC721A.sol\":6437:6465  _currentIndex - _burnCounter */\n      sub\n        /* \"contracts/ERC721A.sol\":6179:6502  function totalSupply() public view virtual override returns (uint256) {\r... */\n      jump(tag_94)\n        /* \"contracts/imiltestTwo.sol\":853:908  mapping(address => uint256) public addressMintedBalance */\n    tag_13:\n      callvalue\n      dup1\n      iszero\n      tag_111\n      jumpi\n      0x00\n      dup1\n      revert\n    tag_111:\n      pop\n      tag_94\n      tag_113\n      calldatasize\n      0x04\n      tag_68\n      jump\t// in\n    tag_113:\n      mstore(0x20, 0x17)\n      0x00\n      swap1\n      dup2\n      mstore\n      0x40\n      swap1\n      keccak256\n      sload\n      dup2\n      jump\n        /* \"contracts/imiltestTwo.sol\":707:758  mapping (uint256 =>  uint) public claimPhaseByToken */\n    tag_14:\n      callvalue\n      dup1\n      iszero\n      tag_116\n      jumpi\n      0x00\n      dup1\n      revert\n    tag_116:\n      pop\n      tag_94\n      tag_118\n      calldatasize\n      0x04\n      tag_79\n      jump\t// in\n    tag_118:\n      mstore(0x20, 0x14)\n      0x00\n      swap1\n      dup2\n      mstore\n      0x40\n      swap1\n      keccak256\n      sload\n      dup2\n      jump\n        /* \"contracts/ERC721A.sol\":20550:23367  function transferFrom(\r... */\n    tag_15:\n      callvalue\n      dup1\n      iszero\n      tag_121\n      jumpi\n      0x00\n      dup1\n      revert\n    tag_121:\n      pop\n      tag_61\n      tag_123\n      calldatasize\n      0x04\n      tag_124\n      jump\t// in\n    tag_123:\n      tag_125\n      jump\t// in\n        /* \"contracts/imiltestTwo.sol\":475:504  uint256 public currentSet = 9 */\n    tag_16:\n      callvalue\n      dup1\n      iszero\n      tag_126\n      jumpi\n      0x00\n      dup1\n      revert\n    tag_126:\n      pop\n      tag_94\n      sload(0x0f)\n      dup2\n      jump\n        /* \"contracts/imiltestTwo.sol\":5519:5625  function withdraw() public payable onlyOwner {... */\n    tag_17:\n      tag_61\n      tag_131\n      jump\t// in\n        /* \"contracts/ERC721A.sol\":23463:23648  function safeTransferFrom(\r... */\n    tag_18:\n      callvalue\n      dup1\n      iszero\n      tag_132\n      jumpi\n      0x00\n      dup1\n      revert\n    tag_132:\n      pop\n      tag_61\n      tag_134\n      calldatasize\n      0x04\n      tag_124\n      jump\t// in\n    tag_134:\n      tag_135\n      jump\t// in\n        /* \"contracts/imiltestTwo.sol\":4022:4120  function setBaseURI(string memory _newBaseURI) public onlyOwner {... */\n    tag_19:\n      callvalue\n      dup1\n      iszero\n      tag_136\n      jumpi\n      0x00\n      dup1\n      revert\n    tag_136:\n      pop\n      tag_61\n      tag_138\n      calldatasize\n      0x04\n      tag_139\n      jump\t// in\n    tag_138:\n      tag_140\n      jump\t// in\n        /* \"contracts/imiltestTwo.sol\":4670:4849  function allowlistUsers(address[] calldata addresses) external onlyOwner {... */\n    tag_20:\n      callvalue\n      dup1\n      iszero\n      tag_141\n      jumpi\n      0x00\n      dup1\n      revert\n    tag_141:\n      pop\n      tag_61\n      tag_143\n      calldatasize\n      0x04\n      tag_101\n      jump\t// in\n    tag_143:\n      tag_144\n      jump\t// in\n        /* \"contracts/imiltestTwo.sol\":549:575  bool public paused = false */\n    tag_21:\n      callvalue\n      dup1\n      iszero\n      tag_145\n      jumpi\n      0x00\n      dup1\n      revert\n    tag_145:\n      pop\n      sload(0x11)\n      tag_54\n      swap1\n      0xff\n      and\n      dup2\n      jump\n        /* \"contracts/imiltestTwo.sol\":4127:4248  function setClaimURI(string memory _newClaimURI, uint claim) public onlyOwner {... */\n    tag_22:\n      callvalue\n      dup1\n      iszero\n      tag_149\n      jumpi\n      0x00\n      dup1\n      revert\n    tag_149:\n      pop\n      tag_61\n      tag_151\n      calldatasize\n      0x04\n      tag_152\n      jump\t// in\n    tag_151:\n      tag_153\n      jump\t// in\n        /* \"contracts/ERC721A.sol\":11821:11973  function ownerOf(uint256 tokenId) public view virtual override returns (address) {\r... */\n    tag_23:\n      callvalue\n      dup1\n      iszero\n      tag_154\n      jumpi\n      0x00\n      dup1\n      revert\n    tag_154:\n      pop\n      tag_77\n      tag_156\n      calldatasize\n      0x04\n      tag_79\n      jump\t// in\n    tag_156:\n      tag_157\n      jump\t// in\n        /* \"contracts/imiltestTwo.sol\":767:802  bool public onlyAllowlisted = false */\n    tag_24:\n      callvalue\n      dup1\n      iszero\n      tag_159\n      jumpi\n      0x00\n      dup1\n      revert\n    tag_159:\n      pop\n      sload(0x15)\n      tag_54\n      swap1\n      0xff\n      and\n      dup2\n      jump\n        /* \"contracts/ERC721A.sol\":7363:7596  function balanceOf(address owner) public view virtual override returns (uint256) {\r... */\n    tag_25:\n      callvalue\n      dup1\n      iszero\n      tag_163\n      jumpi\n      0x00\n      dup1\n      revert\n    tag_163:\n      pop\n      tag_94\n      tag_165\n      calldatasize\n      0x04\n      tag_68\n      jump\t// in\n    tag_165:\n      tag_166\n      jump\t// in\n        /* \"@openzeppelin/contracts/access/Ownable.sol\":1831:1932  function renounceOwnership() public virtual onlyOwner {... */\n    tag_26:\n      callvalue\n      dup1\n      iszero\n      tag_168\n      jumpi\n      0x00\n      dup1\n      revert\n    tag_168:\n      pop\n      tag_61\n      tag_170\n      jump\t// in\n        /* \"contracts/imiltestTwo.sol\":636:702  mapping (uint =>  mapping(uint => bool)) public claimedItemByPhase */\n    tag_27:\n      callvalue\n      dup1\n      iszero\n      tag_171\n      jumpi\n      0x00\n      dup1\n      revert\n    tag_171:\n      pop\n      tag_54\n      tag_173\n      calldatasize\n      0x04\n      tag_174\n      jump\t// in\n    tag_173:\n      0x13\n      0x20\n      swap1\n      dup2\n      mstore\n      0x00\n      swap3\n      dup4\n      mstore\n      0x40\n      dup1\n      dup5\n      keccak256\n      swap1\n      swap2\n      mstore\n      swap1\n      dup3\n      mstore\n      swap1\n      keccak256\n      sload\n      0xff\n      and\n      dup2\n      jump\n        /* \"contracts/imiltestTwo.sol\":3882:4016  function checkClaimed(uint256 tokenId, uint claim) external view returns (bool) {... */\n    tag_28:\n      callvalue\n      dup1\n      iszero\n      tag_177\n      jumpi\n      0x00\n      dup1\n      revert\n    tag_177:\n      pop\n      tag_54\n      tag_179\n      calldatasize\n      0x04\n      tag_174\n      jump\t// in\n    tag_179:\n        /* \"contracts/imiltestTwo.sol\":3956:3960  bool */\n      0x00\n        /* \"contracts/imiltestTwo.sol\":3976:4003  claimedItemByPhase[tokenId] */\n      swap2\n      dup3\n      mstore\n        /* \"contracts/imiltestTwo.sol\":3976:3994  claimedItemByPhase */\n      0x13\n        /* \"contracts/imiltestTwo.sol\":3976:4003  claimedItemByPhase[tokenId] */\n      0x20\n      swap1\n      dup2\n      mstore\n      0x40\n      dup1\n      dup5\n      keccak256\n        /* \"contracts/imiltestTwo.sol\":3976:4010  claimedItemByPhase[tokenId][claim] */\n      swap3\n      dup5\n      mstore\n      swap2\n      swap1\n      mstore\n      swap1\n      keccak256\n      sload\n      0xff\n      and\n      swap1\n        /* \"contracts/imiltestTwo.sol\":3882:4016  function checkClaimed(uint256 tokenId, uint claim) external view returns (bool) {... */\n      jump\n        /* \"@openzeppelin/contracts/access/Ownable.sol\":1201:1286  function owner() public view virtual returns (address) {... */\n    tag_29:\n      callvalue\n      dup1\n      iszero\n      tag_182\n      jumpi\n      0x00\n      dup1\n      revert\n    tag_182:\n      pop\n        /* \"@openzeppelin/contracts/access/Ownable.sol\":1247:1254  address */\n      0x00\n        /* \"@openzeppelin/contracts/access/Ownable.sol\":1273:1279  _owner */\n      sload\n      sub(shl(0xa0, 0x01), 0x01)\n      and\n        /* \"@openzeppelin/contracts/access/Ownable.sol\":1201:1286  function owner() public view virtual returns (address) {... */\n      jump(tag_77)\n        /* \"contracts/ERC721A.sol\":10604:10708  function symbol() public view virtual override returns (string memory) {\r... */\n    tag_30:\n      callvalue\n      dup1\n      iszero\n      tag_186\n      jumpi\n      0x00\n      dup1\n      revert\n    tag_186:\n      pop\n      tag_72\n      tag_188\n      jump\t// in\n        /* \"contracts/imiltestTwo.sol\":1358:2498  function mint(uint256 _mintAmount) public payable {... */\n    tag_31:\n      tag_61\n      tag_191\n      calldatasize\n      0x04\n      tag_79\n      jump\t// in\n    tag_191:\n      tag_192\n      jump\t// in\n        /* \"contracts/ERC721A.sol\":17469:17703  function setApprovalForAll(address operator, bool approved) public virtual override {\r... */\n    tag_32:\n      callvalue\n      dup1\n      iszero\n      tag_193\n      jumpi\n      0x00\n      dup1\n      revert\n    tag_193:\n      pop\n      tag_61\n      tag_195\n      calldatasize\n      0x04\n      tag_196\n      jump\t// in\n    tag_195:\n      tag_197\n      jump\t// in\n        /* \"contracts/imiltestTwo.sol\":807:848  mapping(address => bool) public allowlist */\n    tag_33:\n      callvalue\n      dup1\n      iszero\n      tag_198\n      jumpi\n      0x00\n      dup1\n      revert\n    tag_198:\n      pop\n      tag_54\n      tag_200\n      calldatasize\n      0x04\n      tag_68\n      jump\t// in\n    tag_200:\n      mstore(0x20, 0x16)\n      0x00\n      swap1\n      dup2\n      mstore\n      0x40\n      swap1\n      keccak256\n      sload\n      0xff\n      and\n      dup2\n      jump\n        /* \"contracts/imiltestTwo.sol\":3508:3876  function claimItem(uint256 tokenId, uint claim) external {... */\n    tag_34:\n      callvalue\n      dup1\n      iszero\n      tag_203\n      jumpi\n      0x00\n      dup1\n      revert\n    tag_203:\n      pop\n      tag_61\n      tag_205\n      calldatasize\n      0x04\n      tag_174\n      jump\t// in\n    tag_205:\n      tag_206\n      jump\t// in\n        /* \"contracts/imiltestTwo.sol\":509:542  uint256 public AllowlistLimit = 5 */\n    tag_35:\n      callvalue\n      dup1\n      iszero\n      tag_207\n      jumpi\n      0x00\n      dup1\n      revert\n    tag_207:\n      pop\n      tag_94\n      sload(0x10)\n      dup2\n      jump\n        /* \"contracts/ERC721A.sol\":24246:24645  function safeTransferFrom(\r... */\n    tag_36:\n      callvalue\n      dup1\n      iszero\n      tag_211\n      jumpi\n      0x00\n      dup1\n      revert\n    tag_211:\n      pop\n      tag_61\n      tag_213\n      calldatasize\n      0x04\n      tag_214\n      jump\t// in\n    tag_213:\n      tag_215\n      jump\t// in\n        /* \"contracts/imiltestTwo.sol\":582:631  mapping (uint =>  bool) public claimActiveByPhase */\n    tag_37:\n      callvalue\n      dup1\n      iszero\n      tag_216\n      jumpi\n      0x00\n      dup1\n      revert\n    tag_216:\n      pop\n      tag_54\n      tag_218\n      calldatasize\n      0x04\n      tag_79\n      jump\t// in\n    tag_218:\n      mstore(0x20, 0x12)\n      0x00\n      swap1\n      dup2\n      mstore\n      0x40\n      swap1\n      keccak256\n      sload\n      0xff\n      and\n      dup2\n      jump\n        /* \"contracts/imiltestTwo.sol\":4382:4482  function setCurrentSetAmount(uint256 setTotal) external onlyOwner {... */\n    tag_38:\n      callvalue\n      dup1\n      iszero\n      tag_221\n      jumpi\n      0x00\n      dup1\n      revert\n    tag_221:\n      pop\n      tag_61\n      tag_223\n      calldatasize\n      0x04\n      tag_79\n      jump\t// in\n    tag_223:\n      tag_224\n      jump\t// in\n        /* \"contracts/imiltestTwo.sol\":359:396  string public baseExtension = \".json\" */\n    tag_39:\n      callvalue\n      dup1\n      iszero\n      tag_225\n      jumpi\n      0x00\n      dup1\n      revert\n    tag_225:\n      pop\n      tag_72\n      tag_227\n      jump\t// in\n        /* \"contracts/imiltestTwo.sol\":2611:3386  function tokenURI(uint256 tokenId)... */\n    tag_40:\n      callvalue\n      dup1\n      iszero\n      tag_229\n      jumpi\n      0x00\n      dup1\n      revert\n    tag_229:\n      pop\n      tag_72\n      tag_231\n      calldatasize\n      0x04\n      tag_79\n      jump\t// in\n    tag_231:\n      tag_232\n      jump\t// in\n        /* \"contracts/imiltestTwo.sol\":5051:5512  function ownerOfTokenIds(address tokenOwner) external view returns (uint256[] memory) {... */\n    tag_41:\n      callvalue\n      dup1\n      iszero\n      tag_234\n      jumpi\n      0x00\n      dup1\n      revert\n    tag_234:\n      pop\n      tag_235\n      tag_236\n      calldatasize\n      0x04\n      tag_68\n      jump\t// in\n    tag_236:\n      tag_237\n      jump\t// in\n    tag_235:\n      mload(0x40)\n      tag_58\n      swap2\n      swap1\n      tag_239\n      jump\t// in\n        /* \"contracts/imiltestTwo.sol\":441:470  uint256 public maxSupply = 69 */\n    tag_42:\n      callvalue\n      dup1\n      iszero\n      tag_240\n      jumpi\n      0x00\n      dup1\n      revert\n    tag_240:\n      pop\n      tag_94\n      sload(0x0e)\n      dup2\n      jump\n        /* \"contracts/imiltestTwo.sol\":4254:4376  function setBaseExtension(string memory _newBaseExtension) public onlyOwner {... */\n    tag_43:\n      callvalue\n      dup1\n      iszero\n      tag_244\n      jumpi\n      0x00\n      dup1\n      revert\n    tag_244:\n      pop\n      tag_61\n      tag_246\n      calldatasize\n      0x04\n      tag_139\n      jump\t// in\n    tag_246:\n      tag_247\n      jump\t// in\n        /* \"contracts/ERC721A.sol\":17860:18024  function isApprovedForAll(address owner, address operator) public view virtual override returns (bool) {\r... */\n    tag_44:\n      callvalue\n      dup1\n      iszero\n      tag_248\n      jumpi\n      0x00\n      dup1\n      revert\n    tag_248:\n      pop\n      tag_54\n      tag_250\n      calldatasize\n      0x04\n      tag_251\n      jump\t// in\n    tag_250:\n      sub(shl(0xa0, 0x01), 0x01)\n        /* \"contracts/ERC721A.sol\":17981:18006  _operatorApprovals[owner] */\n      swap2\n      dup3\n      and\n        /* \"contracts/ERC721A.sol\":17957:17961  bool */\n      0x00\n        /* \"contracts/ERC721A.sol\":17981:18006  _operatorApprovals[owner] */\n      swap1\n      dup2\n      mstore\n        /* \"contracts/ERC721A.sol\":17981:17999  _operatorApprovals */\n      0x08\n        /* \"contracts/ERC721A.sol\":17981:18006  _operatorApprovals[owner] */\n      0x20\n      swap1\n      dup2\n      mstore\n      0x40\n      dup1\n      dup4\n      keccak256\n        /* \"contracts/ERC721A.sol\":17981:18016  _operatorApprovals[owner][operator] */\n      swap4\n      swap1\n      swap5\n      and\n      dup3\n      mstore\n      swap2\n      swap1\n      swap2\n      mstore\n      keccak256\n      sload\n      0xff\n      and\n      swap1\n        /* \"contracts/ERC721A.sol\":17860:18024  function isApprovedForAll(address owner, address operator) public view virtual override returns (bool) {\r... */\n      jump\n        /* \"@openzeppelin/contracts/access/Ownable.sol\":2081:2279  function transferOwnership(address newOwner) public virtual onlyOwner {... */\n    tag_45:\n      callvalue\n      dup1\n      iszero\n      tag_254\n      jumpi\n      0x00\n      dup1\n      revert\n    tag_254:\n      pop\n      tag_61\n      tag_256\n      calldatasize\n      0x04\n      tag_68\n      jump\t// in\n    tag_256:\n      tag_257\n      jump\t// in\n        /* \"contracts/ERC721A.sol\":9526:10165  function supportsInterface(bytes4 interfaceId) public view virtual override returns (bool) {\r... */\n    tag_57:\n        /* \"contracts/ERC721A.sol\":9611:9615  bool */\n      0x00\n      shl(0xe0, 0x01ffc9a7)\n      not(sub(shl(0xe0, 0x01), 0x01))\n        /* \"contracts/ERC721A.sol\":9935:9960  interfaceId == 0x01ffc9a7 */\n      dup4\n      and\n      eq\n      dup1\n        /* \"contracts/ERC721A.sol\":9935:10037  interfaceId == 0x01ffc9a7 || // ERC165 interface ID for ERC165.\r... */\n      tag_259\n      jumpi\n      pop\n      shl(0xe0, 0x80ac58cd)\n      not(sub(shl(0xe0, 0x01), 0x01))\n        /* \"contracts/ERC721A.sol\":10012:10037  interfaceId == 0x80ac58cd */\n      dup4\n      and\n      eq\n        /* \"contracts/ERC721A.sol\":9935:10037  interfaceId == 0x01ffc9a7 || // ERC165 interface ID for ERC165.\r... */\n    tag_259:\n        /* \"contracts/ERC721A.sol\":9935:10114  interfaceId == 0x01ffc9a7 || // ERC165 interface ID for ERC165.\r... */\n      dup1\n      tag_260\n      jumpi\n      pop\n      shl(0xe0, 0x5b5e139f)\n      not(sub(shl(0xe0, 0x01), 0x01))\n        /* \"contracts/ERC721A.sol\":10089:10114  interfaceId == 0x5b5e139f */\n      dup4\n      and\n      eq\n        /* \"contracts/ERC721A.sol\":9935:10114  interfaceId == 0x01ffc9a7 || // ERC165 interface ID for ERC165.\r... */\n    tag_260:\n        /* \"contracts/ERC721A.sol\":9915:10114  return\r... */\n      swap3\n        /* \"contracts/ERC721A.sol\":9526:10165  function supportsInterface(bytes4 interfaceId) public view virtual override returns (bool) {\r... */\n      swap2\n      pop\n      pop\n      jump\t// out\n        /* \"contracts/imiltestTwo.sol\":4488:4563  function pause(bool _state) external onlyOwner {... */\n    tag_64:\n        /* \"@openzeppelin/contracts/access/Ownable.sol\":1094:1107  _checkOwner() */\n      tag_262\n        /* \"@openzeppelin/contracts/access/Ownable.sol\":1094:1105  _checkOwner */\n      tag_263\n        /* \"@openzeppelin/contracts/access/Ownable.sol\":1094:1107  _checkOwner() */\n      jump\t// in\n    tag_262:\n        /* \"contracts/imiltestTwo.sol\":4542:4548  paused */\n      0x11\n        /* \"contracts/imiltestTwo.sol\":4542:4557  paused = _state */\n      dup1\n      sload\n      not(0xff)\n      and\n      swap2\n      iszero\n      iszero\n      swap2\n      swap1\n      swap2\n      or\n      swap1\n      sstore\n        /* \"contracts/imiltestTwo.sol\":4488:4563  function pause(bool _state) external onlyOwner {... */\n      jump\t// out\n        /* \"contracts/ERC721A.sol\":10428:10528  function name() public view virtual override returns (string memory) {\r... */\n    tag_73:\n        /* \"contracts/ERC721A.sol\":10482:10495  string memory */\n      0x60\n        /* \"contracts/ERC721A.sol\":10515:10520  _name */\n      0x03\n        /* \"contracts/ERC721A.sol\":10508:10520  return _name */\n      dup1\n      sload\n      tag_267\n      swap1\n      tag_268\n      jump\t// in\n    tag_267:\n      dup1\n      0x1f\n      add\n      0x20\n      dup1\n      swap2\n      div\n      mul\n      0x20\n      add\n      mload(0x40)\n      swap1\n      dup2\n      add\n      0x40\n      mstore\n      dup1\n      swap3\n      swap2\n      swap1\n      dup2\n      dup2\n      mstore\n      0x20\n      add\n      dup3\n      dup1\n      sload\n      tag_269\n      swap1\n      tag_268\n      jump\t// in\n    tag_269:\n      dup1\n      iszero\n      tag_270\n      jumpi\n      dup1\n      0x1f\n      lt\n      tag_271\n      jumpi\n      0x0100\n      dup1\n      dup4\n      sload\n      div\n      mul\n      dup4\n      mstore\n      swap2\n      0x20\n      add\n      swap2\n      jump(tag_270)\n    tag_271:\n      dup3\n      add\n      swap2\n      swap1\n      0x00\n      mstore\n      keccak256(0x00, 0x20)\n      swap1\n    tag_272:\n      dup2\n      sload\n      dup2\n      mstore\n      swap1\n      0x01\n      add\n      swap1\n      0x20\n      add\n      dup1\n      dup4\n      gt\n      tag_272\n      jumpi\n      dup3\n      swap1\n      sub\n      0x1f\n      and\n      dup3\n      add\n      swap2\n    tag_270:\n      pop\n      pop\n      pop\n      pop\n      pop\n      swap1\n      pop\n        /* \"contracts/ERC721A.sol\":10428:10528  function name() public view virtual override returns (string memory) {\r... */\n      swap1\n      jump\t// out\n        /* \"contracts/ERC721A.sol\":16911:17129  function getApproved(uint256 tokenId) public view virtual override returns (address) {\r... */\n    tag_80:\n        /* \"contracts/ERC721A.sol\":16987:16994  address */\n      0x00\n        /* \"contracts/ERC721A.sol\":17012:17028  _exists(tokenId) */\n      tag_274\n        /* \"contracts/ERC721A.sol\":17020:17027  tokenId */\n      dup3\n        /* \"contracts/ERC721A.sol\":17012:17019  _exists */\n      tag_275\n        /* \"contracts/ERC721A.sol\":17012:17028  _exists(tokenId) */\n      jump\t// in\n    tag_274:\n        /* \"contracts/ERC721A.sol\":17007:17071  if (!_exists(tokenId)) revert ApprovalQueryForNonexistentToken() */\n      tag_276\n      jumpi\n        /* \"contracts/ERC721A.sol\":17037:17071  ApprovalQueryForNonexistentToken() */\n      mload(0x40)\n      shl(0xe2, 0x33d1c039)\n      dup2\n      mstore\n      0x04\n      add\n      mload(0x40)\n      dup1\n      swap2\n      sub\n      swap1\n      revert\n        /* \"contracts/ERC721A.sol\":17007:17071  if (!_exists(tokenId)) revert ApprovalQueryForNonexistentToken() */\n    tag_276:\n      pop\n        /* \"contracts/ERC721A.sol\":17091:17115  _tokenApprovals[tokenId] */\n      0x00\n      swap1\n      dup2\n      mstore\n        /* \"contracts/ERC721A.sol\":17091:17106  _tokenApprovals */\n      0x07\n        /* \"contracts/ERC721A.sol\":17091:17115  _tokenApprovals[tokenId] */\n      0x20\n      mstore\n      0x40\n      swap1\n      keccak256\n        /* \"contracts/ERC721A.sol\":17091:17121  _tokenApprovals[tokenId].value */\n      sload\n      sub(shl(0xa0, 0x01), 0x01)\n      and\n      swap1\n        /* \"contracts/ERC721A.sol\":16911:17129  function getApproved(uint256 tokenId) public view virtual override returns (address) {\r... */\n      jump\t// out\n        /* \"contracts/ERC721A.sol\":16352:16752  function approve(address to, uint256 tokenId) public virtual override {\r... */\n    tag_87:\n        /* \"contracts/ERC721A.sol\":16433:16446  address owner */\n      0x00\n        /* \"contracts/ERC721A.sol\":16449:16465  ownerOf(tokenId) */\n      tag_278\n        /* \"contracts/ERC721A.sol\":16457:16464  tokenId */\n      dup3\n        /* \"contracts/ERC721A.sol\":16449:16456  ownerOf */\n      tag_157\n        /* \"contracts/ERC721A.sol\":16449:16465  ownerOf(tokenId) */\n      jump\t// in\n    tag_278:\n        /* \"contracts/ERC721A.sol\":16433:16465  address owner = ownerOf(tokenId) */\n      swap1\n      pop\n        /* \"contracts/ERC721A.sol\":40407:40417  msg.sender */\n      caller\n      sub(shl(0xa0, 0x01), 0x01)\n        /* \"contracts/ERC721A.sol\":16482:16510  _msgSenderERC721A() != owner */\n      dup3\n      and\n      eq\n        /* \"contracts/ERC721A.sol\":16478:16653  if (_msgSenderERC721A() != owner)\r... */\n      tag_284\n      jumpi\n        /* \"contracts/ERC721A.sol\":16530:16574  isApprovedForAll(owner, _msgSenderERC721A()) */\n      tag_282\n        /* \"contracts/ERC721A.sol\":16547:16552  owner */\n      dup2\n        /* \"contracts/ERC721A.sol\":40407:40417  msg.sender */\n      caller\n        /* \"contracts/ERC721A.sol\":17860:18024  function isApprovedForAll(address owner, address operator) public view virtual override returns (bool) {\r... */\n      tag_250\n      jump\t// in\n        /* \"contracts/ERC721A.sol\":16530:16574  isApprovedForAll(owner, _msgSenderERC721A()) */\n    tag_282:\n        /* \"contracts/ERC721A.sol\":16525:16653  if (!isApprovedForAll(owner, _msgSenderERC721A())) {\r... */\n      tag_284\n      jumpi\n        /* \"contracts/ERC721A.sol\":16602:16637  ApprovalCallerNotOwnerNorApproved() */\n      mload(0x40)\n      shl(0xe1, 0x67d9dca1)\n      dup2\n      mstore\n      0x04\n      add\n      mload(0x40)\n      dup1\n      swap2\n      sub\n      swap1\n      revert\n        /* \"contracts/ERC721A.sol\":16525:16653  if (!isApprovedForAll(owner, _msgSenderERC721A())) {\r... */\n    tag_284:\n        /* \"contracts/ERC721A.sol\":16665:16689  _tokenApprovals[tokenId] */\n      0x00\n      dup3\n      dup2\n      mstore\n        /* \"contracts/ERC721A.sol\":16665:16680  _tokenApprovals */\n      0x07\n        /* \"contracts/ERC721A.sol\":16665:16689  _tokenApprovals[tokenId] */\n      0x20\n      mstore\n      0x40\n      dup1\n      dup3\n      keccak256\n        /* \"contracts/ERC721A.sol\":16665:16700  _tokenApprovals[tokenId].value = to */\n      dup1\n      sload\n      not(sub(shl(0xa0, 0x01), 0x01))\n      and\n      sub(shl(0xa0, 0x01), 0x01)\n      dup8\n      dup2\n      and\n      swap2\n      dup3\n      or\n      swap1\n      swap3\n      sstore\n        /* \"contracts/ERC721A.sol\":16716:16744  Approval(owner, to, tokenId) */\n      swap2\n      mload\n        /* \"contracts/ERC721A.sol\":16665:16689  _tokenApprovals[tokenId] */\n      dup6\n      swap4\n        /* \"contracts/ERC721A.sol\":16716:16744  Approval(owner, to, tokenId) */\n      swap2\n      dup6\n      and\n      swap2\n      0x8c5be1e5ebec7d5bd14f71427d1e84f3dd0314c0f7b2291e5b200ac8c7c3b925\n      swap2\n      log4\n        /* \"contracts/ERC721A.sol\":16422:16752  {\r... */\n      pop\n        /* \"contracts/ERC721A.sol\":16352:16752  function approve(address to, uint256 tokenId) public virtual override {\r... */\n      pop\n      pop\n      jump\t// out\n        /* \"contracts/imiltestTwo.sol\":3392:3502  function toggleClaim(bool _state, uint claim) public onlyOwner {... */\n    tag_92:\n        /* \"@openzeppelin/contracts/access/Ownable.sol\":1094:1107  _checkOwner() */\n      tag_286\n        /* \"@openzeppelin/contracts/access/Ownable.sol\":1094:1105  _checkOwner */\n      tag_263\n        /* \"@openzeppelin/contracts/access/Ownable.sol\":1094:1107  _checkOwner() */\n      jump\t// in\n    tag_286:\n        /* \"contracts/imiltestTwo.sol\":3462:3487  claimActiveByPhase[claim] */\n      0x00\n      swap1\n      dup2\n      mstore\n        /* \"contracts/imiltestTwo.sol\":3462:3480  claimActiveByPhase */\n      0x12\n        /* \"contracts/imiltestTwo.sol\":3462:3487  claimActiveByPhase[claim] */\n      0x20\n      mstore\n      0x40\n      swap1\n      keccak256\n        /* \"contracts/imiltestTwo.sol\":3462:3496  claimActiveByPhase[claim] = _state */\n      dup1\n      sload\n      not(0xff)\n      and\n      swap2\n      iszero\n      iszero\n      swap2\n      swap1\n      swap2\n      or\n      swap1\n      sstore\n        /* \"contracts/imiltestTwo.sol\":3392:3502  function toggleClaim(bool _state, uint claim) public onlyOwner {... */\n      jump\t// out\n        /* \"contracts/imiltestTwo.sol\":4855:5045  function removeUsersFromAllowlist(address[] calldata addresses) external onlyOwner {... */\n    tag_102:\n        /* \"@openzeppelin/contracts/access/Ownable.sol\":1094:1107  _checkOwner() */\n      tag_289\n        /* \"@openzeppelin/contracts/access/Ownable.sol\":1094:1105  _checkOwner */\n      tag_263\n        /* \"@openzeppelin/contracts/access/Ownable.sol\":1094:1107  _checkOwner() */\n      jump\t// in\n    tag_289:\n        /* \"contracts/imiltestTwo.sol\":4950:4959  uint256 i */\n      0x00\n        /* \"contracts/imiltestTwo.sol\":4945:5040  for (uint256 i = 0; i < addresses.length; i++) {... */\n    tag_291:\n        /* \"contracts/imiltestTwo.sol\":4965:4985  i < addresses.length */\n      dup2\n      dup2\n      lt\n        /* \"contracts/imiltestTwo.sol\":4945:5040  for (uint256 i = 0; i < addresses.length; i++) {... */\n      iszero\n      tag_292\n      jumpi\n        /* \"contracts/imiltestTwo.sol\":5027:5032  false */\n      0x00\n        /* \"contracts/imiltestTwo.sol\":5001:5010  allowlist */\n      0x16\n        /* \"contracts/imiltestTwo.sol\":5001:5024  allowlist[addresses[i]] */\n      0x00\n        /* \"contracts/imiltestTwo.sol\":5011:5020  addresses */\n      dup6\n      dup6\n        /* \"contracts/imiltestTwo.sol\":5021:5022  i */\n      dup6\n        /* \"contracts/imiltestTwo.sol\":5011:5023  addresses[i] */\n      dup2\n      dup2\n      lt\n      tag_295\n      jumpi\n      tag_295\n      tag_296\n      jump\t// in\n    tag_295:\n      swap1\n      pop\n      0x20\n      mul\n      add\n      0x20\n      dup2\n      add\n      swap1\n      tag_297\n      swap2\n      swap1\n      tag_68\n      jump\t// in\n    tag_297:\n      sub(shl(0xa0, 0x01), 0x01)\n        /* \"contracts/imiltestTwo.sol\":5001:5024  allowlist[addresses[i]] */\n      and\n      dup2\n      mstore\n      0x20\n      dup2\n      add\n      swap2\n      swap1\n      swap2\n      mstore\n      0x40\n      add\n      0x00\n      keccak256\n        /* \"contracts/imiltestTwo.sol\":5001:5032  allowlist[addresses[i]] = false */\n      dup1\n      sload\n      not(0xff)\n      and\n      swap2\n      iszero\n      iszero\n      swap2\n      swap1\n      swap2\n      or\n      swap1\n      sstore\n        /* \"contracts/imiltestTwo.sol\":4987:4990  i++ */\n      dup1\n      tag_298\n      dup2\n      tag_299\n      jump\t// in\n    tag_298:\n      swap2\n      pop\n      pop\n        /* \"contracts/imiltestTwo.sol\":4945:5040  for (uint256 i = 0; i < addresses.length; i++) {... */\n      jump(tag_291)\n    tag_292:\n      pop\n        /* \"contracts/imiltestTwo.sol\":4855:5045  function removeUsersFromAllowlist(address[] calldata addresses) external onlyOwner {... */\n      pop\n      pop\n      jump\t// out\n        /* \"contracts/imiltestTwo.sol\":4569:4664  function setOnlyAllowlisted(bool _state) public onlyOwner {... */\n    tag_106:\n        /* \"@openzeppelin/contracts/access/Ownable.sol\":1094:1107  _checkOwner() */\n      tag_301\n        /* \"@openzeppelin/contracts/access/Ownable.sol\":1094:1105  _checkOwner */\n      tag_263\n        /* \"@openzeppelin/contracts/access/Ownable.sol\":1094:1107  _checkOwner() */\n      jump\t// in\n    tag_301:\n        /* \"contracts/imiltestTwo.sol\":4634:4649  onlyAllowlisted */\n      0x15\n        /* \"contracts/imiltestTwo.sol\":4634:4658  onlyAllowlisted = _state */\n      dup1\n      sload\n      not(0xff)\n      and\n      swap2\n      iszero\n      iszero\n      swap2\n      swap1\n      swap2\n      or\n      swap1\n      sstore\n        /* \"contracts/imiltestTwo.sol\":4569:4664  function setOnlyAllowlisted(bool _state) public onlyOwner {... */\n      jump\t// out\n        /* \"contracts/ERC721A.sol\":20550:23367  function transferFrom(\r... */\n    tag_125:\n        /* \"contracts/ERC721A.sol\":20684:20711  uint256 prevOwnershipPacked */\n      0x00\n        /* \"contracts/ERC721A.sol\":20714:20741  _packedOwnershipOf(tokenId) */\n      tag_307\n        /* \"contracts/ERC721A.sol\":20733:20740  tokenId */\n      dup3\n        /* \"contracts/ERC721A.sol\":20714:20732  _packedOwnershipOf */\n      tag_308\n        /* \"contracts/ERC721A.sol\":20714:20741  _packedOwnershipOf(tokenId) */\n      jump\t// in\n    tag_307:\n        /* \"contracts/ERC721A.sol\":20684:20741  uint256 prevOwnershipPacked = _packedOwnershipOf(tokenId) */\n      swap1\n      pop\n        /* \"contracts/ERC721A.sol\":20799:20803  from */\n      dup4\n      sub(shl(0xa0, 0x01), 0x01)\n        /* \"contracts/ERC721A.sol\":20758:20803  address(uint160(prevOwnershipPacked)) != from */\n      and\n        /* \"contracts/ERC721A.sol\":20774:20793  prevOwnershipPacked */\n      dup2\n      sub(shl(0xa0, 0x01), 0x01)\n        /* \"contracts/ERC721A.sol\":20758:20803  address(uint160(prevOwnershipPacked)) != from */\n      and\n      eq\n        /* \"contracts/ERC721A.sol\":20754:20840  if (address(uint160(prevOwnershipPacked)) != from) revert TransferFromIncorrectOwner() */\n      tag_309\n      jumpi\n        /* \"contracts/ERC721A.sol\":20812:20840  TransferFromIncorrectOwner() */\n      mload(0x40)\n      shl(0xe8, 0xa11481)\n      dup2\n      mstore\n      0x04\n      add\n      mload(0x40)\n      dup1\n      swap2\n      sub\n      swap1\n      revert\n        /* \"contracts/ERC721A.sol\":20754:20840  if (address(uint160(prevOwnershipPacked)) != from) revert TransferFromIncorrectOwner() */\n    tag_309:\n        /* \"contracts/ERC721A.sol\":20854:20881  uint256 approvedAddressSlot */\n      0x00\n        /* \"contracts/ERC721A.sol\":19658:19682  _tokenApprovals[tokenId] */\n      dup3\n      dup2\n      mstore\n        /* \"contracts/ERC721A.sol\":19658:19673  _tokenApprovals */\n      0x07\n        /* \"contracts/ERC721A.sol\":19658:19682  _tokenApprovals[tokenId] */\n      0x20\n      mstore\n      0x40\n      swap1\n      keccak256\n        /* \"contracts/ERC721A.sol\":19886:19912  sload(approvedAddressSlot) */\n      dup1\n      sload\n        /* \"contracts/ERC721A.sol\":40407:40417  msg.sender */\n      caller\n        /* \"contracts/ERC721A.sol\":19283:19313  eq(msgSender, approvedAddress) */\n      dup1\n      dup3\n      eq\n      sub(shl(0xa0, 0x01), 0x01)\n        /* \"contracts/ERC721A.sol\":18976:19004  and(owner, _BITMASK_ADDRESS) */\n      dup9\n      and\n        /* \"contracts/ERC721A.sol\":19261:19281  eq(msgSender, owner) */\n      swap1\n      swap2\n      eq\n        /* \"contracts/ERC721A.sol\":19258:19314  or(eq(msgSender, owner), eq(msgSender, approvedAddress)) */\n      or\n        /* \"contracts/ERC721A.sol\":21040:21220  if (!_isSenderApprovedOrOwner(approvedAddress, from, _msgSenderERC721A()))\r... */\n      tag_318\n      jumpi\n        /* \"contracts/ERC721A.sol\":21133:21176  isApprovedForAll(from, _msgSenderERC721A()) */\n      tag_316\n        /* \"contracts/ERC721A.sol\":21150:21154  from */\n      dup7\n        /* \"contracts/ERC721A.sol\":40407:40417  msg.sender */\n      caller\n        /* \"contracts/ERC721A.sol\":17860:18024  function isApprovedForAll(address owner, address operator) public view virtual override returns (bool) {\r... */\n      tag_250\n      jump\t// in\n        /* \"contracts/ERC721A.sol\":21133:21176  isApprovedForAll(from, _msgSenderERC721A()) */\n    tag_316:\n        /* \"contracts/ERC721A.sol\":21128:21220  if (!isApprovedForAll(from, _msgSenderERC721A())) revert TransferCallerNotOwnerNorApproved() */\n      tag_318\n      jumpi\n        /* \"contracts/ERC721A.sol\":21185:21220  TransferCallerNotOwnerNorApproved() */\n      mload(0x40)\n      shl(0xe1, 0x2ce44b5f)\n      dup2\n      mstore\n      0x04\n      add\n      mload(0x40)\n      dup1\n      swap2\n      sub\n      swap1\n      revert\n        /* \"contracts/ERC721A.sol\":21128:21220  if (!isApprovedForAll(from, _msgSenderERC721A())) revert TransferCallerNotOwnerNorApproved() */\n    tag_318:\n      sub(shl(0xa0, 0x01), 0x01)\n        /* \"contracts/ERC721A.sol\":21237:21253  to == address(0) */\n      dup6\n      and\n        /* \"contracts/ERC721A.sol\":21233:21285  if (to == address(0)) revert TransferToZeroAddress() */\n      tag_319\n      jumpi\n        /* \"contracts/ERC721A.sol\":21262:21285  TransferToZeroAddress() */\n      mload(0x40)\n      shl(0xe2, 0x3a954ecd)\n      dup2\n      mstore\n      0x04\n      add\n      mload(0x40)\n      dup1\n      swap2\n      sub\n      swap1\n      revert\n        /* \"contracts/ERC721A.sol\":21233:21285  if (to == address(0)) revert TransferToZeroAddress() */\n    tag_319:\n        /* \"contracts/ERC721A.sol\":21434:21449  approvedAddress */\n      dup1\n        /* \"contracts/ERC721A.sol\":21431:21591  if approvedAddress {\r... */\n      iszero\n      tag_322\n      jumpi\n        /* \"contracts/ERC721A.sol\":21574:21575  0 */\n      0x00\n        /* \"contracts/ERC721A.sol\":21553:21572  approvedAddressSlot */\n      dup3\n        /* \"contracts/ERC721A.sol\":21546:21576  sstore(approvedAddressSlot, 0) */\n      sstore\n        /* \"contracts/ERC721A.sol\":21431:21591  if approvedAddress {\r... */\n    tag_322:\n      sub(shl(0xa0, 0x01), 0x01)\n        /* \"contracts/ERC721A.sol\":21971:21995  _packedAddressData[from] */\n      dup7\n      dup2\n      and\n      0x00\n      swap1\n      dup2\n      mstore\n        /* \"contracts/ERC721A.sol\":21971:21989  _packedAddressData */\n      0x06\n        /* \"contracts/ERC721A.sol\":21971:21995  _packedAddressData[from] */\n      0x20\n      mstore\n      0x40\n      dup1\n      dup3\n      keccak256\n        /* \"contracts/ERC721A.sol\":21969:21995  --_packedAddressData[from] */\n      dup1\n      sload\n      not(0x00)\n      add\n      swap1\n      sstore\n        /* \"contracts/ERC721A.sol\":22040:22062  _packedAddressData[to] */\n      swap2\n      dup8\n      and\n      dup1\n      dup3\n      mstore\n      swap2\n      swap1\n      keccak256\n        /* \"contracts/ERC721A.sol\":22038:22062  ++_packedAddressData[to] */\n      dup1\n      sload\n      0x01\n      add\n      swap1\n      sstore\n        /* \"contracts/ERC721A.sol\":15210:15221  timestamp() */\n      timestamp\n        /* \"contracts/ERC721A.sol\":15185:15208  _BITPOS_START_TIMESTAMP */\n      0xa0\n        /* \"contracts/ERC721A.sol\":15181:15222  shl(_BITPOS_START_TIMESTAMP, timestamp()) */\n      shl\n        /* \"contracts/ERC721A.sol\":15168:15231  or(owner, or(shl(_BITPOS_START_TIMESTAMP, timestamp()), flags)) */\n      or\n      shl(0xe1, 0x01)\n      or\n        /* \"contracts/ERC721A.sol\":22333:22359  _packedOwnerships[tokenId] */\n      0x00\n      dup6\n      dup2\n      mstore\n        /* \"contracts/ERC721A.sol\":22333:22350  _packedOwnerships */\n      0x05\n        /* \"contracts/ERC721A.sol\":22333:22359  _packedOwnerships[tokenId] */\n      0x20\n      mstore\n      0x40\n      swap1\n      keccak256\n        /* \"contracts/ERC721A.sol\":22333:22508  _packedOwnerships[tokenId] = _packOwnershipData(\r... */\n      sstore\n      shl(0xe1, 0x01)\n        /* \"contracts/ERC721A.sol\":22628:22675  prevOwnershipPacked & _BITMASK_NEXT_INITIALIZED */\n      dup4\n      and\n        /* \"contracts/ERC721A.sol\":22624:23251  if (prevOwnershipPacked & _BITMASK_NEXT_INITIALIZED == 0) {\r... */\n      tag_327\n      jumpi\n        /* \"contracts/ERC721A.sol\":22733:22734  1 */\n      0x01\n        /* \"contracts/ERC721A.sol\":22723:22734  tokenId + 1 */\n      dup5\n      add\n        /* \"contracts/ERC721A.sol\":22701:22720  uint256 nextTokenId */\n      0x00\n        /* \"contracts/ERC721A.sol\":22856:22886  _packedOwnerships[nextTokenId] */\n      dup2\n      dup2\n      mstore\n        /* \"contracts/ERC721A.sol\":22856:22873  _packedOwnerships */\n      0x05\n        /* \"contracts/ERC721A.sol\":22856:22886  _packedOwnerships[nextTokenId] */\n      0x20\n      mstore\n      0x40\n      swap1\n      keccak256\n      sload\n        /* \"contracts/ERC721A.sol\":22852:23236  if (_packedOwnerships[nextTokenId] == 0) {\r... */\n      tag_329\n      jumpi\n        /* \"contracts/ERC721A.sol\":22994:23007  _currentIndex */\n      sload(0x01)\n        /* \"contracts/ERC721A.sol\":22979:22990  nextTokenId */\n      dup2\n        /* \"contracts/ERC721A.sol\":22979:23007  nextTokenId != _currentIndex */\n      eq\n        /* \"contracts/ERC721A.sol\":22975:23217  if (nextTokenId != _currentIndex) {\r... */\n      tag_329\n      jumpi\n        /* \"contracts/ERC721A.sol\":23141:23171  _packedOwnerships[nextTokenId] */\n      0x00\n      dup2\n      dup2\n      mstore\n        /* \"contracts/ERC721A.sol\":23141:23158  _packedOwnerships */\n      0x05\n        /* \"contracts/ERC721A.sol\":23141:23171  _packedOwnerships[nextTokenId] */\n      0x20\n      mstore\n      0x40\n      swap1\n      keccak256\n        /* \"contracts/ERC721A.sol\":23141:23193  _packedOwnerships[nextTokenId] = prevOwnershipPacked */\n      dup5\n      swap1\n      sstore\n        /* \"contracts/ERC721A.sol\":22975:23217  if (nextTokenId != _currentIndex) {\r... */\n    tag_329:\n        /* \"contracts/ERC721A.sol\":22682:23251  {\r... */\n      pop\n        /* \"contracts/ERC721A.sol\":22624:23251  if (prevOwnershipPacked & _BITMASK_NEXT_INITIALIZED == 0) {\r... */\n    tag_327:\n        /* \"contracts/ERC721A.sol\":23298:23305  tokenId */\n      dup4\n        /* \"contracts/ERC721A.sol\":23294:23296  to */\n      dup6\n      sub(shl(0xa0, 0x01), 0x01)\n        /* \"contracts/ERC721A.sol\":23279:23306  Transfer(from, to, tokenId) */\n      and\n        /* \"contracts/ERC721A.sol\":23288:23292  from */\n      dup8\n      sub(shl(0xa0, 0x01), 0x01)\n        /* \"contracts/ERC721A.sol\":23279:23306  Transfer(from, to, tokenId) */\n      and\n      0xddf252ad1be2c89b69c2b068fc378daa952ba7f163c4a11628f55a4df523b3ef\n      mload(0x40)\n      mload(0x40)\n      dup1\n      swap2\n      sub\n      swap1\n      log4\n        /* \"contracts/ERC721A.sol\":20673:23367  {\r... */\n      pop\n      pop\n      pop\n        /* \"contracts/ERC721A.sol\":20550:23367  function transferFrom(\r... */\n      pop\n      pop\n      pop\n      jump\t// out\n        /* \"contracts/imiltestTwo.sol\":5519:5625  function withdraw() public payable onlyOwner {... */\n    tag_131:\n        /* \"@openzeppelin/contracts/access/Ownable.sol\":1094:1107  _checkOwner() */\n      tag_333\n        /* \"@openzeppelin/contracts/access/Ownable.sol\":1094:1105  _checkOwner */\n      tag_263\n        /* \"@openzeppelin/contracts/access/Ownable.sol\":1094:1107  _checkOwner() */\n      jump\t// in\n    tag_333:\n        /* \"@openzeppelin/contracts/access/Ownable.sol\":1247:1254  address */\n      0x00\n        /* \"@openzeppelin/contracts/access/Ownable.sol\":1273:1279  _owner */\n      dup1\n      sload\n        /* \"contracts/imiltestTwo.sol\":5571:5619  payable(owner()).transfer(address(this).balance) */\n      mload(0x40)\n      sub(shl(0xa0, 0x01), 0x01)\n        /* \"@openzeppelin/contracts/access/Ownable.sol\":1273:1279  _owner */\n      swap1\n      swap2\n      and\n      swap2\n        /* \"contracts/imiltestTwo.sol\":5597:5618  address(this).balance */\n      selfbalance\n        /* \"contracts/imiltestTwo.sol\":5571:5619  payable(owner()).transfer(address(this).balance) */\n      dup1\n      iszero\n      0x08fc\n      mul\n      swap3\n        /* \"contracts/imiltestTwo.sol\":5597:5618  address(this).balance */\n      swap1\n      swap2\n        /* \"contracts/imiltestTwo.sol\":5571:5619  payable(owner()).transfer(address(this).balance) */\n      dup2\n        /* \"@openzeppelin/contracts/access/Ownable.sol\":1247:1254  address */\n      dup2\n        /* \"contracts/imiltestTwo.sol\":5571:5619  payable(owner()).transfer(address(this).balance) */\n      dup2\n        /* \"contracts/imiltestTwo.sol\":5597:5618  address(this).balance */\n      dup6\n        /* \"@openzeppelin/contracts/access/Ownable.sol\":1273:1279  _owner */\n      dup9\n        /* \"contracts/imiltestTwo.sol\":5571:5619  payable(owner()).transfer(address(this).balance) */\n      dup9\n      call\n      swap4\n      pop\n      pop\n      pop\n      pop\n      iszero\n      dup1\n      iszero\n      tag_337\n      jumpi\n      returndatasize\n      0x00\n      dup1\n      returndatacopy\n      revert(0x00, returndatasize)\n    tag_337:\n      pop\n        /* \"contracts/imiltestTwo.sol\":5519:5625  function withdraw() public payable onlyOwner {... */\n      jump\t// out\n        /* \"contracts/ERC721A.sol\":23463:23648  function safeTransferFrom(\r... */\n    tag_135:\n        /* \"contracts/ERC721A.sol\":23601:23640  safeTransferFrom(from, to, tokenId, '') */\n      tag_292\n        /* \"contracts/ERC721A.sol\":23618:23622  from */\n      dup4\n        /* \"contracts/ERC721A.sol\":23624:23626  to */\n      dup4\n        /* \"contracts/ERC721A.sol\":23628:23635  tokenId */\n      dup4\n        /* \"contracts/ERC721A.sol\":23601:23640  safeTransferFrom(from, to, tokenId, '') */\n      mload(0x40)\n      dup1\n      0x20\n      add\n      0x40\n      mstore\n      dup1\n      0x00\n      dup2\n      mstore\n      pop\n        /* \"contracts/ERC721A.sol\":23601:23617  safeTransferFrom */\n      tag_215\n        /* \"contracts/ERC721A.sol\":23601:23640  safeTransferFrom(from, to, tokenId, '') */\n      jump\t// in\n        /* \"contracts/imiltestTwo.sol\":4022:4120  function setBaseURI(string memory _newBaseURI) public onlyOwner {... */\n    tag_140:\n        /* \"@openzeppelin/contracts/access/Ownable.sol\":1094:1107  _checkOwner() */\n      tag_341\n        /* \"@openzeppelin/contracts/access/Ownable.sol\":1094:1105  _checkOwner */\n      tag_263\n        /* \"@openzeppelin/contracts/access/Ownable.sol\":1094:1107  _checkOwner() */\n      jump\t// in\n    tag_341:\n        /* \"contracts/imiltestTwo.sol\":4093:4114  baseURI = _newBaseURI */\n      dup1\n      mload\n      tag_343\n      swap1\n        /* \"contracts/imiltestTwo.sol\":4093:4100  baseURI */\n      0x0a\n      swap1\n        /* \"contracts/imiltestTwo.sol\":4093:4114  baseURI = _newBaseURI */\n      0x20\n      dup5\n      add\n      swap1\n      tag_344\n      jump\t// in\n    tag_343:\n      pop\n        /* \"contracts/imiltestTwo.sol\":4022:4120  function setBaseURI(string memory _newBaseURI) public onlyOwner {... */\n      pop\n      jump\t// out\n        /* \"contracts/imiltestTwo.sol\":4670:4849  function allowlistUsers(address[] calldata addresses) external onlyOwner {... */\n    tag_144:\n        /* \"@openzeppelin/contracts/access/Ownable.sol\":1094:1107  _checkOwner() */\n      tag_346\n        /* \"@openzeppelin/contracts/access/Ownable.sol\":1094:1105  _checkOwner */\n      tag_263\n        /* \"@openzeppelin/contracts/access/Ownable.sol\":1094:1107  _checkOwner() */\n      jump\t// in\n    tag_346:\n        /* \"contracts/imiltestTwo.sol\":4755:4764  uint256 i */\n      0x00\n        /* \"contracts/imiltestTwo.sol\":4750:4844  for (uint256 i = 0; i < addresses.length; i++) {... */\n    tag_348:\n        /* \"contracts/imiltestTwo.sol\":4770:4790  i < addresses.length */\n      dup2\n      dup2\n      lt\n        /* \"contracts/imiltestTwo.sol\":4750:4844  for (uint256 i = 0; i < addresses.length; i++) {... */\n      iszero\n      tag_292\n      jumpi\n        /* \"contracts/imiltestTwo.sol\":4832:4836  true */\n      0x01\n        /* \"contracts/imiltestTwo.sol\":4806:4815  allowlist */\n      0x16\n        /* \"contracts/imiltestTwo.sol\":4806:4829  allowlist[addresses[i]] */\n      0x00\n        /* \"contracts/imiltestTwo.sol\":4816:4825  addresses */\n      dup6\n      dup6\n        /* \"contracts/imiltestTwo.sol\":4826:4827  i */\n      dup6\n        /* \"contracts/imiltestTwo.sol\":4816:4828  addresses[i] */\n      dup2\n      dup2\n      lt\n      tag_352\n      jumpi\n      tag_352\n      tag_296\n      jump\t// in\n    tag_352:\n      swap1\n      pop\n      0x20\n      mul\n      add\n      0x20\n      dup2\n      add\n      swap1\n      tag_353\n      swap2\n      swap1\n      tag_68\n      jump\t// in\n    tag_353:\n      sub(shl(0xa0, 0x01), 0x01)\n        /* \"contracts/imiltestTwo.sol\":4806:4829  allowlist[addresses[i]] */\n      and\n      dup2\n      mstore\n      0x20\n      dup2\n      add\n      swap2\n      swap1\n      swap2\n      mstore\n      0x40\n      add\n      0x00\n      keccak256\n        /* \"contracts/imiltestTwo.sol\":4806:4836  allowlist[addresses[i]] = true */\n      dup1\n      sload\n      not(0xff)\n      and\n      swap2\n      iszero\n      iszero\n      swap2\n      swap1\n      swap2\n      or\n      swap1\n      sstore\n        /* \"contracts/imiltestTwo.sol\":4792:4795  i++ */\n      dup1\n      tag_354\n      dup2\n      tag_299\n      jump\t// in\n    tag_354:\n      swap2\n      pop\n      pop\n        /* \"contracts/imiltestTwo.sol\":4750:4844  for (uint256 i = 0; i < addresses.length; i++) {... */\n      jump(tag_348)\n        /* \"contracts/imiltestTwo.sol\":4127:4248  function setClaimURI(string memory _newClaimURI, uint claim) public onlyOwner {... */\n    tag_153:\n        /* \"@openzeppelin/contracts/access/Ownable.sol\":1094:1107  _checkOwner() */\n      tag_356\n        /* \"@openzeppelin/contracts/access/Ownable.sol\":1094:1105  _checkOwner */\n      tag_263\n        /* \"@openzeppelin/contracts/access/Ownable.sol\":1094:1107  _checkOwner() */\n      jump\t// in\n    tag_356:\n        /* \"contracts/imiltestTwo.sol\":4212:4227  claimURI[claim] */\n      0x00\n      dup2\n      dup2\n      mstore\n        /* \"contracts/imiltestTwo.sol\":4212:4220  claimURI */\n      0x0b\n        /* \"contracts/imiltestTwo.sol\":4212:4227  claimURI[claim] */\n      0x20\n      swap1\n      dup2\n      mstore\n      0x40\n      swap1\n      swap2\n      keccak256\n        /* \"contracts/imiltestTwo.sol\":4212:4242  claimURI[claim] = _newClaimURI */\n      dup4\n      mload\n      tag_292\n      swap3\n      dup6\n      add\n      swap1\n      tag_344\n      jump\t// in\n        /* \"contracts/ERC721A.sol\":11821:11973  function ownerOf(uint256 tokenId) public view virtual override returns (address) {\r... */\n    tag_157:\n        /* \"contracts/ERC721A.sol\":11893:11900  address */\n      0x00\n        /* \"contracts/ERC721A.sol\":11936:11963  _packedOwnershipOf(tokenId) */\n      tag_260\n        /* \"contracts/ERC721A.sol\":11955:11962  tokenId */\n      dup3\n        /* \"contracts/ERC721A.sol\":11936:11954  _packedOwnershipOf */\n      tag_308\n        /* \"contracts/ERC721A.sol\":11936:11963  _packedOwnershipOf(tokenId) */\n      jump\t// in\n        /* \"contracts/ERC721A.sol\":7363:7596  function balanceOf(address owner) public view virtual override returns (uint256) {\r... */\n    tag_166:\n        /* \"contracts/ERC721A.sol\":7435:7442  uint256 */\n      0x00\n      sub(shl(0xa0, 0x01), 0x01)\n        /* \"contracts/ERC721A.sol\":7459:7478  owner == address(0) */\n      dup3\n      and\n        /* \"contracts/ERC721A.sol\":7455:7515  if (owner == address(0)) revert BalanceQueryForZeroAddress() */\n      tag_362\n      jumpi\n        /* \"contracts/ERC721A.sol\":7487:7515  BalanceQueryForZeroAddress() */\n      mload(0x40)\n      shl(0xe2, 0x23d3ad81)\n      dup2\n      mstore\n      0x04\n      add\n      mload(0x40)\n      dup1\n      swap2\n      sub\n      swap1\n      revert\n        /* \"contracts/ERC721A.sol\":7455:7515  if (owner == address(0)) revert BalanceQueryForZeroAddress() */\n    tag_362:\n      pop\n      sub(shl(0xa0, 0x01), 0x01)\n        /* \"contracts/ERC721A.sol\":7533:7558  _packedAddressData[owner] */\n      and\n      0x00\n      swap1\n      dup2\n      mstore\n        /* \"contracts/ERC721A.sol\":7533:7551  _packedAddressData */\n      0x06\n        /* \"contracts/ERC721A.sol\":7533:7558  _packedAddressData[owner] */\n      0x20\n      mstore\n      0x40\n      swap1\n      keccak256\n      sload\n        /* \"contracts/ERC721A.sol\":1522:1535  (1 << 64) - 1 */\n      0xffffffffffffffff\n        /* \"contracts/ERC721A.sol\":7533:7588  _packedAddressData[owner] & _BITMASK_ADDRESS_DATA_ENTRY */\n      and\n      swap1\n        /* \"contracts/ERC721A.sol\":7363:7596  function balanceOf(address owner) public view virtual override returns (uint256) {\r... */\n      jump\t// out\n        /* \"@openzeppelin/contracts/access/Ownable.sol\":1831:1932  function renounceOwnership() public virtual onlyOwner {... */\n    tag_170:\n        /* \"@openzeppelin/contracts/access/Ownable.sol\":1094:1107  _checkOwner() */\n      tag_364\n        /* \"@openzeppelin/contracts/access/Ownable.sol\":1094:1105  _checkOwner */\n      tag_263\n        /* \"@openzeppelin/contracts/access/Ownable.sol\":1094:1107  _checkOwner() */\n      jump\t// in\n    tag_364:\n        /* \"@openzeppelin/contracts/access/Ownable.sol\":1895:1925  _transferOwnership(address(0)) */\n      tag_366\n        /* \"@openzeppelin/contracts/access/Ownable.sol\":1922:1923  0 */\n      0x00\n        /* \"@openzeppelin/contracts/access/Ownable.sol\":1895:1913  _transferOwnership */\n      tag_367\n        /* \"@openzeppelin/contracts/access/Ownable.sol\":1895:1925  _transferOwnership(address(0)) */\n      jump\t// in\n    tag_366:\n        /* \"@openzeppelin/contracts/access/Ownable.sol\":1831:1932  function renounceOwnership() public virtual onlyOwner {... */\n      jump\t// out\n        /* \"contracts/ERC721A.sol\":10604:10708  function symbol() public view virtual override returns (string memory) {\r... */\n    tag_188:\n        /* \"contracts/ERC721A.sol\":10660:10673  string memory */\n      0x60\n        /* \"contracts/ERC721A.sol\":10693:10700  _symbol */\n      0x04\n        /* \"contracts/ERC721A.sol\":10686:10700  return _symbol */\n      dup1\n      sload\n      tag_267\n      swap1\n      tag_268\n      jump\t// in\n        /* \"contracts/imiltestTwo.sol\":1358:2498  function mint(uint256 _mintAmount) public payable {... */\n    tag_192:\n        /* \"contracts/imiltestTwo.sol\":1415:1429  uint256 supply */\n      0x00\n        /* \"contracts/imiltestTwo.sol\":1432:1445  totalSupply() */\n      tag_377\n        /* \"contracts/ERC721A.sol\":6453:6465  _burnCounter */\n      sload(0x02)\n        /* \"contracts/ERC721A.sol\":6437:6450  _currentIndex */\n      sload(0x01)\n        /* \"contracts/ERC721A.sol\":6437:6465  _currentIndex - _burnCounter */\n      sub\n      swap1\n        /* \"contracts/ERC721A.sol\":6179:6502  function totalSupply() public view virtual override returns (uint256) {\r... */\n      jump\n        /* \"contracts/imiltestTwo.sol\":1432:1445  totalSupply() */\n    tag_377:\n        /* \"contracts/imiltestTwo.sol\":1484:1490  paused */\n      sload(0x11)\n        /* \"contracts/imiltestTwo.sol\":1415:1445  uint256 supply = totalSupply() */\n      swap1\n      swap2\n      pop\n        /* \"contracts/imiltestTwo.sol\":1484:1490  paused */\n      0xff\n      and\n        /* \"contracts/imiltestTwo.sol\":1483:1490  !paused */\n      iszero\n        /* \"contracts/imiltestTwo.sol\":1475:1590  require(!paused, \"WOAH hold up the mint is not yet live, a little too early there... or late? Transmission Ending\") */\n      tag_378\n      jumpi\n      mload(0x40)\n      shl(0xe5, 0x461bcd)\n      dup2\n      mstore\n        /* \"#utility.yul\":11543:11545   */\n      0x20\n        /* \"contracts/imiltestTwo.sol\":1475:1590  require(!paused, \"WOAH hold up the mint is not yet live, a little too early there... or late? Transmission Ending\") */\n      0x04\n      dup3\n      add\n        /* \"#utility.yul\":11525:11546   */\n      mstore\n        /* \"#utility.yul\":11582:11584   */\n      0x5f\n        /* \"#utility.yul\":11562:11580   */\n      0x24\n      dup3\n      add\n        /* \"#utility.yul\":11555:11585   */\n      mstore\n        /* \"#utility.yul\":11621:11655   */\n      0x574f414820686f6c6420757020746865206d696e74206973206e6f7420796574\n        /* \"#utility.yul\":11601:11619   */\n      0x44\n      dup3\n      add\n        /* \"#utility.yul\":11594:11656   */\n      mstore\n        /* \"#utility.yul\":11692:11726   */\n      0x206c6976652c2061206c6974746c6520746f6f206561726c792074686572652e\n        /* \"#utility.yul\":11672:11690   */\n      0x64\n      dup3\n      add\n        /* \"#utility.yul\":11665:11727   */\n      mstore\n        /* \"#utility.yul\":11764:11797   */\n      0x2e2e206f72206c6174653f205472616e736d697373696f6e20456e64696e6700\n        /* \"#utility.yul\":11743:11762   */\n      0x84\n      dup3\n      add\n        /* \"#utility.yul\":11736:11798   */\n      mstore\n        /* \"#utility.yul\":11815:11834   */\n      0xa4\n      add\n        /* \"contracts/imiltestTwo.sol\":1475:1590  require(!paused, \"WOAH hold up the mint is not yet live, a little too early there... or late? Transmission Ending\") */\n    tag_379:\n      mload(0x40)\n      dup1\n      swap2\n      sub\n      swap1\n      revert\n    tag_378:\n        /* \"contracts/imiltestTwo.sol\":1619:1620  0 */\n      0x00\n        /* \"contracts/imiltestTwo.sol\":1605:1616  _mintAmount */\n      dup3\n        /* \"contracts/imiltestTwo.sol\":1605:1620  _mintAmount > 0 */\n      gt\n        /* \"contracts/imiltestTwo.sol\":1597:1688  require(_mintAmount > 0, \"must mint at least 1 nft, 0 is not allowed. Transmission Ending\") */\n      tag_381\n      jumpi\n      mload(0x40)\n      shl(0xe5, 0x461bcd)\n      dup2\n      mstore\n        /* \"#utility.yul\":11111:11113   */\n      0x20\n        /* \"contracts/imiltestTwo.sol\":1597:1688  require(_mintAmount > 0, \"must mint at least 1 nft, 0 is not allowed. Transmission Ending\") */\n      0x04\n      dup3\n      add\n        /* \"#utility.yul\":11093:11114   */\n      mstore\n        /* \"#utility.yul\":11150:11152   */\n      0x3f\n        /* \"#utility.yul\":11130:11148   */\n      0x24\n      dup3\n      add\n        /* \"#utility.yul\":11123:11153   */\n      mstore\n        /* \"#utility.yul\":11189:11223   */\n      0x6d757374206d696e74206174206c656173742031206e66742c2030206973206e\n        /* \"#utility.yul\":11169:11187   */\n      0x44\n      dup3\n      add\n        /* \"#utility.yul\":11162:11224   */\n      mstore\n        /* \"#utility.yul\":11260:11293   */\n      0x6f7420616c6c6f7765642e205472616e736d697373696f6e20456e64696e6700\n        /* \"#utility.yul\":11240:11258   */\n      0x64\n      dup3\n      add\n        /* \"#utility.yul\":11233:11294   */\n      mstore\n        /* \"#utility.yul\":11311:11330   */\n      0x84\n      add\n        /* \"contracts/imiltestTwo.sol\":1597:1688  require(_mintAmount > 0, \"must mint at least 1 nft, 0 is not allowed. Transmission Ending\") */\n      tag_379\n        /* \"#utility.yul\":10909:11336   */\n      jump\n        /* \"contracts/imiltestTwo.sol\":1597:1688  require(_mintAmount > 0, \"must mint at least 1 nft, 0 is not allowed. Transmission Ending\") */\n    tag_381:\n        /* \"contracts/imiltestTwo.sol\":1727:1737  currentSet */\n      sload(0x0f)\n        /* \"contracts/imiltestTwo.sol\":1703:1723  supply + _mintAmount */\n      tag_384\n        /* \"contracts/imiltestTwo.sol\":1712:1723  _mintAmount */\n      dup4\n        /* \"contracts/imiltestTwo.sol\":1703:1709  supply */\n      dup4\n        /* \"contracts/imiltestTwo.sol\":1703:1723  supply + _mintAmount */\n      tag_385\n      jump\t// in\n    tag_384:\n        /* \"contracts/imiltestTwo.sol\":1703:1737  supply + _mintAmount <= currentSet */\n      gt\n      iszero\n        /* \"contracts/imiltestTwo.sol\":1695:1793  require(supply + _mintAmount <= currentSet, \"This set of shirts have been minted already, sorry.\") */\n      tag_386\n      jumpi\n      mload(0x40)\n      shl(0xe5, 0x461bcd)\n      dup2\n      mstore\n        /* \"#utility.yul\":12047:12049   */\n      0x20\n        /* \"contracts/imiltestTwo.sol\":1695:1793  require(supply + _mintAmount <= currentSet, \"This set of shirts have been minted already, sorry.\") */\n      0x04\n      dup3\n      add\n        /* \"#utility.yul\":12029:12050   */\n      mstore\n        /* \"#utility.yul\":12086:12088   */\n      0x33\n        /* \"#utility.yul\":12066:12084   */\n      0x24\n      dup3\n      add\n        /* \"#utility.yul\":12059:12089   */\n      mstore\n        /* \"#utility.yul\":12125:12159   */\n      0x5468697320736574206f66207368697274732068617665206265656e206d696e\n        /* \"#utility.yul\":12105:12123   */\n      0x44\n      dup3\n      add\n        /* \"#utility.yul\":12098:12160   */\n      mstore\n      shl(0x69, 0x3a32b21030b63932b0b23c961039b7b9393c97)\n        /* \"#utility.yul\":12176:12194   */\n      0x64\n      dup3\n      add\n        /* \"#utility.yul\":12169:12218   */\n      mstore\n        /* \"#utility.yul\":12235:12254   */\n      0x84\n      add\n        /* \"contracts/imiltestTwo.sol\":1695:1793  require(supply + _mintAmount <= currentSet, \"This set of shirts have been minted already, sorry.\") */\n      tag_379\n        /* \"#utility.yul\":11845:12260   */\n      jump\n        /* \"contracts/imiltestTwo.sol\":1695:1793  require(supply + _mintAmount <= currentSet, \"This set of shirts have been minted already, sorry.\") */\n    tag_386:\n        /* \"contracts/imiltestTwo.sol\":1832:1841  maxSupply */\n      sload(0x0e)\n        /* \"contracts/imiltestTwo.sol\":1808:1828  supply + _mintAmount */\n      tag_389\n        /* \"contracts/imiltestTwo.sol\":1817:1828  _mintAmount */\n      dup4\n        /* \"contracts/imiltestTwo.sol\":1808:1814  supply */\n      dup4\n        /* \"contracts/imiltestTwo.sol\":1808:1828  supply + _mintAmount */\n      tag_385\n      jump\t// in\n    tag_389:\n        /* \"contracts/imiltestTwo.sol\":1808:1841  supply + _mintAmount <= maxSupply */\n      gt\n      iszero\n        /* \"contracts/imiltestTwo.sol\":1800:1899  require(supply + _mintAmount <= maxSupply, \"looks like we are popular max supply has been reached\") */\n      tag_390\n      jumpi\n      mload(0x40)\n      shl(0xe5, 0x461bcd)\n      dup2\n      mstore\n        /* \"#utility.yul\":12467:12469   */\n      0x20\n        /* \"contracts/imiltestTwo.sol\":1800:1899  require(supply + _mintAmount <= maxSupply, \"looks like we are popular max supply has been reached\") */\n      0x04\n      dup3\n      add\n        /* \"#utility.yul\":12449:12470   */\n      mstore\n        /* \"#utility.yul\":12506:12508   */\n      0x35\n        /* \"#utility.yul\":12486:12504   */\n      0x24\n      dup3\n      add\n        /* \"#utility.yul\":12479:12509   */\n      mstore\n        /* \"#utility.yul\":12545:12579   */\n      0x6c6f6f6b73206c696b652077652061726520706f70756c6172206d6178207375\n        /* \"#utility.yul\":12525:12543   */\n      0x44\n      dup3\n      add\n        /* \"#utility.yul\":12518:12580   */\n      mstore\n      shl(0x5a, 0x1c1c1b1e481a185cc81899595b881c995858da1959)\n        /* \"#utility.yul\":12596:12614   */\n      0x64\n      dup3\n      add\n        /* \"#utility.yul\":12589:12640   */\n      mstore\n        /* \"#utility.yul\":12657:12676   */\n      0x84\n      add\n        /* \"contracts/imiltestTwo.sol\":1800:1899  require(supply + _mintAmount <= maxSupply, \"looks like we are popular max supply has been reached\") */\n      tag_379\n        /* \"#utility.yul\":12265:12682   */\n      jump\n        /* \"contracts/imiltestTwo.sol\":1800:1899  require(supply + _mintAmount <= maxSupply, \"looks like we are popular max supply has been reached\") */\n    tag_390:\n        /* \"@openzeppelin/contracts/access/Ownable.sol\":1247:1254  address */\n      0x00\n        /* \"@openzeppelin/contracts/access/Ownable.sol\":1273:1279  _owner */\n      sload\n      sub(shl(0xa0, 0x01), 0x01)\n      and\n        /* \"contracts/imiltestTwo.sol\":1918:1928  msg.sender */\n      caller\n        /* \"contracts/imiltestTwo.sol\":1918:1939  msg.sender != owner() */\n      eq\n        /* \"contracts/imiltestTwo.sol\":1914:2396  if (msg.sender != owner()) {... */\n      tag_409\n      jumpi\n        /* \"contracts/imiltestTwo.sol\":2007:2008  1 */\n      0x01\n        /* \"contracts/imiltestTwo.sol\":1992:2003  _mintAmount */\n      dup3\n        /* \"contracts/imiltestTwo.sol\":1992:2008  _mintAmount <= 1 */\n      gt\n      iszero\n        /* \"contracts/imiltestTwo.sol\":1984:2033  require(_mintAmount <= 1, \"only 1 at a time :) \") */\n      tag_395\n      jumpi\n      mload(0x40)\n      shl(0xe5, 0x461bcd)\n      dup2\n      mstore\n        /* \"#utility.yul\":14718:14720   */\n      0x20\n        /* \"contracts/imiltestTwo.sol\":1984:2033  require(_mintAmount <= 1, \"only 1 at a time :) \") */\n      0x04\n      dup3\n      add\n        /* \"#utility.yul\":14700:14721   */\n      mstore\n        /* \"#utility.yul\":14757:14759   */\n      0x14\n        /* \"#utility.yul\":14737:14755   */\n      0x24\n      dup3\n      add\n        /* \"#utility.yul\":14730:14760   */\n      mstore\n      shl(0x65, 0x037b7363c90189030ba1030903a34b6b2901d149)\n        /* \"#utility.yul\":14776:14794   */\n      0x44\n      dup3\n      add\n        /* \"#utility.yul\":14769:14819   */\n      mstore\n        /* \"#utility.yul\":14836:14854   */\n      0x64\n      add\n        /* \"contracts/imiltestTwo.sol\":1984:2033  require(_mintAmount <= 1, \"only 1 at a time :) \") */\n      tag_379\n        /* \"#utility.yul\":14516:14860   */\n      jump\n        /* \"contracts/imiltestTwo.sol\":1984:2033  require(_mintAmount <= 1, \"only 1 at a time :) \") */\n    tag_395:\n        /* \"contracts/imiltestTwo.sol\":2047:2062  onlyAllowlisted */\n      and(0xff, sload(0x15))\n        /* \"contracts/imiltestTwo.sol\":2047:2070  onlyAllowlisted == true */\n      iszero\n      iszero\n        /* \"contracts/imiltestTwo.sol\":2047:2062  onlyAllowlisted */\n      0x01\n        /* \"contracts/imiltestTwo.sol\":2047:2070  onlyAllowlisted == true */\n      eq\n        /* \"contracts/imiltestTwo.sol\":2044:2316  if(onlyAllowlisted == true) {... */\n      iszero\n      tag_398\n      jumpi\n        /* \"contracts/imiltestTwo.sol\":2109:2119  msg.sender */\n      caller\n        /* \"contracts/imiltestTwo.sol\":2563:2567  bool */\n      0x00\n        /* \"contracts/imiltestTwo.sol\":2583:2599  allowlist[_user] */\n      swap1\n      dup2\n      mstore\n        /* \"contracts/imiltestTwo.sol\":2583:2592  allowlist */\n      0x16\n        /* \"contracts/imiltestTwo.sol\":2583:2599  allowlist[_user] */\n      0x20\n      mstore\n      0x40\n      swap1\n      keccak256\n      sload\n      0xff\n      and\n        /* \"contracts/imiltestTwo.sol\":2087:2140  require(isAllowlisted(msg.sender), \"Not Allowlisted\") */\n      tag_400\n      jumpi\n      mload(0x40)\n      shl(0xe5, 0x461bcd)\n      dup2\n      mstore\n        /* \"#utility.yul\":14022:14024   */\n      0x20\n        /* \"contracts/imiltestTwo.sol\":2087:2140  require(isAllowlisted(msg.sender), \"Not Allowlisted\") */\n      0x04\n      dup3\n      add\n        /* \"#utility.yul\":14004:14025   */\n      mstore\n        /* \"#utility.yul\":14061:14063   */\n      0x0f\n        /* \"#utility.yul\":14041:14059   */\n      0x24\n      dup3\n      add\n        /* \"#utility.yul\":14034:14064   */\n      mstore\n      shl(0x8a, 0x139bdd08105b1b1bdddb1a5cdd1959)\n        /* \"#utility.yul\":14080:14098   */\n      0x44\n      dup3\n      add\n        /* \"#utility.yul\":14073:14118   */\n      mstore\n        /* \"#utility.yul\":14135:14153   */\n      0x64\n      add\n        /* \"contracts/imiltestTwo.sol\":2087:2140  require(isAllowlisted(msg.sender), \"Not Allowlisted\") */\n      tag_379\n        /* \"#utility.yul\":13820:14159   */\n      jump\n        /* \"contracts/imiltestTwo.sol\":2087:2140  require(isAllowlisted(msg.sender), \"Not Allowlisted\") */\n    tag_400:\n        /* \"contracts/imiltestTwo.sol\":2203:2213  msg.sender */\n      caller\n        /* \"contracts/imiltestTwo.sol\":2155:2179  uint256 ownerMintedCount */\n      0x00\n        /* \"contracts/imiltestTwo.sol\":2182:2214  addressMintedBalance[msg.sender] */\n      swap1\n      dup2\n      mstore\n        /* \"contracts/imiltestTwo.sol\":2182:2202  addressMintedBalance */\n      0x17\n        /* \"contracts/imiltestTwo.sol\":2182:2214  addressMintedBalance[msg.sender] */\n      0x20\n      mstore\n      0x40\n      swap1\n      keccak256\n      sload\n        /* \"contracts/imiltestTwo.sol\":2271:2285  AllowlistLimit */\n      sload(0x10)\n        /* \"contracts/imiltestTwo.sol\":2237:2267  ownerMintedCount + _mintAmount */\n      tag_403\n        /* \"contracts/imiltestTwo.sol\":2256:2267  _mintAmount */\n      dup5\n        /* \"contracts/imiltestTwo.sol\":2182:2214  addressMintedBalance[msg.sender] */\n      dup4\n        /* \"contracts/imiltestTwo.sol\":2237:2267  ownerMintedCount + _mintAmount */\n      tag_385\n      jump\t// in\n    tag_403:\n        /* \"contracts/imiltestTwo.sol\":2237:2285  ownerMintedCount + _mintAmount <= AllowlistLimit */\n      gt\n      iszero\n        /* \"contracts/imiltestTwo.sol\":2229:2304  require(ownerMintedCount + _mintAmount <= AllowlistLimit, \"Already minted\") */\n      tag_404\n      jumpi\n      mload(0x40)\n      shl(0xe5, 0x461bcd)\n      dup2\n      mstore\n        /* \"#utility.yul\":9669:9671   */\n      0x20\n        /* \"contracts/imiltestTwo.sol\":2229:2304  require(ownerMintedCount + _mintAmount <= AllowlistLimit, \"Already minted\") */\n      0x04\n      dup3\n      add\n        /* \"#utility.yul\":9651:9672   */\n      mstore\n        /* \"#utility.yul\":9708:9710   */\n      0x0e\n        /* \"#utility.yul\":9688:9706   */\n      0x24\n      dup3\n      add\n        /* \"#utility.yul\":9681:9711   */\n      mstore\n      shl(0x92, 0x105b1c9958591e481b5a5b9d1959)\n        /* \"#utility.yul\":9727:9745   */\n      0x44\n      dup3\n      add\n        /* \"#utility.yul\":9720:9764   */\n      mstore\n        /* \"#utility.yul\":9781:9799   */\n      0x64\n      add\n        /* \"contracts/imiltestTwo.sol\":2229:2304  require(ownerMintedCount + _mintAmount <= AllowlistLimit, \"Already minted\") */\n      tag_379\n        /* \"#utility.yul\":9467:9805   */\n      jump\n        /* \"contracts/imiltestTwo.sol\":2229:2304  require(ownerMintedCount + _mintAmount <= AllowlistLimit, \"Already minted\") */\n    tag_404:\n        /* \"contracts/imiltestTwo.sol\":2072:2316  {... */\n      pop\n        /* \"contracts/imiltestTwo.sol\":2044:2316  if(onlyAllowlisted == true) {... */\n    tag_398:\n        /* \"contracts/imiltestTwo.sol\":2354:2365  _mintAmount */\n      dup2\n        /* \"contracts/imiltestTwo.sol\":2347:2351  cost */\n      sload(0x0d)\n        /* \"contracts/imiltestTwo.sol\":2347:2365  cost * _mintAmount */\n      tag_407\n      swap2\n      swap1\n      tag_408\n      jump\t// in\n    tag_407:\n        /* \"contracts/imiltestTwo.sol\":2334:2343  msg.value */\n      callvalue\n        /* \"contracts/imiltestTwo.sol\":2334:2365  msg.value >= cost * _mintAmount */\n      lt\n      iszero\n        /* \"contracts/imiltestTwo.sol\":2326:2388  require(msg.value >= cost * _mintAmount, \"Cost doesn't match\") */\n      tag_409\n      jumpi\n      mload(0x40)\n      shl(0xe5, 0x461bcd)\n      dup2\n      mstore\n        /* \"#utility.yul\":10764:10766   */\n      0x20\n        /* \"contracts/imiltestTwo.sol\":2326:2388  require(msg.value >= cost * _mintAmount, \"Cost doesn't match\") */\n      0x04\n      dup3\n      add\n        /* \"#utility.yul\":10746:10767   */\n      mstore\n        /* \"#utility.yul\":10803:10805   */\n      0x12\n        /* \"#utility.yul\":10783:10801   */\n      0x24\n      dup3\n      add\n        /* \"#utility.yul\":10776:10806   */\n      mstore\n      shl(0x73, 0x086dee6e840c8decae6dc4ee840dac2e8c6d)\n        /* \"#utility.yul\":10822:10840   */\n      0x44\n      dup3\n      add\n        /* \"#utility.yul\":10815:10863   */\n      mstore\n        /* \"#utility.yul\":10880:10898   */\n      0x64\n      add\n        /* \"contracts/imiltestTwo.sol\":2326:2388  require(msg.value >= cost * _mintAmount, \"Cost doesn't match\") */\n      tag_379\n        /* \"#utility.yul\":10562:10904   */\n      jump\n        /* \"contracts/imiltestTwo.sol\":2326:2388  require(msg.value >= cost * _mintAmount, \"Cost doesn't match\") */\n    tag_409:\n        /* \"contracts/imiltestTwo.sol\":2404:2438  _safeMint(msg.sender, _mintAmount) */\n      tag_412\n        /* \"contracts/imiltestTwo.sol\":2414:2424  msg.sender */\n      caller\n        /* \"contracts/imiltestTwo.sol\":2426:2437  _mintAmount */\n      dup4\n        /* \"contracts/imiltestTwo.sol\":2404:2413  _safeMint */\n      tag_413\n        /* \"contracts/imiltestTwo.sol\":2404:2438  _safeMint(msg.sender, _mintAmount) */\n      jump\t// in\n    tag_412:\n        /* \"contracts/imiltestTwo.sol\":2466:2476  msg.sender */\n      caller\n        /* \"contracts/imiltestTwo.sol\":2445:2477  addressMintedBalance[msg.sender] */\n      0x00\n      swap1\n      dup2\n      mstore\n        /* \"contracts/imiltestTwo.sol\":2445:2465  addressMintedBalance */\n      0x17\n        /* \"contracts/imiltestTwo.sol\":2445:2477  addressMintedBalance[msg.sender] */\n      0x20\n      mstore\n      0x40\n      dup2\n      keccak256\n        /* \"contracts/imiltestTwo.sol\":2445:2492  addressMintedBalance[msg.sender] += _mintAmount */\n      dup1\n      sload\n        /* \"contracts/imiltestTwo.sol\":2481:2492  _mintAmount */\n      dup5\n      swap3\n        /* \"contracts/imiltestTwo.sol\":2445:2477  addressMintedBalance[msg.sender] */\n      swap1\n        /* \"contracts/imiltestTwo.sol\":2445:2492  addressMintedBalance[msg.sender] += _mintAmount */\n      tag_414\n      swap1\n        /* \"contracts/imiltestTwo.sol\":2481:2492  _mintAmount */\n      dup5\n      swap1\n        /* \"contracts/imiltestTwo.sol\":2445:2492  addressMintedBalance[msg.sender] += _mintAmount */\n      tag_385\n      jump\t// in\n    tag_414:\n      swap1\n      swap2\n      sstore\n      pop\n      pop\n      pop\n      pop\n        /* \"contracts/imiltestTwo.sol\":1358:2498  function mint(uint256 _mintAmount) public payable {... */\n      jump\t// out\n        /* \"contracts/ERC721A.sol\":17469:17703  function setApprovalForAll(address operator, bool approved) public virtual override {\r... */\n    tag_197:\n        /* \"contracts/ERC721A.sol\":40407:40417  msg.sender */\n      caller\n        /* \"contracts/ERC721A.sol\":17564:17603  _operatorApprovals[_msgSenderERC721A()] */\n      0x00\n      dup2\n      dup2\n      mstore\n        /* \"contracts/ERC721A.sol\":17564:17582  _operatorApprovals */\n      0x08\n        /* \"contracts/ERC721A.sol\":17564:17603  _operatorApprovals[_msgSenderERC721A()] */\n      0x20\n      swap1\n      dup2\n      mstore\n      0x40\n      dup1\n      dup4\n      keccak256\n      sub(shl(0xa0, 0x01), 0x01)\n        /* \"contracts/ERC721A.sol\":17564:17613  _operatorApprovals[_msgSenderERC721A()][operator] */\n      dup8\n      and\n      dup1\n      dup6\n      mstore\n      swap1\n      dup4\n      mstore\n      swap3\n      dup2\n      swap1\n      keccak256\n        /* \"contracts/ERC721A.sol\":17564:17624  _operatorApprovals[_msgSenderERC721A()][operator] = approved */\n      dup1\n      sload\n      not(0xff)\n      and\n      dup7\n      iszero\n      iszero\n      swap1\n      dup2\n      or\n      swap1\n      swap2\n      sstore\n        /* \"contracts/ERC721A.sol\":17640:17695  ApprovalForAll(_msgSenderERC721A(), operator, approved) */\n      swap1\n      mload\n        /* \"#utility.yul\":9191:9232   */\n      swap1\n      dup2\n      mstore\n        /* \"contracts/ERC721A.sol\":17564:17613  _operatorApprovals[_msgSenderERC721A()][operator] */\n      swap2\n      swap3\n        /* \"contracts/ERC721A.sol\":40407:40417  msg.sender */\n      swap2\n        /* \"contracts/ERC721A.sol\":17640:17695  ApprovalForAll(_msgSenderERC721A(), operator, approved) */\n      0x17307eab39ab6107e8899845ad3d59bd9653f200f220920489ca2b5937696c31\n      swap2\n        /* \"#utility.yul\":9164:9182   */\n      add\n        /* \"contracts/ERC721A.sol\":17640:17695  ApprovalForAll(_msgSenderERC721A(), operator, approved) */\n      mload(0x40)\n      dup1\n      swap2\n      sub\n      swap1\n      log3\n        /* \"contracts/ERC721A.sol\":17469:17703  function setApprovalForAll(address operator, bool approved) public virtual override {\r... */\n      pop\n      pop\n      jump\t// out\n        /* \"contracts/imiltestTwo.sol\":3508:3876  function claimItem(uint256 tokenId, uint claim) external {... */\n    tag_206:\n        /* \"contracts/imiltestTwo.sol\":3600:3610  msg.sender */\n      caller\n        /* \"contracts/imiltestTwo.sol\":3580:3596  ownerOf(tokenId) */\n      tag_420\n        /* \"contracts/imiltestTwo.sol\":3588:3595  tokenId */\n      dup4\n        /* \"contracts/imiltestTwo.sol\":3580:3587  ownerOf */\n      tag_157\n        /* \"contracts/imiltestTwo.sol\":3580:3596  ownerOf(tokenId) */\n      jump\t// in\n    tag_420:\n      sub(shl(0xa0, 0x01), 0x01)\n        /* \"contracts/imiltestTwo.sol\":3580:3610  ownerOf(tokenId) == msg.sender */\n      and\n      eq\n        /* \"contracts/imiltestTwo.sol\":3572:3642  require(ownerOf(tokenId) == msg.sender, \"sorry you are not the owner\") */\n      tag_421\n      jumpi\n      mload(0x40)\n      shl(0xe5, 0x461bcd)\n      dup2\n      mstore\n        /* \"#utility.yul\":13666:13668   */\n      0x20\n        /* \"contracts/imiltestTwo.sol\":3572:3642  require(ownerOf(tokenId) == msg.sender, \"sorry you are not the owner\") */\n      0x04\n      dup3\n      add\n        /* \"#utility.yul\":13648:13669   */\n      mstore\n        /* \"#utility.yul\":13705:13707   */\n      0x1b\n        /* \"#utility.yul\":13685:13703   */\n      0x24\n      dup3\n      add\n        /* \"#utility.yul\":13678:13708   */\n      mstore\n        /* \"#utility.yul\":13744:13773   */\n      0x736f72727920796f7520617265206e6f7420746865206f776e65720000000000\n        /* \"#utility.yul\":13724:13742   */\n      0x44\n      dup3\n      add\n        /* \"#utility.yul\":13717:13774   */\n      mstore\n        /* \"#utility.yul\":13791:13809   */\n      0x64\n      add\n        /* \"contracts/imiltestTwo.sol\":3572:3642  require(ownerOf(tokenId) == msg.sender, \"sorry you are not the owner\") */\n      tag_379\n        /* \"#utility.yul\":13464:13815   */\n      jump\n        /* \"contracts/imiltestTwo.sol\":3572:3642  require(ownerOf(tokenId) == msg.sender, \"sorry you are not the owner\") */\n    tag_421:\n        /* \"contracts/imiltestTwo.sol\":3657:3682  claimActiveByPhase[claim] */\n      0x00\n      dup2\n      dup2\n      mstore\n        /* \"contracts/imiltestTwo.sol\":3657:3675  claimActiveByPhase */\n      0x12\n        /* \"contracts/imiltestTwo.sol\":3657:3682  claimActiveByPhase[claim] */\n      0x20\n      mstore\n      0x40\n      swap1\n      keccak256\n      sload\n      0xff\n      and\n        /* \"contracts/imiltestTwo.sol\":3649:3710  require(claimActiveByPhase[claim], \"claim is not active yet\") */\n      tag_424\n      jumpi\n      mload(0x40)\n      shl(0xe5, 0x461bcd)\n      dup2\n      mstore\n        /* \"#utility.yul\":14366:14368   */\n      0x20\n        /* \"contracts/imiltestTwo.sol\":3649:3710  require(claimActiveByPhase[claim], \"claim is not active yet\") */\n      0x04\n      dup3\n      add\n        /* \"#utility.yul\":14348:14369   */\n      mstore\n        /* \"#utility.yul\":14405:14407   */\n      0x17\n        /* \"#utility.yul\":14385:14403   */\n      0x24\n      dup3\n      add\n        /* \"#utility.yul\":14378:14408   */\n      mstore\n        /* \"#utility.yul\":14444:14469   */\n      0x636c61696d206973206e6f742061637469766520796574000000000000000000\n        /* \"#utility.yul\":14424:14442   */\n      0x44\n      dup3\n      add\n        /* \"#utility.yul\":14417:14470   */\n      mstore\n        /* \"#utility.yul\":14487:14505   */\n      0x64\n      add\n        /* \"contracts/imiltestTwo.sol\":3649:3710  require(claimActiveByPhase[claim], \"claim is not active yet\") */\n      tag_379\n        /* \"#utility.yul\":14164:14511   */\n      jump\n        /* \"contracts/imiltestTwo.sol\":3649:3710  require(claimActiveByPhase[claim], \"claim is not active yet\") */\n    tag_424:\n        /* \"contracts/imiltestTwo.sol\":3726:3753  claimedItemByPhase[tokenId] */\n      0x00\n      dup3\n      dup2\n      mstore\n        /* \"contracts/imiltestTwo.sol\":3726:3744  claimedItemByPhase */\n      0x13\n        /* \"contracts/imiltestTwo.sol\":3726:3753  claimedItemByPhase[tokenId] */\n      0x20\n      swap1\n      dup2\n      mstore\n      0x40\n      dup1\n      dup4\n      keccak256\n        /* \"contracts/imiltestTwo.sol\":3726:3760  claimedItemByPhase[tokenId][claim] */\n      dup5\n      dup5\n      mstore\n      swap1\n      swap2\n      mstore\n      swap1\n      keccak256\n      sload\n      0xff\n      and\n        /* \"contracts/imiltestTwo.sol\":3725:3760  !claimedItemByPhase[tokenId][claim] */\n      iszero\n        /* \"contracts/imiltestTwo.sol\":3717:3781  require(!claimedItemByPhase[tokenId][claim], \"already claimed!\") */\n      tag_427\n      jumpi\n      mload(0x40)\n      shl(0xe5, 0x461bcd)\n      dup2\n      mstore\n        /* \"#utility.yul\":10012:10014   */\n      0x20\n        /* \"contracts/imiltestTwo.sol\":3717:3781  require(!claimedItemByPhase[tokenId][claim], \"already claimed!\") */\n      0x04\n      dup3\n      add\n        /* \"#utility.yul\":9994:10015   */\n      mstore\n        /* \"#utility.yul\":10051:10053   */\n      0x10\n        /* \"#utility.yul\":10031:10049   */\n      0x24\n      dup3\n      add\n        /* \"#utility.yul\":10024:10054   */\n      mstore\n      shl(0x80, 0x616c726561647920636c61696d656421)\n        /* \"#utility.yul\":10070:10088   */\n      0x44\n      dup3\n      add\n        /* \"#utility.yul\":10063:10109   */\n      mstore\n        /* \"#utility.yul\":10126:10144   */\n      0x64\n      add\n        /* \"contracts/imiltestTwo.sol\":3717:3781  require(!claimedItemByPhase[tokenId][claim], \"already claimed!\") */\n      tag_379\n        /* \"#utility.yul\":9810:10150   */\n      jump\n        /* \"contracts/imiltestTwo.sol\":3717:3781  require(!claimedItemByPhase[tokenId][claim], \"already claimed!\") */\n    tag_427:\n        /* \"contracts/imiltestTwo.sol\":3788:3815  claimedItemByPhase[tokenId] */\n      0x00\n      dup3\n      dup2\n      mstore\n        /* \"contracts/imiltestTwo.sol\":3788:3806  claimedItemByPhase */\n      0x13\n        /* \"contracts/imiltestTwo.sol\":3788:3815  claimedItemByPhase[tokenId] */\n      0x20\n      swap1\n      dup2\n      mstore\n      0x40\n      dup1\n      dup4\n      keccak256\n        /* \"contracts/imiltestTwo.sol\":3788:3822  claimedItemByPhase[tokenId][claim] */\n      dup5\n      dup5\n      mstore\n      dup3\n      mstore\n      dup1\n      dup4\n      keccak256\n        /* \"contracts/imiltestTwo.sol\":3788:3829  claimedItemByPhase[tokenId][claim] = true */\n      dup1\n      sload\n      not(0xff)\n      and\n        /* \"contracts/imiltestTwo.sol\":3825:3829  true */\n      0x01\n        /* \"contracts/imiltestTwo.sol\":3788:3829  claimedItemByPhase[tokenId][claim] = true */\n      or\n      swap1\n      sstore\n        /* \"contracts/imiltestTwo.sol\":3836:3862  claimPhaseByToken[tokenId] */\n      swap4\n      dup3\n      mstore\n        /* \"contracts/imiltestTwo.sol\":3836:3853  claimPhaseByToken */\n      0x14\n        /* \"contracts/imiltestTwo.sol\":3836:3862  claimPhaseByToken[tokenId] */\n      swap1\n      mstore\n      swap2\n      swap1\n      swap2\n      keccak256\n        /* \"contracts/imiltestTwo.sol\":3836:3870  claimPhaseByToken[tokenId] = claim */\n      sstore\n        /* \"contracts/imiltestTwo.sol\":3508:3876  function claimItem(uint256 tokenId, uint claim) external {... */\n      jump\t// out\n        /* \"contracts/ERC721A.sol\":24246:24645  function safeTransferFrom(\r... */\n    tag_215:\n        /* \"contracts/ERC721A.sol\":24413:24444  transferFrom(from, to, tokenId) */\n      tag_431\n        /* \"contracts/ERC721A.sol\":24426:24430  from */\n      dup5\n        /* \"contracts/ERC721A.sol\":24432:24434  to */\n      dup5\n        /* \"contracts/ERC721A.sol\":24436:24443  tokenId */\n      dup5\n        /* \"contracts/ERC721A.sol\":24413:24425  transferFrom */\n      tag_125\n        /* \"contracts/ERC721A.sol\":24413:24444  transferFrom(from, to, tokenId) */\n      jump\t// in\n    tag_431:\n      sub(shl(0xa0, 0x01), 0x01)\n        /* \"contracts/ERC721A.sol\":24459:24473  to.code.length */\n      dup4\n      and\n      extcodesize\n        /* \"contracts/ERC721A.sol\":24459:24478  to.code.length != 0 */\n      iszero\n        /* \"contracts/ERC721A.sol\":24455:24638  if (to.code.length != 0)\r... */\n      tag_435\n      jumpi\n        /* \"contracts/ERC721A.sol\":24498:24554  _checkContractOnERC721Received(from, to, tokenId, _data) */\n      tag_433\n        /* \"contracts/ERC721A.sol\":24529:24533  from */\n      dup5\n        /* \"contracts/ERC721A.sol\":24535:24537  to */\n      dup5\n        /* \"contracts/ERC721A.sol\":24539:24546  tokenId */\n      dup5\n        /* \"contracts/ERC721A.sol\":24548:24553  _data */\n      dup5\n        /* \"contracts/ERC721A.sol\":24498:24528  _checkContractOnERC721Received */\n      tag_434\n        /* \"contracts/ERC721A.sol\":24498:24554  _checkContractOnERC721Received(from, to, tokenId, _data) */\n      jump\t// in\n    tag_433:\n        /* \"contracts/ERC721A.sol\":24493:24638  if (!_checkContractOnERC721Received(from, to, tokenId, _data)) {\r... */\n      tag_435\n      jumpi\n        /* \"contracts/ERC721A.sol\":24582:24622  TransferToNonERC721ReceiverImplementer() */\n      mload(0x40)\n      shl(0xe1, 0x68d2bf6b)\n      dup2\n      mstore\n      0x04\n      add\n      mload(0x40)\n      dup1\n      swap2\n      sub\n      swap1\n      revert\n        /* \"contracts/ERC721A.sol\":24493:24638  if (!_checkContractOnERC721Received(from, to, tokenId, _data)) {\r... */\n    tag_435:\n        /* \"contracts/ERC721A.sol\":24246:24645  function safeTransferFrom(\r... */\n      pop\n      pop\n      pop\n      pop\n      jump\t// out\n        /* \"contracts/imiltestTwo.sol\":4382:4482  function setCurrentSetAmount(uint256 setTotal) external onlyOwner {... */\n    tag_224:\n        /* \"@openzeppelin/contracts/access/Ownable.sol\":1094:1107  _checkOwner() */\n      tag_437\n        /* \"@openzeppelin/contracts/access/Ownable.sol\":1094:1105  _checkOwner */\n      tag_263\n        /* \"@openzeppelin/contracts/access/Ownable.sol\":1094:1107  _checkOwner() */\n      jump\t// in\n    tag_437:\n        /* \"contracts/imiltestTwo.sol\":4455:4465  currentSet */\n      0x0f\n        /* \"contracts/imiltestTwo.sol\":4455:4476  currentSet = setTotal */\n      sstore\n        /* \"contracts/imiltestTwo.sol\":4382:4482  function setCurrentSetAmount(uint256 setTotal) external onlyOwner {... */\n      jump\t// out\n        /* \"contracts/imiltestTwo.sol\":359:396  string public baseExtension = \".json\" */\n    tag_227:\n      0x0c\n      dup1\n      sload\n      tag_439\n      swap1\n      tag_268\n      jump\t// in\n    tag_439:\n      dup1\n      0x1f\n      add\n      0x20\n      dup1\n      swap2\n      div\n      mul\n      0x20\n      add\n      mload(0x40)\n      swap1\n      dup2\n      add\n      0x40\n      mstore\n      dup1\n      swap3\n      swap2\n      swap1\n      dup2\n      dup2\n      mstore\n      0x20\n      add\n      dup3\n      dup1\n      sload\n      tag_440\n      swap1\n      tag_268\n      jump\t// in\n    tag_440:\n      dup1\n      iszero\n      tag_441\n      jumpi\n      dup1\n      0x1f\n      lt\n      tag_442\n      jumpi\n      0x0100\n      dup1\n      dup4\n      sload\n      div\n      mul\n      dup4\n      mstore\n      swap2\n      0x20\n      add\n      swap2\n      jump(tag_441)\n    tag_442:\n      dup3\n      add\n      swap2\n      swap1\n      0x00\n      mstore\n      keccak256(0x00, 0x20)\n      swap1\n    tag_443:\n      dup2\n      sload\n      dup2\n      mstore\n      swap1\n      0x01\n      add\n      swap1\n      0x20\n      add\n      dup1\n      dup4\n      gt\n      tag_443\n      jumpi\n      dup3\n      swap1\n      sub\n      0x1f\n      and\n      dup3\n      add\n      swap2\n    tag_441:\n      pop\n      pop\n      pop\n      pop\n      pop\n      dup2\n      jump\t// out\n        /* \"contracts/imiltestTwo.sol\":2611:3386  function tokenURI(uint256 tokenId)... */\n    tag_232:\n        /* \"contracts/imiltestTwo.sol\":2709:2722  string memory */\n      0x60\n        /* \"contracts/imiltestTwo.sol\":2750:2766  _exists(tokenId) */\n      tag_445\n        /* \"contracts/imiltestTwo.sol\":2758:2765  tokenId */\n      dup3\n        /* \"contracts/imiltestTwo.sol\":2750:2757  _exists */\n      tag_275\n        /* \"contracts/imiltestTwo.sol\":2750:2766  _exists(tokenId) */\n      jump\t// in\n    tag_445:\n        /* \"contracts/imiltestTwo.sol\":2734:2831  require(... */\n      tag_446\n      jumpi\n      mload(0x40)\n      shl(0xe5, 0x461bcd)\n      dup2\n      mstore\n        /* \"#utility.yul\":13250:13252   */\n      0x20\n        /* \"contracts/imiltestTwo.sol\":2734:2831  require(... */\n      0x04\n      dup3\n      add\n        /* \"#utility.yul\":13232:13253   */\n      mstore\n        /* \"#utility.yul\":13289:13291   */\n      0x2f\n        /* \"#utility.yul\":13269:13287   */\n      0x24\n      dup3\n      add\n        /* \"#utility.yul\":13262:13292   */\n      mstore\n        /* \"#utility.yul\":13328:13362   */\n      0x4552433732314d657461646174613a2055524920717565727920666f72206e6f\n        /* \"#utility.yul\":13308:13326   */\n      0x44\n      dup3\n      add\n        /* \"#utility.yul\":13301:13363   */\n      mstore\n      shl(0x89, 0x3732bc34b9ba32b73a103a37b5b2b7)\n        /* \"#utility.yul\":13379:13397   */\n      0x64\n      dup3\n      add\n        /* \"#utility.yul\":13372:13417   */\n      mstore\n        /* \"#utility.yul\":13434:13453   */\n      0x84\n      add\n        /* \"contracts/imiltestTwo.sol\":2734:2831  require(... */\n      tag_379\n        /* \"#utility.yul\":13048:13459   */\n      jump\n        /* \"contracts/imiltestTwo.sol\":2734:2831  require(... */\n    tag_446:\n        /* \"contracts/imiltestTwo.sol\":2840:2863  uint claimPhaseForToken */\n      0x00\n        /* \"contracts/imiltestTwo.sol\":2866:2892  claimPhaseByToken[tokenId] */\n      dup3\n      dup2\n      mstore\n        /* \"contracts/imiltestTwo.sol\":2866:2883  claimPhaseByToken */\n      0x14\n        /* \"contracts/imiltestTwo.sol\":2866:2892  claimPhaseByToken[tokenId] */\n      0x20\n      mstore\n      0x40\n      swap1\n      keccak256\n      sload\n        /* \"contracts/imiltestTwo.sol\":2904:2926  claimPhaseForToken > 0 */\n      dup1\n      iszero\n        /* \"contracts/imiltestTwo.sol\":2901:3381  if(claimPhaseForToken > 0){... */\n      tag_449\n      jumpi\n        /* \"contracts/imiltestTwo.sol\":2938:2967  string memory currentClaimURI */\n      0x00\n        /* \"contracts/imiltestTwo.sol\":2970:2999  _claimURI(claimPhaseForToken) */\n      tag_450\n        /* \"contracts/imiltestTwo.sol\":2980:2998  claimPhaseForToken */\n      dup3\n        /* \"contracts/imiltestTwo.sol\":2970:2979  _claimURI */\n      tag_451\n        /* \"contracts/imiltestTwo.sol\":2970:2999  _claimURI(claimPhaseForToken) */\n      jump\t// in\n    tag_450:\n        /* \"contracts/imiltestTwo.sol\":2938:2999  string memory currentClaimURI = _claimURI(claimPhaseForToken) */\n      swap1\n      pop\n        /* \"contracts/imiltestTwo.sol\":3049:3050  0 */\n      0x00\n        /* \"contracts/imiltestTwo.sol\":3023:3038  currentClaimURI */\n      dup2\n        /* \"contracts/imiltestTwo.sol\":3017:3046  bytes(currentClaimURI).length */\n      mload\n        /* \"contracts/imiltestTwo.sol\":3017:3050  bytes(currentClaimURI).length > 0 */\n      gt\n        /* \"contracts/imiltestTwo.sol\":3017:3152  bytes(currentClaimURI).length > 0... */\n      tag_452\n      jumpi\n      mload(0x40)\n      dup1\n      0x20\n      add\n      0x40\n      mstore\n      dup1\n      0x00\n      dup2\n      mstore\n      pop\n      jump(tag_453)\n    tag_452:\n        /* \"contracts/imiltestTwo.sol\":3086:3101  currentClaimURI */\n      dup1\n        /* \"contracts/imiltestTwo.sol\":3103:3121  tokenId.toString() */\n      tag_454\n        /* \"contracts/imiltestTwo.sol\":3103:3110  tokenId */\n      dup6\n        /* \"contracts/imiltestTwo.sol\":3103:3119  tokenId.toString */\n      tag_455\n        /* \"contracts/imiltestTwo.sol\":3103:3121  tokenId.toString() */\n      jump\t// in\n    tag_454:\n        /* \"contracts/imiltestTwo.sol\":3123:3136  baseExtension */\n      0x0c\n        /* \"contracts/imiltestTwo.sol\":3069:3137  abi.encodePacked(currentClaimURI, tokenId.toString(), baseExtension) */\n      add(0x20, mload(0x40))\n      tag_456\n      swap4\n      swap3\n      swap2\n      swap1\n      tag_457\n      jump\t// in\n    tag_456:\n      mload(0x40)\n      0x20\n      dup2\n      dup4\n      sub\n      sub\n      dup2\n      mstore\n      swap1\n      0x40\n      mstore\n        /* \"contracts/imiltestTwo.sol\":3017:3152  bytes(currentClaimURI).length > 0... */\n    tag_453:\n        /* \"contracts/imiltestTwo.sol\":3010:3152  return bytes(currentClaimURI).length > 0... */\n      swap5\n        /* \"contracts/imiltestTwo.sol\":2611:3386  function tokenURI(uint256 tokenId)... */\n      swap4\n      pop\n      pop\n      pop\n      pop\n      jump\t// out\n        /* \"contracts/imiltestTwo.sol\":2901:3381  if(claimPhaseForToken > 0){... */\n    tag_449:\n        /* \"contracts/imiltestTwo.sol\":3181:3209  string memory currentBaseURI */\n      0x00\n        /* \"contracts/imiltestTwo.sol\":3212:3222  _baseURI() */\n      tag_450\n        /* \"contracts/imiltestTwo.sol\":3212:3220  _baseURI */\n      tag_460\n        /* \"contracts/imiltestTwo.sol\":3212:3222  _baseURI() */\n      jump\t// in\n        /* \"contracts/imiltestTwo.sol\":2901:3381  if(claimPhaseForToken > 0){... */\n    tag_458:\n        /* \"contracts/imiltestTwo.sol\":2727:3386  {... */\n      pop\n        /* \"contracts/imiltestTwo.sol\":2611:3386  function tokenURI(uint256 tokenId)... */\n      swap2\n      swap1\n      pop\n      jump\t// out\n        /* \"contracts/imiltestTwo.sol\":5051:5512  function ownerOfTokenIds(address tokenOwner) external view returns (uint256[] memory) {... */\n    tag_237:\n        /* \"contracts/imiltestTwo.sol\":5119:5135  uint256[] memory */\n      0x60\n        /* \"contracts/imiltestTwo.sol\":5148:5169  uint256 supplyCurrent */\n      0x00\n        /* \"contracts/imiltestTwo.sol\":5172:5185  totalSupply() */\n      tag_466\n        /* \"contracts/ERC721A.sol\":6453:6465  _burnCounter */\n      sload(0x02)\n        /* \"contracts/ERC721A.sol\":6437:6450  _currentIndex */\n      sload(0x01)\n        /* \"contracts/ERC721A.sol\":6437:6465  _currentIndex - _burnCounter */\n      sub\n      swap1\n        /* \"contracts/ERC721A.sol\":6179:6502  function totalSupply() public view virtual override returns (uint256) {\r... */\n      jump\n        /* \"contracts/imiltestTwo.sol\":5172:5185  totalSupply() */\n    tag_466:\n        /* \"contracts/imiltestTwo.sol\":5148:5185  uint256 supplyCurrent = totalSupply() */\n      swap1\n      pop\n        /* \"contracts/imiltestTwo.sol\":5196:5219  uint256[] memory result */\n      0x00\n        /* \"contracts/imiltestTwo.sol\":5236:5257  balanceOf(tokenOwner) */\n      tag_467\n        /* \"contracts/imiltestTwo.sol\":5246:5256  tokenOwner */\n      dup5\n        /* \"contracts/imiltestTwo.sol\":5236:5245  balanceOf */\n      tag_166\n        /* \"contracts/imiltestTwo.sol\":5236:5257  balanceOf(tokenOwner) */\n      jump\t// in\n    tag_467:\n        /* \"contracts/imiltestTwo.sol\":5222:5258  new uint256[](balanceOf(tokenOwner)) */\n      0xffffffffffffffff\n      dup2\n      gt\n      iszero\n      tag_469\n      jumpi\n      tag_469\n      tag_470\n      jump\t// in\n    tag_469:\n      mload(0x40)\n      swap1\n      dup1\n      dup3\n      mstore\n      dup1\n      0x20\n      mul\n      0x20\n      add\n      dup3\n      add\n      0x40\n      mstore\n      dup1\n      iszero\n      tag_471\n      jumpi\n      dup2\n      0x20\n      add\n      0x20\n      dup3\n      mul\n      dup1\n      calldatasize\n      dup4\n      calldatacopy\n      add\n      swap1\n      pop\n    tag_471:\n      pop\n        /* \"contracts/imiltestTwo.sol\":5196:5258  uint256[] memory result = new uint256[](balanceOf(tokenOwner)) */\n      swap1\n      pop\n        /* \"contracts/imiltestTwo.sol\":5269:5284  uint256 counter */\n      0x00\n        /* \"contracts/imiltestTwo.sol\":5304:5313  uint256 i */\n      dup1\n        /* \"contracts/imiltestTwo.sol\":5299:5481  for (uint256 i = 0; i < supplyCurrent; i++) {... */\n    tag_472:\n        /* \"contracts/imiltestTwo.sol\":5323:5336  supplyCurrent */\n      dup4\n        /* \"contracts/imiltestTwo.sol\":5319:5320  i */\n      dup2\n        /* \"contracts/imiltestTwo.sol\":5319:5336  i < supplyCurrent */\n      lt\n        /* \"contracts/imiltestTwo.sol\":5299:5481  for (uint256 i = 0; i < supplyCurrent; i++) {... */\n      iszero\n      tag_473\n      jumpi\n        /* \"contracts/imiltestTwo.sol\":5376:5386  tokenOwner */\n      dup6\n      sub(shl(0xa0, 0x01), 0x01)\n        /* \"contracts/imiltestTwo.sol\":5362:5386  ownerOf(i) == tokenOwner */\n      and\n        /* \"contracts/imiltestTwo.sol\":5362:5372  ownerOf(i) */\n      tag_475\n        /* \"contracts/imiltestTwo.sol\":5370:5371  i */\n      dup3\n        /* \"contracts/imiltestTwo.sol\":5362:5369  ownerOf */\n      tag_157\n        /* \"contracts/imiltestTwo.sol\":5362:5372  ownerOf(i) */\n      jump\t// in\n    tag_475:\n      sub(shl(0xa0, 0x01), 0x01)\n        /* \"contracts/imiltestTwo.sol\":5362:5386  ownerOf(i) == tokenOwner */\n      and\n      eq\n        /* \"contracts/imiltestTwo.sol\":5358:5470  if (ownerOf(i) == tokenOwner) {... */\n      iszero\n      tag_476\n      jumpi\n        /* \"contracts/imiltestTwo.sol\":5425:5426  i */\n      dup1\n        /* \"contracts/imiltestTwo.sol\":5407:5413  result */\n      dup4\n        /* \"contracts/imiltestTwo.sol\":5414:5421  counter */\n      dup4\n        /* \"contracts/imiltestTwo.sol\":5407:5422  result[counter] */\n      dup2\n      mload\n      dup2\n      lt\n      tag_478\n      jumpi\n      tag_478\n      tag_296\n      jump\t// in\n    tag_478:\n      0x20\n      swap1\n      dup2\n      mul\n      swap2\n      swap1\n      swap2\n      add\n      add\n        /* \"contracts/imiltestTwo.sol\":5407:5426  result[counter] = i */\n      mstore\n        /* \"contracts/imiltestTwo.sol\":5445:5454  counter++ */\n      dup2\n      tag_479\n      dup2\n      tag_299\n      jump\t// in\n    tag_479:\n      swap3\n      pop\n      pop\n        /* \"contracts/imiltestTwo.sol\":5358:5470  if (ownerOf(i) == tokenOwner) {... */\n    tag_476:\n        /* \"contracts/imiltestTwo.sol\":5338:5341  i++ */\n      dup1\n      tag_480\n      dup2\n      tag_299\n      jump\t// in\n    tag_480:\n      swap2\n      pop\n      pop\n        /* \"contracts/imiltestTwo.sol\":5299:5481  for (uint256 i = 0; i < supplyCurrent; i++) {... */\n      jump(tag_472)\n    tag_473:\n      pop\n        /* \"contracts/imiltestTwo.sol\":5498:5504  result */\n      swap1\n      swap5\n        /* \"contracts/imiltestTwo.sol\":5051:5512  function ownerOfTokenIds(address tokenOwner) external view returns (uint256[] memory) {... */\n      swap4\n      pop\n      pop\n      pop\n      pop\n      jump\t// out\n        /* \"contracts/imiltestTwo.sol\":4254:4376  function setBaseExtension(string memory _newBaseExtension) public onlyOwner {... */\n    tag_247:\n        /* \"@openzeppelin/contracts/access/Ownable.sol\":1094:1107  _checkOwner() */\n      tag_482\n        /* \"@openzeppelin/contracts/access/Ownable.sol\":1094:1105  _checkOwner */\n      tag_263\n        /* \"@openzeppelin/contracts/access/Ownable.sol\":1094:1107  _checkOwner() */\n      jump\t// in\n    tag_482:\n        /* \"contracts/imiltestTwo.sol\":4337:4370  baseExtension = _newBaseExtension */\n      dup1\n      mload\n      tag_343\n      swap1\n        /* \"contracts/imiltestTwo.sol\":4337:4350  baseExtension */\n      0x0c\n      swap1\n        /* \"contracts/imiltestTwo.sol\":4337:4370  baseExtension = _newBaseExtension */\n      0x20\n      dup5\n      add\n      swap1\n      tag_344\n      jump\t// in\n        /* \"@openzeppelin/contracts/access/Ownable.sol\":2081:2279  function transferOwnership(address newOwner) public virtual onlyOwner {... */\n    tag_257:\n        /* \"@openzeppelin/contracts/access/Ownable.sol\":1094:1107  _checkOwner() */\n      tag_487\n        /* \"@openzeppelin/contracts/access/Ownable.sol\":1094:1105  _checkOwner */\n      tag_263\n        /* \"@openzeppelin/contracts/access/Ownable.sol\":1094:1107  _checkOwner() */\n      jump\t// in\n    tag_487:\n      sub(shl(0xa0, 0x01), 0x01)\n        /* \"@openzeppelin/contracts/access/Ownable.sol\":2169:2191  newOwner != address(0) */\n      dup2\n      and\n        /* \"@openzeppelin/contracts/access/Ownable.sol\":2161:2234  require(newOwner != address(0), \"Ownable: new owner is the zero address\") */\n      tag_489\n      jumpi\n      mload(0x40)\n      shl(0xe5, 0x461bcd)\n      dup2\n      mstore\n        /* \"#utility.yul\":10357:10359   */\n      0x20\n        /* \"@openzeppelin/contracts/access/Ownable.sol\":2161:2234  require(newOwner != address(0), \"Ownable: new owner is the zero address\") */\n      0x04\n      dup3\n      add\n        /* \"#utility.yul\":10339:10360   */\n      mstore\n        /* \"#utility.yul\":10396:10398   */\n      0x26\n        /* \"#utility.yul\":10376:10394   */\n      0x24\n      dup3\n      add\n        /* \"#utility.yul\":10369:10399   */\n      mstore\n        /* \"#utility.yul\":10435:10469   */\n      0x4f776e61626c653a206e6577206f776e657220697320746865207a65726f2061\n        /* \"#utility.yul\":10415:10433   */\n      0x44\n      dup3\n      add\n        /* \"#utility.yul\":10408:10470   */\n      mstore\n      shl(0xd0, 0x646472657373)\n        /* \"#utility.yul\":10486:10504   */\n      0x64\n      dup3\n      add\n        /* \"#utility.yul\":10479:10515   */\n      mstore\n        /* \"#utility.yul\":10532:10551   */\n      0x84\n      add\n        /* \"@openzeppelin/contracts/access/Ownable.sol\":2161:2234  require(newOwner != address(0), \"Ownable: new owner is the zero address\") */\n      tag_379\n        /* \"#utility.yul\":10155:10557   */\n      jump\n        /* \"@openzeppelin/contracts/access/Ownable.sol\":2161:2234  require(newOwner != address(0), \"Ownable: new owner is the zero address\") */\n    tag_489:\n        /* \"@openzeppelin/contracts/access/Ownable.sol\":2244:2272  _transferOwnership(newOwner) */\n      tag_337\n        /* \"@openzeppelin/contracts/access/Ownable.sol\":2263:2271  newOwner */\n      dup2\n        /* \"@openzeppelin/contracts/access/Ownable.sol\":2244:2262  _transferOwnership */\n      tag_367\n        /* \"@openzeppelin/contracts/access/Ownable.sol\":2244:2272  _transferOwnership(newOwner) */\n      jump\t// in\n        /* \"@openzeppelin/contracts/access/Ownable.sol\":1359:1489  function _checkOwner() internal view virtual {... */\n    tag_263:\n        /* \"@openzeppelin/contracts/access/Ownable.sol\":1247:1254  address */\n      0x00\n        /* \"@openzeppelin/contracts/access/Ownable.sol\":1273:1279  _owner */\n      sload\n      sub(shl(0xa0, 0x01), 0x01)\n      and\n        /* \"contracts/ERC721A.sol\":40407:40417  msg.sender */\n      caller\n        /* \"@openzeppelin/contracts/access/Ownable.sol\":1422:1445  owner() == _msgSender() */\n      eq\n        /* \"@openzeppelin/contracts/access/Ownable.sol\":1414:1482  require(owner() == _msgSender(), \"Ownable: caller is not the owner\") */\n      tag_366\n      jumpi\n      mload(0x40)\n      shl(0xe5, 0x461bcd)\n      dup2\n      mstore\n        /* \"#utility.yul\":12889:12891   */\n      0x20\n        /* \"@openzeppelin/contracts/access/Ownable.sol\":1414:1482  require(owner() == _msgSender(), \"Ownable: caller is not the owner\") */\n      0x04\n      dup3\n      add\n        /* \"#utility.yul\":12871:12892   */\n      dup2\n      swap1\n      mstore\n        /* \"#utility.yul\":12908:12926   */\n      0x24\n      dup3\n      add\n        /* \"#utility.yul\":12901:12931   */\n      mstore\n        /* \"#utility.yul\":12967:13001   */\n      0x4f776e61626c653a2063616c6c6572206973206e6f7420746865206f776e6572\n        /* \"#utility.yul\":12947:12965   */\n      0x44\n      dup3\n      add\n        /* \"#utility.yul\":12940:13002   */\n      mstore\n        /* \"#utility.yul\":13019:13037   */\n      0x64\n      add\n        /* \"@openzeppelin/contracts/access/Ownable.sol\":1414:1482  require(owner() == _msgSender(), \"Ownable: caller is not the owner\") */\n      tag_379\n        /* \"#utility.yul\":12687:13043   */\n      jump\n        /* \"contracts/ERC721A.sol\":18282:18564  function _exists(uint256 tokenId) internal view virtual returns (bool) {\r... */\n    tag_275:\n        /* \"contracts/ERC721A.sol\":18347:18351  bool */\n      0x00\n        /* \"contracts/ERC721A.sol\":18437:18450  _currentIndex */\n      sload(0x01)\n        /* \"contracts/ERC721A.sol\":18427:18434  tokenId */\n      dup3\n        /* \"contracts/ERC721A.sol\":18427:18450  tokenId < _currentIndex */\n      lt\n        /* \"contracts/ERC721A.sol\":18384:18537  _startTokenId() <= tokenId &&\r... */\n      dup1\n      iszero\n      tag_260\n      jumpi\n      pop\n      pop\n        /* \"contracts/ERC721A.sol\":18488:18514  _packedOwnerships[tokenId] */\n      0x00\n      swap1\n      dup2\n      mstore\n        /* \"contracts/ERC721A.sol\":18488:18505  _packedOwnerships */\n      0x05\n        /* \"contracts/ERC721A.sol\":18488:18514  _packedOwnerships[tokenId] */\n      0x20\n      mstore\n      0x40\n      swap1\n      keccak256\n      sload\n      shl(0xe0, 0x01)\n        /* \"contracts/ERC721A.sol\":18488:18532  _packedOwnerships[tokenId] & _BITMASK_BURNED */\n      and\n        /* \"contracts/ERC721A.sol\":18488:18537  _packedOwnerships[tokenId] & _BITMASK_BURNED == 0 */\n      iszero\n      swap1\n        /* \"contracts/ERC721A.sol\":18282:18564  function _exists(uint256 tokenId) internal view virtual returns (bool) {\r... */\n      jump\t// out\n        /* \"contracts/ERC721A.sol\":12976:14251  function _packedOwnershipOf(uint256 tokenId) private view returns (uint256) {\r... */\n    tag_308:\n        /* \"contracts/ERC721A.sol\":13043:13050  uint256 */\n      0x00\n        /* \"contracts/ERC721A.sol\":13078:13085  tokenId */\n      dup2\n        /* \"contracts/ERC721A.sol\":13180:13193  _currentIndex */\n      sload(0x01)\n        /* \"contracts/ERC721A.sol\":13173:13177  curr */\n      dup2\n        /* \"contracts/ERC721A.sol\":13173:13193  curr < _currentIndex */\n      lt\n        /* \"contracts/ERC721A.sol\":13169:14184  if (curr < _currentIndex) {\r... */\n      iszero\n      tag_509\n      jumpi\n        /* \"contracts/ERC721A.sol\":13218:13232  uint256 packed */\n      0x00\n        /* \"contracts/ERC721A.sol\":13235:13258  _packedOwnerships[curr] */\n      dup2\n      dup2\n      mstore\n        /* \"contracts/ERC721A.sol\":13235:13252  _packedOwnerships */\n      0x05\n        /* \"contracts/ERC721A.sol\":13235:13258  _packedOwnerships[curr] */\n      0x20\n      mstore\n      0x40\n      swap1\n      keccak256\n      sload\n      shl(0xe0, 0x01)\n        /* \"contracts/ERC721A.sol\":13324:13348  packed & _BITMASK_BURNED */\n      dup2\n      and\n        /* \"contracts/ERC721A.sol\":13320:14165  if (packed & _BITMASK_BURNED == 0) {\r... */\n      tag_510\n      jumpi\n        /* \"contracts/ERC721A.sol\":13989:14102  while (packed == 0) {\r... */\n    tag_511:\n        /* \"contracts/ERC721A.sol\":13996:14007  packed == 0 */\n      dup1\n        /* \"contracts/ERC721A.sol\":13989:14102  while (packed == 0) {\r... */\n      tag_512\n      jumpi\n      pop\n      not(0x00)\n        /* \"contracts/ERC721A.sol\":14067:14073  --curr */\n      add\n        /* \"contracts/ERC721A.sol\":14049:14074  _packedOwnerships[--curr] */\n      0x00\n      dup2\n      dup2\n      mstore\n        /* \"contracts/ERC721A.sol\":14049:14066  _packedOwnerships */\n      0x05\n        /* \"contracts/ERC721A.sol\":14049:14074  _packedOwnerships[--curr] */\n      0x20\n      mstore\n      0x40\n      swap1\n      keccak256\n      sload\n        /* \"contracts/ERC721A.sol\":13989:14102  while (packed == 0) {\r... */\n      jump(tag_511)\n    tag_512:\n        /* \"contracts/ERC721A.sol\":14135:14141  packed */\n      swap4\n        /* \"contracts/ERC721A.sol\":12976:14251  function _packedOwnershipOf(uint256 tokenId) private view returns (uint256) {\r... */\n      swap3\n      pop\n      pop\n      pop\n      jump\t// out\n        /* \"contracts/ERC721A.sol\":13320:14165  if (packed & _BITMASK_BURNED == 0) {\r... */\n    tag_510:\n        /* \"contracts/ERC721A.sol\":13195:14184  {\r... */\n      pop\n        /* \"contracts/ERC721A.sol\":13169:14184  if (curr < _currentIndex) {\r... */\n    tag_509:\n        /* \"contracts/ERC721A.sol\":14212:14243  OwnerQueryForNonexistentToken() */\n      mload(0x40)\n      shl(0xe1, 0x6f96cda1)\n      dup2\n      mstore\n      0x04\n      add\n      mload(0x40)\n      dup1\n      swap2\n      sub\n      swap1\n      revert\n        /* \"@openzeppelin/contracts/access/Ownable.sol\":2433:2620  function _transferOwnership(address newOwner) internal virtual {... */\n    tag_367:\n        /* \"@openzeppelin/contracts/access/Ownable.sol\":2506:2522  address oldOwner */\n      0x00\n        /* \"@openzeppelin/contracts/access/Ownable.sol\":2525:2531  _owner */\n      dup1\n      sload\n      sub(shl(0xa0, 0x01), 0x01)\n        /* \"@openzeppelin/contracts/access/Ownable.sol\":2541:2558  _owner = newOwner */\n      dup4\n      dup2\n      and\n      not(sub(shl(0xa0, 0x01), 0x01))\n      dup4\n      and\n      dup2\n      or\n      dup5\n      sstore\n        /* \"@openzeppelin/contracts/access/Ownable.sol\":2573:2613  OwnershipTransferred(oldOwner, newOwner) */\n      mload(0x40)\n        /* \"@openzeppelin/contracts/access/Ownable.sol\":2525:2531  _owner */\n      swap2\n      swap1\n      swap3\n      and\n      swap3\n      dup4\n      swap2\n        /* \"@openzeppelin/contracts/access/Ownable.sol\":2573:2613  OwnershipTransferred(oldOwner, newOwner) */\n      0x8be0079c531659141344cd1fd0a4f28419497f9722a3daafe3b4186f6b6457e0\n      swap2\n        /* \"@openzeppelin/contracts/access/Ownable.sol\":2506:2522  address oldOwner */\n      swap1\n        /* \"@openzeppelin/contracts/access/Ownable.sol\":2573:2613  OwnershipTransferred(oldOwner, newOwner) */\n      log3\n        /* \"@openzeppelin/contracts/access/Ownable.sol\":2496:2620  {... */\n      pop\n        /* \"@openzeppelin/contracts/access/Ownable.sol\":2433:2620  function _transferOwnership(address newOwner) internal virtual {... */\n      pop\n      jump\t// out\n        /* \"contracts/ERC721A.sol\":34152:34264  function _safeMint(address to, uint256 quantity) internal virtual {\r... */\n    tag_413:\n        /* \"contracts/ERC721A.sol\":34229:34256  _safeMint(to, quantity, '') */\n      tag_343\n        /* \"contracts/ERC721A.sol\":34239:34241  to */\n      dup3\n        /* \"contracts/ERC721A.sol\":34243:34251  quantity */\n      dup3\n        /* \"contracts/ERC721A.sol\":34229:34256  _safeMint(to, quantity, '') */\n      mload(0x40)\n      dup1\n      0x20\n      add\n      0x40\n      mstore\n      dup1\n      0x00\n      dup2\n      mstore\n      pop\n        /* \"contracts/ERC721A.sol\":34229:34238  _safeMint */\n      tag_524\n        /* \"contracts/ERC721A.sol\":34229:34256  _safeMint(to, quantity, '') */\n      jump\t// in\n        /* \"contracts/ERC721A.sol\":26729:27445  function _checkContractOnERC721Received(\r... */\n    tag_434:\n        /* \"contracts/ERC721A.sol\":26913:27001  ERC721A__IERC721Receiver(to).onERC721Received(_msgSenderERC721A(), from, tokenId, _data) */\n      mload(0x40)\n      shl(0xe1, 0x0a85bd01)\n      dup2\n      mstore\n        /* \"contracts/ERC721A.sol\":26892:26896  bool */\n      0x00\n      swap1\n      sub(shl(0xa0, 0x01), 0x01)\n        /* \"contracts/ERC721A.sol\":26913:26958  ERC721A__IERC721Receiver(to).onERC721Received */\n      dup6\n      and\n      swap1\n      0x150b7a02\n      swap1\n        /* \"contracts/ERC721A.sol\":26913:27001  ERC721A__IERC721Receiver(to).onERC721Received(_msgSenderERC721A(), from, tokenId, _data) */\n      tag_527\n      swap1\n        /* \"contracts/ERC721A.sol\":40407:40417  msg.sender */\n      caller\n      swap1\n        /* \"contracts/ERC721A.sol\":26980:26984  from */\n      dup10\n      swap1\n        /* \"contracts/ERC721A.sol\":26986:26993  tokenId */\n      dup9\n      swap1\n        /* \"contracts/ERC721A.sol\":26995:27000  _data */\n      dup9\n      swap1\n        /* \"contracts/ERC721A.sol\":26913:27001  ERC721A__IERC721Receiver(to).onERC721Received(_msgSenderERC721A(), from, tokenId, _data) */\n      0x04\n      add\n      tag_528\n      jump\t// in\n    tag_527:\n      0x20\n      mload(0x40)\n      dup1\n      dup4\n      sub\n      dup2\n      0x00\n      dup8\n      dup1\n      extcodesize\n      iszero\n      dup1\n      iszero\n      tag_529\n      jumpi\n      0x00\n      dup1\n      revert\n    tag_529:\n      pop\n      gas\n      call\n      swap3\n      pop\n      pop\n      pop\n      dup1\n      iszero\n      tag_530\n      jumpi\n      pop\n      0x40\n      dup1\n      mload\n      0x1f\n      returndatasize\n      swap1\n      dup2\n      add\n      not(0x1f)\n      and\n      dup3\n      add\n      swap1\n      swap3\n      mstore\n      tag_531\n      swap2\n      dup2\n      add\n      swap1\n      tag_532\n      jump\t// in\n    tag_531:\n      0x01\n    tag_530:\n        /* \"contracts/ERC721A.sol\":26909:27438  try ERC721A__IERC721Receiver(to).onERC721Received(_msgSenderERC721A(), from, tokenId, _data) returns (\r... */\n      tag_533\n      jumpi\n      returndatasize\n      dup1\n      dup1\n      iszero\n      tag_538\n      jumpi\n      mload(0x40)\n      swap2\n      pop\n      and(add(returndatasize, 0x3f), not(0x1f))\n      dup3\n      add\n      0x40\n      mstore\n      returndatasize\n      dup3\n      mstore\n      returndatasize\n      0x00\n      0x20\n      dup5\n      add\n      returndatacopy\n      jump(tag_537)\n    tag_538:\n      0x60\n      swap2\n      pop\n    tag_537:\n      pop\n        /* \"contracts/ERC721A.sol\":27196:27209  reason.length */\n      dup1\n      mload\n        /* \"contracts/ERC721A.sol\":27192:27427  if (reason.length == 0) {\r... */\n      tag_539\n      jumpi\n        /* \"contracts/ERC721A.sol\":27242:27282  TransferToNonERC721ReceiverImplementer() */\n      mload(0x40)\n      shl(0xe1, 0x68d2bf6b)\n      dup2\n      mstore\n      0x04\n      add\n      mload(0x40)\n      dup1\n      swap2\n      sub\n      swap1\n      revert\n        /* \"contracts/ERC721A.sol\":27192:27427  if (reason.length == 0) {\r... */\n    tag_539:\n        /* \"contracts/ERC721A.sol\":27385:27391  reason */\n      dup1\n        /* \"contracts/ERC721A.sol\":27379:27392  mload(reason) */\n      mload\n        /* \"contracts/ERC721A.sol\":27370:27376  reason */\n      dup2\n        /* \"contracts/ERC721A.sol\":27366:27368  32 */\n      0x20\n        /* \"contracts/ERC721A.sol\":27362:27377  add(32, reason) */\n      add\n        /* \"contracts/ERC721A.sol\":27355:27393  revert(add(32, reason), mload(reason)) */\n      revert\n        /* \"contracts/ERC721A.sol\":26909:27438  try ERC721A__IERC721Receiver(to).onERC721Received(_msgSenderERC721A(), from, tokenId, _data) returns (\r... */\n    tag_533:\n      not(sub(shl(0xe0, 0x01), 0x01))\n        /* \"contracts/ERC721A.sol\":27072:27136  retval == ERC721A__IERC721Receiver(to).onERC721Received.selector */\n      and\n      shl(0xe1, 0x0a85bd01)\n      eq\n      swap1\n      pop\n        /* \"contracts/ERC721A.sol\":26729:27445  function _checkContractOnERC721Received(\r... */\n      swap5\n      swap4\n      pop\n      pop\n      pop\n      pop\n      jump\t// out\n        /* \"contracts/imiltestTwo.sol\":1227:1339  function _claimURI(uint claim) internal view virtual returns (string memory) {... */\n    tag_451:\n        /* \"contracts/imiltestTwo.sol\":1318:1333  claimURI[claim] */\n      0x00\n      dup2\n      dup2\n      mstore\n        /* \"contracts/imiltestTwo.sol\":1318:1326  claimURI */\n      0x0b\n        /* \"contracts/imiltestTwo.sol\":1318:1333  claimURI[claim] */\n      0x20\n      mstore\n      0x40\n      swap1\n      keccak256\n        /* \"contracts/imiltestTwo.sol\":1311:1333  return claimURI[claim] */\n      dup1\n      sload\n        /* \"contracts/imiltestTwo.sol\":1289:1302  string memory */\n      0x60\n      swap2\n        /* \"contracts/imiltestTwo.sol\":1318:1333  claimURI[claim] */\n      swap1\n        /* \"contracts/imiltestTwo.sol\":1311:1333  return claimURI[claim] */\n      tag_543\n      swap1\n      tag_268\n      jump\t// in\n    tag_543:\n      dup1\n      0x1f\n      add\n      0x20\n      dup1\n      swap2\n      div\n      mul\n      0x20\n      add\n      mload(0x40)\n      swap1\n      dup2\n      add\n      0x40\n      mstore\n      dup1\n      swap3\n      swap2\n      swap1\n      dup2\n      dup2\n      mstore\n      0x20\n      add\n      dup3\n      dup1\n      sload\n      tag_544\n      swap1\n      tag_268\n      jump\t// in\n    tag_544:\n      dup1\n      iszero\n      tag_545\n      jumpi\n      dup1\n      0x1f\n      lt\n      tag_546\n      jumpi\n      0x0100\n      dup1\n      dup4\n      sload\n      div\n      mul\n      dup4\n      mstore\n      swap2\n      0x20\n      add\n      swap2\n      jump(tag_545)\n    tag_546:\n      dup3\n      add\n      swap2\n      swap1\n      0x00\n      mstore\n      keccak256(0x00, 0x20)\n      swap1\n    tag_547:\n      dup2\n      sload\n      dup2\n      mstore\n      swap1\n      0x01\n      add\n      swap1\n      0x20\n      add\n      dup1\n      dup4\n      gt\n      tag_547\n      jumpi\n      dup3\n      swap1\n      sub\n      0x1f\n      and\n      dup3\n      add\n      swap2\n    tag_545:\n      pop\n      pop\n      pop\n      pop\n      pop\n      swap1\n      pop\n        /* \"contracts/imiltestTwo.sol\":1227:1339  function _claimURI(uint claim) internal view virtual returns (string memory) {... */\n      swap2\n      swap1\n      pop\n      jump\t// out\n        /* \"@openzeppelin/contracts/utils/Strings.sol\":392:1095  function toString(uint256 value) internal pure returns (string memory) {... */\n    tag_455:\n        /* \"@openzeppelin/contracts/utils/Strings.sol\":448:461  string memory */\n      0x60\n        /* \"@openzeppelin/contracts/utils/Strings.sol\":665:675  value == 0 */\n      dup2\n        /* \"@openzeppelin/contracts/utils/Strings.sol\":661:712  if (value == 0) {... */\n      tag_549\n      jumpi\n      pop\n      pop\n        /* \"@openzeppelin/contracts/utils/Strings.sol\":691:701  return \"0\" */\n      0x40\n      dup1\n      mload\n      dup1\n      dup3\n      add\n      swap1\n      swap2\n      mstore\n      0x01\n      dup2\n      mstore\n      shl(0xfc, 0x03)\n      0x20\n      dup3\n      add\n      mstore\n      swap1\n        /* \"@openzeppelin/contracts/utils/Strings.sol\":392:1095  function toString(uint256 value) internal pure returns (string memory) {... */\n      jump\t// out\n        /* \"@openzeppelin/contracts/utils/Strings.sol\":661:712  if (value == 0) {... */\n    tag_549:\n        /* \"@openzeppelin/contracts/utils/Strings.sol\":736:741  value */\n      dup2\n        /* \"@openzeppelin/contracts/utils/Strings.sol\":721:733  uint256 temp */\n      0x00\n        /* \"@openzeppelin/contracts/utils/Strings.sol\":775:850  while (temp != 0) {... */\n    tag_550:\n        /* \"@openzeppelin/contracts/utils/Strings.sol\":782:791  temp != 0 */\n      dup2\n      iszero\n        /* \"@openzeppelin/contracts/utils/Strings.sol\":775:850  while (temp != 0) {... */\n      tag_551\n      jumpi\n        /* \"@openzeppelin/contracts/utils/Strings.sol\":807:815  digits++ */\n      dup1\n      tag_552\n      dup2\n      tag_299\n      jump\t// in\n    tag_552:\n      swap2\n      pop\n        /* \"@openzeppelin/contracts/utils/Strings.sol\":829:839  temp /= 10 */\n      tag_553\n      swap1\n      pop\n        /* \"@openzeppelin/contracts/utils/Strings.sol\":837:839  10 */\n      0x0a\n        /* \"@openzeppelin/contracts/utils/Strings.sol\":829:839  temp /= 10 */\n      dup4\n      tag_554\n      jump\t// in\n    tag_553:\n      swap2\n      pop\n        /* \"@openzeppelin/contracts/utils/Strings.sol\":775:850  while (temp != 0) {... */\n      jump(tag_550)\n    tag_551:\n        /* \"@openzeppelin/contracts/utils/Strings.sol\":859:878  bytes memory buffer */\n      0x00\n        /* \"@openzeppelin/contracts/utils/Strings.sol\":891:897  digits */\n      dup2\n        /* \"@openzeppelin/contracts/utils/Strings.sol\":881:898  new bytes(digits) */\n      0xffffffffffffffff\n      dup2\n      gt\n      iszero\n      tag_556\n      jumpi\n      tag_556\n      tag_470\n      jump\t// in\n    tag_556:\n      mload(0x40)\n      swap1\n      dup1\n      dup3\n      mstore\n      dup1\n      0x1f\n      add\n      not(0x1f)\n      and\n      0x20\n      add\n      dup3\n      add\n      0x40\n      mstore\n      dup1\n      iszero\n      tag_557\n      jumpi\n      0x20\n      dup3\n      add\n      dup2\n      dup1\n      calldatasize\n      dup4\n      calldatacopy\n      add\n      swap1\n      pop\n    tag_557:\n      pop\n        /* \"@openzeppelin/contracts/utils/Strings.sol\":859:898  bytes memory buffer = new bytes(digits) */\n      swap1\n      pop\n        /* \"@openzeppelin/contracts/utils/Strings.sol\":908:1058  while (value != 0) {... */\n    tag_558:\n        /* \"@openzeppelin/contracts/utils/Strings.sol\":915:925  value != 0 */\n      dup5\n      iszero\n        /* \"@openzeppelin/contracts/utils/Strings.sol\":908:1058  while (value != 0) {... */\n      tag_453\n      jumpi\n        /* \"@openzeppelin/contracts/utils/Strings.sol\":941:952  digits -= 1 */\n      tag_560\n        /* \"@openzeppelin/contracts/utils/Strings.sol\":951:952  1 */\n      0x01\n        /* \"@openzeppelin/contracts/utils/Strings.sol\":941:952  digits -= 1 */\n      dup4\n      tag_561\n      jump\t// in\n    tag_560:\n      swap2\n      pop\n        /* \"@openzeppelin/contracts/utils/Strings.sol\":1009:1019  value % 10 */\n      tag_562\n        /* \"@openzeppelin/contracts/utils/Strings.sol\":1017:1019  10 */\n      0x0a\n        /* \"@openzeppelin/contracts/utils/Strings.sol\":1009:1014  value */\n      dup7\n        /* \"@openzeppelin/contracts/utils/Strings.sol\":1009:1019  value % 10 */\n      tag_563\n      jump\t// in\n    tag_562:\n        /* \"@openzeppelin/contracts/utils/Strings.sol\":996:1020  48 + uint256(value % 10) */\n      tag_564\n      swap1\n        /* \"@openzeppelin/contracts/utils/Strings.sol\":996:998  48 */\n      0x30\n        /* \"@openzeppelin/contracts/utils/Strings.sol\":996:1020  48 + uint256(value % 10) */\n      tag_385\n      jump\t// in\n    tag_564:\n        /* \"@openzeppelin/contracts/utils/Strings.sol\":983:1022  bytes1(uint8(48 + uint256(value % 10))) */\n      0xf8\n      shl\n        /* \"@openzeppelin/contracts/utils/Strings.sol\":966:972  buffer */\n      dup2\n        /* \"@openzeppelin/contracts/utils/Strings.sol\":973:979  digits */\n      dup4\n        /* \"@openzeppelin/contracts/utils/Strings.sol\":966:980  buffer[digits] */\n      dup2\n      mload\n      dup2\n      lt\n      tag_566\n      jumpi\n      tag_566\n      tag_296\n      jump\t// in\n    tag_566:\n      0x20\n      add\n      add\n        /* \"@openzeppelin/contracts/utils/Strings.sol\":966:1022  buffer[digits] = bytes1(uint8(48 + uint256(value % 10))) */\n      swap1\n      not(sub(shl(0xf8, 0x01), 0x01))\n      and\n      swap1\n      dup2\n      0x00\n      byte\n      swap1\n      mstore8\n      pop\n        /* \"@openzeppelin/contracts/utils/Strings.sol\":1036:1047  value /= 10 */\n      tag_567\n        /* \"@openzeppelin/contracts/utils/Strings.sol\":1045:1047  10 */\n      0x0a\n        /* \"@openzeppelin/contracts/utils/Strings.sol\":1036:1047  value /= 10 */\n      dup7\n      tag_554\n      jump\t// in\n    tag_567:\n      swap5\n      pop\n        /* \"@openzeppelin/contracts/utils/Strings.sol\":908:1058  while (value != 0) {... */\n      jump(tag_558)\n        /* \"contracts/imiltestTwo.sol\":1119:1221  function _baseURI() internal view virtual override returns (string memory) {... */\n    tag_460:\n        /* \"contracts/imiltestTwo.sol\":1179:1192  string memory */\n      0x60\n        /* \"contracts/imiltestTwo.sol\":1208:1215  baseURI */\n      0x0a\n        /* \"contracts/imiltestTwo.sol\":1201:1215  return baseURI */\n      dup1\n      sload\n      tag_267\n      swap1\n      tag_268\n      jump\t// in\n        /* \"contracts/ERC721A.sol\":33379:34068  function _safeMint(\r... */\n    tag_524:\n        /* \"contracts/ERC721A.sol\":33510:33529  _mint(to, quantity) */\n      tag_577\n        /* \"contracts/ERC721A.sol\":33516:33518  to */\n      dup4\n        /* \"contracts/ERC721A.sol\":33520:33528  quantity */\n      dup4\n        /* \"contracts/ERC721A.sol\":33510:33515  _mint */\n      tag_578\n        /* \"contracts/ERC721A.sol\":33510:33529  _mint(to, quantity) */\n      jump\t// in\n    tag_577:\n      sub(shl(0xa0, 0x01), 0x01)\n        /* \"contracts/ERC721A.sol\":33571:33585  to.code.length */\n      dup4\n      and\n      extcodesize\n        /* \"contracts/ERC721A.sol\":33571:33590  to.code.length != 0 */\n      iszero\n        /* \"contracts/ERC721A.sol\":33567:34050  if (to.code.length != 0) {\r... */\n      tag_292\n      jumpi\n        /* \"contracts/ERC721A.sol\":33625:33638  _currentIndex */\n      sload(0x01)\n        /* \"contracts/ERC721A.sol\":33673:33687  end - quantity */\n      dup3\n      dup2\n      sub\n        /* \"contracts/ERC721A.sol\":33706:33939  do {\r... */\n    tag_580:\n        /* \"contracts/ERC721A.sol\":33737:33799  _checkContractOnERC721Received(address(0), to, index++, _data) */\n      tag_583\n        /* \"contracts/ERC721A.sol\":33776:33777  0 */\n      0x00\n        /* \"contracts/ERC721A.sol\":33780:33782  to */\n      dup7\n        /* \"contracts/ERC721A.sol\":33784:33791  index++ */\n      dup4\n      dup1\n      0x01\n      add\n      swap5\n      pop\n        /* \"contracts/ERC721A.sol\":33793:33798  _data */\n      dup7\n        /* \"contracts/ERC721A.sol\":33737:33767  _checkContractOnERC721Received */\n      tag_434\n        /* \"contracts/ERC721A.sol\":33737:33799  _checkContractOnERC721Received(address(0), to, index++, _data) */\n      jump\t// in\n    tag_583:\n        /* \"contracts/ERC721A.sol\":33732:33899  if (!_checkContractOnERC721Received(address(0), to, index++, _data)) {\r... */\n      tag_584\n      jumpi\n        /* \"contracts/ERC721A.sol\":33835:33875  TransferToNonERC721ReceiverImplementer() */\n      mload(0x40)\n      shl(0xe1, 0x68d2bf6b)\n      dup2\n      mstore\n      0x04\n      add\n      mload(0x40)\n      dup1\n      swap2\n      sub\n      swap1\n      revert\n        /* \"contracts/ERC721A.sol\":33732:33899  if (!_checkContractOnERC721Received(address(0), to, index++, _data)) {\r... */\n    tag_584:\n        /* \"contracts/ERC721A.sol\":33934:33937  end */\n      dup2\n        /* \"contracts/ERC721A.sol\":33926:33931  index */\n      dup2\n        /* \"contracts/ERC721A.sol\":33926:33937  index < end */\n      lt\n        /* \"contracts/ERC721A.sol\":33706:33939  do {\r... */\n      tag_580\n      jumpi\n        /* \"contracts/ERC721A.sol\":34021:34024  end */\n      dup2\n        /* \"contracts/ERC721A.sol\":34004:34017  _currentIndex */\n      sload(0x01)\n        /* \"contracts/ERC721A.sol\":34004:34024  _currentIndex != end */\n      eq\n        /* \"contracts/ERC721A.sol\":34000:34034  if (_currentIndex != end) revert() */\n      tag_585\n      jumpi\n        /* \"contracts/ERC721A.sol\":34026:34034  revert() */\n      0x00\n      dup1\n      revert\n        /* \"contracts/ERC721A.sol\":34000:34034  if (_currentIndex != end) revert() */\n    tag_585:\n        /* \"contracts/ERC721A.sol\":33592:34050  {\r... */\n      pop\n      pop\n        /* \"contracts/ERC721A.sol\":33379:34068  function _safeMint(\r... */\n      pop\n      pop\n      pop\n      jump\t// out\n        /* \"contracts/ERC721A.sol\":27907:30627  function _mint(address to, uint256 quantity) internal virtual {\r... */\n    tag_578:\n        /* \"contracts/ERC721A.sol\":28003:28016  _currentIndex */\n      sload(0x01)\n        /* \"contracts/ERC721A.sol\":28031:28044  quantity == 0 */\n      dup2\n        /* \"contracts/ERC721A.sol\":28027:28071  if (quantity == 0) revert MintZeroQuantity() */\n      tag_587\n      jumpi\n        /* \"contracts/ERC721A.sol\":28053:28071  MintZeroQuantity() */\n      mload(0x40)\n      shl(0xe0, 0xb562e8dd)\n      dup2\n      mstore\n      0x04\n      add\n      mload(0x40)\n      dup1\n      swap2\n      sub\n      swap1\n      revert\n        /* \"contracts/ERC721A.sol\":28027:28071  if (quantity == 0) revert MintZeroQuantity() */\n    tag_587:\n      sub(shl(0xa0, 0x01), 0x01)\n        /* \"contracts/ERC721A.sol\":28559:28581  _packedAddressData[to] */\n      dup4\n      and\n      0x00\n      dup2\n      dup2\n      mstore\n        /* \"contracts/ERC721A.sol\":28559:28577  _packedAddressData */\n      0x06\n        /* \"contracts/ERC721A.sol\":28559:28581  _packedAddressData[to] */\n      0x20\n      swap1\n      dup2\n      mstore\n        /* \"contracts/ERC721A.sol\":1660:1662  64 */\n      0x40\n        /* \"contracts/ERC721A.sol\":28559:28581  _packedAddressData[to] */\n      dup1\n      dup4\n      keccak256\n        /* \"contracts/ERC721A.sol\":28559:28630  _packedAddressData[to] += quantity * ((1 << _BITPOS_NUMBER_MINTED) | 1) */\n      dup1\n      sload\n        /* \"contracts/ERC721A.sol\":28597:28629  (1 << _BITPOS_NUMBER_MINTED) | 1 */\n      0x010000000000000001\n        /* \"contracts/ERC721A.sol\":28585:28630  quantity * ((1 << _BITPOS_NUMBER_MINTED) | 1) */\n      dup9\n      mul\n        /* \"contracts/ERC721A.sol\":28559:28630  _packedAddressData[to] += quantity * ((1 << _BITPOS_NUMBER_MINTED) | 1) */\n      add\n      swap1\n      sstore\n        /* \"contracts/ERC721A.sol\":28873:28904  _packedOwnerships[startTokenId] */\n      dup5\n      dup4\n      mstore\n        /* \"contracts/ERC721A.sol\":28873:28890  _packedOwnerships */\n      0x05\n        /* \"contracts/ERC721A.sol\":28873:28904  _packedOwnerships[startTokenId] */\n      swap1\n      swap2\n      mstore\n      dup2\n      keccak256\n      0x01\n        /* \"contracts/ERC721A.sol\":15641:15656  eq(quantity, 1) */\n      dup6\n      eq\n        /* \"contracts/ERC721A.sol\":15615:15639  _BITPOS_NEXT_INITIALIZED */\n      0xe1\n        /* \"contracts/ERC721A.sol\":15611:15657  shl(_BITPOS_NEXT_INITIALIZED, eq(quantity, 1)) */\n      shl\n        /* \"contracts/ERC721A.sol\":15210:15221  timestamp() */\n      timestamp\n        /* \"contracts/ERC721A.sol\":15185:15208  _BITPOS_START_TIMESTAMP */\n      0xa0\n        /* \"contracts/ERC721A.sol\":15181:15222  shl(_BITPOS_START_TIMESTAMP, timestamp()) */\n      shl\n        /* \"contracts/ERC721A.sol\":15178:15230  or(shl(_BITPOS_START_TIMESTAMP, timestamp()), flags) */\n      or\n        /* \"contracts/ERC721A.sol\":15168:15231  or(owner, or(shl(_BITPOS_START_TIMESTAMP, timestamp()), flags)) */\n      dup4\n      or\n        /* \"contracts/ERC721A.sol\":28873:29046  _packedOwnerships[startTokenId] = _packOwnershipData(\r... */\n      swap1\n      sstore\n        /* \"contracts/ERC721A.sol\":29108:29131  startTokenId + quantity */\n      dup3\n      dup5\n      add\n      swap1\n        /* \"contracts/ERC721A.sol\":28873:28904  _packedOwnerships[startTokenId] */\n      dup4\n      swap1\n        /* \"contracts/ERC721A.sol\":28559:28581  _packedAddressData[to] */\n      dup4\n      swap1\n        /* \"contracts/ERC721A.sol\":29873:29898  _TRANSFER_EVENT_SIGNATURE */\n      0xddf252ad1be2c89b69c2b068fc378daa952ba7f163c4a11628f55a4df523b3ef\n        /* \"contracts/ERC721A.sol\":28559:28581  _packedAddressData[to] */\n      dup2\n      dup1\n        /* \"contracts/ERC721A.sol\":29726:30061  log4(\r... */\n      log4\n        /* \"contracts/ERC721A.sol\":30141:30142  1 */\n      0x01\n        /* \"contracts/ERC721A.sol\":30127:30139  startTokenId */\n      dup4\n        /* \"contracts/ERC721A.sol\":30123:30143  add(startTokenId, 1) */\n      add\n        /* \"contracts/ERC721A.sol\":30081:30427  for {\r... */\n    tag_593:\n        /* \"contracts/ERC721A.sol\":30182:30185  end */\n      dup2\n        /* \"contracts/ERC721A.sol\":30173:30180  tokenId */\n      dup2\n        /* \"contracts/ERC721A.sol\":30170:30186  eq(tokenId, end) */\n      eq\n        /* \"contracts/ERC721A.sol\":30081:30427  for {\r... */\n      tag_595\n      jumpi\n        /* \"contracts/ERC721A.sol\":30400:30407  tokenId */\n      dup1\n        /* \"contracts/ERC721A.sol\":30390:30398  toMasked */\n      dup4\n        /* \"contracts/ERC721A.sol\":30387:30388  0 */\n      0x00\n        /* \"contracts/ERC721A.sol\":30360:30385  _TRANSFER_EVENT_SIGNATURE */\n      0xddf252ad1be2c89b69c2b068fc378daa952ba7f163c4a11628f55a4df523b3ef\n        /* \"contracts/ERC721A.sol\":30357:30358  0 */\n      0x00\n        /* \"contracts/ERC721A.sol\":30354:30355  0 */\n      dup1\n        /* \"contracts/ERC721A.sol\":30349:30408  log4(0, 0, _TRANSFER_EVENT_SIGNATURE, 0, toMasked, tokenId) */\n      log4\n        /* \"contracts/ERC721A.sol\":30235:30236  1 */\n      0x01\n        /* \"contracts/ERC721A.sol\":30222:30237  add(tokenId, 1) */\n      add\n        /* \"contracts/ERC721A.sol\":30081:30427  for {\r... */\n      jump(tag_593)\n    tag_595:\n      pop\n        /* \"contracts/ERC721A.sol\":30460:30473  toMasked == 0 */\n      dup2\n        /* \"contracts/ERC721A.sol\":30456:30501  if (toMasked == 0) revert MintToZeroAddress() */\n      tag_596\n      jumpi\n        /* \"contracts/ERC721A.sol\":30482:30501  MintToZeroAddress() */\n      mload(0x40)\n      shl(0xe8, 0x2e0763)\n      dup2\n      mstore\n      0x04\n      add\n      mload(0x40)\n      dup1\n      swap2\n      sub\n      swap1\n      revert\n        /* \"contracts/ERC721A.sol\":30456:30501  if (toMasked == 0) revert MintToZeroAddress() */\n    tag_596:\n        /* \"contracts/ERC721A.sol\":30518:30531  _currentIndex */\n      0x01\n        /* \"contracts/ERC721A.sol\":30518:30537  _currentIndex = end */\n      sstore\n      pop\n        /* \"contracts/imiltestTwo.sol\":4945:5040  for (uint256 i = 0; i < addresses.length; i++) {... */\n      pop\n        /* \"contracts/imiltestTwo.sol\":4855:5045  function removeUsersFromAllowlist(address[] calldata addresses) external onlyOwner {... */\n      pop\n      pop\n      jump\t// out\n    tag_344:\n      dup3\n      dup1\n      sload\n      tag_599\n      swap1\n      tag_268\n      jump\t// in\n    tag_599:\n      swap1\n      0x00\n      mstore\n      keccak256(0x00, 0x20)\n      swap1\n      0x1f\n      add\n      0x20\n      swap1\n      div\n      dup2\n      add\n      swap3\n      dup3\n      tag_601\n      jumpi\n      0x00\n      dup6\n      sstore\n      jump(tag_604)\n    tag_601:\n      dup3\n      0x1f\n      lt\n      tag_602\n      jumpi\n      dup1\n      mload\n      not(0xff)\n      and\n      dup4\n      dup1\n      add\n      or\n      dup6\n      sstore\n      jump(tag_604)\n    tag_602:\n      dup3\n      dup1\n      add\n      0x01\n      add\n      dup6\n      sstore\n      dup3\n      iszero\n      tag_604\n      jumpi\n      swap2\n      dup3\n      add\n    tag_603:\n      dup3\n      dup2\n      gt\n      iszero\n      tag_604\n      jumpi\n      dup3\n      mload\n      dup3\n      sstore\n      swap2\n      0x20\n      add\n      swap2\n      swap1\n      0x01\n      add\n      swap1\n      jump(tag_603)\n    tag_604:\n      pop\n      tag_605\n      swap3\n      swap2\n      pop\n      tag_606\n      jump\t// in\n    tag_605:\n      pop\n      swap1\n      jump\t// out\n    tag_606:\n    tag_607:\n      dup1\n      dup3\n      gt\n      iszero\n      tag_605\n      jumpi\n      0x00\n      dup2\n      sstore\n      0x01\n      add\n      jump(tag_607)\n        /* \"#utility.yul\":14:645   */\n    tag_610:\n        /* \"#utility.yul\":78:83   */\n      0x00\n        /* \"#utility.yul\":108:126   */\n      0xffffffffffffffff\n        /* \"#utility.yul\":149:151   */\n      dup1\n        /* \"#utility.yul\":141:147   */\n      dup5\n        /* \"#utility.yul\":138:152   */\n      gt\n        /* \"#utility.yul\":135:175   */\n      iszero\n      tag_613\n      jumpi\n        /* \"#utility.yul\":155:173   */\n      tag_613\n      tag_470\n      jump\t// in\n    tag_613:\n        /* \"#utility.yul\":230:232   */\n      0x40\n        /* \"#utility.yul\":224:233   */\n      mload\n        /* \"#utility.yul\":198:200   */\n      0x1f\n        /* \"#utility.yul\":284:299   */\n      dup6\n      add\n      not(0x1f)\n        /* \"#utility.yul\":280:304   */\n      swap1\n      dup2\n      and\n        /* \"#utility.yul\":306:308   */\n      0x3f\n        /* \"#utility.yul\":276:309   */\n      add\n        /* \"#utility.yul\":272:314   */\n      and\n        /* \"#utility.yul\":260:315   */\n      dup2\n      add\n      swap1\n        /* \"#utility.yul\":330:348   */\n      dup3\n      dup3\n      gt\n        /* \"#utility.yul\":350:372   */\n      dup2\n      dup4\n      lt\n        /* \"#utility.yul\":327:373   */\n      or\n        /* \"#utility.yul\":324:396   */\n      iszero\n      tag_615\n      jumpi\n        /* \"#utility.yul\":376:394   */\n      tag_615\n      tag_470\n      jump\t// in\n    tag_615:\n        /* \"#utility.yul\":416:426   */\n      dup2\n        /* \"#utility.yul\":412:414   */\n      0x40\n        /* \"#utility.yul\":405:427   */\n      mstore\n        /* \"#utility.yul\":445:451   */\n      dup1\n        /* \"#utility.yul\":436:451   */\n      swap4\n      pop\n        /* \"#utility.yul\":475:481   */\n      dup6\n        /* \"#utility.yul\":467:473   */\n      dup2\n        /* \"#utility.yul\":460:482   */\n      mstore\n        /* \"#utility.yul\":515:518   */\n      dup7\n        /* \"#utility.yul\":506:512   */\n      dup7\n        /* \"#utility.yul\":501:504   */\n      dup7\n        /* \"#utility.yul\":497:513   */\n      add\n        /* \"#utility.yul\":494:519   */\n      gt\n        /* \"#utility.yul\":491:536   */\n      iszero\n      tag_616\n      jumpi\n        /* \"#utility.yul\":532:533   */\n      0x00\n        /* \"#utility.yul\":529:530   */\n      dup1\n        /* \"#utility.yul\":522:534   */\n      revert\n        /* \"#utility.yul\":491:536   */\n    tag_616:\n        /* \"#utility.yul\":582:588   */\n      dup6\n        /* \"#utility.yul\":577:580   */\n      dup6\n        /* \"#utility.yul\":570:574   */\n      0x20\n        /* \"#utility.yul\":562:568   */\n      dup4\n        /* \"#utility.yul\":558:575   */\n      add\n        /* \"#utility.yul\":545:589   */\n      calldatacopy\n        /* \"#utility.yul\":637:638   */\n      0x00\n        /* \"#utility.yul\":630:634   */\n      0x20\n        /* \"#utility.yul\":621:627   */\n      dup8\n        /* \"#utility.yul\":613:619   */\n      dup4\n        /* \"#utility.yul\":609:628   */\n      add\n        /* \"#utility.yul\":605:635   */\n      add\n        /* \"#utility.yul\":598:639   */\n      mstore\n      pop\n      pop\n      pop\n        /* \"#utility.yul\":14:645   */\n      swap4\n      swap3\n      pop\n      pop\n      pop\n      jump\t// out\n        /* \"#utility.yul\":650:823   */\n    tag_617:\n        /* \"#utility.yul\":718:738   */\n      dup1\n      calldataload\n      sub(shl(0xa0, 0x01), 0x01)\n        /* \"#utility.yul\":767:798   */\n      dup2\n      and\n        /* \"#utility.yul\":757:799   */\n      dup2\n      eq\n        /* \"#utility.yul\":747:817   */\n      tag_619\n      jumpi\n        /* \"#utility.yul\":813:814   */\n      0x00\n        /* \"#utility.yul\":810:811   */\n      dup1\n        /* \"#utility.yul\":803:815   */\n      revert\n        /* \"#utility.yul\":747:817   */\n    tag_619:\n        /* \"#utility.yul\":650:823   */\n      swap2\n      swap1\n      pop\n      jump\t// out\n        /* \"#utility.yul\":828:988   */\n    tag_620:\n        /* \"#utility.yul\":893:913   */\n      dup1\n      calldataload\n        /* \"#utility.yul\":949:962   */\n      dup1\n      iszero\n        /* \"#utility.yul\":942:963   */\n      iszero\n        /* \"#utility.yul\":932:964   */\n      dup2\n      eq\n        /* \"#utility.yul\":922:982   */\n      tag_619\n      jumpi\n        /* \"#utility.yul\":978:979   */\n      0x00\n        /* \"#utility.yul\":975:976   */\n      dup1\n        /* \"#utility.yul\":968:980   */\n      revert\n        /* \"#utility.yul\":993:1214   */\n    tag_623:\n        /* \"#utility.yul\":1036:1041   */\n      0x00\n        /* \"#utility.yul\":1089:1092   */\n      dup3\n        /* \"#utility.yul\":1082:1086   */\n      0x1f\n        /* \"#utility.yul\":1074:1080   */\n      dup4\n        /* \"#utility.yul\":1070:1087   */\n      add\n        /* \"#utility.yul\":1066:1093   */\n      slt\n        /* \"#utility.yul\":1056:1111   */\n      tag_625\n      jumpi\n        /* \"#utility.yul\":1107:1108   */\n      0x00\n        /* \"#utility.yul\":1104:1105   */\n      dup1\n        /* \"#utility.yul\":1097:1109   */\n      revert\n        /* \"#utility.yul\":1056:1111   */\n    tag_625:\n        /* \"#utility.yul\":1129:1208   */\n      tag_512\n        /* \"#utility.yul\":1204:1207   */\n      dup4\n        /* \"#utility.yul\":1195:1201   */\n      dup4\n        /* \"#utility.yul\":1182:1202   */\n      calldataload\n        /* \"#utility.yul\":1175:1179   */\n      0x20\n        /* \"#utility.yul\":1167:1173   */\n      dup6\n        /* \"#utility.yul\":1163:1180   */\n      add\n        /* \"#utility.yul\":1129:1208   */\n      tag_610\n      jump\t// in\n        /* \"#utility.yul\":1219:1405   */\n    tag_68:\n        /* \"#utility.yul\":1278:1284   */\n      0x00\n        /* \"#utility.yul\":1331:1333   */\n      0x20\n        /* \"#utility.yul\":1319:1328   */\n      dup3\n        /* \"#utility.yul\":1310:1317   */\n      dup5\n        /* \"#utility.yul\":1306:1329   */\n      sub\n        /* \"#utility.yul\":1302:1334   */\n      slt\n        /* \"#utility.yul\":1299:1351   */\n      iszero\n      tag_628\n      jumpi\n        /* \"#utility.yul\":1347:1348   */\n      0x00\n        /* \"#utility.yul\":1344:1345   */\n      dup1\n        /* \"#utility.yul\":1337:1349   */\n      revert\n        /* \"#utility.yul\":1299:1351   */\n    tag_628:\n        /* \"#utility.yul\":1370:1399   */\n      tag_512\n        /* \"#utility.yul\":1389:1398   */\n      dup3\n        /* \"#utility.yul\":1370:1399   */\n      tag_617\n      jump\t// in\n        /* \"#utility.yul\":1410:1670   */\n    tag_251:\n        /* \"#utility.yul\":1478:1484   */\n      0x00\n        /* \"#utility.yul\":1486:1492   */\n      dup1\n        /* \"#utility.yul\":1539:1541   */\n      0x40\n        /* \"#utility.yul\":1527:1536   */\n      dup4\n        /* \"#utility.yul\":1518:1525   */\n      dup6\n        /* \"#utility.yul\":1514:1537   */\n      sub\n        /* \"#utility.yul\":1510:1542   */\n      slt\n        /* \"#utility.yul\":1507:1559   */\n      iszero\n      tag_631\n      jumpi\n        /* \"#utility.yul\":1555:1556   */\n      0x00\n        /* \"#utility.yul\":1552:1553   */\n      dup1\n        /* \"#utility.yul\":1545:1557   */\n      revert\n        /* \"#utility.yul\":1507:1559   */\n    tag_631:\n        /* \"#utility.yul\":1578:1607   */\n      tag_632\n        /* \"#utility.yul\":1597:1606   */\n      dup4\n        /* \"#utility.yul\":1578:1607   */\n      tag_617\n      jump\t// in\n    tag_632:\n        /* \"#utility.yul\":1568:1607   */\n      swap2\n      pop\n        /* \"#utility.yul\":1626:1664   */\n      tag_633\n        /* \"#utility.yul\":1660:1662   */\n      0x20\n        /* \"#utility.yul\":1649:1658   */\n      dup5\n        /* \"#utility.yul\":1645:1663   */\n      add\n        /* \"#utility.yul\":1626:1664   */\n      tag_617\n      jump\t// in\n    tag_633:\n        /* \"#utility.yul\":1616:1664   */\n      swap1\n      pop\n        /* \"#utility.yul\":1410:1670   */\n      swap3\n      pop\n      swap3\n      swap1\n      pop\n      jump\t// out\n        /* \"#utility.yul\":1675:2003   */\n    tag_124:\n        /* \"#utility.yul\":1752:1758   */\n      0x00\n        /* \"#utility.yul\":1760:1766   */\n      dup1\n        /* \"#utility.yul\":1768:1774   */\n      0x00\n        /* \"#utility.yul\":1821:1823   */\n      0x60\n        /* \"#utility.yul\":1809:1818   */\n      dup5\n        /* \"#utility.yul\":1800:1807   */\n      dup7\n        /* \"#utility.yul\":1796:1819   */\n      sub\n        /* \"#utility.yul\":1792:1824   */\n      slt\n        /* \"#utility.yul\":1789:1841   */\n      iszero\n      tag_635\n      jumpi\n        /* \"#utility.yul\":1837:1838   */\n      0x00\n        /* \"#utility.yul\":1834:1835   */\n      dup1\n        /* \"#utility.yul\":1827:1839   */\n      revert\n        /* \"#utility.yul\":1789:1841   */\n    tag_635:\n        /* \"#utility.yul\":1860:1889   */\n      tag_636\n        /* \"#utility.yul\":1879:1888   */\n      dup5\n        /* \"#utility.yul\":1860:1889   */\n      tag_617\n      jump\t// in\n    tag_636:\n        /* \"#utility.yul\":1850:1889   */\n      swap3\n      pop\n        /* \"#utility.yul\":1908:1946   */\n      tag_637\n        /* \"#utility.yul\":1942:1944   */\n      0x20\n        /* \"#utility.yul\":1931:1940   */\n      dup6\n        /* \"#utility.yul\":1927:1945   */\n      add\n        /* \"#utility.yul\":1908:1946   */\n      tag_617\n      jump\t// in\n    tag_637:\n        /* \"#utility.yul\":1898:1946   */\n      swap2\n      pop\n        /* \"#utility.yul\":1993:1995   */\n      0x40\n        /* \"#utility.yul\":1982:1991   */\n      dup5\n        /* \"#utility.yul\":1978:1996   */\n      add\n        /* \"#utility.yul\":1965:1997   */\n      calldataload\n        /* \"#utility.yul\":1955:1997   */\n      swap1\n      pop\n        /* \"#utility.yul\":1675:2003   */\n      swap3\n      pop\n      swap3\n      pop\n      swap3\n      jump\t// out\n        /* \"#utility.yul\":2008:2674   */\n    tag_214:\n        /* \"#utility.yul\":2103:2109   */\n      0x00\n        /* \"#utility.yul\":2111:2117   */\n      dup1\n        /* \"#utility.yul\":2119:2125   */\n      0x00\n        /* \"#utility.yul\":2127:2133   */\n      dup1\n        /* \"#utility.yul\":2180:2183   */\n      0x80\n        /* \"#utility.yul\":2168:2177   */\n      dup6\n        /* \"#utility.yul\":2159:2166   */\n      dup8\n        /* \"#utility.yul\":2155:2178   */\n      sub\n        /* \"#utility.yul\":2151:2184   */\n      slt\n        /* \"#utility.yul\":2148:2201   */\n      iszero\n      tag_639\n      jumpi\n        /* \"#utility.yul\":2197:2198   */\n      0x00\n        /* \"#utility.yul\":2194:2195   */\n      dup1\n        /* \"#utility.yul\":2187:2199   */\n      revert\n        /* \"#utility.yul\":2148:2201   */\n    tag_639:\n        /* \"#utility.yul\":2220:2249   */\n      tag_640\n        /* \"#utility.yul\":2239:2248   */\n      dup6\n        /* \"#utility.yul\":2220:2249   */\n      tag_617\n      jump\t// in\n    tag_640:\n        /* \"#utility.yul\":2210:2249   */\n      swap4\n      pop\n        /* \"#utility.yul\":2268:2306   */\n      tag_641\n        /* \"#utility.yul\":2302:2304   */\n      0x20\n        /* \"#utility.yul\":2291:2300   */\n      dup7\n        /* \"#utility.yul\":2287:2305   */\n      add\n        /* \"#utility.yul\":2268:2306   */\n      tag_617\n      jump\t// in\n    tag_641:\n        /* \"#utility.yul\":2258:2306   */\n      swap3\n      pop\n        /* \"#utility.yul\":2353:2355   */\n      0x40\n        /* \"#utility.yul\":2342:2351   */\n      dup6\n        /* \"#utility.yul\":2338:2356   */\n      add\n        /* \"#utility.yul\":2325:2357   */\n      calldataload\n        /* \"#utility.yul\":2315:2357   */\n      swap2\n      pop\n        /* \"#utility.yul\":2408:2410   */\n      0x60\n        /* \"#utility.yul\":2397:2406   */\n      dup6\n        /* \"#utility.yul\":2393:2411   */\n      add\n        /* \"#utility.yul\":2380:2412   */\n      calldataload\n        /* \"#utility.yul\":2435:2453   */\n      0xffffffffffffffff\n        /* \"#utility.yul\":2427:2433   */\n      dup2\n        /* \"#utility.yul\":2424:2454   */\n      gt\n        /* \"#utility.yul\":2421:2471   */\n      iszero\n      tag_642\n      jumpi\n        /* \"#utility.yul\":2467:2468   */\n      0x00\n        /* \"#utility.yul\":2464:2465   */\n      dup1\n        /* \"#utility.yul\":2457:2469   */\n      revert\n        /* \"#utility.yul\":2421:2471   */\n    tag_642:\n        /* \"#utility.yul\":2490:2512   */\n      dup6\n      add\n        /* \"#utility.yul\":2543:2547   */\n      0x1f\n        /* \"#utility.yul\":2535:2548   */\n      dup2\n      add\n        /* \"#utility.yul\":2531:2558   */\n      dup8\n      sgt\n        /* \"#utility.yul\":2521:2576   */\n      tag_643\n      jumpi\n        /* \"#utility.yul\":2572:2573   */\n      0x00\n        /* \"#utility.yul\":2569:2570   */\n      dup1\n        /* \"#utility.yul\":2562:2574   */\n      revert\n        /* \"#utility.yul\":2521:2576   */\n    tag_643:\n        /* \"#utility.yul\":2595:2668   */\n      tag_644\n        /* \"#utility.yul\":2660:2667   */\n      dup8\n        /* \"#utility.yul\":2655:2657   */\n      dup3\n        /* \"#utility.yul\":2642:2658   */\n      calldataload\n        /* \"#utility.yul\":2637:2639   */\n      0x20\n        /* \"#utility.yul\":2633:2635   */\n      dup5\n        /* \"#utility.yul\":2629:2640   */\n      add\n        /* \"#utility.yul\":2595:2668   */\n      tag_610\n      jump\t// in\n    tag_644:\n        /* \"#utility.yul\":2585:2668   */\n      swap2\n      pop\n      pop\n        /* \"#utility.yul\":2008:2674   */\n      swap3\n      swap6\n      swap2\n      swap5\n      pop\n      swap3\n      pop\n      jump\t// out\n        /* \"#utility.yul\":2679:2933   */\n    tag_196:\n        /* \"#utility.yul\":2744:2750   */\n      0x00\n        /* \"#utility.yul\":2752:2758   */\n      dup1\n        /* \"#utility.yul\":2805:2807   */\n      0x40\n        /* \"#utility.yul\":2793:2802   */\n      dup4\n        /* \"#utility.yul\":2784:2791   */\n      dup6\n        /* \"#utility.yul\":2780:2803   */\n      sub\n        /* \"#utility.yul\":2776:2808   */\n      slt\n        /* \"#utility.yul\":2773:2825   */\n      iszero\n      tag_646\n      jumpi\n        /* \"#utility.yul\":2821:2822   */\n      0x00\n        /* \"#utility.yul\":2818:2819   */\n      dup1\n        /* \"#utility.yul\":2811:2823   */\n      revert\n        /* \"#utility.yul\":2773:2825   */\n    tag_646:\n        /* \"#utility.yul\":2844:2873   */\n      tag_647\n        /* \"#utility.yul\":2863:2872   */\n      dup4\n        /* \"#utility.yul\":2844:2873   */\n      tag_617\n      jump\t// in\n    tag_647:\n        /* \"#utility.yul\":2834:2873   */\n      swap2\n      pop\n        /* \"#utility.yul\":2892:2927   */\n      tag_633\n        /* \"#utility.yul\":2923:2925   */\n      0x20\n        /* \"#utility.yul\":2912:2921   */\n      dup5\n        /* \"#utility.yul\":2908:2926   */\n      add\n        /* \"#utility.yul\":2892:2927   */\n      tag_620\n      jump\t// in\n        /* \"#utility.yul\":2938:3192   */\n    tag_86:\n        /* \"#utility.yul\":3006:3012   */\n      0x00\n        /* \"#utility.yul\":3014:3020   */\n      dup1\n        /* \"#utility.yul\":3067:3069   */\n      0x40\n        /* \"#utility.yul\":3055:3064   */\n      dup4\n        /* \"#utility.yul\":3046:3053   */\n      dup6\n        /* \"#utility.yul\":3042:3065   */\n      sub\n        /* \"#utility.yul\":3038:3070   */\n      slt\n        /* \"#utility.yul\":3035:3087   */\n      iszero\n      tag_650\n      jumpi\n        /* \"#utility.yul\":3083:3084   */\n      0x00\n        /* \"#utility.yul\":3080:3081   */\n      dup1\n        /* \"#utility.yul\":3073:3085   */\n      revert\n        /* \"#utility.yul\":3035:3087   */\n    tag_650:\n        /* \"#utility.yul\":3106:3135   */\n      tag_651\n        /* \"#utility.yul\":3125:3134   */\n      dup4\n        /* \"#utility.yul\":3106:3135   */\n      tag_617\n      jump\t// in\n    tag_651:\n        /* \"#utility.yul\":3096:3135   */\n      swap5\n        /* \"#utility.yul\":3182:3184   */\n      0x20\n        /* \"#utility.yul\":3167:3185   */\n      swap4\n      swap1\n      swap4\n      add\n        /* \"#utility.yul\":3154:3186   */\n      calldataload\n      swap4\n      pop\n      pop\n      pop\n        /* \"#utility.yul\":2938:3192   */\n      jump\t// out\n        /* \"#utility.yul\":3197:3812   */\n    tag_101:\n        /* \"#utility.yul\":3283:3289   */\n      0x00\n        /* \"#utility.yul\":3291:3297   */\n      dup1\n        /* \"#utility.yul\":3344:3346   */\n      0x20\n        /* \"#utility.yul\":3332:3341   */\n      dup4\n        /* \"#utility.yul\":3323:3330   */\n      dup6\n        /* \"#utility.yul\":3319:3342   */\n      sub\n        /* \"#utility.yul\":3315:3347   */\n      slt\n        /* \"#utility.yul\":3312:3364   */\n      iszero\n      tag_653\n      jumpi\n        /* \"#utility.yul\":3360:3361   */\n      0x00\n        /* \"#utility.yul\":3357:3358   */\n      dup1\n        /* \"#utility.yul\":3350:3362   */\n      revert\n        /* \"#utility.yul\":3312:3364   */\n    tag_653:\n        /* \"#utility.yul\":3400:3409   */\n      dup3\n        /* \"#utility.yul\":3387:3410   */\n      calldataload\n        /* \"#utility.yul\":3429:3447   */\n      0xffffffffffffffff\n        /* \"#utility.yul\":3470:3472   */\n      dup1\n        /* \"#utility.yul\":3462:3468   */\n      dup3\n        /* \"#utility.yul\":3459:3473   */\n      gt\n        /* \"#utility.yul\":3456:3490   */\n      iszero\n      tag_654\n      jumpi\n        /* \"#utility.yul\":3486:3487   */\n      0x00\n        /* \"#utility.yul\":3483:3484   */\n      dup1\n        /* \"#utility.yul\":3476:3488   */\n      revert\n        /* \"#utility.yul\":3456:3490   */\n    tag_654:\n        /* \"#utility.yul\":3524:3530   */\n      dup2\n        /* \"#utility.yul\":3513:3522   */\n      dup6\n        /* \"#utility.yul\":3509:3531   */\n      add\n        /* \"#utility.yul\":3499:3531   */\n      swap2\n      pop\n        /* \"#utility.yul\":3569:3576   */\n      dup6\n        /* \"#utility.yul\":3562:3566   */\n      0x1f\n        /* \"#utility.yul\":3558:3560   */\n      dup4\n        /* \"#utility.yul\":3554:3567   */\n      add\n        /* \"#utility.yul\":3550:3577   */\n      slt\n        /* \"#utility.yul\":3540:3595   */\n      tag_655\n      jumpi\n        /* \"#utility.yul\":3591:3592   */\n      0x00\n        /* \"#utility.yul\":3588:3589   */\n      dup1\n        /* \"#utility.yul\":3581:3593   */\n      revert\n        /* \"#utility.yul\":3540:3595   */\n    tag_655:\n        /* \"#utility.yul\":3631:3633   */\n      dup2\n        /* \"#utility.yul\":3618:3634   */\n      calldataload\n        /* \"#utility.yul\":3657:3659   */\n      dup2\n        /* \"#utility.yul\":3649:3655   */\n      dup2\n        /* \"#utility.yul\":3646:3660   */\n      gt\n        /* \"#utility.yul\":3643:3677   */\n      iszero\n      tag_656\n      jumpi\n        /* \"#utility.yul\":3673:3674   */\n      0x00\n        /* \"#utility.yul\":3670:3671   */\n      dup1\n        /* \"#utility.yul\":3663:3675   */\n      revert\n        /* \"#utility.yul\":3643:3677   */\n    tag_656:\n        /* \"#utility.yul\":3726:3733   */\n      dup7\n        /* \"#utility.yul\":3721:3723   */\n      0x20\n        /* \"#utility.yul\":3711:3717   */\n      dup3\n        /* \"#utility.yul\":3708:3709   */\n      0x05\n        /* \"#utility.yul\":3704:3718   */\n      shl\n        /* \"#utility.yul\":3700:3702   */\n      dup6\n        /* \"#utility.yul\":3696:3719   */\n      add\n        /* \"#utility.yul\":3692:3724   */\n      add\n        /* \"#utility.yul\":3689:3734   */\n      gt\n        /* \"#utility.yul\":3686:3751   */\n      iszero\n      tag_657\n      jumpi\n        /* \"#utility.yul\":3747:3748   */\n      0x00\n        /* \"#utility.yul\":3744:3745   */\n      dup1\n        /* \"#utility.yul\":3737:3749   */\n      revert\n        /* \"#utility.yul\":3686:3751   */\n    tag_657:\n        /* \"#utility.yul\":3778:3780   */\n      0x20\n        /* \"#utility.yul\":3770:3781   */\n      swap3\n      swap1\n      swap3\n      add\n      swap7\n        /* \"#utility.yul\":3800:3806   */\n      swap2\n      swap6\n      pop\n        /* \"#utility.yul\":3197:3812   */\n      swap1\n      swap4\n      pop\n      pop\n      pop\n      pop\n      jump\t// out\n        /* \"#utility.yul\":3817:3997   */\n    tag_63:\n        /* \"#utility.yul\":3873:3879   */\n      0x00\n        /* \"#utility.yul\":3926:3928   */\n      0x20\n        /* \"#utility.yul\":3914:3923   */\n      dup3\n        /* \"#utility.yul\":3905:3912   */\n      dup5\n        /* \"#utility.yul\":3901:3924   */\n      sub\n        /* \"#utility.yul\":3897:3929   */\n      slt\n        /* \"#utility.yul\":3894:3946   */\n      iszero\n      tag_659\n      jumpi\n        /* \"#utility.yul\":3942:3943   */\n      0x00\n        /* \"#utility.yul\":3939:3940   */\n      dup1\n        /* \"#utility.yul\":3932:3944   */\n      revert\n        /* \"#utility.yul\":3894:3946   */\n    tag_659:\n        /* \"#utility.yul\":3965:3991   */\n      tag_512\n        /* \"#utility.yul\":3981:3990   */\n      dup3\n        /* \"#utility.yul\":3965:3991   */\n      tag_620\n      jump\t// in\n        /* \"#utility.yul\":4002:4250   */\n    tag_91:\n        /* \"#utility.yul\":4067:4073   */\n      0x00\n        /* \"#utility.yul\":4075:4081   */\n      dup1\n        /* \"#utility.yul\":4128:4130   */\n      0x40\n        /* \"#utility.yul\":4116:4125   */\n      dup4\n        /* \"#utility.yul\":4107:4114   */\n      dup6\n        /* \"#utility.yul\":4103:4126   */\n      sub\n        /* \"#utility.yul\":4099:4131   */\n      slt\n        /* \"#utility.yul\":4096:4148   */\n      iszero\n      tag_662\n      jumpi\n        /* \"#utility.yul\":4144:4145   */\n      0x00\n        /* \"#utility.yul\":4141:4142   */\n      dup1\n        /* \"#utility.yul\":4134:4146   */\n      revert\n        /* \"#utility.yul\":4096:4148   */\n    tag_662:\n        /* \"#utility.yul\":4167:4193   */\n      tag_651\n        /* \"#utility.yul\":4183:4192   */\n      dup4\n        /* \"#utility.yul\":4167:4193   */\n      tag_620\n      jump\t// in\n        /* \"#utility.yul\":4255:4500   */\n    tag_56:\n        /* \"#utility.yul\":4313:4319   */\n      0x00\n        /* \"#utility.yul\":4366:4368   */\n      0x20\n        /* \"#utility.yul\":4354:4363   */\n      dup3\n        /* \"#utility.yul\":4345:4352   */\n      dup5\n        /* \"#utility.yul\":4341:4364   */\n      sub\n        /* \"#utility.yul\":4337:4369   */\n      slt\n        /* \"#utility.yul\":4334:4386   */\n      iszero\n      tag_665\n      jumpi\n        /* \"#utility.yul\":4382:4383   */\n      0x00\n        /* \"#utility.yul\":4379:4380   */\n      dup1\n        /* \"#utility.yul\":4372:4384   */\n      revert\n        /* \"#utility.yul\":4334:4386   */\n    tag_665:\n        /* \"#utility.yul\":4421:4430   */\n      dup2\n        /* \"#utility.yul\":4408:4431   */\n      calldataload\n        /* \"#utility.yul\":4440:4470   */\n      tag_512\n        /* \"#utility.yul\":4464:4469   */\n      dup2\n        /* \"#utility.yul\":4440:4470   */\n      tag_667\n      jump\t// in\n        /* \"#utility.yul\":4505:4754   */\n    tag_532:\n        /* \"#utility.yul\":4574:4580   */\n      0x00\n        /* \"#utility.yul\":4627:4629   */\n      0x20\n        /* \"#utility.yul\":4615:4624   */\n      dup3\n        /* \"#utility.yul\":4606:4613   */\n      dup5\n        /* \"#utility.yul\":4602:4625   */\n      sub\n        /* \"#utility.yul\":4598:4630   */\n      slt\n        /* \"#utility.yul\":4595:4647   */\n      iszero\n      tag_669\n      jumpi\n        /* \"#utility.yul\":4643:4644   */\n      0x00\n        /* \"#utility.yul\":4640:4641   */\n      dup1\n        /* \"#utility.yul\":4633:4645   */\n      revert\n        /* \"#utility.yul\":4595:4647   */\n    tag_669:\n        /* \"#utility.yul\":4675:4684   */\n      dup2\n        /* \"#utility.yul\":4669:4685   */\n      mload\n        /* \"#utility.yul\":4694:4724   */\n      tag_512\n        /* \"#utility.yul\":4718:4723   */\n      dup2\n        /* \"#utility.yul\":4694:4724   */\n      tag_667\n      jump\t// in\n        /* \"#utility.yul\":4759:5081   */\n    tag_139:\n        /* \"#utility.yul\":4828:4834   */\n      0x00\n        /* \"#utility.yul\":4881:4883   */\n      0x20\n        /* \"#utility.yul\":4869:4878   */\n      dup3\n        /* \"#utility.yul\":4860:4867   */\n      dup5\n        /* \"#utility.yul\":4856:4879   */\n      sub\n        /* \"#utility.yul\":4852:4884   */\n      slt\n        /* \"#utility.yul\":4849:4901   */\n      iszero\n      tag_672\n      jumpi\n        /* \"#utility.yul\":4897:4898   */\n      0x00\n        /* \"#utility.yul\":4894:4895   */\n      dup1\n        /* \"#utility.yul\":4887:4899   */\n      revert\n        /* \"#utility.yul\":4849:4901   */\n    tag_672:\n        /* \"#utility.yul\":4937:4946   */\n      dup2\n        /* \"#utility.yul\":4924:4947   */\n      calldataload\n        /* \"#utility.yul\":4970:4988   */\n      0xffffffffffffffff\n        /* \"#utility.yul\":4962:4968   */\n      dup2\n        /* \"#utility.yul\":4959:4989   */\n      gt\n        /* \"#utility.yul\":4956:5006   */\n      iszero\n      tag_673\n      jumpi\n        /* \"#utility.yul\":5002:5003   */\n      0x00\n        /* \"#utility.yul\":4999:5000   */\n      dup1\n        /* \"#utility.yul\":4992:5004   */\n      revert\n        /* \"#utility.yul\":4956:5006   */\n    tag_673:\n        /* \"#utility.yul\":5025:5075   */\n      tag_453\n        /* \"#utility.yul\":5067:5074   */\n      dup5\n        /* \"#utility.yul\":5058:5064   */\n      dup3\n        /* \"#utility.yul\":5047:5056   */\n      dup6\n        /* \"#utility.yul\":5043:5065   */\n      add\n        /* \"#utility.yul\":5025:5075   */\n      tag_623\n      jump\t// in\n        /* \"#utility.yul\":5086:5476   */\n    tag_152:\n        /* \"#utility.yul\":5164:5170   */\n      0x00\n        /* \"#utility.yul\":5172:5178   */\n      dup1\n        /* \"#utility.yul\":5225:5227   */\n      0x40\n        /* \"#utility.yul\":5213:5222   */\n      dup4\n        /* \"#utility.yul\":5204:5211   */\n      dup6\n        /* \"#utility.yul\":5200:5223   */\n      sub\n        /* \"#utility.yul\":5196:5228   */\n      slt\n        /* \"#utility.yul\":5193:5245   */\n      iszero\n      tag_676\n      jumpi\n        /* \"#utility.yul\":5241:5242   */\n      0x00\n        /* \"#utility.yul\":5238:5239   */\n      dup1\n        /* \"#utility.yul\":5231:5243   */\n      revert\n        /* \"#utility.yul\":5193:5245   */\n    tag_676:\n        /* \"#utility.yul\":5281:5290   */\n      dup3\n        /* \"#utility.yul\":5268:5291   */\n      calldataload\n        /* \"#utility.yul\":5314:5332   */\n      0xffffffffffffffff\n        /* \"#utility.yul\":5306:5312   */\n      dup2\n        /* \"#utility.yul\":5303:5333   */\n      gt\n        /* \"#utility.yul\":5300:5350   */\n      iszero\n      tag_677\n      jumpi\n        /* \"#utility.yul\":5346:5347   */\n      0x00\n        /* \"#utility.yul\":5343:5344   */\n      dup1\n        /* \"#utility.yul\":5336:5348   */\n      revert\n        /* \"#utility.yul\":5300:5350   */\n    tag_677:\n        /* \"#utility.yul\":5369:5419   */\n      tag_678\n        /* \"#utility.yul\":5411:5418   */\n      dup6\n        /* \"#utility.yul\":5402:5408   */\n      dup3\n        /* \"#utility.yul\":5391:5400   */\n      dup7\n        /* \"#utility.yul\":5387:5409   */\n      add\n        /* \"#utility.yul\":5369:5419   */\n      tag_623\n      jump\t// in\n    tag_678:\n        /* \"#utility.yul\":5359:5419   */\n      swap6\n        /* \"#utility.yul\":5466:5468   */\n      0x20\n        /* \"#utility.yul\":5451:5469   */\n      swap5\n      swap1\n      swap5\n      add\n        /* \"#utility.yul\":5438:5470   */\n      calldataload\n      swap5\n      pop\n      pop\n      pop\n      pop\n        /* \"#utility.yul\":5086:5476   */\n      jump\t// out\n        /* \"#utility.yul\":5481:5661   */\n    tag_79:\n        /* \"#utility.yul\":5540:5546   */\n      0x00\n        /* \"#utility.yul\":5593:5595   */\n      0x20\n        /* \"#utility.yul\":5581:5590   */\n      dup3\n        /* \"#utility.yul\":5572:5579   */\n      dup5\n        /* \"#utility.yul\":5568:5591   */\n      sub\n        /* \"#utility.yul\":5564:5596   */\n      slt\n        /* \"#utility.yul\":5561:5613   */\n      iszero\n      tag_680\n      jumpi\n        /* \"#utility.yul\":5609:5610   */\n      0x00\n        /* \"#utility.yul\":5606:5607   */\n      dup1\n        /* \"#utility.yul\":5599:5611   */\n      revert\n        /* \"#utility.yul\":5561:5613   */\n    tag_680:\n      pop\n        /* \"#utility.yul\":5632:5655   */\n      calldataload\n      swap2\n        /* \"#utility.yul\":5481:5661   */\n      swap1\n      pop\n      jump\t// out\n        /* \"#utility.yul\":5666:5914   */\n    tag_174:\n        /* \"#utility.yul\":5734:5740   */\n      0x00\n        /* \"#utility.yul\":5742:5748   */\n      dup1\n        /* \"#utility.yul\":5795:5797   */\n      0x40\n        /* \"#utility.yul\":5783:5792   */\n      dup4\n        /* \"#utility.yul\":5774:5781   */\n      dup6\n        /* \"#utility.yul\":5770:5793   */\n      sub\n        /* \"#utility.yul\":5766:5798   */\n      slt\n        /* \"#utility.yul\":5763:5815   */\n      iszero\n      tag_682\n      jumpi\n        /* \"#utility.yul\":5811:5812   */\n      0x00\n        /* \"#utility.yul\":5808:5809   */\n      dup1\n        /* \"#utility.yul\":5801:5813   */\n      revert\n        /* \"#utility.yul\":5763:5815   */\n    tag_682:\n      pop\n      pop\n        /* \"#utility.yul\":5834:5857   */\n      dup1\n      calldataload\n      swap3\n        /* \"#utility.yul\":5904:5906   */\n      0x20\n        /* \"#utility.yul\":5889:5907   */\n      swap1\n      swap2\n      add\n        /* \"#utility.yul\":5876:5908   */\n      calldataload\n      swap2\n      pop\n        /* \"#utility.yul\":5666:5914   */\n      jump\t// out\n        /* \"#utility.yul\":5919:6176   */\n    tag_683:\n        /* \"#utility.yul\":5960:5963   */\n      0x00\n        /* \"#utility.yul\":5998:6003   */\n      dup2\n        /* \"#utility.yul\":5992:6004   */\n      mload\n        /* \"#utility.yul\":6025:6031   */\n      dup1\n        /* \"#utility.yul\":6020:6023   */\n      dup5\n        /* \"#utility.yul\":6013:6032   */\n      mstore\n        /* \"#utility.yul\":6041:6104   */\n      tag_685\n        /* \"#utility.yul\":6097:6103   */\n      dup2\n        /* \"#utility.yul\":6090:6094   */\n      0x20\n        /* \"#utility.yul\":6085:6088   */\n      dup7\n        /* \"#utility.yul\":6081:6095   */\n      add\n        /* \"#utility.yul\":6074:6078   */\n      0x20\n        /* \"#utility.yul\":6067:6072   */\n      dup7\n        /* \"#utility.yul\":6063:6079   */\n      add\n        /* \"#utility.yul\":6041:6104   */\n      tag_686\n      jump\t// in\n    tag_685:\n        /* \"#utility.yul\":6158:6160   */\n      0x1f\n        /* \"#utility.yul\":6137:6152   */\n      add\n      not(0x1f)\n        /* \"#utility.yul\":6133:6162   */\n      and\n        /* \"#utility.yul\":6124:6163   */\n      swap3\n      swap1\n      swap3\n      add\n        /* \"#utility.yul\":6165:6169   */\n      0x20\n        /* \"#utility.yul\":6120:6170   */\n      add\n      swap3\n        /* \"#utility.yul\":5919:6176   */\n      swap2\n      pop\n      pop\n      jump\t// out\n        /* \"#utility.yul\":6181:7708   */\n    tag_457:\n        /* \"#utility.yul\":6405:6408   */\n      0x00\n        /* \"#utility.yul\":6443:6449   */\n      dup5\n        /* \"#utility.yul\":6437:6450   */\n      mload\n        /* \"#utility.yul\":6469:6473   */\n      0x20\n        /* \"#utility.yul\":6482:6533   */\n      tag_688\n        /* \"#utility.yul\":6526:6532   */\n      dup3\n        /* \"#utility.yul\":6521:6524   */\n      dup6\n        /* \"#utility.yul\":6516:6518   */\n      dup4\n        /* \"#utility.yul\":6508:6514   */\n      dup11\n        /* \"#utility.yul\":6504:6519   */\n      add\n        /* \"#utility.yul\":6482:6533   */\n      tag_686\n      jump\t// in\n    tag_688:\n        /* \"#utility.yul\":6596:6609   */\n      dup6\n      mload\n        /* \"#utility.yul\":6555:6571   */\n      swap2\n      dup5\n      add\n      swap2\n        /* \"#utility.yul\":6618:6673   */\n      tag_689\n        /* \"#utility.yul\":6596:6609   */\n      dup2\n        /* \"#utility.yul\":6555:6571   */\n      dup5\n        /* \"#utility.yul\":6640:6655   */\n      dup5\n      dup11\n      add\n        /* \"#utility.yul\":6618:6673   */\n      tag_686\n      jump\t// in\n    tag_689:\n        /* \"#utility.yul\":6762:6775   */\n      dup6\n      sload\n        /* \"#utility.yul\":6695:6715   */\n      swap3\n      add\n      swap2\n        /* \"#utility.yul\":6735:6736   */\n      0x00\n      swap1\n        /* \"#utility.yul\":6822:6823   */\n      0x01\n        /* \"#utility.yul\":6844:6862   */\n      dup2\n      dup2\n      shr\n      swap1\n        /* \"#utility.yul\":6897:6915   */\n      dup1\n      dup4\n      and\n      dup1\n        /* \"#utility.yul\":6924:7017   */\n      tag_690\n      jumpi\n        /* \"#utility.yul\":7002:7006   */\n      0x7f\n        /* \"#utility.yul\":6992:7000   */\n      dup4\n        /* \"#utility.yul\":6988:7007   */\n      and\n        /* \"#utility.yul\":6976:7007   */\n      swap3\n      pop\n        /* \"#utility.yul\":6924:7017   */\n    tag_690:\n        /* \"#utility.yul\":7065:7067   */\n      dup6\n        /* \"#utility.yul\":7055:7063   */\n      dup4\n        /* \"#utility.yul\":7052:7068   */\n      lt\n        /* \"#utility.yul\":7032:7050   */\n      dup2\n        /* \"#utility.yul\":7029:7069   */\n      eq\n        /* \"#utility.yul\":7026:7193   */\n      iszero\n      tag_691\n      jumpi\n      shl(0xe0, 0x4e487b71)\n        /* \"#utility.yul\":7092:7125   */\n      dup6\n      mstore\n        /* \"#utility.yul\":7148:7152   */\n      0x22\n        /* \"#utility.yul\":7145:7146   */\n      0x04\n        /* \"#utility.yul\":7138:7153   */\n      mstore\n        /* \"#utility.yul\":7178:7182   */\n      0x24\n        /* \"#utility.yul\":7099:7102   */\n      dup6\n        /* \"#utility.yul\":7166:7183   */\n      revert\n        /* \"#utility.yul\":7026:7193   */\n    tag_691:\n        /* \"#utility.yul\":7209:7227   */\n      dup1\n        /* \"#utility.yul\":7236:7346   */\n      dup1\n      iszero\n      tag_693\n      jumpi\n        /* \"#utility.yul\":7360:7361   */\n      0x01\n        /* \"#utility.yul\":7355:7683   */\n      dup2\n      eq\n      tag_694\n      jumpi\n        /* \"#utility.yul\":7202:7683   */\n      jump(tag_692)\n        /* \"#utility.yul\":7236:7346   */\n    tag_693:\n      not(0xff)\n        /* \"#utility.yul\":7271:7295   */\n      dup6\n      and\n        /* \"#utility.yul\":7257:7296   */\n      dup9\n      mstore\n        /* \"#utility.yul\":7316:7336   */\n      dup4\n      dup9\n      add\n      swap6\n      pop\n        /* \"#utility.yul\":7236:7346   */\n      jump(tag_692)\n        /* \"#utility.yul\":7355:7683   */\n    tag_694:\n        /* \"#utility.yul\":15120:15121   */\n      0x00\n        /* \"#utility.yul\":15113:15127   */\n      dup12\n      dup2\n      mstore\n        /* \"#utility.yul\":15157:15161   */\n      0x20\n        /* \"#utility.yul\":15144:15162   */\n      swap1\n      keccak256\n        /* \"#utility.yul\":7450:7451   */\n      0x00\n        /* \"#utility.yul\":7464:7633   */\n    tag_697:\n        /* \"#utility.yul\":7478:7486   */\n      dup6\n        /* \"#utility.yul\":7475:7476   */\n      dup2\n        /* \"#utility.yul\":7472:7487   */\n      lt\n        /* \"#utility.yul\":7464:7633   */\n      iszero\n      tag_699\n      jumpi\n        /* \"#utility.yul\":7560:7574   */\n      dup2\n      sload\n        /* \"#utility.yul\":7545:7558   */\n      dup11\n      dup3\n      add\n        /* \"#utility.yul\":7538:7575   */\n      mstore\n        /* \"#utility.yul\":7603:7619   */\n      swap1\n      dup5\n      add\n      swap1\n        /* \"#utility.yul\":7495:7505   */\n      dup9\n      add\n        /* \"#utility.yul\":7464:7633   */\n      jump(tag_697)\n    tag_699:\n        /* \"#utility.yul\":7468:7471   */\n      pop\n      pop\n        /* \"#utility.yul\":7664:7672   */\n      dup4\n        /* \"#utility.yul\":7657:7662   */\n      dup9\n        /* \"#utility.yul\":7653:7673   */\n      add\n        /* \"#utility.yul\":7646:7673   */\n      swap6\n      pop\n        /* \"#utility.yul\":7202:7683   */\n    tag_692:\n      pop\n        /* \"#utility.yul\":7699:7702   */\n      swap4\n      swap12\n        /* \"#utility.yul\":6181:7708   */\n      swap11\n      pop\n      pop\n      pop\n      pop\n      pop\n      pop\n      pop\n      pop\n      pop\n      pop\n      pop\n      jump\t// out\n        /* \"#utility.yul\":7921:8409   */\n    tag_528:\n      sub(shl(0xa0, 0x01), 0x01)\n        /* \"#utility.yul\":8190:8205   */\n      dup6\n      dup2\n      and\n        /* \"#utility.yul\":8172:8206   */\n      dup3\n      mstore\n        /* \"#utility.yul\":8242:8257   */\n      dup5\n      and\n        /* \"#utility.yul\":8237:8239   */\n      0x20\n        /* \"#utility.yul\":8222:8240   */\n      dup3\n      add\n        /* \"#utility.yul\":8215:8258   */\n      mstore\n        /* \"#utility.yul\":8289:8291   */\n      0x40\n        /* \"#utility.yul\":8274:8292   */\n      dup2\n      add\n        /* \"#utility.yul\":8267:8301   */\n      dup4\n      swap1\n      mstore\n        /* \"#utility.yul\":8337:8340   */\n      0x80\n        /* \"#utility.yul\":8332:8334   */\n      0x60\n        /* \"#utility.yul\":8317:8335   */\n      dup3\n      add\n        /* \"#utility.yul\":8310:8341   */\n      dup2\n      swap1\n      mstore\n        /* \"#utility.yul\":8115:8119   */\n      0x00\n      swap1\n        /* \"#utility.yul\":8358:8403   */\n      tag_702\n      swap1\n        /* \"#utility.yul\":8383:8402   */\n      dup4\n      add\n        /* \"#utility.yul\":8375:8381   */\n      dup5\n        /* \"#utility.yul\":8358:8403   */\n      tag_683\n      jump\t// in\n    tag_702:\n        /* \"#utility.yul\":8350:8403   */\n      swap7\n        /* \"#utility.yul\":7921:8409   */\n      swap6\n      pop\n      pop\n      pop\n      pop\n      pop\n      pop\n      jump\t// out\n        /* \"#utility.yul\":8414:9046   */\n    tag_239:\n        /* \"#utility.yul\":8585:8587   */\n      0x20\n        /* \"#utility.yul\":8637:8658   */\n      dup1\n      dup3\n      mstore\n        /* \"#utility.yul\":8707:8720   */\n      dup3\n      mload\n        /* \"#utility.yul\":8610:8628   */\n      dup3\n      dup3\n      add\n        /* \"#utility.yul\":8729:8751   */\n      dup2\n      swap1\n      mstore\n        /* \"#utility.yul\":8556:8560   */\n      0x00\n      swap2\n        /* \"#utility.yul\":8585:8587   */\n      swap1\n        /* \"#utility.yul\":8808:8823   */\n      dup5\n      dup3\n      add\n      swap1\n        /* \"#utility.yul\":8782:8784   */\n      0x40\n        /* \"#utility.yul\":8767:8785   */\n      dup6\n      add\n      swap1\n        /* \"#utility.yul\":8556:8560   */\n      dup5\n        /* \"#utility.yul\":8851:9020   */\n    tag_704:\n        /* \"#utility.yul\":8865:8871   */\n      dup2\n        /* \"#utility.yul\":8862:8863   */\n      dup2\n        /* \"#utility.yul\":8859:8872   */\n      lt\n        /* \"#utility.yul\":8851:9020   */\n      iszero\n      tag_706\n      jumpi\n        /* \"#utility.yul\":8926:8939   */\n      dup4\n      mload\n        /* \"#utility.yul\":8914:8940   */\n      dup4\n      mstore\n        /* \"#utility.yul\":8995:9010   */\n      swap3\n      dup5\n      add\n      swap3\n        /* \"#utility.yul\":8960:8972   */\n      swap2\n      dup5\n      add\n      swap2\n        /* \"#utility.yul\":8887:8888   */\n      0x01\n        /* \"#utility.yul\":8880:8889   */\n      add\n        /* \"#utility.yul\":8851:9020   */\n      jump(tag_704)\n    tag_706:\n      pop\n        /* \"#utility.yul\":9037:9040   */\n      swap1\n      swap7\n        /* \"#utility.yul\":8414:9046   */\n      swap6\n      pop\n      pop\n      pop\n      pop\n      pop\n      pop\n      jump\t// out\n        /* \"#utility.yul\":9243:9462   */\n    tag_75:\n        /* \"#utility.yul\":9392:9394   */\n      0x20\n        /* \"#utility.yul\":9381:9390   */\n      dup2\n        /* \"#utility.yul\":9374:9395   */\n      mstore\n        /* \"#utility.yul\":9355:9359   */\n      0x00\n        /* \"#utility.yul\":9412:9456   */\n      tag_512\n        /* \"#utility.yul\":9452:9454   */\n      0x20\n        /* \"#utility.yul\":9441:9450   */\n      dup4\n        /* \"#utility.yul\":9437:9455   */\n      add\n        /* \"#utility.yul\":9429:9435   */\n      dup5\n        /* \"#utility.yul\":9412:9456   */\n      tag_683\n      jump\t// in\n        /* \"#utility.yul\":15173:15301   */\n    tag_385:\n        /* \"#utility.yul\":15213:15216   */\n      0x00\n        /* \"#utility.yul\":15244:15245   */\n      dup3\n        /* \"#utility.yul\":15240:15246   */\n      not\n        /* \"#utility.yul\":15237:15238   */\n      dup3\n        /* \"#utility.yul\":15234:15247   */\n      gt\n        /* \"#utility.yul\":15231:15270   */\n      iszero\n      tag_728\n      jumpi\n        /* \"#utility.yul\":15250:15268   */\n      tag_728\n      tag_729\n      jump\t// in\n    tag_728:\n      pop\n        /* \"#utility.yul\":15286:15295   */\n      add\n      swap1\n        /* \"#utility.yul\":15173:15301   */\n      jump\t// out\n        /* \"#utility.yul\":15306:15426   */\n    tag_554:\n        /* \"#utility.yul\":15346:15347   */\n      0x00\n        /* \"#utility.yul\":15372:15373   */\n      dup3\n        /* \"#utility.yul\":15362:15397   */\n      tag_732\n      jumpi\n        /* \"#utility.yul\":15377:15395   */\n      tag_732\n      tag_733\n      jump\t// in\n    tag_732:\n      pop\n        /* \"#utility.yul\":15411:15420   */\n      div\n      swap1\n        /* \"#utility.yul\":15306:15426   */\n      jump\t// out\n        /* \"#utility.yul\":15431:15599   */\n    tag_408:\n        /* \"#utility.yul\":15471:15478   */\n      0x00\n        /* \"#utility.yul\":15537:15538   */\n      dup2\n        /* \"#utility.yul\":15533:15534   */\n      0x00\n        /* \"#utility.yul\":15529:15535   */\n      not\n        /* \"#utility.yul\":15525:15539   */\n      div\n        /* \"#utility.yul\":15522:15523   */\n      dup4\n        /* \"#utility.yul\":15519:15540   */\n      gt\n        /* \"#utility.yul\":15514:15515   */\n      dup3\n        /* \"#utility.yul\":15507:15516   */\n      iszero\n        /* \"#utility.yul\":15500:15517   */\n      iszero\n        /* \"#utility.yul\":15496:15541   */\n      and\n        /* \"#utility.yul\":15493:15564   */\n      iszero\n      tag_736\n      jumpi\n        /* \"#utility.yul\":15544:15562   */\n      tag_736\n      tag_729\n      jump\t// in\n    tag_736:\n      pop\n        /* \"#utility.yul\":15584:15593   */\n      mul\n      swap1\n        /* \"#utility.yul\":15431:15599   */\n      jump\t// out\n        /* \"#utility.yul\":15604:15729   */\n    tag_561:\n        /* \"#utility.yul\":15644:15648   */\n      0x00\n        /* \"#utility.yul\":15672:15673   */\n      dup3\n        /* \"#utility.yul\":15669:15670   */\n      dup3\n        /* \"#utility.yul\":15666:15674   */\n      lt\n        /* \"#utility.yul\":15663:15697   */\n      iszero\n      tag_739\n      jumpi\n        /* \"#utility.yul\":15677:15695   */\n      tag_739\n      tag_729\n      jump\t// in\n    tag_739:\n      pop\n        /* \"#utility.yul\":15714:15723   */\n      sub\n      swap1\n        /* \"#utility.yul\":15604:15729   */\n      jump\t// out\n        /* \"#utility.yul\":15734:15992   */\n    tag_686:\n        /* \"#utility.yul\":15806:15807   */\n      0x00\n        /* \"#utility.yul\":15816:15929   */\n    tag_741:\n        /* \"#utility.yul\":15830:15836   */\n      dup4\n        /* \"#utility.yul\":15827:15828   */\n      dup2\n        /* \"#utility.yul\":15824:15837   */\n      lt\n        /* \"#utility.yul\":15816:15929   */\n      iszero\n      tag_743\n      jumpi\n        /* \"#utility.yul\":15906:15917   */\n      dup2\n      dup2\n      add\n        /* \"#utility.yul\":15900:15918   */\n      mload\n        /* \"#utility.yul\":15887:15898   */\n      dup4\n      dup3\n      add\n        /* \"#utility.yul\":15880:15919   */\n      mstore\n        /* \"#utility.yul\":15852:15854   */\n      0x20\n        /* \"#utility.yul\":15845:15855   */\n      add\n        /* \"#utility.yul\":15816:15929   */\n      jump(tag_741)\n    tag_743:\n        /* \"#utility.yul\":15947:15953   */\n      dup4\n        /* \"#utility.yul\":15944:15945   */\n      dup2\n        /* \"#utility.yul\":15941:15954   */\n      gt\n        /* \"#utility.yul\":15938:15986   */\n      iszero\n      tag_435\n      jumpi\n      pop\n      pop\n        /* \"#utility.yul\":15982:15983   */\n      0x00\n        /* \"#utility.yul\":15964:15980   */\n      swap2\n      add\n        /* \"#utility.yul\":15957:15984   */\n      mstore\n        /* \"#utility.yul\":15734:15992   */\n      jump\t// out\n        /* \"#utility.yul\":15997:16377   */\n    tag_268:\n        /* \"#utility.yul\":16076:16077   */\n      0x01\n        /* \"#utility.yul\":16072:16084   */\n      dup2\n      dup2\n      shr\n      swap1\n        /* \"#utility.yul\":16119:16131   */\n      dup3\n      and\n      dup1\n        /* \"#utility.yul\":16140:16201   */\n      tag_746\n      jumpi\n        /* \"#utility.yul\":16194:16198   */\n      0x7f\n        /* \"#utility.yul\":16186:16192   */\n      dup3\n        /* \"#utility.yul\":16182:16199   */\n      and\n        /* \"#utility.yul\":16172:16199   */\n      swap2\n      pop\n        /* \"#utility.yul\":16140:16201   */\n    tag_746:\n        /* \"#utility.yul\":16247:16249   */\n      0x20\n        /* \"#utility.yul\":16239:16245   */\n      dup3\n        /* \"#utility.yul\":16236:16250   */\n      lt\n        /* \"#utility.yul\":16216:16234   */\n      dup2\n        /* \"#utility.yul\":16213:16251   */\n      eq\n        /* \"#utility.yul\":16210:16371   */\n      iszero\n      tag_458\n      jumpi\n        /* \"#utility.yul\":16293:16303   */\n      0x4e487b71\n        /* \"#utility.yul\":16288:16291   */\n      0xe0\n        /* \"#utility.yul\":16284:16304   */\n      shl\n        /* \"#utility.yul\":16281:16282   */\n      0x00\n        /* \"#utility.yul\":16274:16305   */\n      mstore\n        /* \"#utility.yul\":16328:16332   */\n      0x22\n        /* \"#utility.yul\":16325:16326   */\n      0x04\n        /* \"#utility.yul\":16318:16333   */\n      mstore\n        /* \"#utility.yul\":16356:16360   */\n      0x24\n        /* \"#utility.yul\":16353:16354   */\n      0x00\n        /* \"#utility.yul\":16346:16361   */\n      revert\n        /* \"#utility.yul\":16382:16517   */\n    tag_299:\n        /* \"#utility.yul\":16421:16424   */\n      0x00\n      not(0x00)\n        /* \"#utility.yul\":16442:16459   */\n      dup3\n      eq\n        /* \"#utility.yul\":16439:16482   */\n      iszero\n      tag_750\n      jumpi\n        /* \"#utility.yul\":16462:16480   */\n      tag_750\n      tag_729\n      jump\t// in\n    tag_750:\n      pop\n        /* \"#utility.yul\":16509:16510   */\n      0x01\n        /* \"#utility.yul\":16498:16511   */\n      add\n      swap1\n        /* \"#utility.yul\":16382:16517   */\n      jump\t// out\n        /* \"#utility.yul\":16522:16634   */\n    tag_563:\n        /* \"#utility.yul\":16554:16555   */\n      0x00\n        /* \"#utility.yul\":16580:16581   */\n      dup3\n        /* \"#utility.yul\":16570:16605   */\n      tag_753\n      jumpi\n        /* \"#utility.yul\":16585:16603   */\n      tag_753\n      tag_733\n      jump\t// in\n    tag_753:\n      pop\n        /* \"#utility.yul\":16619:16628   */\n      mod\n      swap1\n        /* \"#utility.yul\":16522:16634   */\n      jump\t// out\n        /* \"#utility.yul\":16639:16766   */\n    tag_729:\n        /* \"#utility.yul\":16700:16710   */\n      0x4e487b71\n        /* \"#utility.yul\":16695:16698   */\n      0xe0\n        /* \"#utility.yul\":16691:16711   */\n      shl\n        /* \"#utility.yul\":16688:16689   */\n      0x00\n        /* \"#utility.yul\":16681:16712   */\n      mstore\n        /* \"#utility.yul\":16731:16735   */\n      0x11\n        /* \"#utility.yul\":16728:16729   */\n      0x04\n        /* \"#utility.yul\":16721:16736   */\n      mstore\n        /* \"#utility.yul\":16755:16759   */\n      0x24\n        /* \"#utility.yul\":16752:16753   */\n      0x00\n        /* \"#utility.yul\":16745:16760   */\n      revert\n        /* \"#utility.yul\":16771:16898   */\n    tag_733:\n        /* \"#utility.yul\":16832:16842   */\n      0x4e487b71\n        /* \"#utility.yul\":16827:16830   */\n      0xe0\n        /* \"#utility.yul\":16823:16843   */\n      shl\n        /* \"#utility.yul\":16820:16821   */\n      0x00\n        /* \"#utility.yul\":16813:16844   */\n      mstore\n        /* \"#utility.yul\":16863:16867   */\n      0x12\n        /* \"#utility.yul\":16860:16861   */\n      0x04\n        /* \"#utility.yul\":16853:16868   */\n      mstore\n        /* \"#utility.yul\":16887:16891   */\n      0x24\n        /* \"#utility.yul\":16884:16885   */\n      0x00\n        /* \"#utility.yul\":16877:16892   */\n      revert\n        /* \"#utility.yul\":16903:17030   */\n    tag_296:\n        /* \"#utility.yul\":16964:16974   */\n      0x4e487b71\n        /* \"#utility.yul\":16959:16962   */\n      0xe0\n        /* \"#utility.yul\":16955:16975   */\n      shl\n        /* \"#utility.yul\":16952:16953   */\n      0x00\n        /* \"#utility.yul\":16945:16976   */\n      mstore\n        /* \"#utility.yul\":16995:16999   */\n      0x32\n        /* \"#utility.yul\":16992:16993   */\n      0x04\n        /* \"#utility.yul\":16985:17000   */\n      mstore\n        /* \"#utility.yul\":17019:17023   */\n      0x24\n        /* \"#utility.yul\":17016:17017   */\n      0x00\n        /* \"#utility.yul\":17009:17024   */\n      revert\n        /* \"#utility.yul\":17035:17162   */\n    tag_470:\n        /* \"#utility.yul\":17096:17106   */\n      0x4e487b71\n        /* \"#utility.yul\":17091:17094   */\n      0xe0\n        /* \"#utility.yul\":17087:17107   */\n      shl\n        /* \"#utility.yul\":17084:17085   */\n      0x00\n        /* \"#utility.yul\":17077:17108   */\n      mstore\n        /* \"#utility.yul\":17127:17131   */\n      0x41\n        /* \"#utility.yul\":17124:17125   */\n      0x04\n        /* \"#utility.yul\":17117:17132   */\n      mstore\n        /* \"#utility.yul\":17151:17155   */\n      0x24\n        /* \"#utility.yul\":17148:17149   */\n      0x00\n        /* \"#utility.yul\":17141:17156   */\n      revert\n        /* \"#utility.yul\":17167:17298   */\n    tag_667:\n      not(sub(shl(0xe0, 0x01), 0x01))\n        /* \"#utility.yul\":17241:17273   */\n      dup2\n      and\n        /* \"#utility.yul\":17231:17274   */\n      dup2\n      eq\n        /* \"#utility.yul\":17221:17292   */\n      tag_337\n      jumpi\n        /* \"#utility.yul\":17288:17289   */\n      0x00\n        /* \"#utility.yul\":17285:17286   */\n      dup1\n        /* \"#utility.yul\":17278:17290   */\n      revert\n\n    auxdata: 0xa26469706673582212208887703a58a4b9a63cc4503322bcd6e449094bec938356bc07393ef092d6bdeb64736f6c63430008070033\n}\n",
				"bytecode": {
					"linkReferences": {},
					"object": "60c06040526005608081905264173539b7b760d91b60a09081526200002891600c919062000240565b5066753d533d968000600d556045600e556009600f5560056010556011805460ff199081169091556015805490911690553480156200006657600080fd5b50604051620028203803806200282083398101604081905262000089916200039d565b6040518060400160405280600881526020016734b6b4ba32b9ba1960c11b81525060405180604001604052806003815260200162494d4960e81b815250620000e0620000da6200013860201b60201c565b6200013c565b8151620000f590600390602085019062000240565b5080516200010b90600490602084019062000240565b5050600060019081556009555062000123826200018c565b62000130816001620001af565b50506200045a565b3390565b600080546001600160a01b038381166001600160a01b0319831681178455604051919092169283917f8be0079c531659141344cd1fd0a4f28419497f9722a3daafe3b4186f6b6457e09190a35050565b62000196620001df565b8051620001ab90600a90602084019062000240565b5050565b620001b9620001df565b6000818152600b602090815260409091208351620001da9285019062000240565b505050565b6000546001600160a01b031633146200023e5760405162461bcd60e51b815260206004820181905260248201527f4f776e61626c653a2063616c6c6572206973206e6f7420746865206f776e6572604482015260640160405180910390fd5b565b8280546200024e9062000407565b90600052602060002090601f016020900481019282620002725760008555620002bd565b82601f106200028d57805160ff1916838001178555620002bd565b82800160010185558215620002bd579182015b82811115620002bd578251825591602001919060010190620002a0565b50620002cb929150620002cf565b5090565b5b80821115620002cb5760008155600101620002d0565b600082601f830112620002f857600080fd5b81516001600160401b038082111562000315576200031562000444565b604051601f8301601f19908116603f0116810190828211818310171562000340576200034062000444565b816040528381526020925086838588010111156200035d57600080fd5b600091505b8382101562000381578582018301518183018401529082019062000362565b83821115620003935760008385830101525b9695505050505050565b60008060408385031215620003b157600080fd5b82516001600160401b0380821115620003c957600080fd5b620003d786838701620002e6565b93506020850151915080821115620003ee57600080fd5b50620003fd85828601620002e6565b9150509250929050565b600181811c908216806200041c57607f821691505b602082108114156200043e57634e487b7160e01b600052602260045260246000fd5b50919050565b634e487b7160e01b600052604160045260246000fd5b6123b6806200046a6000396000f3fe6080604052600436106102675760003560e01c8063674c02aa11610144578063b3807b1d116100b6578063c87b56dd1161007a578063c87b56dd1461077b578063ca8a7d5e1461079b578063d5abeb01146107c8578063da3ef23f146107de578063e985e9c5146107fe578063f2fde38b1461084757600080fd5b8063b3807b1d146106e0578063b88d4fde146106f6578063bf705b1c14610716578063c4d2e8d614610746578063c66828621461076657600080fd5b80638da5cb5b116101085780638da5cb5b1461062a57806395d89b4114610648578063a0712d681461065d578063a22cb46514610670578063a7cd52cb14610690578063a7dc7f2a146106c057600080fd5b8063674c02aa1461056557806370a082311461057f578063715018a61461059f57806374f59666146105b457806385649743146105ef57600080fd5b806318cae269116101dd57806342842e0e116101a157806342842e0e146104ab57806355f804b3146104cb5780635b9e3ccf146104eb5780635c975abb1461050b5780635f93e9e3146105255780636352211e1461054557600080fd5b806318cae269146104135780631ee506971461044057806323b872dd1461046d57806330b866271461048d5780633ccfd60b146104a357600080fd5b8063095ea7b31161022f578063095ea7b3146103565780630a70a1911461037657806313faede614610396578063142b0fbe146103ba57806317dc10c4146103da57806318160ddd146103fa57600080fd5b806301ffc9a71461026c57806302329a29146102a157806305a3b809146102c357806306fdde03146102fc578063081812fc1461031e575b600080fd5b34801561027857600080fd5b5061028c610287366004611fad565b610867565b60405190151581526020015b60405180910390f35b3480156102ad57600080fd5b506102c16102bc366004611f76565b6108b9565b005b3480156102cf57600080fd5b5061028c6102de366004611da7565b6001600160a01b031660009081526016602052604090205460ff1690565b34801561030857600080fd5b506103116108d4565b604051610298919061220d565b34801561032a57600080fd5b5061033e610339366004612061565b610966565b6040516001600160a01b039091168152602001610298565b34801561036257600080fd5b506102c1610371366004611ed7565b6109aa565b34801561038257600080fd5b506102c1610391366004611f91565b610a4a565b3480156103a257600080fd5b506103ac600d5481565b604051908152602001610298565b3480156103c657600080fd5b506102c16103d5366004611f01565b610a71565b3480156103e657600080fd5b506102c16103f5366004611f76565b610af0565b34801561040657600080fd5b50600254600154036103ac565b34801561041f57600080fd5b506103ac61042e366004611da7565b60176020526000908152604090205481565b34801561044c57600080fd5b506103ac61045b366004612061565b60146020526000908152604090205481565b34801561047957600080fd5b506102c1610488366004611df5565b610b0b565b34801561049957600080fd5b506103ac600f5481565b6102c1610c9c565b3480156104b757600080fd5b506102c16104c6366004611df5565b610ce1565b3480156104d757600080fd5b506102c16104e6366004611fe7565b610cfc565b3480156104f757600080fd5b506102c1610506366004611f01565b610d1b565b34801561051757600080fd5b5060115461028c9060ff1681565b34801561053157600080fd5b506102c161054036600461201c565b610d95565b34801561055157600080fd5b5061033e610560366004612061565b610dbc565b34801561057157600080fd5b5060155461028c9060ff1681565b34801561058b57600080fd5b506103ac61059a366004611da7565b610dc7565b3480156105ab57600080fd5b506102c1610e16565b3480156105c057600080fd5b5061028c6105cf36600461207a565b601360209081526000928352604080842090915290825290205460ff1681565b3480156105fb57600080fd5b5061028c61060a36600461207a565b600091825260136020908152604080842092845291905290205460ff1690565b34801561063657600080fd5b506000546001600160a01b031661033e565b34801561065457600080fd5b50610311610e2a565b6102c161066b366004612061565b610e39565b34801561067c57600080fd5b506102c161068b366004611ead565b6111f2565b34801561069c57600080fd5b5061028c6106ab366004611da7565b60166020526000908152604090205460ff1681565b3480156106cc57600080fd5b506102c16106db36600461207a565b61125e565b3480156106ec57600080fd5b506103ac60105481565b34801561070257600080fd5b506102c1610711366004611e31565b6113ab565b34801561072257600080fd5b5061028c610731366004612061565b60126020526000908152604090205460ff1681565b34801561075257600080fd5b506102c1610761366004612061565b6113f5565b34801561077257600080fd5b50610311611402565b34801561078757600080fd5b50610311610796366004612061565b611490565b3480156107a757600080fd5b506107bb6107b6366004611da7565b611585565b60405161029891906121c9565b3480156107d457600080fd5b506103ac600e5481565b3480156107ea57600080fd5b506102c16107f9366004611fe7565b61165d565b34801561080a57600080fd5b5061028c610819366004611dc2565b6001600160a01b03918216600090815260086020908152604080832093909416825291909152205460ff1690565b34801561085357600080fd5b506102c1610862366004611da7565b611678565b60006301ffc9a760e01b6001600160e01b03198316148061089857506380ac58cd60e01b6001600160e01b03198316145b806108b35750635b5e139f60e01b6001600160e01b03198316145b92915050565b6108c16116ee565b6011805460ff1916911515919091179055565b6060600380546108e3906122ae565b80601f016020809104026020016040519081016040528092919081815260200182805461090f906122ae565b801561095c5780601f106109315761010080835404028352916020019161095c565b820191906000526020600020905b81548152906001019060200180831161093f57829003601f168201915b5050505050905090565b600061097182611748565b61098e576040516333d1c03960e21b815260040160405180910390fd5b506000908152600760205260409020546001600160a01b031690565b60006109b582610dbc565b9050336001600160a01b038216146109ee576109d18133610819565b6109ee576040516367d9dca160e11b815260040160405180910390fd5b60008281526007602052604080822080546001600160a01b0319166001600160a01b0387811691821790925591518593918516917f8c5be1e5ebec7d5bd14f71427d1e84f3dd0314c0f7b2291e5b200ac8c7c3b92591a4505050565b610a526116ee565b6000908152601260205260409020805460ff1916911515919091179055565b610a796116ee565b60005b81811015610aeb57600060166000858585818110610a9c57610a9c61233e565b9050602002016020810190610ab19190611da7565b6001600160a01b031681526020810191909152604001600020805460ff191691151591909117905580610ae3816122e3565b915050610a7c565b505050565b610af86116ee565b6015805460ff1916911515919091179055565b6000610b1682611770565b9050836001600160a01b0316816001600160a01b031614610b495760405162a1148160e81b815260040160405180910390fd5b60008281526007602052604090208054338082146001600160a01b03881690911417610b9657610b798633610819565b610b9657604051632ce44b5f60e11b815260040160405180910390fd5b6001600160a01b038516610bbd57604051633a954ecd60e21b815260040160405180910390fd5b8015610bc857600082555b6001600160a01b038681166000908152600660205260408082208054600019019055918716808252919020805460010190554260a01b17600160e11b17600085815260056020526040902055600160e11b8316610c535760018401600081815260056020526040902054610c51576001548114610c515760008181526005602052604090208490555b505b83856001600160a01b0316876001600160a01b03167fddf252ad1be2c89b69c2b068fc378daa952ba7f163c4a11628f55a4df523b3ef60405160405180910390a4505050505050565b610ca46116ee565b600080546040516001600160a01b03909116914780156108fc02929091818181858888f19350505050158015610cde573d6000803e3d6000fd5b50565b610aeb838383604051806020016040528060008152506113ab565b610d046116ee565b8051610d1790600a906020840190611c4c565b5050565b610d236116ee565b60005b81811015610aeb57600160166000858585818110610d4657610d4661233e565b9050602002016020810190610d5b9190611da7565b6001600160a01b031681526020810191909152604001600020805460ff191691151591909117905580610d8d816122e3565b915050610d26565b610d9d6116ee565b6000818152600b602090815260409091208351610aeb92850190611c4c565b60006108b382611770565b60006001600160a01b038216610df0576040516323d3ad8160e21b815260040160405180910390fd5b506001600160a01b031660009081526006602052604090205467ffffffffffffffff1690565b610e1e6116ee565b610e2860006117d8565b565b6060600480546108e3906122ae565b6000610e486002546001540390565b60115490915060ff1615610eef5760405162461bcd60e51b815260206004820152605f60248201527f574f414820686f6c6420757020746865206d696e74206973206e6f742079657460448201527f206c6976652c2061206c6974746c6520746f6f206561726c792074686572652e60648201527f2e2e206f72206c6174653f205472616e736d697373696f6e20456e64696e6700608482015260a4015b60405180910390fd5b60008211610f655760405162461bcd60e51b815260206004820152603f60248201527f6d757374206d696e74206174206c656173742031206e66742c2030206973206e60448201527f6f7420616c6c6f7765642e205472616e736d697373696f6e20456e64696e67006064820152608401610ee6565b600f54610f728383612220565b1115610fdc5760405162461bcd60e51b815260206004820152603360248201527f5468697320736574206f66207368697274732068617665206265656e206d696e6044820152723a32b21030b63932b0b23c961039b7b9393c9760691b6064820152608401610ee6565b600e54610fe98383612220565b11156110555760405162461bcd60e51b815260206004820152603560248201527f6c6f6f6b73206c696b652077652061726520706f70756c6172206d61782073756044820152741c1c1b1e481a185cc81899595b881c995858da1959605a1b6064820152608401610ee6565b6000546001600160a01b031633146111c05760018211156110af5760405162461bcd60e51b8152602060048201526014602482015273037b7363c90189030ba1030903a34b6b2901d14960651b6044820152606401610ee6565b60155460ff1615156001141561116e573360009081526016602052604090205460ff166111105760405162461bcd60e51b815260206004820152600f60248201526e139bdd08105b1b1bdddb1a5cdd1959608a1b6044820152606401610ee6565b3360009081526017602052604090205460105461112d8483612220565b111561116c5760405162461bcd60e51b815260206004820152600e60248201526d105b1c9958591e481b5a5b9d195960921b6044820152606401610ee6565b505b81600d5461117c919061224c565b3410156111c05760405162461bcd60e51b8152602060048201526012602482015271086dee6e840c8decae6dc4ee840dac2e8c6d60731b6044820152606401610ee6565b6111ca3383611828565b33600090815260176020526040812080548492906111e9908490612220565b90915550505050565b3360008181526008602090815260408083206001600160a01b03871680855290835292819020805460ff191686151590811790915590519081529192917f17307eab39ab6107e8899845ad3d59bd9653f200f220920489ca2b5937696c31910160405180910390a35050565b3361126883610dbc565b6001600160a01b0316146112be5760405162461bcd60e51b815260206004820152601b60248201527f736f72727920796f7520617265206e6f7420746865206f776e657200000000006044820152606401610ee6565b60008181526012602052604090205460ff1661131c5760405162461bcd60e51b815260206004820152601760248201527f636c61696d206973206e6f7420616374697665207965740000000000000000006044820152606401610ee6565b600082815260136020908152604080832084845290915290205460ff16156113795760405162461bcd60e51b815260206004820152601060248201526f616c726561647920636c61696d65642160801b6044820152606401610ee6565b60008281526013602090815260408083208484528252808320805460ff19166001179055938252601490529190912055565b6113b6848484610b0b565b6001600160a01b0383163b156113ef576113d284848484611842565b6113ef576040516368d2bf6b60e11b815260040160405180910390fd5b50505050565b6113fd6116ee565b600f55565b600c805461140f906122ae565b80601f016020809104026020016040519081016040528092919081815260200182805461143b906122ae565b80156114885780601f1061145d57610100808354040283529160200191611488565b820191906000526020600020905b81548152906001019060200180831161146b57829003601f168201915b505050505081565b606061149b82611748565b6114ff5760405162461bcd60e51b815260206004820152602f60248201527f4552433732314d657461646174613a2055524920717565727920666f72206e6f60448201526e3732bc34b9ba32b73a103a37b5b2b760891b6064820152608401610ee6565b600082815260146020526040902054801561157557600061151f82611939565b9050600081511161153f576040518060200160405280600081525061156d565b80611549856119db565b600c60405160200161155d939291906120c8565b6040516020818303038152906040525b949350505050565b600061151f611ad9565b50919050565b606060006115966002546001540390565b905060006115a384610dc7565b67ffffffffffffffff8111156115bb576115bb612354565b6040519080825280602002602001820160405280156115e4578160200160208202803683370190505b5090506000805b8381101561165357856001600160a01b031661160682610dbc565b6001600160a01b0316141561164157808383815181106116285761162861233e565b60209081029190910101528161163d816122e3565b9250505b8061164b816122e3565b9150506115eb565b5090949350505050565b6116656116ee565b8051610d1790600c906020840190611c4c565b6116806116ee565b6001600160a01b0381166116e55760405162461bcd60e51b815260206004820152602660248201527f4f776e61626c653a206e6577206f776e657220697320746865207a65726f206160448201526564647265737360d01b6064820152608401610ee6565b610cde816117d8565b6000546001600160a01b03163314610e285760405162461bcd60e51b815260206004820181905260248201527f4f776e61626c653a2063616c6c6572206973206e6f7420746865206f776e65726044820152606401610ee6565b6000600154821080156108b3575050600090815260056020526040902054600160e01b161590565b6000816001548110156117bf57600081815260056020526040902054600160e01b81166117bd575b806117b6575060001901600081815260056020526040902054611798565b9392505050565b505b604051636f96cda160e11b815260040160405180910390fd5b600080546001600160a01b038381166001600160a01b0319831681178455604051919092169283917f8be0079c531659141344cd1fd0a4f28419497f9722a3daafe3b4186f6b6457e09190a35050565b610d17828260405180602001604052806000815250611ae8565b604051630a85bd0160e11b81526000906001600160a01b0385169063150b7a029061187790339089908890889060040161218c565b602060405180830381600087803b15801561189157600080fd5b505af19250505080156118c1575060408051601f3d908101601f191682019092526118be91810190611fca565b60015b61191c573d8080156118ef576040519150601f19603f3d011682016040523d82523d6000602084013e6118f4565b606091505b508051611914576040516368d2bf6b60e11b815260040160405180910390fd5b805181602001fd5b6001600160e01b031916630a85bd0160e11b149050949350505050565b6000818152600b60205260409020805460609190611956906122ae565b80601f0160208091040260200160405190810160405280929190818152602001828054611982906122ae565b80156119cf5780601f106119a4576101008083540402835291602001916119cf565b820191906000526020600020905b8154815290600101906020018083116119b257829003601f168201915b50505050509050919050565b6060816119ff5750506040805180820190915260018152600360fc1b602082015290565b8160005b8115611a295780611a13816122e3565b9150611a229050600a83612238565b9150611a03565b60008167ffffffffffffffff811115611a4457611a44612354565b6040519080825280601f01601f191660200182016040528015611a6e576020820181803683370190505b5090505b841561156d57611a8360018361226b565b9150611a90600a866122fe565b611a9b906030612220565b60f81b818381518110611ab057611ab061233e565b60200101906001600160f81b031916908160001a905350611ad2600a86612238565b9450611a72565b6060600a80546108e3906122ae565b611af28383611b55565b6001600160a01b0383163b15610aeb576001548281035b611b1c6000868380600101945086611842565b611b39576040516368d2bf6b60e11b815260040160405180910390fd5b818110611b09578160015414611b4e57600080fd5b5050505050565b60015481611b765760405163b562e8dd60e01b815260040160405180910390fd5b6001600160a01b03831660008181526006602090815260408083208054680100000000000000018802019055848352600590915281206001851460e11b4260a01b178317905582840190839083907fddf252ad1be2c89b69c2b068fc378daa952ba7f163c4a11628f55a4df523b3ef8180a4600183015b818114611c2557808360007fddf252ad1be2c89b69c2b068fc378daa952ba7f163c4a11628f55a4df523b3ef600080a4600101611bed565b5081611c4357604051622e076360e81b815260040160405180910390fd5b60015550505050565b828054611c58906122ae565b90600052602060002090601f016020900481019282611c7a5760008555611cc0565b82601f10611c9357805160ff1916838001178555611cc0565b82800160010185558215611cc0579182015b82811115611cc0578251825591602001919060010190611ca5565b50611ccc929150611cd0565b5090565b5b80821115611ccc5760008155600101611cd1565b600067ffffffffffffffff80841115611d0057611d00612354565b604051601f8501601f19908116603f01168101908282118183101715611d2857611d28612354565b81604052809350858152868686011115611d4157600080fd5b858560208301376000602087830101525050509392505050565b80356001600160a01b0381168114611d7257600080fd5b919050565b80358015158114611d7257600080fd5b600082601f830112611d9857600080fd5b6117b683833560208501611ce5565b600060208284031215611db957600080fd5b6117b682611d5b565b60008060408385031215611dd557600080fd5b611dde83611d5b565b9150611dec60208401611d5b565b90509250929050565b600080600060608486031215611e0a57600080fd5b611e1384611d5b565b9250611e2160208501611d5b565b9150604084013590509250925092565b60008060008060808587031215611e4757600080fd5b611e5085611d5b565b9350611e5e60208601611d5b565b925060408501359150606085013567ffffffffffffffff811115611e8157600080fd5b8501601f81018713611e9257600080fd5b611ea187823560208401611ce5565b91505092959194509250565b60008060408385031215611ec057600080fd5b611ec983611d5b565b9150611dec60208401611d77565b60008060408385031215611eea57600080fd5b611ef383611d5b565b946020939093013593505050565b60008060208385031215611f1457600080fd5b823567ffffffffffffffff80821115611f2c57600080fd5b818501915085601f830112611f4057600080fd5b813581811115611f4f57600080fd5b8660208260051b8501011115611f6457600080fd5b60209290920196919550909350505050565b600060208284031215611f8857600080fd5b6117b682611d77565b60008060408385031215611fa457600080fd5b611ef383611d77565b600060208284031215611fbf57600080fd5b81356117b68161236a565b600060208284031215611fdc57600080fd5b81516117b68161236a565b600060208284031215611ff957600080fd5b813567ffffffffffffffff81111561201057600080fd5b61156d84828501611d87565b6000806040838503121561202f57600080fd5b823567ffffffffffffffff81111561204657600080fd5b61205285828601611d87565b95602094909401359450505050565b60006020828403121561207357600080fd5b5035919050565b6000806040838503121561208d57600080fd5b50508035926020909101359150565b600081518084526120b4816020860160208601612282565b601f01601f19169290920160200192915050565b6000845160206120db8285838a01612282565b8551918401916120ee8184848a01612282565b8554920191600090600181811c908083168061210b57607f831692505b85831081141561212957634e487b7160e01b85526022600452602485fd5b80801561213d576001811461214e5761217b565b60ff1985168852838801955061217b565b60008b81526020902060005b858110156121735781548a82015290840190880161215a565b505083880195505b50939b9a5050505050505050505050565b6001600160a01b03858116825284166020820152604081018390526080606082018190526000906121bf9083018461209c565b9695505050505050565b6020808252825182820181905260009190848201906040850190845b81811015612201578351835292840192918401916001016121e5565b50909695505050505050565b6020815260006117b6602083018461209c565b6000821982111561223357612233612312565b500190565b60008261224757612247612328565b500490565b600081600019048311821515161561226657612266612312565b500290565b60008282101561227d5761227d612312565b500390565b60005b8381101561229d578181015183820152602001612285565b838111156113ef5750506000910152565b600181811c908216806122c257607f821691505b6020821081141561157f57634e487b7160e01b600052602260045260246000fd5b60006000198214156122f7576122f7612312565b5060010190565b60008261230d5761230d612328565b500690565b634e487b7160e01b600052601160045260246000fd5b634e487b7160e01b600052601260045260246000fd5b634e487b7160e01b600052603260045260246000fd5b634e487b7160e01b600052604160045260246000fd5b6001600160e01b031981168114610cde57600080fdfea26469706673582212208887703a58a4b9a63cc4503322bcd6e449094bec938356bc07393ef092d6bdeb64736f6c63430008070033",
					"opcodes": "PUSH1 0xC0 PUSH1 0x40 MSTORE PUSH1 0x5 PUSH1 0x80 DUP2 SWAP1 MSTORE PUSH5 0x173539B7B7 PUSH1 0xD9 SHL PUSH1 0xA0 SWAP1 DUP2 MSTORE PUSH3 0x28 SWAP2 PUSH1 0xC SWAP2 SWAP1 PUSH3 0x240 JUMP JUMPDEST POP PUSH7 0x753D533D968000 PUSH1 0xD SSTORE PUSH1 0x45 PUSH1 0xE SSTORE PUSH1 0x9 PUSH1 0xF SSTORE PUSH1 0x5 PUSH1 0x10 SSTORE PUSH1 0x11 DUP1 SLOAD PUSH1 0xFF NOT SWAP1 DUP2 AND SWAP1 SWAP2 SSTORE PUSH1 0x15 DUP1 SLOAD SWAP1 SWAP2 AND SWAP1 SSTORE CALLVALUE DUP1 ISZERO PUSH3 0x66 JUMPI PUSH1 0x0 DUP1 REVERT JUMPDEST POP PUSH1 0x40 MLOAD PUSH3 0x2820 CODESIZE SUB DUP1 PUSH3 0x2820 DUP4 CODECOPY DUP2 ADD PUSH1 0x40 DUP2 SWAP1 MSTORE PUSH3 0x89 SWAP2 PUSH3 0x39D JUMP JUMPDEST PUSH1 0x40 MLOAD DUP1 PUSH1 0x40 ADD PUSH1 0x40 MSTORE DUP1 PUSH1 0x8 DUP2 MSTORE PUSH1 0x20 ADD PUSH8 0x34B6B4BA32B9BA19 PUSH1 0xC1 SHL DUP2 MSTORE POP PUSH1 0x40 MLOAD DUP1 PUSH1 0x40 ADD PUSH1 0x40 MSTORE DUP1 PUSH1 0x3 DUP2 MSTORE PUSH1 0x20 ADD PUSH3 0x494D49 PUSH1 0xE8 SHL DUP2 MSTORE POP PUSH3 0xE0 PUSH3 0xDA PUSH3 0x138 PUSH1 0x20 SHL PUSH1 0x20 SHR JUMP JUMPDEST PUSH3 0x13C JUMP JUMPDEST DUP2 MLOAD PUSH3 0xF5 SWAP1 PUSH1 0x3 SWAP1 PUSH1 0x20 DUP6 ADD SWAP1 PUSH3 0x240 JUMP JUMPDEST POP DUP1 MLOAD PUSH3 0x10B SWAP1 PUSH1 0x4 SWAP1 PUSH1 0x20 DUP5 ADD SWAP1 PUSH3 0x240 JUMP JUMPDEST POP POP PUSH1 0x0 PUSH1 0x1 SWAP1 DUP2 SSTORE PUSH1 0x9 SSTORE POP PUSH3 0x123 DUP3 PUSH3 0x18C JUMP JUMPDEST PUSH3 0x130 DUP2 PUSH1 0x1 PUSH3 0x1AF JUMP JUMPDEST POP POP PUSH3 0x45A JUMP JUMPDEST CALLER SWAP1 JUMP JUMPDEST PUSH1 0x0 DUP1 SLOAD PUSH1 0x1 PUSH1 0x1 PUSH1 0xA0 SHL SUB DUP4 DUP2 AND PUSH1 0x1 PUSH1 0x1 PUSH1 0xA0 SHL SUB NOT DUP4 AND DUP2 OR DUP5 SSTORE PUSH1 0x40 MLOAD SWAP2 SWAP1 SWAP3 AND SWAP3 DUP4 SWAP2 PUSH32 0x8BE0079C531659141344CD1FD0A4F28419497F9722A3DAAFE3B4186F6B6457E0 SWAP2 SWAP1 LOG3 POP POP JUMP JUMPDEST PUSH3 0x196 PUSH3 0x1DF JUMP JUMPDEST DUP1 MLOAD PUSH3 0x1AB SWAP1 PUSH1 0xA SWAP1 PUSH1 0x20 DUP5 ADD SWAP1 PUSH3 0x240 JUMP JUMPDEST POP POP JUMP JUMPDEST PUSH3 0x1B9 PUSH3 0x1DF JUMP JUMPDEST PUSH1 0x0 DUP2 DUP2 MSTORE PUSH1 0xB PUSH1 0x20 SWAP1 DUP2 MSTORE PUSH1 0x40 SWAP1 SWAP2 KECCAK256 DUP4 MLOAD PUSH3 0x1DA SWAP3 DUP6 ADD SWAP1 PUSH3 0x240 JUMP JUMPDEST POP POP POP JUMP JUMPDEST PUSH1 0x0 SLOAD PUSH1 0x1 PUSH1 0x1 PUSH1 0xA0 SHL SUB AND CALLER EQ PUSH3 0x23E JUMPI PUSH1 0x40 MLOAD PUSH3 0x461BCD PUSH1 0xE5 SHL DUP2 MSTORE PUSH1 0x20 PUSH1 0x4 DUP3 ADD DUP2 SWAP1 MSTORE PUSH1 0x24 DUP3 ADD MSTORE PUSH32 0x4F776E61626C653A2063616C6C6572206973206E6F7420746865206F776E6572 PUSH1 0x44 DUP3 ADD MSTORE PUSH1 0x64 ADD PUSH1 0x40 MLOAD DUP1 SWAP2 SUB SWAP1 REVERT JUMPDEST JUMP JUMPDEST DUP3 DUP1 SLOAD PUSH3 0x24E SWAP1 PUSH3 0x407 JUMP JUMPDEST SWAP1 PUSH1 0x0 MSTORE PUSH1 0x20 PUSH1 0x0 KECCAK256 SWAP1 PUSH1 0x1F ADD PUSH1 0x20 SWAP1 DIV DUP2 ADD SWAP3 DUP3 PUSH3 0x272 JUMPI PUSH1 0x0 DUP6 SSTORE PUSH3 0x2BD JUMP JUMPDEST DUP3 PUSH1 0x1F LT PUSH3 0x28D JUMPI DUP1 MLOAD PUSH1 0xFF NOT AND DUP4 DUP1 ADD OR DUP6 SSTORE PUSH3 0x2BD JUMP JUMPDEST DUP3 DUP1 ADD PUSH1 0x1 ADD DUP6 SSTORE DUP3 ISZERO PUSH3 0x2BD JUMPI SWAP2 DUP3 ADD JUMPDEST DUP3 DUP2 GT ISZERO PUSH3 0x2BD JUMPI DUP3 MLOAD DUP3 SSTORE SWAP2 PUSH1 0x20 ADD SWAP2 SWAP1 PUSH1 0x1 ADD SWAP1 PUSH3 0x2A0 JUMP JUMPDEST POP PUSH3 0x2CB SWAP3 SWAP2 POP PUSH3 0x2CF JUMP JUMPDEST POP SWAP1 JUMP JUMPDEST JUMPDEST DUP1 DUP3 GT ISZERO PUSH3 0x2CB JUMPI PUSH1 0x0 DUP2 SSTORE PUSH1 0x1 ADD PUSH3 0x2D0 JUMP JUMPDEST PUSH1 0x0 DUP3 PUSH1 0x1F DUP4 ADD SLT PUSH3 0x2F8 JUMPI PUSH1 0x0 DUP1 REVERT JUMPDEST DUP2 MLOAD PUSH1 0x1 PUSH1 0x1 PUSH1 0x40 SHL SUB DUP1 DUP3 GT ISZERO PUSH3 0x315 JUMPI PUSH3 0x315 PUSH3 0x444 JUMP JUMPDEST PUSH1 0x40 MLOAD PUSH1 0x1F DUP4 ADD PUSH1 0x1F NOT SWAP1 DUP2 AND PUSH1 0x3F ADD AND DUP2 ADD SWAP1 DUP3 DUP3 GT DUP2 DUP4 LT OR ISZERO PUSH3 0x340 JUMPI PUSH3 0x340 PUSH3 0x444 JUMP JUMPDEST DUP2 PUSH1 0x40 MSTORE DUP4 DUP2 MSTORE PUSH1 0x20 SWAP3 POP DUP7 DUP4 DUP6 DUP9 ADD ADD GT ISZERO PUSH3 0x35D JUMPI PUSH1 0x0 DUP1 REVERT JUMPDEST PUSH1 0x0 SWAP2 POP JUMPDEST DUP4 DUP3 LT ISZERO PUSH3 0x381 JUMPI DUP6 DUP3 ADD DUP4 ADD MLOAD DUP2 DUP4 ADD DUP5 ADD MSTORE SWAP1 DUP3 ADD SWAP1 PUSH3 0x362 JUMP JUMPDEST DUP4 DUP3 GT ISZERO PUSH3 0x393 JUMPI PUSH1 0x0 DUP4 DUP6 DUP4 ADD ADD MSTORE JUMPDEST SWAP7 SWAP6 POP POP POP POP POP POP JUMP JUMPDEST PUSH1 0x0 DUP1 PUSH1 0x40 DUP4 DUP6 SUB SLT ISZERO PUSH3 0x3B1 JUMPI PUSH1 0x0 DUP1 REVERT JUMPDEST DUP3 MLOAD PUSH1 0x1 PUSH1 0x1 PUSH1 0x40 SHL SUB DUP1 DUP3 GT ISZERO PUSH3 0x3C9 JUMPI PUSH1 0x0 DUP1 REVERT JUMPDEST PUSH3 0x3D7 DUP7 DUP4 DUP8 ADD PUSH3 0x2E6 JUMP JUMPDEST SWAP4 POP PUSH1 0x20 DUP6 ADD MLOAD SWAP2 POP DUP1 DUP3 GT ISZERO PUSH3 0x3EE JUMPI PUSH1 0x0 DUP1 REVERT JUMPDEST POP PUSH3 0x3FD DUP6 DUP3 DUP7 ADD PUSH3 0x2E6 JUMP JUMPDEST SWAP2 POP POP SWAP3 POP SWAP3 SWAP1 POP JUMP JUMPDEST PUSH1 0x1 DUP2 DUP2 SHR SWAP1 DUP3 AND DUP1 PUSH3 0x41C JUMPI PUSH1 0x7F DUP3 AND SWAP2 POP JUMPDEST PUSH1 0x20 DUP3 LT DUP2 EQ ISZERO PUSH3 0x43E JUMPI PUSH4 0x4E487B71 PUSH1 0xE0 SHL PUSH1 0x0 MSTORE PUSH1 0x22 PUSH1 0x4 MSTORE PUSH1 0x24 PUSH1 0x0 REVERT JUMPDEST POP SWAP2 SWAP1 POP JUMP JUMPDEST PUSH4 0x4E487B71 PUSH1 0xE0 SHL PUSH1 0x0 MSTORE PUSH1 0x41 PUSH1 0x4 MSTORE PUSH1 0x24 PUSH1 0x0 REVERT JUMPDEST PUSH2 0x23B6 DUP1 PUSH3 0x46A PUSH1 0x0 CODECOPY PUSH1 0x0 RETURN INVALID PUSH1 0x80 PUSH1 0x40 MSTORE PUSH1 0x4 CALLDATASIZE LT PUSH2 0x267 JUMPI PUSH1 0x0 CALLDATALOAD PUSH1 0xE0 SHR DUP1 PUSH4 0x674C02AA GT PUSH2 0x144 JUMPI DUP1 PUSH4 0xB3807B1D GT PUSH2 0xB6 JUMPI DUP1 PUSH4 0xC87B56DD GT PUSH2 0x7A JUMPI DUP1 PUSH4 0xC87B56DD EQ PUSH2 0x77B JUMPI DUP1 PUSH4 0xCA8A7D5E EQ PUSH2 0x79B JUMPI DUP1 PUSH4 0xD5ABEB01 EQ PUSH2 0x7C8 JUMPI DUP1 PUSH4 0xDA3EF23F EQ PUSH2 0x7DE JUMPI DUP1 PUSH4 0xE985E9C5 EQ PUSH2 0x7FE JUMPI DUP1 PUSH4 0xF2FDE38B EQ PUSH2 0x847 JUMPI PUSH1 0x0 DUP1 REVERT JUMPDEST DUP1 PUSH4 0xB3807B1D EQ PUSH2 0x6E0 JUMPI DUP1 PUSH4 0xB88D4FDE EQ PUSH2 0x6F6 JUMPI DUP1 PUSH4 0xBF705B1C EQ PUSH2 0x716 JUMPI DUP1 PUSH4 0xC4D2E8D6 EQ PUSH2 0x746 JUMPI DUP1 PUSH4 0xC6682862 EQ PUSH2 0x766 JUMPI PUSH1 0x0 DUP1 REVERT JUMPDEST DUP1 PUSH4 0x8DA5CB5B GT PUSH2 0x108 JUMPI DUP1 PUSH4 0x8DA5CB5B EQ PUSH2 0x62A JUMPI DUP1 PUSH4 0x95D89B41 EQ PUSH2 0x648 JUMPI DUP1 PUSH4 0xA0712D68 EQ PUSH2 0x65D JUMPI DUP1 PUSH4 0xA22CB465 EQ PUSH2 0x670 JUMPI DUP1 PUSH4 0xA7CD52CB EQ PUSH2 0x690 JUMPI DUP1 PUSH4 0xA7DC7F2A EQ PUSH2 0x6C0 JUMPI PUSH1 0x0 DUP1 REVERT JUMPDEST DUP1 PUSH4 0x674C02AA EQ PUSH2 0x565 JUMPI DUP1 PUSH4 0x70A08231 EQ PUSH2 0x57F JUMPI DUP1 PUSH4 0x715018A6 EQ PUSH2 0x59F JUMPI DUP1 PUSH4 0x74F59666 EQ PUSH2 0x5B4 JUMPI DUP1 PUSH4 0x85649743 EQ PUSH2 0x5EF JUMPI PUSH1 0x0 DUP1 REVERT JUMPDEST DUP1 PUSH4 0x18CAE269 GT PUSH2 0x1DD JUMPI DUP1 PUSH4 0x42842E0E GT PUSH2 0x1A1 JUMPI DUP1 PUSH4 0x42842E0E EQ PUSH2 0x4AB JUMPI DUP1 PUSH4 0x55F804B3 EQ PUSH2 0x4CB JUMPI DUP1 PUSH4 0x5B9E3CCF EQ PUSH2 0x4EB JUMPI DUP1 PUSH4 0x5C975ABB EQ PUSH2 0x50B JUMPI DUP1 PUSH4 0x5F93E9E3 EQ PUSH2 0x525 JUMPI DUP1 PUSH4 0x6352211E EQ PUSH2 0x545 JUMPI PUSH1 0x0 DUP1 REVERT JUMPDEST DUP1 PUSH4 0x18CAE269 EQ PUSH2 0x413 JUMPI DUP1 PUSH4 0x1EE50697 EQ PUSH2 0x440 JUMPI DUP1 PUSH4 0x23B872DD EQ PUSH2 0x46D JUMPI DUP1 PUSH4 0x30B86627 EQ PUSH2 0x48D JUMPI DUP1 PUSH4 0x3CCFD60B EQ PUSH2 0x4A3 JUMPI PUSH1 0x0 DUP1 REVERT JUMPDEST DUP1 PUSH4 0x95EA7B3 GT PUSH2 0x22F JUMPI DUP1 PUSH4 0x95EA7B3 EQ PUSH2 0x356 JUMPI DUP1 PUSH4 0xA70A191 EQ PUSH2 0x376 JUMPI DUP1 PUSH4 0x13FAEDE6 EQ PUSH2 0x396 JUMPI DUP1 PUSH4 0x142B0FBE EQ PUSH2 0x3BA JUMPI DUP1 PUSH4 0x17DC10C4 EQ PUSH2 0x3DA JUMPI DUP1 PUSH4 0x18160DDD EQ PUSH2 0x3FA JUMPI PUSH1 0x0 DUP1 REVERT JUMPDEST DUP1 PUSH4 0x1FFC9A7 EQ PUSH2 0x26C JUMPI DUP1 PUSH4 0x2329A29 EQ PUSH2 0x2A1 JUMPI DUP1 PUSH4 0x5A3B809 EQ PUSH2 0x2C3 JUMPI DUP1 PUSH4 0x6FDDE03 EQ PUSH2 0x2FC JUMPI DUP1 PUSH4 0x81812FC EQ PUSH2 0x31E JUMPI JUMPDEST PUSH1 0x0 DUP1 REVERT JUMPDEST CALLVALUE DUP1 ISZERO PUSH2 0x278 JUMPI PUSH1 0x0 DUP1 REVERT JUMPDEST POP PUSH2 0x28C PUSH2 0x287 CALLDATASIZE PUSH1 0x4 PUSH2 0x1FAD JUMP JUMPDEST PUSH2 0x867 JUMP JUMPDEST PUSH1 0x40 MLOAD SWAP1 ISZERO ISZERO DUP2 MSTORE PUSH1 0x20 ADD JUMPDEST PUSH1 0x40 MLOAD DUP1 SWAP2 SUB SWAP1 RETURN JUMPDEST CALLVALUE DUP1 ISZERO PUSH2 0x2AD JUMPI PUSH1 0x0 DUP1 REVERT JUMPDEST POP PUSH2 0x2C1 PUSH2 0x2BC CALLDATASIZE PUSH1 0x4 PUSH2 0x1F76 JUMP JUMPDEST PUSH2 0x8B9 JUMP JUMPDEST STOP JUMPDEST CALLVALUE DUP1 ISZERO PUSH2 0x2CF JUMPI PUSH1 0x0 DUP1 REVERT JUMPDEST POP PUSH2 0x28C PUSH2 0x2DE CALLDATASIZE PUSH1 0x4 PUSH2 0x1DA7 JUMP JUMPDEST PUSH1 0x1 PUSH1 0x1 PUSH1 0xA0 SHL SUB AND PUSH1 0x0 SWAP1 DUP2 MSTORE PUSH1 0x16 PUSH1 0x20 MSTORE PUSH1 0x40 SWAP1 KECCAK256 SLOAD PUSH1 0xFF AND SWAP1 JUMP JUMPDEST CALLVALUE DUP1 ISZERO PUSH2 0x308 JUMPI PUSH1 0x0 DUP1 REVERT JUMPDEST POP PUSH2 0x311 PUSH2 0x8D4 JUMP JUMPDEST PUSH1 0x40 MLOAD PUSH2 0x298 SWAP2 SWAP1 PUSH2 0x220D JUMP JUMPDEST CALLVALUE DUP1 ISZERO PUSH2 0x32A JUMPI PUSH1 0x0 DUP1 REVERT JUMPDEST POP PUSH2 0x33E PUSH2 0x339 CALLDATASIZE PUSH1 0x4 PUSH2 0x2061 JUMP JUMPDEST PUSH2 0x966 JUMP JUMPDEST PUSH1 0x40 MLOAD PUSH1 0x1 PUSH1 0x1 PUSH1 0xA0 SHL SUB SWAP1 SWAP2 AND DUP2 MSTORE PUSH1 0x20 ADD PUSH2 0x298 JUMP JUMPDEST CALLVALUE DUP1 ISZERO PUSH2 0x362 JUMPI PUSH1 0x0 DUP1 REVERT JUMPDEST POP PUSH2 0x2C1 PUSH2 0x371 CALLDATASIZE PUSH1 0x4 PUSH2 0x1ED7 JUMP JUMPDEST PUSH2 0x9AA JUMP JUMPDEST CALLVALUE DUP1 ISZERO PUSH2 0x382 JUMPI PUSH1 0x0 DUP1 REVERT JUMPDEST POP PUSH2 0x2C1 PUSH2 0x391 CALLDATASIZE PUSH1 0x4 PUSH2 0x1F91 JUMP JUMPDEST PUSH2 0xA4A JUMP JUMPDEST CALLVALUE DUP1 ISZERO PUSH2 0x3A2 JUMPI PUSH1 0x0 DUP1 REVERT JUMPDEST POP PUSH2 0x3AC PUSH1 0xD SLOAD DUP2 JUMP JUMPDEST PUSH1 0x40 MLOAD SWAP1 DUP2 MSTORE PUSH1 0x20 ADD PUSH2 0x298 JUMP JUMPDEST CALLVALUE DUP1 ISZERO PUSH2 0x3C6 JUMPI PUSH1 0x0 DUP1 REVERT JUMPDEST POP PUSH2 0x2C1 PUSH2 0x3D5 CALLDATASIZE PUSH1 0x4 PUSH2 0x1F01 JUMP JUMPDEST PUSH2 0xA71 JUMP JUMPDEST CALLVALUE DUP1 ISZERO PUSH2 0x3E6 JUMPI PUSH1 0x0 DUP1 REVERT JUMPDEST POP PUSH2 0x2C1 PUSH2 0x3F5 CALLDATASIZE PUSH1 0x4 PUSH2 0x1F76 JUMP JUMPDEST PUSH2 0xAF0 JUMP JUMPDEST CALLVALUE DUP1 ISZERO PUSH2 0x406 JUMPI PUSH1 0x0 DUP1 REVERT JUMPDEST POP PUSH1 0x2 SLOAD PUSH1 0x1 SLOAD SUB PUSH2 0x3AC JUMP JUMPDEST CALLVALUE DUP1 ISZERO PUSH2 0x41F JUMPI PUSH1 0x0 DUP1 REVERT JUMPDEST POP PUSH2 0x3AC PUSH2 0x42E CALLDATASIZE PUSH1 0x4 PUSH2 0x1DA7 JUMP JUMPDEST PUSH1 0x17 PUSH1 0x20 MSTORE PUSH1 0x0 SWAP1 DUP2 MSTORE PUSH1 0x40 SWAP1 KECCAK256 SLOAD DUP2 JUMP JUMPDEST CALLVALUE DUP1 ISZERO PUSH2 0x44C JUMPI PUSH1 0x0 DUP1 REVERT JUMPDEST POP PUSH2 0x3AC PUSH2 0x45B CALLDATASIZE PUSH1 0x4 PUSH2 0x2061 JUMP JUMPDEST PUSH1 0x14 PUSH1 0x20 MSTORE PUSH1 0x0 SWAP1 DUP2 MSTORE PUSH1 0x40 SWAP1 KECCAK256 SLOAD DUP2 JUMP JUMPDEST CALLVALUE DUP1 ISZERO PUSH2 0x479 JUMPI PUSH1 0x0 DUP1 REVERT JUMPDEST POP PUSH2 0x2C1 PUSH2 0x488 CALLDATASIZE PUSH1 0x4 PUSH2 0x1DF5 JUMP JUMPDEST PUSH2 0xB0B JUMP JUMPDEST CALLVALUE DUP1 ISZERO PUSH2 0x499 JUMPI PUSH1 0x0 DUP1 REVERT JUMPDEST POP PUSH2 0x3AC PUSH1 0xF SLOAD DUP2 JUMP JUMPDEST PUSH2 0x2C1 PUSH2 0xC9C JUMP JUMPDEST CALLVALUE DUP1 ISZERO PUSH2 0x4B7 JUMPI PUSH1 0x0 DUP1 REVERT JUMPDEST POP PUSH2 0x2C1 PUSH2 0x4C6 CALLDATASIZE PUSH1 0x4 PUSH2 0x1DF5 JUMP JUMPDEST PUSH2 0xCE1 JUMP JUMPDEST CALLVALUE DUP1 ISZERO PUSH2 0x4D7 JUMPI PUSH1 0x0 DUP1 REVERT JUMPDEST POP PUSH2 0x2C1 PUSH2 0x4E6 CALLDATASIZE PUSH1 0x4 PUSH2 0x1FE7 JUMP JUMPDEST PUSH2 0xCFC JUMP JUMPDEST CALLVALUE DUP1 ISZERO PUSH2 0x4F7 JUMPI PUSH1 0x0 DUP1 REVERT JUMPDEST POP PUSH2 0x2C1 PUSH2 0x506 CALLDATASIZE PUSH1 0x4 PUSH2 0x1F01 JUMP JUMPDEST PUSH2 0xD1B JUMP JUMPDEST CALLVALUE DUP1 ISZERO PUSH2 0x517 JUMPI PUSH1 0x0 DUP1 REVERT JUMPDEST POP PUSH1 0x11 SLOAD PUSH2 0x28C SWAP1 PUSH1 0xFF AND DUP2 JUMP JUMPDEST CALLVALUE DUP1 ISZERO PUSH2 0x531 JUMPI PUSH1 0x0 DUP1 REVERT JUMPDEST POP PUSH2 0x2C1 PUSH2 0x540 CALLDATASIZE PUSH1 0x4 PUSH2 0x201C JUMP JUMPDEST PUSH2 0xD95 JUMP JUMPDEST CALLVALUE DUP1 ISZERO PUSH2 0x551 JUMPI PUSH1 0x0 DUP1 REVERT JUMPDEST POP PUSH2 0x33E PUSH2 0x560 CALLDATASIZE PUSH1 0x4 PUSH2 0x2061 JUMP JUMPDEST PUSH2 0xDBC JUMP JUMPDEST CALLVALUE DUP1 ISZERO PUSH2 0x571 JUMPI PUSH1 0x0 DUP1 REVERT JUMPDEST POP PUSH1 0x15 SLOAD PUSH2 0x28C SWAP1 PUSH1 0xFF AND DUP2 JUMP JUMPDEST CALLVALUE DUP1 ISZERO PUSH2 0x58B JUMPI PUSH1 0x0 DUP1 REVERT JUMPDEST POP PUSH2 0x3AC PUSH2 0x59A CALLDATASIZE PUSH1 0x4 PUSH2 0x1DA7 JUMP JUMPDEST PUSH2 0xDC7 JUMP JUMPDEST CALLVALUE DUP1 ISZERO PUSH2 0x5AB JUMPI PUSH1 0x0 DUP1 REVERT JUMPDEST POP PUSH2 0x2C1 PUSH2 0xE16 JUMP JUMPDEST CALLVALUE DUP1 ISZERO PUSH2 0x5C0 JUMPI PUSH1 0x0 DUP1 REVERT JUMPDEST POP PUSH2 0x28C PUSH2 0x5CF CALLDATASIZE PUSH1 0x4 PUSH2 0x207A JUMP JUMPDEST PUSH1 0x13 PUSH1 0x20 SWAP1 DUP2 MSTORE PUSH1 0x0 SWAP3 DUP4 MSTORE PUSH1 0x40 DUP1 DUP5 KECCAK256 SWAP1 SWAP2 MSTORE SWAP1 DUP3 MSTORE SWAP1 KECCAK256 SLOAD PUSH1 0xFF AND DUP2 JUMP JUMPDEST CALLVALUE DUP1 ISZERO PUSH2 0x5FB JUMPI PUSH1 0x0 DUP1 REVERT JUMPDEST POP PUSH2 0x28C PUSH2 0x60A CALLDATASIZE PUSH1 0x4 PUSH2 0x207A JUMP JUMPDEST PUSH1 0x0 SWAP2 DUP3 MSTORE PUSH1 0x13 PUSH1 0x20 SWAP1 DUP2 MSTORE PUSH1 0x40 DUP1 DUP5 KECCAK256 SWAP3 DUP5 MSTORE SWAP2 SWAP1 MSTORE SWAP1 KECCAK256 SLOAD PUSH1 0xFF AND SWAP1 JUMP JUMPDEST CALLVALUE DUP1 ISZERO PUSH2 0x636 JUMPI PUSH1 0x0 DUP1 REVERT JUMPDEST POP PUSH1 0x0 SLOAD PUSH1 0x1 PUSH1 0x1 PUSH1 0xA0 SHL SUB AND PUSH2 0x33E JUMP JUMPDEST CALLVALUE DUP1 ISZERO PUSH2 0x654 JUMPI PUSH1 0x0 DUP1 REVERT JUMPDEST POP PUSH2 0x311 PUSH2 0xE2A JUMP JUMPDEST PUSH2 0x2C1 PUSH2 0x66B CALLDATASIZE PUSH1 0x4 PUSH2 0x2061 JUMP JUMPDEST PUSH2 0xE39 JUMP JUMPDEST CALLVALUE DUP1 ISZERO PUSH2 0x67C JUMPI PUSH1 0x0 DUP1 REVERT JUMPDEST POP PUSH2 0x2C1 PUSH2 0x68B CALLDATASIZE PUSH1 0x4 PUSH2 0x1EAD JUMP JUMPDEST PUSH2 0x11F2 JUMP JUMPDEST CALLVALUE DUP1 ISZERO PUSH2 0x69C JUMPI PUSH1 0x0 DUP1 REVERT JUMPDEST POP PUSH2 0x28C PUSH2 0x6AB CALLDATASIZE PUSH1 0x4 PUSH2 0x1DA7 JUMP JUMPDEST PUSH1 0x16 PUSH1 0x20 MSTORE PUSH1 0x0 SWAP1 DUP2 MSTORE PUSH1 0x40 SWAP1 KECCAK256 SLOAD PUSH1 0xFF AND DUP2 JUMP JUMPDEST CALLVALUE DUP1 ISZERO PUSH2 0x6CC JUMPI PUSH1 0x0 DUP1 REVERT JUMPDEST POP PUSH2 0x2C1 PUSH2 0x6DB CALLDATASIZE PUSH1 0x4 PUSH2 0x207A JUMP JUMPDEST PUSH2 0x125E JUMP JUMPDEST CALLVALUE DUP1 ISZERO PUSH2 0x6EC JUMPI PUSH1 0x0 DUP1 REVERT JUMPDEST POP PUSH2 0x3AC PUSH1 0x10 SLOAD DUP2 JUMP JUMPDEST CALLVALUE DUP1 ISZERO PUSH2 0x702 JUMPI PUSH1 0x0 DUP1 REVERT JUMPDEST POP PUSH2 0x2C1 PUSH2 0x711 CALLDATASIZE PUSH1 0x4 PUSH2 0x1E31 JUMP JUMPDEST PUSH2 0x13AB JUMP JUMPDEST CALLVALUE DUP1 ISZERO PUSH2 0x722 JUMPI PUSH1 0x0 DUP1 REVERT JUMPDEST POP PUSH2 0x28C PUSH2 0x731 CALLDATASIZE PUSH1 0x4 PUSH2 0x2061 JUMP JUMPDEST PUSH1 0x12 PUSH1 0x20 MSTORE PUSH1 0x0 SWAP1 DUP2 MSTORE PUSH1 0x40 SWAP1 KECCAK256 SLOAD PUSH1 0xFF AND DUP2 JUMP JUMPDEST CALLVALUE DUP1 ISZERO PUSH2 0x752 JUMPI PUSH1 0x0 DUP1 REVERT JUMPDEST POP PUSH2 0x2C1 PUSH2 0x761 CALLDATASIZE PUSH1 0x4 PUSH2 0x2061 JUMP JUMPDEST PUSH2 0x13F5 JUMP JUMPDEST CALLVALUE DUP1 ISZERO PUSH2 0x772 JUMPI PUSH1 0x0 DUP1 REVERT JUMPDEST POP PUSH2 0x311 PUSH2 0x1402 JUMP JUMPDEST CALLVALUE DUP1 ISZERO PUSH2 0x787 JUMPI PUSH1 0x0 DUP1 REVERT JUMPDEST POP PUSH2 0x311 PUSH2 0x796 CALLDATASIZE PUSH1 0x4 PUSH2 0x2061 JUMP JUMPDEST PUSH2 0x1490 JUMP JUMPDEST CALLVALUE DUP1 ISZERO PUSH2 0x7A7 JUMPI PUSH1 0x0 DUP1 REVERT JUMPDEST POP PUSH2 0x7BB PUSH2 0x7B6 CALLDATASIZE PUSH1 0x4 PUSH2 0x1DA7 JUMP JUMPDEST PUSH2 0x1585 JUMP JUMPDEST PUSH1 0x40 MLOAD PUSH2 0x298 SWAP2 SWAP1 PUSH2 0x21C9 JUMP JUMPDEST CALLVALUE DUP1 ISZERO PUSH2 0x7D4 JUMPI PUSH1 0x0 DUP1 REVERT JUMPDEST POP PUSH2 0x3AC PUSH1 0xE SLOAD DUP2 JUMP JUMPDEST CALLVALUE DUP1 ISZERO PUSH2 0x7EA JUMPI PUSH1 0x0 DUP1 REVERT JUMPDEST POP PUSH2 0x2C1 PUSH2 0x7F9 CALLDATASIZE PUSH1 0x4 PUSH2 0x1FE7 JUMP JUMPDEST PUSH2 0x165D JUMP JUMPDEST CALLVALUE DUP1 ISZERO PUSH2 0x80A JUMPI PUSH1 0x0 DUP1 REVERT JUMPDEST POP PUSH2 0x28C PUSH2 0x819 CALLDATASIZE PUSH1 0x4 PUSH2 0x1DC2 JUMP JUMPDEST PUSH1 0x1 PUSH1 0x1 PUSH1 0xA0 SHL SUB SWAP2 DUP3 AND PUSH1 0x0 SWAP1 DUP2 MSTORE PUSH1 0x8 PUSH1 0x20 SWAP1 DUP2 MSTORE PUSH1 0x40 DUP1 DUP4 KECCAK256 SWAP4 SWAP1 SWAP5 AND DUP3 MSTORE SWAP2 SWAP1 SWAP2 MSTORE KECCAK256 SLOAD PUSH1 0xFF AND SWAP1 JUMP JUMPDEST CALLVALUE DUP1 ISZERO PUSH2 0x853 JUMPI PUSH1 0x0 DUP1 REVERT JUMPDEST POP PUSH2 0x2C1 PUSH2 0x862 CALLDATASIZE PUSH1 0x4 PUSH2 0x1DA7 JUMP JUMPDEST PUSH2 0x1678 JUMP JUMPDEST PUSH1 0x0 PUSH4 0x1FFC9A7 PUSH1 0xE0 SHL PUSH1 0x1 PUSH1 0x1 PUSH1 0xE0 SHL SUB NOT DUP4 AND EQ DUP1 PUSH2 0x898 JUMPI POP PUSH4 0x80AC58CD PUSH1 0xE0 SHL PUSH1 0x1 PUSH1 0x1 PUSH1 0xE0 SHL SUB NOT DUP4 AND EQ JUMPDEST DUP1 PUSH2 0x8B3 JUMPI POP PUSH4 0x5B5E139F PUSH1 0xE0 SHL PUSH1 0x1 PUSH1 0x1 PUSH1 0xE0 SHL SUB NOT DUP4 AND EQ JUMPDEST SWAP3 SWAP2 POP POP JUMP JUMPDEST PUSH2 0x8C1 PUSH2 0x16EE JUMP JUMPDEST PUSH1 0x11 DUP1 SLOAD PUSH1 0xFF NOT AND SWAP2 ISZERO ISZERO SWAP2 SWAP1 SWAP2 OR SWAP1 SSTORE JUMP JUMPDEST PUSH1 0x60 PUSH1 0x3 DUP1 SLOAD PUSH2 0x8E3 SWAP1 PUSH2 0x22AE JUMP JUMPDEST DUP1 PUSH1 0x1F ADD PUSH1 0x20 DUP1 SWAP2 DIV MUL PUSH1 0x20 ADD PUSH1 0x40 MLOAD SWAP1 DUP2 ADD PUSH1 0x40 MSTORE DUP1 SWAP3 SWAP2 SWAP1 DUP2 DUP2 MSTORE PUSH1 0x20 ADD DUP3 DUP1 SLOAD PUSH2 0x90F SWAP1 PUSH2 0x22AE JUMP JUMPDEST DUP1 ISZERO PUSH2 0x95C JUMPI DUP1 PUSH1 0x1F LT PUSH2 0x931 JUMPI PUSH2 0x100 DUP1 DUP4 SLOAD DIV MUL DUP4 MSTORE SWAP2 PUSH1 0x20 ADD SWAP2 PUSH2 0x95C JUMP JUMPDEST DUP3 ADD SWAP2 SWAP1 PUSH1 0x0 MSTORE PUSH1 0x20 PUSH1 0x0 KECCAK256 SWAP1 JUMPDEST DUP2 SLOAD DUP2 MSTORE SWAP1 PUSH1 0x1 ADD SWAP1 PUSH1 0x20 ADD DUP1 DUP4 GT PUSH2 0x93F JUMPI DUP3 SWAP1 SUB PUSH1 0x1F AND DUP3 ADD SWAP2 JUMPDEST POP POP POP POP POP SWAP1 POP SWAP1 JUMP JUMPDEST PUSH1 0x0 PUSH2 0x971 DUP3 PUSH2 0x1748 JUMP JUMPDEST PUSH2 0x98E JUMPI PUSH1 0x40 MLOAD PUSH4 0x33D1C039 PUSH1 0xE2 SHL DUP2 MSTORE PUSH1 0x4 ADD PUSH1 0x40 MLOAD DUP1 SWAP2 SUB SWAP1 REVERT JUMPDEST POP PUSH1 0x0 SWAP1 DUP2 MSTORE PUSH1 0x7 PUSH1 0x20 MSTORE PUSH1 0x40 SWAP1 KECCAK256 SLOAD PUSH1 0x1 PUSH1 0x1 PUSH1 0xA0 SHL SUB AND SWAP1 JUMP JUMPDEST PUSH1 0x0 PUSH2 0x9B5 DUP3 PUSH2 0xDBC JUMP JUMPDEST SWAP1 POP CALLER PUSH1 0x1 PUSH1 0x1 PUSH1 0xA0 SHL SUB DUP3 AND EQ PUSH2 0x9EE JUMPI PUSH2 0x9D1 DUP2 CALLER PUSH2 0x819 JUMP JUMPDEST PUSH2 0x9EE JUMPI PUSH1 0x40 MLOAD PUSH4 0x67D9DCA1 PUSH1 0xE1 SHL DUP2 MSTORE PUSH1 0x4 ADD PUSH1 0x40 MLOAD DUP1 SWAP2 SUB SWAP1 REVERT JUMPDEST PUSH1 0x0 DUP3 DUP2 MSTORE PUSH1 0x7 PUSH1 0x20 MSTORE PUSH1 0x40 DUP1 DUP3 KECCAK256 DUP1 SLOAD PUSH1 0x1 PUSH1 0x1 PUSH1 0xA0 SHL SUB NOT AND PUSH1 0x1 PUSH1 0x1 PUSH1 0xA0 SHL SUB DUP8 DUP2 AND SWAP2 DUP3 OR SWAP1 SWAP3 SSTORE SWAP2 MLOAD DUP6 SWAP4 SWAP2 DUP6 AND SWAP2 PUSH32 0x8C5BE1E5EBEC7D5BD14F71427D1E84F3DD0314C0F7B2291E5B200AC8C7C3B925 SWAP2 LOG4 POP POP POP JUMP JUMPDEST PUSH2 0xA52 PUSH2 0x16EE JUMP JUMPDEST PUSH1 0x0 SWAP1 DUP2 MSTORE PUSH1 0x12 PUSH1 0x20 MSTORE PUSH1 0x40 SWAP1 KECCAK256 DUP1 SLOAD PUSH1 0xFF NOT AND SWAP2 ISZERO ISZERO SWAP2 SWAP1 SWAP2 OR SWAP1 SSTORE JUMP JUMPDEST PUSH2 0xA79 PUSH2 0x16EE JUMP JUMPDEST PUSH1 0x0 JUMPDEST DUP2 DUP2 LT ISZERO PUSH2 0xAEB JUMPI PUSH1 0x0 PUSH1 0x16 PUSH1 0x0 DUP6 DUP6 DUP6 DUP2 DUP2 LT PUSH2 0xA9C JUMPI PUSH2 0xA9C PUSH2 0x233E JUMP JUMPDEST SWAP1 POP PUSH1 0x20 MUL ADD PUSH1 0x20 DUP2 ADD SWAP1 PUSH2 0xAB1 SWAP2 SWAP1 PUSH2 0x1DA7 JUMP JUMPDEST PUSH1 0x1 PUSH1 0x1 PUSH1 0xA0 SHL SUB AND DUP2 MSTORE PUSH1 0x20 DUP2 ADD SWAP2 SWAP1 SWAP2 MSTORE PUSH1 0x40 ADD PUSH1 0x0 KECCAK256 DUP1 SLOAD PUSH1 0xFF NOT AND SWAP2 ISZERO ISZERO SWAP2 SWAP1 SWAP2 OR SWAP1 SSTORE DUP1 PUSH2 0xAE3 DUP2 PUSH2 0x22E3 JUMP JUMPDEST SWAP2 POP POP PUSH2 0xA7C JUMP JUMPDEST POP POP POP JUMP JUMPDEST PUSH2 0xAF8 PUSH2 0x16EE JUMP JUMPDEST PUSH1 0x15 DUP1 SLOAD PUSH1 0xFF NOT AND SWAP2 ISZERO ISZERO SWAP2 SWAP1 SWAP2 OR SWAP1 SSTORE JUMP JUMPDEST PUSH1 0x0 PUSH2 0xB16 DUP3 PUSH2 0x1770 JUMP JUMPDEST SWAP1 POP DUP4 PUSH1 0x1 PUSH1 0x1 PUSH1 0xA0 SHL SUB AND DUP2 PUSH1 0x1 PUSH1 0x1 PUSH1 0xA0 SHL SUB AND EQ PUSH2 0xB49 JUMPI PUSH1 0x40 MLOAD PUSH3 0xA11481 PUSH1 0xE8 SHL DUP2 MSTORE PUSH1 0x4 ADD PUSH1 0x40 MLOAD DUP1 SWAP2 SUB SWAP1 REVERT JUMPDEST PUSH1 0x0 DUP3 DUP2 MSTORE PUSH1 0x7 PUSH1 0x20 MSTORE PUSH1 0x40 SWAP1 KECCAK256 DUP1 SLOAD CALLER DUP1 DUP3 EQ PUSH1 0x1 PUSH1 0x1 PUSH1 0xA0 SHL SUB DUP9 AND SWAP1 SWAP2 EQ OR PUSH2 0xB96 JUMPI PUSH2 0xB79 DUP7 CALLER PUSH2 0x819 JUMP JUMPDEST PUSH2 0xB96 JUMPI PUSH1 0x40 MLOAD PUSH4 0x2CE44B5F PUSH1 0xE1 SHL DUP2 MSTORE PUSH1 0x4 ADD PUSH1 0x40 MLOAD DUP1 SWAP2 SUB SWAP1 REVERT JUMPDEST PUSH1 0x1 PUSH1 0x1 PUSH1 0xA0 SHL SUB DUP6 AND PUSH2 0xBBD JUMPI PUSH1 0x40 MLOAD PUSH4 0x3A954ECD PUSH1 0xE2 SHL DUP2 MSTORE PUSH1 0x4 ADD PUSH1 0x40 MLOAD DUP1 SWAP2 SUB SWAP1 REVERT JUMPDEST DUP1 ISZERO PUSH2 0xBC8 JUMPI PUSH1 0x0 DUP3 SSTORE JUMPDEST PUSH1 0x1 PUSH1 0x1 PUSH1 0xA0 SHL SUB DUP7 DUP2 AND PUSH1 0x0 SWAP1 DUP2 MSTORE PUSH1 0x6 PUSH1 0x20 MSTORE PUSH1 0x40 DUP1 DUP3 KECCAK256 DUP1 SLOAD PUSH1 0x0 NOT ADD SWAP1 SSTORE SWAP2 DUP8 AND DUP1 DUP3 MSTORE SWAP2 SWAP1 KECCAK256 DUP1 SLOAD PUSH1 0x1 ADD SWAP1 SSTORE TIMESTAMP PUSH1 0xA0 SHL OR PUSH1 0x1 PUSH1 0xE1 SHL OR PUSH1 0x0 DUP6 DUP2 MSTORE PUSH1 0x5 PUSH1 0x20 MSTORE PUSH1 0x40 SWAP1 KECCAK256 SSTORE PUSH1 0x1 PUSH1 0xE1 SHL DUP4 AND PUSH2 0xC53 JUMPI PUSH1 0x1 DUP5 ADD PUSH1 0x0 DUP2 DUP2 MSTORE PUSH1 0x5 PUSH1 0x20 MSTORE PUSH1 0x40 SWAP1 KECCAK256 SLOAD PUSH2 0xC51 JUMPI PUSH1 0x1 SLOAD DUP2 EQ PUSH2 0xC51 JUMPI PUSH1 0x0 DUP2 DUP2 MSTORE PUSH1 0x5 PUSH1 0x20 MSTORE PUSH1 0x40 SWAP1 KECCAK256 DUP5 SWAP1 SSTORE JUMPDEST POP JUMPDEST DUP4 DUP6 PUSH1 0x1 PUSH1 0x1 PUSH1 0xA0 SHL SUB AND DUP8 PUSH1 0x1 PUSH1 0x1 PUSH1 0xA0 SHL SUB AND PUSH32 0xDDF252AD1BE2C89B69C2B068FC378DAA952BA7F163C4A11628F55A4DF523B3EF PUSH1 0x40 MLOAD PUSH1 0x40 MLOAD DUP1 SWAP2 SUB SWAP1 LOG4 POP POP POP POP POP POP JUMP JUMPDEST PUSH2 0xCA4 PUSH2 0x16EE JUMP JUMPDEST PUSH1 0x0 DUP1 SLOAD PUSH1 0x40 MLOAD PUSH1 0x1 PUSH1 0x1 PUSH1 0xA0 SHL SUB SWAP1 SWAP2 AND SWAP2 SELFBALANCE DUP1 ISZERO PUSH2 0x8FC MUL SWAP3 SWAP1 SWAP2 DUP2 DUP2 DUP2 DUP6 DUP9 DUP9 CALL SWAP4 POP POP POP POP ISZERO DUP1 ISZERO PUSH2 0xCDE JUMPI RETURNDATASIZE PUSH1 0x0 DUP1 RETURNDATACOPY RETURNDATASIZE PUSH1 0x0 REVERT JUMPDEST POP JUMP JUMPDEST PUSH2 0xAEB DUP4 DUP4 DUP4 PUSH1 0x40 MLOAD DUP1 PUSH1 0x20 ADD PUSH1 0x40 MSTORE DUP1 PUSH1 0x0 DUP2 MSTORE POP PUSH2 0x13AB JUMP JUMPDEST PUSH2 0xD04 PUSH2 0x16EE JUMP JUMPDEST DUP1 MLOAD PUSH2 0xD17 SWAP1 PUSH1 0xA SWAP1 PUSH1 0x20 DUP5 ADD SWAP1 PUSH2 0x1C4C JUMP JUMPDEST POP POP JUMP JUMPDEST PUSH2 0xD23 PUSH2 0x16EE JUMP JUMPDEST PUSH1 0x0 JUMPDEST DUP2 DUP2 LT ISZERO PUSH2 0xAEB JUMPI PUSH1 0x1 PUSH1 0x16 PUSH1 0x0 DUP6 DUP6 DUP6 DUP2 DUP2 LT PUSH2 0xD46 JUMPI PUSH2 0xD46 PUSH2 0x233E JUMP JUMPDEST SWAP1 POP PUSH1 0x20 MUL ADD PUSH1 0x20 DUP2 ADD SWAP1 PUSH2 0xD5B SWAP2 SWAP1 PUSH2 0x1DA7 JUMP JUMPDEST PUSH1 0x1 PUSH1 0x1 PUSH1 0xA0 SHL SUB AND DUP2 MSTORE PUSH1 0x20 DUP2 ADD SWAP2 SWAP1 SWAP2 MSTORE PUSH1 0x40 ADD PUSH1 0x0 KECCAK256 DUP1 SLOAD PUSH1 0xFF NOT AND SWAP2 ISZERO ISZERO SWAP2 SWAP1 SWAP2 OR SWAP1 SSTORE DUP1 PUSH2 0xD8D DUP2 PUSH2 0x22E3 JUMP JUMPDEST SWAP2 POP POP PUSH2 0xD26 JUMP JUMPDEST PUSH2 0xD9D PUSH2 0x16EE JUMP JUMPDEST PUSH1 0x0 DUP2 DUP2 MSTORE PUSH1 0xB PUSH1 0x20 SWAP1 DUP2 MSTORE PUSH1 0x40 SWAP1 SWAP2 KECCAK256 DUP4 MLOAD PUSH2 0xAEB SWAP3 DUP6 ADD SWAP1 PUSH2 0x1C4C JUMP JUMPDEST PUSH1 0x0 PUSH2 0x8B3 DUP3 PUSH2 0x1770 JUMP JUMPDEST PUSH1 0x0 PUSH1 0x1 PUSH1 0x1 PUSH1 0xA0 SHL SUB DUP3 AND PUSH2 0xDF0 JUMPI PUSH1 0x40 MLOAD PUSH4 0x23D3AD81 PUSH1 0xE2 SHL DUP2 MSTORE PUSH1 0x4 ADD PUSH1 0x40 MLOAD DUP1 SWAP2 SUB SWAP1 REVERT JUMPDEST POP PUSH1 0x1 PUSH1 0x1 PUSH1 0xA0 SHL SUB AND PUSH1 0x0 SWAP1 DUP2 MSTORE PUSH1 0x6 PUSH1 0x20 MSTORE PUSH1 0x40 SWAP1 KECCAK256 SLOAD PUSH8 0xFFFFFFFFFFFFFFFF AND SWAP1 JUMP JUMPDEST PUSH2 0xE1E PUSH2 0x16EE JUMP JUMPDEST PUSH2 0xE28 PUSH1 0x0 PUSH2 0x17D8 JUMP JUMPDEST JUMP JUMPDEST PUSH1 0x60 PUSH1 0x4 DUP1 SLOAD PUSH2 0x8E3 SWAP1 PUSH2 0x22AE JUMP JUMPDEST PUSH1 0x0 PUSH2 0xE48 PUSH1 0x2 SLOAD PUSH1 0x1 SLOAD SUB SWAP1 JUMP JUMPDEST PUSH1 0x11 SLOAD SWAP1 SWAP2 POP PUSH1 0xFF AND ISZERO PUSH2 0xEEF JUMPI PUSH1 0x40 MLOAD PUSH3 0x461BCD PUSH1 0xE5 SHL DUP2 MSTORE PUSH1 0x20 PUSH1 0x4 DUP3 ADD MSTORE PUSH1 0x5F PUSH1 0x24 DUP3 ADD MSTORE PUSH32 0x574F414820686F6C6420757020746865206D696E74206973206E6F7420796574 PUSH1 0x44 DUP3 ADD MSTORE PUSH32 0x206C6976652C2061206C6974746C6520746F6F206561726C792074686572652E PUSH1 0x64 DUP3 ADD MSTORE PUSH32 0x2E2E206F72206C6174653F205472616E736D697373696F6E20456E64696E6700 PUSH1 0x84 DUP3 ADD MSTORE PUSH1 0xA4 ADD JUMPDEST PUSH1 0x40 MLOAD DUP1 SWAP2 SUB SWAP1 REVERT JUMPDEST PUSH1 0x0 DUP3 GT PUSH2 0xF65 JUMPI PUSH1 0x40 MLOAD PUSH3 0x461BCD PUSH1 0xE5 SHL DUP2 MSTORE PUSH1 0x20 PUSH1 0x4 DUP3 ADD MSTORE PUSH1 0x3F PUSH1 0x24 DUP3 ADD MSTORE PUSH32 0x6D757374206D696E74206174206C656173742031206E66742C2030206973206E PUSH1 0x44 DUP3 ADD MSTORE PUSH32 0x6F7420616C6C6F7765642E205472616E736D697373696F6E20456E64696E6700 PUSH1 0x64 DUP3 ADD MSTORE PUSH1 0x84 ADD PUSH2 0xEE6 JUMP JUMPDEST PUSH1 0xF SLOAD PUSH2 0xF72 DUP4 DUP4 PUSH2 0x2220 JUMP JUMPDEST GT ISZERO PUSH2 0xFDC JUMPI PUSH1 0x40 MLOAD PUSH3 0x461BCD PUSH1 0xE5 SHL DUP2 MSTORE PUSH1 0x20 PUSH1 0x4 DUP3 ADD MSTORE PUSH1 0x33 PUSH1 0x24 DUP3 ADD MSTORE PUSH32 0x5468697320736574206F66207368697274732068617665206265656E206D696E PUSH1 0x44 DUP3 ADD MSTORE PUSH19 0x3A32B21030B63932B0B23C961039B7B9393C97 PUSH1 0x69 SHL PUSH1 0x64 DUP3 ADD MSTORE PUSH1 0x84 ADD PUSH2 0xEE6 JUMP JUMPDEST PUSH1 0xE SLOAD PUSH2 0xFE9 DUP4 DUP4 PUSH2 0x2220 JUMP JUMPDEST GT ISZERO PUSH2 0x1055 JUMPI PUSH1 0x40 MLOAD PUSH3 0x461BCD PUSH1 0xE5 SHL DUP2 MSTORE PUSH1 0x20 PUSH1 0x4 DUP3 ADD MSTORE PUSH1 0x35 PUSH1 0x24 DUP3 ADD MSTORE PUSH32 0x6C6F6F6B73206C696B652077652061726520706F70756C6172206D6178207375 PUSH1 0x44 DUP3 ADD MSTORE PUSH21 0x1C1C1B1E481A185CC81899595B881C995858DA1959 PUSH1 0x5A SHL PUSH1 0x64 DUP3 ADD MSTORE PUSH1 0x84 ADD PUSH2 0xEE6 JUMP JUMPDEST PUSH1 0x0 SLOAD PUSH1 0x1 PUSH1 0x1 PUSH1 0xA0 SHL SUB AND CALLER EQ PUSH2 0x11C0 JUMPI PUSH1 0x1 DUP3 GT ISZERO PUSH2 0x10AF JUMPI PUSH1 0x40 MLOAD PUSH3 0x461BCD PUSH1 0xE5 SHL DUP2 MSTORE PUSH1 0x20 PUSH1 0x4 DUP3 ADD MSTORE PUSH1 0x14 PUSH1 0x24 DUP3 ADD MSTORE PUSH20 0x37B7363C90189030BA1030903A34B6B2901D149 PUSH1 0x65 SHL PUSH1 0x44 DUP3 ADD MSTORE PUSH1 0x64 ADD PUSH2 0xEE6 JUMP JUMPDEST PUSH1 0x15 SLOAD PUSH1 0xFF AND ISZERO ISZERO PUSH1 0x1 EQ ISZERO PUSH2 0x116E JUMPI CALLER PUSH1 0x0 SWAP1 DUP2 MSTORE PUSH1 0x16 PUSH1 0x20 MSTORE PUSH1 0x40 SWAP1 KECCAK256 SLOAD PUSH1 0xFF AND PUSH2 0x1110 JUMPI PUSH1 0x40 MLOAD PUSH3 0x461BCD PUSH1 0xE5 SHL DUP2 MSTORE PUSH1 0x20 PUSH1 0x4 DUP3 ADD MSTORE PUSH1 0xF PUSH1 0x24 DUP3 ADD MSTORE PUSH15 0x139BDD08105B1B1BDDDB1A5CDD1959 PUSH1 0x8A SHL PUSH1 0x44 DUP3 ADD MSTORE PUSH1 0x64 ADD PUSH2 0xEE6 JUMP JUMPDEST CALLER PUSH1 0x0 SWAP1 DUP2 MSTORE PUSH1 0x17 PUSH1 0x20 MSTORE PUSH1 0x40 SWAP1 KECCAK256 SLOAD PUSH1 0x10 SLOAD PUSH2 0x112D DUP5 DUP4 PUSH2 0x2220 JUMP JUMPDEST GT ISZERO PUSH2 0x116C JUMPI PUSH1 0x40 MLOAD PUSH3 0x461BCD PUSH1 0xE5 SHL DUP2 MSTORE PUSH1 0x20 PUSH1 0x4 DUP3 ADD MSTORE PUSH1 0xE PUSH1 0x24 DUP3 ADD MSTORE PUSH14 0x105B1C9958591E481B5A5B9D1959 PUSH1 0x92 SHL PUSH1 0x44 DUP3 ADD MSTORE PUSH1 0x64 ADD PUSH2 0xEE6 JUMP JUMPDEST POP JUMPDEST DUP2 PUSH1 0xD SLOAD PUSH2 0x117C SWAP2 SWAP1 PUSH2 0x224C JUMP JUMPDEST CALLVALUE LT ISZERO PUSH2 0x11C0 JUMPI PUSH1 0x40 MLOAD PUSH3 0x461BCD PUSH1 0xE5 SHL DUP2 MSTORE PUSH1 0x20 PUSH1 0x4 DUP3 ADD MSTORE PUSH1 0x12 PUSH1 0x24 DUP3 ADD MSTORE PUSH18 0x86DEE6E840C8DECAE6DC4EE840DAC2E8C6D PUSH1 0x73 SHL PUSH1 0x44 DUP3 ADD MSTORE PUSH1 0x64 ADD PUSH2 0xEE6 JUMP JUMPDEST PUSH2 0x11CA CALLER DUP4 PUSH2 0x1828 JUMP JUMPDEST CALLER PUSH1 0x0 SWAP1 DUP2 MSTORE PUSH1 0x17 PUSH1 0x20 MSTORE PUSH1 0x40 DUP2 KECCAK256 DUP1 SLOAD DUP5 SWAP3 SWAP1 PUSH2 0x11E9 SWAP1 DUP5 SWAP1 PUSH2 0x2220 JUMP JUMPDEST SWAP1 SWAP2 SSTORE POP POP POP POP JUMP JUMPDEST CALLER PUSH1 0x0 DUP2 DUP2 MSTORE PUSH1 0x8 PUSH1 0x20 SWAP1 DUP2 MSTORE PUSH1 0x40 DUP1 DUP4 KECCAK256 PUSH1 0x1 PUSH1 0x1 PUSH1 0xA0 SHL SUB DUP8 AND DUP1 DUP6 MSTORE SWAP1 DUP4 MSTORE SWAP3 DUP2 SWAP1 KECCAK256 DUP1 SLOAD PUSH1 0xFF NOT AND DUP7 ISZERO ISZERO SWAP1 DUP2 OR SWAP1 SWAP2 SSTORE SWAP1 MLOAD SWAP1 DUP2 MSTORE SWAP2 SWAP3 SWAP2 PUSH32 0x17307EAB39AB6107E8899845AD3D59BD9653F200F220920489CA2B5937696C31 SWAP2 ADD PUSH1 0x40 MLOAD DUP1 SWAP2 SUB SWAP1 LOG3 POP POP JUMP JUMPDEST CALLER PUSH2 0x1268 DUP4 PUSH2 0xDBC JUMP JUMPDEST PUSH1 0x1 PUSH1 0x1 PUSH1 0xA0 SHL SUB AND EQ PUSH2 0x12BE JUMPI PUSH1 0x40 MLOAD PUSH3 0x461BCD PUSH1 0xE5 SHL DUP2 MSTORE PUSH1 0x20 PUSH1 0x4 DUP3 ADD MSTORE PUSH1 0x1B PUSH1 0x24 DUP3 ADD MSTORE PUSH32 0x736F72727920796F7520617265206E6F7420746865206F776E65720000000000 PUSH1 0x44 DUP3 ADD MSTORE PUSH1 0x64 ADD PUSH2 0xEE6 JUMP JUMPDEST PUSH1 0x0 DUP2 DUP2 MSTORE PUSH1 0x12 PUSH1 0x20 MSTORE PUSH1 0x40 SWAP1 KECCAK256 SLOAD PUSH1 0xFF AND PUSH2 0x131C JUMPI PUSH1 0x40 MLOAD PUSH3 0x461BCD PUSH1 0xE5 SHL DUP2 MSTORE PUSH1 0x20 PUSH1 0x4 DUP3 ADD MSTORE PUSH1 0x17 PUSH1 0x24 DUP3 ADD MSTORE PUSH32 0x636C61696D206973206E6F742061637469766520796574000000000000000000 PUSH1 0x44 DUP3 ADD MSTORE PUSH1 0x64 ADD PUSH2 0xEE6 JUMP JUMPDEST PUSH1 0x0 DUP3 DUP2 MSTORE PUSH1 0x13 PUSH1 0x20 SWAP1 DUP2 MSTORE PUSH1 0x40 DUP1 DUP4 KECCAK256 DUP5 DUP5 MSTORE SWAP1 SWAP2 MSTORE SWAP1 KECCAK256 SLOAD PUSH1 0xFF AND ISZERO PUSH2 0x1379 JUMPI PUSH1 0x40 MLOAD PUSH3 0x461BCD PUSH1 0xE5 SHL DUP2 MSTORE PUSH1 0x20 PUSH1 0x4 DUP3 ADD MSTORE PUSH1 0x10 PUSH1 0x24 DUP3 ADD MSTORE PUSH16 0x616C726561647920636C61696D656421 PUSH1 0x80 SHL PUSH1 0x44 DUP3 ADD MSTORE PUSH1 0x64 ADD PUSH2 0xEE6 JUMP JUMPDEST PUSH1 0x0 DUP3 DUP2 MSTORE PUSH1 0x13 PUSH1 0x20 SWAP1 DUP2 MSTORE PUSH1 0x40 DUP1 DUP4 KECCAK256 DUP5 DUP5 MSTORE DUP3 MSTORE DUP1 DUP4 KECCAK256 DUP1 SLOAD PUSH1 0xFF NOT AND PUSH1 0x1 OR SWAP1 SSTORE SWAP4 DUP3 MSTORE PUSH1 0x14 SWAP1 MSTORE SWAP2 SWAP1 SWAP2 KECCAK256 SSTORE JUMP JUMPDEST PUSH2 0x13B6 DUP5 DUP5 DUP5 PUSH2 0xB0B JUMP JUMPDEST PUSH1 0x1 PUSH1 0x1 PUSH1 0xA0 SHL SUB DUP4 AND EXTCODESIZE ISZERO PUSH2 0x13EF JUMPI PUSH2 0x13D2 DUP5 DUP5 DUP5 DUP5 PUSH2 0x1842 JUMP JUMPDEST PUSH2 0x13EF JUMPI PUSH1 0x40 MLOAD PUSH4 0x68D2BF6B PUSH1 0xE1 SHL DUP2 MSTORE PUSH1 0x4 ADD PUSH1 0x40 MLOAD DUP1 SWAP2 SUB SWAP1 REVERT JUMPDEST POP POP POP POP JUMP JUMPDEST PUSH2 0x13FD PUSH2 0x16EE JUMP JUMPDEST PUSH1 0xF SSTORE JUMP JUMPDEST PUSH1 0xC DUP1 SLOAD PUSH2 0x140F SWAP1 PUSH2 0x22AE JUMP JUMPDEST DUP1 PUSH1 0x1F ADD PUSH1 0x20 DUP1 SWAP2 DIV MUL PUSH1 0x20 ADD PUSH1 0x40 MLOAD SWAP1 DUP2 ADD PUSH1 0x40 MSTORE DUP1 SWAP3 SWAP2 SWAP1 DUP2 DUP2 MSTORE PUSH1 0x20 ADD DUP3 DUP1 SLOAD PUSH2 0x143B SWAP1 PUSH2 0x22AE JUMP JUMPDEST DUP1 ISZERO PUSH2 0x1488 JUMPI DUP1 PUSH1 0x1F LT PUSH2 0x145D JUMPI PUSH2 0x100 DUP1 DUP4 SLOAD DIV MUL DUP4 MSTORE SWAP2 PUSH1 0x20 ADD SWAP2 PUSH2 0x1488 JUMP JUMPDEST DUP3 ADD SWAP2 SWAP1 PUSH1 0x0 MSTORE PUSH1 0x20 PUSH1 0x0 KECCAK256 SWAP1 JUMPDEST DUP2 SLOAD DUP2 MSTORE SWAP1 PUSH1 0x1 ADD SWAP1 PUSH1 0x20 ADD DUP1 DUP4 GT PUSH2 0x146B JUMPI DUP3 SWAP1 SUB PUSH1 0x1F AND DUP3 ADD SWAP2 JUMPDEST POP POP POP POP POP DUP2 JUMP JUMPDEST PUSH1 0x60 PUSH2 0x149B DUP3 PUSH2 0x1748 JUMP JUMPDEST PUSH2 0x14FF JUMPI PUSH1 0x40 MLOAD PUSH3 0x461BCD PUSH1 0xE5 SHL DUP2 MSTORE PUSH1 0x20 PUSH1 0x4 DUP3 ADD MSTORE PUSH1 0x2F PUSH1 0x24 DUP3 ADD MSTORE PUSH32 0x4552433732314D657461646174613A2055524920717565727920666F72206E6F PUSH1 0x44 DUP3 ADD MSTORE PUSH15 0x3732BC34B9BA32B73A103A37B5B2B7 PUSH1 0x89 SHL PUSH1 0x64 DUP3 ADD MSTORE PUSH1 0x84 ADD PUSH2 0xEE6 JUMP JUMPDEST PUSH1 0x0 DUP3 DUP2 MSTORE PUSH1 0x14 PUSH1 0x20 MSTORE PUSH1 0x40 SWAP1 KECCAK256 SLOAD DUP1 ISZERO PUSH2 0x1575 JUMPI PUSH1 0x0 PUSH2 0x151F DUP3 PUSH2 0x1939 JUMP JUMPDEST SWAP1 POP PUSH1 0x0 DUP2 MLOAD GT PUSH2 0x153F JUMPI PUSH1 0x40 MLOAD DUP1 PUSH1 0x20 ADD PUSH1 0x40 MSTORE DUP1 PUSH1 0x0 DUP2 MSTORE POP PUSH2 0x156D JUMP JUMPDEST DUP1 PUSH2 0x1549 DUP6 PUSH2 0x19DB JUMP JUMPDEST PUSH1 0xC PUSH1 0x40 MLOAD PUSH1 0x20 ADD PUSH2 0x155D SWAP4 SWAP3 SWAP2 SWAP1 PUSH2 0x20C8 JUMP JUMPDEST PUSH1 0x40 MLOAD PUSH1 0x20 DUP2 DUP4 SUB SUB DUP2 MSTORE SWAP1 PUSH1 0x40 MSTORE JUMPDEST SWAP5 SWAP4 POP POP POP POP JUMP JUMPDEST PUSH1 0x0 PUSH2 0x151F PUSH2 0x1AD9 JUMP JUMPDEST POP SWAP2 SWAP1 POP JUMP JUMPDEST PUSH1 0x60 PUSH1 0x0 PUSH2 0x1596 PUSH1 0x2 SLOAD PUSH1 0x1 SLOAD SUB SWAP1 JUMP JUMPDEST SWAP1 POP PUSH1 0x0 PUSH2 0x15A3 DUP5 PUSH2 0xDC7 JUMP JUMPDEST PUSH8 0xFFFFFFFFFFFFFFFF DUP2 GT ISZERO PUSH2 0x15BB JUMPI PUSH2 0x15BB PUSH2 0x2354 JUMP JUMPDEST PUSH1 0x40 MLOAD SWAP1 DUP1 DUP3 MSTORE DUP1 PUSH1 0x20 MUL PUSH1 0x20 ADD DUP3 ADD PUSH1 0x40 MSTORE DUP1 ISZERO PUSH2 0x15E4 JUMPI DUP2 PUSH1 0x20 ADD PUSH1 0x20 DUP3 MUL DUP1 CALLDATASIZE DUP4 CALLDATACOPY ADD SWAP1 POP JUMPDEST POP SWAP1 POP PUSH1 0x0 DUP1 JUMPDEST DUP4 DUP2 LT ISZERO PUSH2 0x1653 JUMPI DUP6 PUSH1 0x1 PUSH1 0x1 PUSH1 0xA0 SHL SUB AND PUSH2 0x1606 DUP3 PUSH2 0xDBC JUMP JUMPDEST PUSH1 0x1 PUSH1 0x1 PUSH1 0xA0 SHL SUB AND EQ ISZERO PUSH2 0x1641 JUMPI DUP1 DUP4 DUP4 DUP2 MLOAD DUP2 LT PUSH2 0x1628 JUMPI PUSH2 0x1628 PUSH2 0x233E JUMP JUMPDEST PUSH1 0x20 SWAP1 DUP2 MUL SWAP2 SWAP1 SWAP2 ADD ADD MSTORE DUP2 PUSH2 0x163D DUP2 PUSH2 0x22E3 JUMP JUMPDEST SWAP3 POP POP JUMPDEST DUP1 PUSH2 0x164B DUP2 PUSH2 0x22E3 JUMP JUMPDEST SWAP2 POP POP PUSH2 0x15EB JUMP JUMPDEST POP SWAP1 SWAP5 SWAP4 POP POP POP POP JUMP JUMPDEST PUSH2 0x1665 PUSH2 0x16EE JUMP JUMPDEST DUP1 MLOAD PUSH2 0xD17 SWAP1 PUSH1 0xC SWAP1 PUSH1 0x20 DUP5 ADD SWAP1 PUSH2 0x1C4C JUMP JUMPDEST PUSH2 0x1680 PUSH2 0x16EE JUMP JUMPDEST PUSH1 0x1 PUSH1 0x1 PUSH1 0xA0 SHL SUB DUP2 AND PUSH2 0x16E5 JUMPI PUSH1 0x40 MLOAD PUSH3 0x461BCD PUSH1 0xE5 SHL DUP2 MSTORE PUSH1 0x20 PUSH1 0x4 DUP3 ADD MSTORE PUSH1 0x26 PUSH1 0x24 DUP3 ADD MSTORE PUSH32 0x4F776E61626C653A206E6577206F776E657220697320746865207A65726F2061 PUSH1 0x44 DUP3 ADD MSTORE PUSH6 0x646472657373 PUSH1 0xD0 SHL PUSH1 0x64 DUP3 ADD MSTORE PUSH1 0x84 ADD PUSH2 0xEE6 JUMP JUMPDEST PUSH2 0xCDE DUP2 PUSH2 0x17D8 JUMP JUMPDEST PUSH1 0x0 SLOAD PUSH1 0x1 PUSH1 0x1 PUSH1 0xA0 SHL SUB AND CALLER EQ PUSH2 0xE28 JUMPI PUSH1 0x40 MLOAD PUSH3 0x461BCD PUSH1 0xE5 SHL DUP2 MSTORE PUSH1 0x20 PUSH1 0x4 DUP3 ADD DUP2 SWAP1 MSTORE PUSH1 0x24 DUP3 ADD MSTORE PUSH32 0x4F776E61626C653A2063616C6C6572206973206E6F7420746865206F776E6572 PUSH1 0x44 DUP3 ADD MSTORE PUSH1 0x64 ADD PUSH2 0xEE6 JUMP JUMPDEST PUSH1 0x0 PUSH1 0x1 SLOAD DUP3 LT DUP1 ISZERO PUSH2 0x8B3 JUMPI POP POP PUSH1 0x0 SWAP1 DUP2 MSTORE PUSH1 0x5 PUSH1 0x20 MSTORE PUSH1 0x40 SWAP1 KECCAK256 SLOAD PUSH1 0x1 PUSH1 0xE0 SHL AND ISZERO SWAP1 JUMP JUMPDEST PUSH1 0x0 DUP2 PUSH1 0x1 SLOAD DUP2 LT ISZERO PUSH2 0x17BF JUMPI PUSH1 0x0 DUP2 DUP2 MSTORE PUSH1 0x5 PUSH1 0x20 MSTORE PUSH1 0x40 SWAP1 KECCAK256 SLOAD PUSH1 0x1 PUSH1 0xE0 SHL DUP2 AND PUSH2 0x17BD JUMPI JUMPDEST DUP1 PUSH2 0x17B6 JUMPI POP PUSH1 0x0 NOT ADD PUSH1 0x0 DUP2 DUP2 MSTORE PUSH1 0x5 PUSH1 0x20 MSTORE PUSH1 0x40 SWAP1 KECCAK256 SLOAD PUSH2 0x1798 JUMP JUMPDEST SWAP4 SWAP3 POP POP POP JUMP JUMPDEST POP JUMPDEST PUSH1 0x40 MLOAD PUSH4 0x6F96CDA1 PUSH1 0xE1 SHL DUP2 MSTORE PUSH1 0x4 ADD PUSH1 0x40 MLOAD DUP1 SWAP2 SUB SWAP1 REVERT JUMPDEST PUSH1 0x0 DUP1 SLOAD PUSH1 0x1 PUSH1 0x1 PUSH1 0xA0 SHL SUB DUP4 DUP2 AND PUSH1 0x1 PUSH1 0x1 PUSH1 0xA0 SHL SUB NOT DUP4 AND DUP2 OR DUP5 SSTORE PUSH1 0x40 MLOAD SWAP2 SWAP1 SWAP3 AND SWAP3 DUP4 SWAP2 PUSH32 0x8BE0079C531659141344CD1FD0A4F28419497F9722A3DAAFE3B4186F6B6457E0 SWAP2 SWAP1 LOG3 POP POP JUMP JUMPDEST PUSH2 0xD17 DUP3 DUP3 PUSH1 0x40 MLOAD DUP1 PUSH1 0x20 ADD PUSH1 0x40 MSTORE DUP1 PUSH1 0x0 DUP2 MSTORE POP PUSH2 0x1AE8 JUMP JUMPDEST PUSH1 0x40 MLOAD PUSH4 0xA85BD01 PUSH1 0xE1 SHL DUP2 MSTORE PUSH1 0x0 SWAP1 PUSH1 0x1 PUSH1 0x1 PUSH1 0xA0 SHL SUB DUP6 AND SWAP1 PUSH4 0x150B7A02 SWAP1 PUSH2 0x1877 SWAP1 CALLER SWAP1 DUP10 SWAP1 DUP9 SWAP1 DUP9 SWAP1 PUSH1 0x4 ADD PUSH2 0x218C JUMP JUMPDEST PUSH1 0x20 PUSH1 0x40 MLOAD DUP1 DUP4 SUB DUP2 PUSH1 0x0 DUP8 DUP1 EXTCODESIZE ISZERO DUP1 ISZERO PUSH2 0x1891 JUMPI PUSH1 0x0 DUP1 REVERT JUMPDEST POP GAS CALL SWAP3 POP POP POP DUP1 ISZERO PUSH2 0x18C1 JUMPI POP PUSH1 0x40 DUP1 MLOAD PUSH1 0x1F RETURNDATASIZE SWAP1 DUP2 ADD PUSH1 0x1F NOT AND DUP3 ADD SWAP1 SWAP3 MSTORE PUSH2 0x18BE SWAP2 DUP2 ADD SWAP1 PUSH2 0x1FCA JUMP JUMPDEST PUSH1 0x1 JUMPDEST PUSH2 0x191C JUMPI RETURNDATASIZE DUP1 DUP1 ISZERO PUSH2 0x18EF JUMPI PUSH1 0x40 MLOAD SWAP2 POP PUSH1 0x1F NOT PUSH1 0x3F RETURNDATASIZE ADD AND DUP3 ADD PUSH1 0x40 MSTORE RETURNDATASIZE DUP3 MSTORE RETURNDATASIZE PUSH1 0x0 PUSH1 0x20 DUP5 ADD RETURNDATACOPY PUSH2 0x18F4 JUMP JUMPDEST PUSH1 0x60 SWAP2 POP JUMPDEST POP DUP1 MLOAD PUSH2 0x1914 JUMPI PUSH1 0x40 MLOAD PUSH4 0x68D2BF6B PUSH1 0xE1 SHL DUP2 MSTORE PUSH1 0x4 ADD PUSH1 0x40 MLOAD DUP1 SWAP2 SUB SWAP1 REVERT JUMPDEST DUP1 MLOAD DUP2 PUSH1 0x20 ADD REVERT JUMPDEST PUSH1 0x1 PUSH1 0x1 PUSH1 0xE0 SHL SUB NOT AND PUSH4 0xA85BD01 PUSH1 0xE1 SHL EQ SWAP1 POP SWAP5 SWAP4 POP POP POP POP JUMP JUMPDEST PUSH1 0x0 DUP2 DUP2 MSTORE PUSH1 0xB PUSH1 0x20 MSTORE PUSH1 0x40 SWAP1 KECCAK256 DUP1 SLOAD PUSH1 0x60 SWAP2 SWAP1 PUSH2 0x1956 SWAP1 PUSH2 0x22AE JUMP JUMPDEST DUP1 PUSH1 0x1F ADD PUSH1 0x20 DUP1 SWAP2 DIV MUL PUSH1 0x20 ADD PUSH1 0x40 MLOAD SWAP1 DUP2 ADD PUSH1 0x40 MSTORE DUP1 SWAP3 SWAP2 SWAP1 DUP2 DUP2 MSTORE PUSH1 0x20 ADD DUP3 DUP1 SLOAD PUSH2 0x1982 SWAP1 PUSH2 0x22AE JUMP JUMPDEST DUP1 ISZERO PUSH2 0x19CF JUMPI DUP1 PUSH1 0x1F LT PUSH2 0x19A4 JUMPI PUSH2 0x100 DUP1 DUP4 SLOAD DIV MUL DUP4 MSTORE SWAP2 PUSH1 0x20 ADD SWAP2 PUSH2 0x19CF JUMP JUMPDEST DUP3 ADD SWAP2 SWAP1 PUSH1 0x0 MSTORE PUSH1 0x20 PUSH1 0x0 KECCAK256 SWAP1 JUMPDEST DUP2 SLOAD DUP2 MSTORE SWAP1 PUSH1 0x1 ADD SWAP1 PUSH1 0x20 ADD DUP1 DUP4 GT PUSH2 0x19B2 JUMPI DUP3 SWAP1 SUB PUSH1 0x1F AND DUP3 ADD SWAP2 JUMPDEST POP POP POP POP POP SWAP1 POP SWAP2 SWAP1 POP JUMP JUMPDEST PUSH1 0x60 DUP2 PUSH2 0x19FF JUMPI POP POP PUSH1 0x40 DUP1 MLOAD DUP1 DUP3 ADD SWAP1 SWAP2 MSTORE PUSH1 0x1 DUP2 MSTORE PUSH1 0x3 PUSH1 0xFC SHL PUSH1 0x20 DUP3 ADD MSTORE SWAP1 JUMP JUMPDEST DUP2 PUSH1 0x0 JUMPDEST DUP2 ISZERO PUSH2 0x1A29 JUMPI DUP1 PUSH2 0x1A13 DUP2 PUSH2 0x22E3 JUMP JUMPDEST SWAP2 POP PUSH2 0x1A22 SWAP1 POP PUSH1 0xA DUP4 PUSH2 0x2238 JUMP JUMPDEST SWAP2 POP PUSH2 0x1A03 JUMP JUMPDEST PUSH1 0x0 DUP2 PUSH8 0xFFFFFFFFFFFFFFFF DUP2 GT ISZERO PUSH2 0x1A44 JUMPI PUSH2 0x1A44 PUSH2 0x2354 JUMP JUMPDEST PUSH1 0x40 MLOAD SWAP1 DUP1 DUP3 MSTORE DUP1 PUSH1 0x1F ADD PUSH1 0x1F NOT AND PUSH1 0x20 ADD DUP3 ADD PUSH1 0x40 MSTORE DUP1 ISZERO PUSH2 0x1A6E JUMPI PUSH1 0x20 DUP3 ADD DUP2 DUP1 CALLDATASIZE DUP4 CALLDATACOPY ADD SWAP1 POP JUMPDEST POP SWAP1 POP JUMPDEST DUP5 ISZERO PUSH2 0x156D JUMPI PUSH2 0x1A83 PUSH1 0x1 DUP4 PUSH2 0x226B JUMP JUMPDEST SWAP2 POP PUSH2 0x1A90 PUSH1 0xA DUP7 PUSH2 0x22FE JUMP JUMPDEST PUSH2 0x1A9B SWAP1 PUSH1 0x30 PUSH2 0x2220 JUMP JUMPDEST PUSH1 0xF8 SHL DUP2 DUP4 DUP2 MLOAD DUP2 LT PUSH2 0x1AB0 JUMPI PUSH2 0x1AB0 PUSH2 0x233E JUMP JUMPDEST PUSH1 0x20 ADD ADD SWAP1 PUSH1 0x1 PUSH1 0x1 PUSH1 0xF8 SHL SUB NOT AND SWAP1 DUP2 PUSH1 0x0 BYTE SWAP1 MSTORE8 POP PUSH2 0x1AD2 PUSH1 0xA DUP7 PUSH2 0x2238 JUMP JUMPDEST SWAP5 POP PUSH2 0x1A72 JUMP JUMPDEST PUSH1 0x60 PUSH1 0xA DUP1 SLOAD PUSH2 0x8E3 SWAP1 PUSH2 0x22AE JUMP JUMPDEST PUSH2 0x1AF2 DUP4 DUP4 PUSH2 0x1B55 JUMP JUMPDEST PUSH1 0x1 PUSH1 0x1 PUSH1 0xA0 SHL SUB DUP4 AND EXTCODESIZE ISZERO PUSH2 0xAEB JUMPI PUSH1 0x1 SLOAD DUP3 DUP2 SUB JUMPDEST PUSH2 0x1B1C PUSH1 0x0 DUP7 DUP4 DUP1 PUSH1 0x1 ADD SWAP5 POP DUP7 PUSH2 0x1842 JUMP JUMPDEST PUSH2 0x1B39 JUMPI PUSH1 0x40 MLOAD PUSH4 0x68D2BF6B PUSH1 0xE1 SHL DUP2 MSTORE PUSH1 0x4 ADD PUSH1 0x40 MLOAD DUP1 SWAP2 SUB SWAP1 REVERT JUMPDEST DUP2 DUP2 LT PUSH2 0x1B09 JUMPI DUP2 PUSH1 0x1 SLOAD EQ PUSH2 0x1B4E JUMPI PUSH1 0x0 DUP1 REVERT JUMPDEST POP POP POP POP POP JUMP JUMPDEST PUSH1 0x1 SLOAD DUP2 PUSH2 0x1B76 JUMPI PUSH1 0x40 MLOAD PUSH4 0xB562E8DD PUSH1 0xE0 SHL DUP2 MSTORE PUSH1 0x4 ADD PUSH1 0x40 MLOAD DUP1 SWAP2 SUB SWAP1 REVERT JUMPDEST PUSH1 0x1 PUSH1 0x1 PUSH1 0xA0 SHL SUB DUP4 AND PUSH1 0x0 DUP2 DUP2 MSTORE PUSH1 0x6 PUSH1 0x20 SWAP1 DUP2 MSTORE PUSH1 0x40 DUP1 DUP4 KECCAK256 DUP1 SLOAD PUSH9 0x10000000000000001 DUP9 MUL ADD SWAP1 SSTORE DUP5 DUP4 MSTORE PUSH1 0x5 SWAP1 SWAP2 MSTORE DUP2 KECCAK256 PUSH1 0x1 DUP6 EQ PUSH1 0xE1 SHL TIMESTAMP PUSH1 0xA0 SHL OR DUP4 OR SWAP1 SSTORE DUP3 DUP5 ADD SWAP1 DUP4 SWAP1 DUP4 SWAP1 PUSH32 0xDDF252AD1BE2C89B69C2B068FC378DAA952BA7F163C4A11628F55A4DF523B3EF DUP2 DUP1 LOG4 PUSH1 0x1 DUP4 ADD JUMPDEST DUP2 DUP2 EQ PUSH2 0x1C25 JUMPI DUP1 DUP4 PUSH1 0x0 PUSH32 0xDDF252AD1BE2C89B69C2B068FC378DAA952BA7F163C4A11628F55A4DF523B3EF PUSH1 0x0 DUP1 LOG4 PUSH1 0x1 ADD PUSH2 0x1BED JUMP JUMPDEST POP DUP2 PUSH2 0x1C43 JUMPI PUSH1 0x40 MLOAD PUSH3 0x2E0763 PUSH1 0xE8 SHL DUP2 MSTORE PUSH1 0x4 ADD PUSH1 0x40 MLOAD DUP1 SWAP2 SUB SWAP1 REVERT JUMPDEST PUSH1 0x1 SSTORE POP POP POP POP JUMP JUMPDEST DUP3 DUP1 SLOAD PUSH2 0x1C58 SWAP1 PUSH2 0x22AE JUMP JUMPDEST SWAP1 PUSH1 0x0 MSTORE PUSH1 0x20 PUSH1 0x0 KECCAK256 SWAP1 PUSH1 0x1F ADD PUSH1 0x20 SWAP1 DIV DUP2 ADD SWAP3 DUP3 PUSH2 0x1C7A JUMPI PUSH1 0x0 DUP6 SSTORE PUSH2 0x1CC0 JUMP JUMPDEST DUP3 PUSH1 0x1F LT PUSH2 0x1C93 JUMPI DUP1 MLOAD PUSH1 0xFF NOT AND DUP4 DUP1 ADD OR DUP6 SSTORE PUSH2 0x1CC0 JUMP JUMPDEST DUP3 DUP1 ADD PUSH1 0x1 ADD DUP6 SSTORE DUP3 ISZERO PUSH2 0x1CC0 JUMPI SWAP2 DUP3 ADD JUMPDEST DUP3 DUP2 GT ISZERO PUSH2 0x1CC0 JUMPI DUP3 MLOAD DUP3 SSTORE SWAP2 PUSH1 0x20 ADD SWAP2 SWAP1 PUSH1 0x1 ADD SWAP1 PUSH2 0x1CA5 JUMP JUMPDEST POP PUSH2 0x1CCC SWAP3 SWAP2 POP PUSH2 0x1CD0 JUMP JUMPDEST POP SWAP1 JUMP JUMPDEST JUMPDEST DUP1 DUP3 GT ISZERO PUSH2 0x1CCC JUMPI PUSH1 0x0 DUP2 SSTORE PUSH1 0x1 ADD PUSH2 0x1CD1 JUMP JUMPDEST PUSH1 0x0 PUSH8 0xFFFFFFFFFFFFFFFF DUP1 DUP5 GT ISZERO PUSH2 0x1D00 JUMPI PUSH2 0x1D00 PUSH2 0x2354 JUMP JUMPDEST PUSH1 0x40 MLOAD PUSH1 0x1F DUP6 ADD PUSH1 0x1F NOT SWAP1 DUP2 AND PUSH1 0x3F ADD AND DUP2 ADD SWAP1 DUP3 DUP3 GT DUP2 DUP4 LT OR ISZERO PUSH2 0x1D28 JUMPI PUSH2 0x1D28 PUSH2 0x2354 JUMP JUMPDEST DUP2 PUSH1 0x40 MSTORE DUP1 SWAP4 POP DUP6 DUP2 MSTORE DUP7 DUP7 DUP7 ADD GT ISZERO PUSH2 0x1D41 JUMPI PUSH1 0x0 DUP1 REVERT JUMPDEST DUP6 DUP6 PUSH1 0x20 DUP4 ADD CALLDATACOPY PUSH1 0x0 PUSH1 0x20 DUP8 DUP4 ADD ADD MSTORE POP POP POP SWAP4 SWAP3 POP POP POP JUMP JUMPDEST DUP1 CALLDATALOAD PUSH1 0x1 PUSH1 0x1 PUSH1 0xA0 SHL SUB DUP2 AND DUP2 EQ PUSH2 0x1D72 JUMPI PUSH1 0x0 DUP1 REVERT JUMPDEST SWAP2 SWAP1 POP JUMP JUMPDEST DUP1 CALLDATALOAD DUP1 ISZERO ISZERO DUP2 EQ PUSH2 0x1D72 JUMPI PUSH1 0x0 DUP1 REVERT JUMPDEST PUSH1 0x0 DUP3 PUSH1 0x1F DUP4 ADD SLT PUSH2 0x1D98 JUMPI PUSH1 0x0 DUP1 REVERT JUMPDEST PUSH2 0x17B6 DUP4 DUP4 CALLDATALOAD PUSH1 0x20 DUP6 ADD PUSH2 0x1CE5 JUMP JUMPDEST PUSH1 0x0 PUSH1 0x20 DUP3 DUP5 SUB SLT ISZERO PUSH2 0x1DB9 JUMPI PUSH1 0x0 DUP1 REVERT JUMPDEST PUSH2 0x17B6 DUP3 PUSH2 0x1D5B JUMP JUMPDEST PUSH1 0x0 DUP1 PUSH1 0x40 DUP4 DUP6 SUB SLT ISZERO PUSH2 0x1DD5 JUMPI PUSH1 0x0 DUP1 REVERT JUMPDEST PUSH2 0x1DDE DUP4 PUSH2 0x1D5B JUMP JUMPDEST SWAP2 POP PUSH2 0x1DEC PUSH1 0x20 DUP5 ADD PUSH2 0x1D5B JUMP JUMPDEST SWAP1 POP SWAP3 POP SWAP3 SWAP1 POP JUMP JUMPDEST PUSH1 0x0 DUP1 PUSH1 0x0 PUSH1 0x60 DUP5 DUP7 SUB SLT ISZERO PUSH2 0x1E0A JUMPI PUSH1 0x0 DUP1 REVERT JUMPDEST PUSH2 0x1E13 DUP5 PUSH2 0x1D5B JUMP JUMPDEST SWAP3 POP PUSH2 0x1E21 PUSH1 0x20 DUP6 ADD PUSH2 0x1D5B JUMP JUMPDEST SWAP2 POP PUSH1 0x40 DUP5 ADD CALLDATALOAD SWAP1 POP SWAP3 POP SWAP3 POP SWAP3 JUMP JUMPDEST PUSH1 0x0 DUP1 PUSH1 0x0 DUP1 PUSH1 0x80 DUP6 DUP8 SUB SLT ISZERO PUSH2 0x1E47 JUMPI PUSH1 0x0 DUP1 REVERT JUMPDEST PUSH2 0x1E50 DUP6 PUSH2 0x1D5B JUMP JUMPDEST SWAP4 POP PUSH2 0x1E5E PUSH1 0x20 DUP7 ADD PUSH2 0x1D5B JUMP JUMPDEST SWAP3 POP PUSH1 0x40 DUP6 ADD CALLDATALOAD SWAP2 POP PUSH1 0x60 DUP6 ADD CALLDATALOAD PUSH8 0xFFFFFFFFFFFFFFFF DUP2 GT ISZERO PUSH2 0x1E81 JUMPI PUSH1 0x0 DUP1 REVERT JUMPDEST DUP6 ADD PUSH1 0x1F DUP2 ADD DUP8 SGT PUSH2 0x1E92 JUMPI PUSH1 0x0 DUP1 REVERT JUMPDEST PUSH2 0x1EA1 DUP8 DUP3 CALLDATALOAD PUSH1 0x20 DUP5 ADD PUSH2 0x1CE5 JUMP JUMPDEST SWAP2 POP POP SWAP3 SWAP6 SWAP2 SWAP5 POP SWAP3 POP JUMP JUMPDEST PUSH1 0x0 DUP1 PUSH1 0x40 DUP4 DUP6 SUB SLT ISZERO PUSH2 0x1EC0 JUMPI PUSH1 0x0 DUP1 REVERT JUMPDEST PUSH2 0x1EC9 DUP4 PUSH2 0x1D5B JUMP JUMPDEST SWAP2 POP PUSH2 0x1DEC PUSH1 0x20 DUP5 ADD PUSH2 0x1D77 JUMP JUMPDEST PUSH1 0x0 DUP1 PUSH1 0x40 DUP4 DUP6 SUB SLT ISZERO PUSH2 0x1EEA JUMPI PUSH1 0x0 DUP1 REVERT JUMPDEST PUSH2 0x1EF3 DUP4 PUSH2 0x1D5B JUMP JUMPDEST SWAP5 PUSH1 0x20 SWAP4 SWAP1 SWAP4 ADD CALLDATALOAD SWAP4 POP POP POP JUMP JUMPDEST PUSH1 0x0 DUP1 PUSH1 0x20 DUP4 DUP6 SUB SLT ISZERO PUSH2 0x1F14 JUMPI PUSH1 0x0 DUP1 REVERT JUMPDEST DUP3 CALLDATALOAD PUSH8 0xFFFFFFFFFFFFFFFF DUP1 DUP3 GT ISZERO PUSH2 0x1F2C JUMPI PUSH1 0x0 DUP1 REVERT JUMPDEST DUP2 DUP6 ADD SWAP2 POP DUP6 PUSH1 0x1F DUP4 ADD SLT PUSH2 0x1F40 JUMPI PUSH1 0x0 DUP1 REVERT JUMPDEST DUP2 CALLDATALOAD DUP2 DUP2 GT ISZERO PUSH2 0x1F4F JUMPI PUSH1 0x0 DUP1 REVERT JUMPDEST DUP7 PUSH1 0x20 DUP3 PUSH1 0x5 SHL DUP6 ADD ADD GT ISZERO PUSH2 0x1F64 JUMPI PUSH1 0x0 DUP1 REVERT JUMPDEST PUSH1 0x20 SWAP3 SWAP1 SWAP3 ADD SWAP7 SWAP2 SWAP6 POP SWAP1 SWAP4 POP POP POP POP JUMP JUMPDEST PUSH1 0x0 PUSH1 0x20 DUP3 DUP5 SUB SLT ISZERO PUSH2 0x1F88 JUMPI PUSH1 0x0 DUP1 REVERT JUMPDEST PUSH2 0x17B6 DUP3 PUSH2 0x1D77 JUMP JUMPDEST PUSH1 0x0 DUP1 PUSH1 0x40 DUP4 DUP6 SUB SLT ISZERO PUSH2 0x1FA4 JUMPI PUSH1 0x0 DUP1 REVERT JUMPDEST PUSH2 0x1EF3 DUP4 PUSH2 0x1D77 JUMP JUMPDEST PUSH1 0x0 PUSH1 0x20 DUP3 DUP5 SUB SLT ISZERO PUSH2 0x1FBF JUMPI PUSH1 0x0 DUP1 REVERT JUMPDEST DUP2 CALLDATALOAD PUSH2 0x17B6 DUP2 PUSH2 0x236A JUMP JUMPDEST PUSH1 0x0 PUSH1 0x20 DUP3 DUP5 SUB SLT ISZERO PUSH2 0x1FDC JUMPI PUSH1 0x0 DUP1 REVERT JUMPDEST DUP2 MLOAD PUSH2 0x17B6 DUP2 PUSH2 0x236A JUMP JUMPDEST PUSH1 0x0 PUSH1 0x20 DUP3 DUP5 SUB SLT ISZERO PUSH2 0x1FF9 JUMPI PUSH1 0x0 DUP1 REVERT JUMPDEST DUP2 CALLDATALOAD PUSH8 0xFFFFFFFFFFFFFFFF DUP2 GT ISZERO PUSH2 0x2010 JUMPI PUSH1 0x0 DUP1 REVERT JUMPDEST PUSH2 0x156D DUP5 DUP3 DUP6 ADD PUSH2 0x1D87 JUMP JUMPDEST PUSH1 0x0 DUP1 PUSH1 0x40 DUP4 DUP6 SUB SLT ISZERO PUSH2 0x202F JUMPI PUSH1 0x0 DUP1 REVERT JUMPDEST DUP3 CALLDATALOAD PUSH8 0xFFFFFFFFFFFFFFFF DUP2 GT ISZERO PUSH2 0x2046 JUMPI PUSH1 0x0 DUP1 REVERT JUMPDEST PUSH2 0x2052 DUP6 DUP3 DUP7 ADD PUSH2 0x1D87 JUMP JUMPDEST SWAP6 PUSH1 0x20 SWAP5 SWAP1 SWAP5 ADD CALLDATALOAD SWAP5 POP POP POP POP JUMP JUMPDEST PUSH1 0x0 PUSH1 0x20 DUP3 DUP5 SUB SLT ISZERO PUSH2 0x2073 JUMPI PUSH1 0x0 DUP1 REVERT JUMPDEST POP CALLDATALOAD SWAP2 SWAP1 POP JUMP JUMPDEST PUSH1 0x0 DUP1 PUSH1 0x40 DUP4 DUP6 SUB SLT ISZERO PUSH2 0x208D JUMPI PUSH1 0x0 DUP1 REVERT JUMPDEST POP POP DUP1 CALLDATALOAD SWAP3 PUSH1 0x20 SWAP1 SWAP2 ADD CALLDATALOAD SWAP2 POP JUMP JUMPDEST PUSH1 0x0 DUP2 MLOAD DUP1 DUP5 MSTORE PUSH2 0x20B4 DUP2 PUSH1 0x20 DUP7 ADD PUSH1 0x20 DUP7 ADD PUSH2 0x2282 JUMP JUMPDEST PUSH1 0x1F ADD PUSH1 0x1F NOT AND SWAP3 SWAP1 SWAP3 ADD PUSH1 0x20 ADD SWAP3 SWAP2 POP POP JUMP JUMPDEST PUSH1 0x0 DUP5 MLOAD PUSH1 0x20 PUSH2 0x20DB DUP3 DUP6 DUP4 DUP11 ADD PUSH2 0x2282 JUMP JUMPDEST DUP6 MLOAD SWAP2 DUP5 ADD SWAP2 PUSH2 0x20EE DUP2 DUP5 DUP5 DUP11 ADD PUSH2 0x2282 JUMP JUMPDEST DUP6 SLOAD SWAP3 ADD SWAP2 PUSH1 0x0 SWAP1 PUSH1 0x1 DUP2 DUP2 SHR SWAP1 DUP1 DUP4 AND DUP1 PUSH2 0x210B JUMPI PUSH1 0x7F DUP4 AND SWAP3 POP JUMPDEST DUP6 DUP4 LT DUP2 EQ ISZERO PUSH2 0x2129 JUMPI PUSH4 0x4E487B71 PUSH1 0xE0 SHL DUP6 MSTORE PUSH1 0x22 PUSH1 0x4 MSTORE PUSH1 0x24 DUP6 REVERT JUMPDEST DUP1 DUP1 ISZERO PUSH2 0x213D JUMPI PUSH1 0x1 DUP2 EQ PUSH2 0x214E JUMPI PUSH2 0x217B JUMP JUMPDEST PUSH1 0xFF NOT DUP6 AND DUP9 MSTORE DUP4 DUP9 ADD SWAP6 POP PUSH2 0x217B JUMP JUMPDEST PUSH1 0x0 DUP12 DUP2 MSTORE PUSH1 0x20 SWAP1 KECCAK256 PUSH1 0x0 JUMPDEST DUP6 DUP2 LT ISZERO PUSH2 0x2173 JUMPI DUP2 SLOAD DUP11 DUP3 ADD MSTORE SWAP1 DUP5 ADD SWAP1 DUP9 ADD PUSH2 0x215A JUMP JUMPDEST POP POP DUP4 DUP9 ADD SWAP6 POP JUMPDEST POP SWAP4 SWAP12 SWAP11 POP POP POP POP POP POP POP POP POP POP POP JUMP JUMPDEST PUSH1 0x1 PUSH1 0x1 PUSH1 0xA0 SHL SUB DUP6 DUP2 AND DUP3 MSTORE DUP5 AND PUSH1 0x20 DUP3 ADD MSTORE PUSH1 0x40 DUP2 ADD DUP4 SWAP1 MSTORE PUSH1 0x80 PUSH1 0x60 DUP3 ADD DUP2 SWAP1 MSTORE PUSH1 0x0 SWAP1 PUSH2 0x21BF SWAP1 DUP4 ADD DUP5 PUSH2 0x209C JUMP JUMPDEST SWAP7 SWAP6 POP POP POP POP POP POP JUMP JUMPDEST PUSH1 0x20 DUP1 DUP3 MSTORE DUP3 MLOAD DUP3 DUP3 ADD DUP2 SWAP1 MSTORE PUSH1 0x0 SWAP2 SWAP1 DUP5 DUP3 ADD SWAP1 PUSH1 0x40 DUP6 ADD SWAP1 DUP5 JUMPDEST DUP2 DUP2 LT ISZERO PUSH2 0x2201 JUMPI DUP4 MLOAD DUP4 MSTORE SWAP3 DUP5 ADD SWAP3 SWAP2 DUP5 ADD SWAP2 PUSH1 0x1 ADD PUSH2 0x21E5 JUMP JUMPDEST POP SWAP1 SWAP7 SWAP6 POP POP POP POP POP POP JUMP JUMPDEST PUSH1 0x20 DUP2 MSTORE PUSH1 0x0 PUSH2 0x17B6 PUSH1 0x20 DUP4 ADD DUP5 PUSH2 0x209C JUMP JUMPDEST PUSH1 0x0 DUP3 NOT DUP3 GT ISZERO PUSH2 0x2233 JUMPI PUSH2 0x2233 PUSH2 0x2312 JUMP JUMPDEST POP ADD SWAP1 JUMP JUMPDEST PUSH1 0x0 DUP3 PUSH2 0x2247 JUMPI PUSH2 0x2247 PUSH2 0x2328 JUMP JUMPDEST POP DIV SWAP1 JUMP JUMPDEST PUSH1 0x0 DUP2 PUSH1 0x0 NOT DIV DUP4 GT DUP3 ISZERO ISZERO AND ISZERO PUSH2 0x2266 JUMPI PUSH2 0x2266 PUSH2 0x2312 JUMP JUMPDEST POP MUL SWAP1 JUMP JUMPDEST PUSH1 0x0 DUP3 DUP3 LT ISZERO PUSH2 0x227D JUMPI PUSH2 0x227D PUSH2 0x2312 JUMP JUMPDEST POP SUB SWAP1 JUMP JUMPDEST PUSH1 0x0 JUMPDEST DUP4 DUP2 LT ISZERO PUSH2 0x229D JUMPI DUP2 DUP2 ADD MLOAD DUP4 DUP3 ADD MSTORE PUSH1 0x20 ADD PUSH2 0x2285 JUMP JUMPDEST DUP4 DUP2 GT ISZERO PUSH2 0x13EF JUMPI POP POP PUSH1 0x0 SWAP2 ADD MSTORE JUMP JUMPDEST PUSH1 0x1 DUP2 DUP2 SHR SWAP1 DUP3 AND DUP1 PUSH2 0x22C2 JUMPI PUSH1 0x7F DUP3 AND SWAP2 POP JUMPDEST PUSH1 0x20 DUP3 LT DUP2 EQ ISZERO PUSH2 0x157F JUMPI PUSH4 0x4E487B71 PUSH1 0xE0 SHL PUSH1 0x0 MSTORE PUSH1 0x22 PUSH1 0x4 MSTORE PUSH1 0x24 PUSH1 0x0 REVERT JUMPDEST PUSH1 0x0 PUSH1 0x0 NOT DUP3 EQ ISZERO PUSH2 0x22F7 JUMPI PUSH2 0x22F7 PUSH2 0x2312 JUMP JUMPDEST POP PUSH1 0x1 ADD SWAP1 JUMP JUMPDEST PUSH1 0x0 DUP3 PUSH2 0x230D JUMPI PUSH2 0x230D PUSH2 0x2328 JUMP JUMPDEST POP MOD SWAP1 JUMP JUMPDEST PUSH4 0x4E487B71 PUSH1 0xE0 SHL PUSH1 0x0 MSTORE PUSH1 0x11 PUSH1 0x4 MSTORE PUSH1 0x24 PUSH1 0x0 REVERT JUMPDEST PUSH4 0x4E487B71 PUSH1 0xE0 SHL PUSH1 0x0 MSTORE PUSH1 0x12 PUSH1 0x4 MSTORE PUSH1 0x24 PUSH1 0x0 REVERT JUMPDEST PUSH4 0x4E487B71 PUSH1 0xE0 SHL PUSH1 0x0 MSTORE PUSH1 0x32 PUSH1 0x4 MSTORE PUSH1 0x24 PUSH1 0x0 REVERT JUMPDEST PUSH4 0x4E487B71 PUSH1 0xE0 SHL PUSH1 0x0 MSTORE PUSH1 0x41 PUSH1 0x4 MSTORE PUSH1 0x24 PUSH1 0x0 REVERT JUMPDEST PUSH1 0x1 PUSH1 0x1 PUSH1 0xE0 SHL SUB NOT DUP2 AND DUP2 EQ PUSH2 0xCDE JUMPI PUSH1 0x0 DUP1 REVERT INVALID LOG2 PUSH5 0x6970667358 0x22 SLT KECCAK256 DUP9 DUP8 PUSH17 0x3A58A4B9A63CC4503322BCD6E449094BEC SWAP4 DUP4 JUMP 0xBC SMOD CODECOPY RETURNDATACOPY CREATE SWAP3 0xD6 0xBD 0xEB PUSH5 0x736F6C6343 STOP ADDMOD SMOD STOP CALLER "
				},
				"gasEstimates": {
					"creation": {
						"codeDepositCost": "1828400",
						"executionCost": "infinite",
						"totalCost": "infinite"
					},
					"external": {
						"AllowlistLimit()": "2340",
						"addressMintedBalance(address)": "2565",
						"allowlist(address)": "2653",
						"allowlistUsers(address[])": "infinite",
						"approve(address,uint256)": "infinite",
						"balanceOf(address)": "2663",
						"baseExtension()": "infinite",
						"checkClaimed(uint256,uint256)": "2668",
						"claimActiveByPhase(uint256)": "2528",
						"claimItem(uint256,uint256)": "infinite",
						"claimPhaseByToken(uint256)": "2506",
						"claimedItemByPhase(uint256,uint256)": "2646",
						"cost()": "2385",
						"currentSet()": "2407",
						"getApproved(uint256)": "6992",
						"isAllowlisted(address)": "2629",
						"isApprovedForAll(address,address)": "infinite",
						"maxSupply()": "2383",
						"mint(uint256)": "infinite",
						"name()": "infinite",
						"onlyAllowlisted()": "2345",
						"owner()": "2376",
						"ownerOf(uint256)": "infinite",
						"ownerOfTokenIds(address)": "infinite",
						"pause(bool)": "26762",
						"paused()": "2410",
						"removeUsersFromAllowlist(address[])": "infinite",
						"renounceOwnership()": "infinite",
						"safeTransferFrom(address,address,uint256)": "infinite",
						"safeTransferFrom(address,address,uint256,bytes)": "infinite",
						"setApprovalForAll(address,bool)": "infinite",
						"setBaseExtension(string)": "infinite",
						"setBaseURI(string)": "infinite",
						"setClaimURI(string,uint256)": "infinite",
						"setCurrentSetAmount(uint256)": "24599",
						"setOnlyAllowlisted(bool)": "26827",
						"supportsInterface(bytes4)": "557",
						"symbol()": "infinite",
						"toggleClaim(bool,uint256)": "26848",
						"tokenURI(uint256)": "infinite",
						"totalSupply()": "4554",
						"transferFrom(address,address,uint256)": "infinite",
						"transferOwnership(address)": "28487",
						"withdraw()": "infinite"
					},
					"internal": {
						"_baseURI()": "infinite",
						"_claimURI(uint256)": "infinite"
					}
				},
				"methodIdentifiers": {
					"AllowlistLimit()": "b3807b1d",
					"addressMintedBalance(address)": "18cae269",
					"allowlist(address)": "a7cd52cb",
					"allowlistUsers(address[])": "5b9e3ccf",
					"approve(address,uint256)": "095ea7b3",
					"balanceOf(address)": "70a08231",
					"baseExtension()": "c6682862",
					"checkClaimed(uint256,uint256)": "85649743",
					"claimActiveByPhase(uint256)": "bf705b1c",
					"claimItem(uint256,uint256)": "a7dc7f2a",
					"claimPhaseByToken(uint256)": "1ee50697",
					"claimedItemByPhase(uint256,uint256)": "74f59666",
					"cost()": "13faede6",
					"currentSet()": "30b86627",
					"getApproved(uint256)": "081812fc",
					"isAllowlisted(address)": "05a3b809",
					"isApprovedForAll(address,address)": "e985e9c5",
					"maxSupply()": "d5abeb01",
					"mint(uint256)": "a0712d68",
					"name()": "06fdde03",
					"onlyAllowlisted()": "674c02aa",
					"owner()": "8da5cb5b",
					"ownerOf(uint256)": "6352211e",
					"ownerOfTokenIds(address)": "ca8a7d5e",
					"pause(bool)": "02329a29",
					"paused()": "5c975abb",
					"removeUsersFromAllowlist(address[])": "142b0fbe",
					"renounceOwnership()": "715018a6",
					"safeTransferFrom(address,address,uint256)": "42842e0e",
					"safeTransferFrom(address,address,uint256,bytes)": "b88d4fde",
					"setApprovalForAll(address,bool)": "a22cb465",
					"setBaseExtension(string)": "da3ef23f",
					"setBaseURI(string)": "55f804b3",
					"setClaimURI(string,uint256)": "5f93e9e3",
					"setCurrentSetAmount(uint256)": "c4d2e8d6",
					"setOnlyAllowlisted(bool)": "17dc10c4",
					"supportsInterface(bytes4)": "01ffc9a7",
					"symbol()": "95d89b41",
					"toggleClaim(bool,uint256)": "0a70a191",
					"tokenURI(uint256)": "c87b56dd",
					"totalSupply()": "18160ddd",
					"transferFrom(address,address,uint256)": "23b872dd",
					"transferOwnership(address)": "f2fde38b",
					"withdraw()": "3ccfd60b"
				}
			},
			"storageLayout": {
				"storage": [
					{
						"astId": 7,
						"contract": "contracts/imiltestTwo.sol:imiltestTwo",
						"label": "_owner",
						"offset": 0,
						"slot": "0",
						"type": "t_address"
					},
					{
						"astId": 790,
						"contract": "contracts/imiltestTwo.sol:imiltestTwo",
						"label": "_currentIndex",
						"offset": 0,
						"slot": "1",
						"type": "t_uint256"
					},
					{
						"astId": 792,
						"contract": "contracts/imiltestTwo.sol:imiltestTwo",
						"label": "_burnCounter",
						"offset": 0,
						"slot": "2",
						"type": "t_uint256"
					},
					{
						"astId": 794,
						"contract": "contracts/imiltestTwo.sol:imiltestTwo",
						"label": "_name",
						"offset": 0,
						"slot": "3",
						"type": "t_string_storage"
					},
					{
						"astId": 796,
						"contract": "contracts/imiltestTwo.sol:imiltestTwo",
						"label": "_symbol",
						"offset": 0,
						"slot": "4",
						"type": "t_string_storage"
					},
					{
						"astId": 800,
						"contract": "contracts/imiltestTwo.sol:imiltestTwo",
						"label": "_packedOwnerships",
						"offset": 0,
						"slot": "5",
						"type": "t_mapping(t_uint256,t_uint256)"
					},
					{
						"astId": 804,
						"contract": "contracts/imiltestTwo.sol:imiltestTwo",
						"label": "_packedAddressData",
						"offset": 0,
						"slot": "6",
						"type": "t_mapping(t_address,t_uint256)"
					},
					{
						"astId": 809,
						"contract": "contracts/imiltestTwo.sol:imiltestTwo",
						"label": "_tokenApprovals",
						"offset": 0,
						"slot": "7",
						"type": "t_mapping(t_uint256,t_struct(TokenApprovalRef)722_storage)"
					},
					{
						"astId": 815,
						"contract": "contracts/imiltestTwo.sol:imiltestTwo",
						"label": "_operatorApprovals",
						"offset": 0,
						"slot": "8",
						"type": "t_mapping(t_address,t_mapping(t_address,t_bool))"
					},
					{
						"astId": 123,
						"contract": "contracts/imiltestTwo.sol:imiltestTwo",
						"label": "_status",
						"offset": 0,
						"slot": "9",
						"type": "t_uint256"
					},
					{
						"astId": 2543,
						"contract": "contracts/imiltestTwo.sol:imiltestTwo",
						"label": "baseURI",
						"offset": 0,
						"slot": "10",
						"type": "t_string_storage"
					},
					{
						"astId": 2547,
						"contract": "contracts/imiltestTwo.sol:imiltestTwo",
						"label": "claimURI",
						"offset": 0,
						"slot": "11",
						"type": "t_mapping(t_uint256,t_string_storage)"
					},
					{
						"astId": 2550,
						"contract": "contracts/imiltestTwo.sol:imiltestTwo",
						"label": "baseExtension",
						"offset": 0,
						"slot": "12",
						"type": "t_string_storage"
					},
					{
						"astId": 2553,
						"contract": "contracts/imiltestTwo.sol:imiltestTwo",
						"label": "cost",
						"offset": 0,
						"slot": "13",
						"type": "t_uint256"
					},
					{
						"astId": 2556,
						"contract": "contracts/imiltestTwo.sol:imiltestTwo",
						"label": "maxSupply",
						"offset": 0,
						"slot": "14",
						"type": "t_uint256"
					},
					{
						"astId": 2559,
						"contract": "contracts/imiltestTwo.sol:imiltestTwo",
						"label": "currentSet",
						"offset": 0,
						"slot": "15",
						"type": "t_uint256"
					},
					{
						"astId": 2562,
						"contract": "contracts/imiltestTwo.sol:imiltestTwo",
						"label": "AllowlistLimit",
						"offset": 0,
						"slot": "16",
						"type": "t_uint256"
					},
					{
						"astId": 2565,
						"contract": "contracts/imiltestTwo.sol:imiltestTwo",
						"label": "paused",
						"offset": 0,
						"slot": "17",
						"type": "t_bool"
					},
					{
						"astId": 2569,
						"contract": "contracts/imiltestTwo.sol:imiltestTwo",
						"label": "claimActiveByPhase",
						"offset": 0,
						"slot": "18",
						"type": "t_mapping(t_uint256,t_bool)"
					},
					{
						"astId": 2575,
						"contract": "contracts/imiltestTwo.sol:imiltestTwo",
						"label": "claimedItemByPhase",
						"offset": 0,
						"slot": "19",
						"type": "t_mapping(t_uint256,t_mapping(t_uint256,t_bool))"
					},
					{
						"astId": 2579,
						"contract": "contracts/imiltestTwo.sol:imiltestTwo",
						"label": "claimPhaseByToken",
						"offset": 0,
						"slot": "20",
						"type": "t_mapping(t_uint256,t_uint256)"
					},
					{
						"astId": 2582,
						"contract": "contracts/imiltestTwo.sol:imiltestTwo",
						"label": "onlyAllowlisted",
						"offset": 0,
						"slot": "21",
						"type": "t_bool"
					},
					{
						"astId": 2586,
						"contract": "contracts/imiltestTwo.sol:imiltestTwo",
						"label": "allowlist",
						"offset": 0,
						"slot": "22",
						"type": "t_mapping(t_address,t_bool)"
					},
					{
						"astId": 2590,
						"contract": "contracts/imiltestTwo.sol:imiltestTwo",
						"label": "addressMintedBalance",
						"offset": 0,
						"slot": "23",
						"type": "t_mapping(t_address,t_uint256)"
					}
				],
				"types": {
					"t_address": {
						"encoding": "inplace",
						"label": "address",
						"numberOfBytes": "20"
					},
					"t_bool": {
						"encoding": "inplace",
						"label": "bool",
						"numberOfBytes": "1"
					},
					"t_mapping(t_address,t_bool)": {
						"encoding": "mapping",
						"key": "t_address",
						"label": "mapping(address => bool)",
						"numberOfBytes": "32",
						"value": "t_bool"
					},
					"t_mapping(t_address,t_mapping(t_address,t_bool))": {
						"encoding": "mapping",
						"key": "t_address",
						"label": "mapping(address => mapping(address => bool))",
						"numberOfBytes": "32",
						"value": "t_mapping(t_address,t_bool)"
					},
					"t_mapping(t_address,t_uint256)": {
						"encoding": "mapping",
						"key": "t_address",
						"label": "mapping(address => uint256)",
						"numberOfBytes": "32",
						"value": "t_uint256"
					},
					"t_mapping(t_uint256,t_bool)": {
						"encoding": "mapping",
						"key": "t_uint256",
						"label": "mapping(uint256 => bool)",
						"numberOfBytes": "32",
						"value": "t_bool"
					},
					"t_mapping(t_uint256,t_mapping(t_uint256,t_bool))": {
						"encoding": "mapping",
						"key": "t_uint256",
						"label": "mapping(uint256 => mapping(uint256 => bool))",
						"numberOfBytes": "32",
						"value": "t_mapping(t_uint256,t_bool)"
					},
					"t_mapping(t_uint256,t_string_storage)": {
						"encoding": "mapping",
						"key": "t_uint256",
						"label": "mapping(uint256 => string)",
						"numberOfBytes": "32",
						"value": "t_string_storage"
					},
					"t_mapping(t_uint256,t_struct(TokenApprovalRef)722_storage)": {
						"encoding": "mapping",
						"key": "t_uint256",
						"label": "mapping(uint256 => struct ERC721A.TokenApprovalRef)",
						"numberOfBytes": "32",
						"value": "t_struct(TokenApprovalRef)722_storage"
					},
					"t_mapping(t_uint256,t_uint256)": {
						"encoding": "mapping",
						"key": "t_uint256",
						"label": "mapping(uint256 => uint256)",
						"numberOfBytes": "32",
						"value": "t_uint256"
					},
					"t_string_storage": {
						"encoding": "bytes",
						"label": "string",
						"numberOfBytes": "32"
					},
					"t_struct(TokenApprovalRef)722_storage": {
						"encoding": "inplace",
						"label": "struct ERC721A.TokenApprovalRef",
						"members": [
							{
								"astId": 721,
								"contract": "contracts/imiltestTwo.sol:imiltestTwo",
								"label": "value",
								"offset": 0,
								"slot": "0",
								"type": "t_address"
							}
						],
						"numberOfBytes": "32"
					},
					"t_uint256": {
						"encoding": "inplace",
						"label": "uint256",
						"numberOfBytes": "32"
					}
				}
			},
			"userdoc": {
				"errors": {
					"ApprovalCallerNotOwnerNorApproved()": [
						{
							"notice": "The caller must own the token or be an approved operator."
						}
					],
					"ApprovalQueryForNonexistentToken()": [
						{
							"notice": "The token does not exist."
						}
					],
					"BalanceQueryForZeroAddress()": [
						{
							"notice": "Cannot query the balance for the zero address."
						}
					],
					"MintERC2309QuantityExceedsLimit()": [
						{
							"notice": "The `quantity` minted with ERC2309 exceeds the safety limit."
						}
					],
					"MintToZeroAddress()": [
						{
							"notice": "Cannot mint to the zero address."
						}
					],
					"MintZeroQuantity()": [
						{
							"notice": "The quantity of tokens minted must be more than zero."
						}
					],
					"OwnerQueryForNonexistentToken()": [
						{
							"notice": "The token does not exist."
						}
					],
					"OwnershipNotInitializedForExtraData()": [
						{
							"notice": "The `extraData` cannot be set on an unintialized ownership slot."
						}
					],
					"TransferCallerNotOwnerNorApproved()": [
						{
							"notice": "The caller must own the token or be an approved operator."
						}
					],
					"TransferFromIncorrectOwner()": [
						{
							"notice": "The token must be owned by `from`."
						}
					],
					"TransferToNonERC721ReceiverImplementer()": [
						{
							"notice": "Cannot safely transfer to a contract that does not implement the ERC721Receiver interface."
						}
					],
					"TransferToZeroAddress()": [
						{
							"notice": "Cannot transfer to the zero address."
						}
					],
					"URIQueryForNonexistentToken()": [
						{
							"notice": "The token does not exist."
						}
					]
				},
				"kind": "user",
				"methods": {},
				"version": 1
			}
		}
	}
}