{
	"contracts/fourtwo.sol": {
		"fourtwo": {
			"abi": [
				{
					"inputs": [
						{
							"internalType": "string",
							"name": "_initBaseURI",
							"type": "string"
						}
					],
					"stateMutability": "nonpayable",
					"type": "constructor"
				},
				{
					"inputs": [],
					"name": "ApprovalCallerNotOwnerNorApproved",
					"type": "error"
				},
				{
					"inputs": [],
					"name": "ApprovalQueryForNonexistentToken",
					"type": "error"
				},
				{
					"inputs": [],
					"name": "BalanceQueryForZeroAddress",
					"type": "error"
				},
				{
					"inputs": [],
					"name": "MintERC2309QuantityExceedsLimit",
					"type": "error"
				},
				{
					"inputs": [],
					"name": "MintToZeroAddress",
					"type": "error"
				},
				{
					"inputs": [],
					"name": "MintZeroQuantity",
					"type": "error"
				},
				{
					"inputs": [],
					"name": "OwnerQueryForNonexistentToken",
					"type": "error"
				},
				{
					"inputs": [],
					"name": "OwnershipNotInitializedForExtraData",
					"type": "error"
				},
				{
					"inputs": [],
					"name": "TransferCallerNotOwnerNorApproved",
					"type": "error"
				},
				{
					"inputs": [],
					"name": "TransferFromIncorrectOwner",
					"type": "error"
				},
				{
					"inputs": [],
					"name": "TransferToNonERC721ReceiverImplementer",
					"type": "error"
				},
				{
					"inputs": [],
					"name": "TransferToZeroAddress",
					"type": "error"
				},
				{
					"inputs": [],
					"name": "URIQueryForNonexistentToken",
					"type": "error"
				},
				{
					"anonymous": false,
					"inputs": [
						{
							"indexed": true,
							"internalType": "address",
							"name": "owner",
							"type": "address"
						},
						{
							"indexed": true,
							"internalType": "address",
							"name": "approved",
							"type": "address"
						},
						{
							"indexed": true,
							"internalType": "uint256",
							"name": "tokenId",
							"type": "uint256"
						}
					],
					"name": "Approval",
					"type": "event"
				},
				{
					"anonymous": false,
					"inputs": [
						{
							"indexed": true,
							"internalType": "address",
							"name": "owner",
							"type": "address"
						},
						{
							"indexed": true,
							"internalType": "address",
							"name": "operator",
							"type": "address"
						},
						{
							"indexed": false,
							"internalType": "bool",
							"name": "approved",
							"type": "bool"
						}
					],
					"name": "ApprovalForAll",
					"type": "event"
				},
				{
					"anonymous": false,
					"inputs": [
						{
							"indexed": true,
							"internalType": "uint256",
							"name": "fromTokenId",
							"type": "uint256"
						},
						{
							"indexed": false,
							"internalType": "uint256",
							"name": "toTokenId",
							"type": "uint256"
						},
						{
							"indexed": true,
							"internalType": "address",
							"name": "from",
							"type": "address"
						},
						{
							"indexed": true,
							"internalType": "address",
							"name": "to",
							"type": "address"
						}
					],
					"name": "ConsecutiveTransfer",
					"type": "event"
				},
				{
					"anonymous": false,
					"inputs": [
						{
							"indexed": true,
							"internalType": "address",
							"name": "previousOwner",
							"type": "address"
						},
						{
							"indexed": true,
							"internalType": "address",
							"name": "newOwner",
							"type": "address"
						}
					],
					"name": "OwnershipTransferred",
					"type": "event"
				},
				{
					"anonymous": false,
					"inputs": [
						{
							"indexed": true,
							"internalType": "address",
							"name": "from",
							"type": "address"
						},
						{
							"indexed": true,
							"internalType": "address",
							"name": "to",
							"type": "address"
						},
						{
							"indexed": true,
							"internalType": "uint256",
							"name": "tokenId",
							"type": "uint256"
						}
					],
					"name": "Transfer",
					"type": "event"
				},
				{
					"inputs": [],
					"name": "AllowlistLimit",
					"outputs": [
						{
							"internalType": "uint256",
							"name": "",
							"type": "uint256"
						}
					],
					"stateMutability": "view",
					"type": "function"
				},
				{
					"inputs": [
						{
							"internalType": "address",
							"name": "",
							"type": "address"
						}
					],
					"name": "addressMintedBalance",
					"outputs": [
						{
							"internalType": "uint256",
							"name": "",
							"type": "uint256"
						}
					],
					"stateMutability": "view",
					"type": "function"
				},
				{
					"inputs": [
						{
							"internalType": "address",
							"name": "",
							"type": "address"
						}
					],
					"name": "allowlist",
					"outputs": [
						{
							"internalType": "bool",
							"name": "",
							"type": "bool"
						}
					],
					"stateMutability": "view",
					"type": "function"
				},
				{
					"inputs": [
						{
							"internalType": "address[]",
							"name": "addresses",
							"type": "address[]"
						}
					],
					"name": "allowlistUsers",
					"outputs": [],
					"stateMutability": "nonpayable",
					"type": "function"
				},
				{
					"inputs": [
						{
							"internalType": "address",
							"name": "to",
							"type": "address"
						},
						{
							"internalType": "uint256",
							"name": "tokenId",
							"type": "uint256"
						}
					],
					"name": "approve",
					"outputs": [],
					"stateMutability": "payable",
					"type": "function"
				},
				{
					"inputs": [
						{
							"internalType": "address",
							"name": "owner",
							"type": "address"
						}
					],
					"name": "balanceOf",
					"outputs": [
						{
							"internalType": "uint256",
							"name": "",
							"type": "uint256"
						}
					],
					"stateMutability": "view",
					"type": "function"
				},
				{
					"inputs": [],
					"name": "baseExtension",
					"outputs": [
						{
							"internalType": "string",
							"name": "",
							"type": "string"
						}
					],
					"stateMutability": "view",
					"type": "function"
				},
				{
					"inputs": [],
					"name": "cost",
					"outputs": [
						{
							"internalType": "uint256",
							"name": "",
							"type": "uint256"
						}
					],
					"stateMutability": "view",
					"type": "function"
				},
				{
					"inputs": [
						{
							"internalType": "uint256",
							"name": "tokenId",
							"type": "uint256"
						}
					],
					"name": "getApproved",
					"outputs": [
						{
							"internalType": "address",
							"name": "",
							"type": "address"
						}
					],
					"stateMutability": "view",
					"type": "function"
				},
				{
					"inputs": [
						{
							"internalType": "address",
							"name": "_user",
							"type": "address"
						}
					],
					"name": "isAllowlisted",
					"outputs": [
						{
							"internalType": "bool",
							"name": "",
							"type": "bool"
						}
					],
					"stateMutability": "view",
					"type": "function"
				},
				{
					"inputs": [
						{
							"internalType": "address",
							"name": "owner",
							"type": "address"
						},
						{
							"internalType": "address",
							"name": "operator",
							"type": "address"
						}
					],
					"name": "isApprovedForAll",
					"outputs": [
						{
							"internalType": "bool",
							"name": "",
							"type": "bool"
						}
					],
					"stateMutability": "view",
					"type": "function"
				},
				{
					"inputs": [],
					"name": "maxSupply",
					"outputs": [
						{
							"internalType": "uint256",
							"name": "",
							"type": "uint256"
						}
					],
					"stateMutability": "view",
					"type": "function"
				},
				{
					"inputs": [
						{
							"internalType": "uint256",
							"name": "_mintAmount",
							"type": "uint256"
						}
					],
					"name": "mint",
					"outputs": [],
					"stateMutability": "payable",
					"type": "function"
				},
				{
					"inputs": [],
					"name": "name",
					"outputs": [
						{
							"internalType": "string",
							"name": "",
							"type": "string"
						}
					],
					"stateMutability": "view",
					"type": "function"
				},
				{
					"inputs": [],
					"name": "onlyAllowlisted",
					"outputs": [
						{
							"internalType": "bool",
							"name": "",
							"type": "bool"
						}
					],
					"stateMutability": "view",
					"type": "function"
				},
				{
					"inputs": [],
					"name": "owner",
					"outputs": [
						{
							"internalType": "address",
							"name": "",
							"type": "address"
						}
					],
					"stateMutability": "view",
					"type": "function"
				},
				{
					"inputs": [
						{
							"internalType": "uint256",
							"name": "tokenId",
							"type": "uint256"
						}
					],
					"name": "ownerOf",
					"outputs": [
						{
							"internalType": "address",
							"name": "",
							"type": "address"
						}
					],
					"stateMutability": "view",
					"type": "function"
				},
				{
					"inputs": [
						{
							"internalType": "address",
							"name": "tokenOwner",
							"type": "address"
						}
					],
					"name": "ownerOfTokenIds",
					"outputs": [
						{
							"internalType": "uint256[]",
							"name": "",
							"type": "uint256[]"
						}
					],
					"stateMutability": "view",
					"type": "function"
				},
				{
					"inputs": [
						{
							"internalType": "bool",
							"name": "_state",
							"type": "bool"
						}
					],
					"name": "pause",
					"outputs": [],
					"stateMutability": "nonpayable",
					"type": "function"
				},
				{
					"inputs": [],
					"name": "paused",
					"outputs": [
						{
							"internalType": "bool",
							"name": "",
							"type": "bool"
						}
					],
					"stateMutability": "view",
					"type": "function"
				},
				{
					"inputs": [
						{
							"internalType": "address[]",
							"name": "addresses",
							"type": "address[]"
						}
					],
					"name": "removeUsersFromAllowlist",
					"outputs": [],
					"stateMutability": "nonpayable",
					"type": "function"
				},
				{
					"inputs": [],
					"name": "renounceOwnership",
					"outputs": [],
					"stateMutability": "nonpayable",
					"type": "function"
				},
				{
					"inputs": [
						{
							"internalType": "address",
							"name": "from",
							"type": "address"
						},
						{
							"internalType": "address",
							"name": "to",
							"type": "address"
						},
						{
							"internalType": "uint256",
							"name": "tokenId",
							"type": "uint256"
						}
					],
					"name": "safeTransferFrom",
					"outputs": [],
					"stateMutability": "payable",
					"type": "function"
				},
				{
					"inputs": [
						{
							"internalType": "address",
							"name": "from",
							"type": "address"
						},
						{
							"internalType": "address",
							"name": "to",
							"type": "address"
						},
						{
							"internalType": "uint256",
							"name": "tokenId",
							"type": "uint256"
						},
						{
							"internalType": "bytes",
							"name": "_data",
							"type": "bytes"
						}
					],
					"name": "safeTransferFrom",
					"outputs": [],
					"stateMutability": "payable",
					"type": "function"
				},
				{
					"inputs": [
						{
							"internalType": "address",
							"name": "operator",
							"type": "address"
						},
						{
							"internalType": "bool",
							"name": "approved",
							"type": "bool"
						}
					],
					"name": "setApprovalForAll",
					"outputs": [],
					"stateMutability": "nonpayable",
					"type": "function"
				},
				{
					"inputs": [
						{
							"internalType": "string",
							"name": "_newBaseExtension",
							"type": "string"
						}
					],
					"name": "setBaseExtension",
					"outputs": [],
					"stateMutability": "nonpayable",
					"type": "function"
				},
				{
					"inputs": [
						{
							"internalType": "string",
							"name": "_newBaseURI",
							"type": "string"
						}
					],
					"name": "setBaseURI",
					"outputs": [],
					"stateMutability": "nonpayable",
					"type": "function"
				},
				{
					"inputs": [
						{
							"internalType": "bool",
							"name": "_state",
							"type": "bool"
						}
					],
					"name": "setOnlyAllowlisted",
					"outputs": [],
					"stateMutability": "nonpayable",
					"type": "function"
				},
				{
					"inputs": [
						{
							"internalType": "bytes4",
							"name": "interfaceId",
							"type": "bytes4"
						}
					],
					"name": "supportsInterface",
					"outputs": [
						{
							"internalType": "bool",
							"name": "",
							"type": "bool"
						}
					],
					"stateMutability": "view",
					"type": "function"
				},
				{
					"inputs": [],
					"name": "symbol",
					"outputs": [
						{
							"internalType": "string",
							"name": "",
							"type": "string"
						}
					],
					"stateMutability": "view",
					"type": "function"
				},
				{
					"inputs": [
						{
							"internalType": "uint256",
							"name": "tokenId",
							"type": "uint256"
						}
					],
					"name": "tokenURI",
					"outputs": [
						{
							"internalType": "string",
							"name": "",
							"type": "string"
						}
					],
					"stateMutability": "view",
					"type": "function"
				},
				{
					"inputs": [],
					"name": "totalSupply",
					"outputs": [
						{
							"internalType": "uint256",
							"name": "",
							"type": "uint256"
						}
					],
					"stateMutability": "view",
					"type": "function"
				},
				{
					"inputs": [
						{
							"internalType": "address",
							"name": "from",
							"type": "address"
						},
						{
							"internalType": "address",
							"name": "to",
							"type": "address"
						},
						{
							"internalType": "uint256",
							"name": "tokenId",
							"type": "uint256"
						}
					],
					"name": "transferFrom",
					"outputs": [],
					"stateMutability": "payable",
					"type": "function"
				},
				{
					"inputs": [
						{
							"internalType": "address",
							"name": "newOwner",
							"type": "address"
						}
					],
					"name": "transferOwnership",
					"outputs": [],
					"stateMutability": "nonpayable",
					"type": "function"
				},
				{
					"inputs": [],
					"name": "withdraw",
					"outputs": [],
					"stateMutability": "payable",
					"type": "function"
				}
			],
			"devdoc": {
				"kind": "dev",
				"methods": {
					"approve(address,uint256)": {
						"details": "Gives permission to `to` to transfer `tokenId` token to another account. The approval is cleared when the token is transferred. Only a single account can be approved at a time, so approving the zero address clears previous approvals. Requirements: - The caller must own the token or be an approved operator. - `tokenId` must exist. Emits an {Approval} event."
					},
					"balanceOf(address)": {
						"details": "Returns the number of tokens in `owner`'s account."
					},
					"getApproved(uint256)": {
						"details": "Returns the account approved for `tokenId` token. Requirements: - `tokenId` must exist."
					},
					"isApprovedForAll(address,address)": {
						"details": "Returns if the `operator` is allowed to manage all of the assets of `owner`. See {setApprovalForAll}."
					},
					"name()": {
						"details": "Returns the token collection name."
					},
					"owner()": {
						"details": "Returns the address of the current owner."
					},
					"ownerOf(uint256)": {
						"details": "Returns the owner of the `tokenId` token. Requirements: - `tokenId` must exist."
					},
					"renounceOwnership()": {
						"details": "Leaves the contract without owner. It will not be possible to call `onlyOwner` functions anymore. Can only be called by the current owner. NOTE: Renouncing ownership will leave the contract without an owner, thereby removing any functionality that is only available to the owner."
					},
					"safeTransferFrom(address,address,uint256)": {
						"details": "Equivalent to `safeTransferFrom(from, to, tokenId, '')`."
					},
					"safeTransferFrom(address,address,uint256,bytes)": {
						"details": "Safely transfers `tokenId` token from `from` to `to`. Requirements: - `from` cannot be the zero address. - `to` cannot be the zero address. - `tokenId` token must exist and be owned by `from`. - If the caller is not `from`, it must be approved to move this token by either {approve} or {setApprovalForAll}. - If `to` refers to a smart contract, it must implement {IERC721Receiver-onERC721Received}, which is called upon a safe transfer. Emits a {Transfer} event."
					},
					"setApprovalForAll(address,bool)": {
						"details": "Approve or remove `operator` as an operator for the caller. Operators can call {transferFrom} or {safeTransferFrom} for any token owned by the caller. Requirements: - The `operator` cannot be the caller. Emits an {ApprovalForAll} event."
					},
					"supportsInterface(bytes4)": {
						"details": "Returns true if this contract implements the interface defined by `interfaceId`. See the corresponding [EIP section](https://eips.ethereum.org/EIPS/eip-165#how-interfaces-are-identified) to learn more about how these ids are created. This function call must use less than 30000 gas."
					},
					"symbol()": {
						"details": "Returns the token collection symbol."
					},
					"tokenURI(uint256)": {
						"details": "Returns the Uniform Resource Identifier (URI) for `tokenId` token."
					},
					"totalSupply()": {
						"details": "Returns the total number of tokens in existence. Burned tokens will reduce the count. To get the total number of tokens minted, please see {_totalMinted}."
					},
					"transferFrom(address,address,uint256)": {
						"details": "Transfers `tokenId` from `from` to `to`. Requirements: - `from` cannot be the zero address. - `to` cannot be the zero address. - `tokenId` token must be owned by `from`. - If the caller is not `from`, it must be approved to move this token by either {approve} or {setApprovalForAll}. Emits a {Transfer} event."
					},
					"transferOwnership(address)": {
						"details": "Transfers ownership of the contract to a new account (`newOwner`). Can only be called by the current owner."
					}
				},
				"version": 1
			},
			"evm": {
				"assembly": "    /* \"contracts/fourtwo.sol\":418:455  string public baseExtension = \".json\" */\n  0xc0\n    /* \"contracts/fourtwo.sol\":290:3974  contract fourtwo is Ownable, ERC721A, ReentrancyGuard {... */\n  0x40\n    /* \"contracts/fourtwo.sol\":418:455  string public baseExtension = \".json\" */\n  mstore\n  0x05\n    /* \"contracts/fourtwo.sol\":290:3974  contract fourtwo is Ownable, ERC721A, ReentrancyGuard {... */\n  0x80\n    /* \"contracts/fourtwo.sol\":418:455  string public baseExtension = \".json\" */\n  dup2\n  swap1\n  mstore\n  shl(0xd9, 0x173539b7b7)\n  0xa0\n  swap1\n  dup2\n  mstore\n  tag_1\n  swap2\n  0x0b\n  swap2\n  swap1\n  tag_2\n  jump\t// in\ntag_1:\n  pop\n    /* \"contracts/fourtwo.sol\":484:494  0.00 ether */\n  0x00\n    /* \"contracts/fourtwo.sol\":462:494  uint256 public cost = 0.00 ether */\n  0x0c\n  sstore\n    /* \"contracts/fourtwo.sol\":526:529  420 */\n  0x01a4\n    /* \"contracts/fourtwo.sol\":499:529  uint256 public maxSupply = 420 */\n  0x0d\n  sstore\n    /* \"contracts/fourtwo.sol\":566:567  5 */\n  0x05\n    /* \"contracts/fourtwo.sol\":534:567  uint256 public AllowlistLimit = 5 */\n  0x0e\n  sstore\n    /* \"contracts/fourtwo.sol\":574:600  bool public paused = false */\n  0x0f\n  dup1\n  sload\n  not(0xffff)\n    /* \"contracts/fourtwo.sol\":605:640  bool public onlyAllowlisted = false */\n  and\n  swap1\n  sstore\n    /* \"contracts/fourtwo.sol\":753:865  constructor(... */\n  callvalue\n  dup1\n  iszero\n  tag_3\n  jumpi\n  0x00\n  dup1\n  revert\ntag_3:\n  pop\n  mload(0x40)\n  sub(codesize, bytecodeSize)\n  dup1\n  bytecodeSize\n  dup4\n  codecopy\n  dup2\n  add\n  0x40\n  dup2\n  swap1\n  mstore\n  tag_4\n  swap2\n  tag_5\n  jump\t// in\ntag_4:\n    /* \"contracts/ERC721A.sol\":5085:5243  constructor(string memory name_, string memory symbol_) {... */\n  mload(0x40)\n  dup1\n  0x40\n  add\n  0x40\n  mstore\n  dup1\n  0x06\n  dup2\n  mstore\n  0x20\n  add\n  shl(0xd4, 0x034343232303)\n  dup2\n  mstore\n  pop\n  mload(0x40)\n  dup1\n  0x40\n  add\n  0x40\n  mstore\n  dup1\n  0x03\n  dup2\n  mstore\n  0x20\n  add\n  shl(0xe8, 0x494d49)\n  dup2\n  mstore\n  pop\n    /* \"@openzeppelin/contracts/access/Ownable.sol\":936:968  _transferOwnership(_msgSender()) */\n  tag_11\n    /* \"@openzeppelin/contracts/access/Ownable.sol\":955:967  _msgSender() */\n  tag_12\n    /* \"@openzeppelin/contracts/access/Ownable.sol\":955:965  _msgSender */\n  shl(0x20, tag_13)\n    /* \"@openzeppelin/contracts/access/Ownable.sol\":955:967  _msgSender() */\n  0x20\n  shr\n  jump\t// in\ntag_12:\n    /* \"@openzeppelin/contracts/access/Ownable.sol\":936:954  _transferOwnership */\n  tag_14\n    /* \"@openzeppelin/contracts/access/Ownable.sol\":936:968  _transferOwnership(_msgSender()) */\n  jump\t// in\ntag_11:\n    /* \"contracts/ERC721A.sol\":5152:5165  _name = name_ */\n  dup2\n  mload\n  tag_16\n  swap1\n    /* \"contracts/ERC721A.sol\":5152:5157  _name */\n  0x03\n  swap1\n    /* \"contracts/ERC721A.sol\":5152:5165  _name = name_ */\n  0x20\n  dup6\n  add\n  swap1\n  tag_2\n  jump\t// in\ntag_16:\n  pop\n    /* \"contracts/ERC721A.sol\":5176:5193  _symbol = symbol_ */\n  dup1\n  mload\n  tag_17\n  swap1\n    /* \"contracts/ERC721A.sol\":5176:5183  _symbol */\n  0x04\n  swap1\n    /* \"contracts/ERC721A.sol\":5176:5193  _symbol = symbol_ */\n  0x20\n  dup5\n  add\n  swap1\n  tag_2\n  jump\t// in\ntag_17:\n  pop\n  pop\n    /* \"contracts/ERC721A.sol\":5635:5642  uint256 */\n  0x00\n    /* \"contracts/ERC721A.sol\":5204:5217  _currentIndex */\n  0x01\n    /* \"contracts/ERC721A.sol\":5204:5235  _currentIndex = _startTokenId() */\n  swap1\n  dup2\n  sstore\n    /* \"@openzeppelin/contracts/security/ReentrancyGuard.sol\":1821:1828  _status */\n  0x09\n    /* \"@openzeppelin/contracts/security/ReentrancyGuard.sol\":1821:1843  _status = _NOT_ENTERED */\n  sstore\n  pop\n    /* \"contracts/fourtwo.sol\":835:859  setBaseURI(_initBaseURI) */\n  tag_22\n    /* \"contracts/fourtwo.sol\":846:858  _initBaseURI */\n  dup2\n    /* \"contracts/fourtwo.sol\":835:845  setBaseURI */\n  tag_23\n    /* \"contracts/fourtwo.sol\":835:859  setBaseURI(_initBaseURI) */\n  jump\t// in\ntag_22:\n    /* \"contracts/fourtwo.sol\":753:865  constructor(... */\n  pop\n    /* \"contracts/fourtwo.sol\":290:3974  contract fourtwo is Ownable, ERC721A, ReentrancyGuard {... */\n  jump(tag_53)\n    /* \"@openzeppelin/contracts/utils/Context.sol\":640:736  function _msgSender() internal view virtual returns (address) {... */\ntag_13:\n    /* \"@openzeppelin/contracts/utils/Context.sol\":719:729  msg.sender */\n  caller\n  swap1\n    /* \"@openzeppelin/contracts/utils/Context.sol\":640:736  function _msgSender() internal view virtual returns (address) {... */\n  jump\t// out\n    /* \"@openzeppelin/contracts/access/Ownable.sol\":2433:2620  function _transferOwnership(address newOwner) internal virtual {... */\ntag_14:\n    /* \"@openzeppelin/contracts/access/Ownable.sol\":2506:2522  address oldOwner */\n  0x00\n    /* \"@openzeppelin/contracts/access/Ownable.sol\":2525:2531  _owner */\n  dup1\n  sload\n  sub(shl(0xa0, 0x01), 0x01)\n    /* \"@openzeppelin/contracts/access/Ownable.sol\":2541:2558  _owner = newOwner */\n  dup4\n  dup2\n  and\n  not(sub(shl(0xa0, 0x01), 0x01))\n  dup4\n  and\n  dup2\n  or\n  dup5\n  sstore\n    /* \"@openzeppelin/contracts/access/Ownable.sol\":2573:2613  OwnershipTransferred(oldOwner, newOwner) */\n  mload(0x40)\n    /* \"@openzeppelin/contracts/access/Ownable.sol\":2525:2531  _owner */\n  swap2\n  swap1\n  swap3\n  and\n  swap3\n  dup4\n  swap2\n    /* \"@openzeppelin/contracts/access/Ownable.sol\":2573:2613  OwnershipTransferred(oldOwner, newOwner) */\n  0x8be0079c531659141344cd1fd0a4f28419497f9722a3daafe3b4186f6b6457e0\n  swap2\n    /* \"@openzeppelin/contracts/access/Ownable.sol\":2506:2522  address oldOwner */\n  swap1\n    /* \"@openzeppelin/contracts/access/Ownable.sol\":2573:2613  OwnershipTransferred(oldOwner, newOwner) */\n  log3\n    /* \"@openzeppelin/contracts/access/Ownable.sol\":2496:2620  {... */\n  pop\n    /* \"@openzeppelin/contracts/access/Ownable.sol\":2433:2620  function _transferOwnership(address newOwner) internal virtual {... */\n  pop\n  jump\t// out\n    /* \"contracts/fourtwo.sol\":2596:2694  function setBaseURI(string memory _newBaseURI) public onlyOwner {... */\ntag_23:\n    /* \"@openzeppelin/contracts/access/Ownable.sol\":1094:1107  _checkOwner() */\n  tag_29\n    /* \"@openzeppelin/contracts/access/Ownable.sol\":1094:1105  _checkOwner */\n  tag_30\n    /* \"@openzeppelin/contracts/access/Ownable.sol\":1094:1107  _checkOwner() */\n  jump\t// in\ntag_29:\n    /* \"contracts/fourtwo.sol\":2667:2688  baseURI = _newBaseURI */\n  dup1\n  mload\n  tag_32\n  swap1\n    /* \"contracts/fourtwo.sol\":2667:2674  baseURI */\n  0x0a\n  swap1\n    /* \"contracts/fourtwo.sol\":2667:2688  baseURI = _newBaseURI */\n  0x20\n  dup5\n  add\n  swap1\n  tag_2\n  jump\t// in\ntag_32:\n  pop\n    /* \"contracts/fourtwo.sol\":2596:2694  function setBaseURI(string memory _newBaseURI) public onlyOwner {... */\n  pop\n  jump\t// out\n    /* \"@openzeppelin/contracts/access/Ownable.sol\":1359:1489  function _checkOwner() internal view virtual {... */\ntag_30:\n    /* \"@openzeppelin/contracts/access/Ownable.sol\":1247:1254  address */\n  0x00\n    /* \"@openzeppelin/contracts/access/Ownable.sol\":1273:1279  _owner */\n  sload\n  sub(shl(0xa0, 0x01), 0x01)\n  and\n    /* \"@openzeppelin/contracts/utils/Context.sol\":719:729  msg.sender */\n  caller\n    /* \"@openzeppelin/contracts/access/Ownable.sol\":1422:1445  owner() == _msgSender() */\n  eq\n    /* \"@openzeppelin/contracts/access/Ownable.sol\":1414:1482  require(owner() == _msgSender(), \"Ownable: caller is not the owner\") */\n  tag_37\n  jumpi\n  mload(0x40)\n  shl(0xe5, 0x461bcd)\n  dup2\n  mstore\n    /* \"#utility.yul\":1440:1442   */\n  0x20\n    /* \"@openzeppelin/contracts/access/Ownable.sol\":1414:1482  require(owner() == _msgSender(), \"Ownable: caller is not the owner\") */\n  0x04\n  dup3\n  add\n    /* \"#utility.yul\":1422:1443   */\n  dup2\n  swap1\n  mstore\n    /* \"#utility.yul\":1459:1477   */\n  0x24\n  dup3\n  add\n    /* \"#utility.yul\":1452:1482   */\n  mstore\n    /* \"#utility.yul\":1518:1552   */\n  0x4f776e61626c653a2063616c6c6572206973206e6f7420746865206f776e6572\n    /* \"#utility.yul\":1498:1516   */\n  0x44\n  dup3\n  add\n    /* \"#utility.yul\":1491:1553   */\n  mstore\n    /* \"#utility.yul\":1570:1588   */\n  0x64\n  add\n    /* \"@openzeppelin/contracts/access/Ownable.sol\":1414:1482  require(owner() == _msgSender(), \"Ownable: caller is not the owner\") */\n  mload(0x40)\n  dup1\n  swap2\n  sub\n  swap1\n  revert\ntag_37:\n    /* \"@openzeppelin/contracts/access/Ownable.sol\":1359:1489  function _checkOwner() internal view virtual {... */\n  jump\t// out\n    /* \"contracts/fourtwo.sol\":290:3974  contract fourtwo is Ownable, ERC721A, ReentrancyGuard {... */\ntag_2:\n  dup3\n  dup1\n  sload\n  tag_41\n  swap1\n  tag_42\n  jump\t// in\ntag_41:\n  swap1\n  0x00\n  mstore\n  keccak256(0x00, 0x20)\n  swap1\n  0x1f\n  add\n  0x20\n  swap1\n  div\n  dup2\n  add\n  swap3\n  dup3\n  tag_44\n  jumpi\n  0x00\n  dup6\n  sstore\n  jump(tag_47)\ntag_44:\n  dup3\n  0x1f\n  lt\n  tag_45\n  jumpi\n  dup1\n  mload\n  not(0xff)\n  and\n  dup4\n  dup1\n  add\n  or\n  dup6\n  sstore\n  jump(tag_47)\ntag_45:\n  dup3\n  dup1\n  add\n  0x01\n  add\n  dup6\n  sstore\n  dup3\n  iszero\n  tag_47\n  jumpi\n  swap2\n  dup3\n  add\ntag_46:\n  dup3\n  dup2\n  gt\n  iszero\n  tag_47\n  jumpi\n  dup3\n  mload\n  dup3\n  sstore\n  swap2\n  0x20\n  add\n  swap2\n  swap1\n  0x01\n  add\n  swap1\n  jump(tag_46)\ntag_47:\n  pop\n  tag_48\n  swap3\n  swap2\n  pop\n  tag_49\n  jump\t// in\ntag_48:\n  pop\n  swap1\n  jump\t// out\ntag_49:\ntag_50:\n  dup1\n  dup3\n  gt\n  iszero\n  tag_48\n  jumpi\n  0x00\n  dup2\n  sstore\n  0x01\n  add\n  jump(tag_50)\n    /* \"#utility.yul\":14:141   */\ntag_52:\n    /* \"#utility.yul\":75:85   */\n  0x4e487b71\n    /* \"#utility.yul\":70:73   */\n  0xe0\n    /* \"#utility.yul\":66:86   */\n  shl\n    /* \"#utility.yul\":63:64   */\n  0x00\n    /* \"#utility.yul\":56:87   */\n  mstore\n    /* \"#utility.yul\":106:110   */\n  0x41\n    /* \"#utility.yul\":103:104   */\n  0x04\n    /* \"#utility.yul\":96:111   */\n  mstore\n    /* \"#utility.yul\":130:134   */\n  0x24\n    /* \"#utility.yul\":127:128   */\n  0x00\n    /* \"#utility.yul\":120:135   */\n  revert\n    /* \"#utility.yul\":146:1233   */\ntag_5:\n    /* \"#utility.yul\":226:232   */\n  0x00\n    /* \"#utility.yul\":257:259   */\n  0x20\n    /* \"#utility.yul\":300:302   */\n  dup1\n    /* \"#utility.yul\":288:297   */\n  dup4\n    /* \"#utility.yul\":279:286   */\n  dup6\n    /* \"#utility.yul\":275:298   */\n  sub\n    /* \"#utility.yul\":271:303   */\n  slt\n    /* \"#utility.yul\":268:320   */\n  iszero\n  tag_56\n  jumpi\n    /* \"#utility.yul\":316:317   */\n  0x00\n    /* \"#utility.yul\":313:314   */\n  dup1\n    /* \"#utility.yul\":306:318   */\n  revert\n    /* \"#utility.yul\":268:320   */\ntag_56:\n    /* \"#utility.yul\":343:359   */\n  dup3\n  mload\n  sub(shl(0x40, 0x01), 0x01)\n    /* \"#utility.yul\":408:422   */\n  dup1\n  dup3\n  gt\n    /* \"#utility.yul\":405:439   */\n  iszero\n  tag_57\n  jumpi\n    /* \"#utility.yul\":435:436   */\n  0x00\n    /* \"#utility.yul\":432:433   */\n  dup1\n    /* \"#utility.yul\":425:437   */\n  revert\n    /* \"#utility.yul\":405:439   */\ntag_57:\n    /* \"#utility.yul\":473:479   */\n  dup2\n    /* \"#utility.yul\":462:471   */\n  dup6\n    /* \"#utility.yul\":458:480   */\n  add\n    /* \"#utility.yul\":448:480   */\n  swap2\n  pop\n    /* \"#utility.yul\":518:525   */\n  dup6\n    /* \"#utility.yul\":511:515   */\n  0x1f\n    /* \"#utility.yul\":507:509   */\n  dup4\n    /* \"#utility.yul\":503:516   */\n  add\n    /* \"#utility.yul\":499:526   */\n  slt\n    /* \"#utility.yul\":489:544   */\n  tag_58\n  jumpi\n    /* \"#utility.yul\":540:541   */\n  0x00\n    /* \"#utility.yul\":537:538   */\n  dup1\n    /* \"#utility.yul\":530:542   */\n  revert\n    /* \"#utility.yul\":489:544   */\ntag_58:\n    /* \"#utility.yul\":569:571   */\n  dup2\n    /* \"#utility.yul\":563:572   */\n  mload\n    /* \"#utility.yul\":591:593   */\n  dup2\n    /* \"#utility.yul\":587:589   */\n  dup2\n    /* \"#utility.yul\":584:594   */\n  gt\n    /* \"#utility.yul\":581:617   */\n  iszero\n  tag_60\n  jumpi\n    /* \"#utility.yul\":597:615   */\n  tag_60\n  tag_52\n  jump\t// in\ntag_60:\n    /* \"#utility.yul\":672:674   */\n  0x40\n    /* \"#utility.yul\":666:675   */\n  mload\n    /* \"#utility.yul\":640:642   */\n  0x1f\n    /* \"#utility.yul\":726:739   */\n  dup3\n  add\n  not(0x1f)\n    /* \"#utility.yul\":722:744   */\n  swap1\n  dup2\n  and\n    /* \"#utility.yul\":746:748   */\n  0x3f\n    /* \"#utility.yul\":718:749   */\n  add\n    /* \"#utility.yul\":714:754   */\n  and\n    /* \"#utility.yul\":702:755   */\n  dup2\n  add\n  swap1\n    /* \"#utility.yul\":770:788   */\n  dup4\n  dup3\n  gt\n    /* \"#utility.yul\":790:812   */\n  dup2\n  dup4\n  lt\n    /* \"#utility.yul\":767:813   */\n  or\n    /* \"#utility.yul\":764:836   */\n  iszero\n  tag_62\n  jumpi\n    /* \"#utility.yul\":816:834   */\n  tag_62\n  tag_52\n  jump\t// in\ntag_62:\n    /* \"#utility.yul\":856:866   */\n  dup2\n    /* \"#utility.yul\":852:854   */\n  0x40\n    /* \"#utility.yul\":845:867   */\n  mstore\n    /* \"#utility.yul\":891:893   */\n  dup3\n    /* \"#utility.yul\":883:889   */\n  dup2\n    /* \"#utility.yul\":876:894   */\n  mstore\n    /* \"#utility.yul\":931:938   */\n  dup9\n    /* \"#utility.yul\":926:928   */\n  dup7\n    /* \"#utility.yul\":921:923   */\n  dup5\n    /* \"#utility.yul\":917:919   */\n  dup8\n    /* \"#utility.yul\":913:924   */\n  add\n    /* \"#utility.yul\":909:929   */\n  add\n    /* \"#utility.yul\":906:939   */\n  gt\n    /* \"#utility.yul\":903:956   */\n  iszero\n  tag_63\n  jumpi\n    /* \"#utility.yul\":952:953   */\n  0x00\n    /* \"#utility.yul\":949:950   */\n  dup1\n    /* \"#utility.yul\":942:954   */\n  revert\n    /* \"#utility.yul\":903:956   */\ntag_63:\n    /* \"#utility.yul\":974:975   */\n  0x00\n    /* \"#utility.yul\":965:975   */\n  swap4\n  pop\n    /* \"#utility.yul\":984:1113   */\ntag_64:\n    /* \"#utility.yul\":998:1000   */\n  dup3\n    /* \"#utility.yul\":995:996   */\n  dup5\n    /* \"#utility.yul\":992:1001   */\n  lt\n    /* \"#utility.yul\":984:1113   */\n  iszero\n  tag_66\n  jumpi\n    /* \"#utility.yul\":1086:1096   */\n  dup5\n  dup5\n  add\n    /* \"#utility.yul\":1082:1101   */\n  dup7\n  add\n    /* \"#utility.yul\":1076:1102   */\n  mload\n    /* \"#utility.yul\":1055:1069   */\n  dup2\n  dup6\n  add\n    /* \"#utility.yul\":1051:1074   */\n  dup8\n  add\n    /* \"#utility.yul\":1044:1103   */\n  mstore\n    /* \"#utility.yul\":1009:1019   */\n  swap3\n  dup6\n  add\n  swap3\n    /* \"#utility.yul\":984:1113   */\n  jump(tag_64)\ntag_66:\n    /* \"#utility.yul\":1131:1133   */\n  dup3\n    /* \"#utility.yul\":1128:1129   */\n  dup5\n    /* \"#utility.yul\":1125:1134   */\n  gt\n    /* \"#utility.yul\":1122:1202   */\n  iszero\n  tag_67\n  jumpi\n    /* \"#utility.yul\":1190:1191   */\n  0x00\n    /* \"#utility.yul\":1185:1187   */\n  dup7\n    /* \"#utility.yul\":1180:1182   */\n  dup5\n    /* \"#utility.yul\":1172:1178   */\n  dup4\n    /* \"#utility.yul\":1168:1183   */\n  add\n    /* \"#utility.yul\":1164:1188   */\n  add\n    /* \"#utility.yul\":1157:1192   */\n  mstore\n    /* \"#utility.yul\":1122:1202   */\ntag_67:\n    /* \"#utility.yul\":1221:1227   */\n  swap9\n    /* \"#utility.yul\":146:1233   */\n  swap8\n  pop\n  pop\n  pop\n  pop\n  pop\n  pop\n  pop\n  pop\n  jump\t// out\n    /* \"#utility.yul\":1599:1979   */\ntag_42:\n    /* \"#utility.yul\":1678:1679   */\n  0x01\n    /* \"#utility.yul\":1674:1686   */\n  dup2\n  dup2\n  shr\n  swap1\n    /* \"#utility.yul\":1721:1733   */\n  dup3\n  and\n  dup1\n    /* \"#utility.yul\":1742:1803   */\n  tag_70\n  jumpi\n    /* \"#utility.yul\":1796:1800   */\n  0x7f\n    /* \"#utility.yul\":1788:1794   */\n  dup3\n    /* \"#utility.yul\":1784:1801   */\n  and\n    /* \"#utility.yul\":1774:1801   */\n  swap2\n  pop\n    /* \"#utility.yul\":1742:1803   */\ntag_70:\n    /* \"#utility.yul\":1849:1851   */\n  0x20\n    /* \"#utility.yul\":1841:1847   */\n  dup3\n    /* \"#utility.yul\":1838:1852   */\n  lt\n    /* \"#utility.yul\":1818:1836   */\n  dup2\n    /* \"#utility.yul\":1815:1853   */\n  eq\n    /* \"#utility.yul\":1812:1973   */\n  iszero\n  tag_71\n  jumpi\n    /* \"#utility.yul\":1895:1905   */\n  0x4e487b71\n    /* \"#utility.yul\":1890:1893   */\n  0xe0\n    /* \"#utility.yul\":1886:1906   */\n  shl\n    /* \"#utility.yul\":1883:1884   */\n  0x00\n    /* \"#utility.yul\":1876:1907   */\n  mstore\n    /* \"#utility.yul\":1930:1934   */\n  0x22\n    /* \"#utility.yul\":1927:1928   */\n  0x04\n    /* \"#utility.yul\":1920:1935   */\n  mstore\n    /* \"#utility.yul\":1958:1962   */\n  0x24\n    /* \"#utility.yul\":1955:1956   */\n  0x00\n    /* \"#utility.yul\":1948:1963   */\n  revert\n    /* \"#utility.yul\":1812:1973   */\ntag_71:\n  pop\n    /* \"#utility.yul\":1599:1979   */\n  swap2\n  swap1\n  pop\n  jump\t// out\ntag_53:\n    /* \"contracts/fourtwo.sol\":290:3974  contract fourtwo is Ownable, ERC721A, ReentrancyGuard {... */\n  dataSize(sub_0)\n  dup1\n  dataOffset(sub_0)\n  0x00\n  codecopy\n  0x00\n  return\nstop\n\nsub_0: assembly {\n        /* \"contracts/fourtwo.sol\":290:3974  contract fourtwo is Ownable, ERC721A, ReentrancyGuard {... */\n      mstore(0x40, 0x80)\n      jumpi(tag_1, lt(calldatasize, 0x04))\n      shr(0xe0, calldataload(0x00))\n      dup1\n      0x6352211e\n      gt\n      tag_37\n      jumpi\n      dup1\n      0xb3807b1d\n      gt\n      tag_38\n      jumpi\n      dup1\n      0xca8a7d5e\n      gt\n      tag_39\n      jumpi\n      dup1\n      0xca8a7d5e\n      eq\n      tag_32\n      jumpi\n      dup1\n      0xd5abeb01\n      eq\n      tag_33\n      jumpi\n      dup1\n      0xda3ef23f\n      eq\n      tag_34\n      jumpi\n      dup1\n      0xe985e9c5\n      eq\n      tag_35\n      jumpi\n      dup1\n      0xf2fde38b\n      eq\n      tag_36\n      jumpi\n      0x00\n      dup1\n      revert\n    tag_39:\n      dup1\n      0xb3807b1d\n      eq\n      tag_28\n      jumpi\n      dup1\n      0xb88d4fde\n      eq\n      tag_29\n      jumpi\n      dup1\n      0xc6682862\n      eq\n      tag_30\n      jumpi\n      dup1\n      0xc87b56dd\n      eq\n      tag_31\n      jumpi\n      0x00\n      dup1\n      revert\n    tag_38:\n      dup1\n      0x8da5cb5b\n      gt\n      tag_40\n      jumpi\n      dup1\n      0x8da5cb5b\n      eq\n      tag_23\n      jumpi\n      dup1\n      0x95d89b41\n      eq\n      tag_24\n      jumpi\n      dup1\n      0xa0712d68\n      eq\n      tag_25\n      jumpi\n      dup1\n      0xa22cb465\n      eq\n      tag_26\n      jumpi\n      dup1\n      0xa7cd52cb\n      eq\n      tag_27\n      jumpi\n      0x00\n      dup1\n      revert\n    tag_40:\n      dup1\n      0x6352211e\n      eq\n      tag_19\n      jumpi\n      dup1\n      0x674c02aa\n      eq\n      tag_20\n      jumpi\n      dup1\n      0x70a08231\n      eq\n      tag_21\n      jumpi\n      dup1\n      0x715018a6\n      eq\n      tag_22\n      jumpi\n      0x00\n      dup1\n      revert\n    tag_37:\n      dup1\n      0x17dc10c4\n      gt\n      tag_41\n      jumpi\n      dup1\n      0x3ccfd60b\n      gt\n      tag_42\n      jumpi\n      dup1\n      0x3ccfd60b\n      eq\n      tag_14\n      jumpi\n      dup1\n      0x42842e0e\n      eq\n      tag_15\n      jumpi\n      dup1\n      0x55f804b3\n      eq\n      tag_16\n      jumpi\n      dup1\n      0x5b9e3ccf\n      eq\n      tag_17\n      jumpi\n      dup1\n      0x5c975abb\n      eq\n      tag_18\n      jumpi\n      0x00\n      dup1\n      revert\n    tag_42:\n      dup1\n      0x17dc10c4\n      eq\n      tag_10\n      jumpi\n      dup1\n      0x18160ddd\n      eq\n      tag_11\n      jumpi\n      dup1\n      0x18cae269\n      eq\n      tag_12\n      jumpi\n      dup1\n      0x23b872dd\n      eq\n      tag_13\n      jumpi\n      0x00\n      dup1\n      revert\n    tag_41:\n      dup1\n      0x081812fc\n      gt\n      tag_43\n      jumpi\n      dup1\n      0x081812fc\n      eq\n      tag_6\n      jumpi\n      dup1\n      0x095ea7b3\n      eq\n      tag_7\n      jumpi\n      dup1\n      0x13faede6\n      eq\n      tag_8\n      jumpi\n      dup1\n      0x142b0fbe\n      eq\n      tag_9\n      jumpi\n      0x00\n      dup1\n      revert\n    tag_43:\n      dup1\n      0x01ffc9a7\n      eq\n      tag_2\n      jumpi\n      dup1\n      0x02329a29\n      eq\n      tag_3\n      jumpi\n      dup1\n      0x05a3b809\n      eq\n      tag_4\n      jumpi\n      dup1\n      0x06fdde03\n      eq\n      tag_5\n      jumpi\n    tag_1:\n      0x00\n      dup1\n      revert\n        /* \"contracts/ERC721A.sol\":9410:10049  function supportsInterface(bytes4 interfaceId) public view virtual override returns (bool) {... */\n    tag_2:\n      callvalue\n      dup1\n      iszero\n      tag_44\n      jumpi\n      0x00\n      dup1\n      revert\n    tag_44:\n      pop\n      tag_45\n      tag_46\n      calldatasize\n      0x04\n      tag_47\n      jump\t// in\n    tag_46:\n      tag_48\n      jump\t// in\n    tag_45:\n      mload(0x40)\n        /* \"#utility.yul\":565:579   */\n      swap1\n      iszero\n        /* \"#utility.yul\":558:580   */\n      iszero\n        /* \"#utility.yul\":540:581   */\n      dup2\n      mstore\n        /* \"#utility.yul\":528:530   */\n      0x20\n        /* \"#utility.yul\":513:531   */\n      add\n        /* \"contracts/ERC721A.sol\":9410:10049  function supportsInterface(bytes4 interfaceId) public view virtual override returns (bool) {... */\n    tag_49:\n      mload(0x40)\n      dup1\n      swap2\n      sub\n      swap1\n      return\n        /* \"contracts/fourtwo.sol\":2828:2903  function pause(bool _state) external onlyOwner {... */\n    tag_3:\n      callvalue\n      dup1\n      iszero\n      tag_51\n      jumpi\n      0x00\n      dup1\n      revert\n    tag_51:\n      pop\n      tag_52\n      tag_53\n      calldatasize\n      0x04\n      tag_54\n      jump\t// in\n    tag_53:\n      tag_55\n      jump\t// in\n    tag_52:\n      stop\n        /* \"contracts/fourtwo.sol\":2054:2155  function isAllowlisted(address _user) public view returns (bool) {... */\n    tag_4:\n      callvalue\n      dup1\n      iszero\n      tag_56\n      jumpi\n      0x00\n      dup1\n      revert\n    tag_56:\n      pop\n      tag_45\n      tag_58\n      calldatasize\n      0x04\n      tag_59\n      jump\t// in\n    tag_58:\n      sub(shl(0xa0, 0x01), 0x01)\n        /* \"contracts/fourtwo.sol\":2133:2149  allowlist[_user] */\n      and\n        /* \"contracts/fourtwo.sol\":2113:2117  bool */\n      0x00\n        /* \"contracts/fourtwo.sol\":2133:2149  allowlist[_user] */\n      swap1\n      dup2\n      mstore\n        /* \"contracts/fourtwo.sol\":2133:2142  allowlist */\n      0x10\n        /* \"contracts/fourtwo.sol\":2133:2149  allowlist[_user] */\n      0x20\n      mstore\n      0x40\n      swap1\n      keccak256\n      sload\n      0xff\n      and\n      swap1\n        /* \"contracts/fourtwo.sol\":2054:2155  function isAllowlisted(address _user) public view returns (bool) {... */\n      jump\n        /* \"contracts/ERC721A.sol\":10312:10412  function name() public view virtual override returns (string memory) {... */\n    tag_5:\n      callvalue\n      dup1\n      iszero\n      tag_62\n      jumpi\n      0x00\n      dup1\n      revert\n    tag_62:\n      pop\n      tag_63\n      tag_64\n      jump\t// in\n    tag_63:\n      mload(0x40)\n      tag_49\n      swap2\n      swap1\n      tag_66\n      jump\t// in\n        /* \"contracts/ERC721A.sol\":16803:17021  function getApproved(uint256 tokenId) public view virtual override returns (address) {... */\n    tag_6:\n      callvalue\n      dup1\n      iszero\n      tag_67\n      jumpi\n      0x00\n      dup1\n      revert\n    tag_67:\n      pop\n      tag_68\n      tag_69\n      calldatasize\n      0x04\n      tag_70\n      jump\t// in\n    tag_69:\n      tag_71\n      jump\t// in\n    tag_68:\n      mload(0x40)\n      sub(shl(0xa0, 0x01), 0x01)\n        /* \"#utility.yul\":2411:2443   */\n      swap1\n      swap2\n      and\n        /* \"#utility.yul\":2393:2444   */\n      dup2\n      mstore\n        /* \"#utility.yul\":2381:2383   */\n      0x20\n        /* \"#utility.yul\":2366:2384   */\n      add\n        /* \"contracts/ERC721A.sol\":16803:17021  function getApproved(uint256 tokenId) public view virtual override returns (address) {... */\n      tag_49\n        /* \"#utility.yul\":2247:2450   */\n      jump\n        /* \"contracts/ERC721A.sol\":16236:16644  function approve(address to, uint256 tokenId) public payable virtual override {... */\n    tag_7:\n      tag_52\n      tag_75\n      calldatasize\n      0x04\n      tag_76\n      jump\t// in\n    tag_75:\n      tag_77\n      jump\t// in\n        /* \"contracts/fourtwo.sol\":462:494  uint256 public cost = 0.00 ether */\n    tag_8:\n      callvalue\n      dup1\n      iszero\n      tag_78\n      jumpi\n      0x00\n      dup1\n      revert\n    tag_78:\n      pop\n      tag_79\n      sload(0x0c)\n      dup2\n      jump\n    tag_79:\n      mload(0x40)\n        /* \"#utility.yul\":2860:2885   */\n      swap1\n      dup2\n      mstore\n        /* \"#utility.yul\":2848:2850   */\n      0x20\n        /* \"#utility.yul\":2833:2851   */\n      add\n        /* \"contracts/fourtwo.sol\":462:494  uint256 public cost = 0.00 ether */\n      tag_49\n        /* \"#utility.yul\":2714:2891   */\n      jump\n        /* \"contracts/fourtwo.sol\":3197:3387  function removeUsersFromAllowlist(address[] calldata addresses) external onlyOwner {... */\n    tag_9:\n      callvalue\n      dup1\n      iszero\n      tag_83\n      jumpi\n      0x00\n      dup1\n      revert\n    tag_83:\n      pop\n      tag_52\n      tag_85\n      calldatasize\n      0x04\n      tag_86\n      jump\t// in\n    tag_85:\n      tag_87\n      jump\t// in\n        /* \"contracts/fourtwo.sol\":2911:3006  function setOnlyAllowlisted(bool _state) public onlyOwner {... */\n    tag_10:\n      callvalue\n      dup1\n      iszero\n      tag_88\n      jumpi\n      0x00\n      dup1\n      revert\n    tag_88:\n      pop\n      tag_52\n      tag_90\n      calldatasize\n      0x04\n      tag_54\n      jump\t// in\n    tag_90:\n      tag_91\n      jump\t// in\n        /* \"contracts/ERC721A.sol\":6063:6386  function totalSupply() public view virtual override returns (uint256) {... */\n    tag_11:\n      callvalue\n      dup1\n      iszero\n      tag_92\n      jumpi\n      0x00\n      dup1\n      revert\n    tag_92:\n      pop\n        /* \"contracts/ERC721A.sol\":6337:6349  _burnCounter */\n      sload(0x02)\n        /* \"contracts/ERC721A.sol\":6321:6334  _currentIndex */\n      sload(0x01)\n        /* \"contracts/ERC721A.sol\":6321:6349  _currentIndex - _burnCounter */\n      sub\n        /* \"contracts/ERC721A.sol\":6063:6386  function totalSupply() public view virtual override returns (uint256) {... */\n      jump(tag_79)\n        /* \"contracts/fourtwo.sol\":691:746  mapping(address => uint256) public addressMintedBalance */\n    tag_12:\n      callvalue\n      dup1\n      iszero\n      tag_96\n      jumpi\n      0x00\n      dup1\n      revert\n    tag_96:\n      pop\n      tag_79\n      tag_98\n      calldatasize\n      0x04\n      tag_59\n      jump\t// in\n    tag_98:\n      mstore(0x20, 0x11)\n      0x00\n      swap1\n      dup2\n      mstore\n      0x40\n      swap1\n      keccak256\n      sload\n      dup2\n      jump\n        /* \"contracts/ERC721A.sol\":20442:23267  function transferFrom(... */\n    tag_13:\n      tag_52\n      tag_102\n      calldatasize\n      0x04\n      tag_103\n      jump\t// in\n    tag_102:\n      tag_104\n      jump\t// in\n        /* \"contracts/fourtwo.sol\":3861:3967  function withdraw() public payable onlyOwner {... */\n    tag_14:\n      tag_52\n      tag_106\n      jump\t// in\n        /* \"contracts/ERC721A.sol\":23363:23556  function safeTransferFrom(... */\n    tag_15:\n      tag_52\n      tag_108\n      calldatasize\n      0x04\n      tag_103\n      jump\t// in\n    tag_108:\n      tag_109\n      jump\t// in\n        /* \"contracts/fourtwo.sol\":2596:2694  function setBaseURI(string memory _newBaseURI) public onlyOwner {... */\n    tag_16:\n      callvalue\n      dup1\n      iszero\n      tag_110\n      jumpi\n      0x00\n      dup1\n      revert\n    tag_110:\n      pop\n      tag_52\n      tag_112\n      calldatasize\n      0x04\n      tag_113\n      jump\t// in\n    tag_112:\n      tag_114\n      jump\t// in\n        /* \"contracts/fourtwo.sol\":3012:3191  function allowlistUsers(address[] calldata addresses) external onlyOwner {... */\n    tag_17:\n      callvalue\n      dup1\n      iszero\n      tag_115\n      jumpi\n      0x00\n      dup1\n      revert\n    tag_115:\n      pop\n      tag_52\n      tag_117\n      calldatasize\n      0x04\n      tag_86\n      jump\t// in\n    tag_117:\n      tag_118\n      jump\t// in\n        /* \"contracts/fourtwo.sol\":574:600  bool public paused = false */\n    tag_18:\n      callvalue\n      dup1\n      iszero\n      tag_119\n      jumpi\n      0x00\n      dup1\n      revert\n    tag_119:\n      pop\n      sload(0x0f)\n      tag_45\n      swap1\n      0xff\n      and\n      dup2\n      jump\n        /* \"contracts/ERC721A.sol\":11705:11857  function ownerOf(uint256 tokenId) public view virtual override returns (address) {... */\n    tag_19:\n      callvalue\n      dup1\n      iszero\n      tag_123\n      jumpi\n      0x00\n      dup1\n      revert\n    tag_123:\n      pop\n      tag_68\n      tag_125\n      calldatasize\n      0x04\n      tag_70\n      jump\t// in\n    tag_125:\n      tag_126\n      jump\t// in\n        /* \"contracts/fourtwo.sol\":605:640  bool public onlyAllowlisted = false */\n    tag_20:\n      callvalue\n      dup1\n      iszero\n      tag_128\n      jumpi\n      0x00\n      dup1\n      revert\n    tag_128:\n      pop\n      sload(0x0f)\n      tag_45\n      swap1\n      0x0100\n      swap1\n      div\n      0xff\n      and\n      dup2\n      jump\n        /* \"contracts/ERC721A.sol\":7247:7480  function balanceOf(address owner) public view virtual override returns (uint256) {... */\n    tag_21:\n      callvalue\n      dup1\n      iszero\n      tag_132\n      jumpi\n      0x00\n      dup1\n      revert\n    tag_132:\n      pop\n      tag_79\n      tag_134\n      calldatasize\n      0x04\n      tag_59\n      jump\t// in\n    tag_134:\n      tag_135\n      jump\t// in\n        /* \"@openzeppelin/contracts/access/Ownable.sol\":1831:1932  function renounceOwnership() public virtual onlyOwner {... */\n    tag_22:\n      callvalue\n      dup1\n      iszero\n      tag_137\n      jumpi\n      0x00\n      dup1\n      revert\n    tag_137:\n      pop\n      tag_52\n      tag_139\n      jump\t// in\n        /* \"@openzeppelin/contracts/access/Ownable.sol\":1201:1286  function owner() public view virtual returns (address) {... */\n    tag_23:\n      callvalue\n      dup1\n      iszero\n      tag_140\n      jumpi\n      0x00\n      dup1\n      revert\n    tag_140:\n      pop\n        /* \"@openzeppelin/contracts/access/Ownable.sol\":1247:1254  address */\n      0x00\n        /* \"@openzeppelin/contracts/access/Ownable.sol\":1273:1279  _owner */\n      sload\n      sub(shl(0xa0, 0x01), 0x01)\n      and\n        /* \"@openzeppelin/contracts/access/Ownable.sol\":1201:1286  function owner() public view virtual returns (address) {... */\n      jump(tag_68)\n        /* \"contracts/ERC721A.sol\":10488:10592  function symbol() public view virtual override returns (string memory) {... */\n    tag_24:\n      callvalue\n      dup1\n      iszero\n      tag_144\n      jumpi\n      0x00\n      dup1\n      revert\n    tag_144:\n      pop\n      tag_63\n      tag_146\n      jump\t// in\n        /* \"contracts/fourtwo.sol\":1009:2044  function mint(uint256 _mintAmount) public payable {... */\n    tag_25:\n      tag_52\n      tag_149\n      calldatasize\n      0x04\n      tag_70\n      jump\t// in\n    tag_149:\n      tag_150\n      jump\t// in\n        /* \"contracts/ERC721A.sol\":17361:17595  function setApprovalForAll(address operator, bool approved) public virtual override {... */\n    tag_26:\n      callvalue\n      dup1\n      iszero\n      tag_151\n      jumpi\n      0x00\n      dup1\n      revert\n    tag_151:\n      pop\n      tag_52\n      tag_153\n      calldatasize\n      0x04\n      tag_154\n      jump\t// in\n    tag_153:\n      tag_155\n      jump\t// in\n        /* \"contracts/fourtwo.sol\":645:686  mapping(address => bool) public allowlist */\n    tag_27:\n      callvalue\n      dup1\n      iszero\n      tag_156\n      jumpi\n      0x00\n      dup1\n      revert\n    tag_156:\n      pop\n      tag_45\n      tag_158\n      calldatasize\n      0x04\n      tag_59\n      jump\t// in\n    tag_158:\n      mstore(0x20, 0x10)\n      0x00\n      swap1\n      dup2\n      mstore\n      0x40\n      swap1\n      keccak256\n      sload\n      0xff\n      and\n      dup2\n      jump\n        /* \"contracts/fourtwo.sol\":534:567  uint256 public AllowlistLimit = 5 */\n    tag_28:\n      callvalue\n      dup1\n      iszero\n      tag_161\n      jumpi\n      0x00\n      dup1\n      revert\n    tag_161:\n      pop\n      tag_79\n      sload(0x0e)\n      dup2\n      jump\n        /* \"contracts/ERC721A.sol\":24154:24561  function safeTransferFrom(... */\n    tag_29:\n      tag_52\n      tag_166\n      calldatasize\n      0x04\n      tag_167\n      jump\t// in\n    tag_166:\n      tag_168\n      jump\t// in\n        /* \"contracts/fourtwo.sol\":418:455  string public baseExtension = \".json\" */\n    tag_30:\n      callvalue\n      dup1\n      iszero\n      tag_169\n      jumpi\n      0x00\n      dup1\n      revert\n    tag_169:\n      pop\n      tag_63\n      tag_171\n      jump\t// in\n        /* \"contracts/fourtwo.sol\":2161:2586  function tokenURI(uint256 tokenId)... */\n    tag_31:\n      callvalue\n      dup1\n      iszero\n      tag_173\n      jumpi\n      0x00\n      dup1\n      revert\n    tag_173:\n      pop\n      tag_63\n      tag_175\n      calldatasize\n      0x04\n      tag_70\n      jump\t// in\n    tag_175:\n      tag_176\n      jump\t// in\n        /* \"contracts/fourtwo.sol\":3393:3854  function ownerOfTokenIds(address tokenOwner) external view returns (uint256[] memory) {... */\n    tag_32:\n      callvalue\n      dup1\n      iszero\n      tag_178\n      jumpi\n      0x00\n      dup1\n      revert\n    tag_178:\n      pop\n      tag_179\n      tag_180\n      calldatasize\n      0x04\n      tag_59\n      jump\t// in\n    tag_180:\n      tag_181\n      jump\t// in\n    tag_179:\n      mload(0x40)\n      tag_49\n      swap2\n      swap1\n      tag_183\n      jump\t// in\n        /* \"contracts/fourtwo.sol\":499:529  uint256 public maxSupply = 420 */\n    tag_33:\n      callvalue\n      dup1\n      iszero\n      tag_184\n      jumpi\n      0x00\n      dup1\n      revert\n    tag_184:\n      pop\n      tag_79\n      sload(0x0d)\n      dup2\n      jump\n        /* \"contracts/fourtwo.sol\":2700:2822  function setBaseExtension(string memory _newBaseExtension) public onlyOwner {... */\n    tag_34:\n      callvalue\n      dup1\n      iszero\n      tag_188\n      jumpi\n      0x00\n      dup1\n      revert\n    tag_188:\n      pop\n      tag_52\n      tag_190\n      calldatasize\n      0x04\n      tag_113\n      jump\t// in\n    tag_190:\n      tag_191\n      jump\t// in\n        /* \"contracts/ERC721A.sol\":17752:17916  function isApprovedForAll(address owner, address operator) public view virtual override returns (bool) {... */\n    tag_35:\n      callvalue\n      dup1\n      iszero\n      tag_192\n      jumpi\n      0x00\n      dup1\n      revert\n    tag_192:\n      pop\n      tag_45\n      tag_194\n      calldatasize\n      0x04\n      tag_195\n      jump\t// in\n    tag_194:\n      sub(shl(0xa0, 0x01), 0x01)\n        /* \"contracts/ERC721A.sol\":17873:17898  _operatorApprovals[owner] */\n      swap2\n      dup3\n      and\n        /* \"contracts/ERC721A.sol\":17849:17853  bool */\n      0x00\n        /* \"contracts/ERC721A.sol\":17873:17898  _operatorApprovals[owner] */\n      swap1\n      dup2\n      mstore\n        /* \"contracts/ERC721A.sol\":17873:17891  _operatorApprovals */\n      0x08\n        /* \"contracts/ERC721A.sol\":17873:17898  _operatorApprovals[owner] */\n      0x20\n      swap1\n      dup2\n      mstore\n      0x40\n      dup1\n      dup4\n      keccak256\n        /* \"contracts/ERC721A.sol\":17873:17908  _operatorApprovals[owner][operator] */\n      swap4\n      swap1\n      swap5\n      and\n      dup3\n      mstore\n      swap2\n      swap1\n      swap2\n      mstore\n      keccak256\n      sload\n      0xff\n      and\n      swap1\n        /* \"contracts/ERC721A.sol\":17752:17916  function isApprovedForAll(address owner, address operator) public view virtual override returns (bool) {... */\n      jump\n        /* \"@openzeppelin/contracts/access/Ownable.sol\":2081:2279  function transferOwnership(address newOwner) public virtual onlyOwner {... */\n    tag_36:\n      callvalue\n      dup1\n      iszero\n      tag_198\n      jumpi\n      0x00\n      dup1\n      revert\n    tag_198:\n      pop\n      tag_52\n      tag_200\n      calldatasize\n      0x04\n      tag_59\n      jump\t// in\n    tag_200:\n      tag_201\n      jump\t// in\n        /* \"contracts/ERC721A.sol\":9410:10049  function supportsInterface(bytes4 interfaceId) public view virtual override returns (bool) {... */\n    tag_48:\n        /* \"contracts/ERC721A.sol\":9495:9499  bool */\n      0x00\n      shl(0xe0, 0x01ffc9a7)\n      not(sub(shl(0xe0, 0x01), 0x01))\n        /* \"contracts/ERC721A.sol\":9819:9844  interfaceId == 0x01ffc9a7 */\n      dup4\n      and\n      eq\n      dup1\n        /* \"contracts/ERC721A.sol\":9819:9921  interfaceId == 0x01ffc9a7 || // ERC165 interface ID for ERC165.... */\n      tag_203\n      jumpi\n      pop\n      shl(0xe0, 0x80ac58cd)\n      not(sub(shl(0xe0, 0x01), 0x01))\n        /* \"contracts/ERC721A.sol\":9896:9921  interfaceId == 0x80ac58cd */\n      dup4\n      and\n      eq\n        /* \"contracts/ERC721A.sol\":9819:9921  interfaceId == 0x01ffc9a7 || // ERC165 interface ID for ERC165.... */\n    tag_203:\n        /* \"contracts/ERC721A.sol\":9819:9998  interfaceId == 0x01ffc9a7 || // ERC165 interface ID for ERC165.... */\n      dup1\n      tag_204\n      jumpi\n      pop\n      shl(0xe0, 0x5b5e139f)\n      not(sub(shl(0xe0, 0x01), 0x01))\n        /* \"contracts/ERC721A.sol\":9973:9998  interfaceId == 0x5b5e139f */\n      dup4\n      and\n      eq\n        /* \"contracts/ERC721A.sol\":9819:9998  interfaceId == 0x01ffc9a7 || // ERC165 interface ID for ERC165.... */\n    tag_204:\n        /* \"contracts/ERC721A.sol\":9799:9998  return... */\n      swap3\n        /* \"contracts/ERC721A.sol\":9410:10049  function supportsInterface(bytes4 interfaceId) public view virtual override returns (bool) {... */\n      swap2\n      pop\n      pop\n      jump\t// out\n        /* \"contracts/fourtwo.sol\":2828:2903  function pause(bool _state) external onlyOwner {... */\n    tag_55:\n        /* \"@openzeppelin/contracts/access/Ownable.sol\":1094:1107  _checkOwner() */\n      tag_206\n        /* \"@openzeppelin/contracts/access/Ownable.sol\":1094:1105  _checkOwner */\n      tag_207\n        /* \"@openzeppelin/contracts/access/Ownable.sol\":1094:1107  _checkOwner() */\n      jump\t// in\n    tag_206:\n        /* \"contracts/fourtwo.sol\":2882:2888  paused */\n      0x0f\n        /* \"contracts/fourtwo.sol\":2882:2897  paused = _state */\n      dup1\n      sload\n      not(0xff)\n      and\n      swap2\n      iszero\n      iszero\n      swap2\n      swap1\n      swap2\n      or\n      swap1\n      sstore\n        /* \"contracts/fourtwo.sol\":2828:2903  function pause(bool _state) external onlyOwner {... */\n      jump\t// out\n        /* \"contracts/ERC721A.sol\":10312:10412  function name() public view virtual override returns (string memory) {... */\n    tag_64:\n        /* \"contracts/ERC721A.sol\":10366:10379  string memory */\n      0x60\n        /* \"contracts/ERC721A.sol\":10399:10404  _name */\n      0x03\n        /* \"contracts/ERC721A.sol\":10392:10404  return _name */\n      dup1\n      sload\n      tag_211\n      swap1\n      tag_212\n      jump\t// in\n    tag_211:\n      dup1\n      0x1f\n      add\n      0x20\n      dup1\n      swap2\n      div\n      mul\n      0x20\n      add\n      mload(0x40)\n      swap1\n      dup2\n      add\n      0x40\n      mstore\n      dup1\n      swap3\n      swap2\n      swap1\n      dup2\n      dup2\n      mstore\n      0x20\n      add\n      dup3\n      dup1\n      sload\n      tag_213\n      swap1\n      tag_212\n      jump\t// in\n    tag_213:\n      dup1\n      iszero\n      tag_214\n      jumpi\n      dup1\n      0x1f\n      lt\n      tag_215\n      jumpi\n      0x0100\n      dup1\n      dup4\n      sload\n      div\n      mul\n      dup4\n      mstore\n      swap2\n      0x20\n      add\n      swap2\n      jump(tag_214)\n    tag_215:\n      dup3\n      add\n      swap2\n      swap1\n      0x00\n      mstore\n      keccak256(0x00, 0x20)\n      swap1\n    tag_216:\n      dup2\n      sload\n      dup2\n      mstore\n      swap1\n      0x01\n      add\n      swap1\n      0x20\n      add\n      dup1\n      dup4\n      gt\n      tag_216\n      jumpi\n      dup3\n      swap1\n      sub\n      0x1f\n      and\n      dup3\n      add\n      swap2\n    tag_214:\n      pop\n      pop\n      pop\n      pop\n      pop\n      swap1\n      pop\n        /* \"contracts/ERC721A.sol\":10312:10412  function name() public view virtual override returns (string memory) {... */\n      swap1\n      jump\t// out\n        /* \"contracts/ERC721A.sol\":16803:17021  function getApproved(uint256 tokenId) public view virtual override returns (address) {... */\n    tag_71:\n        /* \"contracts/ERC721A.sol\":16879:16886  address */\n      0x00\n        /* \"contracts/ERC721A.sol\":16904:16920  _exists(tokenId) */\n      tag_218\n        /* \"contracts/ERC721A.sol\":16912:16919  tokenId */\n      dup3\n        /* \"contracts/ERC721A.sol\":16904:16911  _exists */\n      tag_219\n        /* \"contracts/ERC721A.sol\":16904:16920  _exists(tokenId) */\n      jump\t// in\n    tag_218:\n        /* \"contracts/ERC721A.sol\":16899:16963  if (!_exists(tokenId)) revert ApprovalQueryForNonexistentToken() */\n      tag_220\n      jumpi\n        /* \"contracts/ERC721A.sol\":16929:16963  ApprovalQueryForNonexistentToken() */\n      mload(0x40)\n      shl(0xe2, 0x33d1c039)\n      dup2\n      mstore\n      0x04\n      add\n      mload(0x40)\n      dup1\n      swap2\n      sub\n      swap1\n      revert\n        /* \"contracts/ERC721A.sol\":16899:16963  if (!_exists(tokenId)) revert ApprovalQueryForNonexistentToken() */\n    tag_220:\n      pop\n        /* \"contracts/ERC721A.sol\":16983:17007  _tokenApprovals[tokenId] */\n      0x00\n      swap1\n      dup2\n      mstore\n        /* \"contracts/ERC721A.sol\":16983:16998  _tokenApprovals */\n      0x07\n        /* \"contracts/ERC721A.sol\":16983:17007  _tokenApprovals[tokenId] */\n      0x20\n      mstore\n      0x40\n      swap1\n      keccak256\n        /* \"contracts/ERC721A.sol\":16983:17013  _tokenApprovals[tokenId].value */\n      sload\n      sub(shl(0xa0, 0x01), 0x01)\n      and\n      swap1\n        /* \"contracts/ERC721A.sol\":16803:17021  function getApproved(uint256 tokenId) public view virtual override returns (address) {... */\n      jump\t// out\n        /* \"contracts/ERC721A.sol\":16236:16644  function approve(address to, uint256 tokenId) public payable virtual override {... */\n    tag_77:\n        /* \"contracts/ERC721A.sol\":16325:16338  address owner */\n      0x00\n        /* \"contracts/ERC721A.sol\":16341:16357  ownerOf(tokenId) */\n      tag_222\n        /* \"contracts/ERC721A.sol\":16349:16356  tokenId */\n      dup3\n        /* \"contracts/ERC721A.sol\":16341:16348  ownerOf */\n      tag_126\n        /* \"contracts/ERC721A.sol\":16341:16357  ownerOf(tokenId) */\n      jump\t// in\n    tag_222:\n        /* \"contracts/ERC721A.sol\":16325:16357  address owner = ownerOf(tokenId) */\n      swap1\n      pop\n        /* \"contracts/ERC721A.sol\":40569:40579  msg.sender */\n      caller\n      sub(shl(0xa0, 0x01), 0x01)\n        /* \"contracts/ERC721A.sol\":16374:16402  _msgSenderERC721A() != owner */\n      dup3\n      and\n      eq\n        /* \"contracts/ERC721A.sol\":16370:16545  if (_msgSenderERC721A() != owner)... */\n      tag_228\n      jumpi\n        /* \"contracts/ERC721A.sol\":16422:16466  isApprovedForAll(owner, _msgSenderERC721A()) */\n      tag_226\n        /* \"contracts/ERC721A.sol\":16439:16444  owner */\n      dup2\n        /* \"contracts/ERC721A.sol\":40569:40579  msg.sender */\n      caller\n        /* \"contracts/ERC721A.sol\":17752:17916  function isApprovedForAll(address owner, address operator) public view virtual override returns (bool) {... */\n      tag_194\n      jump\t// in\n        /* \"contracts/ERC721A.sol\":16422:16466  isApprovedForAll(owner, _msgSenderERC721A()) */\n    tag_226:\n        /* \"contracts/ERC721A.sol\":16417:16545  if (!isApprovedForAll(owner, _msgSenderERC721A())) {... */\n      tag_228\n      jumpi\n        /* \"contracts/ERC721A.sol\":16494:16529  ApprovalCallerNotOwnerNorApproved() */\n      mload(0x40)\n      shl(0xe1, 0x67d9dca1)\n      dup2\n      mstore\n      0x04\n      add\n      mload(0x40)\n      dup1\n      swap2\n      sub\n      swap1\n      revert\n        /* \"contracts/ERC721A.sol\":16417:16545  if (!isApprovedForAll(owner, _msgSenderERC721A())) {... */\n    tag_228:\n        /* \"contracts/ERC721A.sol\":16557:16581  _tokenApprovals[tokenId] */\n      0x00\n      dup3\n      dup2\n      mstore\n        /* \"contracts/ERC721A.sol\":16557:16572  _tokenApprovals */\n      0x07\n        /* \"contracts/ERC721A.sol\":16557:16581  _tokenApprovals[tokenId] */\n      0x20\n      mstore\n      0x40\n      dup1\n      dup3\n      keccak256\n        /* \"contracts/ERC721A.sol\":16557:16592  _tokenApprovals[tokenId].value = to */\n      dup1\n      sload\n      not(sub(shl(0xa0, 0x01), 0x01))\n      and\n      sub(shl(0xa0, 0x01), 0x01)\n      dup8\n      dup2\n      and\n      swap2\n      dup3\n      or\n      swap1\n      swap3\n      sstore\n        /* \"contracts/ERC721A.sol\":16608:16636  Approval(owner, to, tokenId) */\n      swap2\n      mload\n        /* \"contracts/ERC721A.sol\":16557:16581  _tokenApprovals[tokenId] */\n      dup6\n      swap4\n        /* \"contracts/ERC721A.sol\":16608:16636  Approval(owner, to, tokenId) */\n      swap2\n      dup6\n      and\n      swap2\n      0x8c5be1e5ebec7d5bd14f71427d1e84f3dd0314c0f7b2291e5b200ac8c7c3b925\n      swap2\n      log4\n        /* \"contracts/ERC721A.sol\":16314:16644  {... */\n      pop\n        /* \"contracts/ERC721A.sol\":16236:16644  function approve(address to, uint256 tokenId) public payable virtual override {... */\n      pop\n      pop\n      jump\t// out\n        /* \"contracts/fourtwo.sol\":3197:3387  function removeUsersFromAllowlist(address[] calldata addresses) external onlyOwner {... */\n    tag_87:\n        /* \"@openzeppelin/contracts/access/Ownable.sol\":1094:1107  _checkOwner() */\n      tag_230\n        /* \"@openzeppelin/contracts/access/Ownable.sol\":1094:1105  _checkOwner */\n      tag_207\n        /* \"@openzeppelin/contracts/access/Ownable.sol\":1094:1107  _checkOwner() */\n      jump\t// in\n    tag_230:\n        /* \"contracts/fourtwo.sol\":3292:3301  uint256 i */\n      0x00\n        /* \"contracts/fourtwo.sol\":3287:3382  for (uint256 i = 0; i < addresses.length; i++) {... */\n    tag_232:\n        /* \"contracts/fourtwo.sol\":3307:3327  i < addresses.length */\n      dup2\n      dup2\n      lt\n        /* \"contracts/fourtwo.sol\":3287:3382  for (uint256 i = 0; i < addresses.length; i++) {... */\n      iszero\n      tag_233\n      jumpi\n        /* \"contracts/fourtwo.sol\":3369:3374  false */\n      0x00\n        /* \"contracts/fourtwo.sol\":3343:3352  allowlist */\n      0x10\n        /* \"contracts/fourtwo.sol\":3343:3366  allowlist[addresses[i]] */\n      0x00\n        /* \"contracts/fourtwo.sol\":3353:3362  addresses */\n      dup6\n      dup6\n        /* \"contracts/fourtwo.sol\":3363:3364  i */\n      dup6\n        /* \"contracts/fourtwo.sol\":3353:3365  addresses[i] */\n      dup2\n      dup2\n      lt\n      tag_236\n      jumpi\n      tag_236\n      tag_237\n      jump\t// in\n    tag_236:\n      swap1\n      pop\n      0x20\n      mul\n      add\n      0x20\n      dup2\n      add\n      swap1\n      tag_238\n      swap2\n      swap1\n      tag_59\n      jump\t// in\n    tag_238:\n      sub(shl(0xa0, 0x01), 0x01)\n        /* \"contracts/fourtwo.sol\":3343:3366  allowlist[addresses[i]] */\n      and\n      dup2\n      mstore\n      0x20\n      dup2\n      add\n      swap2\n      swap1\n      swap2\n      mstore\n      0x40\n      add\n      0x00\n      keccak256\n        /* \"contracts/fourtwo.sol\":3343:3374  allowlist[addresses[i]] = false */\n      dup1\n      sload\n      not(0xff)\n      and\n      swap2\n      iszero\n      iszero\n      swap2\n      swap1\n      swap2\n      or\n      swap1\n      sstore\n        /* \"contracts/fourtwo.sol\":3329:3332  i++ */\n      dup1\n      tag_239\n      dup2\n      tag_240\n      jump\t// in\n    tag_239:\n      swap2\n      pop\n      pop\n        /* \"contracts/fourtwo.sol\":3287:3382  for (uint256 i = 0; i < addresses.length; i++) {... */\n      jump(tag_232)\n    tag_233:\n      pop\n        /* \"contracts/fourtwo.sol\":3197:3387  function removeUsersFromAllowlist(address[] calldata addresses) external onlyOwner {... */\n      pop\n      pop\n      jump\t// out\n        /* \"contracts/fourtwo.sol\":2911:3006  function setOnlyAllowlisted(bool _state) public onlyOwner {... */\n    tag_91:\n        /* \"@openzeppelin/contracts/access/Ownable.sol\":1094:1107  _checkOwner() */\n      tag_242\n        /* \"@openzeppelin/contracts/access/Ownable.sol\":1094:1105  _checkOwner */\n      tag_207\n        /* \"@openzeppelin/contracts/access/Ownable.sol\":1094:1107  _checkOwner() */\n      jump\t// in\n    tag_242:\n        /* \"contracts/fourtwo.sol\":2976:2991  onlyAllowlisted */\n      0x0f\n        /* \"contracts/fourtwo.sol\":2976:3000  onlyAllowlisted = _state */\n      dup1\n      sload\n      swap2\n      iszero\n      iszero\n      0x0100\n      mul\n      not(0xff00)\n      swap1\n      swap3\n      and\n      swap2\n      swap1\n      swap2\n      or\n      swap1\n      sstore\n        /* \"contracts/fourtwo.sol\":2911:3006  function setOnlyAllowlisted(bool _state) public onlyOwner {... */\n      jump\t// out\n        /* \"contracts/ERC721A.sol\":20442:23267  function transferFrom(... */\n    tag_104:\n        /* \"contracts/ERC721A.sol\":20584:20611  uint256 prevOwnershipPacked */\n      0x00\n        /* \"contracts/ERC721A.sol\":20614:20641  _packedOwnershipOf(tokenId) */\n      tag_248\n        /* \"contracts/ERC721A.sol\":20633:20640  tokenId */\n      dup3\n        /* \"contracts/ERC721A.sol\":20614:20632  _packedOwnershipOf */\n      tag_249\n        /* \"contracts/ERC721A.sol\":20614:20641  _packedOwnershipOf(tokenId) */\n      jump\t// in\n    tag_248:\n        /* \"contracts/ERC721A.sol\":20584:20641  uint256 prevOwnershipPacked = _packedOwnershipOf(tokenId) */\n      swap1\n      pop\n        /* \"contracts/ERC721A.sol\":20699:20703  from */\n      dup4\n      sub(shl(0xa0, 0x01), 0x01)\n        /* \"contracts/ERC721A.sol\":20658:20703  address(uint160(prevOwnershipPacked)) != from */\n      and\n        /* \"contracts/ERC721A.sol\":20674:20693  prevOwnershipPacked */\n      dup2\n      sub(shl(0xa0, 0x01), 0x01)\n        /* \"contracts/ERC721A.sol\":20658:20703  address(uint160(prevOwnershipPacked)) != from */\n      and\n      eq\n        /* \"contracts/ERC721A.sol\":20654:20740  if (address(uint160(prevOwnershipPacked)) != from) revert TransferFromIncorrectOwner() */\n      tag_250\n      jumpi\n        /* \"contracts/ERC721A.sol\":20712:20740  TransferFromIncorrectOwner() */\n      mload(0x40)\n      shl(0xe8, 0xa11481)\n      dup2\n      mstore\n      0x04\n      add\n      mload(0x40)\n      dup1\n      swap2\n      sub\n      swap1\n      revert\n        /* \"contracts/ERC721A.sol\":20654:20740  if (address(uint160(prevOwnershipPacked)) != from) revert TransferFromIncorrectOwner() */\n    tag_250:\n        /* \"contracts/ERC721A.sol\":20754:20781  uint256 approvedAddressSlot */\n      0x00\n        /* \"contracts/ERC721A.sol\":19550:19574  _tokenApprovals[tokenId] */\n      dup3\n      dup2\n      mstore\n        /* \"contracts/ERC721A.sol\":19550:19565  _tokenApprovals */\n      0x07\n        /* \"contracts/ERC721A.sol\":19550:19574  _tokenApprovals[tokenId] */\n      0x20\n      mstore\n      0x40\n      swap1\n      keccak256\n        /* \"contracts/ERC721A.sol\":19778:19804  sload(approvedAddressSlot) */\n      dup1\n      sload\n        /* \"contracts/ERC721A.sol\":40569:40579  msg.sender */\n      caller\n        /* \"contracts/ERC721A.sol\":19175:19205  eq(msgSender, approvedAddress) */\n      dup1\n      dup3\n      eq\n      sub(shl(0xa0, 0x01), 0x01)\n        /* \"contracts/ERC721A.sol\":18868:18896  and(owner, _BITMASK_ADDRESS) */\n      dup9\n      and\n        /* \"contracts/ERC721A.sol\":19153:19173  eq(msgSender, owner) */\n      swap1\n      swap2\n      eq\n        /* \"contracts/ERC721A.sol\":19150:19206  or(eq(msgSender, owner), eq(msgSender, approvedAddress)) */\n      or\n        /* \"contracts/ERC721A.sol\":20940:21120  if (!_isSenderApprovedOrOwner(approvedAddress, from, _msgSenderERC721A()))... */\n      tag_259\n      jumpi\n        /* \"contracts/ERC721A.sol\":21033:21076  isApprovedForAll(from, _msgSenderERC721A()) */\n      tag_257\n        /* \"contracts/ERC721A.sol\":21050:21054  from */\n      dup7\n        /* \"contracts/ERC721A.sol\":40569:40579  msg.sender */\n      caller\n        /* \"contracts/ERC721A.sol\":17752:17916  function isApprovedForAll(address owner, address operator) public view virtual override returns (bool) {... */\n      tag_194\n      jump\t// in\n        /* \"contracts/ERC721A.sol\":21033:21076  isApprovedForAll(from, _msgSenderERC721A()) */\n    tag_257:\n        /* \"contracts/ERC721A.sol\":21028:21120  if (!isApprovedForAll(from, _msgSenderERC721A())) revert TransferCallerNotOwnerNorApproved() */\n      tag_259\n      jumpi\n        /* \"contracts/ERC721A.sol\":21085:21120  TransferCallerNotOwnerNorApproved() */\n      mload(0x40)\n      shl(0xe1, 0x2ce44b5f)\n      dup2\n      mstore\n      0x04\n      add\n      mload(0x40)\n      dup1\n      swap2\n      sub\n      swap1\n      revert\n        /* \"contracts/ERC721A.sol\":21028:21120  if (!isApprovedForAll(from, _msgSenderERC721A())) revert TransferCallerNotOwnerNorApproved() */\n    tag_259:\n      sub(shl(0xa0, 0x01), 0x01)\n        /* \"contracts/ERC721A.sol\":21137:21153  to == address(0) */\n      dup6\n      and\n        /* \"contracts/ERC721A.sol\":21133:21185  if (to == address(0)) revert TransferToZeroAddress() */\n      tag_260\n      jumpi\n        /* \"contracts/ERC721A.sol\":21162:21185  TransferToZeroAddress() */\n      mload(0x40)\n      shl(0xe2, 0x3a954ecd)\n      dup2\n      mstore\n      0x04\n      add\n      mload(0x40)\n      dup1\n      swap2\n      sub\n      swap1\n      revert\n        /* \"contracts/ERC721A.sol\":21133:21185  if (to == address(0)) revert TransferToZeroAddress() */\n    tag_260:\n        /* \"contracts/ERC721A.sol\":21334:21349  approvedAddress */\n      dup1\n        /* \"contracts/ERC721A.sol\":21331:21491  if approvedAddress {... */\n      iszero\n      tag_263\n      jumpi\n        /* \"contracts/ERC721A.sol\":21474:21475  0 */\n      0x00\n        /* \"contracts/ERC721A.sol\":21453:21472  approvedAddressSlot */\n      dup3\n        /* \"contracts/ERC721A.sol\":21446:21476  sstore(approvedAddressSlot, 0) */\n      sstore\n        /* \"contracts/ERC721A.sol\":21331:21491  if approvedAddress {... */\n    tag_263:\n      sub(shl(0xa0, 0x01), 0x01)\n        /* \"contracts/ERC721A.sol\":21871:21895  _packedAddressData[from] */\n      dup7\n      dup2\n      and\n      0x00\n      swap1\n      dup2\n      mstore\n        /* \"contracts/ERC721A.sol\":21871:21889  _packedAddressData */\n      0x06\n        /* \"contracts/ERC721A.sol\":21871:21895  _packedAddressData[from] */\n      0x20\n      mstore\n      0x40\n      dup1\n      dup3\n      keccak256\n        /* \"contracts/ERC721A.sol\":21869:21895  --_packedAddressData[from] */\n      dup1\n      sload\n      not(0x00)\n      add\n      swap1\n      sstore\n        /* \"contracts/ERC721A.sol\":21940:21962  _packedAddressData[to] */\n      swap2\n      dup8\n      and\n      dup1\n      dup3\n      mstore\n      swap2\n      swap1\n      keccak256\n        /* \"contracts/ERC721A.sol\":21938:21962  ++_packedAddressData[to] */\n      dup1\n      sload\n      0x01\n      add\n      swap1\n      sstore\n        /* \"contracts/ERC721A.sol\":15094:15105  timestamp() */\n      timestamp\n        /* \"contracts/ERC721A.sol\":15069:15092  _BITPOS_START_TIMESTAMP */\n      0xa0\n        /* \"contracts/ERC721A.sol\":15065:15106  shl(_BITPOS_START_TIMESTAMP, timestamp()) */\n      shl\n        /* \"contracts/ERC721A.sol\":15052:15115  or(owner, or(shl(_BITPOS_START_TIMESTAMP, timestamp()), flags)) */\n      or\n      shl(0xe1, 0x01)\n      or\n        /* \"contracts/ERC721A.sol\":22233:22259  _packedOwnerships[tokenId] */\n      0x00\n      dup6\n      dup2\n      mstore\n        /* \"contracts/ERC721A.sol\":22233:22250  _packedOwnerships */\n      0x05\n        /* \"contracts/ERC721A.sol\":22233:22259  _packedOwnerships[tokenId] */\n      0x20\n      mstore\n      0x40\n      swap1\n      keccak256\n        /* \"contracts/ERC721A.sol\":22233:22408  _packedOwnerships[tokenId] = _packOwnershipData(... */\n      sstore\n      shl(0xe1, 0x01)\n        /* \"contracts/ERC721A.sol\":22528:22575  prevOwnershipPacked & _BITMASK_NEXT_INITIALIZED */\n      dup4\n      and\n        /* \"contracts/ERC721A.sol\":22524:23151  if (prevOwnershipPacked & _BITMASK_NEXT_INITIALIZED == 0) {... */\n      tag_268\n      jumpi\n        /* \"contracts/ERC721A.sol\":22633:22634  1 */\n      0x01\n        /* \"contracts/ERC721A.sol\":22623:22634  tokenId + 1 */\n      dup5\n      add\n        /* \"contracts/ERC721A.sol\":22601:22620  uint256 nextTokenId */\n      0x00\n        /* \"contracts/ERC721A.sol\":22756:22786  _packedOwnerships[nextTokenId] */\n      dup2\n      dup2\n      mstore\n        /* \"contracts/ERC721A.sol\":22756:22773  _packedOwnerships */\n      0x05\n        /* \"contracts/ERC721A.sol\":22756:22786  _packedOwnerships[nextTokenId] */\n      0x20\n      mstore\n      0x40\n      swap1\n      keccak256\n      sload\n        /* \"contracts/ERC721A.sol\":22752:23136  if (_packedOwnerships[nextTokenId] == 0) {... */\n      tag_270\n      jumpi\n        /* \"contracts/ERC721A.sol\":22894:22907  _currentIndex */\n      sload(0x01)\n        /* \"contracts/ERC721A.sol\":22879:22890  nextTokenId */\n      dup2\n        /* \"contracts/ERC721A.sol\":22879:22907  nextTokenId != _currentIndex */\n      eq\n        /* \"contracts/ERC721A.sol\":22875:23117  if (nextTokenId != _currentIndex) {... */\n      tag_270\n      jumpi\n        /* \"contracts/ERC721A.sol\":23041:23071  _packedOwnerships[nextTokenId] */\n      0x00\n      dup2\n      dup2\n      mstore\n        /* \"contracts/ERC721A.sol\":23041:23058  _packedOwnerships */\n      0x05\n        /* \"contracts/ERC721A.sol\":23041:23071  _packedOwnerships[nextTokenId] */\n      0x20\n      mstore\n      0x40\n      swap1\n      keccak256\n        /* \"contracts/ERC721A.sol\":23041:23093  _packedOwnerships[nextTokenId] = prevOwnershipPacked */\n      dup5\n      swap1\n      sstore\n        /* \"contracts/ERC721A.sol\":22875:23117  if (nextTokenId != _currentIndex) {... */\n    tag_270:\n        /* \"contracts/ERC721A.sol\":22582:23151  {... */\n      pop\n        /* \"contracts/ERC721A.sol\":22524:23151  if (prevOwnershipPacked & _BITMASK_NEXT_INITIALIZED == 0) {... */\n    tag_268:\n        /* \"contracts/ERC721A.sol\":23198:23205  tokenId */\n      dup4\n        /* \"contracts/ERC721A.sol\":23194:23196  to */\n      dup6\n      sub(shl(0xa0, 0x01), 0x01)\n        /* \"contracts/ERC721A.sol\":23179:23206  Transfer(from, to, tokenId) */\n      and\n        /* \"contracts/ERC721A.sol\":23188:23192  from */\n      dup8\n      sub(shl(0xa0, 0x01), 0x01)\n        /* \"contracts/ERC721A.sol\":23179:23206  Transfer(from, to, tokenId) */\n      and\n      0xddf252ad1be2c89b69c2b068fc378daa952ba7f163c4a11628f55a4df523b3ef\n      mload(0x40)\n      mload(0x40)\n      dup1\n      swap2\n      sub\n      swap1\n      log4\n        /* \"contracts/ERC721A.sol\":20573:23267  {... */\n      pop\n      pop\n      pop\n        /* \"contracts/ERC721A.sol\":20442:23267  function transferFrom(... */\n      pop\n      pop\n      pop\n      jump\t// out\n        /* \"contracts/fourtwo.sol\":3861:3967  function withdraw() public payable onlyOwner {... */\n    tag_106:\n        /* \"@openzeppelin/contracts/access/Ownable.sol\":1094:1107  _checkOwner() */\n      tag_274\n        /* \"@openzeppelin/contracts/access/Ownable.sol\":1094:1105  _checkOwner */\n      tag_207\n        /* \"@openzeppelin/contracts/access/Ownable.sol\":1094:1107  _checkOwner() */\n      jump\t// in\n    tag_274:\n        /* \"@openzeppelin/contracts/access/Ownable.sol\":1247:1254  address */\n      0x00\n        /* \"@openzeppelin/contracts/access/Ownable.sol\":1273:1279  _owner */\n      dup1\n      sload\n        /* \"contracts/fourtwo.sol\":3913:3961  payable(owner()).transfer(address(this).balance) */\n      mload(0x40)\n      sub(shl(0xa0, 0x01), 0x01)\n        /* \"@openzeppelin/contracts/access/Ownable.sol\":1273:1279  _owner */\n      swap1\n      swap2\n      and\n      swap2\n        /* \"contracts/fourtwo.sol\":3939:3960  address(this).balance */\n      selfbalance\n        /* \"contracts/fourtwo.sol\":3913:3961  payable(owner()).transfer(address(this).balance) */\n      dup1\n      iszero\n      0x08fc\n      mul\n      swap3\n        /* \"contracts/fourtwo.sol\":3939:3960  address(this).balance */\n      swap1\n      swap2\n        /* \"contracts/fourtwo.sol\":3913:3961  payable(owner()).transfer(address(this).balance) */\n      dup2\n        /* \"@openzeppelin/contracts/access/Ownable.sol\":1247:1254  address */\n      dup2\n        /* \"contracts/fourtwo.sol\":3913:3961  payable(owner()).transfer(address(this).balance) */\n      dup2\n        /* \"contracts/fourtwo.sol\":3939:3960  address(this).balance */\n      dup6\n        /* \"@openzeppelin/contracts/access/Ownable.sol\":1273:1279  _owner */\n      dup9\n        /* \"contracts/fourtwo.sol\":3913:3961  payable(owner()).transfer(address(this).balance) */\n      dup9\n      call\n      swap4\n      pop\n      pop\n      pop\n      pop\n      iszero\n      dup1\n      iszero\n      tag_278\n      jumpi\n      returndatasize\n      0x00\n      dup1\n      returndatacopy\n      revert(0x00, returndatasize)\n    tag_278:\n      pop\n        /* \"contracts/fourtwo.sol\":3861:3967  function withdraw() public payable onlyOwner {... */\n      jump\t// out\n        /* \"contracts/ERC721A.sol\":23363:23556  function safeTransferFrom(... */\n    tag_109:\n        /* \"contracts/ERC721A.sol\":23509:23548  safeTransferFrom(from, to, tokenId, '') */\n      tag_233\n        /* \"contracts/ERC721A.sol\":23526:23530  from */\n      dup4\n        /* \"contracts/ERC721A.sol\":23532:23534  to */\n      dup4\n        /* \"contracts/ERC721A.sol\":23536:23543  tokenId */\n      dup4\n        /* \"contracts/ERC721A.sol\":23509:23548  safeTransferFrom(from, to, tokenId, '') */\n      mload(0x40)\n      dup1\n      0x20\n      add\n      0x40\n      mstore\n      dup1\n      0x00\n      dup2\n      mstore\n      pop\n        /* \"contracts/ERC721A.sol\":23509:23525  safeTransferFrom */\n      tag_168\n        /* \"contracts/ERC721A.sol\":23509:23548  safeTransferFrom(from, to, tokenId, '') */\n      jump\t// in\n        /* \"contracts/fourtwo.sol\":2596:2694  function setBaseURI(string memory _newBaseURI) public onlyOwner {... */\n    tag_114:\n        /* \"@openzeppelin/contracts/access/Ownable.sol\":1094:1107  _checkOwner() */\n      tag_282\n        /* \"@openzeppelin/contracts/access/Ownable.sol\":1094:1105  _checkOwner */\n      tag_207\n        /* \"@openzeppelin/contracts/access/Ownable.sol\":1094:1107  _checkOwner() */\n      jump\t// in\n    tag_282:\n        /* \"contracts/fourtwo.sol\":2667:2688  baseURI = _newBaseURI */\n      dup1\n      mload\n      tag_284\n      swap1\n        /* \"contracts/fourtwo.sol\":2667:2674  baseURI */\n      0x0a\n      swap1\n        /* \"contracts/fourtwo.sol\":2667:2688  baseURI = _newBaseURI */\n      0x20\n      dup5\n      add\n      swap1\n      tag_285\n      jump\t// in\n    tag_284:\n      pop\n        /* \"contracts/fourtwo.sol\":2596:2694  function setBaseURI(string memory _newBaseURI) public onlyOwner {... */\n      pop\n      jump\t// out\n        /* \"contracts/fourtwo.sol\":3012:3191  function allowlistUsers(address[] calldata addresses) external onlyOwner {... */\n    tag_118:\n        /* \"@openzeppelin/contracts/access/Ownable.sol\":1094:1107  _checkOwner() */\n      tag_287\n        /* \"@openzeppelin/contracts/access/Ownable.sol\":1094:1105  _checkOwner */\n      tag_207\n        /* \"@openzeppelin/contracts/access/Ownable.sol\":1094:1107  _checkOwner() */\n      jump\t// in\n    tag_287:\n        /* \"contracts/fourtwo.sol\":3097:3106  uint256 i */\n      0x00\n        /* \"contracts/fourtwo.sol\":3092:3186  for (uint256 i = 0; i < addresses.length; i++) {... */\n    tag_289:\n        /* \"contracts/fourtwo.sol\":3112:3132  i < addresses.length */\n      dup2\n      dup2\n      lt\n        /* \"contracts/fourtwo.sol\":3092:3186  for (uint256 i = 0; i < addresses.length; i++) {... */\n      iszero\n      tag_233\n      jumpi\n        /* \"contracts/fourtwo.sol\":3174:3178  true */\n      0x01\n        /* \"contracts/fourtwo.sol\":3148:3157  allowlist */\n      0x10\n        /* \"contracts/fourtwo.sol\":3148:3171  allowlist[addresses[i]] */\n      0x00\n        /* \"contracts/fourtwo.sol\":3158:3167  addresses */\n      dup6\n      dup6\n        /* \"contracts/fourtwo.sol\":3168:3169  i */\n      dup6\n        /* \"contracts/fourtwo.sol\":3158:3170  addresses[i] */\n      dup2\n      dup2\n      lt\n      tag_293\n      jumpi\n      tag_293\n      tag_237\n      jump\t// in\n    tag_293:\n      swap1\n      pop\n      0x20\n      mul\n      add\n      0x20\n      dup2\n      add\n      swap1\n      tag_294\n      swap2\n      swap1\n      tag_59\n      jump\t// in\n    tag_294:\n      sub(shl(0xa0, 0x01), 0x01)\n        /* \"contracts/fourtwo.sol\":3148:3171  allowlist[addresses[i]] */\n      and\n      dup2\n      mstore\n      0x20\n      dup2\n      add\n      swap2\n      swap1\n      swap2\n      mstore\n      0x40\n      add\n      0x00\n      keccak256\n        /* \"contracts/fourtwo.sol\":3148:3178  allowlist[addresses[i]] = true */\n      dup1\n      sload\n      not(0xff)\n      and\n      swap2\n      iszero\n      iszero\n      swap2\n      swap1\n      swap2\n      or\n      swap1\n      sstore\n        /* \"contracts/fourtwo.sol\":3134:3137  i++ */\n      dup1\n      tag_295\n      dup2\n      tag_240\n      jump\t// in\n    tag_295:\n      swap2\n      pop\n      pop\n        /* \"contracts/fourtwo.sol\":3092:3186  for (uint256 i = 0; i < addresses.length; i++) {... */\n      jump(tag_289)\n        /* \"contracts/ERC721A.sol\":11705:11857  function ownerOf(uint256 tokenId) public view virtual override returns (address) {... */\n    tag_126:\n        /* \"contracts/ERC721A.sol\":11777:11784  address */\n      0x00\n        /* \"contracts/ERC721A.sol\":11820:11847  _packedOwnershipOf(tokenId) */\n      tag_204\n        /* \"contracts/ERC721A.sol\":11839:11846  tokenId */\n      dup3\n        /* \"contracts/ERC721A.sol\":11820:11838  _packedOwnershipOf */\n      tag_249\n        /* \"contracts/ERC721A.sol\":11820:11847  _packedOwnershipOf(tokenId) */\n      jump\t// in\n        /* \"contracts/ERC721A.sol\":7247:7480  function balanceOf(address owner) public view virtual override returns (uint256) {... */\n    tag_135:\n        /* \"contracts/ERC721A.sol\":7319:7326  uint256 */\n      0x00\n      sub(shl(0xa0, 0x01), 0x01)\n        /* \"contracts/ERC721A.sol\":7343:7362  owner == address(0) */\n      dup3\n      and\n        /* \"contracts/ERC721A.sol\":7339:7399  if (owner == address(0)) revert BalanceQueryForZeroAddress() */\n      tag_299\n      jumpi\n        /* \"contracts/ERC721A.sol\":7371:7399  BalanceQueryForZeroAddress() */\n      mload(0x40)\n      shl(0xe2, 0x23d3ad81)\n      dup2\n      mstore\n      0x04\n      add\n      mload(0x40)\n      dup1\n      swap2\n      sub\n      swap1\n      revert\n        /* \"contracts/ERC721A.sol\":7339:7399  if (owner == address(0)) revert BalanceQueryForZeroAddress() */\n    tag_299:\n      pop\n      sub(shl(0xa0, 0x01), 0x01)\n        /* \"contracts/ERC721A.sol\":7417:7442  _packedAddressData[owner] */\n      and\n      0x00\n      swap1\n      dup2\n      mstore\n        /* \"contracts/ERC721A.sol\":7417:7435  _packedAddressData */\n      0x06\n        /* \"contracts/ERC721A.sol\":7417:7442  _packedAddressData[owner] */\n      0x20\n      mstore\n      0x40\n      swap1\n      keccak256\n      sload\n        /* \"contracts/ERC721A.sol\":1406:1419  (1 << 64) - 1 */\n      0xffffffffffffffff\n        /* \"contracts/ERC721A.sol\":7417:7472  _packedAddressData[owner] & _BITMASK_ADDRESS_DATA_ENTRY */\n      and\n      swap1\n        /* \"contracts/ERC721A.sol\":7247:7480  function balanceOf(address owner) public view virtual override returns (uint256) {... */\n      jump\t// out\n        /* \"@openzeppelin/contracts/access/Ownable.sol\":1831:1932  function renounceOwnership() public virtual onlyOwner {... */\n    tag_139:\n        /* \"@openzeppelin/contracts/access/Ownable.sol\":1094:1107  _checkOwner() */\n      tag_301\n        /* \"@openzeppelin/contracts/access/Ownable.sol\":1094:1105  _checkOwner */\n      tag_207\n        /* \"@openzeppelin/contracts/access/Ownable.sol\":1094:1107  _checkOwner() */\n      jump\t// in\n    tag_301:\n        /* \"@openzeppelin/contracts/access/Ownable.sol\":1895:1925  _transferOwnership(address(0)) */\n      tag_303\n        /* \"@openzeppelin/contracts/access/Ownable.sol\":1922:1923  0 */\n      0x00\n        /* \"@openzeppelin/contracts/access/Ownable.sol\":1895:1913  _transferOwnership */\n      tag_304\n        /* \"@openzeppelin/contracts/access/Ownable.sol\":1895:1925  _transferOwnership(address(0)) */\n      jump\t// in\n    tag_303:\n        /* \"@openzeppelin/contracts/access/Ownable.sol\":1831:1932  function renounceOwnership() public virtual onlyOwner {... */\n      jump\t// out\n        /* \"contracts/ERC721A.sol\":10488:10592  function symbol() public view virtual override returns (string memory) {... */\n    tag_146:\n        /* \"contracts/ERC721A.sol\":10544:10557  string memory */\n      0x60\n        /* \"contracts/ERC721A.sol\":10577:10584  _symbol */\n      0x04\n        /* \"contracts/ERC721A.sol\":10570:10584  return _symbol */\n      dup1\n      sload\n      tag_211\n      swap1\n      tag_212\n      jump\t// in\n        /* \"contracts/fourtwo.sol\":1009:2044  function mint(uint256 _mintAmount) public payable {... */\n    tag_150:\n        /* \"contracts/fourtwo.sol\":1066:1080  uint256 supply */\n      0x00\n        /* \"contracts/fourtwo.sol\":1083:1096  totalSupply() */\n      tag_313\n        /* \"contracts/ERC721A.sol\":6337:6349  _burnCounter */\n      sload(0x02)\n        /* \"contracts/ERC721A.sol\":6321:6334  _currentIndex */\n      sload(0x01)\n        /* \"contracts/ERC721A.sol\":6321:6349  _currentIndex - _burnCounter */\n      sub\n      swap1\n        /* \"contracts/ERC721A.sol\":6063:6386  function totalSupply() public view virtual override returns (uint256) {... */\n      jump\n        /* \"contracts/fourtwo.sol\":1083:1096  totalSupply() */\n    tag_313:\n        /* \"contracts/fourtwo.sol\":1135:1141  paused */\n      sload(0x0f)\n        /* \"contracts/fourtwo.sol\":1066:1096  uint256 supply = totalSupply() */\n      swap1\n      swap2\n      pop\n        /* \"contracts/fourtwo.sol\":1135:1141  paused */\n      0xff\n      and\n        /* \"contracts/fourtwo.sol\":1134:1141  !paused */\n      iszero\n        /* \"contracts/fourtwo.sol\":1126:1241  require(!paused, \"WOAH hold up the mint is not yet live, a little too early there... or late? Transmission Ending\") */\n      tag_314\n      jumpi\n      mload(0x40)\n      shl(0xe5, 0x461bcd)\n      dup2\n      mstore\n        /* \"#utility.yul\":7898:7900   */\n      0x20\n        /* \"contracts/fourtwo.sol\":1126:1241  require(!paused, \"WOAH hold up the mint is not yet live, a little too early there... or late? Transmission Ending\") */\n      0x04\n      dup3\n      add\n        /* \"#utility.yul\":7880:7901   */\n      mstore\n        /* \"#utility.yul\":7937:7939   */\n      0x5f\n        /* \"#utility.yul\":7917:7935   */\n      0x24\n      dup3\n      add\n        /* \"#utility.yul\":7910:7940   */\n      mstore\n        /* \"#utility.yul\":7976:8010   */\n      0x574f414820686f6c6420757020746865206d696e74206973206e6f7420796574\n        /* \"#utility.yul\":7956:7974   */\n      0x44\n      dup3\n      add\n        /* \"#utility.yul\":7949:8011   */\n      mstore\n        /* \"#utility.yul\":8047:8081   */\n      0x206c6976652c2061206c6974746c6520746f6f206561726c792074686572652e\n        /* \"#utility.yul\":8027:8045   */\n      0x64\n      dup3\n      add\n        /* \"#utility.yul\":8020:8082   */\n      mstore\n        /* \"#utility.yul\":8119:8152   */\n      0x2e2e206f72206c6174653f205472616e736d697373696f6e20456e64696e6700\n        /* \"#utility.yul\":8098:8117   */\n      0x84\n      dup3\n      add\n        /* \"#utility.yul\":8091:8153   */\n      mstore\n        /* \"#utility.yul\":8170:8189   */\n      0xa4\n      add\n        /* \"contracts/fourtwo.sol\":1126:1241  require(!paused, \"WOAH hold up the mint is not yet live, a little too early there... or late? Transmission Ending\") */\n    tag_315:\n      mload(0x40)\n      dup1\n      swap2\n      sub\n      swap1\n      revert\n    tag_314:\n        /* \"contracts/fourtwo.sol\":1270:1271  0 */\n      0x00\n        /* \"contracts/fourtwo.sol\":1256:1267  _mintAmount */\n      dup3\n        /* \"contracts/fourtwo.sol\":1256:1271  _mintAmount > 0 */\n      gt\n        /* \"contracts/fourtwo.sol\":1248:1339  require(_mintAmount > 0, \"must mint at least 1 nft, 0 is not allowed. Transmission Ending\") */\n      tag_317\n      jumpi\n      mload(0x40)\n      shl(0xe5, 0x461bcd)\n      dup2\n      mstore\n        /* \"#utility.yul\":8402:8404   */\n      0x20\n        /* \"contracts/fourtwo.sol\":1248:1339  require(_mintAmount > 0, \"must mint at least 1 nft, 0 is not allowed. Transmission Ending\") */\n      0x04\n      dup3\n      add\n        /* \"#utility.yul\":8384:8405   */\n      mstore\n        /* \"#utility.yul\":8441:8443   */\n      0x3f\n        /* \"#utility.yul\":8421:8439   */\n      0x24\n      dup3\n      add\n        /* \"#utility.yul\":8414:8444   */\n      mstore\n        /* \"#utility.yul\":8480:8514   */\n      0x6d757374206d696e74206174206c656173742031206e66742c2030206973206e\n        /* \"#utility.yul\":8460:8478   */\n      0x44\n      dup3\n      add\n        /* \"#utility.yul\":8453:8515   */\n      mstore\n        /* \"#utility.yul\":8551:8584   */\n      0x6f7420616c6c6f7765642e205472616e736d697373696f6e20456e64696e6700\n        /* \"#utility.yul\":8531:8549   */\n      0x64\n      dup3\n      add\n        /* \"#utility.yul\":8524:8585   */\n      mstore\n        /* \"#utility.yul\":8602:8621   */\n      0x84\n      add\n        /* \"contracts/fourtwo.sol\":1248:1339  require(_mintAmount > 0, \"must mint at least 1 nft, 0 is not allowed. Transmission Ending\") */\n      tag_315\n        /* \"#utility.yul\":8200:8627   */\n      jump\n        /* \"contracts/fourtwo.sol\":1248:1339  require(_mintAmount > 0, \"must mint at least 1 nft, 0 is not allowed. Transmission Ending\") */\n    tag_317:\n        /* \"contracts/fourtwo.sol\":1378:1387  maxSupply */\n      sload(0x0d)\n        /* \"contracts/fourtwo.sol\":1354:1374  supply + _mintAmount */\n      tag_320\n        /* \"contracts/fourtwo.sol\":1363:1374  _mintAmount */\n      dup4\n        /* \"contracts/fourtwo.sol\":1354:1360  supply */\n      dup4\n        /* \"contracts/fourtwo.sol\":1354:1374  supply + _mintAmount */\n      tag_321\n      jump\t// in\n    tag_320:\n        /* \"contracts/fourtwo.sol\":1354:1387  supply + _mintAmount <= maxSupply */\n      gt\n      iszero\n        /* \"contracts/fourtwo.sol\":1346:1445  require(supply + _mintAmount <= maxSupply, \"looks like we are popular max supply has been reached\") */\n      tag_322\n      jumpi\n      mload(0x40)\n      shl(0xe5, 0x461bcd)\n      dup2\n      mstore\n        /* \"#utility.yul\":8967:8969   */\n      0x20\n        /* \"contracts/fourtwo.sol\":1346:1445  require(supply + _mintAmount <= maxSupply, \"looks like we are popular max supply has been reached\") */\n      0x04\n      dup3\n      add\n        /* \"#utility.yul\":8949:8970   */\n      mstore\n        /* \"#utility.yul\":9006:9008   */\n      0x35\n        /* \"#utility.yul\":8986:9004   */\n      0x24\n      dup3\n      add\n        /* \"#utility.yul\":8979:9009   */\n      mstore\n        /* \"#utility.yul\":9045:9079   */\n      0x6c6f6f6b73206c696b652077652061726520706f70756c6172206d6178207375\n        /* \"#utility.yul\":9025:9043   */\n      0x44\n      dup3\n      add\n        /* \"#utility.yul\":9018:9080   */\n      mstore\n      shl(0x5a, 0x1c1c1b1e481a185cc81899595b881c995858da1959)\n        /* \"#utility.yul\":9096:9114   */\n      0x64\n      dup3\n      add\n        /* \"#utility.yul\":9089:9140   */\n      mstore\n        /* \"#utility.yul\":9157:9176   */\n      0x84\n      add\n        /* \"contracts/fourtwo.sol\":1346:1445  require(supply + _mintAmount <= maxSupply, \"looks like we are popular max supply has been reached\") */\n      tag_315\n        /* \"#utility.yul\":8765:9182   */\n      jump\n        /* \"contracts/fourtwo.sol\":1346:1445  require(supply + _mintAmount <= maxSupply, \"looks like we are popular max supply has been reached\") */\n    tag_322:\n        /* \"@openzeppelin/contracts/access/Ownable.sol\":1247:1254  address */\n      0x00\n        /* \"@openzeppelin/contracts/access/Ownable.sol\":1273:1279  _owner */\n      sload\n      sub(shl(0xa0, 0x01), 0x01)\n      and\n        /* \"contracts/fourtwo.sol\":1464:1474  msg.sender */\n      caller\n        /* \"contracts/fourtwo.sol\":1464:1485  msg.sender != owner() */\n      eq\n        /* \"contracts/fourtwo.sol\":1460:1942  if (msg.sender != owner()) {... */\n      tag_341\n      jumpi\n        /* \"contracts/fourtwo.sol\":1553:1554  1 */\n      0x01\n        /* \"contracts/fourtwo.sol\":1538:1549  _mintAmount */\n      dup3\n        /* \"contracts/fourtwo.sol\":1538:1554  _mintAmount <= 1 */\n      gt\n      iszero\n        /* \"contracts/fourtwo.sol\":1530:1579  require(_mintAmount <= 1, \"only 1 at a time :) \") */\n      tag_327\n      jumpi\n      mload(0x40)\n      shl(0xe5, 0x461bcd)\n      dup2\n      mstore\n        /* \"#utility.yul\":9389:9391   */\n      0x20\n        /* \"contracts/fourtwo.sol\":1530:1579  require(_mintAmount <= 1, \"only 1 at a time :) \") */\n      0x04\n      dup3\n      add\n        /* \"#utility.yul\":9371:9392   */\n      mstore\n        /* \"#utility.yul\":9428:9430   */\n      0x14\n        /* \"#utility.yul\":9408:9426   */\n      0x24\n      dup3\n      add\n        /* \"#utility.yul\":9401:9431   */\n      mstore\n      shl(0x65, 0x037b7363c90189030ba1030903a34b6b2901d149)\n        /* \"#utility.yul\":9447:9465   */\n      0x44\n      dup3\n      add\n        /* \"#utility.yul\":9440:9490   */\n      mstore\n        /* \"#utility.yul\":9507:9525   */\n      0x64\n      add\n        /* \"contracts/fourtwo.sol\":1530:1579  require(_mintAmount <= 1, \"only 1 at a time :) \") */\n      tag_315\n        /* \"#utility.yul\":9187:9531   */\n      jump\n        /* \"contracts/fourtwo.sol\":1530:1579  require(_mintAmount <= 1, \"only 1 at a time :) \") */\n    tag_327:\n        /* \"contracts/fourtwo.sol\":1593:1608  onlyAllowlisted */\n      sload(0x0f)\n      0xff\n      0x0100\n      swap1\n      swap2\n      div\n      and\n        /* \"contracts/fourtwo.sol\":1593:1616  onlyAllowlisted == true */\n      iszero\n      iszero\n        /* \"contracts/fourtwo.sol\":1593:1608  onlyAllowlisted */\n      0x01\n        /* \"contracts/fourtwo.sol\":1593:1616  onlyAllowlisted == true */\n      eq\n        /* \"contracts/fourtwo.sol\":1590:1862  if(onlyAllowlisted == true) {... */\n      iszero\n      tag_330\n      jumpi\n        /* \"contracts/fourtwo.sol\":1655:1665  msg.sender */\n      caller\n        /* \"contracts/fourtwo.sol\":2113:2117  bool */\n      0x00\n        /* \"contracts/fourtwo.sol\":2133:2149  allowlist[_user] */\n      swap1\n      dup2\n      mstore\n        /* \"contracts/fourtwo.sol\":2133:2142  allowlist */\n      0x10\n        /* \"contracts/fourtwo.sol\":2133:2149  allowlist[_user] */\n      0x20\n      mstore\n      0x40\n      swap1\n      keccak256\n      sload\n      0xff\n      and\n        /* \"contracts/fourtwo.sol\":1633:1686  require(isAllowlisted(msg.sender), \"Not Allowlisted\") */\n      tag_332\n      jumpi\n      mload(0x40)\n      shl(0xe5, 0x461bcd)\n      dup2\n      mstore\n        /* \"#utility.yul\":9738:9740   */\n      0x20\n        /* \"contracts/fourtwo.sol\":1633:1686  require(isAllowlisted(msg.sender), \"Not Allowlisted\") */\n      0x04\n      dup3\n      add\n        /* \"#utility.yul\":9720:9741   */\n      mstore\n        /* \"#utility.yul\":9777:9779   */\n      0x0f\n        /* \"#utility.yul\":9757:9775   */\n      0x24\n      dup3\n      add\n        /* \"#utility.yul\":9750:9780   */\n      mstore\n      shl(0x8a, 0x139bdd08105b1b1bdddb1a5cdd1959)\n        /* \"#utility.yul\":9796:9814   */\n      0x44\n      dup3\n      add\n        /* \"#utility.yul\":9789:9834   */\n      mstore\n        /* \"#utility.yul\":9851:9869   */\n      0x64\n      add\n        /* \"contracts/fourtwo.sol\":1633:1686  require(isAllowlisted(msg.sender), \"Not Allowlisted\") */\n      tag_315\n        /* \"#utility.yul\":9536:9875   */\n      jump\n        /* \"contracts/fourtwo.sol\":1633:1686  require(isAllowlisted(msg.sender), \"Not Allowlisted\") */\n    tag_332:\n        /* \"contracts/fourtwo.sol\":1749:1759  msg.sender */\n      caller\n        /* \"contracts/fourtwo.sol\":1701:1725  uint256 ownerMintedCount */\n      0x00\n        /* \"contracts/fourtwo.sol\":1728:1760  addressMintedBalance[msg.sender] */\n      swap1\n      dup2\n      mstore\n        /* \"contracts/fourtwo.sol\":1728:1748  addressMintedBalance */\n      0x11\n        /* \"contracts/fourtwo.sol\":1728:1760  addressMintedBalance[msg.sender] */\n      0x20\n      mstore\n      0x40\n      swap1\n      keccak256\n      sload\n        /* \"contracts/fourtwo.sol\":1817:1831  AllowlistLimit */\n      sload(0x0e)\n        /* \"contracts/fourtwo.sol\":1783:1813  ownerMintedCount + _mintAmount */\n      tag_335\n        /* \"contracts/fourtwo.sol\":1802:1813  _mintAmount */\n      dup5\n        /* \"contracts/fourtwo.sol\":1728:1760  addressMintedBalance[msg.sender] */\n      dup4\n        /* \"contracts/fourtwo.sol\":1783:1813  ownerMintedCount + _mintAmount */\n      tag_321\n      jump\t// in\n    tag_335:\n        /* \"contracts/fourtwo.sol\":1783:1831  ownerMintedCount + _mintAmount <= AllowlistLimit */\n      gt\n      iszero\n        /* \"contracts/fourtwo.sol\":1775:1850  require(ownerMintedCount + _mintAmount <= AllowlistLimit, \"Already minted\") */\n      tag_336\n      jumpi\n      mload(0x40)\n      shl(0xe5, 0x461bcd)\n      dup2\n      mstore\n        /* \"#utility.yul\":10082:10084   */\n      0x20\n        /* \"contracts/fourtwo.sol\":1775:1850  require(ownerMintedCount + _mintAmount <= AllowlistLimit, \"Already minted\") */\n      0x04\n      dup3\n      add\n        /* \"#utility.yul\":10064:10085   */\n      mstore\n        /* \"#utility.yul\":10121:10123   */\n      0x0e\n        /* \"#utility.yul\":10101:10119   */\n      0x24\n      dup3\n      add\n        /* \"#utility.yul\":10094:10124   */\n      mstore\n      shl(0x92, 0x105b1c9958591e481b5a5b9d1959)\n        /* \"#utility.yul\":10140:10158   */\n      0x44\n      dup3\n      add\n        /* \"#utility.yul\":10133:10177   */\n      mstore\n        /* \"#utility.yul\":10194:10212   */\n      0x64\n      add\n        /* \"contracts/fourtwo.sol\":1775:1850  require(ownerMintedCount + _mintAmount <= AllowlistLimit, \"Already minted\") */\n      tag_315\n        /* \"#utility.yul\":9880:10218   */\n      jump\n        /* \"contracts/fourtwo.sol\":1775:1850  require(ownerMintedCount + _mintAmount <= AllowlistLimit, \"Already minted\") */\n    tag_336:\n        /* \"contracts/fourtwo.sol\":1618:1862  {... */\n      pop\n        /* \"contracts/fourtwo.sol\":1590:1862  if(onlyAllowlisted == true) {... */\n    tag_330:\n        /* \"contracts/fourtwo.sol\":1900:1911  _mintAmount */\n      dup2\n        /* \"contracts/fourtwo.sol\":1893:1897  cost */\n      sload(0x0c)\n        /* \"contracts/fourtwo.sol\":1893:1911  cost * _mintAmount */\n      tag_339\n      swap2\n      swap1\n      tag_340\n      jump\t// in\n    tag_339:\n        /* \"contracts/fourtwo.sol\":1880:1889  msg.value */\n      callvalue\n        /* \"contracts/fourtwo.sol\":1880:1911  msg.value >= cost * _mintAmount */\n      lt\n      iszero\n        /* \"contracts/fourtwo.sol\":1872:1934  require(msg.value >= cost * _mintAmount, \"Cost doesn't match\") */\n      tag_341\n      jumpi\n      mload(0x40)\n      shl(0xe5, 0x461bcd)\n      dup2\n      mstore\n        /* \"#utility.yul\":10598:10600   */\n      0x20\n        /* \"contracts/fourtwo.sol\":1872:1934  require(msg.value >= cost * _mintAmount, \"Cost doesn't match\") */\n      0x04\n      dup3\n      add\n        /* \"#utility.yul\":10580:10601   */\n      mstore\n        /* \"#utility.yul\":10637:10639   */\n      0x12\n        /* \"#utility.yul\":10617:10635   */\n      0x24\n      dup3\n      add\n        /* \"#utility.yul\":10610:10640   */\n      mstore\n      shl(0x73, 0x086dee6e840c8decae6dc4ee840dac2e8c6d)\n        /* \"#utility.yul\":10656:10674   */\n      0x44\n      dup3\n      add\n        /* \"#utility.yul\":10649:10697   */\n      mstore\n        /* \"#utility.yul\":10714:10732   */\n      0x64\n      add\n        /* \"contracts/fourtwo.sol\":1872:1934  require(msg.value >= cost * _mintAmount, \"Cost doesn't match\") */\n      tag_315\n        /* \"#utility.yul\":10396:10738   */\n      jump\n        /* \"contracts/fourtwo.sol\":1872:1934  require(msg.value >= cost * _mintAmount, \"Cost doesn't match\") */\n    tag_341:\n        /* \"contracts/fourtwo.sol\":1950:1984  _safeMint(msg.sender, _mintAmount) */\n      tag_344\n        /* \"contracts/fourtwo.sol\":1960:1970  msg.sender */\n      caller\n        /* \"contracts/fourtwo.sol\":1972:1983  _mintAmount */\n      dup4\n        /* \"contracts/fourtwo.sol\":1950:1959  _safeMint */\n      tag_345\n        /* \"contracts/fourtwo.sol\":1950:1984  _safeMint(msg.sender, _mintAmount) */\n      jump\t// in\n    tag_344:\n        /* \"contracts/fourtwo.sol\":2012:2022  msg.sender */\n      caller\n        /* \"contracts/fourtwo.sol\":1991:2023  addressMintedBalance[msg.sender] */\n      0x00\n      swap1\n      dup2\n      mstore\n        /* \"contracts/fourtwo.sol\":1991:2011  addressMintedBalance */\n      0x11\n        /* \"contracts/fourtwo.sol\":1991:2023  addressMintedBalance[msg.sender] */\n      0x20\n      mstore\n      0x40\n      dup2\n      keccak256\n        /* \"contracts/fourtwo.sol\":1991:2038  addressMintedBalance[msg.sender] += _mintAmount */\n      dup1\n      sload\n        /* \"contracts/fourtwo.sol\":2027:2038  _mintAmount */\n      dup5\n      swap3\n        /* \"contracts/fourtwo.sol\":1991:2023  addressMintedBalance[msg.sender] */\n      swap1\n        /* \"contracts/fourtwo.sol\":1991:2038  addressMintedBalance[msg.sender] += _mintAmount */\n      tag_346\n      swap1\n        /* \"contracts/fourtwo.sol\":2027:2038  _mintAmount */\n      dup5\n      swap1\n        /* \"contracts/fourtwo.sol\":1991:2038  addressMintedBalance[msg.sender] += _mintAmount */\n      tag_321\n      jump\t// in\n    tag_346:\n      swap1\n      swap2\n      sstore\n      pop\n      pop\n      pop\n      pop\n        /* \"contracts/fourtwo.sol\":1009:2044  function mint(uint256 _mintAmount) public payable {... */\n      jump\t// out\n        /* \"contracts/ERC721A.sol\":17361:17595  function setApprovalForAll(address operator, bool approved) public virtual override {... */\n    tag_155:\n        /* \"contracts/ERC721A.sol\":40569:40579  msg.sender */\n      caller\n        /* \"contracts/ERC721A.sol\":17456:17495  _operatorApprovals[_msgSenderERC721A()] */\n      0x00\n      dup2\n      dup2\n      mstore\n        /* \"contracts/ERC721A.sol\":17456:17474  _operatorApprovals */\n      0x08\n        /* \"contracts/ERC721A.sol\":17456:17495  _operatorApprovals[_msgSenderERC721A()] */\n      0x20\n      swap1\n      dup2\n      mstore\n      0x40\n      dup1\n      dup4\n      keccak256\n      sub(shl(0xa0, 0x01), 0x01)\n        /* \"contracts/ERC721A.sol\":17456:17505  _operatorApprovals[_msgSenderERC721A()][operator] */\n      dup8\n      and\n      dup1\n      dup6\n      mstore\n      swap1\n      dup4\n      mstore\n      swap3\n      dup2\n      swap1\n      keccak256\n        /* \"contracts/ERC721A.sol\":17456:17516  _operatorApprovals[_msgSenderERC721A()][operator] = approved */\n      dup1\n      sload\n      not(0xff)\n      and\n      dup7\n      iszero\n      iszero\n      swap1\n      dup2\n      or\n      swap1\n      swap2\n      sstore\n        /* \"contracts/ERC721A.sol\":17532:17587  ApprovalForAll(_msgSenderERC721A(), operator, approved) */\n      swap1\n      mload\n        /* \"#utility.yul\":540:581   */\n      swap1\n      dup2\n      mstore\n        /* \"contracts/ERC721A.sol\":17456:17505  _operatorApprovals[_msgSenderERC721A()][operator] */\n      swap2\n      swap3\n        /* \"contracts/ERC721A.sol\":40569:40579  msg.sender */\n      swap2\n        /* \"contracts/ERC721A.sol\":17532:17587  ApprovalForAll(_msgSenderERC721A(), operator, approved) */\n      0x17307eab39ab6107e8899845ad3d59bd9653f200f220920489ca2b5937696c31\n      swap2\n        /* \"#utility.yul\":513:531   */\n      add\n        /* \"contracts/ERC721A.sol\":17532:17587  ApprovalForAll(_msgSenderERC721A(), operator, approved) */\n      mload(0x40)\n      dup1\n      swap2\n      sub\n      swap1\n      log3\n        /* \"contracts/ERC721A.sol\":17361:17595  function setApprovalForAll(address operator, bool approved) public virtual override {... */\n      pop\n      pop\n      jump\t// out\n        /* \"contracts/ERC721A.sol\":24154:24561  function safeTransferFrom(... */\n    tag_168:\n        /* \"contracts/ERC721A.sol\":24329:24360  transferFrom(from, to, tokenId) */\n      tag_352\n        /* \"contracts/ERC721A.sol\":24342:24346  from */\n      dup5\n        /* \"contracts/ERC721A.sol\":24348:24350  to */\n      dup5\n        /* \"contracts/ERC721A.sol\":24352:24359  tokenId */\n      dup5\n        /* \"contracts/ERC721A.sol\":24329:24341  transferFrom */\n      tag_104\n        /* \"contracts/ERC721A.sol\":24329:24360  transferFrom(from, to, tokenId) */\n      jump\t// in\n    tag_352:\n      sub(shl(0xa0, 0x01), 0x01)\n        /* \"contracts/ERC721A.sol\":24375:24389  to.code.length */\n      dup4\n      and\n      extcodesize\n        /* \"contracts/ERC721A.sol\":24375:24394  to.code.length != 0 */\n      iszero\n        /* \"contracts/ERC721A.sol\":24371:24554  if (to.code.length != 0)... */\n      tag_356\n      jumpi\n        /* \"contracts/ERC721A.sol\":24414:24470  _checkContractOnERC721Received(from, to, tokenId, _data) */\n      tag_354\n        /* \"contracts/ERC721A.sol\":24445:24449  from */\n      dup5\n        /* \"contracts/ERC721A.sol\":24451:24453  to */\n      dup5\n        /* \"contracts/ERC721A.sol\":24455:24462  tokenId */\n      dup5\n        /* \"contracts/ERC721A.sol\":24464:24469  _data */\n      dup5\n        /* \"contracts/ERC721A.sol\":24414:24444  _checkContractOnERC721Received */\n      tag_355\n        /* \"contracts/ERC721A.sol\":24414:24470  _checkContractOnERC721Received(from, to, tokenId, _data) */\n      jump\t// in\n    tag_354:\n        /* \"contracts/ERC721A.sol\":24409:24554  if (!_checkContractOnERC721Received(from, to, tokenId, _data)) {... */\n      tag_356\n      jumpi\n        /* \"contracts/ERC721A.sol\":24498:24538  TransferToNonERC721ReceiverImplementer() */\n      mload(0x40)\n      shl(0xe1, 0x68d2bf6b)\n      dup2\n      mstore\n      0x04\n      add\n      mload(0x40)\n      dup1\n      swap2\n      sub\n      swap1\n      revert\n        /* \"contracts/ERC721A.sol\":24409:24554  if (!_checkContractOnERC721Received(from, to, tokenId, _data)) {... */\n    tag_356:\n        /* \"contracts/ERC721A.sol\":24154:24561  function safeTransferFrom(... */\n      pop\n      pop\n      pop\n      pop\n      jump\t// out\n        /* \"contracts/fourtwo.sol\":418:455  string public baseExtension = \".json\" */\n    tag_171:\n      0x0b\n      dup1\n      sload\n      tag_357\n      swap1\n      tag_212\n      jump\t// in\n    tag_357:\n      dup1\n      0x1f\n      add\n      0x20\n      dup1\n      swap2\n      div\n      mul\n      0x20\n      add\n      mload(0x40)\n      swap1\n      dup2\n      add\n      0x40\n      mstore\n      dup1\n      swap3\n      swap2\n      swap1\n      dup2\n      dup2\n      mstore\n      0x20\n      add\n      dup3\n      dup1\n      sload\n      tag_358\n      swap1\n      tag_212\n      jump\t// in\n    tag_358:\n      dup1\n      iszero\n      tag_359\n      jumpi\n      dup1\n      0x1f\n      lt\n      tag_360\n      jumpi\n      0x0100\n      dup1\n      dup4\n      sload\n      div\n      mul\n      dup4\n      mstore\n      swap2\n      0x20\n      add\n      swap2\n      jump(tag_359)\n    tag_360:\n      dup3\n      add\n      swap2\n      swap1\n      0x00\n      mstore\n      keccak256(0x00, 0x20)\n      swap1\n    tag_361:\n      dup2\n      sload\n      dup2\n      mstore\n      swap1\n      0x01\n      add\n      swap1\n      0x20\n      add\n      dup1\n      dup4\n      gt\n      tag_361\n      jumpi\n      dup3\n      swap1\n      sub\n      0x1f\n      and\n      dup3\n      add\n      swap2\n    tag_359:\n      pop\n      pop\n      pop\n      pop\n      pop\n      dup2\n      jump\t// out\n        /* \"contracts/fourtwo.sol\":2161:2586  function tokenURI(uint256 tokenId)... */\n    tag_176:\n        /* \"contracts/fourtwo.sol\":2259:2272  string memory */\n      0x60\n        /* \"contracts/fourtwo.sol\":2300:2316  _exists(tokenId) */\n      tag_363\n        /* \"contracts/fourtwo.sol\":2308:2315  tokenId */\n      dup3\n        /* \"contracts/fourtwo.sol\":2300:2307  _exists */\n      tag_219\n        /* \"contracts/fourtwo.sol\":2300:2316  _exists(tokenId) */\n      jump\t// in\n    tag_363:\n        /* \"contracts/fourtwo.sol\":2284:2381  require(... */\n      tag_364\n      jumpi\n      mload(0x40)\n      shl(0xe5, 0x461bcd)\n      dup2\n      mstore\n        /* \"#utility.yul\":10945:10947   */\n      0x20\n        /* \"contracts/fourtwo.sol\":2284:2381  require(... */\n      0x04\n      dup3\n      add\n        /* \"#utility.yul\":10927:10948   */\n      mstore\n        /* \"#utility.yul\":10984:10986   */\n      0x2f\n        /* \"#utility.yul\":10964:10982   */\n      0x24\n      dup3\n      add\n        /* \"#utility.yul\":10957:10987   */\n      mstore\n        /* \"#utility.yul\":11023:11057   */\n      0x4552433732314d657461646174613a2055524920717565727920666f72206e6f\n        /* \"#utility.yul\":11003:11021   */\n      0x44\n      dup3\n      add\n        /* \"#utility.yul\":10996:11058   */\n      mstore\n      shl(0x89, 0x3732bc34b9ba32b73a103a37b5b2b7)\n        /* \"#utility.yul\":11074:11092   */\n      0x64\n      dup3\n      add\n        /* \"#utility.yul\":11067:11112   */\n      mstore\n        /* \"#utility.yul\":11129:11148   */\n      0x84\n      add\n        /* \"contracts/fourtwo.sol\":2284:2381  require(... */\n      tag_315\n        /* \"#utility.yul\":10743:11154   */\n      jump\n        /* \"contracts/fourtwo.sol\":2284:2381  require(... */\n    tag_364:\n        /* \"contracts/fourtwo.sol\":2392:2420  string memory currentBaseURI */\n      0x00\n        /* \"contracts/fourtwo.sol\":2423:2433  _baseURI() */\n      tag_367\n        /* \"contracts/fourtwo.sol\":2423:2431  _baseURI */\n      tag_368\n        /* \"contracts/fourtwo.sol\":2423:2433  _baseURI() */\n      jump\t// in\n    tag_367:\n        /* \"contracts/fourtwo.sol\":2392:2433  string memory currentBaseURI = _baseURI() */\n      swap1\n      pop\n        /* \"contracts/fourtwo.sol\":2478:2479  0 */\n      0x00\n        /* \"contracts/fourtwo.sol\":2453:2467  currentBaseURI */\n      dup2\n        /* \"contracts/fourtwo.sol\":2447:2475  bytes(currentBaseURI).length */\n      mload\n        /* \"contracts/fourtwo.sol\":2447:2479  bytes(currentBaseURI).length > 0 */\n      gt\n        /* \"contracts/fourtwo.sol\":2447:2580  bytes(currentBaseURI).length > 0... */\n      tag_369\n      jumpi\n      mload(0x40)\n      dup1\n      0x20\n      add\n      0x40\n      mstore\n      dup1\n      0x00\n      dup2\n      mstore\n      pop\n      jump(tag_370)\n    tag_369:\n        /* \"contracts/fourtwo.sol\":2515:2529  currentBaseURI */\n      dup1\n        /* \"contracts/fourtwo.sol\":2531:2549  tokenId.toString() */\n      tag_371\n        /* \"contracts/fourtwo.sol\":2531:2538  tokenId */\n      dup5\n        /* \"contracts/fourtwo.sol\":2531:2547  tokenId.toString */\n      tag_372\n        /* \"contracts/fourtwo.sol\":2531:2549  tokenId.toString() */\n      jump\t// in\n    tag_371:\n        /* \"contracts/fourtwo.sol\":2551:2564  baseExtension */\n      0x0b\n        /* \"contracts/fourtwo.sol\":2498:2565  abi.encodePacked(currentBaseURI, tokenId.toString(), baseExtension) */\n      add(0x20, mload(0x40))\n      tag_373\n      swap4\n      swap3\n      swap2\n      swap1\n      tag_374\n      jump\t// in\n    tag_373:\n      mload(0x40)\n      0x20\n      dup2\n      dup4\n      sub\n      sub\n      dup2\n      mstore\n      swap1\n      0x40\n      mstore\n        /* \"contracts/fourtwo.sol\":2447:2580  bytes(currentBaseURI).length > 0... */\n    tag_370:\n        /* \"contracts/fourtwo.sol\":2440:2580  return bytes(currentBaseURI).length > 0... */\n      swap4\n        /* \"contracts/fourtwo.sol\":2161:2586  function tokenURI(uint256 tokenId)... */\n      swap3\n      pop\n      pop\n      pop\n      jump\t// out\n        /* \"contracts/fourtwo.sol\":3393:3854  function ownerOfTokenIds(address tokenOwner) external view returns (uint256[] memory) {... */\n    tag_181:\n        /* \"contracts/fourtwo.sol\":3461:3477  uint256[] memory */\n      0x60\n        /* \"contracts/fourtwo.sol\":3490:3511  uint256 supplyCurrent */\n      0x00\n        /* \"contracts/fourtwo.sol\":3514:3527  totalSupply() */\n      tag_376\n        /* \"contracts/ERC721A.sol\":6337:6349  _burnCounter */\n      sload(0x02)\n        /* \"contracts/ERC721A.sol\":6321:6334  _currentIndex */\n      sload(0x01)\n        /* \"contracts/ERC721A.sol\":6321:6349  _currentIndex - _burnCounter */\n      sub\n      swap1\n        /* \"contracts/ERC721A.sol\":6063:6386  function totalSupply() public view virtual override returns (uint256) {... */\n      jump\n        /* \"contracts/fourtwo.sol\":3514:3527  totalSupply() */\n    tag_376:\n        /* \"contracts/fourtwo.sol\":3490:3527  uint256 supplyCurrent = totalSupply() */\n      swap1\n      pop\n        /* \"contracts/fourtwo.sol\":3538:3561  uint256[] memory result */\n      0x00\n        /* \"contracts/fourtwo.sol\":3578:3599  balanceOf(tokenOwner) */\n      tag_377\n        /* \"contracts/fourtwo.sol\":3588:3598  tokenOwner */\n      dup5\n        /* \"contracts/fourtwo.sol\":3578:3587  balanceOf */\n      tag_135\n        /* \"contracts/fourtwo.sol\":3578:3599  balanceOf(tokenOwner) */\n      jump\t// in\n    tag_377:\n        /* \"contracts/fourtwo.sol\":3564:3600  new uint256[](balanceOf(tokenOwner)) */\n      0xffffffffffffffff\n      dup2\n      gt\n      iszero\n      tag_379\n      jumpi\n      tag_379\n      tag_380\n      jump\t// in\n    tag_379:\n      mload(0x40)\n      swap1\n      dup1\n      dup3\n      mstore\n      dup1\n      0x20\n      mul\n      0x20\n      add\n      dup3\n      add\n      0x40\n      mstore\n      dup1\n      iszero\n      tag_381\n      jumpi\n      dup2\n      0x20\n      add\n      0x20\n      dup3\n      mul\n      dup1\n      calldatasize\n      dup4\n      calldatacopy\n      add\n      swap1\n      pop\n    tag_381:\n      pop\n        /* \"contracts/fourtwo.sol\":3538:3600  uint256[] memory result = new uint256[](balanceOf(tokenOwner)) */\n      swap1\n      pop\n        /* \"contracts/fourtwo.sol\":3611:3626  uint256 counter */\n      0x00\n        /* \"contracts/fourtwo.sol\":3646:3655  uint256 i */\n      dup1\n        /* \"contracts/fourtwo.sol\":3641:3823  for (uint256 i = 0; i < supplyCurrent; i++) {... */\n    tag_382:\n        /* \"contracts/fourtwo.sol\":3665:3678  supplyCurrent */\n      dup4\n        /* \"contracts/fourtwo.sol\":3661:3662  i */\n      dup2\n        /* \"contracts/fourtwo.sol\":3661:3678  i < supplyCurrent */\n      lt\n        /* \"contracts/fourtwo.sol\":3641:3823  for (uint256 i = 0; i < supplyCurrent; i++) {... */\n      iszero\n      tag_383\n      jumpi\n        /* \"contracts/fourtwo.sol\":3718:3728  tokenOwner */\n      dup6\n      sub(shl(0xa0, 0x01), 0x01)\n        /* \"contracts/fourtwo.sol\":3704:3728  ownerOf(i) == tokenOwner */\n      and\n        /* \"contracts/fourtwo.sol\":3704:3714  ownerOf(i) */\n      tag_385\n        /* \"contracts/fourtwo.sol\":3712:3713  i */\n      dup3\n        /* \"contracts/fourtwo.sol\":3704:3711  ownerOf */\n      tag_126\n        /* \"contracts/fourtwo.sol\":3704:3714  ownerOf(i) */\n      jump\t// in\n    tag_385:\n      sub(shl(0xa0, 0x01), 0x01)\n        /* \"contracts/fourtwo.sol\":3704:3728  ownerOf(i) == tokenOwner */\n      and\n      eq\n        /* \"contracts/fourtwo.sol\":3700:3812  if (ownerOf(i) == tokenOwner) {... */\n      iszero\n      tag_386\n      jumpi\n        /* \"contracts/fourtwo.sol\":3767:3768  i */\n      dup1\n        /* \"contracts/fourtwo.sol\":3749:3755  result */\n      dup4\n        /* \"contracts/fourtwo.sol\":3756:3763  counter */\n      dup4\n        /* \"contracts/fourtwo.sol\":3749:3764  result[counter] */\n      dup2\n      mload\n      dup2\n      lt\n      tag_388\n      jumpi\n      tag_388\n      tag_237\n      jump\t// in\n    tag_388:\n      0x20\n      swap1\n      dup2\n      mul\n      swap2\n      swap1\n      swap2\n      add\n      add\n        /* \"contracts/fourtwo.sol\":3749:3768  result[counter] = i */\n      mstore\n        /* \"contracts/fourtwo.sol\":3787:3796  counter++ */\n      dup2\n      tag_389\n      dup2\n      tag_240\n      jump\t// in\n    tag_389:\n      swap3\n      pop\n      pop\n        /* \"contracts/fourtwo.sol\":3700:3812  if (ownerOf(i) == tokenOwner) {... */\n    tag_386:\n        /* \"contracts/fourtwo.sol\":3680:3683  i++ */\n      dup1\n      tag_390\n      dup2\n      tag_240\n      jump\t// in\n    tag_390:\n      swap2\n      pop\n      pop\n        /* \"contracts/fourtwo.sol\":3641:3823  for (uint256 i = 0; i < supplyCurrent; i++) {... */\n      jump(tag_382)\n    tag_383:\n      pop\n        /* \"contracts/fourtwo.sol\":3840:3846  result */\n      swap1\n      swap5\n        /* \"contracts/fourtwo.sol\":3393:3854  function ownerOfTokenIds(address tokenOwner) external view returns (uint256[] memory) {... */\n      swap4\n      pop\n      pop\n      pop\n      pop\n      jump\t// out\n        /* \"contracts/fourtwo.sol\":2700:2822  function setBaseExtension(string memory _newBaseExtension) public onlyOwner {... */\n    tag_191:\n        /* \"@openzeppelin/contracts/access/Ownable.sol\":1094:1107  _checkOwner() */\n      tag_392\n        /* \"@openzeppelin/contracts/access/Ownable.sol\":1094:1105  _checkOwner */\n      tag_207\n        /* \"@openzeppelin/contracts/access/Ownable.sol\":1094:1107  _checkOwner() */\n      jump\t// in\n    tag_392:\n        /* \"contracts/fourtwo.sol\":2783:2816  baseExtension = _newBaseExtension */\n      dup1\n      mload\n      tag_284\n      swap1\n        /* \"contracts/fourtwo.sol\":2783:2796  baseExtension */\n      0x0b\n      swap1\n        /* \"contracts/fourtwo.sol\":2783:2816  baseExtension = _newBaseExtension */\n      0x20\n      dup5\n      add\n      swap1\n      tag_285\n      jump\t// in\n        /* \"@openzeppelin/contracts/access/Ownable.sol\":2081:2279  function transferOwnership(address newOwner) public virtual onlyOwner {... */\n    tag_201:\n        /* \"@openzeppelin/contracts/access/Ownable.sol\":1094:1107  _checkOwner() */\n      tag_397\n        /* \"@openzeppelin/contracts/access/Ownable.sol\":1094:1105  _checkOwner */\n      tag_207\n        /* \"@openzeppelin/contracts/access/Ownable.sol\":1094:1107  _checkOwner() */\n      jump\t// in\n    tag_397:\n      sub(shl(0xa0, 0x01), 0x01)\n        /* \"@openzeppelin/contracts/access/Ownable.sol\":2169:2191  newOwner != address(0) */\n      dup2\n      and\n        /* \"@openzeppelin/contracts/access/Ownable.sol\":2161:2234  require(newOwner != address(0), \"Ownable: new owner is the zero address\") */\n      tag_399\n      jumpi\n      mload(0x40)\n      shl(0xe5, 0x461bcd)\n      dup2\n      mstore\n        /* \"#utility.yul\":13019:13021   */\n      0x20\n        /* \"@openzeppelin/contracts/access/Ownable.sol\":2161:2234  require(newOwner != address(0), \"Ownable: new owner is the zero address\") */\n      0x04\n      dup3\n      add\n        /* \"#utility.yul\":13001:13022   */\n      mstore\n        /* \"#utility.yul\":13058:13060   */\n      0x26\n        /* \"#utility.yul\":13038:13056   */\n      0x24\n      dup3\n      add\n        /* \"#utility.yul\":13031:13061   */\n      mstore\n        /* \"#utility.yul\":13097:13131   */\n      0x4f776e61626c653a206e6577206f776e657220697320746865207a65726f2061\n        /* \"#utility.yul\":13077:13095   */\n      0x44\n      dup3\n      add\n        /* \"#utility.yul\":13070:13132   */\n      mstore\n      shl(0xd0, 0x646472657373)\n        /* \"#utility.yul\":13148:13166   */\n      0x64\n      dup3\n      add\n        /* \"#utility.yul\":13141:13177   */\n      mstore\n        /* \"#utility.yul\":13194:13213   */\n      0x84\n      add\n        /* \"@openzeppelin/contracts/access/Ownable.sol\":2161:2234  require(newOwner != address(0), \"Ownable: new owner is the zero address\") */\n      tag_315\n        /* \"#utility.yul\":12817:13219   */\n      jump\n        /* \"@openzeppelin/contracts/access/Ownable.sol\":2161:2234  require(newOwner != address(0), \"Ownable: new owner is the zero address\") */\n    tag_399:\n        /* \"@openzeppelin/contracts/access/Ownable.sol\":2244:2272  _transferOwnership(newOwner) */\n      tag_278\n        /* \"@openzeppelin/contracts/access/Ownable.sol\":2263:2271  newOwner */\n      dup2\n        /* \"@openzeppelin/contracts/access/Ownable.sol\":2244:2262  _transferOwnership */\n      tag_304\n        /* \"@openzeppelin/contracts/access/Ownable.sol\":2244:2272  _transferOwnership(newOwner) */\n      jump\t// in\n        /* \"@openzeppelin/contracts/access/Ownable.sol\":1359:1489  function _checkOwner() internal view virtual {... */\n    tag_207:\n        /* \"@openzeppelin/contracts/access/Ownable.sol\":1247:1254  address */\n      0x00\n        /* \"@openzeppelin/contracts/access/Ownable.sol\":1273:1279  _owner */\n      sload\n      sub(shl(0xa0, 0x01), 0x01)\n      and\n        /* \"contracts/ERC721A.sol\":40569:40579  msg.sender */\n      caller\n        /* \"@openzeppelin/contracts/access/Ownable.sol\":1422:1445  owner() == _msgSender() */\n      eq\n        /* \"@openzeppelin/contracts/access/Ownable.sol\":1414:1482  require(owner() == _msgSender(), \"Ownable: caller is not the owner\") */\n      tag_303\n      jumpi\n      mload(0x40)\n      shl(0xe5, 0x461bcd)\n      dup2\n      mstore\n        /* \"#utility.yul\":13426:13428   */\n      0x20\n        /* \"@openzeppelin/contracts/access/Ownable.sol\":1414:1482  require(owner() == _msgSender(), \"Ownable: caller is not the owner\") */\n      0x04\n      dup3\n      add\n        /* \"#utility.yul\":13408:13429   */\n      dup2\n      swap1\n      mstore\n        /* \"#utility.yul\":13445:13463   */\n      0x24\n      dup3\n      add\n        /* \"#utility.yul\":13438:13468   */\n      mstore\n        /* \"#utility.yul\":13504:13538   */\n      0x4f776e61626c653a2063616c6c6572206973206e6f7420746865206f776e6572\n        /* \"#utility.yul\":13484:13502   */\n      0x44\n      dup3\n      add\n        /* \"#utility.yul\":13477:13539   */\n      mstore\n        /* \"#utility.yul\":13556:13574   */\n      0x64\n      add\n        /* \"@openzeppelin/contracts/access/Ownable.sol\":1414:1482  require(owner() == _msgSender(), \"Ownable: caller is not the owner\") */\n      tag_315\n        /* \"#utility.yul\":13224:13580   */\n      jump\n        /* \"contracts/ERC721A.sol\":18174:18456  function _exists(uint256 tokenId) internal view virtual returns (bool) {... */\n    tag_219:\n        /* \"contracts/ERC721A.sol\":18239:18243  bool */\n      0x00\n        /* \"contracts/ERC721A.sol\":18329:18342  _currentIndex */\n      sload(0x01)\n        /* \"contracts/ERC721A.sol\":18319:18326  tokenId */\n      dup3\n        /* \"contracts/ERC721A.sol\":18319:18342  tokenId < _currentIndex */\n      lt\n        /* \"contracts/ERC721A.sol\":18276:18429  _startTokenId() <= tokenId &&... */\n      dup1\n      iszero\n      tag_204\n      jumpi\n      pop\n      pop\n        /* \"contracts/ERC721A.sol\":18380:18406  _packedOwnerships[tokenId] */\n      0x00\n      swap1\n      dup2\n      mstore\n        /* \"contracts/ERC721A.sol\":18380:18397  _packedOwnerships */\n      0x05\n        /* \"contracts/ERC721A.sol\":18380:18406  _packedOwnerships[tokenId] */\n      0x20\n      mstore\n      0x40\n      swap1\n      keccak256\n      sload\n      shl(0xe0, 0x01)\n        /* \"contracts/ERC721A.sol\":18380:18424  _packedOwnerships[tokenId] & _BITMASK_BURNED */\n      and\n        /* \"contracts/ERC721A.sol\":18380:18429  _packedOwnerships[tokenId] & _BITMASK_BURNED == 0 */\n      iszero\n      swap1\n        /* \"contracts/ERC721A.sol\":18174:18456  function _exists(uint256 tokenId) internal view virtual returns (bool) {... */\n      jump\t// out\n        /* \"contracts/ERC721A.sol\":12860:14135  function _packedOwnershipOf(uint256 tokenId) private view returns (uint256) {... */\n    tag_249:\n        /* \"contracts/ERC721A.sol\":12927:12934  uint256 */\n      0x00\n        /* \"contracts/ERC721A.sol\":12962:12969  tokenId */\n      dup2\n        /* \"contracts/ERC721A.sol\":13064:13077  _currentIndex */\n      sload(0x01)\n        /* \"contracts/ERC721A.sol\":13057:13061  curr */\n      dup2\n        /* \"contracts/ERC721A.sol\":13057:13077  curr < _currentIndex */\n      lt\n        /* \"contracts/ERC721A.sol\":13053:14068  if (curr < _currentIndex) {... */\n      iszero\n      tag_419\n      jumpi\n        /* \"contracts/ERC721A.sol\":13102:13116  uint256 packed */\n      0x00\n        /* \"contracts/ERC721A.sol\":13119:13142  _packedOwnerships[curr] */\n      dup2\n      dup2\n      mstore\n        /* \"contracts/ERC721A.sol\":13119:13136  _packedOwnerships */\n      0x05\n        /* \"contracts/ERC721A.sol\":13119:13142  _packedOwnerships[curr] */\n      0x20\n      mstore\n      0x40\n      swap1\n      keccak256\n      sload\n      shl(0xe0, 0x01)\n        /* \"contracts/ERC721A.sol\":13208:13232  packed & _BITMASK_BURNED */\n      dup2\n      and\n        /* \"contracts/ERC721A.sol\":13204:14049  if (packed & _BITMASK_BURNED == 0) {... */\n      tag_420\n      jumpi\n        /* \"contracts/ERC721A.sol\":13873:13986  while (packed == 0) {... */\n    tag_421:\n        /* \"contracts/ERC721A.sol\":13880:13891  packed == 0 */\n      dup1\n        /* \"contracts/ERC721A.sol\":13873:13986  while (packed == 0) {... */\n      tag_370\n      jumpi\n      pop\n      not(0x00)\n        /* \"contracts/ERC721A.sol\":13951:13957  --curr */\n      add\n        /* \"contracts/ERC721A.sol\":13933:13958  _packedOwnerships[--curr] */\n      0x00\n      dup2\n      dup2\n      mstore\n        /* \"contracts/ERC721A.sol\":13933:13950  _packedOwnerships */\n      0x05\n        /* \"contracts/ERC721A.sol\":13933:13958  _packedOwnerships[--curr] */\n      0x20\n      mstore\n      0x40\n      swap1\n      keccak256\n      sload\n        /* \"contracts/ERC721A.sol\":13873:13986  while (packed == 0) {... */\n      jump(tag_421)\n        /* \"contracts/ERC721A.sol\":13204:14049  if (packed & _BITMASK_BURNED == 0) {... */\n    tag_420:\n        /* \"contracts/ERC721A.sol\":13079:14068  {... */\n      pop\n        /* \"contracts/ERC721A.sol\":13053:14068  if (curr < _currentIndex) {... */\n    tag_419:\n        /* \"contracts/ERC721A.sol\":14096:14127  OwnerQueryForNonexistentToken() */\n      mload(0x40)\n      shl(0xe1, 0x6f96cda1)\n      dup2\n      mstore\n      0x04\n      add\n      mload(0x40)\n      dup1\n      swap2\n      sub\n      swap1\n      revert\n        /* \"@openzeppelin/contracts/access/Ownable.sol\":2433:2620  function _transferOwnership(address newOwner) internal virtual {... */\n    tag_304:\n        /* \"@openzeppelin/contracts/access/Ownable.sol\":2506:2522  address oldOwner */\n      0x00\n        /* \"@openzeppelin/contracts/access/Ownable.sol\":2525:2531  _owner */\n      dup1\n      sload\n      sub(shl(0xa0, 0x01), 0x01)\n        /* \"@openzeppelin/contracts/access/Ownable.sol\":2541:2558  _owner = newOwner */\n      dup4\n      dup2\n      and\n      not(sub(shl(0xa0, 0x01), 0x01))\n      dup4\n      and\n      dup2\n      or\n      dup5\n      sstore\n        /* \"@openzeppelin/contracts/access/Ownable.sol\":2573:2613  OwnershipTransferred(oldOwner, newOwner) */\n      mload(0x40)\n        /* \"@openzeppelin/contracts/access/Ownable.sol\":2525:2531  _owner */\n      swap2\n      swap1\n      swap3\n      and\n      swap3\n      dup4\n      swap2\n        /* \"@openzeppelin/contracts/access/Ownable.sol\":2573:2613  OwnershipTransferred(oldOwner, newOwner) */\n      0x8be0079c531659141344cd1fd0a4f28419497f9722a3daafe3b4186f6b6457e0\n      swap2\n        /* \"@openzeppelin/contracts/access/Ownable.sol\":2506:2522  address oldOwner */\n      swap1\n        /* \"@openzeppelin/contracts/access/Ownable.sol\":2573:2613  OwnershipTransferred(oldOwner, newOwner) */\n      log3\n        /* \"@openzeppelin/contracts/access/Ownable.sol\":2496:2620  {... */\n      pop\n        /* \"@openzeppelin/contracts/access/Ownable.sol\":2433:2620  function _transferOwnership(address newOwner) internal virtual {... */\n      pop\n      jump\t// out\n        /* \"contracts/ERC721A.sol\":34314:34426  function _safeMint(address to, uint256 quantity) internal virtual {... */\n    tag_345:\n        /* \"contracts/ERC721A.sol\":34391:34418  _safeMint(to, quantity, '') */\n      tag_284\n        /* \"contracts/ERC721A.sol\":34401:34403  to */\n      dup3\n        /* \"contracts/ERC721A.sol\":34405:34413  quantity */\n      dup3\n        /* \"contracts/ERC721A.sol\":34391:34418  _safeMint(to, quantity, '') */\n      mload(0x40)\n      dup1\n      0x20\n      add\n      0x40\n      mstore\n      dup1\n      0x00\n      dup2\n      mstore\n      pop\n        /* \"contracts/ERC721A.sol\":34391:34400  _safeMint */\n      tag_434\n        /* \"contracts/ERC721A.sol\":34391:34418  _safeMint(to, quantity, '') */\n      jump\t// in\n        /* \"contracts/ERC721A.sol\":26645:27361  function _checkContractOnERC721Received(... */\n    tag_355:\n        /* \"contracts/ERC721A.sol\":26829:26917  ERC721A__IERC721Receiver(to).onERC721Received(_msgSenderERC721A(), from, tokenId, _data) */\n      mload(0x40)\n      shl(0xe1, 0x0a85bd01)\n      dup2\n      mstore\n        /* \"contracts/ERC721A.sol\":26808:26812  bool */\n      0x00\n      swap1\n      sub(shl(0xa0, 0x01), 0x01)\n        /* \"contracts/ERC721A.sol\":26829:26874  ERC721A__IERC721Receiver(to).onERC721Received */\n      dup6\n      and\n      swap1\n      0x150b7a02\n      swap1\n        /* \"contracts/ERC721A.sol\":26829:26917  ERC721A__IERC721Receiver(to).onERC721Received(_msgSenderERC721A(), from, tokenId, _data) */\n      tag_437\n      swap1\n        /* \"contracts/ERC721A.sol\":40569:40579  msg.sender */\n      caller\n      swap1\n        /* \"contracts/ERC721A.sol\":26896:26900  from */\n      dup10\n      swap1\n        /* \"contracts/ERC721A.sol\":26902:26909  tokenId */\n      dup9\n      swap1\n        /* \"contracts/ERC721A.sol\":26911:26916  _data */\n      dup9\n      swap1\n        /* \"contracts/ERC721A.sol\":26829:26917  ERC721A__IERC721Receiver(to).onERC721Received(_msgSenderERC721A(), from, tokenId, _data) */\n      0x04\n      add\n      tag_438\n      jump\t// in\n    tag_437:\n      0x20\n      mload(0x40)\n      dup1\n      dup4\n      sub\n      dup2\n      0x00\n      dup8\n      gas\n      call\n      swap3\n      pop\n      pop\n      pop\n      dup1\n      iszero\n      tag_439\n      jumpi\n      pop\n      0x40\n      dup1\n      mload\n      0x1f\n      returndatasize\n      swap1\n      dup2\n      add\n      not(0x1f)\n      and\n      dup3\n      add\n      swap1\n      swap3\n      mstore\n      tag_440\n      swap2\n      dup2\n      add\n      swap1\n      tag_441\n      jump\t// in\n    tag_440:\n      0x01\n    tag_439:\n        /* \"contracts/ERC721A.sol\":26825:27354  try ERC721A__IERC721Receiver(to).onERC721Received(_msgSenderERC721A(), from, tokenId, _data) returns (... */\n      tag_442\n      jumpi\n      returndatasize\n      dup1\n      dup1\n      iszero\n      tag_447\n      jumpi\n      mload(0x40)\n      swap2\n      pop\n      and(add(returndatasize, 0x3f), not(0x1f))\n      dup3\n      add\n      0x40\n      mstore\n      returndatasize\n      dup3\n      mstore\n      returndatasize\n      0x00\n      0x20\n      dup5\n      add\n      returndatacopy\n      jump(tag_446)\n    tag_447:\n      0x60\n      swap2\n      pop\n    tag_446:\n      pop\n        /* \"contracts/ERC721A.sol\":27112:27125  reason.length */\n      dup1\n      mload\n        /* \"contracts/ERC721A.sol\":27108:27343  if (reason.length == 0) {... */\n      tag_448\n      jumpi\n        /* \"contracts/ERC721A.sol\":27158:27198  TransferToNonERC721ReceiverImplementer() */\n      mload(0x40)\n      shl(0xe1, 0x68d2bf6b)\n      dup2\n      mstore\n      0x04\n      add\n      mload(0x40)\n      dup1\n      swap2\n      sub\n      swap1\n      revert\n        /* \"contracts/ERC721A.sol\":27108:27343  if (reason.length == 0) {... */\n    tag_448:\n        /* \"contracts/ERC721A.sol\":27301:27307  reason */\n      dup1\n        /* \"contracts/ERC721A.sol\":27295:27308  mload(reason) */\n      mload\n        /* \"contracts/ERC721A.sol\":27286:27292  reason */\n      dup2\n        /* \"contracts/ERC721A.sol\":27282:27284  32 */\n      0x20\n        /* \"contracts/ERC721A.sol\":27278:27293  add(32, reason) */\n      add\n        /* \"contracts/ERC721A.sol\":27271:27309  revert(add(32, reason), mload(reason)) */\n      revert\n        /* \"contracts/ERC721A.sol\":26825:27354  try ERC721A__IERC721Receiver(to).onERC721Received(_msgSenderERC721A(), from, tokenId, _data) returns (... */\n    tag_442:\n      not(sub(shl(0xe0, 0x01), 0x01))\n        /* \"contracts/ERC721A.sol\":26988:27052  retval == ERC721A__IERC721Receiver(to).onERC721Received.selector */\n      and\n      shl(0xe1, 0x0a85bd01)\n      eq\n      swap1\n      pop\n        /* \"contracts/ERC721A.sol\":26825:27354  try ERC721A__IERC721Receiver(to).onERC721Received(_msgSenderERC721A(), from, tokenId, _data) returns (... */\n    tag_450:\n        /* \"contracts/ERC721A.sol\":26645:27361  function _checkContractOnERC721Received(... */\n      swap5\n      swap4\n      pop\n      pop\n      pop\n      pop\n      jump\t// out\n        /* \"contracts/fourtwo.sol\":886:988  function _baseURI() internal view virtual override returns (string memory) {... */\n    tag_368:\n        /* \"contracts/fourtwo.sol\":946:959  string memory */\n      0x60\n        /* \"contracts/fourtwo.sol\":975:982  baseURI */\n      0x0a\n        /* \"contracts/fourtwo.sol\":968:982  return baseURI */\n      dup1\n      sload\n      tag_211\n      swap1\n      tag_212\n      jump\t// in\n        /* \"@openzeppelin/contracts-upgradeable/utils/StringsUpgradeable.sol\":437:1144  function toString(uint256 value) internal pure returns (string memory) {... */\n    tag_372:\n        /* \"@openzeppelin/contracts-upgradeable/utils/StringsUpgradeable.sol\":493:506  string memory */\n      0x60\n        /* \"@openzeppelin/contracts-upgradeable/utils/StringsUpgradeable.sol\":542:556  uint256 length */\n      0x00\n        /* \"@openzeppelin/contracts-upgradeable/utils/StringsUpgradeable.sol\":559:587  MathUpgradeable.log10(value) */\n      tag_458\n        /* \"@openzeppelin/contracts-upgradeable/utils/StringsUpgradeable.sol\":581:586  value */\n      dup4\n        /* \"@openzeppelin/contracts-upgradeable/utils/StringsUpgradeable.sol\":559:580  MathUpgradeable.log10 */\n      tag_459\n        /* \"@openzeppelin/contracts-upgradeable/utils/StringsUpgradeable.sol\":559:587  MathUpgradeable.log10(value) */\n      jump\t// in\n    tag_458:\n        /* \"@openzeppelin/contracts-upgradeable/utils/StringsUpgradeable.sol\":590:591  1 */\n      0x01\n        /* \"@openzeppelin/contracts-upgradeable/utils/StringsUpgradeable.sol\":559:591  MathUpgradeable.log10(value) + 1 */\n      add\n        /* \"@openzeppelin/contracts-upgradeable/utils/StringsUpgradeable.sol\":542:591  uint256 length = MathUpgradeable.log10(value) + 1 */\n      swap1\n      pop\n        /* \"@openzeppelin/contracts-upgradeable/utils/StringsUpgradeable.sol\":605:625  string memory buffer */\n      0x00\n        /* \"@openzeppelin/contracts-upgradeable/utils/StringsUpgradeable.sol\":639:645  length */\n      dup2\n        /* \"@openzeppelin/contracts-upgradeable/utils/StringsUpgradeable.sol\":628:646  new string(length) */\n      0xffffffffffffffff\n      dup2\n      gt\n      iszero\n      tag_461\n      jumpi\n      tag_461\n      tag_380\n      jump\t// in\n    tag_461:\n      mload(0x40)\n      swap1\n      dup1\n      dup3\n      mstore\n      dup1\n      0x1f\n      add\n      not(0x1f)\n      and\n      0x20\n      add\n      dup3\n      add\n      0x40\n      mstore\n      dup1\n      iszero\n      tag_462\n      jumpi\n      0x20\n      dup3\n      add\n      dup2\n      dup1\n      calldatasize\n      dup4\n      calldatacopy\n      add\n      swap1\n      pop\n    tag_462:\n      pop\n        /* \"@openzeppelin/contracts-upgradeable/utils/StringsUpgradeable.sol\":605:646  string memory buffer = new string(length) */\n      swap1\n      pop\n        /* \"@openzeppelin/contracts-upgradeable/utils/StringsUpgradeable.sol\":766:794  add(buffer, add(32, length)) */\n      dup2\n      dup2\n      add\n        /* \"@openzeppelin/contracts-upgradeable/utils/StringsUpgradeable.sol\":782:784  32 */\n      0x20\n        /* \"@openzeppelin/contracts-upgradeable/utils/StringsUpgradeable.sol\":766:794  add(buffer, add(32, length)) */\n      add\n        /* \"@openzeppelin/contracts-upgradeable/utils/StringsUpgradeable.sol\":821:1101  while (true) {... */\n    tag_463:\n      not(0x00)\n        /* \"@openzeppelin/contracts-upgradeable/utils/StringsUpgradeable.sol\":852:857  ptr-- */\n      add\n      shl(0x81, 0x181899199a1a9b1b9c1cb0b131b232b3)\n        /* \"@openzeppelin/contracts-upgradeable/utils/StringsUpgradeable.sol\":986:988  10 */\n      0x0a\n        /* \"@openzeppelin/contracts-upgradeable/utils/StringsUpgradeable.sol\":975:989  mod(value, 10) */\n      dup7\n      mod\n        /* \"@openzeppelin/contracts-upgradeable/utils/StringsUpgradeable.sol\":970:1000  byte(mod(value, 10), _SYMBOLS) */\n      byte\n        /* \"@openzeppelin/contracts-upgradeable/utils/StringsUpgradeable.sol\":852:857  ptr-- */\n      dup2\n        /* \"@openzeppelin/contracts-upgradeable/utils/StringsUpgradeable.sol\":957:1001  mstore8(ptr, byte(mod(value, 10), _SYMBOLS)) */\n      mstore8\n        /* \"@openzeppelin/contracts-upgradeable/utils/StringsUpgradeable.sol\":1045:1047  10 */\n      0x0a\n        /* \"@openzeppelin/contracts-upgradeable/utils/StringsUpgradeable.sol\":1036:1047  value /= 10 */\n      dup6\n      div\n      swap5\n      pop\n        /* \"@openzeppelin/contracts-upgradeable/utils/StringsUpgradeable.sol\":1069:1079  value == 0 */\n      dup5\n        /* \"@openzeppelin/contracts-upgradeable/utils/StringsUpgradeable.sol\":1065:1086  if (value == 0) break */\n      tag_468\n      jumpi\n        /* \"@openzeppelin/contracts-upgradeable/utils/StringsUpgradeable.sol\":1081:1086  break */\n      jump(tag_464)\n        /* \"@openzeppelin/contracts-upgradeable/utils/StringsUpgradeable.sol\":1065:1086  if (value == 0) break */\n    tag_468:\n        /* \"@openzeppelin/contracts-upgradeable/utils/StringsUpgradeable.sol\":821:1101  while (true) {... */\n      jump(tag_463)\n    tag_464:\n      pop\n        /* \"@openzeppelin/contracts-upgradeable/utils/StringsUpgradeable.sol\":1121:1127  buffer */\n      swap4\n        /* \"@openzeppelin/contracts-upgradeable/utils/StringsUpgradeable.sol\":437:1144  function toString(uint256 value) internal pure returns (string memory) {... */\n      swap3\n      pop\n      pop\n      pop\n      jump\t// out\n        /* \"contracts/ERC721A.sol\":33541:34230  function _safeMint(... */\n    tag_434:\n        /* \"contracts/ERC721A.sol\":33672:33691  _mint(to, quantity) */\n      tag_472\n        /* \"contracts/ERC721A.sol\":33678:33680  to */\n      dup4\n        /* \"contracts/ERC721A.sol\":33682:33690  quantity */\n      dup4\n        /* \"contracts/ERC721A.sol\":33672:33677  _mint */\n      tag_473\n        /* \"contracts/ERC721A.sol\":33672:33691  _mint(to, quantity) */\n      jump\t// in\n    tag_472:\n      sub(shl(0xa0, 0x01), 0x01)\n        /* \"contracts/ERC721A.sol\":33733:33747  to.code.length */\n      dup4\n      and\n      extcodesize\n        /* \"contracts/ERC721A.sol\":33733:33752  to.code.length != 0 */\n      iszero\n        /* \"contracts/ERC721A.sol\":33729:34212  if (to.code.length != 0) {... */\n      tag_233\n      jumpi\n        /* \"contracts/ERC721A.sol\":33787:33800  _currentIndex */\n      sload(0x01)\n        /* \"contracts/ERC721A.sol\":33835:33849  end - quantity */\n      dup3\n      dup2\n      sub\n        /* \"contracts/ERC721A.sol\":33868:34101  do {... */\n    tag_475:\n        /* \"contracts/ERC721A.sol\":33899:33961  _checkContractOnERC721Received(address(0), to, index++, _data) */\n      tag_478\n        /* \"contracts/ERC721A.sol\":33938:33939  0 */\n      0x00\n        /* \"contracts/ERC721A.sol\":33942:33944  to */\n      dup7\n        /* \"contracts/ERC721A.sol\":33946:33953  index++ */\n      dup4\n      dup1\n      0x01\n      add\n      swap5\n      pop\n        /* \"contracts/ERC721A.sol\":33955:33960  _data */\n      dup7\n        /* \"contracts/ERC721A.sol\":33899:33929  _checkContractOnERC721Received */\n      tag_355\n        /* \"contracts/ERC721A.sol\":33899:33961  _checkContractOnERC721Received(address(0), to, index++, _data) */\n      jump\t// in\n    tag_478:\n        /* \"contracts/ERC721A.sol\":33894:34061  if (!_checkContractOnERC721Received(address(0), to, index++, _data)) {... */\n      tag_479\n      jumpi\n        /* \"contracts/ERC721A.sol\":33997:34037  TransferToNonERC721ReceiverImplementer() */\n      mload(0x40)\n      shl(0xe1, 0x68d2bf6b)\n      dup2\n      mstore\n      0x04\n      add\n      mload(0x40)\n      dup1\n      swap2\n      sub\n      swap1\n      revert\n        /* \"contracts/ERC721A.sol\":33894:34061  if (!_checkContractOnERC721Received(address(0), to, index++, _data)) {... */\n    tag_479:\n        /* \"contracts/ERC721A.sol\":34096:34099  end */\n      dup2\n        /* \"contracts/ERC721A.sol\":34088:34093  index */\n      dup2\n        /* \"contracts/ERC721A.sol\":34088:34099  index < end */\n      lt\n        /* \"contracts/ERC721A.sol\":33868:34101  do {... */\n      tag_475\n      jumpi\n        /* \"contracts/ERC721A.sol\":34183:34186  end */\n      dup2\n        /* \"contracts/ERC721A.sol\":34166:34179  _currentIndex */\n      sload(0x01)\n        /* \"contracts/ERC721A.sol\":34166:34186  _currentIndex != end */\n      eq\n        /* \"contracts/ERC721A.sol\":34162:34196  if (_currentIndex != end) revert() */\n      tag_480\n      jumpi\n        /* \"contracts/ERC721A.sol\":34188:34196  revert() */\n      0x00\n      dup1\n      revert\n        /* \"contracts/ERC721A.sol\":34162:34196  if (_currentIndex != end) revert() */\n    tag_480:\n        /* \"contracts/ERC721A.sol\":33754:34212  {... */\n      pop\n      pop\n        /* \"contracts/ERC721A.sol\":33541:34230  function _safeMint(... */\n      pop\n      pop\n      pop\n      jump\t// out\n        /* \"@openzeppelin/contracts-upgradeable/utils/math/MathUpgradeable.sol\":9900:10790  function log10(uint256 value) internal pure returns (uint256) {... */\n    tag_459:\n        /* \"@openzeppelin/contracts-upgradeable/utils/math/MathUpgradeable.sol\":9953:9960  uint256 */\n      0x00\n      dup1\n      shl(0x40, 0x184f03e93ff9f4daa797ed6e38ed64bf6a1f01)\n        /* \"@openzeppelin/contracts-upgradeable/utils/math/MathUpgradeable.sol\":10028:10043  value >= 10**64 */\n      dup4\n      lt\n        /* \"@openzeppelin/contracts-upgradeable/utils/math/MathUpgradeable.sol\":10024:10123  if (value >= 10**64) {... */\n      tag_482\n      jumpi\n      shl(0x40, 0x184f03e93ff9f4daa797ed6e38ed64bf6a1f01)\n        /* \"@openzeppelin/contracts-upgradeable/utils/math/MathUpgradeable.sol\":10063:10078  value /= 10**64 */\n      dup4\n      div\n      swap3\n      pop\n        /* \"@openzeppelin/contracts-upgradeable/utils/math/MathUpgradeable.sol\":10106:10108  64 */\n      0x40\n        /* \"@openzeppelin/contracts-upgradeable/utils/math/MathUpgradeable.sol\":10096:10108  result += 64 */\n      add\n        /* \"@openzeppelin/contracts-upgradeable/utils/math/MathUpgradeable.sol\":10024:10123  if (value >= 10**64) {... */\n    tag_482:\n        /* \"@openzeppelin/contracts-upgradeable/utils/math/MathUpgradeable.sol\":10149:10155  10**32 */\n      0x04ee2d6d415b85acef8100000000\n        /* \"@openzeppelin/contracts-upgradeable/utils/math/MathUpgradeable.sol\":10140:10145  value */\n      dup4\n        /* \"@openzeppelin/contracts-upgradeable/utils/math/MathUpgradeable.sol\":10140:10155  value >= 10**32 */\n      lt\n        /* \"@openzeppelin/contracts-upgradeable/utils/math/MathUpgradeable.sol\":10136:10235  if (value >= 10**32) {... */\n      tag_485\n      jumpi\n        /* \"@openzeppelin/contracts-upgradeable/utils/math/MathUpgradeable.sol\":10184:10190  10**32 */\n      0x04ee2d6d415b85acef8100000000\n        /* \"@openzeppelin/contracts-upgradeable/utils/math/MathUpgradeable.sol\":10175:10190  value /= 10**32 */\n      dup4\n      div\n      swap3\n      pop\n        /* \"@openzeppelin/contracts-upgradeable/utils/math/MathUpgradeable.sol\":10218:10220  32 */\n      0x20\n        /* \"@openzeppelin/contracts-upgradeable/utils/math/MathUpgradeable.sol\":10208:10220  result += 32 */\n      add\n        /* \"@openzeppelin/contracts-upgradeable/utils/math/MathUpgradeable.sol\":10136:10235  if (value >= 10**32) {... */\n    tag_485:\n        /* \"@openzeppelin/contracts-upgradeable/utils/math/MathUpgradeable.sol\":10261:10267  10**16 */\n      0x2386f26fc10000\n        /* \"@openzeppelin/contracts-upgradeable/utils/math/MathUpgradeable.sol\":10252:10257  value */\n      dup4\n        /* \"@openzeppelin/contracts-upgradeable/utils/math/MathUpgradeable.sol\":10252:10267  value >= 10**16 */\n      lt\n        /* \"@openzeppelin/contracts-upgradeable/utils/math/MathUpgradeable.sol\":10248:10347  if (value >= 10**16) {... */\n      tag_488\n      jumpi\n        /* \"@openzeppelin/contracts-upgradeable/utils/math/MathUpgradeable.sol\":10296:10302  10**16 */\n      0x2386f26fc10000\n        /* \"@openzeppelin/contracts-upgradeable/utils/math/MathUpgradeable.sol\":10287:10302  value /= 10**16 */\n      dup4\n      div\n      swap3\n      pop\n        /* \"@openzeppelin/contracts-upgradeable/utils/math/MathUpgradeable.sol\":10330:10332  16 */\n      0x10\n        /* \"@openzeppelin/contracts-upgradeable/utils/math/MathUpgradeable.sol\":10320:10332  result += 16 */\n      add\n        /* \"@openzeppelin/contracts-upgradeable/utils/math/MathUpgradeable.sol\":10248:10347  if (value >= 10**16) {... */\n    tag_488:\n        /* \"@openzeppelin/contracts-upgradeable/utils/math/MathUpgradeable.sol\":10373:10378  10**8 */\n      0x05f5e100\n        /* \"@openzeppelin/contracts-upgradeable/utils/math/MathUpgradeable.sol\":10364:10369  value */\n      dup4\n        /* \"@openzeppelin/contracts-upgradeable/utils/math/MathUpgradeable.sol\":10364:10378  value >= 10**8 */\n      lt\n        /* \"@openzeppelin/contracts-upgradeable/utils/math/MathUpgradeable.sol\":10360:10456  if (value >= 10**8) {... */\n      tag_491\n      jumpi\n        /* \"@openzeppelin/contracts-upgradeable/utils/math/MathUpgradeable.sol\":10407:10412  10**8 */\n      0x05f5e100\n        /* \"@openzeppelin/contracts-upgradeable/utils/math/MathUpgradeable.sol\":10398:10412  value /= 10**8 */\n      dup4\n      div\n      swap3\n      pop\n        /* \"@openzeppelin/contracts-upgradeable/utils/math/MathUpgradeable.sol\":10440:10441  8 */\n      0x08\n        /* \"@openzeppelin/contracts-upgradeable/utils/math/MathUpgradeable.sol\":10430:10441  result += 8 */\n      add\n        /* \"@openzeppelin/contracts-upgradeable/utils/math/MathUpgradeable.sol\":10360:10456  if (value >= 10**8) {... */\n    tag_491:\n        /* \"@openzeppelin/contracts-upgradeable/utils/math/MathUpgradeable.sol\":10482:10487  10**4 */\n      0x2710\n        /* \"@openzeppelin/contracts-upgradeable/utils/math/MathUpgradeable.sol\":10473:10478  value */\n      dup4\n        /* \"@openzeppelin/contracts-upgradeable/utils/math/MathUpgradeable.sol\":10473:10487  value >= 10**4 */\n      lt\n        /* \"@openzeppelin/contracts-upgradeable/utils/math/MathUpgradeable.sol\":10469:10565  if (value >= 10**4) {... */\n      tag_494\n      jumpi\n        /* \"@openzeppelin/contracts-upgradeable/utils/math/MathUpgradeable.sol\":10516:10521  10**4 */\n      0x2710\n        /* \"@openzeppelin/contracts-upgradeable/utils/math/MathUpgradeable.sol\":10507:10521  value /= 10**4 */\n      dup4\n      div\n      swap3\n      pop\n        /* \"@openzeppelin/contracts-upgradeable/utils/math/MathUpgradeable.sol\":10549:10550  4 */\n      0x04\n        /* \"@openzeppelin/contracts-upgradeable/utils/math/MathUpgradeable.sol\":10539:10550  result += 4 */\n      add\n        /* \"@openzeppelin/contracts-upgradeable/utils/math/MathUpgradeable.sol\":10469:10565  if (value >= 10**4) {... */\n    tag_494:\n        /* \"@openzeppelin/contracts-upgradeable/utils/math/MathUpgradeable.sol\":10591:10596  10**2 */\n      0x64\n        /* \"@openzeppelin/contracts-upgradeable/utils/math/MathUpgradeable.sol\":10582:10587  value */\n      dup4\n        /* \"@openzeppelin/contracts-upgradeable/utils/math/MathUpgradeable.sol\":10582:10596  value >= 10**2 */\n      lt\n        /* \"@openzeppelin/contracts-upgradeable/utils/math/MathUpgradeable.sol\":10578:10674  if (value >= 10**2) {... */\n      tag_497\n      jumpi\n        /* \"@openzeppelin/contracts-upgradeable/utils/math/MathUpgradeable.sol\":10625:10630  10**2 */\n      0x64\n        /* \"@openzeppelin/contracts-upgradeable/utils/math/MathUpgradeable.sol\":10616:10630  value /= 10**2 */\n      dup4\n      div\n      swap3\n      pop\n        /* \"@openzeppelin/contracts-upgradeable/utils/math/MathUpgradeable.sol\":10658:10659  2 */\n      0x02\n        /* \"@openzeppelin/contracts-upgradeable/utils/math/MathUpgradeable.sol\":10648:10659  result += 2 */\n      add\n        /* \"@openzeppelin/contracts-upgradeable/utils/math/MathUpgradeable.sol\":10578:10674  if (value >= 10**2) {... */\n    tag_497:\n        /* \"@openzeppelin/contracts-upgradeable/utils/math/MathUpgradeable.sol\":10700:10705  10**1 */\n      0x0a\n        /* \"@openzeppelin/contracts-upgradeable/utils/math/MathUpgradeable.sol\":10691:10696  value */\n      dup4\n        /* \"@openzeppelin/contracts-upgradeable/utils/math/MathUpgradeable.sol\":10691:10705  value >= 10**1 */\n      lt\n        /* \"@openzeppelin/contracts-upgradeable/utils/math/MathUpgradeable.sol\":10687:10751  if (value >= 10**1) {... */\n      tag_204\n      jumpi\n        /* \"@openzeppelin/contracts-upgradeable/utils/math/MathUpgradeable.sol\":10735:10736  1 */\n      0x01\n        /* \"@openzeppelin/contracts-upgradeable/utils/math/MathUpgradeable.sol\":10725:10736  result += 1 */\n      add\n        /* \"@openzeppelin/contracts-upgradeable/utils/math/MathUpgradeable.sol\":10777:10783  result */\n      swap3\n        /* \"@openzeppelin/contracts-upgradeable/utils/math/MathUpgradeable.sol\":9900:10790  function log10(uint256 value) internal pure returns (uint256) {... */\n      swap2\n      pop\n      pop\n      jump\t// out\n        /* \"contracts/ERC721A.sol\":27823:30789  function _mint(address to, uint256 quantity) internal virtual {... */\n    tag_473:\n        /* \"contracts/ERC721A.sol\":27919:27932  _currentIndex */\n      sload(0x01)\n        /* \"contracts/ERC721A.sol\":27947:27960  quantity == 0 */\n      dup2\n        /* \"contracts/ERC721A.sol\":27943:27987  if (quantity == 0) revert MintZeroQuantity() */\n      tag_502\n      jumpi\n        /* \"contracts/ERC721A.sol\":27969:27987  MintZeroQuantity() */\n      mload(0x40)\n      shl(0xe0, 0xb562e8dd)\n      dup2\n      mstore\n      0x04\n      add\n      mload(0x40)\n      dup1\n      swap2\n      sub\n      swap1\n      revert\n        /* \"contracts/ERC721A.sol\":27943:27987  if (quantity == 0) revert MintZeroQuantity() */\n    tag_502:\n      sub(shl(0xa0, 0x01), 0x01)\n        /* \"contracts/ERC721A.sol\":28475:28497  _packedAddressData[to] */\n      dup4\n      and\n      0x00\n      dup2\n      dup2\n      mstore\n        /* \"contracts/ERC721A.sol\":28475:28493  _packedAddressData */\n      0x06\n        /* \"contracts/ERC721A.sol\":28475:28497  _packedAddressData[to] */\n      0x20\n      swap1\n      dup2\n      mstore\n        /* \"contracts/ERC721A.sol\":1544:1546  64 */\n      0x40\n        /* \"contracts/ERC721A.sol\":28475:28497  _packedAddressData[to] */\n      dup1\n      dup4\n      keccak256\n        /* \"contracts/ERC721A.sol\":28475:28546  _packedAddressData[to] += quantity * ((1 << _BITPOS_NUMBER_MINTED) | 1) */\n      dup1\n      sload\n        /* \"contracts/ERC721A.sol\":28513:28545  (1 << _BITPOS_NUMBER_MINTED) | 1 */\n      0x010000000000000001\n        /* \"contracts/ERC721A.sol\":28501:28546  quantity * ((1 << _BITPOS_NUMBER_MINTED) | 1) */\n      dup9\n      mul\n        /* \"contracts/ERC721A.sol\":28475:28546  _packedAddressData[to] += quantity * ((1 << _BITPOS_NUMBER_MINTED) | 1) */\n      add\n      swap1\n      sstore\n        /* \"contracts/ERC721A.sol\":28789:28820  _packedOwnerships[startTokenId] */\n      dup5\n      dup4\n      mstore\n        /* \"contracts/ERC721A.sol\":28789:28806  _packedOwnerships */\n      0x05\n        /* \"contracts/ERC721A.sol\":28789:28820  _packedOwnerships[startTokenId] */\n      swap1\n      swap2\n      mstore\n      dup2\n      keccak256\n      0x01\n        /* \"contracts/ERC721A.sol\":15525:15540  eq(quantity, 1) */\n      dup6\n      eq\n        /* \"contracts/ERC721A.sol\":15499:15523  _BITPOS_NEXT_INITIALIZED */\n      0xe1\n        /* \"contracts/ERC721A.sol\":15495:15541  shl(_BITPOS_NEXT_INITIALIZED, eq(quantity, 1)) */\n      shl\n        /* \"contracts/ERC721A.sol\":15094:15105  timestamp() */\n      timestamp\n        /* \"contracts/ERC721A.sol\":15069:15092  _BITPOS_START_TIMESTAMP */\n      0xa0\n        /* \"contracts/ERC721A.sol\":15065:15106  shl(_BITPOS_START_TIMESTAMP, timestamp()) */\n      shl\n        /* \"contracts/ERC721A.sol\":15062:15114  or(shl(_BITPOS_START_TIMESTAMP, timestamp()), flags) */\n      or\n        /* \"contracts/ERC721A.sol\":15052:15115  or(owner, or(shl(_BITPOS_START_TIMESTAMP, timestamp()), flags)) */\n      dup4\n      or\n        /* \"contracts/ERC721A.sol\":28789:28962  _packedOwnerships[startTokenId] = _packOwnershipData(... */\n      swap1\n      sstore\n        /* \"contracts/ERC721A.sol\":29024:29047  startTokenId + quantity */\n      dup3\n      dup5\n      add\n      swap1\n        /* \"contracts/ERC721A.sol\":28789:28820  _packedOwnerships[startTokenId] */\n      dup4\n      swap1\n        /* \"contracts/ERC721A.sol\":28475:28497  _packedAddressData[to] */\n      dup4\n      swap1\n        /* \"contracts/ERC721A.sol\":29789:29814  _TRANSFER_EVENT_SIGNATURE */\n      0xddf252ad1be2c89b69c2b068fc378daa952ba7f163c4a11628f55a4df523b3ef\n        /* \"contracts/ERC721A.sol\":28475:28497  _packedAddressData[to] */\n      dup2\n      dup1\n        /* \"contracts/ERC721A.sol\":29642:29977  log4(... */\n      log4\n        /* \"contracts/ERC721A.sol\":30303:30304  1 */\n      0x01\n        /* \"contracts/ERC721A.sol\":30289:30301  startTokenId */\n      dup4\n        /* \"contracts/ERC721A.sol\":30285:30305  add(startTokenId, 1) */\n      add\n        /* \"contracts/ERC721A.sol\":30243:30589  for {... */\n    tag_508:\n        /* \"contracts/ERC721A.sol\":30344:30347  end */\n      dup2\n        /* \"contracts/ERC721A.sol\":30335:30342  tokenId */\n      dup2\n        /* \"contracts/ERC721A.sol\":30332:30348  eq(tokenId, end) */\n      eq\n        /* \"contracts/ERC721A.sol\":30243:30589  for {... */\n      tag_510\n      jumpi\n        /* \"contracts/ERC721A.sol\":30562:30569  tokenId */\n      dup1\n        /* \"contracts/ERC721A.sol\":30552:30560  toMasked */\n      dup4\n        /* \"contracts/ERC721A.sol\":30549:30550  0 */\n      0x00\n        /* \"contracts/ERC721A.sol\":30522:30547  _TRANSFER_EVENT_SIGNATURE */\n      0xddf252ad1be2c89b69c2b068fc378daa952ba7f163c4a11628f55a4df523b3ef\n        /* \"contracts/ERC721A.sol\":30519:30520  0 */\n      0x00\n        /* \"contracts/ERC721A.sol\":30516:30517  0 */\n      dup1\n        /* \"contracts/ERC721A.sol\":30511:30570  log4(0, 0, _TRANSFER_EVENT_SIGNATURE, 0, toMasked, tokenId) */\n      log4\n        /* \"contracts/ERC721A.sol\":30397:30398  1 */\n      0x01\n        /* \"contracts/ERC721A.sol\":30384:30399  add(tokenId, 1) */\n      add\n        /* \"contracts/ERC721A.sol\":30243:30589  for {... */\n      jump(tag_508)\n    tag_510:\n      pop\n        /* \"contracts/ERC721A.sol\":30622:30635  toMasked == 0 */\n      dup2\n        /* \"contracts/ERC721A.sol\":30618:30663  if (toMasked == 0) revert MintToZeroAddress() */\n      tag_511\n      jumpi\n        /* \"contracts/ERC721A.sol\":30644:30663  MintToZeroAddress() */\n      mload(0x40)\n      shl(0xe8, 0x2e0763)\n      dup2\n      mstore\n      0x04\n      add\n      mload(0x40)\n      dup1\n      swap2\n      sub\n      swap1\n      revert\n        /* \"contracts/ERC721A.sol\":30618:30663  if (toMasked == 0) revert MintToZeroAddress() */\n    tag_511:\n        /* \"contracts/ERC721A.sol\":30680:30693  _currentIndex */\n      0x01\n        /* \"contracts/ERC721A.sol\":30680:30699  _currentIndex = end */\n      sstore\n      pop\n        /* \"contracts/fourtwo.sol\":3287:3382  for (uint256 i = 0; i < addresses.length; i++) {... */\n      pop\n        /* \"contracts/fourtwo.sol\":3197:3387  function removeUsersFromAllowlist(address[] calldata addresses) external onlyOwner {... */\n      pop\n      pop\n      jump\t// out\n    tag_285:\n      dup3\n      dup1\n      sload\n      tag_514\n      swap1\n      tag_212\n      jump\t// in\n    tag_514:\n      swap1\n      0x00\n      mstore\n      keccak256(0x00, 0x20)\n      swap1\n      0x1f\n      add\n      0x20\n      swap1\n      div\n      dup2\n      add\n      swap3\n      dup3\n      tag_516\n      jumpi\n      0x00\n      dup6\n      sstore\n      jump(tag_519)\n    tag_516:\n      dup3\n      0x1f\n      lt\n      tag_517\n      jumpi\n      dup1\n      mload\n      not(0xff)\n      and\n      dup4\n      dup1\n      add\n      or\n      dup6\n      sstore\n      jump(tag_519)\n    tag_517:\n      dup3\n      dup1\n      add\n      0x01\n      add\n      dup6\n      sstore\n      dup3\n      iszero\n      tag_519\n      jumpi\n      swap2\n      dup3\n      add\n    tag_518:\n      dup3\n      dup2\n      gt\n      iszero\n      tag_519\n      jumpi\n      dup3\n      mload\n      dup3\n      sstore\n      swap2\n      0x20\n      add\n      swap2\n      swap1\n      0x01\n      add\n      swap1\n      jump(tag_518)\n    tag_519:\n      pop\n      tag_520\n      swap3\n      swap2\n      pop\n      tag_521\n      jump\t// in\n    tag_520:\n      pop\n      swap1\n      jump\t// out\n    tag_521:\n    tag_522:\n      dup1\n      dup3\n      gt\n      iszero\n      tag_520\n      jumpi\n      0x00\n      dup2\n      sstore\n      0x01\n      add\n      jump(tag_522)\n        /* \"#utility.yul\":14:145   */\n    tag_524:\n      not(sub(shl(0xe0, 0x01), 0x01))\n        /* \"#utility.yul\":88:120   */\n      dup2\n      and\n        /* \"#utility.yul\":78:121   */\n      dup2\n      eq\n        /* \"#utility.yul\":68:139   */\n      tag_278\n      jumpi\n        /* \"#utility.yul\":135:136   */\n      0x00\n        /* \"#utility.yul\":132:133   */\n      dup1\n        /* \"#utility.yul\":125:137   */\n      revert\n        /* \"#utility.yul\":150:395   */\n    tag_47:\n        /* \"#utility.yul\":208:214   */\n      0x00\n        /* \"#utility.yul\":261:263   */\n      0x20\n        /* \"#utility.yul\":249:258   */\n      dup3\n        /* \"#utility.yul\":240:247   */\n      dup5\n        /* \"#utility.yul\":236:259   */\n      sub\n        /* \"#utility.yul\":232:264   */\n      slt\n        /* \"#utility.yul\":229:281   */\n      iszero\n      tag_536\n      jumpi\n        /* \"#utility.yul\":277:278   */\n      0x00\n        /* \"#utility.yul\":274:275   */\n      dup1\n        /* \"#utility.yul\":267:279   */\n      revert\n        /* \"#utility.yul\":229:281   */\n    tag_536:\n        /* \"#utility.yul\":316:325   */\n      dup2\n        /* \"#utility.yul\":303:326   */\n      calldataload\n        /* \"#utility.yul\":335:365   */\n      tag_370\n        /* \"#utility.yul\":359:364   */\n      dup2\n        /* \"#utility.yul\":335:365   */\n      tag_524\n      jump\t// in\n        /* \"#utility.yul\":592:752   */\n    tag_525:\n        /* \"#utility.yul\":657:677   */\n      dup1\n      calldataload\n        /* \"#utility.yul\":713:726   */\n      dup1\n      iszero\n        /* \"#utility.yul\":706:727   */\n      iszero\n        /* \"#utility.yul\":696:728   */\n      dup2\n      eq\n        /* \"#utility.yul\":686:746   */\n      tag_540\n      jumpi\n        /* \"#utility.yul\":742:743   */\n      0x00\n        /* \"#utility.yul\":739:740   */\n      dup1\n        /* \"#utility.yul\":732:744   */\n      revert\n        /* \"#utility.yul\":686:746   */\n    tag_540:\n        /* \"#utility.yul\":592:752   */\n      swap2\n      swap1\n      pop\n      jump\t// out\n        /* \"#utility.yul\":757:937   */\n    tag_54:\n        /* \"#utility.yul\":813:819   */\n      0x00\n        /* \"#utility.yul\":866:868   */\n      0x20\n        /* \"#utility.yul\":854:863   */\n      dup3\n        /* \"#utility.yul\":845:852   */\n      dup5\n        /* \"#utility.yul\":841:864   */\n      sub\n        /* \"#utility.yul\":837:869   */\n      slt\n        /* \"#utility.yul\":834:886   */\n      iszero\n      tag_542\n      jumpi\n        /* \"#utility.yul\":882:883   */\n      0x00\n        /* \"#utility.yul\":879:880   */\n      dup1\n        /* \"#utility.yul\":872:884   */\n      revert\n        /* \"#utility.yul\":834:886   */\n    tag_542:\n        /* \"#utility.yul\":905:931   */\n      tag_370\n        /* \"#utility.yul\":921:930   */\n      dup3\n        /* \"#utility.yul\":905:931   */\n      tag_525\n      jump\t// in\n        /* \"#utility.yul\":942:1115   */\n    tag_526:\n        /* \"#utility.yul\":1010:1030   */\n      dup1\n      calldataload\n      sub(shl(0xa0, 0x01), 0x01)\n        /* \"#utility.yul\":1059:1090   */\n      dup2\n      and\n        /* \"#utility.yul\":1049:1091   */\n      dup2\n      eq\n        /* \"#utility.yul\":1039:1109   */\n      tag_540\n      jumpi\n        /* \"#utility.yul\":1105:1106   */\n      0x00\n        /* \"#utility.yul\":1102:1103   */\n      dup1\n        /* \"#utility.yul\":1095:1107   */\n      revert\n        /* \"#utility.yul\":1120:1306   */\n    tag_59:\n        /* \"#utility.yul\":1179:1185   */\n      0x00\n        /* \"#utility.yul\":1232:1234   */\n      0x20\n        /* \"#utility.yul\":1220:1229   */\n      dup3\n        /* \"#utility.yul\":1211:1218   */\n      dup5\n        /* \"#utility.yul\":1207:1230   */\n      sub\n        /* \"#utility.yul\":1203:1235   */\n      slt\n        /* \"#utility.yul\":1200:1252   */\n      iszero\n      tag_547\n      jumpi\n        /* \"#utility.yul\":1248:1249   */\n      0x00\n        /* \"#utility.yul\":1245:1246   */\n      dup1\n        /* \"#utility.yul\":1238:1250   */\n      revert\n        /* \"#utility.yul\":1200:1252   */\n    tag_547:\n        /* \"#utility.yul\":1271:1300   */\n      tag_370\n        /* \"#utility.yul\":1290:1299   */\n      dup3\n        /* \"#utility.yul\":1271:1300   */\n      tag_526\n      jump\t// in\n        /* \"#utility.yul\":1311:1569   */\n    tag_527:\n        /* \"#utility.yul\":1383:1384   */\n      0x00\n        /* \"#utility.yul\":1393:1506   */\n    tag_550:\n        /* \"#utility.yul\":1407:1413   */\n      dup4\n        /* \"#utility.yul\":1404:1405   */\n      dup2\n        /* \"#utility.yul\":1401:1414   */\n      lt\n        /* \"#utility.yul\":1393:1506   */\n      iszero\n      tag_552\n      jumpi\n        /* \"#utility.yul\":1483:1494   */\n      dup2\n      dup2\n      add\n        /* \"#utility.yul\":1477:1495   */\n      mload\n        /* \"#utility.yul\":1464:1475   */\n      dup4\n      dup3\n      add\n        /* \"#utility.yul\":1457:1496   */\n      mstore\n        /* \"#utility.yul\":1429:1431   */\n      0x20\n        /* \"#utility.yul\":1422:1432   */\n      add\n        /* \"#utility.yul\":1393:1506   */\n      jump(tag_550)\n    tag_552:\n        /* \"#utility.yul\":1524:1530   */\n      dup4\n        /* \"#utility.yul\":1521:1522   */\n      dup2\n        /* \"#utility.yul\":1518:1531   */\n      gt\n        /* \"#utility.yul\":1515:1563   */\n      iszero\n      tag_356\n      jumpi\n      pop\n      pop\n        /* \"#utility.yul\":1559:1560   */\n      0x00\n        /* \"#utility.yul\":1541:1557   */\n      swap2\n      add\n        /* \"#utility.yul\":1534:1561   */\n      mstore\n        /* \"#utility.yul\":1311:1569   */\n      jump\t// out\n        /* \"#utility.yul\":1574:1832   */\n    tag_528:\n        /* \"#utility.yul\":1616:1619   */\n      0x00\n        /* \"#utility.yul\":1654:1659   */\n      dup2\n        /* \"#utility.yul\":1648:1660   */\n      mload\n        /* \"#utility.yul\":1681:1687   */\n      dup1\n        /* \"#utility.yul\":1676:1679   */\n      dup5\n        /* \"#utility.yul\":1669:1688   */\n      mstore\n        /* \"#utility.yul\":1697:1760   */\n      tag_555\n        /* \"#utility.yul\":1753:1759   */\n      dup2\n        /* \"#utility.yul\":1746:1750   */\n      0x20\n        /* \"#utility.yul\":1741:1744   */\n      dup7\n        /* \"#utility.yul\":1737:1751   */\n      add\n        /* \"#utility.yul\":1730:1734   */\n      0x20\n        /* \"#utility.yul\":1723:1728   */\n      dup7\n        /* \"#utility.yul\":1719:1735   */\n      add\n        /* \"#utility.yul\":1697:1760   */\n      tag_527\n      jump\t// in\n    tag_555:\n        /* \"#utility.yul\":1814:1816   */\n      0x1f\n        /* \"#utility.yul\":1793:1808   */\n      add\n      not(0x1f)\n        /* \"#utility.yul\":1789:1818   */\n      and\n        /* \"#utility.yul\":1780:1819   */\n      swap3\n      swap1\n      swap3\n      add\n        /* \"#utility.yul\":1821:1825   */\n      0x20\n        /* \"#utility.yul\":1776:1826   */\n      add\n      swap3\n        /* \"#utility.yul\":1574:1832   */\n      swap2\n      pop\n      pop\n      jump\t// out\n        /* \"#utility.yul\":1837:2057   */\n    tag_66:\n        /* \"#utility.yul\":1986:1988   */\n      0x20\n        /* \"#utility.yul\":1975:1984   */\n      dup2\n        /* \"#utility.yul\":1968:1989   */\n      mstore\n        /* \"#utility.yul\":1949:1953   */\n      0x00\n        /* \"#utility.yul\":2006:2051   */\n      tag_370\n        /* \"#utility.yul\":2047:2049   */\n      0x20\n        /* \"#utility.yul\":2036:2045   */\n      dup4\n        /* \"#utility.yul\":2032:2050   */\n      add\n        /* \"#utility.yul\":2024:2030   */\n      dup5\n        /* \"#utility.yul\":2006:2051   */\n      tag_528\n      jump\t// in\n        /* \"#utility.yul\":2062:2242   */\n    tag_70:\n        /* \"#utility.yul\":2121:2127   */\n      0x00\n        /* \"#utility.yul\":2174:2176   */\n      0x20\n        /* \"#utility.yul\":2162:2171   */\n      dup3\n        /* \"#utility.yul\":2153:2160   */\n      dup5\n        /* \"#utility.yul\":2149:2172   */\n      sub\n        /* \"#utility.yul\":2145:2177   */\n      slt\n        /* \"#utility.yul\":2142:2194   */\n      iszero\n      tag_559\n      jumpi\n        /* \"#utility.yul\":2190:2191   */\n      0x00\n        /* \"#utility.yul\":2187:2188   */\n      dup1\n        /* \"#utility.yul\":2180:2192   */\n      revert\n        /* \"#utility.yul\":2142:2194   */\n    tag_559:\n      pop\n        /* \"#utility.yul\":2213:2236   */\n      calldataload\n      swap2\n        /* \"#utility.yul\":2062:2242   */\n      swap1\n      pop\n      jump\t// out\n        /* \"#utility.yul\":2455:2709   */\n    tag_76:\n        /* \"#utility.yul\":2523:2529   */\n      0x00\n        /* \"#utility.yul\":2531:2537   */\n      dup1\n        /* \"#utility.yul\":2584:2586   */\n      0x40\n        /* \"#utility.yul\":2572:2581   */\n      dup4\n        /* \"#utility.yul\":2563:2570   */\n      dup6\n        /* \"#utility.yul\":2559:2582   */\n      sub\n        /* \"#utility.yul\":2555:2587   */\n      slt\n        /* \"#utility.yul\":2552:2604   */\n      iszero\n      tag_562\n      jumpi\n        /* \"#utility.yul\":2600:2601   */\n      0x00\n        /* \"#utility.yul\":2597:2598   */\n      dup1\n        /* \"#utility.yul\":2590:2602   */\n      revert\n        /* \"#utility.yul\":2552:2604   */\n    tag_562:\n        /* \"#utility.yul\":2623:2652   */\n      tag_563\n        /* \"#utility.yul\":2642:2651   */\n      dup4\n        /* \"#utility.yul\":2623:2652   */\n      tag_526\n      jump\t// in\n    tag_563:\n        /* \"#utility.yul\":2613:2652   */\n      swap5\n        /* \"#utility.yul\":2699:2701   */\n      0x20\n        /* \"#utility.yul\":2684:2702   */\n      swap4\n      swap1\n      swap4\n      add\n        /* \"#utility.yul\":2671:2703   */\n      calldataload\n      swap4\n      pop\n      pop\n      pop\n        /* \"#utility.yul\":2455:2709   */\n      jump\t// out\n        /* \"#utility.yul\":2896:3511   */\n    tag_86:\n        /* \"#utility.yul\":2982:2988   */\n      0x00\n        /* \"#utility.yul\":2990:2996   */\n      dup1\n        /* \"#utility.yul\":3043:3045   */\n      0x20\n        /* \"#utility.yul\":3031:3040   */\n      dup4\n        /* \"#utility.yul\":3022:3029   */\n      dup6\n        /* \"#utility.yul\":3018:3041   */\n      sub\n        /* \"#utility.yul\":3014:3046   */\n      slt\n        /* \"#utility.yul\":3011:3063   */\n      iszero\n      tag_566\n      jumpi\n        /* \"#utility.yul\":3059:3060   */\n      0x00\n        /* \"#utility.yul\":3056:3057   */\n      dup1\n        /* \"#utility.yul\":3049:3061   */\n      revert\n        /* \"#utility.yul\":3011:3063   */\n    tag_566:\n        /* \"#utility.yul\":3099:3108   */\n      dup3\n        /* \"#utility.yul\":3086:3109   */\n      calldataload\n        /* \"#utility.yul\":3128:3146   */\n      0xffffffffffffffff\n        /* \"#utility.yul\":3169:3171   */\n      dup1\n        /* \"#utility.yul\":3161:3167   */\n      dup3\n        /* \"#utility.yul\":3158:3172   */\n      gt\n        /* \"#utility.yul\":3155:3189   */\n      iszero\n      tag_567\n      jumpi\n        /* \"#utility.yul\":3185:3186   */\n      0x00\n        /* \"#utility.yul\":3182:3183   */\n      dup1\n        /* \"#utility.yul\":3175:3187   */\n      revert\n        /* \"#utility.yul\":3155:3189   */\n    tag_567:\n        /* \"#utility.yul\":3223:3229   */\n      dup2\n        /* \"#utility.yul\":3212:3221   */\n      dup6\n        /* \"#utility.yul\":3208:3230   */\n      add\n        /* \"#utility.yul\":3198:3230   */\n      swap2\n      pop\n        /* \"#utility.yul\":3268:3275   */\n      dup6\n        /* \"#utility.yul\":3261:3265   */\n      0x1f\n        /* \"#utility.yul\":3257:3259   */\n      dup4\n        /* \"#utility.yul\":3253:3266   */\n      add\n        /* \"#utility.yul\":3249:3276   */\n      slt\n        /* \"#utility.yul\":3239:3294   */\n      tag_568\n      jumpi\n        /* \"#utility.yul\":3290:3291   */\n      0x00\n        /* \"#utility.yul\":3287:3288   */\n      dup1\n        /* \"#utility.yul\":3280:3292   */\n      revert\n        /* \"#utility.yul\":3239:3294   */\n    tag_568:\n        /* \"#utility.yul\":3330:3332   */\n      dup2\n        /* \"#utility.yul\":3317:3333   */\n      calldataload\n        /* \"#utility.yul\":3356:3358   */\n      dup2\n        /* \"#utility.yul\":3348:3354   */\n      dup2\n        /* \"#utility.yul\":3345:3359   */\n      gt\n        /* \"#utility.yul\":3342:3376   */\n      iszero\n      tag_569\n      jumpi\n        /* \"#utility.yul\":3372:3373   */\n      0x00\n        /* \"#utility.yul\":3369:3370   */\n      dup1\n        /* \"#utility.yul\":3362:3374   */\n      revert\n        /* \"#utility.yul\":3342:3376   */\n    tag_569:\n        /* \"#utility.yul\":3425:3432   */\n      dup7\n        /* \"#utility.yul\":3420:3422   */\n      0x20\n        /* \"#utility.yul\":3410:3416   */\n      dup3\n        /* \"#utility.yul\":3407:3408   */\n      0x05\n        /* \"#utility.yul\":3403:3417   */\n      shl\n        /* \"#utility.yul\":3399:3401   */\n      dup6\n        /* \"#utility.yul\":3395:3418   */\n      add\n        /* \"#utility.yul\":3391:3423   */\n      add\n        /* \"#utility.yul\":3388:3433   */\n      gt\n        /* \"#utility.yul\":3385:3450   */\n      iszero\n      tag_570\n      jumpi\n        /* \"#utility.yul\":3446:3447   */\n      0x00\n        /* \"#utility.yul\":3443:3444   */\n      dup1\n        /* \"#utility.yul\":3436:3448   */\n      revert\n        /* \"#utility.yul\":3385:3450   */\n    tag_570:\n        /* \"#utility.yul\":3477:3479   */\n      0x20\n        /* \"#utility.yul\":3469:3480   */\n      swap3\n      swap1\n      swap3\n      add\n      swap7\n        /* \"#utility.yul\":3499:3505   */\n      swap2\n      swap6\n      pop\n        /* \"#utility.yul\":2896:3511   */\n      swap1\n      swap4\n      pop\n      pop\n      pop\n      pop\n      jump\t// out\n        /* \"#utility.yul\":3516:3844   */\n    tag_103:\n        /* \"#utility.yul\":3593:3599   */\n      0x00\n        /* \"#utility.yul\":3601:3607   */\n      dup1\n        /* \"#utility.yul\":3609:3615   */\n      0x00\n        /* \"#utility.yul\":3662:3664   */\n      0x60\n        /* \"#utility.yul\":3650:3659   */\n      dup5\n        /* \"#utility.yul\":3641:3648   */\n      dup7\n        /* \"#utility.yul\":3637:3660   */\n      sub\n        /* \"#utility.yul\":3633:3665   */\n      slt\n        /* \"#utility.yul\":3630:3682   */\n      iszero\n      tag_572\n      jumpi\n        /* \"#utility.yul\":3678:3679   */\n      0x00\n        /* \"#utility.yul\":3675:3676   */\n      dup1\n        /* \"#utility.yul\":3668:3680   */\n      revert\n        /* \"#utility.yul\":3630:3682   */\n    tag_572:\n        /* \"#utility.yul\":3701:3730   */\n      tag_573\n        /* \"#utility.yul\":3720:3729   */\n      dup5\n        /* \"#utility.yul\":3701:3730   */\n      tag_526\n      jump\t// in\n    tag_573:\n        /* \"#utility.yul\":3691:3730   */\n      swap3\n      pop\n        /* \"#utility.yul\":3749:3787   */\n      tag_574\n        /* \"#utility.yul\":3783:3785   */\n      0x20\n        /* \"#utility.yul\":3772:3781   */\n      dup6\n        /* \"#utility.yul\":3768:3786   */\n      add\n        /* \"#utility.yul\":3749:3787   */\n      tag_526\n      jump\t// in\n    tag_574:\n        /* \"#utility.yul\":3739:3787   */\n      swap2\n      pop\n        /* \"#utility.yul\":3834:3836   */\n      0x40\n        /* \"#utility.yul\":3823:3832   */\n      dup5\n        /* \"#utility.yul\":3819:3837   */\n      add\n        /* \"#utility.yul\":3806:3838   */\n      calldataload\n        /* \"#utility.yul\":3796:3838   */\n      swap1\n      pop\n        /* \"#utility.yul\":3516:3844   */\n      swap3\n      pop\n      swap3\n      pop\n      swap3\n      jump\t// out\n        /* \"#utility.yul\":3849:3976   */\n    tag_380:\n        /* \"#utility.yul\":3910:3920   */\n      0x4e487b71\n        /* \"#utility.yul\":3905:3908   */\n      0xe0\n        /* \"#utility.yul\":3901:3921   */\n      shl\n        /* \"#utility.yul\":3898:3899   */\n      0x00\n        /* \"#utility.yul\":3891:3922   */\n      mstore\n        /* \"#utility.yul\":3941:3945   */\n      0x41\n        /* \"#utility.yul\":3938:3939   */\n      0x04\n        /* \"#utility.yul\":3931:3946   */\n      mstore\n        /* \"#utility.yul\":3965:3969   */\n      0x24\n        /* \"#utility.yul\":3962:3963   */\n      0x00\n        /* \"#utility.yul\":3955:3970   */\n      revert\n        /* \"#utility.yul\":3981:4613   */\n    tag_529:\n        /* \"#utility.yul\":4046:4051   */\n      0x00\n        /* \"#utility.yul\":4076:4094   */\n      0xffffffffffffffff\n        /* \"#utility.yul\":4117:4119   */\n      dup1\n        /* \"#utility.yul\":4109:4115   */\n      dup5\n        /* \"#utility.yul\":4106:4120   */\n      gt\n        /* \"#utility.yul\":4103:4143   */\n      iszero\n      tag_578\n      jumpi\n        /* \"#utility.yul\":4123:4141   */\n      tag_578\n      tag_380\n      jump\t// in\n    tag_578:\n        /* \"#utility.yul\":4198:4200   */\n      0x40\n        /* \"#utility.yul\":4192:4201   */\n      mload\n        /* \"#utility.yul\":4166:4168   */\n      0x1f\n        /* \"#utility.yul\":4252:4267   */\n      dup6\n      add\n      not(0x1f)\n        /* \"#utility.yul\":4248:4272   */\n      swap1\n      dup2\n      and\n        /* \"#utility.yul\":4274:4276   */\n      0x3f\n        /* \"#utility.yul\":4244:4277   */\n      add\n        /* \"#utility.yul\":4240:4282   */\n      and\n        /* \"#utility.yul\":4228:4283   */\n      dup2\n      add\n      swap1\n        /* \"#utility.yul\":4298:4316   */\n      dup3\n      dup3\n      gt\n        /* \"#utility.yul\":4318:4340   */\n      dup2\n      dup4\n      lt\n        /* \"#utility.yul\":4295:4341   */\n      or\n        /* \"#utility.yul\":4292:4364   */\n      iszero\n      tag_580\n      jumpi\n        /* \"#utility.yul\":4344:4362   */\n      tag_580\n      tag_380\n      jump\t// in\n    tag_580:\n        /* \"#utility.yul\":4384:4394   */\n      dup2\n        /* \"#utility.yul\":4380:4382   */\n      0x40\n        /* \"#utility.yul\":4373:4395   */\n      mstore\n        /* \"#utility.yul\":4413:4419   */\n      dup1\n        /* \"#utility.yul\":4404:4419   */\n      swap4\n      pop\n        /* \"#utility.yul\":4443:4449   */\n      dup6\n        /* \"#utility.yul\":4435:4441   */\n      dup2\n        /* \"#utility.yul\":4428:4450   */\n      mstore\n        /* \"#utility.yul\":4483:4486   */\n      dup7\n        /* \"#utility.yul\":4474:4480   */\n      dup7\n        /* \"#utility.yul\":4469:4472   */\n      dup7\n        /* \"#utility.yul\":4465:4481   */\n      add\n        /* \"#utility.yul\":4462:4487   */\n      gt\n        /* \"#utility.yul\":4459:4504   */\n      iszero\n      tag_581\n      jumpi\n        /* \"#utility.yul\":4500:4501   */\n      0x00\n        /* \"#utility.yul\":4497:4498   */\n      dup1\n        /* \"#utility.yul\":4490:4502   */\n      revert\n        /* \"#utility.yul\":4459:4504   */\n    tag_581:\n        /* \"#utility.yul\":4550:4556   */\n      dup6\n        /* \"#utility.yul\":4545:4548   */\n      dup6\n        /* \"#utility.yul\":4538:4542   */\n      0x20\n        /* \"#utility.yul\":4530:4536   */\n      dup4\n        /* \"#utility.yul\":4526:4543   */\n      add\n        /* \"#utility.yul\":4513:4557   */\n      calldatacopy\n        /* \"#utility.yul\":4605:4606   */\n      0x00\n        /* \"#utility.yul\":4598:4602   */\n      0x20\n        /* \"#utility.yul\":4589:4595   */\n      dup8\n        /* \"#utility.yul\":4581:4587   */\n      dup4\n        /* \"#utility.yul\":4577:4596   */\n      add\n        /* \"#utility.yul\":4573:4603   */\n      add\n        /* \"#utility.yul\":4566:4607   */\n      mstore\n      pop\n      pop\n      pop\n        /* \"#utility.yul\":3981:4613   */\n      swap4\n      swap3\n      pop\n      pop\n      pop\n      jump\t// out\n        /* \"#utility.yul\":4618:5069   */\n    tag_113:\n        /* \"#utility.yul\":4687:4693   */\n      0x00\n        /* \"#utility.yul\":4740:4742   */\n      0x20\n        /* \"#utility.yul\":4728:4737   */\n      dup3\n        /* \"#utility.yul\":4719:4726   */\n      dup5\n        /* \"#utility.yul\":4715:4738   */\n      sub\n        /* \"#utility.yul\":4711:4743   */\n      slt\n        /* \"#utility.yul\":4708:4760   */\n      iszero\n      tag_583\n      jumpi\n        /* \"#utility.yul\":4756:4757   */\n      0x00\n        /* \"#utility.yul\":4753:4754   */\n      dup1\n        /* \"#utility.yul\":4746:4758   */\n      revert\n        /* \"#utility.yul\":4708:4760   */\n    tag_583:\n        /* \"#utility.yul\":4796:4805   */\n      dup2\n        /* \"#utility.yul\":4783:4806   */\n      calldataload\n        /* \"#utility.yul\":4829:4847   */\n      0xffffffffffffffff\n        /* \"#utility.yul\":4821:4827   */\n      dup2\n        /* \"#utility.yul\":4818:4848   */\n      gt\n        /* \"#utility.yul\":4815:4865   */\n      iszero\n      tag_584\n      jumpi\n        /* \"#utility.yul\":4861:4862   */\n      0x00\n        /* \"#utility.yul\":4858:4859   */\n      dup1\n        /* \"#utility.yul\":4851:4863   */\n      revert\n        /* \"#utility.yul\":4815:4865   */\n    tag_584:\n        /* \"#utility.yul\":4884:4906   */\n      dup3\n      add\n        /* \"#utility.yul\":4937:4941   */\n      0x1f\n        /* \"#utility.yul\":4929:4942   */\n      dup2\n      add\n        /* \"#utility.yul\":4925:4952   */\n      dup5\n      sgt\n        /* \"#utility.yul\":4915:4970   */\n      tag_585\n      jumpi\n        /* \"#utility.yul\":4966:4967   */\n      0x00\n        /* \"#utility.yul\":4963:4964   */\n      dup1\n        /* \"#utility.yul\":4956:4968   */\n      revert\n        /* \"#utility.yul\":4915:4970   */\n    tag_585:\n        /* \"#utility.yul\":4989:5063   */\n      tag_450\n        /* \"#utility.yul\":5055:5062   */\n      dup5\n        /* \"#utility.yul\":5050:5052   */\n      dup3\n        /* \"#utility.yul\":5037:5053   */\n      calldataload\n        /* \"#utility.yul\":5032:5034   */\n      0x20\n        /* \"#utility.yul\":5028:5030   */\n      dup5\n        /* \"#utility.yul\":5024:5035   */\n      add\n        /* \"#utility.yul\":4989:5063   */\n      tag_529\n      jump\t// in\n        /* \"#utility.yul\":5074:5328   */\n    tag_154:\n        /* \"#utility.yul\":5139:5145   */\n      0x00\n        /* \"#utility.yul\":5147:5153   */\n      dup1\n        /* \"#utility.yul\":5200:5202   */\n      0x40\n        /* \"#utility.yul\":5188:5197   */\n      dup4\n        /* \"#utility.yul\":5179:5186   */\n      dup6\n        /* \"#utility.yul\":5175:5198   */\n      sub\n        /* \"#utility.yul\":5171:5203   */\n      slt\n        /* \"#utility.yul\":5168:5220   */\n      iszero\n      tag_588\n      jumpi\n        /* \"#utility.yul\":5216:5217   */\n      0x00\n        /* \"#utility.yul\":5213:5214   */\n      dup1\n        /* \"#utility.yul\":5206:5218   */\n      revert\n        /* \"#utility.yul\":5168:5220   */\n    tag_588:\n        /* \"#utility.yul\":5239:5268   */\n      tag_589\n        /* \"#utility.yul\":5258:5267   */\n      dup4\n        /* \"#utility.yul\":5239:5268   */\n      tag_526\n      jump\t// in\n    tag_589:\n        /* \"#utility.yul\":5229:5268   */\n      swap2\n      pop\n        /* \"#utility.yul\":5287:5322   */\n      tag_590\n        /* \"#utility.yul\":5318:5320   */\n      0x20\n        /* \"#utility.yul\":5307:5316   */\n      dup5\n        /* \"#utility.yul\":5303:5321   */\n      add\n        /* \"#utility.yul\":5287:5322   */\n      tag_525\n      jump\t// in\n    tag_590:\n        /* \"#utility.yul\":5277:5322   */\n      swap1\n      pop\n        /* \"#utility.yul\":5074:5328   */\n      swap3\n      pop\n      swap3\n      swap1\n      pop\n      jump\t// out\n        /* \"#utility.yul\":5333:6000   */\n    tag_167:\n        /* \"#utility.yul\":5428:5434   */\n      0x00\n        /* \"#utility.yul\":5436:5442   */\n      dup1\n        /* \"#utility.yul\":5444:5450   */\n      0x00\n        /* \"#utility.yul\":5452:5458   */\n      dup1\n        /* \"#utility.yul\":5505:5508   */\n      0x80\n        /* \"#utility.yul\":5493:5502   */\n      dup6\n        /* \"#utility.yul\":5484:5491   */\n      dup8\n        /* \"#utility.yul\":5480:5503   */\n      sub\n        /* \"#utility.yul\":5476:5509   */\n      slt\n        /* \"#utility.yul\":5473:5526   */\n      iszero\n      tag_592\n      jumpi\n        /* \"#utility.yul\":5522:5523   */\n      0x00\n        /* \"#utility.yul\":5519:5520   */\n      dup1\n        /* \"#utility.yul\":5512:5524   */\n      revert\n        /* \"#utility.yul\":5473:5526   */\n    tag_592:\n        /* \"#utility.yul\":5545:5574   */\n      tag_593\n        /* \"#utility.yul\":5564:5573   */\n      dup6\n        /* \"#utility.yul\":5545:5574   */\n      tag_526\n      jump\t// in\n    tag_593:\n        /* \"#utility.yul\":5535:5574   */\n      swap4\n      pop\n        /* \"#utility.yul\":5593:5631   */\n      tag_594\n        /* \"#utility.yul\":5627:5629   */\n      0x20\n        /* \"#utility.yul\":5616:5625   */\n      dup7\n        /* \"#utility.yul\":5612:5630   */\n      add\n        /* \"#utility.yul\":5593:5631   */\n      tag_526\n      jump\t// in\n    tag_594:\n        /* \"#utility.yul\":5583:5631   */\n      swap3\n      pop\n        /* \"#utility.yul\":5678:5680   */\n      0x40\n        /* \"#utility.yul\":5667:5676   */\n      dup6\n        /* \"#utility.yul\":5663:5681   */\n      add\n        /* \"#utility.yul\":5650:5682   */\n      calldataload\n        /* \"#utility.yul\":5640:5682   */\n      swap2\n      pop\n        /* \"#utility.yul\":5733:5735   */\n      0x60\n        /* \"#utility.yul\":5722:5731   */\n      dup6\n        /* \"#utility.yul\":5718:5736   */\n      add\n        /* \"#utility.yul\":5705:5737   */\n      calldataload\n        /* \"#utility.yul\":5760:5778   */\n      0xffffffffffffffff\n        /* \"#utility.yul\":5752:5758   */\n      dup2\n        /* \"#utility.yul\":5749:5779   */\n      gt\n        /* \"#utility.yul\":5746:5796   */\n      iszero\n      tag_595\n      jumpi\n        /* \"#utility.yul\":5792:5793   */\n      0x00\n        /* \"#utility.yul\":5789:5790   */\n      dup1\n        /* \"#utility.yul\":5782:5794   */\n      revert\n        /* \"#utility.yul\":5746:5796   */\n    tag_595:\n        /* \"#utility.yul\":5815:5837   */\n      dup6\n      add\n        /* \"#utility.yul\":5868:5872   */\n      0x1f\n        /* \"#utility.yul\":5860:5873   */\n      dup2\n      add\n        /* \"#utility.yul\":5856:5883   */\n      dup8\n      sgt\n        /* \"#utility.yul\":5846:5901   */\n      tag_596\n      jumpi\n        /* \"#utility.yul\":5897:5898   */\n      0x00\n        /* \"#utility.yul\":5894:5895   */\n      dup1\n        /* \"#utility.yul\":5887:5899   */\n      revert\n        /* \"#utility.yul\":5846:5901   */\n    tag_596:\n        /* \"#utility.yul\":5920:5994   */\n      tag_597\n        /* \"#utility.yul\":5986:5993   */\n      dup8\n        /* \"#utility.yul\":5981:5983   */\n      dup3\n        /* \"#utility.yul\":5968:5984   */\n      calldataload\n        /* \"#utility.yul\":5963:5965   */\n      0x20\n        /* \"#utility.yul\":5959:5961   */\n      dup5\n        /* \"#utility.yul\":5955:5966   */\n      add\n        /* \"#utility.yul\":5920:5994   */\n      tag_529\n      jump\t// in\n    tag_597:\n        /* \"#utility.yul\":5910:5994   */\n      swap2\n      pop\n      pop\n        /* \"#utility.yul\":5333:6000   */\n      swap3\n      swap6\n      swap2\n      swap5\n      pop\n      swap3\n      pop\n      jump\t// out\n        /* \"#utility.yul\":6005:6637   */\n    tag_183:\n        /* \"#utility.yul\":6176:6178   */\n      0x20\n        /* \"#utility.yul\":6228:6249   */\n      dup1\n      dup3\n      mstore\n        /* \"#utility.yul\":6298:6311   */\n      dup3\n      mload\n        /* \"#utility.yul\":6201:6219   */\n      dup3\n      dup3\n      add\n        /* \"#utility.yul\":6320:6342   */\n      dup2\n      swap1\n      mstore\n        /* \"#utility.yul\":6147:6151   */\n      0x00\n      swap2\n        /* \"#utility.yul\":6176:6178   */\n      swap1\n        /* \"#utility.yul\":6399:6414   */\n      dup5\n      dup3\n      add\n      swap1\n        /* \"#utility.yul\":6373:6375   */\n      0x40\n        /* \"#utility.yul\":6358:6376   */\n      dup6\n      add\n      swap1\n        /* \"#utility.yul\":6147:6151   */\n      dup5\n        /* \"#utility.yul\":6442:6611   */\n    tag_599:\n        /* \"#utility.yul\":6456:6462   */\n      dup2\n        /* \"#utility.yul\":6453:6454   */\n      dup2\n        /* \"#utility.yul\":6450:6463   */\n      lt\n        /* \"#utility.yul\":6442:6611   */\n      iszero\n      tag_601\n      jumpi\n        /* \"#utility.yul\":6517:6530   */\n      dup4\n      mload\n        /* \"#utility.yul\":6505:6531   */\n      dup4\n      mstore\n        /* \"#utility.yul\":6586:6601   */\n      swap3\n      dup5\n      add\n      swap3\n        /* \"#utility.yul\":6551:6563   */\n      swap2\n      dup5\n      add\n      swap2\n        /* \"#utility.yul\":6478:6479   */\n      0x01\n        /* \"#utility.yul\":6471:6480   */\n      add\n        /* \"#utility.yul\":6442:6611   */\n      jump(tag_599)\n    tag_601:\n      pop\n        /* \"#utility.yul\":6628:6631   */\n      swap1\n      swap7\n        /* \"#utility.yul\":6005:6637   */\n      swap6\n      pop\n      pop\n      pop\n      pop\n      pop\n      pop\n      jump\t// out\n        /* \"#utility.yul\":6642:6902   */\n    tag_195:\n        /* \"#utility.yul\":6710:6716   */\n      0x00\n        /* \"#utility.yul\":6718:6724   */\n      dup1\n        /* \"#utility.yul\":6771:6773   */\n      0x40\n        /* \"#utility.yul\":6759:6768   */\n      dup4\n        /* \"#utility.yul\":6750:6757   */\n      dup6\n        /* \"#utility.yul\":6746:6769   */\n      sub\n        /* \"#utility.yul\":6742:6774   */\n      slt\n        /* \"#utility.yul\":6739:6791   */\n      iszero\n      tag_603\n      jumpi\n        /* \"#utility.yul\":6787:6788   */\n      0x00\n        /* \"#utility.yul\":6784:6785   */\n      dup1\n        /* \"#utility.yul\":6777:6789   */\n      revert\n        /* \"#utility.yul\":6739:6791   */\n    tag_603:\n        /* \"#utility.yul\":6810:6839   */\n      tag_604\n        /* \"#utility.yul\":6829:6838   */\n      dup4\n        /* \"#utility.yul\":6810:6839   */\n      tag_526\n      jump\t// in\n    tag_604:\n        /* \"#utility.yul\":6800:6839   */\n      swap2\n      pop\n        /* \"#utility.yul\":6858:6896   */\n      tag_590\n        /* \"#utility.yul\":6892:6894   */\n      0x20\n        /* \"#utility.yul\":6881:6890   */\n      dup5\n        /* \"#utility.yul\":6877:6895   */\n      add\n        /* \"#utility.yul\":6858:6896   */\n      tag_526\n      jump\t// in\n        /* \"#utility.yul\":6907:7287   */\n    tag_212:\n        /* \"#utility.yul\":6986:6987   */\n      0x01\n        /* \"#utility.yul\":6982:6994   */\n      dup2\n      dup2\n      shr\n      swap1\n        /* \"#utility.yul\":7029:7041   */\n      dup3\n      and\n      dup1\n        /* \"#utility.yul\":7050:7111   */\n      tag_607\n      jumpi\n        /* \"#utility.yul\":7104:7108   */\n      0x7f\n        /* \"#utility.yul\":7096:7102   */\n      dup3\n        /* \"#utility.yul\":7092:7109   */\n      and\n        /* \"#utility.yul\":7082:7109   */\n      swap2\n      pop\n        /* \"#utility.yul\":7050:7111   */\n    tag_607:\n        /* \"#utility.yul\":7157:7159   */\n      0x20\n        /* \"#utility.yul\":7149:7155   */\n      dup3\n        /* \"#utility.yul\":7146:7160   */\n      lt\n        /* \"#utility.yul\":7126:7144   */\n      dup2\n        /* \"#utility.yul\":7123:7161   */\n      eq\n        /* \"#utility.yul\":7120:7281   */\n      iszero\n      tag_608\n      jumpi\n        /* \"#utility.yul\":7203:7213   */\n      0x4e487b71\n        /* \"#utility.yul\":7198:7201   */\n      0xe0\n        /* \"#utility.yul\":7194:7214   */\n      shl\n        /* \"#utility.yul\":7191:7192   */\n      0x00\n        /* \"#utility.yul\":7184:7215   */\n      mstore\n        /* \"#utility.yul\":7238:7242   */\n      0x22\n        /* \"#utility.yul\":7235:7236   */\n      0x04\n        /* \"#utility.yul\":7228:7243   */\n      mstore\n        /* \"#utility.yul\":7266:7270   */\n      0x24\n        /* \"#utility.yul\":7263:7264   */\n      0x00\n        /* \"#utility.yul\":7256:7271   */\n      revert\n        /* \"#utility.yul\":7120:7281   */\n    tag_608:\n      pop\n        /* \"#utility.yul\":6907:7287   */\n      swap2\n      swap1\n      pop\n      jump\t// out\n        /* \"#utility.yul\":7292:7419   */\n    tag_237:\n        /* \"#utility.yul\":7353:7363   */\n      0x4e487b71\n        /* \"#utility.yul\":7348:7351   */\n      0xe0\n        /* \"#utility.yul\":7344:7364   */\n      shl\n        /* \"#utility.yul\":7341:7342   */\n      0x00\n        /* \"#utility.yul\":7334:7365   */\n      mstore\n        /* \"#utility.yul\":7384:7388   */\n      0x32\n        /* \"#utility.yul\":7381:7382   */\n      0x04\n        /* \"#utility.yul\":7374:7389   */\n      mstore\n        /* \"#utility.yul\":7408:7412   */\n      0x24\n        /* \"#utility.yul\":7405:7406   */\n      0x00\n        /* \"#utility.yul\":7398:7413   */\n      revert\n        /* \"#utility.yul\":7424:7551   */\n    tag_530:\n        /* \"#utility.yul\":7485:7495   */\n      0x4e487b71\n        /* \"#utility.yul\":7480:7483   */\n      0xe0\n        /* \"#utility.yul\":7476:7496   */\n      shl\n        /* \"#utility.yul\":7473:7474   */\n      0x00\n        /* \"#utility.yul\":7466:7497   */\n      mstore\n        /* \"#utility.yul\":7516:7520   */\n      0x11\n        /* \"#utility.yul\":7513:7514   */\n      0x04\n        /* \"#utility.yul\":7506:7521   */\n      mstore\n        /* \"#utility.yul\":7540:7544   */\n      0x24\n        /* \"#utility.yul\":7537:7538   */\n      0x00\n        /* \"#utility.yul\":7530:7545   */\n      revert\n        /* \"#utility.yul\":7556:7691   */\n    tag_240:\n        /* \"#utility.yul\":7595:7598   */\n      0x00\n      not(0x00)\n        /* \"#utility.yul\":7616:7633   */\n      dup3\n      eq\n        /* \"#utility.yul\":7613:7656   */\n      iszero\n      tag_613\n      jumpi\n        /* \"#utility.yul\":7636:7654   */\n      tag_613\n      tag_530\n      jump\t// in\n    tag_613:\n      pop\n        /* \"#utility.yul\":7683:7684   */\n      0x01\n        /* \"#utility.yul\":7672:7685   */\n      add\n      swap1\n        /* \"#utility.yul\":7556:7691   */\n      jump\t// out\n        /* \"#utility.yul\":8632:8760   */\n    tag_321:\n        /* \"#utility.yul\":8672:8675   */\n      0x00\n        /* \"#utility.yul\":8703:8704   */\n      dup3\n        /* \"#utility.yul\":8699:8705   */\n      not\n        /* \"#utility.yul\":8696:8697   */\n      dup3\n        /* \"#utility.yul\":8693:8706   */\n      gt\n        /* \"#utility.yul\":8690:8729   */\n      iszero\n      tag_618\n      jumpi\n        /* \"#utility.yul\":8709:8727   */\n      tag_618\n      tag_530\n      jump\t// in\n    tag_618:\n      pop\n        /* \"#utility.yul\":8745:8754   */\n      add\n      swap1\n        /* \"#utility.yul\":8632:8760   */\n      jump\t// out\n        /* \"#utility.yul\":10223:10391   */\n    tag_340:\n        /* \"#utility.yul\":10263:10270   */\n      0x00\n        /* \"#utility.yul\":10329:10330   */\n      dup2\n        /* \"#utility.yul\":10325:10326   */\n      0x00\n        /* \"#utility.yul\":10321:10327   */\n      not\n        /* \"#utility.yul\":10317:10331   */\n      div\n        /* \"#utility.yul\":10314:10315   */\n      dup4\n        /* \"#utility.yul\":10311:10332   */\n      gt\n        /* \"#utility.yul\":10306:10307   */\n      dup3\n        /* \"#utility.yul\":10299:10308   */\n      iszero\n        /* \"#utility.yul\":10292:10309   */\n      iszero\n        /* \"#utility.yul\":10288:10333   */\n      and\n        /* \"#utility.yul\":10285:10356   */\n      iszero\n      tag_625\n      jumpi\n        /* \"#utility.yul\":10336:10354   */\n      tag_625\n      tag_530\n      jump\t// in\n    tag_625:\n      pop\n        /* \"#utility.yul\":10376:10385   */\n      mul\n      swap1\n        /* \"#utility.yul\":10223:10391   */\n      jump\t// out\n        /* \"#utility.yul\":11285:12812   */\n    tag_374:\n        /* \"#utility.yul\":11509:11512   */\n      0x00\n        /* \"#utility.yul\":11547:11553   */\n      dup5\n        /* \"#utility.yul\":11541:11554   */\n      mload\n        /* \"#utility.yul\":11573:11577   */\n      0x20\n        /* \"#utility.yul\":11586:11637   */\n      tag_630\n        /* \"#utility.yul\":11630:11636   */\n      dup3\n        /* \"#utility.yul\":11625:11628   */\n      dup6\n        /* \"#utility.yul\":11620:11622   */\n      dup4\n        /* \"#utility.yul\":11612:11618   */\n      dup11\n        /* \"#utility.yul\":11608:11623   */\n      add\n        /* \"#utility.yul\":11586:11637   */\n      tag_527\n      jump\t// in\n    tag_630:\n        /* \"#utility.yul\":11700:11713   */\n      dup6\n      mload\n        /* \"#utility.yul\":11659:11675   */\n      swap2\n      dup5\n      add\n      swap2\n        /* \"#utility.yul\":11722:11777   */\n      tag_631\n        /* \"#utility.yul\":11700:11713   */\n      dup2\n        /* \"#utility.yul\":11659:11675   */\n      dup5\n        /* \"#utility.yul\":11744:11759   */\n      dup5\n      dup11\n      add\n        /* \"#utility.yul\":11722:11777   */\n      tag_527\n      jump\t// in\n    tag_631:\n        /* \"#utility.yul\":11866:11879   */\n      dup6\n      sload\n        /* \"#utility.yul\":11799:11819   */\n      swap3\n      add\n      swap2\n        /* \"#utility.yul\":11839:11840   */\n      0x00\n      swap1\n        /* \"#utility.yul\":11926:11927   */\n      0x01\n        /* \"#utility.yul\":11948:11966   */\n      dup2\n      dup2\n      shr\n      swap1\n        /* \"#utility.yul\":12001:12019   */\n      dup1\n      dup4\n      and\n      dup1\n        /* \"#utility.yul\":12028:12121   */\n      tag_632\n      jumpi\n        /* \"#utility.yul\":12106:12110   */\n      0x7f\n        /* \"#utility.yul\":12096:12104   */\n      dup4\n        /* \"#utility.yul\":12092:12111   */\n      and\n        /* \"#utility.yul\":12080:12111   */\n      swap3\n      pop\n        /* \"#utility.yul\":12028:12121   */\n    tag_632:\n        /* \"#utility.yul\":12169:12171   */\n      dup6\n        /* \"#utility.yul\":12159:12167   */\n      dup4\n        /* \"#utility.yul\":12156:12172   */\n      lt\n        /* \"#utility.yul\":12136:12154   */\n      dup2\n        /* \"#utility.yul\":12133:12173   */\n      eq\n        /* \"#utility.yul\":12130:12297   */\n      iszero\n      tag_633\n      jumpi\n      shl(0xe0, 0x4e487b71)\n        /* \"#utility.yul\":12196:12229   */\n      dup6\n      mstore\n        /* \"#utility.yul\":12252:12256   */\n      0x22\n        /* \"#utility.yul\":12249:12250   */\n      0x04\n        /* \"#utility.yul\":12242:12257   */\n      mstore\n        /* \"#utility.yul\":12282:12286   */\n      0x24\n        /* \"#utility.yul\":12203:12206   */\n      dup6\n        /* \"#utility.yul\":12270:12287   */\n      revert\n        /* \"#utility.yul\":12130:12297   */\n    tag_633:\n        /* \"#utility.yul\":12313:12331   */\n      dup1\n        /* \"#utility.yul\":12340:12450   */\n      dup1\n      iszero\n      tag_635\n      jumpi\n        /* \"#utility.yul\":12464:12465   */\n      0x01\n        /* \"#utility.yul\":12459:12787   */\n      dup2\n      eq\n      tag_636\n      jumpi\n        /* \"#utility.yul\":12306:12787   */\n      jump(tag_634)\n        /* \"#utility.yul\":12340:12450   */\n    tag_635:\n      not(0xff)\n        /* \"#utility.yul\":12375:12399   */\n      dup6\n      and\n        /* \"#utility.yul\":12361:12400   */\n      dup9\n      mstore\n        /* \"#utility.yul\":12420:12440   */\n      dup4\n      dup9\n      add\n      swap6\n      pop\n        /* \"#utility.yul\":12340:12450   */\n      jump(tag_634)\n        /* \"#utility.yul\":12459:12787   */\n    tag_636:\n        /* \"#utility.yul\":11232:11233   */\n      0x00\n        /* \"#utility.yul\":11225:11239   */\n      dup12\n      dup2\n      mstore\n        /* \"#utility.yul\":11269:11273   */\n      0x20\n        /* \"#utility.yul\":11256:11274   */\n      swap1\n      keccak256\n        /* \"#utility.yul\":12554:12555   */\n      0x00\n        /* \"#utility.yul\":12568:12737   */\n    tag_638:\n        /* \"#utility.yul\":12582:12590   */\n      dup6\n        /* \"#utility.yul\":12579:12580   */\n      dup2\n        /* \"#utility.yul\":12576:12591   */\n      lt\n        /* \"#utility.yul\":12568:12737   */\n      iszero\n      tag_640\n      jumpi\n        /* \"#utility.yul\":12664:12678   */\n      dup2\n      sload\n        /* \"#utility.yul\":12649:12662   */\n      dup11\n      dup3\n      add\n        /* \"#utility.yul\":12642:12679   */\n      mstore\n        /* \"#utility.yul\":12707:12723   */\n      swap1\n      dup5\n      add\n      swap1\n        /* \"#utility.yul\":12599:12609   */\n      dup9\n      add\n        /* \"#utility.yul\":12568:12737   */\n      jump(tag_638)\n    tag_640:\n        /* \"#utility.yul\":12572:12575   */\n      pop\n      pop\n        /* \"#utility.yul\":12768:12776   */\n      dup4\n        /* \"#utility.yul\":12761:12766   */\n      dup9\n        /* \"#utility.yul\":12757:12777   */\n      add\n        /* \"#utility.yul\":12750:12777   */\n      swap6\n      pop\n        /* \"#utility.yul\":12306:12787   */\n    tag_634:\n      pop\n        /* \"#utility.yul\":12803:12806   */\n      swap4\n      swap12\n        /* \"#utility.yul\":11285:12812   */\n      swap11\n      pop\n      pop\n      pop\n      pop\n      pop\n      pop\n      pop\n      pop\n      pop\n      pop\n      pop\n      jump\t// out\n        /* \"#utility.yul\":13585:14074   */\n    tag_438:\n      sub(shl(0xa0, 0x01), 0x01)\n        /* \"#utility.yul\":13854:13869   */\n      dup6\n      dup2\n      and\n        /* \"#utility.yul\":13836:13870   */\n      dup3\n      mstore\n        /* \"#utility.yul\":13906:13921   */\n      dup5\n      and\n        /* \"#utility.yul\":13901:13903   */\n      0x20\n        /* \"#utility.yul\":13886:13904   */\n      dup3\n      add\n        /* \"#utility.yul\":13879:13922   */\n      mstore\n        /* \"#utility.yul\":13953:13955   */\n      0x40\n        /* \"#utility.yul\":13938:13956   */\n      dup2\n      add\n        /* \"#utility.yul\":13931:13965   */\n      dup4\n      swap1\n      mstore\n        /* \"#utility.yul\":14001:14004   */\n      0x80\n        /* \"#utility.yul\":13996:13998   */\n      0x60\n        /* \"#utility.yul\":13981:13999   */\n      dup3\n      add\n        /* \"#utility.yul\":13974:14005   */\n      dup2\n      swap1\n      mstore\n        /* \"#utility.yul\":13779:13783   */\n      0x00\n      swap1\n        /* \"#utility.yul\":14022:14068   */\n      tag_644\n      swap1\n        /* \"#utility.yul\":14048:14067   */\n      dup4\n      add\n        /* \"#utility.yul\":14040:14046   */\n      dup5\n        /* \"#utility.yul\":14022:14068   */\n      tag_528\n      jump\t// in\n    tag_644:\n        /* \"#utility.yul\":14014:14068   */\n      swap7\n        /* \"#utility.yul\":13585:14074   */\n      swap6\n      pop\n      pop\n      pop\n      pop\n      pop\n      pop\n      jump\t// out\n        /* \"#utility.yul\":14079:14328   */\n    tag_441:\n        /* \"#utility.yul\":14148:14154   */\n      0x00\n        /* \"#utility.yul\":14201:14203   */\n      0x20\n        /* \"#utility.yul\":14189:14198   */\n      dup3\n        /* \"#utility.yul\":14180:14187   */\n      dup5\n        /* \"#utility.yul\":14176:14199   */\n      sub\n        /* \"#utility.yul\":14172:14204   */\n      slt\n        /* \"#utility.yul\":14169:14221   */\n      iszero\n      tag_646\n      jumpi\n        /* \"#utility.yul\":14217:14218   */\n      0x00\n        /* \"#utility.yul\":14214:14215   */\n      dup1\n        /* \"#utility.yul\":14207:14219   */\n      revert\n        /* \"#utility.yul\":14169:14221   */\n    tag_646:\n        /* \"#utility.yul\":14249:14258   */\n      dup2\n        /* \"#utility.yul\":14243:14259   */\n      mload\n        /* \"#utility.yul\":14268:14298   */\n      tag_370\n        /* \"#utility.yul\":14292:14297   */\n      dup2\n        /* \"#utility.yul\":14268:14298   */\n      tag_524\n      jump\t// in\n\n    auxdata: 0xa2646970667358221220626c7bfd313cc063457694610a70894c6722e8525ae223ed43ccbbe7e8e8ce8f64736f6c634300080c0033\n}\n",
				"bytecode": {
					"linkReferences": {},
					"object": "60c06040526005608081905264173539b7b760d91b60a09081526200002891600b9190620001eb565b506000600c556101a4600d556005600e55600f805461ffff191690553480156200005157600080fd5b5060405162002234380380620022348339810160408190526200007491620002a7565b6040518060400160405280600681526020016503434323230360d41b81525060405180604001604052806003815260200162494d4960e81b815250620000c9620000c36200011360201b60201c565b62000117565b8151620000de906003906020850190620001eb565b508051620000f4906004906020840190620001eb565b505060006001908155600955506200010c8162000167565b50620003c0565b3390565b600080546001600160a01b038381166001600160a01b0319831681178455604051919092169283917f8be0079c531659141344cd1fd0a4f28419497f9722a3daafe3b4186f6b6457e09190a35050565b620001716200018a565b80516200018690600a906020840190620001eb565b5050565b6000546001600160a01b03163314620001e95760405162461bcd60e51b815260206004820181905260248201527f4f776e61626c653a2063616c6c6572206973206e6f7420746865206f776e6572604482015260640160405180910390fd5b565b828054620001f99062000383565b90600052602060002090601f0160209004810192826200021d576000855562000268565b82601f106200023857805160ff191683800117855562000268565b8280016001018555821562000268579182015b82811115620002685782518255916020019190600101906200024b565b50620002769291506200027a565b5090565b5b808211156200027657600081556001016200027b565b634e487b7160e01b600052604160045260246000fd5b60006020808385031215620002bb57600080fd5b82516001600160401b0380821115620002d357600080fd5b818501915085601f830112620002e857600080fd5b815181811115620002fd57620002fd62000291565b604051601f8201601f19908116603f0116810190838211818310171562000328576200032862000291565b8160405282815288868487010111156200034157600080fd5b600093505b8284101562000365578484018601518185018701529285019262000346565b82841115620003775760008684830101525b98975050505050505050565b600181811c908216806200039857607f821691505b60208210811415620003ba57634e487b7160e01b600052602260045260246000fd5b50919050565b611e6480620003d06000396000f3fe6080604052600436106102045760003560e01c80636352211e11610118578063b3807b1d116100a0578063ca8a7d5e1161006f578063ca8a7d5e146105a0578063d5abeb01146105cd578063da3ef23f146105e3578063e985e9c514610603578063f2fde38b1461064c57600080fd5b8063b3807b1d14610542578063b88d4fde14610558578063c66828621461056b578063c87b56dd1461058057600080fd5b80638da5cb5b116100e75780638da5cb5b146104ac57806395d89b41146104ca578063a0712d68146104df578063a22cb465146104f2578063a7cd52cb1461051257600080fd5b80636352211e14610438578063674c02aa1461045857806370a0823114610477578063715018a61461049757600080fd5b806317dc10c41161019b5780633ccfd60b1161016a5780633ccfd60b146103c357806342842e0e146103cb57806355f804b3146103de5780635b9e3ccf146103fe5780635c975abb1461041e57600080fd5b806317dc10c41461034a57806318160ddd1461036a57806318cae2691461038357806323b872dd146103b057600080fd5b8063081812fc116101d7578063081812fc146102bb578063095ea7b3146102f357806313faede614610306578063142b0fbe1461032a57600080fd5b806301ffc9a71461020957806302329a291461023e57806305a3b8091461026057806306fdde0314610299575b600080fd5b34801561021557600080fd5b50610229610224366004611887565b61066c565b60405190151581526020015b60405180910390f35b34801561024a57600080fd5b5061025e6102593660046118b9565b6106be565b005b34801561026c57600080fd5b5061022961027b3660046118eb565b6001600160a01b031660009081526010602052604090205460ff1690565b3480156102a557600080fd5b506102ae6106d9565b604051610235919061195e565b3480156102c757600080fd5b506102db6102d6366004611971565b61076b565b6040516001600160a01b039091168152602001610235565b61025e61030136600461198a565b6107af565b34801561031257600080fd5b5061031c600c5481565b604051908152602001610235565b34801561033657600080fd5b5061025e6103453660046119b4565b61084f565b34801561035657600080fd5b5061025e6103653660046118b9565b6108ce565b34801561037657600080fd5b506002546001540361031c565b34801561038f57600080fd5b5061031c61039e3660046118eb565b60116020526000908152604090205481565b61025e6103be366004611a29565b6108f0565b61025e610a81565b61025e6103d9366004611a29565b610ac6565b3480156103ea57600080fd5b5061025e6103f9366004611af1565b610ae1565b34801561040a57600080fd5b5061025e6104193660046119b4565b610b00565b34801561042a57600080fd5b50600f546102299060ff1681565b34801561044457600080fd5b506102db610453366004611971565b610b7a565b34801561046457600080fd5b50600f5461022990610100900460ff1681565b34801561048357600080fd5b5061031c6104923660046118eb565b610b85565b3480156104a357600080fd5b5061025e610bd4565b3480156104b857600080fd5b506000546001600160a01b03166102db565b3480156104d657600080fd5b506102ae610be8565b61025e6104ed366004611971565b610bf7565b3480156104fe57600080fd5b5061025e61050d366004611b3a565b610f3f565b34801561051e57600080fd5b5061022961052d3660046118eb565b60106020526000908152604090205460ff1681565b34801561054e57600080fd5b5061031c600e5481565b61025e610566366004611b6d565b610fab565b34801561057757600080fd5b506102ae610ff5565b34801561058c57600080fd5b506102ae61059b366004611971565b611083565b3480156105ac57600080fd5b506105c06105bb3660046118eb565b611151565b6040516102359190611be9565b3480156105d957600080fd5b5061031c600d5481565b3480156105ef57600080fd5b5061025e6105fe366004611af1565b611229565b34801561060f57600080fd5b5061022961061e366004611c2d565b6001600160a01b03918216600090815260086020908152604080832093909416825291909152205460ff1690565b34801561065857600080fd5b5061025e6106673660046118eb565b611244565b60006301ffc9a760e01b6001600160e01b03198316148061069d57506380ac58cd60e01b6001600160e01b03198316145b806106b85750635b5e139f60e01b6001600160e01b03198316145b92915050565b6106c66112ba565b600f805460ff1916911515919091179055565b6060600380546106e890611c57565b80601f016020809104026020016040519081016040528092919081815260200182805461071490611c57565b80156107615780601f1061073657610100808354040283529160200191610761565b820191906000526020600020905b81548152906001019060200180831161074457829003601f168201915b5050505050905090565b600061077682611314565b610793576040516333d1c03960e21b815260040160405180910390fd5b506000908152600760205260409020546001600160a01b031690565b60006107ba82610b7a565b9050336001600160a01b038216146107f3576107d6813361061e565b6107f3576040516367d9dca160e11b815260040160405180910390fd5b60008281526007602052604080822080546001600160a01b0319166001600160a01b0387811691821790925591518593918516917f8c5be1e5ebec7d5bd14f71427d1e84f3dd0314c0f7b2291e5b200ac8c7c3b92591a4505050565b6108576112ba565b60005b818110156108c95760006010600085858581811061087a5761087a611c92565b905060200201602081019061088f91906118eb565b6001600160a01b031681526020810191909152604001600020805460ff1916911515919091179055806108c181611cbe565b91505061085a565b505050565b6108d66112ba565b600f80549115156101000261ff0019909216919091179055565b60006108fb8261133c565b9050836001600160a01b0316816001600160a01b03161461092e5760405162a1148160e81b815260040160405180910390fd5b60008281526007602052604090208054338082146001600160a01b0388169091141761097b5761095e863361061e565b61097b57604051632ce44b5f60e11b815260040160405180910390fd5b6001600160a01b0385166109a257604051633a954ecd60e21b815260040160405180910390fd5b80156109ad57600082555b6001600160a01b038681166000908152600660205260408082208054600019019055918716808252919020805460010190554260a01b17600160e11b17600085815260056020526040902055600160e11b8316610a385760018401600081815260056020526040902054610a36576001548114610a365760008181526005602052604090208490555b505b83856001600160a01b0316876001600160a01b03167fddf252ad1be2c89b69c2b068fc378daa952ba7f163c4a11628f55a4df523b3ef60405160405180910390a4505050505050565b610a896112ba565b600080546040516001600160a01b03909116914780156108fc02929091818181858888f19350505050158015610ac3573d6000803e3d6000fd5b50565b6108c983838360405180602001604052806000815250610fab565b610ae96112ba565b8051610afc90600a9060208401906117d8565b5050565b610b086112ba565b60005b818110156108c957600160106000858585818110610b2b57610b2b611c92565b9050602002016020810190610b4091906118eb565b6001600160a01b031681526020810191909152604001600020805460ff191691151591909117905580610b7281611cbe565b915050610b0b565b60006106b88261133c565b60006001600160a01b038216610bae576040516323d3ad8160e21b815260040160405180910390fd5b506001600160a01b031660009081526006602052604090205467ffffffffffffffff1690565b610bdc6112ba565b610be6600061139d565b565b6060600480546106e890611c57565b6000610c066002546001540390565b600f5490915060ff1615610cad5760405162461bcd60e51b815260206004820152605f60248201527f574f414820686f6c6420757020746865206d696e74206973206e6f742079657460448201527f206c6976652c2061206c6974746c6520746f6f206561726c792074686572652e60648201527f2e2e206f72206c6174653f205472616e736d697373696f6e20456e64696e6700608482015260a4015b60405180910390fd5b60008211610d235760405162461bcd60e51b815260206004820152603f60248201527f6d757374206d696e74206174206c656173742031206e66742c2030206973206e60448201527f6f7420616c6c6f7765642e205472616e736d697373696f6e20456e64696e67006064820152608401610ca4565b600d54610d308383611cd9565b1115610d9c5760405162461bcd60e51b815260206004820152603560248201527f6c6f6f6b73206c696b652077652061726520706f70756c6172206d61782073756044820152741c1c1b1e481a185cc81899595b881c995858da1959605a1b6064820152608401610ca4565b6000546001600160a01b03163314610f0d576001821115610df65760405162461bcd60e51b8152602060048201526014602482015273037b7363c90189030ba1030903a34b6b2901d14960651b6044820152606401610ca4565b600f5460ff61010090910416151560011415610ebb573360009081526010602052604090205460ff16610e5d5760405162461bcd60e51b815260206004820152600f60248201526e139bdd08105b1b1bdddb1a5cdd1959608a1b6044820152606401610ca4565b33600090815260116020526040902054600e54610e7a8483611cd9565b1115610eb95760405162461bcd60e51b815260206004820152600e60248201526d105b1c9958591e481b5a5b9d195960921b6044820152606401610ca4565b505b81600c54610ec99190611cf1565b341015610f0d5760405162461bcd60e51b8152602060048201526012602482015271086dee6e840c8decae6dc4ee840dac2e8c6d60731b6044820152606401610ca4565b610f1733836113ed565b3360009081526011602052604081208054849290610f36908490611cd9565b90915550505050565b3360008181526008602090815260408083206001600160a01b03871680855290835292819020805460ff191686151590811790915590519081529192917f17307eab39ab6107e8899845ad3d59bd9653f200f220920489ca2b5937696c31910160405180910390a35050565b610fb68484846108f0565b6001600160a01b0383163b15610fef57610fd284848484611407565b610fef576040516368d2bf6b60e11b815260040160405180910390fd5b50505050565b600b805461100290611c57565b80601f016020809104026020016040519081016040528092919081815260200182805461102e90611c57565b801561107b5780601f106110505761010080835404028352916020019161107b565b820191906000526020600020905b81548152906001019060200180831161105e57829003601f168201915b505050505081565b606061108e82611314565b6110f25760405162461bcd60e51b815260206004820152602f60248201527f4552433732314d657461646174613a2055524920717565727920666f72206e6f60448201526e3732bc34b9ba32b73a103a37b5b2b760891b6064820152608401610ca4565b60006110fc6114f0565b9050600081511161111c576040518060200160405280600081525061114a565b80611126846114ff565b600b60405160200161113a93929190611d10565b6040516020818303038152906040525b9392505050565b606060006111626002546001540390565b9050600061116f84610b85565b67ffffffffffffffff81111561118757611187611a65565b6040519080825280602002602001820160405280156111b0578160200160208202803683370190505b5090506000805b8381101561121f57856001600160a01b03166111d282610b7a565b6001600160a01b0316141561120d57808383815181106111f4576111f4611c92565b60209081029190910101528161120981611cbe565b9250505b8061121781611cbe565b9150506111b7565b5090949350505050565b6112316112ba565b8051610afc90600b9060208401906117d8565b61124c6112ba565b6001600160a01b0381166112b15760405162461bcd60e51b815260206004820152602660248201527f4f776e61626c653a206e6577206f776e657220697320746865207a65726f206160448201526564647265737360d01b6064820152608401610ca4565b610ac38161139d565b6000546001600160a01b03163314610be65760405162461bcd60e51b815260206004820181905260248201527f4f776e61626c653a2063616c6c6572206973206e6f7420746865206f776e65726044820152606401610ca4565b6000600154821080156106b8575050600090815260056020526040902054600160e01b161590565b60008160015481101561138457600081815260056020526040902054600160e01b8116611382575b8061114a575060001901600081815260056020526040902054611364565b505b604051636f96cda160e11b815260040160405180910390fd5b600080546001600160a01b038381166001600160a01b0319831681178455604051919092169283917f8be0079c531659141344cd1fd0a4f28419497f9722a3daafe3b4186f6b6457e09190a35050565b610afc82826040518060200160405280600081525061159c565b604051630a85bd0160e11b81526000906001600160a01b0385169063150b7a029061143c903390899088908890600401611dd4565b6020604051808303816000875af1925050508015611477575060408051601f3d908101601f1916820190925261147491810190611e11565b60015b6114d2573d8080156114a5576040519150601f19603f3d011682016040523d82523d6000602084013e6114aa565b606091505b5080516114ca576040516368d2bf6b60e11b815260040160405180910390fd5b805181602001fd5b6001600160e01b031916630a85bd0160e11b1490505b949350505050565b6060600a80546106e890611c57565b6060600061150c83611609565b600101905060008167ffffffffffffffff81111561152c5761152c611a65565b6040519080825280601f01601f191660200182016040528015611556576020820181803683370190505b5090508181016020015b600019016f181899199a1a9b1b9c1cb0b131b232b360811b600a86061a8153600a850494508461158f57611594565b611560565b509392505050565b6115a683836116e1565b6001600160a01b0383163b156108c9576001548281035b6115d06000868380600101945086611407565b6115ed576040516368d2bf6b60e11b815260040160405180910390fd5b8181106115bd57816001541461160257600080fd5b5050505050565b60008072184f03e93ff9f4daa797ed6e38ed64bf6a1f0160401b83106116485772184f03e93ff9f4daa797ed6e38ed64bf6a1f0160401b830492506040015b6d04ee2d6d415b85acef81000000008310611674576d04ee2d6d415b85acef8100000000830492506020015b662386f26fc10000831061169257662386f26fc10000830492506010015b6305f5e10083106116aa576305f5e100830492506008015b61271083106116be57612710830492506004015b606483106116d0576064830492506002015b600a83106106b85760010192915050565b600154816117025760405163b562e8dd60e01b815260040160405180910390fd5b6001600160a01b03831660008181526006602090815260408083208054680100000000000000018802019055848352600590915281206001851460e11b4260a01b178317905582840190839083907fddf252ad1be2c89b69c2b068fc378daa952ba7f163c4a11628f55a4df523b3ef8180a4600183015b8181146117b157808360007fddf252ad1be2c89b69c2b068fc378daa952ba7f163c4a11628f55a4df523b3ef600080a4600101611779565b50816117cf57604051622e076360e81b815260040160405180910390fd5b60015550505050565b8280546117e490611c57565b90600052602060002090601f016020900481019282611806576000855561184c565b82601f1061181f57805160ff191683800117855561184c565b8280016001018555821561184c579182015b8281111561184c578251825591602001919060010190611831565b5061185892915061185c565b5090565b5b80821115611858576000815560010161185d565b6001600160e01b031981168114610ac357600080fd5b60006020828403121561189957600080fd5b813561114a81611871565b803580151581146118b457600080fd5b919050565b6000602082840312156118cb57600080fd5b61114a826118a4565b80356001600160a01b03811681146118b457600080fd5b6000602082840312156118fd57600080fd5b61114a826118d4565b60005b83811015611921578181015183820152602001611909565b83811115610fef5750506000910152565b6000815180845261194a816020860160208601611906565b601f01601f19169290920160200192915050565b60208152600061114a6020830184611932565b60006020828403121561198357600080fd5b5035919050565b6000806040838503121561199d57600080fd5b6119a6836118d4565b946020939093013593505050565b600080602083850312156119c757600080fd5b823567ffffffffffffffff808211156119df57600080fd5b818501915085601f8301126119f357600080fd5b813581811115611a0257600080fd5b8660208260051b8501011115611a1757600080fd5b60209290920196919550909350505050565b600080600060608486031215611a3e57600080fd5b611a47846118d4565b9250611a55602085016118d4565b9150604084013590509250925092565b634e487b7160e01b600052604160045260246000fd5b600067ffffffffffffffff80841115611a9657611a96611a65565b604051601f8501601f19908116603f01168101908282118183101715611abe57611abe611a65565b81604052809350858152868686011115611ad757600080fd5b858560208301376000602087830101525050509392505050565b600060208284031215611b0357600080fd5b813567ffffffffffffffff811115611b1a57600080fd5b8201601f81018413611b2b57600080fd5b6114e884823560208401611a7b565b60008060408385031215611b4d57600080fd5b611b56836118d4565b9150611b64602084016118a4565b90509250929050565b60008060008060808587031215611b8357600080fd5b611b8c856118d4565b9350611b9a602086016118d4565b925060408501359150606085013567ffffffffffffffff811115611bbd57600080fd5b8501601f81018713611bce57600080fd5b611bdd87823560208401611a7b565b91505092959194509250565b6020808252825182820181905260009190848201906040850190845b81811015611c2157835183529284019291840191600101611c05565b50909695505050505050565b60008060408385031215611c4057600080fd5b611c49836118d4565b9150611b64602084016118d4565b600181811c90821680611c6b57607f821691505b60208210811415611c8c57634e487b7160e01b600052602260045260246000fd5b50919050565b634e487b7160e01b600052603260045260246000fd5b634e487b7160e01b600052601160045260246000fd5b6000600019821415611cd257611cd2611ca8565b5060010190565b60008219821115611cec57611cec611ca8565b500190565b6000816000190483118215151615611d0b57611d0b611ca8565b500290565b600084516020611d238285838a01611906565b855191840191611d368184848a01611906565b8554920191600090600181811c9080831680611d5357607f831692505b858310811415611d7157634e487b7160e01b85526022600452602485fd5b808015611d855760018114611d9657611dc3565b60ff19851688528388019550611dc3565b60008b81526020902060005b85811015611dbb5781548a820152908401908801611da2565b505083880195505b50939b9a5050505050505050505050565b6001600160a01b0385811682528416602082015260408101839052608060608201819052600090611e0790830184611932565b9695505050505050565b600060208284031215611e2357600080fd5b815161114a8161187156fea2646970667358221220626c7bfd313cc063457694610a70894c6722e8525ae223ed43ccbbe7e8e8ce8f64736f6c634300080c0033",
					"opcodes": "PUSH1 0xC0 PUSH1 0x40 MSTORE PUSH1 0x5 PUSH1 0x80 DUP2 SWAP1 MSTORE PUSH5 0x173539B7B7 PUSH1 0xD9 SHL PUSH1 0xA0 SWAP1 DUP2 MSTORE PUSH3 0x28 SWAP2 PUSH1 0xB SWAP2 SWAP1 PUSH3 0x1EB JUMP JUMPDEST POP PUSH1 0x0 PUSH1 0xC SSTORE PUSH2 0x1A4 PUSH1 0xD SSTORE PUSH1 0x5 PUSH1 0xE SSTORE PUSH1 0xF DUP1 SLOAD PUSH2 0xFFFF NOT AND SWAP1 SSTORE CALLVALUE DUP1 ISZERO PUSH3 0x51 JUMPI PUSH1 0x0 DUP1 REVERT JUMPDEST POP PUSH1 0x40 MLOAD PUSH3 0x2234 CODESIZE SUB DUP1 PUSH3 0x2234 DUP4 CODECOPY DUP2 ADD PUSH1 0x40 DUP2 SWAP1 MSTORE PUSH3 0x74 SWAP2 PUSH3 0x2A7 JUMP JUMPDEST PUSH1 0x40 MLOAD DUP1 PUSH1 0x40 ADD PUSH1 0x40 MSTORE DUP1 PUSH1 0x6 DUP2 MSTORE PUSH1 0x20 ADD PUSH6 0x34343232303 PUSH1 0xD4 SHL DUP2 MSTORE POP PUSH1 0x40 MLOAD DUP1 PUSH1 0x40 ADD PUSH1 0x40 MSTORE DUP1 PUSH1 0x3 DUP2 MSTORE PUSH1 0x20 ADD PUSH3 0x494D49 PUSH1 0xE8 SHL DUP2 MSTORE POP PUSH3 0xC9 PUSH3 0xC3 PUSH3 0x113 PUSH1 0x20 SHL PUSH1 0x20 SHR JUMP JUMPDEST PUSH3 0x117 JUMP JUMPDEST DUP2 MLOAD PUSH3 0xDE SWAP1 PUSH1 0x3 SWAP1 PUSH1 0x20 DUP6 ADD SWAP1 PUSH3 0x1EB JUMP JUMPDEST POP DUP1 MLOAD PUSH3 0xF4 SWAP1 PUSH1 0x4 SWAP1 PUSH1 0x20 DUP5 ADD SWAP1 PUSH3 0x1EB JUMP JUMPDEST POP POP PUSH1 0x0 PUSH1 0x1 SWAP1 DUP2 SSTORE PUSH1 0x9 SSTORE POP PUSH3 0x10C DUP2 PUSH3 0x167 JUMP JUMPDEST POP PUSH3 0x3C0 JUMP JUMPDEST CALLER SWAP1 JUMP JUMPDEST PUSH1 0x0 DUP1 SLOAD PUSH1 0x1 PUSH1 0x1 PUSH1 0xA0 SHL SUB DUP4 DUP2 AND PUSH1 0x1 PUSH1 0x1 PUSH1 0xA0 SHL SUB NOT DUP4 AND DUP2 OR DUP5 SSTORE PUSH1 0x40 MLOAD SWAP2 SWAP1 SWAP3 AND SWAP3 DUP4 SWAP2 PUSH32 0x8BE0079C531659141344CD1FD0A4F28419497F9722A3DAAFE3B4186F6B6457E0 SWAP2 SWAP1 LOG3 POP POP JUMP JUMPDEST PUSH3 0x171 PUSH3 0x18A JUMP JUMPDEST DUP1 MLOAD PUSH3 0x186 SWAP1 PUSH1 0xA SWAP1 PUSH1 0x20 DUP5 ADD SWAP1 PUSH3 0x1EB JUMP JUMPDEST POP POP JUMP JUMPDEST PUSH1 0x0 SLOAD PUSH1 0x1 PUSH1 0x1 PUSH1 0xA0 SHL SUB AND CALLER EQ PUSH3 0x1E9 JUMPI PUSH1 0x40 MLOAD PUSH3 0x461BCD PUSH1 0xE5 SHL DUP2 MSTORE PUSH1 0x20 PUSH1 0x4 DUP3 ADD DUP2 SWAP1 MSTORE PUSH1 0x24 DUP3 ADD MSTORE PUSH32 0x4F776E61626C653A2063616C6C6572206973206E6F7420746865206F776E6572 PUSH1 0x44 DUP3 ADD MSTORE PUSH1 0x64 ADD PUSH1 0x40 MLOAD DUP1 SWAP2 SUB SWAP1 REVERT JUMPDEST JUMP JUMPDEST DUP3 DUP1 SLOAD PUSH3 0x1F9 SWAP1 PUSH3 0x383 JUMP JUMPDEST SWAP1 PUSH1 0x0 MSTORE PUSH1 0x20 PUSH1 0x0 KECCAK256 SWAP1 PUSH1 0x1F ADD PUSH1 0x20 SWAP1 DIV DUP2 ADD SWAP3 DUP3 PUSH3 0x21D JUMPI PUSH1 0x0 DUP6 SSTORE PUSH3 0x268 JUMP JUMPDEST DUP3 PUSH1 0x1F LT PUSH3 0x238 JUMPI DUP1 MLOAD PUSH1 0xFF NOT AND DUP4 DUP1 ADD OR DUP6 SSTORE PUSH3 0x268 JUMP JUMPDEST DUP3 DUP1 ADD PUSH1 0x1 ADD DUP6 SSTORE DUP3 ISZERO PUSH3 0x268 JUMPI SWAP2 DUP3 ADD JUMPDEST DUP3 DUP2 GT ISZERO PUSH3 0x268 JUMPI DUP3 MLOAD DUP3 SSTORE SWAP2 PUSH1 0x20 ADD SWAP2 SWAP1 PUSH1 0x1 ADD SWAP1 PUSH3 0x24B JUMP JUMPDEST POP PUSH3 0x276 SWAP3 SWAP2 POP PUSH3 0x27A JUMP JUMPDEST POP SWAP1 JUMP JUMPDEST JUMPDEST DUP1 DUP3 GT ISZERO PUSH3 0x276 JUMPI PUSH1 0x0 DUP2 SSTORE PUSH1 0x1 ADD PUSH3 0x27B JUMP JUMPDEST PUSH4 0x4E487B71 PUSH1 0xE0 SHL PUSH1 0x0 MSTORE PUSH1 0x41 PUSH1 0x4 MSTORE PUSH1 0x24 PUSH1 0x0 REVERT JUMPDEST PUSH1 0x0 PUSH1 0x20 DUP1 DUP4 DUP6 SUB SLT ISZERO PUSH3 0x2BB JUMPI PUSH1 0x0 DUP1 REVERT JUMPDEST DUP3 MLOAD PUSH1 0x1 PUSH1 0x1 PUSH1 0x40 SHL SUB DUP1 DUP3 GT ISZERO PUSH3 0x2D3 JUMPI PUSH1 0x0 DUP1 REVERT JUMPDEST DUP2 DUP6 ADD SWAP2 POP DUP6 PUSH1 0x1F DUP4 ADD SLT PUSH3 0x2E8 JUMPI PUSH1 0x0 DUP1 REVERT JUMPDEST DUP2 MLOAD DUP2 DUP2 GT ISZERO PUSH3 0x2FD JUMPI PUSH3 0x2FD PUSH3 0x291 JUMP JUMPDEST PUSH1 0x40 MLOAD PUSH1 0x1F DUP3 ADD PUSH1 0x1F NOT SWAP1 DUP2 AND PUSH1 0x3F ADD AND DUP2 ADD SWAP1 DUP4 DUP3 GT DUP2 DUP4 LT OR ISZERO PUSH3 0x328 JUMPI PUSH3 0x328 PUSH3 0x291 JUMP JUMPDEST DUP2 PUSH1 0x40 MSTORE DUP3 DUP2 MSTORE DUP9 DUP7 DUP5 DUP8 ADD ADD GT ISZERO PUSH3 0x341 JUMPI PUSH1 0x0 DUP1 REVERT JUMPDEST PUSH1 0x0 SWAP4 POP JUMPDEST DUP3 DUP5 LT ISZERO PUSH3 0x365 JUMPI DUP5 DUP5 ADD DUP7 ADD MLOAD DUP2 DUP6 ADD DUP8 ADD MSTORE SWAP3 DUP6 ADD SWAP3 PUSH3 0x346 JUMP JUMPDEST DUP3 DUP5 GT ISZERO PUSH3 0x377 JUMPI PUSH1 0x0 DUP7 DUP5 DUP4 ADD ADD MSTORE JUMPDEST SWAP9 SWAP8 POP POP POP POP POP POP POP POP JUMP JUMPDEST PUSH1 0x1 DUP2 DUP2 SHR SWAP1 DUP3 AND DUP1 PUSH3 0x398 JUMPI PUSH1 0x7F DUP3 AND SWAP2 POP JUMPDEST PUSH1 0x20 DUP3 LT DUP2 EQ ISZERO PUSH3 0x3BA JUMPI PUSH4 0x4E487B71 PUSH1 0xE0 SHL PUSH1 0x0 MSTORE PUSH1 0x22 PUSH1 0x4 MSTORE PUSH1 0x24 PUSH1 0x0 REVERT JUMPDEST POP SWAP2 SWAP1 POP JUMP JUMPDEST PUSH2 0x1E64 DUP1 PUSH3 0x3D0 PUSH1 0x0 CODECOPY PUSH1 0x0 RETURN INVALID PUSH1 0x80 PUSH1 0x40 MSTORE PUSH1 0x4 CALLDATASIZE LT PUSH2 0x204 JUMPI PUSH1 0x0 CALLDATALOAD PUSH1 0xE0 SHR DUP1 PUSH4 0x6352211E GT PUSH2 0x118 JUMPI DUP1 PUSH4 0xB3807B1D GT PUSH2 0xA0 JUMPI DUP1 PUSH4 0xCA8A7D5E GT PUSH2 0x6F JUMPI DUP1 PUSH4 0xCA8A7D5E EQ PUSH2 0x5A0 JUMPI DUP1 PUSH4 0xD5ABEB01 EQ PUSH2 0x5CD JUMPI DUP1 PUSH4 0xDA3EF23F EQ PUSH2 0x5E3 JUMPI DUP1 PUSH4 0xE985E9C5 EQ PUSH2 0x603 JUMPI DUP1 PUSH4 0xF2FDE38B EQ PUSH2 0x64C JUMPI PUSH1 0x0 DUP1 REVERT JUMPDEST DUP1 PUSH4 0xB3807B1D EQ PUSH2 0x542 JUMPI DUP1 PUSH4 0xB88D4FDE EQ PUSH2 0x558 JUMPI DUP1 PUSH4 0xC6682862 EQ PUSH2 0x56B JUMPI DUP1 PUSH4 0xC87B56DD EQ PUSH2 0x580 JUMPI PUSH1 0x0 DUP1 REVERT JUMPDEST DUP1 PUSH4 0x8DA5CB5B GT PUSH2 0xE7 JUMPI DUP1 PUSH4 0x8DA5CB5B EQ PUSH2 0x4AC JUMPI DUP1 PUSH4 0x95D89B41 EQ PUSH2 0x4CA JUMPI DUP1 PUSH4 0xA0712D68 EQ PUSH2 0x4DF JUMPI DUP1 PUSH4 0xA22CB465 EQ PUSH2 0x4F2 JUMPI DUP1 PUSH4 0xA7CD52CB EQ PUSH2 0x512 JUMPI PUSH1 0x0 DUP1 REVERT JUMPDEST DUP1 PUSH4 0x6352211E EQ PUSH2 0x438 JUMPI DUP1 PUSH4 0x674C02AA EQ PUSH2 0x458 JUMPI DUP1 PUSH4 0x70A08231 EQ PUSH2 0x477 JUMPI DUP1 PUSH4 0x715018A6 EQ PUSH2 0x497 JUMPI PUSH1 0x0 DUP1 REVERT JUMPDEST DUP1 PUSH4 0x17DC10C4 GT PUSH2 0x19B JUMPI DUP1 PUSH4 0x3CCFD60B GT PUSH2 0x16A JUMPI DUP1 PUSH4 0x3CCFD60B EQ PUSH2 0x3C3 JUMPI DUP1 PUSH4 0x42842E0E EQ PUSH2 0x3CB JUMPI DUP1 PUSH4 0x55F804B3 EQ PUSH2 0x3DE JUMPI DUP1 PUSH4 0x5B9E3CCF EQ PUSH2 0x3FE JUMPI DUP1 PUSH4 0x5C975ABB EQ PUSH2 0x41E JUMPI PUSH1 0x0 DUP1 REVERT JUMPDEST DUP1 PUSH4 0x17DC10C4 EQ PUSH2 0x34A JUMPI DUP1 PUSH4 0x18160DDD EQ PUSH2 0x36A JUMPI DUP1 PUSH4 0x18CAE269 EQ PUSH2 0x383 JUMPI DUP1 PUSH4 0x23B872DD EQ PUSH2 0x3B0 JUMPI PUSH1 0x0 DUP1 REVERT JUMPDEST DUP1 PUSH4 0x81812FC GT PUSH2 0x1D7 JUMPI DUP1 PUSH4 0x81812FC EQ PUSH2 0x2BB JUMPI DUP1 PUSH4 0x95EA7B3 EQ PUSH2 0x2F3 JUMPI DUP1 PUSH4 0x13FAEDE6 EQ PUSH2 0x306 JUMPI DUP1 PUSH4 0x142B0FBE EQ PUSH2 0x32A JUMPI PUSH1 0x0 DUP1 REVERT JUMPDEST DUP1 PUSH4 0x1FFC9A7 EQ PUSH2 0x209 JUMPI DUP1 PUSH4 0x2329A29 EQ PUSH2 0x23E JUMPI DUP1 PUSH4 0x5A3B809 EQ PUSH2 0x260 JUMPI DUP1 PUSH4 0x6FDDE03 EQ PUSH2 0x299 JUMPI JUMPDEST PUSH1 0x0 DUP1 REVERT JUMPDEST CALLVALUE DUP1 ISZERO PUSH2 0x215 JUMPI PUSH1 0x0 DUP1 REVERT JUMPDEST POP PUSH2 0x229 PUSH2 0x224 CALLDATASIZE PUSH1 0x4 PUSH2 0x1887 JUMP JUMPDEST PUSH2 0x66C JUMP JUMPDEST PUSH1 0x40 MLOAD SWAP1 ISZERO ISZERO DUP2 MSTORE PUSH1 0x20 ADD JUMPDEST PUSH1 0x40 MLOAD DUP1 SWAP2 SUB SWAP1 RETURN JUMPDEST CALLVALUE DUP1 ISZERO PUSH2 0x24A JUMPI PUSH1 0x0 DUP1 REVERT JUMPDEST POP PUSH2 0x25E PUSH2 0x259 CALLDATASIZE PUSH1 0x4 PUSH2 0x18B9 JUMP JUMPDEST PUSH2 0x6BE JUMP JUMPDEST STOP JUMPDEST CALLVALUE DUP1 ISZERO PUSH2 0x26C JUMPI PUSH1 0x0 DUP1 REVERT JUMPDEST POP PUSH2 0x229 PUSH2 0x27B CALLDATASIZE PUSH1 0x4 PUSH2 0x18EB JUMP JUMPDEST PUSH1 0x1 PUSH1 0x1 PUSH1 0xA0 SHL SUB AND PUSH1 0x0 SWAP1 DUP2 MSTORE PUSH1 0x10 PUSH1 0x20 MSTORE PUSH1 0x40 SWAP1 KECCAK256 SLOAD PUSH1 0xFF AND SWAP1 JUMP JUMPDEST CALLVALUE DUP1 ISZERO PUSH2 0x2A5 JUMPI PUSH1 0x0 DUP1 REVERT JUMPDEST POP PUSH2 0x2AE PUSH2 0x6D9 JUMP JUMPDEST PUSH1 0x40 MLOAD PUSH2 0x235 SWAP2 SWAP1 PUSH2 0x195E JUMP JUMPDEST CALLVALUE DUP1 ISZERO PUSH2 0x2C7 JUMPI PUSH1 0x0 DUP1 REVERT JUMPDEST POP PUSH2 0x2DB PUSH2 0x2D6 CALLDATASIZE PUSH1 0x4 PUSH2 0x1971 JUMP JUMPDEST PUSH2 0x76B JUMP JUMPDEST PUSH1 0x40 MLOAD PUSH1 0x1 PUSH1 0x1 PUSH1 0xA0 SHL SUB SWAP1 SWAP2 AND DUP2 MSTORE PUSH1 0x20 ADD PUSH2 0x235 JUMP JUMPDEST PUSH2 0x25E PUSH2 0x301 CALLDATASIZE PUSH1 0x4 PUSH2 0x198A JUMP JUMPDEST PUSH2 0x7AF JUMP JUMPDEST CALLVALUE DUP1 ISZERO PUSH2 0x312 JUMPI PUSH1 0x0 DUP1 REVERT JUMPDEST POP PUSH2 0x31C PUSH1 0xC SLOAD DUP2 JUMP JUMPDEST PUSH1 0x40 MLOAD SWAP1 DUP2 MSTORE PUSH1 0x20 ADD PUSH2 0x235 JUMP JUMPDEST CALLVALUE DUP1 ISZERO PUSH2 0x336 JUMPI PUSH1 0x0 DUP1 REVERT JUMPDEST POP PUSH2 0x25E PUSH2 0x345 CALLDATASIZE PUSH1 0x4 PUSH2 0x19B4 JUMP JUMPDEST PUSH2 0x84F JUMP JUMPDEST CALLVALUE DUP1 ISZERO PUSH2 0x356 JUMPI PUSH1 0x0 DUP1 REVERT JUMPDEST POP PUSH2 0x25E PUSH2 0x365 CALLDATASIZE PUSH1 0x4 PUSH2 0x18B9 JUMP JUMPDEST PUSH2 0x8CE JUMP JUMPDEST CALLVALUE DUP1 ISZERO PUSH2 0x376 JUMPI PUSH1 0x0 DUP1 REVERT JUMPDEST POP PUSH1 0x2 SLOAD PUSH1 0x1 SLOAD SUB PUSH2 0x31C JUMP JUMPDEST CALLVALUE DUP1 ISZERO PUSH2 0x38F JUMPI PUSH1 0x0 DUP1 REVERT JUMPDEST POP PUSH2 0x31C PUSH2 0x39E CALLDATASIZE PUSH1 0x4 PUSH2 0x18EB JUMP JUMPDEST PUSH1 0x11 PUSH1 0x20 MSTORE PUSH1 0x0 SWAP1 DUP2 MSTORE PUSH1 0x40 SWAP1 KECCAK256 SLOAD DUP2 JUMP JUMPDEST PUSH2 0x25E PUSH2 0x3BE CALLDATASIZE PUSH1 0x4 PUSH2 0x1A29 JUMP JUMPDEST PUSH2 0x8F0 JUMP JUMPDEST PUSH2 0x25E PUSH2 0xA81 JUMP JUMPDEST PUSH2 0x25E PUSH2 0x3D9 CALLDATASIZE PUSH1 0x4 PUSH2 0x1A29 JUMP JUMPDEST PUSH2 0xAC6 JUMP JUMPDEST CALLVALUE DUP1 ISZERO PUSH2 0x3EA JUMPI PUSH1 0x0 DUP1 REVERT JUMPDEST POP PUSH2 0x25E PUSH2 0x3F9 CALLDATASIZE PUSH1 0x4 PUSH2 0x1AF1 JUMP JUMPDEST PUSH2 0xAE1 JUMP JUMPDEST CALLVALUE DUP1 ISZERO PUSH2 0x40A JUMPI PUSH1 0x0 DUP1 REVERT JUMPDEST POP PUSH2 0x25E PUSH2 0x419 CALLDATASIZE PUSH1 0x4 PUSH2 0x19B4 JUMP JUMPDEST PUSH2 0xB00 JUMP JUMPDEST CALLVALUE DUP1 ISZERO PUSH2 0x42A JUMPI PUSH1 0x0 DUP1 REVERT JUMPDEST POP PUSH1 0xF SLOAD PUSH2 0x229 SWAP1 PUSH1 0xFF AND DUP2 JUMP JUMPDEST CALLVALUE DUP1 ISZERO PUSH2 0x444 JUMPI PUSH1 0x0 DUP1 REVERT JUMPDEST POP PUSH2 0x2DB PUSH2 0x453 CALLDATASIZE PUSH1 0x4 PUSH2 0x1971 JUMP JUMPDEST PUSH2 0xB7A JUMP JUMPDEST CALLVALUE DUP1 ISZERO PUSH2 0x464 JUMPI PUSH1 0x0 DUP1 REVERT JUMPDEST POP PUSH1 0xF SLOAD PUSH2 0x229 SWAP1 PUSH2 0x100 SWAP1 DIV PUSH1 0xFF AND DUP2 JUMP JUMPDEST CALLVALUE DUP1 ISZERO PUSH2 0x483 JUMPI PUSH1 0x0 DUP1 REVERT JUMPDEST POP PUSH2 0x31C PUSH2 0x492 CALLDATASIZE PUSH1 0x4 PUSH2 0x18EB JUMP JUMPDEST PUSH2 0xB85 JUMP JUMPDEST CALLVALUE DUP1 ISZERO PUSH2 0x4A3 JUMPI PUSH1 0x0 DUP1 REVERT JUMPDEST POP PUSH2 0x25E PUSH2 0xBD4 JUMP JUMPDEST CALLVALUE DUP1 ISZERO PUSH2 0x4B8 JUMPI PUSH1 0x0 DUP1 REVERT JUMPDEST POP PUSH1 0x0 SLOAD PUSH1 0x1 PUSH1 0x1 PUSH1 0xA0 SHL SUB AND PUSH2 0x2DB JUMP JUMPDEST CALLVALUE DUP1 ISZERO PUSH2 0x4D6 JUMPI PUSH1 0x0 DUP1 REVERT JUMPDEST POP PUSH2 0x2AE PUSH2 0xBE8 JUMP JUMPDEST PUSH2 0x25E PUSH2 0x4ED CALLDATASIZE PUSH1 0x4 PUSH2 0x1971 JUMP JUMPDEST PUSH2 0xBF7 JUMP JUMPDEST CALLVALUE DUP1 ISZERO PUSH2 0x4FE JUMPI PUSH1 0x0 DUP1 REVERT JUMPDEST POP PUSH2 0x25E PUSH2 0x50D CALLDATASIZE PUSH1 0x4 PUSH2 0x1B3A JUMP JUMPDEST PUSH2 0xF3F JUMP JUMPDEST CALLVALUE DUP1 ISZERO PUSH2 0x51E JUMPI PUSH1 0x0 DUP1 REVERT JUMPDEST POP PUSH2 0x229 PUSH2 0x52D CALLDATASIZE PUSH1 0x4 PUSH2 0x18EB JUMP JUMPDEST PUSH1 0x10 PUSH1 0x20 MSTORE PUSH1 0x0 SWAP1 DUP2 MSTORE PUSH1 0x40 SWAP1 KECCAK256 SLOAD PUSH1 0xFF AND DUP2 JUMP JUMPDEST CALLVALUE DUP1 ISZERO PUSH2 0x54E JUMPI PUSH1 0x0 DUP1 REVERT JUMPDEST POP PUSH2 0x31C PUSH1 0xE SLOAD DUP2 JUMP JUMPDEST PUSH2 0x25E PUSH2 0x566 CALLDATASIZE PUSH1 0x4 PUSH2 0x1B6D JUMP JUMPDEST PUSH2 0xFAB JUMP JUMPDEST CALLVALUE DUP1 ISZERO PUSH2 0x577 JUMPI PUSH1 0x0 DUP1 REVERT JUMPDEST POP PUSH2 0x2AE PUSH2 0xFF5 JUMP JUMPDEST CALLVALUE DUP1 ISZERO PUSH2 0x58C JUMPI PUSH1 0x0 DUP1 REVERT JUMPDEST POP PUSH2 0x2AE PUSH2 0x59B CALLDATASIZE PUSH1 0x4 PUSH2 0x1971 JUMP JUMPDEST PUSH2 0x1083 JUMP JUMPDEST CALLVALUE DUP1 ISZERO PUSH2 0x5AC JUMPI PUSH1 0x0 DUP1 REVERT JUMPDEST POP PUSH2 0x5C0 PUSH2 0x5BB CALLDATASIZE PUSH1 0x4 PUSH2 0x18EB JUMP JUMPDEST PUSH2 0x1151 JUMP JUMPDEST PUSH1 0x40 MLOAD PUSH2 0x235 SWAP2 SWAP1 PUSH2 0x1BE9 JUMP JUMPDEST CALLVALUE DUP1 ISZERO PUSH2 0x5D9 JUMPI PUSH1 0x0 DUP1 REVERT JUMPDEST POP PUSH2 0x31C PUSH1 0xD SLOAD DUP2 JUMP JUMPDEST CALLVALUE DUP1 ISZERO PUSH2 0x5EF JUMPI PUSH1 0x0 DUP1 REVERT JUMPDEST POP PUSH2 0x25E PUSH2 0x5FE CALLDATASIZE PUSH1 0x4 PUSH2 0x1AF1 JUMP JUMPDEST PUSH2 0x1229 JUMP JUMPDEST CALLVALUE DUP1 ISZERO PUSH2 0x60F JUMPI PUSH1 0x0 DUP1 REVERT JUMPDEST POP PUSH2 0x229 PUSH2 0x61E CALLDATASIZE PUSH1 0x4 PUSH2 0x1C2D JUMP JUMPDEST PUSH1 0x1 PUSH1 0x1 PUSH1 0xA0 SHL SUB SWAP2 DUP3 AND PUSH1 0x0 SWAP1 DUP2 MSTORE PUSH1 0x8 PUSH1 0x20 SWAP1 DUP2 MSTORE PUSH1 0x40 DUP1 DUP4 KECCAK256 SWAP4 SWAP1 SWAP5 AND DUP3 MSTORE SWAP2 SWAP1 SWAP2 MSTORE KECCAK256 SLOAD PUSH1 0xFF AND SWAP1 JUMP JUMPDEST CALLVALUE DUP1 ISZERO PUSH2 0x658 JUMPI PUSH1 0x0 DUP1 REVERT JUMPDEST POP PUSH2 0x25E PUSH2 0x667 CALLDATASIZE PUSH1 0x4 PUSH2 0x18EB JUMP JUMPDEST PUSH2 0x1244 JUMP JUMPDEST PUSH1 0x0 PUSH4 0x1FFC9A7 PUSH1 0xE0 SHL PUSH1 0x1 PUSH1 0x1 PUSH1 0xE0 SHL SUB NOT DUP4 AND EQ DUP1 PUSH2 0x69D JUMPI POP PUSH4 0x80AC58CD PUSH1 0xE0 SHL PUSH1 0x1 PUSH1 0x1 PUSH1 0xE0 SHL SUB NOT DUP4 AND EQ JUMPDEST DUP1 PUSH2 0x6B8 JUMPI POP PUSH4 0x5B5E139F PUSH1 0xE0 SHL PUSH1 0x1 PUSH1 0x1 PUSH1 0xE0 SHL SUB NOT DUP4 AND EQ JUMPDEST SWAP3 SWAP2 POP POP JUMP JUMPDEST PUSH2 0x6C6 PUSH2 0x12BA JUMP JUMPDEST PUSH1 0xF DUP1 SLOAD PUSH1 0xFF NOT AND SWAP2 ISZERO ISZERO SWAP2 SWAP1 SWAP2 OR SWAP1 SSTORE JUMP JUMPDEST PUSH1 0x60 PUSH1 0x3 DUP1 SLOAD PUSH2 0x6E8 SWAP1 PUSH2 0x1C57 JUMP JUMPDEST DUP1 PUSH1 0x1F ADD PUSH1 0x20 DUP1 SWAP2 DIV MUL PUSH1 0x20 ADD PUSH1 0x40 MLOAD SWAP1 DUP2 ADD PUSH1 0x40 MSTORE DUP1 SWAP3 SWAP2 SWAP1 DUP2 DUP2 MSTORE PUSH1 0x20 ADD DUP3 DUP1 SLOAD PUSH2 0x714 SWAP1 PUSH2 0x1C57 JUMP JUMPDEST DUP1 ISZERO PUSH2 0x761 JUMPI DUP1 PUSH1 0x1F LT PUSH2 0x736 JUMPI PUSH2 0x100 DUP1 DUP4 SLOAD DIV MUL DUP4 MSTORE SWAP2 PUSH1 0x20 ADD SWAP2 PUSH2 0x761 JUMP JUMPDEST DUP3 ADD SWAP2 SWAP1 PUSH1 0x0 MSTORE PUSH1 0x20 PUSH1 0x0 KECCAK256 SWAP1 JUMPDEST DUP2 SLOAD DUP2 MSTORE SWAP1 PUSH1 0x1 ADD SWAP1 PUSH1 0x20 ADD DUP1 DUP4 GT PUSH2 0x744 JUMPI DUP3 SWAP1 SUB PUSH1 0x1F AND DUP3 ADD SWAP2 JUMPDEST POP POP POP POP POP SWAP1 POP SWAP1 JUMP JUMPDEST PUSH1 0x0 PUSH2 0x776 DUP3 PUSH2 0x1314 JUMP JUMPDEST PUSH2 0x793 JUMPI PUSH1 0x40 MLOAD PUSH4 0x33D1C039 PUSH1 0xE2 SHL DUP2 MSTORE PUSH1 0x4 ADD PUSH1 0x40 MLOAD DUP1 SWAP2 SUB SWAP1 REVERT JUMPDEST POP PUSH1 0x0 SWAP1 DUP2 MSTORE PUSH1 0x7 PUSH1 0x20 MSTORE PUSH1 0x40 SWAP1 KECCAK256 SLOAD PUSH1 0x1 PUSH1 0x1 PUSH1 0xA0 SHL SUB AND SWAP1 JUMP JUMPDEST PUSH1 0x0 PUSH2 0x7BA DUP3 PUSH2 0xB7A JUMP JUMPDEST SWAP1 POP CALLER PUSH1 0x1 PUSH1 0x1 PUSH1 0xA0 SHL SUB DUP3 AND EQ PUSH2 0x7F3 JUMPI PUSH2 0x7D6 DUP2 CALLER PUSH2 0x61E JUMP JUMPDEST PUSH2 0x7F3 JUMPI PUSH1 0x40 MLOAD PUSH4 0x67D9DCA1 PUSH1 0xE1 SHL DUP2 MSTORE PUSH1 0x4 ADD PUSH1 0x40 MLOAD DUP1 SWAP2 SUB SWAP1 REVERT JUMPDEST PUSH1 0x0 DUP3 DUP2 MSTORE PUSH1 0x7 PUSH1 0x20 MSTORE PUSH1 0x40 DUP1 DUP3 KECCAK256 DUP1 SLOAD PUSH1 0x1 PUSH1 0x1 PUSH1 0xA0 SHL SUB NOT AND PUSH1 0x1 PUSH1 0x1 PUSH1 0xA0 SHL SUB DUP8 DUP2 AND SWAP2 DUP3 OR SWAP1 SWAP3 SSTORE SWAP2 MLOAD DUP6 SWAP4 SWAP2 DUP6 AND SWAP2 PUSH32 0x8C5BE1E5EBEC7D5BD14F71427D1E84F3DD0314C0F7B2291E5B200AC8C7C3B925 SWAP2 LOG4 POP POP POP JUMP JUMPDEST PUSH2 0x857 PUSH2 0x12BA JUMP JUMPDEST PUSH1 0x0 JUMPDEST DUP2 DUP2 LT ISZERO PUSH2 0x8C9 JUMPI PUSH1 0x0 PUSH1 0x10 PUSH1 0x0 DUP6 DUP6 DUP6 DUP2 DUP2 LT PUSH2 0x87A JUMPI PUSH2 0x87A PUSH2 0x1C92 JUMP JUMPDEST SWAP1 POP PUSH1 0x20 MUL ADD PUSH1 0x20 DUP2 ADD SWAP1 PUSH2 0x88F SWAP2 SWAP1 PUSH2 0x18EB JUMP JUMPDEST PUSH1 0x1 PUSH1 0x1 PUSH1 0xA0 SHL SUB AND DUP2 MSTORE PUSH1 0x20 DUP2 ADD SWAP2 SWAP1 SWAP2 MSTORE PUSH1 0x40 ADD PUSH1 0x0 KECCAK256 DUP1 SLOAD PUSH1 0xFF NOT AND SWAP2 ISZERO ISZERO SWAP2 SWAP1 SWAP2 OR SWAP1 SSTORE DUP1 PUSH2 0x8C1 DUP2 PUSH2 0x1CBE JUMP JUMPDEST SWAP2 POP POP PUSH2 0x85A JUMP JUMPDEST POP POP POP JUMP JUMPDEST PUSH2 0x8D6 PUSH2 0x12BA JUMP JUMPDEST PUSH1 0xF DUP1 SLOAD SWAP2 ISZERO ISZERO PUSH2 0x100 MUL PUSH2 0xFF00 NOT SWAP1 SWAP3 AND SWAP2 SWAP1 SWAP2 OR SWAP1 SSTORE JUMP JUMPDEST PUSH1 0x0 PUSH2 0x8FB DUP3 PUSH2 0x133C JUMP JUMPDEST SWAP1 POP DUP4 PUSH1 0x1 PUSH1 0x1 PUSH1 0xA0 SHL SUB AND DUP2 PUSH1 0x1 PUSH1 0x1 PUSH1 0xA0 SHL SUB AND EQ PUSH2 0x92E JUMPI PUSH1 0x40 MLOAD PUSH3 0xA11481 PUSH1 0xE8 SHL DUP2 MSTORE PUSH1 0x4 ADD PUSH1 0x40 MLOAD DUP1 SWAP2 SUB SWAP1 REVERT JUMPDEST PUSH1 0x0 DUP3 DUP2 MSTORE PUSH1 0x7 PUSH1 0x20 MSTORE PUSH1 0x40 SWAP1 KECCAK256 DUP1 SLOAD CALLER DUP1 DUP3 EQ PUSH1 0x1 PUSH1 0x1 PUSH1 0xA0 SHL SUB DUP9 AND SWAP1 SWAP2 EQ OR PUSH2 0x97B JUMPI PUSH2 0x95E DUP7 CALLER PUSH2 0x61E JUMP JUMPDEST PUSH2 0x97B JUMPI PUSH1 0x40 MLOAD PUSH4 0x2CE44B5F PUSH1 0xE1 SHL DUP2 MSTORE PUSH1 0x4 ADD PUSH1 0x40 MLOAD DUP1 SWAP2 SUB SWAP1 REVERT JUMPDEST PUSH1 0x1 PUSH1 0x1 PUSH1 0xA0 SHL SUB DUP6 AND PUSH2 0x9A2 JUMPI PUSH1 0x40 MLOAD PUSH4 0x3A954ECD PUSH1 0xE2 SHL DUP2 MSTORE PUSH1 0x4 ADD PUSH1 0x40 MLOAD DUP1 SWAP2 SUB SWAP1 REVERT JUMPDEST DUP1 ISZERO PUSH2 0x9AD JUMPI PUSH1 0x0 DUP3 SSTORE JUMPDEST PUSH1 0x1 PUSH1 0x1 PUSH1 0xA0 SHL SUB DUP7 DUP2 AND PUSH1 0x0 SWAP1 DUP2 MSTORE PUSH1 0x6 PUSH1 0x20 MSTORE PUSH1 0x40 DUP1 DUP3 KECCAK256 DUP1 SLOAD PUSH1 0x0 NOT ADD SWAP1 SSTORE SWAP2 DUP8 AND DUP1 DUP3 MSTORE SWAP2 SWAP1 KECCAK256 DUP1 SLOAD PUSH1 0x1 ADD SWAP1 SSTORE TIMESTAMP PUSH1 0xA0 SHL OR PUSH1 0x1 PUSH1 0xE1 SHL OR PUSH1 0x0 DUP6 DUP2 MSTORE PUSH1 0x5 PUSH1 0x20 MSTORE PUSH1 0x40 SWAP1 KECCAK256 SSTORE PUSH1 0x1 PUSH1 0xE1 SHL DUP4 AND PUSH2 0xA38 JUMPI PUSH1 0x1 DUP5 ADD PUSH1 0x0 DUP2 DUP2 MSTORE PUSH1 0x5 PUSH1 0x20 MSTORE PUSH1 0x40 SWAP1 KECCAK256 SLOAD PUSH2 0xA36 JUMPI PUSH1 0x1 SLOAD DUP2 EQ PUSH2 0xA36 JUMPI PUSH1 0x0 DUP2 DUP2 MSTORE PUSH1 0x5 PUSH1 0x20 MSTORE PUSH1 0x40 SWAP1 KECCAK256 DUP5 SWAP1 SSTORE JUMPDEST POP JUMPDEST DUP4 DUP6 PUSH1 0x1 PUSH1 0x1 PUSH1 0xA0 SHL SUB AND DUP8 PUSH1 0x1 PUSH1 0x1 PUSH1 0xA0 SHL SUB AND PUSH32 0xDDF252AD1BE2C89B69C2B068FC378DAA952BA7F163C4A11628F55A4DF523B3EF PUSH1 0x40 MLOAD PUSH1 0x40 MLOAD DUP1 SWAP2 SUB SWAP1 LOG4 POP POP POP POP POP POP JUMP JUMPDEST PUSH2 0xA89 PUSH2 0x12BA JUMP JUMPDEST PUSH1 0x0 DUP1 SLOAD PUSH1 0x40 MLOAD PUSH1 0x1 PUSH1 0x1 PUSH1 0xA0 SHL SUB SWAP1 SWAP2 AND SWAP2 SELFBALANCE DUP1 ISZERO PUSH2 0x8FC MUL SWAP3 SWAP1 SWAP2 DUP2 DUP2 DUP2 DUP6 DUP9 DUP9 CALL SWAP4 POP POP POP POP ISZERO DUP1 ISZERO PUSH2 0xAC3 JUMPI RETURNDATASIZE PUSH1 0x0 DUP1 RETURNDATACOPY RETURNDATASIZE PUSH1 0x0 REVERT JUMPDEST POP JUMP JUMPDEST PUSH2 0x8C9 DUP4 DUP4 DUP4 PUSH1 0x40 MLOAD DUP1 PUSH1 0x20 ADD PUSH1 0x40 MSTORE DUP1 PUSH1 0x0 DUP2 MSTORE POP PUSH2 0xFAB JUMP JUMPDEST PUSH2 0xAE9 PUSH2 0x12BA JUMP JUMPDEST DUP1 MLOAD PUSH2 0xAFC SWAP1 PUSH1 0xA SWAP1 PUSH1 0x20 DUP5 ADD SWAP1 PUSH2 0x17D8 JUMP JUMPDEST POP POP JUMP JUMPDEST PUSH2 0xB08 PUSH2 0x12BA JUMP JUMPDEST PUSH1 0x0 JUMPDEST DUP2 DUP2 LT ISZERO PUSH2 0x8C9 JUMPI PUSH1 0x1 PUSH1 0x10 PUSH1 0x0 DUP6 DUP6 DUP6 DUP2 DUP2 LT PUSH2 0xB2B JUMPI PUSH2 0xB2B PUSH2 0x1C92 JUMP JUMPDEST SWAP1 POP PUSH1 0x20 MUL ADD PUSH1 0x20 DUP2 ADD SWAP1 PUSH2 0xB40 SWAP2 SWAP1 PUSH2 0x18EB JUMP JUMPDEST PUSH1 0x1 PUSH1 0x1 PUSH1 0xA0 SHL SUB AND DUP2 MSTORE PUSH1 0x20 DUP2 ADD SWAP2 SWAP1 SWAP2 MSTORE PUSH1 0x40 ADD PUSH1 0x0 KECCAK256 DUP1 SLOAD PUSH1 0xFF NOT AND SWAP2 ISZERO ISZERO SWAP2 SWAP1 SWAP2 OR SWAP1 SSTORE DUP1 PUSH2 0xB72 DUP2 PUSH2 0x1CBE JUMP JUMPDEST SWAP2 POP POP PUSH2 0xB0B JUMP JUMPDEST PUSH1 0x0 PUSH2 0x6B8 DUP3 PUSH2 0x133C JUMP JUMPDEST PUSH1 0x0 PUSH1 0x1 PUSH1 0x1 PUSH1 0xA0 SHL SUB DUP3 AND PUSH2 0xBAE JUMPI PUSH1 0x40 MLOAD PUSH4 0x23D3AD81 PUSH1 0xE2 SHL DUP2 MSTORE PUSH1 0x4 ADD PUSH1 0x40 MLOAD DUP1 SWAP2 SUB SWAP1 REVERT JUMPDEST POP PUSH1 0x1 PUSH1 0x1 PUSH1 0xA0 SHL SUB AND PUSH1 0x0 SWAP1 DUP2 MSTORE PUSH1 0x6 PUSH1 0x20 MSTORE PUSH1 0x40 SWAP1 KECCAK256 SLOAD PUSH8 0xFFFFFFFFFFFFFFFF AND SWAP1 JUMP JUMPDEST PUSH2 0xBDC PUSH2 0x12BA JUMP JUMPDEST PUSH2 0xBE6 PUSH1 0x0 PUSH2 0x139D JUMP JUMPDEST JUMP JUMPDEST PUSH1 0x60 PUSH1 0x4 DUP1 SLOAD PUSH2 0x6E8 SWAP1 PUSH2 0x1C57 JUMP JUMPDEST PUSH1 0x0 PUSH2 0xC06 PUSH1 0x2 SLOAD PUSH1 0x1 SLOAD SUB SWAP1 JUMP JUMPDEST PUSH1 0xF SLOAD SWAP1 SWAP2 POP PUSH1 0xFF AND ISZERO PUSH2 0xCAD JUMPI PUSH1 0x40 MLOAD PUSH3 0x461BCD PUSH1 0xE5 SHL DUP2 MSTORE PUSH1 0x20 PUSH1 0x4 DUP3 ADD MSTORE PUSH1 0x5F PUSH1 0x24 DUP3 ADD MSTORE PUSH32 0x574F414820686F6C6420757020746865206D696E74206973206E6F7420796574 PUSH1 0x44 DUP3 ADD MSTORE PUSH32 0x206C6976652C2061206C6974746C6520746F6F206561726C792074686572652E PUSH1 0x64 DUP3 ADD MSTORE PUSH32 0x2E2E206F72206C6174653F205472616E736D697373696F6E20456E64696E6700 PUSH1 0x84 DUP3 ADD MSTORE PUSH1 0xA4 ADD JUMPDEST PUSH1 0x40 MLOAD DUP1 SWAP2 SUB SWAP1 REVERT JUMPDEST PUSH1 0x0 DUP3 GT PUSH2 0xD23 JUMPI PUSH1 0x40 MLOAD PUSH3 0x461BCD PUSH1 0xE5 SHL DUP2 MSTORE PUSH1 0x20 PUSH1 0x4 DUP3 ADD MSTORE PUSH1 0x3F PUSH1 0x24 DUP3 ADD MSTORE PUSH32 0x6D757374206D696E74206174206C656173742031206E66742C2030206973206E PUSH1 0x44 DUP3 ADD MSTORE PUSH32 0x6F7420616C6C6F7765642E205472616E736D697373696F6E20456E64696E6700 PUSH1 0x64 DUP3 ADD MSTORE PUSH1 0x84 ADD PUSH2 0xCA4 JUMP JUMPDEST PUSH1 0xD SLOAD PUSH2 0xD30 DUP4 DUP4 PUSH2 0x1CD9 JUMP JUMPDEST GT ISZERO PUSH2 0xD9C JUMPI PUSH1 0x40 MLOAD PUSH3 0x461BCD PUSH1 0xE5 SHL DUP2 MSTORE PUSH1 0x20 PUSH1 0x4 DUP3 ADD MSTORE PUSH1 0x35 PUSH1 0x24 DUP3 ADD MSTORE PUSH32 0x6C6F6F6B73206C696B652077652061726520706F70756C6172206D6178207375 PUSH1 0x44 DUP3 ADD MSTORE PUSH21 0x1C1C1B1E481A185CC81899595B881C995858DA1959 PUSH1 0x5A SHL PUSH1 0x64 DUP3 ADD MSTORE PUSH1 0x84 ADD PUSH2 0xCA4 JUMP JUMPDEST PUSH1 0x0 SLOAD PUSH1 0x1 PUSH1 0x1 PUSH1 0xA0 SHL SUB AND CALLER EQ PUSH2 0xF0D JUMPI PUSH1 0x1 DUP3 GT ISZERO PUSH2 0xDF6 JUMPI PUSH1 0x40 MLOAD PUSH3 0x461BCD PUSH1 0xE5 SHL DUP2 MSTORE PUSH1 0x20 PUSH1 0x4 DUP3 ADD MSTORE PUSH1 0x14 PUSH1 0x24 DUP3 ADD MSTORE PUSH20 0x37B7363C90189030BA1030903A34B6B2901D149 PUSH1 0x65 SHL PUSH1 0x44 DUP3 ADD MSTORE PUSH1 0x64 ADD PUSH2 0xCA4 JUMP JUMPDEST PUSH1 0xF SLOAD PUSH1 0xFF PUSH2 0x100 SWAP1 SWAP2 DIV AND ISZERO ISZERO PUSH1 0x1 EQ ISZERO PUSH2 0xEBB JUMPI CALLER PUSH1 0x0 SWAP1 DUP2 MSTORE PUSH1 0x10 PUSH1 0x20 MSTORE PUSH1 0x40 SWAP1 KECCAK256 SLOAD PUSH1 0xFF AND PUSH2 0xE5D JUMPI PUSH1 0x40 MLOAD PUSH3 0x461BCD PUSH1 0xE5 SHL DUP2 MSTORE PUSH1 0x20 PUSH1 0x4 DUP3 ADD MSTORE PUSH1 0xF PUSH1 0x24 DUP3 ADD MSTORE PUSH15 0x139BDD08105B1B1BDDDB1A5CDD1959 PUSH1 0x8A SHL PUSH1 0x44 DUP3 ADD MSTORE PUSH1 0x64 ADD PUSH2 0xCA4 JUMP JUMPDEST CALLER PUSH1 0x0 SWAP1 DUP2 MSTORE PUSH1 0x11 PUSH1 0x20 MSTORE PUSH1 0x40 SWAP1 KECCAK256 SLOAD PUSH1 0xE SLOAD PUSH2 0xE7A DUP5 DUP4 PUSH2 0x1CD9 JUMP JUMPDEST GT ISZERO PUSH2 0xEB9 JUMPI PUSH1 0x40 MLOAD PUSH3 0x461BCD PUSH1 0xE5 SHL DUP2 MSTORE PUSH1 0x20 PUSH1 0x4 DUP3 ADD MSTORE PUSH1 0xE PUSH1 0x24 DUP3 ADD MSTORE PUSH14 0x105B1C9958591E481B5A5B9D1959 PUSH1 0x92 SHL PUSH1 0x44 DUP3 ADD MSTORE PUSH1 0x64 ADD PUSH2 0xCA4 JUMP JUMPDEST POP JUMPDEST DUP2 PUSH1 0xC SLOAD PUSH2 0xEC9 SWAP2 SWAP1 PUSH2 0x1CF1 JUMP JUMPDEST CALLVALUE LT ISZERO PUSH2 0xF0D JUMPI PUSH1 0x40 MLOAD PUSH3 0x461BCD PUSH1 0xE5 SHL DUP2 MSTORE PUSH1 0x20 PUSH1 0x4 DUP3 ADD MSTORE PUSH1 0x12 PUSH1 0x24 DUP3 ADD MSTORE PUSH18 0x86DEE6E840C8DECAE6DC4EE840DAC2E8C6D PUSH1 0x73 SHL PUSH1 0x44 DUP3 ADD MSTORE PUSH1 0x64 ADD PUSH2 0xCA4 JUMP JUMPDEST PUSH2 0xF17 CALLER DUP4 PUSH2 0x13ED JUMP JUMPDEST CALLER PUSH1 0x0 SWAP1 DUP2 MSTORE PUSH1 0x11 PUSH1 0x20 MSTORE PUSH1 0x40 DUP2 KECCAK256 DUP1 SLOAD DUP5 SWAP3 SWAP1 PUSH2 0xF36 SWAP1 DUP5 SWAP1 PUSH2 0x1CD9 JUMP JUMPDEST SWAP1 SWAP2 SSTORE POP POP POP POP JUMP JUMPDEST CALLER PUSH1 0x0 DUP2 DUP2 MSTORE PUSH1 0x8 PUSH1 0x20 SWAP1 DUP2 MSTORE PUSH1 0x40 DUP1 DUP4 KECCAK256 PUSH1 0x1 PUSH1 0x1 PUSH1 0xA0 SHL SUB DUP8 AND DUP1 DUP6 MSTORE SWAP1 DUP4 MSTORE SWAP3 DUP2 SWAP1 KECCAK256 DUP1 SLOAD PUSH1 0xFF NOT AND DUP7 ISZERO ISZERO SWAP1 DUP2 OR SWAP1 SWAP2 SSTORE SWAP1 MLOAD SWAP1 DUP2 MSTORE SWAP2 SWAP3 SWAP2 PUSH32 0x17307EAB39AB6107E8899845AD3D59BD9653F200F220920489CA2B5937696C31 SWAP2 ADD PUSH1 0x40 MLOAD DUP1 SWAP2 SUB SWAP1 LOG3 POP POP JUMP JUMPDEST PUSH2 0xFB6 DUP5 DUP5 DUP5 PUSH2 0x8F0 JUMP JUMPDEST PUSH1 0x1 PUSH1 0x1 PUSH1 0xA0 SHL SUB DUP4 AND EXTCODESIZE ISZERO PUSH2 0xFEF JUMPI PUSH2 0xFD2 DUP5 DUP5 DUP5 DUP5 PUSH2 0x1407 JUMP JUMPDEST PUSH2 0xFEF JUMPI PUSH1 0x40 MLOAD PUSH4 0x68D2BF6B PUSH1 0xE1 SHL DUP2 MSTORE PUSH1 0x4 ADD PUSH1 0x40 MLOAD DUP1 SWAP2 SUB SWAP1 REVERT JUMPDEST POP POP POP POP JUMP JUMPDEST PUSH1 0xB DUP1 SLOAD PUSH2 0x1002 SWAP1 PUSH2 0x1C57 JUMP JUMPDEST DUP1 PUSH1 0x1F ADD PUSH1 0x20 DUP1 SWAP2 DIV MUL PUSH1 0x20 ADD PUSH1 0x40 MLOAD SWAP1 DUP2 ADD PUSH1 0x40 MSTORE DUP1 SWAP3 SWAP2 SWAP1 DUP2 DUP2 MSTORE PUSH1 0x20 ADD DUP3 DUP1 SLOAD PUSH2 0x102E SWAP1 PUSH2 0x1C57 JUMP JUMPDEST DUP1 ISZERO PUSH2 0x107B JUMPI DUP1 PUSH1 0x1F LT PUSH2 0x1050 JUMPI PUSH2 0x100 DUP1 DUP4 SLOAD DIV MUL DUP4 MSTORE SWAP2 PUSH1 0x20 ADD SWAP2 PUSH2 0x107B JUMP JUMPDEST DUP3 ADD SWAP2 SWAP1 PUSH1 0x0 MSTORE PUSH1 0x20 PUSH1 0x0 KECCAK256 SWAP1 JUMPDEST DUP2 SLOAD DUP2 MSTORE SWAP1 PUSH1 0x1 ADD SWAP1 PUSH1 0x20 ADD DUP1 DUP4 GT PUSH2 0x105E JUMPI DUP3 SWAP1 SUB PUSH1 0x1F AND DUP3 ADD SWAP2 JUMPDEST POP POP POP POP POP DUP2 JUMP JUMPDEST PUSH1 0x60 PUSH2 0x108E DUP3 PUSH2 0x1314 JUMP JUMPDEST PUSH2 0x10F2 JUMPI PUSH1 0x40 MLOAD PUSH3 0x461BCD PUSH1 0xE5 SHL DUP2 MSTORE PUSH1 0x20 PUSH1 0x4 DUP3 ADD MSTORE PUSH1 0x2F PUSH1 0x24 DUP3 ADD MSTORE PUSH32 0x4552433732314D657461646174613A2055524920717565727920666F72206E6F PUSH1 0x44 DUP3 ADD MSTORE PUSH15 0x3732BC34B9BA32B73A103A37B5B2B7 PUSH1 0x89 SHL PUSH1 0x64 DUP3 ADD MSTORE PUSH1 0x84 ADD PUSH2 0xCA4 JUMP JUMPDEST PUSH1 0x0 PUSH2 0x10FC PUSH2 0x14F0 JUMP JUMPDEST SWAP1 POP PUSH1 0x0 DUP2 MLOAD GT PUSH2 0x111C JUMPI PUSH1 0x40 MLOAD DUP1 PUSH1 0x20 ADD PUSH1 0x40 MSTORE DUP1 PUSH1 0x0 DUP2 MSTORE POP PUSH2 0x114A JUMP JUMPDEST DUP1 PUSH2 0x1126 DUP5 PUSH2 0x14FF JUMP JUMPDEST PUSH1 0xB PUSH1 0x40 MLOAD PUSH1 0x20 ADD PUSH2 0x113A SWAP4 SWAP3 SWAP2 SWAP1 PUSH2 0x1D10 JUMP JUMPDEST PUSH1 0x40 MLOAD PUSH1 0x20 DUP2 DUP4 SUB SUB DUP2 MSTORE SWAP1 PUSH1 0x40 MSTORE JUMPDEST SWAP4 SWAP3 POP POP POP JUMP JUMPDEST PUSH1 0x60 PUSH1 0x0 PUSH2 0x1162 PUSH1 0x2 SLOAD PUSH1 0x1 SLOAD SUB SWAP1 JUMP JUMPDEST SWAP1 POP PUSH1 0x0 PUSH2 0x116F DUP5 PUSH2 0xB85 JUMP JUMPDEST PUSH8 0xFFFFFFFFFFFFFFFF DUP2 GT ISZERO PUSH2 0x1187 JUMPI PUSH2 0x1187 PUSH2 0x1A65 JUMP JUMPDEST PUSH1 0x40 MLOAD SWAP1 DUP1 DUP3 MSTORE DUP1 PUSH1 0x20 MUL PUSH1 0x20 ADD DUP3 ADD PUSH1 0x40 MSTORE DUP1 ISZERO PUSH2 0x11B0 JUMPI DUP2 PUSH1 0x20 ADD PUSH1 0x20 DUP3 MUL DUP1 CALLDATASIZE DUP4 CALLDATACOPY ADD SWAP1 POP JUMPDEST POP SWAP1 POP PUSH1 0x0 DUP1 JUMPDEST DUP4 DUP2 LT ISZERO PUSH2 0x121F JUMPI DUP6 PUSH1 0x1 PUSH1 0x1 PUSH1 0xA0 SHL SUB AND PUSH2 0x11D2 DUP3 PUSH2 0xB7A JUMP JUMPDEST PUSH1 0x1 PUSH1 0x1 PUSH1 0xA0 SHL SUB AND EQ ISZERO PUSH2 0x120D JUMPI DUP1 DUP4 DUP4 DUP2 MLOAD DUP2 LT PUSH2 0x11F4 JUMPI PUSH2 0x11F4 PUSH2 0x1C92 JUMP JUMPDEST PUSH1 0x20 SWAP1 DUP2 MUL SWAP2 SWAP1 SWAP2 ADD ADD MSTORE DUP2 PUSH2 0x1209 DUP2 PUSH2 0x1CBE JUMP JUMPDEST SWAP3 POP POP JUMPDEST DUP1 PUSH2 0x1217 DUP2 PUSH2 0x1CBE JUMP JUMPDEST SWAP2 POP POP PUSH2 0x11B7 JUMP JUMPDEST POP SWAP1 SWAP5 SWAP4 POP POP POP POP JUMP JUMPDEST PUSH2 0x1231 PUSH2 0x12BA JUMP JUMPDEST DUP1 MLOAD PUSH2 0xAFC SWAP1 PUSH1 0xB SWAP1 PUSH1 0x20 DUP5 ADD SWAP1 PUSH2 0x17D8 JUMP JUMPDEST PUSH2 0x124C PUSH2 0x12BA JUMP JUMPDEST PUSH1 0x1 PUSH1 0x1 PUSH1 0xA0 SHL SUB DUP2 AND PUSH2 0x12B1 JUMPI PUSH1 0x40 MLOAD PUSH3 0x461BCD PUSH1 0xE5 SHL DUP2 MSTORE PUSH1 0x20 PUSH1 0x4 DUP3 ADD MSTORE PUSH1 0x26 PUSH1 0x24 DUP3 ADD MSTORE PUSH32 0x4F776E61626C653A206E6577206F776E657220697320746865207A65726F2061 PUSH1 0x44 DUP3 ADD MSTORE PUSH6 0x646472657373 PUSH1 0xD0 SHL PUSH1 0x64 DUP3 ADD MSTORE PUSH1 0x84 ADD PUSH2 0xCA4 JUMP JUMPDEST PUSH2 0xAC3 DUP2 PUSH2 0x139D JUMP JUMPDEST PUSH1 0x0 SLOAD PUSH1 0x1 PUSH1 0x1 PUSH1 0xA0 SHL SUB AND CALLER EQ PUSH2 0xBE6 JUMPI PUSH1 0x40 MLOAD PUSH3 0x461BCD PUSH1 0xE5 SHL DUP2 MSTORE PUSH1 0x20 PUSH1 0x4 DUP3 ADD DUP2 SWAP1 MSTORE PUSH1 0x24 DUP3 ADD MSTORE PUSH32 0x4F776E61626C653A2063616C6C6572206973206E6F7420746865206F776E6572 PUSH1 0x44 DUP3 ADD MSTORE PUSH1 0x64 ADD PUSH2 0xCA4 JUMP JUMPDEST PUSH1 0x0 PUSH1 0x1 SLOAD DUP3 LT DUP1 ISZERO PUSH2 0x6B8 JUMPI POP POP PUSH1 0x0 SWAP1 DUP2 MSTORE PUSH1 0x5 PUSH1 0x20 MSTORE PUSH1 0x40 SWAP1 KECCAK256 SLOAD PUSH1 0x1 PUSH1 0xE0 SHL AND ISZERO SWAP1 JUMP JUMPDEST PUSH1 0x0 DUP2 PUSH1 0x1 SLOAD DUP2 LT ISZERO PUSH2 0x1384 JUMPI PUSH1 0x0 DUP2 DUP2 MSTORE PUSH1 0x5 PUSH1 0x20 MSTORE PUSH1 0x40 SWAP1 KECCAK256 SLOAD PUSH1 0x1 PUSH1 0xE0 SHL DUP2 AND PUSH2 0x1382 JUMPI JUMPDEST DUP1 PUSH2 0x114A JUMPI POP PUSH1 0x0 NOT ADD PUSH1 0x0 DUP2 DUP2 MSTORE PUSH1 0x5 PUSH1 0x20 MSTORE PUSH1 0x40 SWAP1 KECCAK256 SLOAD PUSH2 0x1364 JUMP JUMPDEST POP JUMPDEST PUSH1 0x40 MLOAD PUSH4 0x6F96CDA1 PUSH1 0xE1 SHL DUP2 MSTORE PUSH1 0x4 ADD PUSH1 0x40 MLOAD DUP1 SWAP2 SUB SWAP1 REVERT JUMPDEST PUSH1 0x0 DUP1 SLOAD PUSH1 0x1 PUSH1 0x1 PUSH1 0xA0 SHL SUB DUP4 DUP2 AND PUSH1 0x1 PUSH1 0x1 PUSH1 0xA0 SHL SUB NOT DUP4 AND DUP2 OR DUP5 SSTORE PUSH1 0x40 MLOAD SWAP2 SWAP1 SWAP3 AND SWAP3 DUP4 SWAP2 PUSH32 0x8BE0079C531659141344CD1FD0A4F28419497F9722A3DAAFE3B4186F6B6457E0 SWAP2 SWAP1 LOG3 POP POP JUMP JUMPDEST PUSH2 0xAFC DUP3 DUP3 PUSH1 0x40 MLOAD DUP1 PUSH1 0x20 ADD PUSH1 0x40 MSTORE DUP1 PUSH1 0x0 DUP2 MSTORE POP PUSH2 0x159C JUMP JUMPDEST PUSH1 0x40 MLOAD PUSH4 0xA85BD01 PUSH1 0xE1 SHL DUP2 MSTORE PUSH1 0x0 SWAP1 PUSH1 0x1 PUSH1 0x1 PUSH1 0xA0 SHL SUB DUP6 AND SWAP1 PUSH4 0x150B7A02 SWAP1 PUSH2 0x143C SWAP1 CALLER SWAP1 DUP10 SWAP1 DUP9 SWAP1 DUP9 SWAP1 PUSH1 0x4 ADD PUSH2 0x1DD4 JUMP JUMPDEST PUSH1 0x20 PUSH1 0x40 MLOAD DUP1 DUP4 SUB DUP2 PUSH1 0x0 DUP8 GAS CALL SWAP3 POP POP POP DUP1 ISZERO PUSH2 0x1477 JUMPI POP PUSH1 0x40 DUP1 MLOAD PUSH1 0x1F RETURNDATASIZE SWAP1 DUP2 ADD PUSH1 0x1F NOT AND DUP3 ADD SWAP1 SWAP3 MSTORE PUSH2 0x1474 SWAP2 DUP2 ADD SWAP1 PUSH2 0x1E11 JUMP JUMPDEST PUSH1 0x1 JUMPDEST PUSH2 0x14D2 JUMPI RETURNDATASIZE DUP1 DUP1 ISZERO PUSH2 0x14A5 JUMPI PUSH1 0x40 MLOAD SWAP2 POP PUSH1 0x1F NOT PUSH1 0x3F RETURNDATASIZE ADD AND DUP3 ADD PUSH1 0x40 MSTORE RETURNDATASIZE DUP3 MSTORE RETURNDATASIZE PUSH1 0x0 PUSH1 0x20 DUP5 ADD RETURNDATACOPY PUSH2 0x14AA JUMP JUMPDEST PUSH1 0x60 SWAP2 POP JUMPDEST POP DUP1 MLOAD PUSH2 0x14CA JUMPI PUSH1 0x40 MLOAD PUSH4 0x68D2BF6B PUSH1 0xE1 SHL DUP2 MSTORE PUSH1 0x4 ADD PUSH1 0x40 MLOAD DUP1 SWAP2 SUB SWAP1 REVERT JUMPDEST DUP1 MLOAD DUP2 PUSH1 0x20 ADD REVERT JUMPDEST PUSH1 0x1 PUSH1 0x1 PUSH1 0xE0 SHL SUB NOT AND PUSH4 0xA85BD01 PUSH1 0xE1 SHL EQ SWAP1 POP JUMPDEST SWAP5 SWAP4 POP POP POP POP JUMP JUMPDEST PUSH1 0x60 PUSH1 0xA DUP1 SLOAD PUSH2 0x6E8 SWAP1 PUSH2 0x1C57 JUMP JUMPDEST PUSH1 0x60 PUSH1 0x0 PUSH2 0x150C DUP4 PUSH2 0x1609 JUMP JUMPDEST PUSH1 0x1 ADD SWAP1 POP PUSH1 0x0 DUP2 PUSH8 0xFFFFFFFFFFFFFFFF DUP2 GT ISZERO PUSH2 0x152C JUMPI PUSH2 0x152C PUSH2 0x1A65 JUMP JUMPDEST PUSH1 0x40 MLOAD SWAP1 DUP1 DUP3 MSTORE DUP1 PUSH1 0x1F ADD PUSH1 0x1F NOT AND PUSH1 0x20 ADD DUP3 ADD PUSH1 0x40 MSTORE DUP1 ISZERO PUSH2 0x1556 JUMPI PUSH1 0x20 DUP3 ADD DUP2 DUP1 CALLDATASIZE DUP4 CALLDATACOPY ADD SWAP1 POP JUMPDEST POP SWAP1 POP DUP2 DUP2 ADD PUSH1 0x20 ADD JUMPDEST PUSH1 0x0 NOT ADD PUSH16 0x181899199A1A9B1B9C1CB0B131B232B3 PUSH1 0x81 SHL PUSH1 0xA DUP7 MOD BYTE DUP2 MSTORE8 PUSH1 0xA DUP6 DIV SWAP5 POP DUP5 PUSH2 0x158F JUMPI PUSH2 0x1594 JUMP JUMPDEST PUSH2 0x1560 JUMP JUMPDEST POP SWAP4 SWAP3 POP POP POP JUMP JUMPDEST PUSH2 0x15A6 DUP4 DUP4 PUSH2 0x16E1 JUMP JUMPDEST PUSH1 0x1 PUSH1 0x1 PUSH1 0xA0 SHL SUB DUP4 AND EXTCODESIZE ISZERO PUSH2 0x8C9 JUMPI PUSH1 0x1 SLOAD DUP3 DUP2 SUB JUMPDEST PUSH2 0x15D0 PUSH1 0x0 DUP7 DUP4 DUP1 PUSH1 0x1 ADD SWAP5 POP DUP7 PUSH2 0x1407 JUMP JUMPDEST PUSH2 0x15ED JUMPI PUSH1 0x40 MLOAD PUSH4 0x68D2BF6B PUSH1 0xE1 SHL DUP2 MSTORE PUSH1 0x4 ADD PUSH1 0x40 MLOAD DUP1 SWAP2 SUB SWAP1 REVERT JUMPDEST DUP2 DUP2 LT PUSH2 0x15BD JUMPI DUP2 PUSH1 0x1 SLOAD EQ PUSH2 0x1602 JUMPI PUSH1 0x0 DUP1 REVERT JUMPDEST POP POP POP POP POP JUMP JUMPDEST PUSH1 0x0 DUP1 PUSH19 0x184F03E93FF9F4DAA797ED6E38ED64BF6A1F01 PUSH1 0x40 SHL DUP4 LT PUSH2 0x1648 JUMPI PUSH19 0x184F03E93FF9F4DAA797ED6E38ED64BF6A1F01 PUSH1 0x40 SHL DUP4 DIV SWAP3 POP PUSH1 0x40 ADD JUMPDEST PUSH14 0x4EE2D6D415B85ACEF8100000000 DUP4 LT PUSH2 0x1674 JUMPI PUSH14 0x4EE2D6D415B85ACEF8100000000 DUP4 DIV SWAP3 POP PUSH1 0x20 ADD JUMPDEST PUSH7 0x2386F26FC10000 DUP4 LT PUSH2 0x1692 JUMPI PUSH7 0x2386F26FC10000 DUP4 DIV SWAP3 POP PUSH1 0x10 ADD JUMPDEST PUSH4 0x5F5E100 DUP4 LT PUSH2 0x16AA JUMPI PUSH4 0x5F5E100 DUP4 DIV SWAP3 POP PUSH1 0x8 ADD JUMPDEST PUSH2 0x2710 DUP4 LT PUSH2 0x16BE JUMPI PUSH2 0x2710 DUP4 DIV SWAP3 POP PUSH1 0x4 ADD JUMPDEST PUSH1 0x64 DUP4 LT PUSH2 0x16D0 JUMPI PUSH1 0x64 DUP4 DIV SWAP3 POP PUSH1 0x2 ADD JUMPDEST PUSH1 0xA DUP4 LT PUSH2 0x6B8 JUMPI PUSH1 0x1 ADD SWAP3 SWAP2 POP POP JUMP JUMPDEST PUSH1 0x1 SLOAD DUP2 PUSH2 0x1702 JUMPI PUSH1 0x40 MLOAD PUSH4 0xB562E8DD PUSH1 0xE0 SHL DUP2 MSTORE PUSH1 0x4 ADD PUSH1 0x40 MLOAD DUP1 SWAP2 SUB SWAP1 REVERT JUMPDEST PUSH1 0x1 PUSH1 0x1 PUSH1 0xA0 SHL SUB DUP4 AND PUSH1 0x0 DUP2 DUP2 MSTORE PUSH1 0x6 PUSH1 0x20 SWAP1 DUP2 MSTORE PUSH1 0x40 DUP1 DUP4 KECCAK256 DUP1 SLOAD PUSH9 0x10000000000000001 DUP9 MUL ADD SWAP1 SSTORE DUP5 DUP4 MSTORE PUSH1 0x5 SWAP1 SWAP2 MSTORE DUP2 KECCAK256 PUSH1 0x1 DUP6 EQ PUSH1 0xE1 SHL TIMESTAMP PUSH1 0xA0 SHL OR DUP4 OR SWAP1 SSTORE DUP3 DUP5 ADD SWAP1 DUP4 SWAP1 DUP4 SWAP1 PUSH32 0xDDF252AD1BE2C89B69C2B068FC378DAA952BA7F163C4A11628F55A4DF523B3EF DUP2 DUP1 LOG4 PUSH1 0x1 DUP4 ADD JUMPDEST DUP2 DUP2 EQ PUSH2 0x17B1 JUMPI DUP1 DUP4 PUSH1 0x0 PUSH32 0xDDF252AD1BE2C89B69C2B068FC378DAA952BA7F163C4A11628F55A4DF523B3EF PUSH1 0x0 DUP1 LOG4 PUSH1 0x1 ADD PUSH2 0x1779 JUMP JUMPDEST POP DUP2 PUSH2 0x17CF JUMPI PUSH1 0x40 MLOAD PUSH3 0x2E0763 PUSH1 0xE8 SHL DUP2 MSTORE PUSH1 0x4 ADD PUSH1 0x40 MLOAD DUP1 SWAP2 SUB SWAP1 REVERT JUMPDEST PUSH1 0x1 SSTORE POP POP POP POP JUMP JUMPDEST DUP3 DUP1 SLOAD PUSH2 0x17E4 SWAP1 PUSH2 0x1C57 JUMP JUMPDEST SWAP1 PUSH1 0x0 MSTORE PUSH1 0x20 PUSH1 0x0 KECCAK256 SWAP1 PUSH1 0x1F ADD PUSH1 0x20 SWAP1 DIV DUP2 ADD SWAP3 DUP3 PUSH2 0x1806 JUMPI PUSH1 0x0 DUP6 SSTORE PUSH2 0x184C JUMP JUMPDEST DUP3 PUSH1 0x1F LT PUSH2 0x181F JUMPI DUP1 MLOAD PUSH1 0xFF NOT AND DUP4 DUP1 ADD OR DUP6 SSTORE PUSH2 0x184C JUMP JUMPDEST DUP3 DUP1 ADD PUSH1 0x1 ADD DUP6 SSTORE DUP3 ISZERO PUSH2 0x184C JUMPI SWAP2 DUP3 ADD JUMPDEST DUP3 DUP2 GT ISZERO PUSH2 0x184C JUMPI DUP3 MLOAD DUP3 SSTORE SWAP2 PUSH1 0x20 ADD SWAP2 SWAP1 PUSH1 0x1 ADD SWAP1 PUSH2 0x1831 JUMP JUMPDEST POP PUSH2 0x1858 SWAP3 SWAP2 POP PUSH2 0x185C JUMP JUMPDEST POP SWAP1 JUMP JUMPDEST JUMPDEST DUP1 DUP3 GT ISZERO PUSH2 0x1858 JUMPI PUSH1 0x0 DUP2 SSTORE PUSH1 0x1 ADD PUSH2 0x185D JUMP JUMPDEST PUSH1 0x1 PUSH1 0x1 PUSH1 0xE0 SHL SUB NOT DUP2 AND DUP2 EQ PUSH2 0xAC3 JUMPI PUSH1 0x0 DUP1 REVERT JUMPDEST PUSH1 0x0 PUSH1 0x20 DUP3 DUP5 SUB SLT ISZERO PUSH2 0x1899 JUMPI PUSH1 0x0 DUP1 REVERT JUMPDEST DUP2 CALLDATALOAD PUSH2 0x114A DUP2 PUSH2 0x1871 JUMP JUMPDEST DUP1 CALLDATALOAD DUP1 ISZERO ISZERO DUP2 EQ PUSH2 0x18B4 JUMPI PUSH1 0x0 DUP1 REVERT JUMPDEST SWAP2 SWAP1 POP JUMP JUMPDEST PUSH1 0x0 PUSH1 0x20 DUP3 DUP5 SUB SLT ISZERO PUSH2 0x18CB JUMPI PUSH1 0x0 DUP1 REVERT JUMPDEST PUSH2 0x114A DUP3 PUSH2 0x18A4 JUMP JUMPDEST DUP1 CALLDATALOAD PUSH1 0x1 PUSH1 0x1 PUSH1 0xA0 SHL SUB DUP2 AND DUP2 EQ PUSH2 0x18B4 JUMPI PUSH1 0x0 DUP1 REVERT JUMPDEST PUSH1 0x0 PUSH1 0x20 DUP3 DUP5 SUB SLT ISZERO PUSH2 0x18FD JUMPI PUSH1 0x0 DUP1 REVERT JUMPDEST PUSH2 0x114A DUP3 PUSH2 0x18D4 JUMP JUMPDEST PUSH1 0x0 JUMPDEST DUP4 DUP2 LT ISZERO PUSH2 0x1921 JUMPI DUP2 DUP2 ADD MLOAD DUP4 DUP3 ADD MSTORE PUSH1 0x20 ADD PUSH2 0x1909 JUMP JUMPDEST DUP4 DUP2 GT ISZERO PUSH2 0xFEF JUMPI POP POP PUSH1 0x0 SWAP2 ADD MSTORE JUMP JUMPDEST PUSH1 0x0 DUP2 MLOAD DUP1 DUP5 MSTORE PUSH2 0x194A DUP2 PUSH1 0x20 DUP7 ADD PUSH1 0x20 DUP7 ADD PUSH2 0x1906 JUMP JUMPDEST PUSH1 0x1F ADD PUSH1 0x1F NOT AND SWAP3 SWAP1 SWAP3 ADD PUSH1 0x20 ADD SWAP3 SWAP2 POP POP JUMP JUMPDEST PUSH1 0x20 DUP2 MSTORE PUSH1 0x0 PUSH2 0x114A PUSH1 0x20 DUP4 ADD DUP5 PUSH2 0x1932 JUMP JUMPDEST PUSH1 0x0 PUSH1 0x20 DUP3 DUP5 SUB SLT ISZERO PUSH2 0x1983 JUMPI PUSH1 0x0 DUP1 REVERT JUMPDEST POP CALLDATALOAD SWAP2 SWAP1 POP JUMP JUMPDEST PUSH1 0x0 DUP1 PUSH1 0x40 DUP4 DUP6 SUB SLT ISZERO PUSH2 0x199D JUMPI PUSH1 0x0 DUP1 REVERT JUMPDEST PUSH2 0x19A6 DUP4 PUSH2 0x18D4 JUMP JUMPDEST SWAP5 PUSH1 0x20 SWAP4 SWAP1 SWAP4 ADD CALLDATALOAD SWAP4 POP POP POP JUMP JUMPDEST PUSH1 0x0 DUP1 PUSH1 0x20 DUP4 DUP6 SUB SLT ISZERO PUSH2 0x19C7 JUMPI PUSH1 0x0 DUP1 REVERT JUMPDEST DUP3 CALLDATALOAD PUSH8 0xFFFFFFFFFFFFFFFF DUP1 DUP3 GT ISZERO PUSH2 0x19DF JUMPI PUSH1 0x0 DUP1 REVERT JUMPDEST DUP2 DUP6 ADD SWAP2 POP DUP6 PUSH1 0x1F DUP4 ADD SLT PUSH2 0x19F3 JUMPI PUSH1 0x0 DUP1 REVERT JUMPDEST DUP2 CALLDATALOAD DUP2 DUP2 GT ISZERO PUSH2 0x1A02 JUMPI PUSH1 0x0 DUP1 REVERT JUMPDEST DUP7 PUSH1 0x20 DUP3 PUSH1 0x5 SHL DUP6 ADD ADD GT ISZERO PUSH2 0x1A17 JUMPI PUSH1 0x0 DUP1 REVERT JUMPDEST PUSH1 0x20 SWAP3 SWAP1 SWAP3 ADD SWAP7 SWAP2 SWAP6 POP SWAP1 SWAP4 POP POP POP POP JUMP JUMPDEST PUSH1 0x0 DUP1 PUSH1 0x0 PUSH1 0x60 DUP5 DUP7 SUB SLT ISZERO PUSH2 0x1A3E JUMPI PUSH1 0x0 DUP1 REVERT JUMPDEST PUSH2 0x1A47 DUP5 PUSH2 0x18D4 JUMP JUMPDEST SWAP3 POP PUSH2 0x1A55 PUSH1 0x20 DUP6 ADD PUSH2 0x18D4 JUMP JUMPDEST SWAP2 POP PUSH1 0x40 DUP5 ADD CALLDATALOAD SWAP1 POP SWAP3 POP SWAP3 POP SWAP3 JUMP JUMPDEST PUSH4 0x4E487B71 PUSH1 0xE0 SHL PUSH1 0x0 MSTORE PUSH1 0x41 PUSH1 0x4 MSTORE PUSH1 0x24 PUSH1 0x0 REVERT JUMPDEST PUSH1 0x0 PUSH8 0xFFFFFFFFFFFFFFFF DUP1 DUP5 GT ISZERO PUSH2 0x1A96 JUMPI PUSH2 0x1A96 PUSH2 0x1A65 JUMP JUMPDEST PUSH1 0x40 MLOAD PUSH1 0x1F DUP6 ADD PUSH1 0x1F NOT SWAP1 DUP2 AND PUSH1 0x3F ADD AND DUP2 ADD SWAP1 DUP3 DUP3 GT DUP2 DUP4 LT OR ISZERO PUSH2 0x1ABE JUMPI PUSH2 0x1ABE PUSH2 0x1A65 JUMP JUMPDEST DUP2 PUSH1 0x40 MSTORE DUP1 SWAP4 POP DUP6 DUP2 MSTORE DUP7 DUP7 DUP7 ADD GT ISZERO PUSH2 0x1AD7 JUMPI PUSH1 0x0 DUP1 REVERT JUMPDEST DUP6 DUP6 PUSH1 0x20 DUP4 ADD CALLDATACOPY PUSH1 0x0 PUSH1 0x20 DUP8 DUP4 ADD ADD MSTORE POP POP POP SWAP4 SWAP3 POP POP POP JUMP JUMPDEST PUSH1 0x0 PUSH1 0x20 DUP3 DUP5 SUB SLT ISZERO PUSH2 0x1B03 JUMPI PUSH1 0x0 DUP1 REVERT JUMPDEST DUP2 CALLDATALOAD PUSH8 0xFFFFFFFFFFFFFFFF DUP2 GT ISZERO PUSH2 0x1B1A JUMPI PUSH1 0x0 DUP1 REVERT JUMPDEST DUP3 ADD PUSH1 0x1F DUP2 ADD DUP5 SGT PUSH2 0x1B2B JUMPI PUSH1 0x0 DUP1 REVERT JUMPDEST PUSH2 0x14E8 DUP5 DUP3 CALLDATALOAD PUSH1 0x20 DUP5 ADD PUSH2 0x1A7B JUMP JUMPDEST PUSH1 0x0 DUP1 PUSH1 0x40 DUP4 DUP6 SUB SLT ISZERO PUSH2 0x1B4D JUMPI PUSH1 0x0 DUP1 REVERT JUMPDEST PUSH2 0x1B56 DUP4 PUSH2 0x18D4 JUMP JUMPDEST SWAP2 POP PUSH2 0x1B64 PUSH1 0x20 DUP5 ADD PUSH2 0x18A4 JUMP JUMPDEST SWAP1 POP SWAP3 POP SWAP3 SWAP1 POP JUMP JUMPDEST PUSH1 0x0 DUP1 PUSH1 0x0 DUP1 PUSH1 0x80 DUP6 DUP8 SUB SLT ISZERO PUSH2 0x1B83 JUMPI PUSH1 0x0 DUP1 REVERT JUMPDEST PUSH2 0x1B8C DUP6 PUSH2 0x18D4 JUMP JUMPDEST SWAP4 POP PUSH2 0x1B9A PUSH1 0x20 DUP7 ADD PUSH2 0x18D4 JUMP JUMPDEST SWAP3 POP PUSH1 0x40 DUP6 ADD CALLDATALOAD SWAP2 POP PUSH1 0x60 DUP6 ADD CALLDATALOAD PUSH8 0xFFFFFFFFFFFFFFFF DUP2 GT ISZERO PUSH2 0x1BBD JUMPI PUSH1 0x0 DUP1 REVERT JUMPDEST DUP6 ADD PUSH1 0x1F DUP2 ADD DUP8 SGT PUSH2 0x1BCE JUMPI PUSH1 0x0 DUP1 REVERT JUMPDEST PUSH2 0x1BDD DUP8 DUP3 CALLDATALOAD PUSH1 0x20 DUP5 ADD PUSH2 0x1A7B JUMP JUMPDEST SWAP2 POP POP SWAP3 SWAP6 SWAP2 SWAP5 POP SWAP3 POP JUMP JUMPDEST PUSH1 0x20 DUP1 DUP3 MSTORE DUP3 MLOAD DUP3 DUP3 ADD DUP2 SWAP1 MSTORE PUSH1 0x0 SWAP2 SWAP1 DUP5 DUP3 ADD SWAP1 PUSH1 0x40 DUP6 ADD SWAP1 DUP5 JUMPDEST DUP2 DUP2 LT ISZERO PUSH2 0x1C21 JUMPI DUP4 MLOAD DUP4 MSTORE SWAP3 DUP5 ADD SWAP3 SWAP2 DUP5 ADD SWAP2 PUSH1 0x1 ADD PUSH2 0x1C05 JUMP JUMPDEST POP SWAP1 SWAP7 SWAP6 POP POP POP POP POP POP JUMP JUMPDEST PUSH1 0x0 DUP1 PUSH1 0x40 DUP4 DUP6 SUB SLT ISZERO PUSH2 0x1C40 JUMPI PUSH1 0x0 DUP1 REVERT JUMPDEST PUSH2 0x1C49 DUP4 PUSH2 0x18D4 JUMP JUMPDEST SWAP2 POP PUSH2 0x1B64 PUSH1 0x20 DUP5 ADD PUSH2 0x18D4 JUMP JUMPDEST PUSH1 0x1 DUP2 DUP2 SHR SWAP1 DUP3 AND DUP1 PUSH2 0x1C6B JUMPI PUSH1 0x7F DUP3 AND SWAP2 POP JUMPDEST PUSH1 0x20 DUP3 LT DUP2 EQ ISZERO PUSH2 0x1C8C JUMPI PUSH4 0x4E487B71 PUSH1 0xE0 SHL PUSH1 0x0 MSTORE PUSH1 0x22 PUSH1 0x4 MSTORE PUSH1 0x24 PUSH1 0x0 REVERT JUMPDEST POP SWAP2 SWAP1 POP JUMP JUMPDEST PUSH4 0x4E487B71 PUSH1 0xE0 SHL PUSH1 0x0 MSTORE PUSH1 0x32 PUSH1 0x4 MSTORE PUSH1 0x24 PUSH1 0x0 REVERT JUMPDEST PUSH4 0x4E487B71 PUSH1 0xE0 SHL PUSH1 0x0 MSTORE PUSH1 0x11 PUSH1 0x4 MSTORE PUSH1 0x24 PUSH1 0x0 REVERT JUMPDEST PUSH1 0x0 PUSH1 0x0 NOT DUP3 EQ ISZERO PUSH2 0x1CD2 JUMPI PUSH2 0x1CD2 PUSH2 0x1CA8 JUMP JUMPDEST POP PUSH1 0x1 ADD SWAP1 JUMP JUMPDEST PUSH1 0x0 DUP3 NOT DUP3 GT ISZERO PUSH2 0x1CEC JUMPI PUSH2 0x1CEC PUSH2 0x1CA8 JUMP JUMPDEST POP ADD SWAP1 JUMP JUMPDEST PUSH1 0x0 DUP2 PUSH1 0x0 NOT DIV DUP4 GT DUP3 ISZERO ISZERO AND ISZERO PUSH2 0x1D0B JUMPI PUSH2 0x1D0B PUSH2 0x1CA8 JUMP JUMPDEST POP MUL SWAP1 JUMP JUMPDEST PUSH1 0x0 DUP5 MLOAD PUSH1 0x20 PUSH2 0x1D23 DUP3 DUP6 DUP4 DUP11 ADD PUSH2 0x1906 JUMP JUMPDEST DUP6 MLOAD SWAP2 DUP5 ADD SWAP2 PUSH2 0x1D36 DUP2 DUP5 DUP5 DUP11 ADD PUSH2 0x1906 JUMP JUMPDEST DUP6 SLOAD SWAP3 ADD SWAP2 PUSH1 0x0 SWAP1 PUSH1 0x1 DUP2 DUP2 SHR SWAP1 DUP1 DUP4 AND DUP1 PUSH2 0x1D53 JUMPI PUSH1 0x7F DUP4 AND SWAP3 POP JUMPDEST DUP6 DUP4 LT DUP2 EQ ISZERO PUSH2 0x1D71 JUMPI PUSH4 0x4E487B71 PUSH1 0xE0 SHL DUP6 MSTORE PUSH1 0x22 PUSH1 0x4 MSTORE PUSH1 0x24 DUP6 REVERT JUMPDEST DUP1 DUP1 ISZERO PUSH2 0x1D85 JUMPI PUSH1 0x1 DUP2 EQ PUSH2 0x1D96 JUMPI PUSH2 0x1DC3 JUMP JUMPDEST PUSH1 0xFF NOT DUP6 AND DUP9 MSTORE DUP4 DUP9 ADD SWAP6 POP PUSH2 0x1DC3 JUMP JUMPDEST PUSH1 0x0 DUP12 DUP2 MSTORE PUSH1 0x20 SWAP1 KECCAK256 PUSH1 0x0 JUMPDEST DUP6 DUP2 LT ISZERO PUSH2 0x1DBB JUMPI DUP2 SLOAD DUP11 DUP3 ADD MSTORE SWAP1 DUP5 ADD SWAP1 DUP9 ADD PUSH2 0x1DA2 JUMP JUMPDEST POP POP DUP4 DUP9 ADD SWAP6 POP JUMPDEST POP SWAP4 SWAP12 SWAP11 POP POP POP POP POP POP POP POP POP POP POP JUMP JUMPDEST PUSH1 0x1 PUSH1 0x1 PUSH1 0xA0 SHL SUB DUP6 DUP2 AND DUP3 MSTORE DUP5 AND PUSH1 0x20 DUP3 ADD MSTORE PUSH1 0x40 DUP2 ADD DUP4 SWAP1 MSTORE PUSH1 0x80 PUSH1 0x60 DUP3 ADD DUP2 SWAP1 MSTORE PUSH1 0x0 SWAP1 PUSH2 0x1E07 SWAP1 DUP4 ADD DUP5 PUSH2 0x1932 JUMP JUMPDEST SWAP7 SWAP6 POP POP POP POP POP POP JUMP JUMPDEST PUSH1 0x0 PUSH1 0x20 DUP3 DUP5 SUB SLT ISZERO PUSH2 0x1E23 JUMPI PUSH1 0x0 DUP1 REVERT JUMPDEST DUP2 MLOAD PUSH2 0x114A DUP2 PUSH2 0x1871 JUMP INVALID LOG2 PUSH5 0x6970667358 0x22 SLT KECCAK256 PUSH3 0x6C7BFD BALANCE EXTCODECOPY 0xC0 PUSH4 0x45769461 EXP PUSH17 0x894C6722E8525AE223ED43CCBBE7E8E8CE DUP16 PUSH5 0x736F6C6343 STOP ADDMOD 0xC STOP CALLER "
				},
				"gasEstimates": {
					"creation": {
						"codeDepositCost": "1556000",
						"executionCost": "infinite",
						"totalCost": "infinite"
					},
					"external": {
						"AllowlistLimit()": "2340",
						"addressMintedBalance(address)": "2609",
						"allowlist(address)": "2653",
						"allowlistUsers(address[])": "infinite",
						"approve(address,uint256)": "infinite",
						"balanceOf(address)": "2685",
						"baseExtension()": "infinite",
						"cost()": "2385",
						"getApproved(uint256)": "6903",
						"isAllowlisted(address)": "2629",
						"isApprovedForAll(address,address)": "infinite",
						"maxSupply()": "2361",
						"mint(uint256)": "infinite",
						"name()": "infinite",
						"onlyAllowlisted()": "2378",
						"owner()": "2376",
						"ownerOf(uint256)": "infinite",
						"ownerOfTokenIds(address)": "infinite",
						"pause(bool)": "26762",
						"paused()": "2432",
						"removeUsersFromAllowlist(address[])": "infinite",
						"renounceOwnership()": "infinite",
						"safeTransferFrom(address,address,uint256)": "infinite",
						"safeTransferFrom(address,address,uint256,bytes)": "infinite",
						"setApprovalForAll(address,bool)": "infinite",
						"setBaseExtension(string)": "infinite",
						"setBaseURI(string)": "infinite",
						"setOnlyAllowlisted(bool)": "26753",
						"supportsInterface(bytes4)": "557",
						"symbol()": "infinite",
						"tokenURI(uint256)": "infinite",
						"totalSupply()": "4466",
						"transferFrom(address,address,uint256)": "infinite",
						"transferOwnership(address)": "28465",
						"withdraw()": "infinite"
					},
					"internal": {
						"_baseURI()": "infinite"
					}
				},
				"methodIdentifiers": {
					"AllowlistLimit()": "b3807b1d",
					"addressMintedBalance(address)": "18cae269",
					"allowlist(address)": "a7cd52cb",
					"allowlistUsers(address[])": "5b9e3ccf",
					"approve(address,uint256)": "095ea7b3",
					"balanceOf(address)": "70a08231",
					"baseExtension()": "c6682862",
					"cost()": "13faede6",
					"getApproved(uint256)": "081812fc",
					"isAllowlisted(address)": "05a3b809",
					"isApprovedForAll(address,address)": "e985e9c5",
					"maxSupply()": "d5abeb01",
					"mint(uint256)": "a0712d68",
					"name()": "06fdde03",
					"onlyAllowlisted()": "674c02aa",
					"owner()": "8da5cb5b",
					"ownerOf(uint256)": "6352211e",
					"ownerOfTokenIds(address)": "ca8a7d5e",
					"pause(bool)": "02329a29",
					"paused()": "5c975abb",
					"removeUsersFromAllowlist(address[])": "142b0fbe",
					"renounceOwnership()": "715018a6",
					"safeTransferFrom(address,address,uint256)": "42842e0e",
					"safeTransferFrom(address,address,uint256,bytes)": "b88d4fde",
					"setApprovalForAll(address,bool)": "a22cb465",
					"setBaseExtension(string)": "da3ef23f",
					"setBaseURI(string)": "55f804b3",
					"setOnlyAllowlisted(bool)": "17dc10c4",
					"supportsInterface(bytes4)": "01ffc9a7",
					"symbol()": "95d89b41",
					"tokenURI(uint256)": "c87b56dd",
					"totalSupply()": "18160ddd",
					"transferFrom(address,address,uint256)": "23b872dd",
					"transferOwnership(address)": "f2fde38b",
					"withdraw()": "3ccfd60b"
				}
			},
			"storageLayout": {
				"storage": [
					{
						"astId": 1047,
						"contract": "contracts/fourtwo.sol:fourtwo",
						"label": "_owner",
						"offset": 0,
						"slot": "0",
						"type": "t_address"
					},
					{
						"astId": 1320,
						"contract": "contracts/fourtwo.sol:fourtwo",
						"label": "_currentIndex",
						"offset": 0,
						"slot": "1",
						"type": "t_uint256"
					},
					{
						"astId": 1322,
						"contract": "contracts/fourtwo.sol:fourtwo",
						"label": "_burnCounter",
						"offset": 0,
						"slot": "2",
						"type": "t_uint256"
					},
					{
						"astId": 1324,
						"contract": "contracts/fourtwo.sol:fourtwo",
						"label": "_name",
						"offset": 0,
						"slot": "3",
						"type": "t_string_storage"
					},
					{
						"astId": 1326,
						"contract": "contracts/fourtwo.sol:fourtwo",
						"label": "_symbol",
						"offset": 0,
						"slot": "4",
						"type": "t_string_storage"
					},
					{
						"astId": 1330,
						"contract": "contracts/fourtwo.sol:fourtwo",
						"label": "_packedOwnerships",
						"offset": 0,
						"slot": "5",
						"type": "t_mapping(t_uint256,t_uint256)"
					},
					{
						"astId": 1334,
						"contract": "contracts/fourtwo.sol:fourtwo",
						"label": "_packedAddressData",
						"offset": 0,
						"slot": "6",
						"type": "t_mapping(t_address,t_uint256)"
					},
					{
						"astId": 1339,
						"contract": "contracts/fourtwo.sol:fourtwo",
						"label": "_tokenApprovals",
						"offset": 0,
						"slot": "7",
						"type": "t_mapping(t_uint256,t_struct(TokenApprovalRef)1252_storage)"
					},
					{
						"astId": 1345,
						"contract": "contracts/fourtwo.sol:fourtwo",
						"label": "_operatorApprovals",
						"offset": 0,
						"slot": "8",
						"type": "t_mapping(t_address,t_mapping(t_address,t_bool))"
					},
					{
						"astId": 1163,
						"contract": "contracts/fourtwo.sol:fourtwo",
						"label": "_status",
						"offset": 0,
						"slot": "9",
						"type": "t_uint256"
					},
					{
						"astId": 3074,
						"contract": "contracts/fourtwo.sol:fourtwo",
						"label": "baseURI",
						"offset": 0,
						"slot": "10",
						"type": "t_string_storage"
					},
					{
						"astId": 3077,
						"contract": "contracts/fourtwo.sol:fourtwo",
						"label": "baseExtension",
						"offset": 0,
						"slot": "11",
						"type": "t_string_storage"
					},
					{
						"astId": 3080,
						"contract": "contracts/fourtwo.sol:fourtwo",
						"label": "cost",
						"offset": 0,
						"slot": "12",
						"type": "t_uint256"
					},
					{
						"astId": 3083,
						"contract": "contracts/fourtwo.sol:fourtwo",
						"label": "maxSupply",
						"offset": 0,
						"slot": "13",
						"type": "t_uint256"
					},
					{
						"astId": 3086,
						"contract": "contracts/fourtwo.sol:fourtwo",
						"label": "AllowlistLimit",
						"offset": 0,
						"slot": "14",
						"type": "t_uint256"
					},
					{
						"astId": 3089,
						"contract": "contracts/fourtwo.sol:fourtwo",
						"label": "paused",
						"offset": 0,
						"slot": "15",
						"type": "t_bool"
					},
					{
						"astId": 3092,
						"contract": "contracts/fourtwo.sol:fourtwo",
						"label": "onlyAllowlisted",
						"offset": 1,
						"slot": "15",
						"type": "t_bool"
					},
					{
						"astId": 3096,
						"contract": "contracts/fourtwo.sol:fourtwo",
						"label": "allowlist",
						"offset": 0,
						"slot": "16",
						"type": "t_mapping(t_address,t_bool)"
					},
					{
						"astId": 3100,
						"contract": "contracts/fourtwo.sol:fourtwo",
						"label": "addressMintedBalance",
						"offset": 0,
						"slot": "17",
						"type": "t_mapping(t_address,t_uint256)"
					}
				],
				"types": {
					"t_address": {
						"encoding": "inplace",
						"label": "address",
						"numberOfBytes": "20"
					},
					"t_bool": {
						"encoding": "inplace",
						"label": "bool",
						"numberOfBytes": "1"
					},
					"t_mapping(t_address,t_bool)": {
						"encoding": "mapping",
						"key": "t_address",
						"label": "mapping(address => bool)",
						"numberOfBytes": "32",
						"value": "t_bool"
					},
					"t_mapping(t_address,t_mapping(t_address,t_bool))": {
						"encoding": "mapping",
						"key": "t_address",
						"label": "mapping(address => mapping(address => bool))",
						"numberOfBytes": "32",
						"value": "t_mapping(t_address,t_bool)"
					},
					"t_mapping(t_address,t_uint256)": {
						"encoding": "mapping",
						"key": "t_address",
						"label": "mapping(address => uint256)",
						"numberOfBytes": "32",
						"value": "t_uint256"
					},
					"t_mapping(t_uint256,t_struct(TokenApprovalRef)1252_storage)": {
						"encoding": "mapping",
						"key": "t_uint256",
						"label": "mapping(uint256 => struct ERC721A.TokenApprovalRef)",
						"numberOfBytes": "32",
						"value": "t_struct(TokenApprovalRef)1252_storage"
					},
					"t_mapping(t_uint256,t_uint256)": {
						"encoding": "mapping",
						"key": "t_uint256",
						"label": "mapping(uint256 => uint256)",
						"numberOfBytes": "32",
						"value": "t_uint256"
					},
					"t_string_storage": {
						"encoding": "bytes",
						"label": "string",
						"numberOfBytes": "32"
					},
					"t_struct(TokenApprovalRef)1252_storage": {
						"encoding": "inplace",
						"label": "struct ERC721A.TokenApprovalRef",
						"members": [
							{
								"astId": 1251,
								"contract": "contracts/fourtwo.sol:fourtwo",
								"label": "value",
								"offset": 0,
								"slot": "0",
								"type": "t_address"
							}
						],
						"numberOfBytes": "32"
					},
					"t_uint256": {
						"encoding": "inplace",
						"label": "uint256",
						"numberOfBytes": "32"
					}
				}
			},
			"userdoc": {
				"errors": {
					"ApprovalCallerNotOwnerNorApproved()": [
						{
							"notice": "The caller must own the token or be an approved operator."
						}
					],
					"ApprovalQueryForNonexistentToken()": [
						{
							"notice": "The token does not exist."
						}
					],
					"BalanceQueryForZeroAddress()": [
						{
							"notice": "Cannot query the balance for the zero address."
						}
					],
					"MintERC2309QuantityExceedsLimit()": [
						{
							"notice": "The `quantity` minted with ERC2309 exceeds the safety limit."
						}
					],
					"MintToZeroAddress()": [
						{
							"notice": "Cannot mint to the zero address."
						}
					],
					"MintZeroQuantity()": [
						{
							"notice": "The quantity of tokens minted must be more than zero."
						}
					],
					"OwnerQueryForNonexistentToken()": [
						{
							"notice": "The token does not exist."
						}
					],
					"OwnershipNotInitializedForExtraData()": [
						{
							"notice": "The `extraData` cannot be set on an unintialized ownership slot."
						}
					],
					"TransferCallerNotOwnerNorApproved()": [
						{
							"notice": "The caller must own the token or be an approved operator."
						}
					],
					"TransferFromIncorrectOwner()": [
						{
							"notice": "The token must be owned by `from`."
						}
					],
					"TransferToNonERC721ReceiverImplementer()": [
						{
							"notice": "Cannot safely transfer to a contract that does not implement the ERC721Receiver interface."
						}
					],
					"TransferToZeroAddress()": [
						{
							"notice": "Cannot transfer to the zero address."
						}
					],
					"URIQueryForNonexistentToken()": [
						{
							"notice": "The token does not exist."
						}
					]
				},
				"kind": "user",
				"methods": {},
				"version": 1
			}
		}
	}
}