{
	"data": {
		"bytecode": {
			"linkReferences": {},
			"object": "60c06040526005608081905264173539b7b760d91b60a0908152620000289160109190620003d7565b5066753d533d96800060115560466012819055600960135560056014556015805466ffffffffffffff19169055604080518281526108e0810190915290602082016108c080368337505081516200008792601892506020019062000466565b506012546001600160401b03811115620000a557620000a56200067d565b604051908082528060200260200182016040528015620000cf578160200160208202803683370190505b508051620000e69160199160209091019062000466565b506012546001600160401b038111156200010457620001046200067d565b6040519080825280602002602001820160405280156200012e578160200160208202803683370190505b5080516200014591601a9160209091019062000466565b506012546001600160401b038111156200016357620001636200067d565b6040519080825280602002602001820160405280156200018d578160200160208202803683370190505b508051620001a491601b9160209091019062000466565b506012546001600160401b03811115620001c257620001c26200067d565b604051908082528060200260200182016040528015620001ec578160200160208202803683370190505b5080516200020391601c9160209091019062000466565b503480156200021157600080fd5b50604051620031d9380380620031d98339810160408190526200023491620005d6565b604051806040016040528060078152602001661a5b5a5d195cdd60ca1b81525060405180604001604052806003815260200162494d4960e81b8152506200028a62000284620002e060201b60201c565b620002e4565b81516200029f906003906020850190620003d7565b508051620002b5906004906020840190620003d7565b50506000600190815560095550620002cd8262000334565b620002d88162000357565b505062000693565b3390565b600080546001600160a01b038381166001600160a01b0319831681178455604051919092169283917f8be0079c531659141344cd1fd0a4f28419497f9722a3daafe3b4186f6b6457e09190a35050565b6200033e62000376565b80516200035390600a906020840190620003d7565b5050565b6200036162000376565b80516200035390600b906020840190620003d7565b6000546001600160a01b03163314620003d55760405162461bcd60e51b815260206004820181905260248201527f4f776e61626c653a2063616c6c6572206973206e6f7420746865206f776e6572604482015260640160405180910390fd5b565b828054620003e59062000640565b90600052602060002090601f01602090048101928262000409576000855562000454565b82601f106200042457805160ff191683800117855562000454565b8280016001018555821562000454579182015b828111156200045457825182559160200191906001019062000437565b506200046292915062000508565b5090565b82805482825590600052602060002090601f01602090048101928215620004545791602002820160005b83821115620004cf57835183826101000a81548160ff021916908315150217905550926020019260010160208160000104928301926001030262000490565b8015620004fe5782816101000a81549060ff0219169055600101602081600001049283019260010302620004cf565b5050620004629291505b5b8082111562000462576000815560010162000509565b600082601f8301126200053157600080fd5b81516001600160401b03808211156200054e576200054e6200067d565b604051601f8301601f19908116603f011681019082821181831017156200057957620005796200067d565b816040528381526020925086838588010111156200059657600080fd5b600091505b83821015620005ba57858201830151818301840152908201906200059b565b83821115620005cc5760008385830101525b9695505050505050565b60008060408385031215620005ea57600080fd5b82516001600160401b03808211156200060257600080fd5b62000610868387016200051f565b935060208501519150808211156200062757600080fd5b5062000636858286016200051f565b9150509250929050565b600181811c908216806200065557607f821691505b602082108114156200067757634e487b7160e01b600052602260045260246000fd5b50919050565b634e487b7160e01b600052604160045260246000fd5b612b3680620006a36000396000f3fe6080604052600436106103ad5760003560e01c806370a08231116101e7578063b1544bde1161010d578063ca8a7d5e116100a0578063e985e9c51161006f578063e985e9c514610ac6578063eade46e614610b0f578063f2fde38b14610b2f578063fd1dae2e14610b4f57600080fd5b8063ca8a7d5e14610a44578063cfa0329114610a71578063d5abeb0114610a90578063da3ef23f14610aa657600080fd5b8063c4d2e8d6116100dc578063c4d2e8d6146109cf578063c6682862146109ef578063c87b56dd14610a04578063c8a7f86d14610a2457600080fd5b8063b1544bde14610964578063b3807b1d14610979578063b824ad231461098f578063b88d4fde146109af57600080fd5b80638965dd9711610185578063a0712d6811610154578063a0712d68146108ec578063a22cb465146108ff578063a7cd52cb1461091f578063ac0344671461094f57600080fd5b80638965dd97146108795780638da5cb5b1461089957806395d89b41146108b75780639b3929da146108cc57600080fd5b80637d8afd0f116101c15780637d8afd0f146107f55780637ea63e2b146108155780637f0a6f65146108355780638198d1621461085857600080fd5b806370a08231146107a0578063715018a6146107c05780637ccd381d146107d557600080fd5b806323b872dd116102d757806355f804b31161026a5780635c975abb116102395780635c975abb14610730578063605def511461074a5780636352211e1461075f578063674c02aa1461077f57600080fd5b806355f804b3146106b057806358211373146106d0578063593e6fe4146106f05780635b9e3ccf1461071057600080fd5b806336404ff9116102a657806336404ff91461064857806339516a26146106685780633ccfd60b1461068857806342842e0e1461069057600080fd5b806323b872dd146105d057806330b86627146105f0578063330ba7ad1461060657806335a55caa1461062857600080fd5b8063095ea7b31161034f578063176cd6451161031e578063176cd6451461054a57806317dc10c41461056a57806318160ddd1461058a57806318cae269146105a357600080fd5b8063095ea7b3146104d157806313ef321f146104f157806313faede614610506578063142b0fbe1461052a57600080fd5b806305a3b8091161038b57806305a3b8091461041e57806306fdde0314610457578063081812fc1461047957806309533e46146104b157600080fd5b806301ddabe7146103b257806301ffc9a7146103c957806302329a29146103fe575b600080fd5b3480156103be57600080fd5b506103c7610b6f565b005b3480156103d557600080fd5b506103e96103e4366004612750565b610b8c565b60405190151581526020015b60405180910390f35b34801561040a57600080fd5b506103c7610419366004612735565b610bde565b34801561042a57600080fd5b506103e9610439366004612566565b6001600160a01b031660009081526016602052604090205460ff1690565b34801561046357600080fd5b5061046c610bf9565b6040516103f5919061295d565b34801561048557600080fd5b506104996104943660046127d3565b610c8b565b6040516001600160a01b0390911681526020016103f5565b3480156104bd57600080fd5b506103e96104cc3660046127d3565b610ccf565b3480156104dd57600080fd5b506103c76104ec366004612696565b610d0b565b3480156104fd57600080fd5b506103c7610dab565b34801561051257600080fd5b5061051c60115481565b6040519081526020016103f5565b34801561053657600080fd5b506103c76105453660046126c0565b610dc4565b34801561055657600080fd5b506103c76105653660046127d3565b610e43565b34801561057657600080fd5b506103c7610585366004612735565b610f16565b34801561059657600080fd5b506002546001540361051c565b3480156105af57600080fd5b5061051c6105be366004612566565b60176020526000908152604090205481565b3480156105dc57600080fd5b506103c76105eb3660046125b4565b610f3f565b3480156105fc57600080fd5b5061051c60135481565b34801561061257600080fd5b506015546103e990640100000000900460ff1681565b34801561063457600080fd5b506103e96106433660046127d3565b6110d0565b34801561065457600080fd5b506103c761066336600461278a565b6110e5565b34801561067457600080fd5b506015546103e99062010000900460ff1681565b6103c7611104565b34801561069c57600080fd5b506103c76106ab3660046125b4565b611149565b3480156106bc57600080fd5b506103c76106cb36600461278a565b611164565b3480156106dc57600080fd5b506103e96106eb3660046127d3565b61117f565b3480156106fc57600080fd5b506103e961070b3660046127d3565b611194565b34801561071c57600080fd5b506103c761072b3660046126c0565b6111a9565b34801561073c57600080fd5b506015546103e99060ff1681565b34801561075657600080fd5b506103c7611223565b34801561076b57600080fd5b5061049961077a3660046127d3565b61123e565b34801561078b57600080fd5b506015546103e990600160301b900460ff1681565b3480156107ac57600080fd5b5061051c6107bb366004612566565b611249565b3480156107cc57600080fd5b506103c7611298565b3480156107e157600080fd5b506103c76107f03660046127d3565b6112ac565b34801561080157600080fd5b506103c761081036600461278a565b61134a565b34801561082157600080fd5b506103c761083036600461278a565b611365565b34801561084157600080fd5b506015546103e99065010000000000900460ff1681565b34801561086457600080fd5b506015546103e9906301000000900460ff1681565b34801561088557600080fd5b506103e96108943660046127d3565b611380565b3480156108a557600080fd5b506000546001600160a01b0316610499565b3480156108c357600080fd5b5061046c611395565b3480156108d857600080fd5b506103c76108e73660046127d3565b6113a4565b6103c76108fa3660046127d3565b6114c8565b34801561090b57600080fd5b506103c761091a36600461266c565b611883565b34801561092b57600080fd5b506103e961093a366004612566565b60166020526000908152604090205460ff1681565b34801561095b57600080fd5b506103c76118ef565b34801561097057600080fd5b506103c7611910565b34801561098557600080fd5b5061051c60145481565b34801561099b57600080fd5b506103c76109aa36600461278a565b61192f565b3480156109bb57600080fd5b506103c76109ca3660046125f0565b61194a565b3480156109db57600080fd5b506103c76109ea3660046127d3565b611994565b3480156109fb57600080fd5b5061046c6119a1565b348015610a1057600080fd5b5061046c610a1f3660046127d3565b611a2f565b348015610a3057600080fd5b506103c7610a3f36600461278a565b611c6a565b348015610a5057600080fd5b50610a64610a5f366004612566565b611c85565b6040516103f59190612919565b348015610a7d57600080fd5b506015546103e990610100900460ff1681565b348015610a9c57600080fd5b5061051c60125481565b348015610ab257600080fd5b506103c7610ac136600461278a565b611d5d565b348015610ad257600080fd5b506103e9610ae1366004612581565b6001600160a01b03918216600090815260086020908152604080832093909416825291909152205460ff1690565b348015610b1b57600080fd5b506103c7610b2a3660046127d3565b611d78565b348015610b3b57600080fd5b506103c7610b4a366004612566565b611e16565b348015610b5b57600080fd5b506103c7610b6a3660046127d3565b611e8c565b610b77611f2a565b6015805463ff00000019166301000000179055565b60006301ffc9a760e01b6001600160e01b031983161480610bbd57506380ac58cd60e01b6001600160e01b03198316145b80610bd85750635b5e139f60e01b6001600160e01b03198316145b92915050565b610be6611f2a565b6015805460ff1916911515919091179055565b606060038054610c0890612a28565b80601f0160208091040260200160405190810160405280929190818152602001828054610c3490612a28565b8015610c815780601f10610c5657610100808354040283529160200191610c81565b820191906000526020600020905b815481529060010190602001808311610c6457829003601f168201915b5050505050905090565b6000610c9682611f84565b610cb3576040516333d1c03960e21b815260040160405180910390fd5b506000908152600760205260409020546001600160a01b031690565b6000601a8281548110610ce457610ce4612abe565b90600052602060002090602091828204019190069054906101000a900460ff169050919050565b6000610d168261123e565b9050336001600160a01b03821614610d4f57610d328133610ae1565b610d4f576040516367d9dca160e11b815260040160405180910390fd5b60008281526007602052604080822080546001600160a01b0319166001600160a01b0387811691821790925591518593918516917f8c5be1e5ebec7d5bd14f71427d1e84f3dd0314c0f7b2291e5b200ac8c7c3b92591a4505050565b610db3611f2a565b6015805461ff001916610100179055565b610dcc611f2a565b60005b81811015610e3e57600060166000858585818110610def57610def612abe565b9050602002016020810190610e049190612566565b6001600160a01b031681526020810191909152604001600020805460ff191691151591909117905580610e3681612a63565b915050610dcf565b505050565b33610e4d8261123e565b6001600160a01b031614610e6057600080fd5b601554610100900460ff1615610e7557600080fd5b601b8181548110610e8857610e88612abe565b90600052602060002090602091828204019190069054906101000a900460ff161515600115151415610ed55760405162461bcd60e51b8152600401610ecc90612970565b60405180910390fd5b6001601b8281548110610eea57610eea612abe565b90600052602060002090602091828204019190066101000a81548160ff02191690831515021790555050565b610f1e611f2a565b60158054911515600160301b0266ff00000000000019909216919091179055565b6000610f4a82611fac565b9050836001600160a01b0316816001600160a01b031614610f7d5760405162a1148160e81b815260040160405180910390fd5b60008281526007602052604090208054338082146001600160a01b03881690911417610fca57610fad8633610ae1565b610fca57604051632ce44b5f60e11b815260040160405180910390fd5b6001600160a01b038516610ff157604051633a954ecd60e21b815260040160405180910390fd5b8015610ffc57600082555b6001600160a01b038681166000908152600660205260408082208054600019019055918716808252919020805460010190554260a01b17600160e11b17600085815260056020526040902055600160e11b831661108757600184016000818152600560205260409020546110855760015481146110855760008181526005602052604090208490555b505b83856001600160a01b0316876001600160a01b03167fddf252ad1be2c89b69c2b068fc378daa952ba7f163c4a11628f55a4df523b3ef60405160405180910390a4505050505050565b600060188281548110610ce457610ce4612abe565b6110ed611f2a565b805161110090600c90602084019061242b565b5050565b61110c611f2a565b600080546040516001600160a01b03909116914780156108fc02929091818181858888f19350505050158015611146573d6000803e3d6000fd5b50565b610e3e8383836040518060200160405280600081525061194a565b61116c611f2a565b805161110090600a90602084019061242b565b600060198281548110610ce457610ce4612abe565b6000601b8281548110610ce457610ce4612abe565b6111b1611f2a565b60005b81811015610e3e576001601660008585858181106111d4576111d4612abe565b90506020020160208101906111e99190612566565b6001600160a01b031681526020810191909152604001600020805460ff19169115159190911790558061121b81612a63565b9150506111b4565b61122b611f2a565b6015805462ff0000191662010000179055565b6000610bd882611fac565b60006001600160a01b038216611272576040516323d3ad8160e21b815260040160405180910390fd5b506001600160a01b031660009081526006602052604090205467ffffffffffffffff1690565b6112a0611f2a565b6112aa600061200d565b565b336112b68261123e565b6001600160a01b0316146112c957600080fd5b601554610100900460ff16156112de57600080fd5b601981815481106112f1576112f1612abe565b90600052602060002090602091828204019190069054906101000a900460ff1615156001151514156113355760405162461bcd60e51b8152600401610ecc90612970565b600160198281548110610eea57610eea612abe565b611352611f2a565b805161110090600f90602084019061242b565b61136d611f2a565b805161110090600b90602084019061242b565b6000601c8281548110610ce457610ce4612abe565b606060048054610c0890612a28565b336113ae8261123e565b6001600160a01b0316146114045760405162461bcd60e51b815260206004820152601b60248201527f736f72727920796f7520617265206e6f7420746865206f776e657200000000006044820152606401610ecc565b601554610100900460ff161561145c5760405162461bcd60e51b815260206004820152601760248201527f636c61696d206973206e6f7420616374697665207965740000000000000000006044820152606401610ecc565b6018818154811061146f5761146f612abe565b90600052602060002090602091828204019190069054906101000a900460ff1615156001151514156114b35760405162461bcd60e51b8152600401610ecc90612970565b600160188281548110610eea57610eea612abe565b60006114d76002546001540390565b60155490915060ff16156115795760405162461bcd60e51b815260206004820152605f60248201527f574f414820686f6c6420757020746865206d696e74206973206e6f742079657460448201527f206c6976652c2061206c6974746c6520746f6f206561726c792074686572652e60648201527f2e2e206f72206c6174653f205472616e736d697373696f6e20456e64696e6700608482015260a401610ecc565b600082116115ef5760405162461bcd60e51b815260206004820152603f60248201527f6d757374206d696e74206174206c656173742031206e66742c2030206973206e60448201527f6f7420616c6c6f7765642e205472616e736d697373696f6e20456e64696e67006064820152608401610ecc565b6013546115fc838361299a565b11156116665760405162461bcd60e51b815260206004820152603360248201527f5468697320736574206f66207368697274732068617665206265656e206d696e6044820152723a32b21030b63932b0b23c961039b7b9393c9760691b6064820152608401610ecc565b601254611673838361299a565b11156116df5760405162461bcd60e51b815260206004820152603560248201527f6c6f6f6b73206c696b652077652061726520706f70756c6172206d61782073756044820152741c1c1b1e481a185cc81899595b881c995858da1959605a1b6064820152608401610ecc565b6000546001600160a01b031633146118515760018211156117395760405162461bcd60e51b8152602060048201526014602482015273037b7363c90189030ba1030903a34b6b2901d14960651b6044820152606401610ecc565b601554600160301b900460ff161515600114156117ff573360009081526016602052604090205460ff166117a15760405162461bcd60e51b815260206004820152600f60248201526e139bdd08105b1b1bdddb1a5cdd1959608a1b6044820152606401610ecc565b336000908152601760205260409020546014546117be848361299a565b11156117fd5760405162461bcd60e51b815260206004820152600e60248201526d105b1c9958591e481b5a5b9d195960921b6044820152606401610ecc565b505b8160115461180d91906129c6565b3410156118515760405162461bcd60e51b8152602060048201526012602482015271086dee6e840c8decae6dc4ee840dac2e8c6d60731b6044820152606401610ecc565b61185b338361205d565b336000908152601760205260408120805484929061187a90849061299a565b90915550505050565b3360008181526008602090815260408083206001600160a01b03871680855290835292819020805460ff191686151590811790915590519081529192917f17307eab39ab6107e8899845ad3d59bd9653f200f220920489ca2b5937696c31910160405180910390a35050565b6118f7611f2a565b6015805465ff0000000000191665010000000000179055565b611918611f2a565b6015805464ff000000001916640100000000179055565b611937611f2a565b805161110090600d90602084019061242b565b611955848484610f3f565b6001600160a01b0383163b1561198e5761197184848484612077565b61198e576040516368d2bf6b60e11b815260040160405180910390fd5b50505050565b61199c611f2a565b601355565b601080546119ae90612a28565b80601f01602080910402602001604051908101604052809291908181526020018280546119da90612a28565b8015611a275780601f106119fc57610100808354040283529160200191611a27565b820191906000526020600020905b815481529060010190602001808311611a0a57829003601f168201915b505050505081565b6060611a3a82611f84565b611a9e5760405162461bcd60e51b815260206004820152602f60248201527f4552433732314d657461646174613a2055524920717565727920666f72206e6f60448201526e3732bc34b9ba32b73a103a37b5b2b760891b6064820152608401610ecc565b60188281548110611ab157611ab1612abe565b90600052602060002090602091828204019190069054906101000a900460ff161515600115151415611b3c576000611ae761216f565b90506000815111611b075760405180602001604052806000815250611b35565b80611b118461217e565b6010604051602001611b2593929190612818565b6040516020818303038152906040525b9392505050565b60198281548110611b4f57611b4f612abe565b90600052602060002090602091828204019190069054906101000a900460ff161515600115151415611b85576000611ae761227c565b601a8281548110611b9857611b98612abe565b90600052602060002090602091828204019190069054906101000a900460ff161515600115151415611bce576000611ae761228b565b601b8281548110611be157611be1612abe565b90600052602060002090602091828204019190069054906101000a900460ff161515600115151415611c17576000611ae761229a565b601c8281548110611c2a57611c2a612abe565b90600052602060002090602091828204019190069054906101000a900460ff161515600115151415611c60576000611ae76122a9565b6000611ae76122b8565b611c72611f2a565b805161110090600e90602084019061242b565b60606000611c966002546001540390565b90506000611ca384611249565b67ffffffffffffffff811115611cbb57611cbb612ad4565b604051908082528060200260200182016040528015611ce4578160200160208202803683370190505b5090506000805b83811015611d5357856001600160a01b0316611d068261123e565b6001600160a01b03161415611d415780838381518110611d2857611d28612abe565b602090810291909101015281611d3d81612a63565b9250505b80611d4b81612a63565b915050611ceb565b5090949350505050565b611d65611f2a565b805161110090601090602084019061242b565b33611d828261123e565b6001600160a01b031614611d9557600080fd5b601554610100900460ff1615611daa57600080fd5b601c8181548110611dbd57611dbd612abe565b90600052602060002090602091828204019190069054906101000a900460ff161515600115151415611e015760405162461bcd60e51b8152600401610ecc90612970565b6001601c8281548110610eea57610eea612abe565b611e1e611f2a565b6001600160a01b038116611e835760405162461bcd60e51b815260206004820152602660248201527f4f776e61626c653a206e6577206f776e657220697320746865207a65726f206160448201526564647265737360d01b6064820152608401610ecc565b6111468161200d565b33611e968261123e565b6001600160a01b031614611ea957600080fd5b601554610100900460ff1615611ebe57600080fd5b601a8181548110611ed157611ed1612abe565b90600052602060002090602091828204019190069054906101000a900460ff161515600115151415611f155760405162461bcd60e51b8152600401610ecc90612970565b6001601a8281548110610eea57610eea612abe565b6000546001600160a01b031633146112aa5760405162461bcd60e51b815260206004820181905260248201527f4f776e61626c653a2063616c6c6572206973206e6f7420746865206f776e65726044820152606401610ecc565b600060015482108015610bd8575050600090815260056020526040902054600160e01b161590565b600081600154811015611ff457600081815260056020526040902054600160e01b8116611ff2575b80611b35575060001901600081815260056020526040902054611fd4565b505b604051636f96cda160e11b815260040160405180910390fd5b600080546001600160a01b038381166001600160a01b0319831681178455604051919092169283917f8be0079c531659141344cd1fd0a4f28419497f9722a3daafe3b4186f6b6457e09190a35050565b6111008282604051806020016040528060008152506122c7565b604051630a85bd0160e11b81526000906001600160a01b0385169063150b7a02906120ac9033908990889088906004016128dc565b602060405180830381600087803b1580156120c657600080fd5b505af19250505080156120f6575060408051601f3d908101601f191682019092526120f39181019061276d565b60015b612151573d808015612124576040519150601f19603f3d011682016040523d82523d6000602084013e612129565b606091505b508051612149576040516368d2bf6b60e11b815260040160405180910390fd5b805181602001fd5b6001600160e01b031916630a85bd0160e11b1490505b949350505050565b6060600b8054610c0890612a28565b6060816121a25750506040805180820190915260018152600360fc1b602082015290565b8160005b81156121cc57806121b681612a63565b91506121c59050600a836129b2565b91506121a6565b60008167ffffffffffffffff8111156121e7576121e7612ad4565b6040519080825280601f01601f191660200182016040528015612211576020820181803683370190505b5090505b8415612167576122266001836129e5565b9150612233600a86612a7e565b61223e90603061299a565b60f81b81838151811061225357612253612abe565b60200101906001600160f81b031916908160001a905350612275600a866129b2565b9450612215565b6060600c8054610c0890612a28565b6060600d8054610c0890612a28565b6060600e8054610c0890612a28565b6060600f8054610c0890612a28565b6060600a8054610c0890612a28565b6122d18383612334565b6001600160a01b0383163b15610e3e576001548281035b6122fb6000868380600101945086612077565b612318576040516368d2bf6b60e11b815260040160405180910390fd5b8181106122e857816001541461232d57600080fd5b5050505050565b600154816123555760405163b562e8dd60e01b815260040160405180910390fd5b6001600160a01b03831660008181526006602090815260408083208054680100000000000000018802019055848352600590915281206001851460e11b4260a01b178317905582840190839083907fddf252ad1be2c89b69c2b068fc378daa952ba7f163c4a11628f55a4df523b3ef8180a4600183015b81811461240457808360007fddf252ad1be2c89b69c2b068fc378daa952ba7f163c4a11628f55a4df523b3ef600080a46001016123cc565b508161242257604051622e076360e81b815260040160405180910390fd5b60015550505050565b82805461243790612a28565b90600052602060002090601f016020900481019282612459576000855561249f565b82601f1061247257805160ff191683800117855561249f565b8280016001018555821561249f579182015b8281111561249f578251825591602001919060010190612484565b506124ab9291506124af565b5090565b5b808211156124ab57600081556001016124b0565b600067ffffffffffffffff808411156124df576124df612ad4565b604051601f8501601f19908116603f0116810190828211818310171561250757612507612ad4565b8160405280935085815286868601111561252057600080fd5b858560208301376000602087830101525050509392505050565b80356001600160a01b038116811461255157600080fd5b919050565b8035801515811461255157600080fd5b60006020828403121561257857600080fd5b611b358261253a565b6000806040838503121561259457600080fd5b61259d8361253a565b91506125ab6020840161253a565b90509250929050565b6000806000606084860312156125c957600080fd5b6125d28461253a565b92506125e06020850161253a565b9150604084013590509250925092565b6000806000806080858703121561260657600080fd5b61260f8561253a565b935061261d6020860161253a565b925060408501359150606085013567ffffffffffffffff81111561264057600080fd5b8501601f8101871361265157600080fd5b612660878235602084016124c4565b91505092959194509250565b6000806040838503121561267f57600080fd5b6126888361253a565b91506125ab60208401612556565b600080604083850312156126a957600080fd5b6126b28361253a565b946020939093013593505050565b600080602083850312156126d357600080fd5b823567ffffffffffffffff808211156126eb57600080fd5b818501915085601f8301126126ff57600080fd5b81358181111561270e57600080fd5b8660208260051b850101111561272357600080fd5b60209290920196919550909350505050565b60006020828403121561274757600080fd5b611b3582612556565b60006020828403121561276257600080fd5b8135611b3581612aea565b60006020828403121561277f57600080fd5b8151611b3581612aea565b60006020828403121561279c57600080fd5b813567ffffffffffffffff8111156127b357600080fd5b8201601f810184136127c457600080fd5b612167848235602084016124c4565b6000602082840312156127e557600080fd5b5035919050565b600081518084526128048160208601602086016129fc565b601f01601f19169290920160200192915050565b60008451602061282b8285838a016129fc565b85519184019161283e8184848a016129fc565b8554920191600090600181811c908083168061285b57607f831692505b85831081141561287957634e487b7160e01b85526022600452602485fd5b80801561288d576001811461289e576128cb565b60ff198516885283880195506128cb565b60008b81526020902060005b858110156128c35781548a8201529084019088016128aa565b505083880195505b50939b9a5050505050505050505050565b6001600160a01b038581168252841660208201526040810183905260806060820181905260009061290f908301846127ec565b9695505050505050565b6020808252825182820181905260009190848201906040850190845b8181101561295157835183529284019291840191600101612935565b50909695505050505050565b602081526000611b3560208301846127ec565b60208082526010908201526f616c726561647920636c61696d65642160801b604082015260600190565b600082198211156129ad576129ad612a92565b500190565b6000826129c1576129c1612aa8565b500490565b60008160001904831182151516156129e0576129e0612a92565b500290565b6000828210156129f7576129f7612a92565b500390565b60005b83811015612a175781810151838201526020016129ff565b8381111561198e5750506000910152565b600181811c90821680612a3c57607f821691505b60208210811415612a5d57634e487b7160e01b600052602260045260246000fd5b50919050565b6000600019821415612a7757612a77612a92565b5060010190565b600082612a8d57612a8d612aa8565b500690565b634e487b7160e01b600052601160045260246000fd5b634e487b7160e01b600052601260045260246000fd5b634e487b7160e01b600052603260045260246000fd5b634e487b7160e01b600052604160045260246000fd5b6001600160e01b03198116811461114657600080fdfea2646970667358221220a156a004b1b8319d01420db3b1c3e1c534e03a49b923635240908e18721a2a5864736f6c63430008070033",
			"opcodes": "PUSH1 0xC0 PUSH1 0x40 MSTORE PUSH1 0x5 PUSH1 0x80 DUP2 SWAP1 MSTORE PUSH5 0x173539B7B7 PUSH1 0xD9 SHL PUSH1 0xA0 SWAP1 DUP2 MSTORE PUSH3 0x28 SWAP2 PUSH1 0x10 SWAP2 SWAP1 PUSH3 0x3D7 JUMP JUMPDEST POP PUSH7 0x753D533D968000 PUSH1 0x11 SSTORE PUSH1 0x46 PUSH1 0x12 DUP2 SWAP1 SSTORE PUSH1 0x9 PUSH1 0x13 SSTORE PUSH1 0x5 PUSH1 0x14 SSTORE PUSH1 0x15 DUP1 SLOAD PUSH7 0xFFFFFFFFFFFFFF NOT AND SWAP1 SSTORE PUSH1 0x40 DUP1 MLOAD DUP3 DUP2 MSTORE PUSH2 0x8E0 DUP2 ADD SWAP1 SWAP2 MSTORE SWAP1 PUSH1 0x20 DUP3 ADD PUSH2 0x8C0 DUP1 CALLDATASIZE DUP4 CALLDATACOPY POP POP DUP2 MLOAD PUSH3 0x87 SWAP3 PUSH1 0x18 SWAP3 POP PUSH1 0x20 ADD SWAP1 PUSH3 0x466 JUMP JUMPDEST POP PUSH1 0x12 SLOAD PUSH1 0x1 PUSH1 0x1 PUSH1 0x40 SHL SUB DUP2 GT ISZERO PUSH3 0xA5 JUMPI PUSH3 0xA5 PUSH3 0x67D JUMP JUMPDEST PUSH1 0x40 MLOAD SWAP1 DUP1 DUP3 MSTORE DUP1 PUSH1 0x20 MUL PUSH1 0x20 ADD DUP3 ADD PUSH1 0x40 MSTORE DUP1 ISZERO PUSH3 0xCF JUMPI DUP2 PUSH1 0x20 ADD PUSH1 0x20 DUP3 MUL DUP1 CALLDATASIZE DUP4 CALLDATACOPY ADD SWAP1 POP JUMPDEST POP DUP1 MLOAD PUSH3 0xE6 SWAP2 PUSH1 0x19 SWAP2 PUSH1 0x20 SWAP1 SWAP2 ADD SWAP1 PUSH3 0x466 JUMP JUMPDEST POP PUSH1 0x12 SLOAD PUSH1 0x1 PUSH1 0x1 PUSH1 0x40 SHL SUB DUP2 GT ISZERO PUSH3 0x104 JUMPI PUSH3 0x104 PUSH3 0x67D JUMP JUMPDEST PUSH1 0x40 MLOAD SWAP1 DUP1 DUP3 MSTORE DUP1 PUSH1 0x20 MUL PUSH1 0x20 ADD DUP3 ADD PUSH1 0x40 MSTORE DUP1 ISZERO PUSH3 0x12E JUMPI DUP2 PUSH1 0x20 ADD PUSH1 0x20 DUP3 MUL DUP1 CALLDATASIZE DUP4 CALLDATACOPY ADD SWAP1 POP JUMPDEST POP DUP1 MLOAD PUSH3 0x145 SWAP2 PUSH1 0x1A SWAP2 PUSH1 0x20 SWAP1 SWAP2 ADD SWAP1 PUSH3 0x466 JUMP JUMPDEST POP PUSH1 0x12 SLOAD PUSH1 0x1 PUSH1 0x1 PUSH1 0x40 SHL SUB DUP2 GT ISZERO PUSH3 0x163 JUMPI PUSH3 0x163 PUSH3 0x67D JUMP JUMPDEST PUSH1 0x40 MLOAD SWAP1 DUP1 DUP3 MSTORE DUP1 PUSH1 0x20 MUL PUSH1 0x20 ADD DUP3 ADD PUSH1 0x40 MSTORE DUP1 ISZERO PUSH3 0x18D JUMPI DUP2 PUSH1 0x20 ADD PUSH1 0x20 DUP3 MUL DUP1 CALLDATASIZE DUP4 CALLDATACOPY ADD SWAP1 POP JUMPDEST POP DUP1 MLOAD PUSH3 0x1A4 SWAP2 PUSH1 0x1B SWAP2 PUSH1 0x20 SWAP1 SWAP2 ADD SWAP1 PUSH3 0x466 JUMP JUMPDEST POP PUSH1 0x12 SLOAD PUSH1 0x1 PUSH1 0x1 PUSH1 0x40 SHL SUB DUP2 GT ISZERO PUSH3 0x1C2 JUMPI PUSH3 0x1C2 PUSH3 0x67D JUMP JUMPDEST PUSH1 0x40 MLOAD SWAP1 DUP1 DUP3 MSTORE DUP1 PUSH1 0x20 MUL PUSH1 0x20 ADD DUP3 ADD PUSH1 0x40 MSTORE DUP1 ISZERO PUSH3 0x1EC JUMPI DUP2 PUSH1 0x20 ADD PUSH1 0x20 DUP3 MUL DUP1 CALLDATASIZE DUP4 CALLDATACOPY ADD SWAP1 POP JUMPDEST POP DUP1 MLOAD PUSH3 0x203 SWAP2 PUSH1 0x1C SWAP2 PUSH1 0x20 SWAP1 SWAP2 ADD SWAP1 PUSH3 0x466 JUMP JUMPDEST POP CALLVALUE DUP1 ISZERO PUSH3 0x211 JUMPI PUSH1 0x0 DUP1 REVERT JUMPDEST POP PUSH1 0x40 MLOAD PUSH3 0x31D9 CODESIZE SUB DUP1 PUSH3 0x31D9 DUP4 CODECOPY DUP2 ADD PUSH1 0x40 DUP2 SWAP1 MSTORE PUSH3 0x234 SWAP2 PUSH3 0x5D6 JUMP JUMPDEST PUSH1 0x40 MLOAD DUP1 PUSH1 0x40 ADD PUSH1 0x40 MSTORE DUP1 PUSH1 0x7 DUP2 MSTORE PUSH1 0x20 ADD PUSH7 0x1A5B5A5D195CDD PUSH1 0xCA SHL DUP2 MSTORE POP PUSH1 0x40 MLOAD DUP1 PUSH1 0x40 ADD PUSH1 0x40 MSTORE DUP1 PUSH1 0x3 DUP2 MSTORE PUSH1 0x20 ADD PUSH3 0x494D49 PUSH1 0xE8 SHL DUP2 MSTORE POP PUSH3 0x28A PUSH3 0x284 PUSH3 0x2E0 PUSH1 0x20 SHL PUSH1 0x20 SHR JUMP JUMPDEST PUSH3 0x2E4 JUMP JUMPDEST DUP2 MLOAD PUSH3 0x29F SWAP1 PUSH1 0x3 SWAP1 PUSH1 0x20 DUP6 ADD SWAP1 PUSH3 0x3D7 JUMP JUMPDEST POP DUP1 MLOAD PUSH3 0x2B5 SWAP1 PUSH1 0x4 SWAP1 PUSH1 0x20 DUP5 ADD SWAP1 PUSH3 0x3D7 JUMP JUMPDEST POP POP PUSH1 0x0 PUSH1 0x1 SWAP1 DUP2 SSTORE PUSH1 0x9 SSTORE POP PUSH3 0x2CD DUP3 PUSH3 0x334 JUMP JUMPDEST PUSH3 0x2D8 DUP2 PUSH3 0x357 JUMP JUMPDEST POP POP PUSH3 0x693 JUMP JUMPDEST CALLER SWAP1 JUMP JUMPDEST PUSH1 0x0 DUP1 SLOAD PUSH1 0x1 PUSH1 0x1 PUSH1 0xA0 SHL SUB DUP4 DUP2 AND PUSH1 0x1 PUSH1 0x1 PUSH1 0xA0 SHL SUB NOT DUP4 AND DUP2 OR DUP5 SSTORE PUSH1 0x40 MLOAD SWAP2 SWAP1 SWAP3 AND SWAP3 DUP4 SWAP2 PUSH32 0x8BE0079C531659141344CD1FD0A4F28419497F9722A3DAAFE3B4186F6B6457E0 SWAP2 SWAP1 LOG3 POP POP JUMP JUMPDEST PUSH3 0x33E PUSH3 0x376 JUMP JUMPDEST DUP1 MLOAD PUSH3 0x353 SWAP1 PUSH1 0xA SWAP1 PUSH1 0x20 DUP5 ADD SWAP1 PUSH3 0x3D7 JUMP JUMPDEST POP POP JUMP JUMPDEST PUSH3 0x361 PUSH3 0x376 JUMP JUMPDEST DUP1 MLOAD PUSH3 0x353 SWAP1 PUSH1 0xB SWAP1 PUSH1 0x20 DUP5 ADD SWAP1 PUSH3 0x3D7 JUMP JUMPDEST PUSH1 0x0 SLOAD PUSH1 0x1 PUSH1 0x1 PUSH1 0xA0 SHL SUB AND CALLER EQ PUSH3 0x3D5 JUMPI PUSH1 0x40 MLOAD PUSH3 0x461BCD PUSH1 0xE5 SHL DUP2 MSTORE PUSH1 0x20 PUSH1 0x4 DUP3 ADD DUP2 SWAP1 MSTORE PUSH1 0x24 DUP3 ADD MSTORE PUSH32 0x4F776E61626C653A2063616C6C6572206973206E6F7420746865206F776E6572 PUSH1 0x44 DUP3 ADD MSTORE PUSH1 0x64 ADD PUSH1 0x40 MLOAD DUP1 SWAP2 SUB SWAP1 REVERT JUMPDEST JUMP JUMPDEST DUP3 DUP1 SLOAD PUSH3 0x3E5 SWAP1 PUSH3 0x640 JUMP JUMPDEST SWAP1 PUSH1 0x0 MSTORE PUSH1 0x20 PUSH1 0x0 KECCAK256 SWAP1 PUSH1 0x1F ADD PUSH1 0x20 SWAP1 DIV DUP2 ADD SWAP3 DUP3 PUSH3 0x409 JUMPI PUSH1 0x0 DUP6 SSTORE PUSH3 0x454 JUMP JUMPDEST DUP3 PUSH1 0x1F LT PUSH3 0x424 JUMPI DUP1 MLOAD PUSH1 0xFF NOT AND DUP4 DUP1 ADD OR DUP6 SSTORE PUSH3 0x454 JUMP JUMPDEST DUP3 DUP1 ADD PUSH1 0x1 ADD DUP6 SSTORE DUP3 ISZERO PUSH3 0x454 JUMPI SWAP2 DUP3 ADD JUMPDEST DUP3 DUP2 GT ISZERO PUSH3 0x454 JUMPI DUP3 MLOAD DUP3 SSTORE SWAP2 PUSH1 0x20 ADD SWAP2 SWAP1 PUSH1 0x1 ADD SWAP1 PUSH3 0x437 JUMP JUMPDEST POP PUSH3 0x462 SWAP3 SWAP2 POP PUSH3 0x508 JUMP JUMPDEST POP SWAP1 JUMP JUMPDEST DUP3 DUP1 SLOAD DUP3 DUP3 SSTORE SWAP1 PUSH1 0x0 MSTORE PUSH1 0x20 PUSH1 0x0 KECCAK256 SWAP1 PUSH1 0x1F ADD PUSH1 0x20 SWAP1 DIV DUP2 ADD SWAP3 DUP3 ISZERO PUSH3 0x454 JUMPI SWAP2 PUSH1 0x20 MUL DUP3 ADD PUSH1 0x0 JUMPDEST DUP4 DUP3 GT ISZERO PUSH3 0x4CF JUMPI DUP4 MLOAD DUP4 DUP3 PUSH2 0x100 EXP DUP2 SLOAD DUP2 PUSH1 0xFF MUL NOT AND SWAP1 DUP4 ISZERO ISZERO MUL OR SWAP1 SSTORE POP SWAP3 PUSH1 0x20 ADD SWAP3 PUSH1 0x1 ADD PUSH1 0x20 DUP2 PUSH1 0x0 ADD DIV SWAP3 DUP4 ADD SWAP3 PUSH1 0x1 SUB MUL PUSH3 0x490 JUMP JUMPDEST DUP1 ISZERO PUSH3 0x4FE JUMPI DUP3 DUP2 PUSH2 0x100 EXP DUP2 SLOAD SWAP1 PUSH1 0xFF MUL NOT AND SWAP1 SSTORE PUSH1 0x1 ADD PUSH1 0x20 DUP2 PUSH1 0x0 ADD DIV SWAP3 DUP4 ADD SWAP3 PUSH1 0x1 SUB MUL PUSH3 0x4CF JUMP JUMPDEST POP POP PUSH3 0x462 SWAP3 SWAP2 POP JUMPDEST JUMPDEST DUP1 DUP3 GT ISZERO PUSH3 0x462 JUMPI PUSH1 0x0 DUP2 SSTORE PUSH1 0x1 ADD PUSH3 0x509 JUMP JUMPDEST PUSH1 0x0 DUP3 PUSH1 0x1F DUP4 ADD SLT PUSH3 0x531 JUMPI PUSH1 0x0 DUP1 REVERT JUMPDEST DUP2 MLOAD PUSH1 0x1 PUSH1 0x1 PUSH1 0x40 SHL SUB DUP1 DUP3 GT ISZERO PUSH3 0x54E JUMPI PUSH3 0x54E PUSH3 0x67D JUMP JUMPDEST PUSH1 0x40 MLOAD PUSH1 0x1F DUP4 ADD PUSH1 0x1F NOT SWAP1 DUP2 AND PUSH1 0x3F ADD AND DUP2 ADD SWAP1 DUP3 DUP3 GT DUP2 DUP4 LT OR ISZERO PUSH3 0x579 JUMPI PUSH3 0x579 PUSH3 0x67D JUMP JUMPDEST DUP2 PUSH1 0x40 MSTORE DUP4 DUP2 MSTORE PUSH1 0x20 SWAP3 POP DUP7 DUP4 DUP6 DUP9 ADD ADD GT ISZERO PUSH3 0x596 JUMPI PUSH1 0x0 DUP1 REVERT JUMPDEST PUSH1 0x0 SWAP2 POP JUMPDEST DUP4 DUP3 LT ISZERO PUSH3 0x5BA JUMPI DUP6 DUP3 ADD DUP4 ADD MLOAD DUP2 DUP4 ADD DUP5 ADD MSTORE SWAP1 DUP3 ADD SWAP1 PUSH3 0x59B JUMP JUMPDEST DUP4 DUP3 GT ISZERO PUSH3 0x5CC JUMPI PUSH1 0x0 DUP4 DUP6 DUP4 ADD ADD MSTORE JUMPDEST SWAP7 SWAP6 POP POP POP POP POP POP JUMP JUMPDEST PUSH1 0x0 DUP1 PUSH1 0x40 DUP4 DUP6 SUB SLT ISZERO PUSH3 0x5EA JUMPI PUSH1 0x0 DUP1 REVERT JUMPDEST DUP3 MLOAD PUSH1 0x1 PUSH1 0x1 PUSH1 0x40 SHL SUB DUP1 DUP3 GT ISZERO PUSH3 0x602 JUMPI PUSH1 0x0 DUP1 REVERT JUMPDEST PUSH3 0x610 DUP7 DUP4 DUP8 ADD PUSH3 0x51F JUMP JUMPDEST SWAP4 POP PUSH1 0x20 DUP6 ADD MLOAD SWAP2 POP DUP1 DUP3 GT ISZERO PUSH3 0x627 JUMPI PUSH1 0x0 DUP1 REVERT JUMPDEST POP PUSH3 0x636 DUP6 DUP3 DUP7 ADD PUSH3 0x51F JUMP JUMPDEST SWAP2 POP POP SWAP3 POP SWAP3 SWAP1 POP JUMP JUMPDEST PUSH1 0x1 DUP2 DUP2 SHR SWAP1 DUP3 AND DUP1 PUSH3 0x655 JUMPI PUSH1 0x7F DUP3 AND SWAP2 POP JUMPDEST PUSH1 0x20 DUP3 LT DUP2 EQ ISZERO PUSH3 0x677 JUMPI PUSH4 0x4E487B71 PUSH1 0xE0 SHL PUSH1 0x0 MSTORE PUSH1 0x22 PUSH1 0x4 MSTORE PUSH1 0x24 PUSH1 0x0 REVERT JUMPDEST POP SWAP2 SWAP1 POP JUMP JUMPDEST PUSH4 0x4E487B71 PUSH1 0xE0 SHL PUSH1 0x0 MSTORE PUSH1 0x41 PUSH1 0x4 MSTORE PUSH1 0x24 PUSH1 0x0 REVERT JUMPDEST PUSH2 0x2B36 DUP1 PUSH3 0x6A3 PUSH1 0x0 CODECOPY PUSH1 0x0 RETURN INVALID PUSH1 0x80 PUSH1 0x40 MSTORE PUSH1 0x4 CALLDATASIZE LT PUSH2 0x3AD JUMPI PUSH1 0x0 CALLDATALOAD PUSH1 0xE0 SHR DUP1 PUSH4 0x70A08231 GT PUSH2 0x1E7 JUMPI DUP1 PUSH4 0xB1544BDE GT PUSH2 0x10D JUMPI DUP1 PUSH4 0xCA8A7D5E GT PUSH2 0xA0 JUMPI DUP1 PUSH4 0xE985E9C5 GT PUSH2 0x6F JUMPI DUP1 PUSH4 0xE985E9C5 EQ PUSH2 0xAC6 JUMPI DUP1 PUSH4 0xEADE46E6 EQ PUSH2 0xB0F JUMPI DUP1 PUSH4 0xF2FDE38B EQ PUSH2 0xB2F JUMPI DUP1 PUSH4 0xFD1DAE2E EQ PUSH2 0xB4F JUMPI PUSH1 0x0 DUP1 REVERT JUMPDEST DUP1 PUSH4 0xCA8A7D5E EQ PUSH2 0xA44 JUMPI DUP1 PUSH4 0xCFA03291 EQ PUSH2 0xA71 JUMPI DUP1 PUSH4 0xD5ABEB01 EQ PUSH2 0xA90 JUMPI DUP1 PUSH4 0xDA3EF23F EQ PUSH2 0xAA6 JUMPI PUSH1 0x0 DUP1 REVERT JUMPDEST DUP1 PUSH4 0xC4D2E8D6 GT PUSH2 0xDC JUMPI DUP1 PUSH4 0xC4D2E8D6 EQ PUSH2 0x9CF JUMPI DUP1 PUSH4 0xC6682862 EQ PUSH2 0x9EF JUMPI DUP1 PUSH4 0xC87B56DD EQ PUSH2 0xA04 JUMPI DUP1 PUSH4 0xC8A7F86D EQ PUSH2 0xA24 JUMPI PUSH1 0x0 DUP1 REVERT JUMPDEST DUP1 PUSH4 0xB1544BDE EQ PUSH2 0x964 JUMPI DUP1 PUSH4 0xB3807B1D EQ PUSH2 0x979 JUMPI DUP1 PUSH4 0xB824AD23 EQ PUSH2 0x98F JUMPI DUP1 PUSH4 0xB88D4FDE EQ PUSH2 0x9AF JUMPI PUSH1 0x0 DUP1 REVERT JUMPDEST DUP1 PUSH4 0x8965DD97 GT PUSH2 0x185 JUMPI DUP1 PUSH4 0xA0712D68 GT PUSH2 0x154 JUMPI DUP1 PUSH4 0xA0712D68 EQ PUSH2 0x8EC JUMPI DUP1 PUSH4 0xA22CB465 EQ PUSH2 0x8FF JUMPI DUP1 PUSH4 0xA7CD52CB EQ PUSH2 0x91F JUMPI DUP1 PUSH4 0xAC034467 EQ PUSH2 0x94F JUMPI PUSH1 0x0 DUP1 REVERT JUMPDEST DUP1 PUSH4 0x8965DD97 EQ PUSH2 0x879 JUMPI DUP1 PUSH4 0x8DA5CB5B EQ PUSH2 0x899 JUMPI DUP1 PUSH4 0x95D89B41 EQ PUSH2 0x8B7 JUMPI DUP1 PUSH4 0x9B3929DA EQ PUSH2 0x8CC JUMPI PUSH1 0x0 DUP1 REVERT JUMPDEST DUP1 PUSH4 0x7D8AFD0F GT PUSH2 0x1C1 JUMPI DUP1 PUSH4 0x7D8AFD0F EQ PUSH2 0x7F5 JUMPI DUP1 PUSH4 0x7EA63E2B EQ PUSH2 0x815 JUMPI DUP1 PUSH4 0x7F0A6F65 EQ PUSH2 0x835 JUMPI DUP1 PUSH4 0x8198D162 EQ PUSH2 0x858 JUMPI PUSH1 0x0 DUP1 REVERT JUMPDEST DUP1 PUSH4 0x70A08231 EQ PUSH2 0x7A0 JUMPI DUP1 PUSH4 0x715018A6 EQ PUSH2 0x7C0 JUMPI DUP1 PUSH4 0x7CCD381D EQ PUSH2 0x7D5 JUMPI PUSH1 0x0 DUP1 REVERT JUMPDEST DUP1 PUSH4 0x23B872DD GT PUSH2 0x2D7 JUMPI DUP1 PUSH4 0x55F804B3 GT PUSH2 0x26A JUMPI DUP1 PUSH4 0x5C975ABB GT PUSH2 0x239 JUMPI DUP1 PUSH4 0x5C975ABB EQ PUSH2 0x730 JUMPI DUP1 PUSH4 0x605DEF51 EQ PUSH2 0x74A JUMPI DUP1 PUSH4 0x6352211E EQ PUSH2 0x75F JUMPI DUP1 PUSH4 0x674C02AA EQ PUSH2 0x77F JUMPI PUSH1 0x0 DUP1 REVERT JUMPDEST DUP1 PUSH4 0x55F804B3 EQ PUSH2 0x6B0 JUMPI DUP1 PUSH4 0x58211373 EQ PUSH2 0x6D0 JUMPI DUP1 PUSH4 0x593E6FE4 EQ PUSH2 0x6F0 JUMPI DUP1 PUSH4 0x5B9E3CCF EQ PUSH2 0x710 JUMPI PUSH1 0x0 DUP1 REVERT JUMPDEST DUP1 PUSH4 0x36404FF9 GT PUSH2 0x2A6 JUMPI DUP1 PUSH4 0x36404FF9 EQ PUSH2 0x648 JUMPI DUP1 PUSH4 0x39516A26 EQ PUSH2 0x668 JUMPI DUP1 PUSH4 0x3CCFD60B EQ PUSH2 0x688 JUMPI DUP1 PUSH4 0x42842E0E EQ PUSH2 0x690 JUMPI PUSH1 0x0 DUP1 REVERT JUMPDEST DUP1 PUSH4 0x23B872DD EQ PUSH2 0x5D0 JUMPI DUP1 PUSH4 0x30B86627 EQ PUSH2 0x5F0 JUMPI DUP1 PUSH4 0x330BA7AD EQ PUSH2 0x606 JUMPI DUP1 PUSH4 0x35A55CAA EQ PUSH2 0x628 JUMPI PUSH1 0x0 DUP1 REVERT JUMPDEST DUP1 PUSH4 0x95EA7B3 GT PUSH2 0x34F JUMPI DUP1 PUSH4 0x176CD645 GT PUSH2 0x31E JUMPI DUP1 PUSH4 0x176CD645 EQ PUSH2 0x54A JUMPI DUP1 PUSH4 0x17DC10C4 EQ PUSH2 0x56A JUMPI DUP1 PUSH4 0x18160DDD EQ PUSH2 0x58A JUMPI DUP1 PUSH4 0x18CAE269 EQ PUSH2 0x5A3 JUMPI PUSH1 0x0 DUP1 REVERT JUMPDEST DUP1 PUSH4 0x95EA7B3 EQ PUSH2 0x4D1 JUMPI DUP1 PUSH4 0x13EF321F EQ PUSH2 0x4F1 JUMPI DUP1 PUSH4 0x13FAEDE6 EQ PUSH2 0x506 JUMPI DUP1 PUSH4 0x142B0FBE EQ PUSH2 0x52A JUMPI PUSH1 0x0 DUP1 REVERT JUMPDEST DUP1 PUSH4 0x5A3B809 GT PUSH2 0x38B JUMPI DUP1 PUSH4 0x5A3B809 EQ PUSH2 0x41E JUMPI DUP1 PUSH4 0x6FDDE03 EQ PUSH2 0x457 JUMPI DUP1 PUSH4 0x81812FC EQ PUSH2 0x479 JUMPI DUP1 PUSH4 0x9533E46 EQ PUSH2 0x4B1 JUMPI PUSH1 0x0 DUP1 REVERT JUMPDEST DUP1 PUSH4 0x1DDABE7 EQ PUSH2 0x3B2 JUMPI DUP1 PUSH4 0x1FFC9A7 EQ PUSH2 0x3C9 JUMPI DUP1 PUSH4 0x2329A29 EQ PUSH2 0x3FE JUMPI JUMPDEST PUSH1 0x0 DUP1 REVERT JUMPDEST CALLVALUE DUP1 ISZERO PUSH2 0x3BE JUMPI PUSH1 0x0 DUP1 REVERT JUMPDEST POP PUSH2 0x3C7 PUSH2 0xB6F JUMP JUMPDEST STOP JUMPDEST CALLVALUE DUP1 ISZERO PUSH2 0x3D5 JUMPI PUSH1 0x0 DUP1 REVERT JUMPDEST POP PUSH2 0x3E9 PUSH2 0x3E4 CALLDATASIZE PUSH1 0x4 PUSH2 0x2750 JUMP JUMPDEST PUSH2 0xB8C JUMP JUMPDEST PUSH1 0x40 MLOAD SWAP1 ISZERO ISZERO DUP2 MSTORE PUSH1 0x20 ADD JUMPDEST PUSH1 0x40 MLOAD DUP1 SWAP2 SUB SWAP1 RETURN JUMPDEST CALLVALUE DUP1 ISZERO PUSH2 0x40A JUMPI PUSH1 0x0 DUP1 REVERT JUMPDEST POP PUSH2 0x3C7 PUSH2 0x419 CALLDATASIZE PUSH1 0x4 PUSH2 0x2735 JUMP JUMPDEST PUSH2 0xBDE JUMP JUMPDEST CALLVALUE DUP1 ISZERO PUSH2 0x42A JUMPI PUSH1 0x0 DUP1 REVERT JUMPDEST POP PUSH2 0x3E9 PUSH2 0x439 CALLDATASIZE PUSH1 0x4 PUSH2 0x2566 JUMP JUMPDEST PUSH1 0x1 PUSH1 0x1 PUSH1 0xA0 SHL SUB AND PUSH1 0x0 SWAP1 DUP2 MSTORE PUSH1 0x16 PUSH1 0x20 MSTORE PUSH1 0x40 SWAP1 KECCAK256 SLOAD PUSH1 0xFF AND SWAP1 JUMP JUMPDEST CALLVALUE DUP1 ISZERO PUSH2 0x463 JUMPI PUSH1 0x0 DUP1 REVERT JUMPDEST POP PUSH2 0x46C PUSH2 0xBF9 JUMP JUMPDEST PUSH1 0x40 MLOAD PUSH2 0x3F5 SWAP2 SWAP1 PUSH2 0x295D JUMP JUMPDEST CALLVALUE DUP1 ISZERO PUSH2 0x485 JUMPI PUSH1 0x0 DUP1 REVERT JUMPDEST POP PUSH2 0x499 PUSH2 0x494 CALLDATASIZE PUSH1 0x4 PUSH2 0x27D3 JUMP JUMPDEST PUSH2 0xC8B JUMP JUMPDEST PUSH1 0x40 MLOAD PUSH1 0x1 PUSH1 0x1 PUSH1 0xA0 SHL SUB SWAP1 SWAP2 AND DUP2 MSTORE PUSH1 0x20 ADD PUSH2 0x3F5 JUMP JUMPDEST CALLVALUE DUP1 ISZERO PUSH2 0x4BD JUMPI PUSH1 0x0 DUP1 REVERT JUMPDEST POP PUSH2 0x3E9 PUSH2 0x4CC CALLDATASIZE PUSH1 0x4 PUSH2 0x27D3 JUMP JUMPDEST PUSH2 0xCCF JUMP JUMPDEST CALLVALUE DUP1 ISZERO PUSH2 0x4DD JUMPI PUSH1 0x0 DUP1 REVERT JUMPDEST POP PUSH2 0x3C7 PUSH2 0x4EC CALLDATASIZE PUSH1 0x4 PUSH2 0x2696 JUMP JUMPDEST PUSH2 0xD0B JUMP JUMPDEST CALLVALUE DUP1 ISZERO PUSH2 0x4FD JUMPI PUSH1 0x0 DUP1 REVERT JUMPDEST POP PUSH2 0x3C7 PUSH2 0xDAB JUMP JUMPDEST CALLVALUE DUP1 ISZERO PUSH2 0x512 JUMPI PUSH1 0x0 DUP1 REVERT JUMPDEST POP PUSH2 0x51C PUSH1 0x11 SLOAD DUP2 JUMP JUMPDEST PUSH1 0x40 MLOAD SWAP1 DUP2 MSTORE PUSH1 0x20 ADD PUSH2 0x3F5 JUMP JUMPDEST CALLVALUE DUP1 ISZERO PUSH2 0x536 JUMPI PUSH1 0x0 DUP1 REVERT JUMPDEST POP PUSH2 0x3C7 PUSH2 0x545 CALLDATASIZE PUSH1 0x4 PUSH2 0x26C0 JUMP JUMPDEST PUSH2 0xDC4 JUMP JUMPDEST CALLVALUE DUP1 ISZERO PUSH2 0x556 JUMPI PUSH1 0x0 DUP1 REVERT JUMPDEST POP PUSH2 0x3C7 PUSH2 0x565 CALLDATASIZE PUSH1 0x4 PUSH2 0x27D3 JUMP JUMPDEST PUSH2 0xE43 JUMP JUMPDEST CALLVALUE DUP1 ISZERO PUSH2 0x576 JUMPI PUSH1 0x0 DUP1 REVERT JUMPDEST POP PUSH2 0x3C7 PUSH2 0x585 CALLDATASIZE PUSH1 0x4 PUSH2 0x2735 JUMP JUMPDEST PUSH2 0xF16 JUMP JUMPDEST CALLVALUE DUP1 ISZERO PUSH2 0x596 JUMPI PUSH1 0x0 DUP1 REVERT JUMPDEST POP PUSH1 0x2 SLOAD PUSH1 0x1 SLOAD SUB PUSH2 0x51C JUMP JUMPDEST CALLVALUE DUP1 ISZERO PUSH2 0x5AF JUMPI PUSH1 0x0 DUP1 REVERT JUMPDEST POP PUSH2 0x51C PUSH2 0x5BE CALLDATASIZE PUSH1 0x4 PUSH2 0x2566 JUMP JUMPDEST PUSH1 0x17 PUSH1 0x20 MSTORE PUSH1 0x0 SWAP1 DUP2 MSTORE PUSH1 0x40 SWAP1 KECCAK256 SLOAD DUP2 JUMP JUMPDEST CALLVALUE DUP1 ISZERO PUSH2 0x5DC JUMPI PUSH1 0x0 DUP1 REVERT JUMPDEST POP PUSH2 0x3C7 PUSH2 0x5EB CALLDATASIZE PUSH1 0x4 PUSH2 0x25B4 JUMP JUMPDEST PUSH2 0xF3F JUMP JUMPDEST CALLVALUE DUP1 ISZERO PUSH2 0x5FC JUMPI PUSH1 0x0 DUP1 REVERT JUMPDEST POP PUSH2 0x51C PUSH1 0x13 SLOAD DUP2 JUMP JUMPDEST CALLVALUE DUP1 ISZERO PUSH2 0x612 JUMPI PUSH1 0x0 DUP1 REVERT JUMPDEST POP PUSH1 0x15 SLOAD PUSH2 0x3E9 SWAP1 PUSH5 0x100000000 SWAP1 DIV PUSH1 0xFF AND DUP2 JUMP JUMPDEST CALLVALUE DUP1 ISZERO PUSH2 0x634 JUMPI PUSH1 0x0 DUP1 REVERT JUMPDEST POP PUSH2 0x3E9 PUSH2 0x643 CALLDATASIZE PUSH1 0x4 PUSH2 0x27D3 JUMP JUMPDEST PUSH2 0x10D0 JUMP JUMPDEST CALLVALUE DUP1 ISZERO PUSH2 0x654 JUMPI PUSH1 0x0 DUP1 REVERT JUMPDEST POP PUSH2 0x3C7 PUSH2 0x663 CALLDATASIZE PUSH1 0x4 PUSH2 0x278A JUMP JUMPDEST PUSH2 0x10E5 JUMP JUMPDEST CALLVALUE DUP1 ISZERO PUSH2 0x674 JUMPI PUSH1 0x0 DUP1 REVERT JUMPDEST POP PUSH1 0x15 SLOAD PUSH2 0x3E9 SWAP1 PUSH3 0x10000 SWAP1 DIV PUSH1 0xFF AND DUP2 JUMP JUMPDEST PUSH2 0x3C7 PUSH2 0x1104 JUMP JUMPDEST CALLVALUE DUP1 ISZERO PUSH2 0x69C JUMPI PUSH1 0x0 DUP1 REVERT JUMPDEST POP PUSH2 0x3C7 PUSH2 0x6AB CALLDATASIZE PUSH1 0x4 PUSH2 0x25B4 JUMP JUMPDEST PUSH2 0x1149 JUMP JUMPDEST CALLVALUE DUP1 ISZERO PUSH2 0x6BC JUMPI PUSH1 0x0 DUP1 REVERT JUMPDEST POP PUSH2 0x3C7 PUSH2 0x6CB CALLDATASIZE PUSH1 0x4 PUSH2 0x278A JUMP JUMPDEST PUSH2 0x1164 JUMP JUMPDEST CALLVALUE DUP1 ISZERO PUSH2 0x6DC JUMPI PUSH1 0x0 DUP1 REVERT JUMPDEST POP PUSH2 0x3E9 PUSH2 0x6EB CALLDATASIZE PUSH1 0x4 PUSH2 0x27D3 JUMP JUMPDEST PUSH2 0x117F JUMP JUMPDEST CALLVALUE DUP1 ISZERO PUSH2 0x6FC JUMPI PUSH1 0x0 DUP1 REVERT JUMPDEST POP PUSH2 0x3E9 PUSH2 0x70B CALLDATASIZE PUSH1 0x4 PUSH2 0x27D3 JUMP JUMPDEST PUSH2 0x1194 JUMP JUMPDEST CALLVALUE DUP1 ISZERO PUSH2 0x71C JUMPI PUSH1 0x0 DUP1 REVERT JUMPDEST POP PUSH2 0x3C7 PUSH2 0x72B CALLDATASIZE PUSH1 0x4 PUSH2 0x26C0 JUMP JUMPDEST PUSH2 0x11A9 JUMP JUMPDEST CALLVALUE DUP1 ISZERO PUSH2 0x73C JUMPI PUSH1 0x0 DUP1 REVERT JUMPDEST POP PUSH1 0x15 SLOAD PUSH2 0x3E9 SWAP1 PUSH1 0xFF AND DUP2 JUMP JUMPDEST CALLVALUE DUP1 ISZERO PUSH2 0x756 JUMPI PUSH1 0x0 DUP1 REVERT JUMPDEST POP PUSH2 0x3C7 PUSH2 0x1223 JUMP JUMPDEST CALLVALUE DUP1 ISZERO PUSH2 0x76B JUMPI PUSH1 0x0 DUP1 REVERT JUMPDEST POP PUSH2 0x499 PUSH2 0x77A CALLDATASIZE PUSH1 0x4 PUSH2 0x27D3 JUMP JUMPDEST PUSH2 0x123E JUMP JUMPDEST CALLVALUE DUP1 ISZERO PUSH2 0x78B JUMPI PUSH1 0x0 DUP1 REVERT JUMPDEST POP PUSH1 0x15 SLOAD PUSH2 0x3E9 SWAP1 PUSH1 0x1 PUSH1 0x30 SHL SWAP1 DIV PUSH1 0xFF AND DUP2 JUMP JUMPDEST CALLVALUE DUP1 ISZERO PUSH2 0x7AC JUMPI PUSH1 0x0 DUP1 REVERT JUMPDEST POP PUSH2 0x51C PUSH2 0x7BB CALLDATASIZE PUSH1 0x4 PUSH2 0x2566 JUMP JUMPDEST PUSH2 0x1249 JUMP JUMPDEST CALLVALUE DUP1 ISZERO PUSH2 0x7CC JUMPI PUSH1 0x0 DUP1 REVERT JUMPDEST POP PUSH2 0x3C7 PUSH2 0x1298 JUMP JUMPDEST CALLVALUE DUP1 ISZERO PUSH2 0x7E1 JUMPI PUSH1 0x0 DUP1 REVERT JUMPDEST POP PUSH2 0x3C7 PUSH2 0x7F0 CALLDATASIZE PUSH1 0x4 PUSH2 0x27D3 JUMP JUMPDEST PUSH2 0x12AC JUMP JUMPDEST CALLVALUE DUP1 ISZERO PUSH2 0x801 JUMPI PUSH1 0x0 DUP1 REVERT JUMPDEST POP PUSH2 0x3C7 PUSH2 0x810 CALLDATASIZE PUSH1 0x4 PUSH2 0x278A JUMP JUMPDEST PUSH2 0x134A JUMP JUMPDEST CALLVALUE DUP1 ISZERO PUSH2 0x821 JUMPI PUSH1 0x0 DUP1 REVERT JUMPDEST POP PUSH2 0x3C7 PUSH2 0x830 CALLDATASIZE PUSH1 0x4 PUSH2 0x278A JUMP JUMPDEST PUSH2 0x1365 JUMP JUMPDEST CALLVALUE DUP1 ISZERO PUSH2 0x841 JUMPI PUSH1 0x0 DUP1 REVERT JUMPDEST POP PUSH1 0x15 SLOAD PUSH2 0x3E9 SWAP1 PUSH6 0x10000000000 SWAP1 DIV PUSH1 0xFF AND DUP2 JUMP JUMPDEST CALLVALUE DUP1 ISZERO PUSH2 0x864 JUMPI PUSH1 0x0 DUP1 REVERT JUMPDEST POP PUSH1 0x15 SLOAD PUSH2 0x3E9 SWAP1 PUSH4 0x1000000 SWAP1 DIV PUSH1 0xFF AND DUP2 JUMP JUMPDEST CALLVALUE DUP1 ISZERO PUSH2 0x885 JUMPI PUSH1 0x0 DUP1 REVERT JUMPDEST POP PUSH2 0x3E9 PUSH2 0x894 CALLDATASIZE PUSH1 0x4 PUSH2 0x27D3 JUMP JUMPDEST PUSH2 0x1380 JUMP JUMPDEST CALLVALUE DUP1 ISZERO PUSH2 0x8A5 JUMPI PUSH1 0x0 DUP1 REVERT JUMPDEST POP PUSH1 0x0 SLOAD PUSH1 0x1 PUSH1 0x1 PUSH1 0xA0 SHL SUB AND PUSH2 0x499 JUMP JUMPDEST CALLVALUE DUP1 ISZERO PUSH2 0x8C3 JUMPI PUSH1 0x0 DUP1 REVERT JUMPDEST POP PUSH2 0x46C PUSH2 0x1395 JUMP JUMPDEST CALLVALUE DUP1 ISZERO PUSH2 0x8D8 JUMPI PUSH1 0x0 DUP1 REVERT JUMPDEST POP PUSH2 0x3C7 PUSH2 0x8E7 CALLDATASIZE PUSH1 0x4 PUSH2 0x27D3 JUMP JUMPDEST PUSH2 0x13A4 JUMP JUMPDEST PUSH2 0x3C7 PUSH2 0x8FA CALLDATASIZE PUSH1 0x4 PUSH2 0x27D3 JUMP JUMPDEST PUSH2 0x14C8 JUMP JUMPDEST CALLVALUE DUP1 ISZERO PUSH2 0x90B JUMPI PUSH1 0x0 DUP1 REVERT JUMPDEST POP PUSH2 0x3C7 PUSH2 0x91A CALLDATASIZE PUSH1 0x4 PUSH2 0x266C JUMP JUMPDEST PUSH2 0x1883 JUMP JUMPDEST CALLVALUE DUP1 ISZERO PUSH2 0x92B JUMPI PUSH1 0x0 DUP1 REVERT JUMPDEST POP PUSH2 0x3E9 PUSH2 0x93A CALLDATASIZE PUSH1 0x4 PUSH2 0x2566 JUMP JUMPDEST PUSH1 0x16 PUSH1 0x20 MSTORE PUSH1 0x0 SWAP1 DUP2 MSTORE PUSH1 0x40 SWAP1 KECCAK256 SLOAD PUSH1 0xFF AND DUP2 JUMP JUMPDEST CALLVALUE DUP1 ISZERO PUSH2 0x95B JUMPI PUSH1 0x0 DUP1 REVERT JUMPDEST POP PUSH2 0x3C7 PUSH2 0x18EF JUMP JUMPDEST CALLVALUE DUP1 ISZERO PUSH2 0x970 JUMPI PUSH1 0x0 DUP1 REVERT JUMPDEST POP PUSH2 0x3C7 PUSH2 0x1910 JUMP JUMPDEST CALLVALUE DUP1 ISZERO PUSH2 0x985 JUMPI PUSH1 0x0 DUP1 REVERT JUMPDEST POP PUSH2 0x51C PUSH1 0x14 SLOAD DUP2 JUMP JUMPDEST CALLVALUE DUP1 ISZERO PUSH2 0x99B JUMPI PUSH1 0x0 DUP1 REVERT JUMPDEST POP PUSH2 0x3C7 PUSH2 0x9AA CALLDATASIZE PUSH1 0x4 PUSH2 0x278A JUMP JUMPDEST PUSH2 0x192F JUMP JUMPDEST CALLVALUE DUP1 ISZERO PUSH2 0x9BB JUMPI PUSH1 0x0 DUP1 REVERT JUMPDEST POP PUSH2 0x3C7 PUSH2 0x9CA CALLDATASIZE PUSH1 0x4 PUSH2 0x25F0 JUMP JUMPDEST PUSH2 0x194A JUMP JUMPDEST CALLVALUE DUP1 ISZERO PUSH2 0x9DB JUMPI PUSH1 0x0 DUP1 REVERT JUMPDEST POP PUSH2 0x3C7 PUSH2 0x9EA CALLDATASIZE PUSH1 0x4 PUSH2 0x27D3 JUMP JUMPDEST PUSH2 0x1994 JUMP JUMPDEST CALLVALUE DUP1 ISZERO PUSH2 0x9FB JUMPI PUSH1 0x0 DUP1 REVERT JUMPDEST POP PUSH2 0x46C PUSH2 0x19A1 JUMP JUMPDEST CALLVALUE DUP1 ISZERO PUSH2 0xA10 JUMPI PUSH1 0x0 DUP1 REVERT JUMPDEST POP PUSH2 0x46C PUSH2 0xA1F CALLDATASIZE PUSH1 0x4 PUSH2 0x27D3 JUMP JUMPDEST PUSH2 0x1A2F JUMP JUMPDEST CALLVALUE DUP1 ISZERO PUSH2 0xA30 JUMPI PUSH1 0x0 DUP1 REVERT JUMPDEST POP PUSH2 0x3C7 PUSH2 0xA3F CALLDATASIZE PUSH1 0x4 PUSH2 0x278A JUMP JUMPDEST PUSH2 0x1C6A JUMP JUMPDEST CALLVALUE DUP1 ISZERO PUSH2 0xA50 JUMPI PUSH1 0x0 DUP1 REVERT JUMPDEST POP PUSH2 0xA64 PUSH2 0xA5F CALLDATASIZE PUSH1 0x4 PUSH2 0x2566 JUMP JUMPDEST PUSH2 0x1C85 JUMP JUMPDEST PUSH1 0x40 MLOAD PUSH2 0x3F5 SWAP2 SWAP1 PUSH2 0x2919 JUMP JUMPDEST CALLVALUE DUP1 ISZERO PUSH2 0xA7D JUMPI PUSH1 0x0 DUP1 REVERT JUMPDEST POP PUSH1 0x15 SLOAD PUSH2 0x3E9 SWAP1 PUSH2 0x100 SWAP1 DIV PUSH1 0xFF AND DUP2 JUMP JUMPDEST CALLVALUE DUP1 ISZERO PUSH2 0xA9C JUMPI PUSH1 0x0 DUP1 REVERT JUMPDEST POP PUSH2 0x51C PUSH1 0x12 SLOAD DUP2 JUMP JUMPDEST CALLVALUE DUP1 ISZERO PUSH2 0xAB2 JUMPI PUSH1 0x0 DUP1 REVERT JUMPDEST POP PUSH2 0x3C7 PUSH2 0xAC1 CALLDATASIZE PUSH1 0x4 PUSH2 0x278A JUMP JUMPDEST PUSH2 0x1D5D JUMP JUMPDEST CALLVALUE DUP1 ISZERO PUSH2 0xAD2 JUMPI PUSH1 0x0 DUP1 REVERT JUMPDEST POP PUSH2 0x3E9 PUSH2 0xAE1 CALLDATASIZE PUSH1 0x4 PUSH2 0x2581 JUMP JUMPDEST PUSH1 0x1 PUSH1 0x1 PUSH1 0xA0 SHL SUB SWAP2 DUP3 AND PUSH1 0x0 SWAP1 DUP2 MSTORE PUSH1 0x8 PUSH1 0x20 SWAP1 DUP2 MSTORE PUSH1 0x40 DUP1 DUP4 KECCAK256 SWAP4 SWAP1 SWAP5 AND DUP3 MSTORE SWAP2 SWAP1 SWAP2 MSTORE KECCAK256 SLOAD PUSH1 0xFF AND SWAP1 JUMP JUMPDEST CALLVALUE DUP1 ISZERO PUSH2 0xB1B JUMPI PUSH1 0x0 DUP1 REVERT JUMPDEST POP PUSH2 0x3C7 PUSH2 0xB2A CALLDATASIZE PUSH1 0x4 PUSH2 0x27D3 JUMP JUMPDEST PUSH2 0x1D78 JUMP JUMPDEST CALLVALUE DUP1 ISZERO PUSH2 0xB3B JUMPI PUSH1 0x0 DUP1 REVERT JUMPDEST POP PUSH2 0x3C7 PUSH2 0xB4A CALLDATASIZE PUSH1 0x4 PUSH2 0x2566 JUMP JUMPDEST PUSH2 0x1E16 JUMP JUMPDEST CALLVALUE DUP1 ISZERO PUSH2 0xB5B JUMPI PUSH1 0x0 DUP1 REVERT JUMPDEST POP PUSH2 0x3C7 PUSH2 0xB6A CALLDATASIZE PUSH1 0x4 PUSH2 0x27D3 JUMP JUMPDEST PUSH2 0x1E8C JUMP JUMPDEST PUSH2 0xB77 PUSH2 0x1F2A JUMP JUMPDEST PUSH1 0x15 DUP1 SLOAD PUSH4 0xFF000000 NOT AND PUSH4 0x1000000 OR SWAP1 SSTORE JUMP JUMPDEST PUSH1 0x0 PUSH4 0x1FFC9A7 PUSH1 0xE0 SHL PUSH1 0x1 PUSH1 0x1 PUSH1 0xE0 SHL SUB NOT DUP4 AND EQ DUP1 PUSH2 0xBBD JUMPI POP PUSH4 0x80AC58CD PUSH1 0xE0 SHL PUSH1 0x1 PUSH1 0x1 PUSH1 0xE0 SHL SUB NOT DUP4 AND EQ JUMPDEST DUP1 PUSH2 0xBD8 JUMPI POP PUSH4 0x5B5E139F PUSH1 0xE0 SHL PUSH1 0x1 PUSH1 0x1 PUSH1 0xE0 SHL SUB NOT DUP4 AND EQ JUMPDEST SWAP3 SWAP2 POP POP JUMP JUMPDEST PUSH2 0xBE6 PUSH2 0x1F2A JUMP JUMPDEST PUSH1 0x15 DUP1 SLOAD PUSH1 0xFF NOT AND SWAP2 ISZERO ISZERO SWAP2 SWAP1 SWAP2 OR SWAP1 SSTORE JUMP JUMPDEST PUSH1 0x60 PUSH1 0x3 DUP1 SLOAD PUSH2 0xC08 SWAP1 PUSH2 0x2A28 JUMP JUMPDEST DUP1 PUSH1 0x1F ADD PUSH1 0x20 DUP1 SWAP2 DIV MUL PUSH1 0x20 ADD PUSH1 0x40 MLOAD SWAP1 DUP2 ADD PUSH1 0x40 MSTORE DUP1 SWAP3 SWAP2 SWAP1 DUP2 DUP2 MSTORE PUSH1 0x20 ADD DUP3 DUP1 SLOAD PUSH2 0xC34 SWAP1 PUSH2 0x2A28 JUMP JUMPDEST DUP1 ISZERO PUSH2 0xC81 JUMPI DUP1 PUSH1 0x1F LT PUSH2 0xC56 JUMPI PUSH2 0x100 DUP1 DUP4 SLOAD DIV MUL DUP4 MSTORE SWAP2 PUSH1 0x20 ADD SWAP2 PUSH2 0xC81 JUMP JUMPDEST DUP3 ADD SWAP2 SWAP1 PUSH1 0x0 MSTORE PUSH1 0x20 PUSH1 0x0 KECCAK256 SWAP1 JUMPDEST DUP2 SLOAD DUP2 MSTORE SWAP1 PUSH1 0x1 ADD SWAP1 PUSH1 0x20 ADD DUP1 DUP4 GT PUSH2 0xC64 JUMPI DUP3 SWAP1 SUB PUSH1 0x1F AND DUP3 ADD SWAP2 JUMPDEST POP POP POP POP POP SWAP1 POP SWAP1 JUMP JUMPDEST PUSH1 0x0 PUSH2 0xC96 DUP3 PUSH2 0x1F84 JUMP JUMPDEST PUSH2 0xCB3 JUMPI PUSH1 0x40 MLOAD PUSH4 0x33D1C039 PUSH1 0xE2 SHL DUP2 MSTORE PUSH1 0x4 ADD PUSH1 0x40 MLOAD DUP1 SWAP2 SUB SWAP1 REVERT JUMPDEST POP PUSH1 0x0 SWAP1 DUP2 MSTORE PUSH1 0x7 PUSH1 0x20 MSTORE PUSH1 0x40 SWAP1 KECCAK256 SLOAD PUSH1 0x1 PUSH1 0x1 PUSH1 0xA0 SHL SUB AND SWAP1 JUMP JUMPDEST PUSH1 0x0 PUSH1 0x1A DUP3 DUP2 SLOAD DUP2 LT PUSH2 0xCE4 JUMPI PUSH2 0xCE4 PUSH2 0x2ABE JUMP JUMPDEST SWAP1 PUSH1 0x0 MSTORE PUSH1 0x20 PUSH1 0x0 KECCAK256 SWAP1 PUSH1 0x20 SWAP2 DUP3 DUP3 DIV ADD SWAP2 SWAP1 MOD SWAP1 SLOAD SWAP1 PUSH2 0x100 EXP SWAP1 DIV PUSH1 0xFF AND SWAP1 POP SWAP2 SWAP1 POP JUMP JUMPDEST PUSH1 0x0 PUSH2 0xD16 DUP3 PUSH2 0x123E JUMP JUMPDEST SWAP1 POP CALLER PUSH1 0x1 PUSH1 0x1 PUSH1 0xA0 SHL SUB DUP3 AND EQ PUSH2 0xD4F JUMPI PUSH2 0xD32 DUP2 CALLER PUSH2 0xAE1 JUMP JUMPDEST PUSH2 0xD4F JUMPI PUSH1 0x40 MLOAD PUSH4 0x67D9DCA1 PUSH1 0xE1 SHL DUP2 MSTORE PUSH1 0x4 ADD PUSH1 0x40 MLOAD DUP1 SWAP2 SUB SWAP1 REVERT JUMPDEST PUSH1 0x0 DUP3 DUP2 MSTORE PUSH1 0x7 PUSH1 0x20 MSTORE PUSH1 0x40 DUP1 DUP3 KECCAK256 DUP1 SLOAD PUSH1 0x1 PUSH1 0x1 PUSH1 0xA0 SHL SUB NOT AND PUSH1 0x1 PUSH1 0x1 PUSH1 0xA0 SHL SUB DUP8 DUP2 AND SWAP2 DUP3 OR SWAP1 SWAP3 SSTORE SWAP2 MLOAD DUP6 SWAP4 SWAP2 DUP6 AND SWAP2 PUSH32 0x8C5BE1E5EBEC7D5BD14F71427D1E84F3DD0314C0F7B2291E5B200AC8C7C3B925 SWAP2 LOG4 POP POP POP JUMP JUMPDEST PUSH2 0xDB3 PUSH2 0x1F2A JUMP JUMPDEST PUSH1 0x15 DUP1 SLOAD PUSH2 0xFF00 NOT AND PUSH2 0x100 OR SWAP1 SSTORE JUMP JUMPDEST PUSH2 0xDCC PUSH2 0x1F2A JUMP JUMPDEST PUSH1 0x0 JUMPDEST DUP2 DUP2 LT ISZERO PUSH2 0xE3E JUMPI PUSH1 0x0 PUSH1 0x16 PUSH1 0x0 DUP6 DUP6 DUP6 DUP2 DUP2 LT PUSH2 0xDEF JUMPI PUSH2 0xDEF PUSH2 0x2ABE JUMP JUMPDEST SWAP1 POP PUSH1 0x20 MUL ADD PUSH1 0x20 DUP2 ADD SWAP1 PUSH2 0xE04 SWAP2 SWAP1 PUSH2 0x2566 JUMP JUMPDEST PUSH1 0x1 PUSH1 0x1 PUSH1 0xA0 SHL SUB AND DUP2 MSTORE PUSH1 0x20 DUP2 ADD SWAP2 SWAP1 SWAP2 MSTORE PUSH1 0x40 ADD PUSH1 0x0 KECCAK256 DUP1 SLOAD PUSH1 0xFF NOT AND SWAP2 ISZERO ISZERO SWAP2 SWAP1 SWAP2 OR SWAP1 SSTORE DUP1 PUSH2 0xE36 DUP2 PUSH2 0x2A63 JUMP JUMPDEST SWAP2 POP POP PUSH2 0xDCF JUMP JUMPDEST POP POP POP JUMP JUMPDEST CALLER PUSH2 0xE4D DUP3 PUSH2 0x123E JUMP JUMPDEST PUSH1 0x1 PUSH1 0x1 PUSH1 0xA0 SHL SUB AND EQ PUSH2 0xE60 JUMPI PUSH1 0x0 DUP1 REVERT JUMPDEST PUSH1 0x15 SLOAD PUSH2 0x100 SWAP1 DIV PUSH1 0xFF AND ISZERO PUSH2 0xE75 JUMPI PUSH1 0x0 DUP1 REVERT JUMPDEST PUSH1 0x1B DUP2 DUP2 SLOAD DUP2 LT PUSH2 0xE88 JUMPI PUSH2 0xE88 PUSH2 0x2ABE JUMP JUMPDEST SWAP1 PUSH1 0x0 MSTORE PUSH1 0x20 PUSH1 0x0 KECCAK256 SWAP1 PUSH1 0x20 SWAP2 DUP3 DUP3 DIV ADD SWAP2 SWAP1 MOD SWAP1 SLOAD SWAP1 PUSH2 0x100 EXP SWAP1 DIV PUSH1 0xFF AND ISZERO ISZERO PUSH1 0x1 ISZERO ISZERO EQ ISZERO PUSH2 0xED5 JUMPI PUSH1 0x40 MLOAD PUSH3 0x461BCD PUSH1 0xE5 SHL DUP2 MSTORE PUSH1 0x4 ADD PUSH2 0xECC SWAP1 PUSH2 0x2970 JUMP JUMPDEST PUSH1 0x40 MLOAD DUP1 SWAP2 SUB SWAP1 REVERT JUMPDEST PUSH1 0x1 PUSH1 0x1B DUP3 DUP2 SLOAD DUP2 LT PUSH2 0xEEA JUMPI PUSH2 0xEEA PUSH2 0x2ABE JUMP JUMPDEST SWAP1 PUSH1 0x0 MSTORE PUSH1 0x20 PUSH1 0x0 KECCAK256 SWAP1 PUSH1 0x20 SWAP2 DUP3 DUP3 DIV ADD SWAP2 SWAP1 MOD PUSH2 0x100 EXP DUP2 SLOAD DUP2 PUSH1 0xFF MUL NOT AND SWAP1 DUP4 ISZERO ISZERO MUL OR SWAP1 SSTORE POP POP JUMP JUMPDEST PUSH2 0xF1E PUSH2 0x1F2A JUMP JUMPDEST PUSH1 0x15 DUP1 SLOAD SWAP2 ISZERO ISZERO PUSH1 0x1 PUSH1 0x30 SHL MUL PUSH7 0xFF000000000000 NOT SWAP1 SWAP3 AND SWAP2 SWAP1 SWAP2 OR SWAP1 SSTORE JUMP JUMPDEST PUSH1 0x0 PUSH2 0xF4A DUP3 PUSH2 0x1FAC JUMP JUMPDEST SWAP1 POP DUP4 PUSH1 0x1 PUSH1 0x1 PUSH1 0xA0 SHL SUB AND DUP2 PUSH1 0x1 PUSH1 0x1 PUSH1 0xA0 SHL SUB AND EQ PUSH2 0xF7D JUMPI PUSH1 0x40 MLOAD PUSH3 0xA11481 PUSH1 0xE8 SHL DUP2 MSTORE PUSH1 0x4 ADD PUSH1 0x40 MLOAD DUP1 SWAP2 SUB SWAP1 REVERT JUMPDEST PUSH1 0x0 DUP3 DUP2 MSTORE PUSH1 0x7 PUSH1 0x20 MSTORE PUSH1 0x40 SWAP1 KECCAK256 DUP1 SLOAD CALLER DUP1 DUP3 EQ PUSH1 0x1 PUSH1 0x1 PUSH1 0xA0 SHL SUB DUP9 AND SWAP1 SWAP2 EQ OR PUSH2 0xFCA JUMPI PUSH2 0xFAD DUP7 CALLER PUSH2 0xAE1 JUMP JUMPDEST PUSH2 0xFCA JUMPI PUSH1 0x40 MLOAD PUSH4 0x2CE44B5F PUSH1 0xE1 SHL DUP2 MSTORE PUSH1 0x4 ADD PUSH1 0x40 MLOAD DUP1 SWAP2 SUB SWAP1 REVERT JUMPDEST PUSH1 0x1 PUSH1 0x1 PUSH1 0xA0 SHL SUB DUP6 AND PUSH2 0xFF1 JUMPI PUSH1 0x40 MLOAD PUSH4 0x3A954ECD PUSH1 0xE2 SHL DUP2 MSTORE PUSH1 0x4 ADD PUSH1 0x40 MLOAD DUP1 SWAP2 SUB SWAP1 REVERT JUMPDEST DUP1 ISZERO PUSH2 0xFFC JUMPI PUSH1 0x0 DUP3 SSTORE JUMPDEST PUSH1 0x1 PUSH1 0x1 PUSH1 0xA0 SHL SUB DUP7 DUP2 AND PUSH1 0x0 SWAP1 DUP2 MSTORE PUSH1 0x6 PUSH1 0x20 MSTORE PUSH1 0x40 DUP1 DUP3 KECCAK256 DUP1 SLOAD PUSH1 0x0 NOT ADD SWAP1 SSTORE SWAP2 DUP8 AND DUP1 DUP3 MSTORE SWAP2 SWAP1 KECCAK256 DUP1 SLOAD PUSH1 0x1 ADD SWAP1 SSTORE TIMESTAMP PUSH1 0xA0 SHL OR PUSH1 0x1 PUSH1 0xE1 SHL OR PUSH1 0x0 DUP6 DUP2 MSTORE PUSH1 0x5 PUSH1 0x20 MSTORE PUSH1 0x40 SWAP1 KECCAK256 SSTORE PUSH1 0x1 PUSH1 0xE1 SHL DUP4 AND PUSH2 0x1087 JUMPI PUSH1 0x1 DUP5 ADD PUSH1 0x0 DUP2 DUP2 MSTORE PUSH1 0x5 PUSH1 0x20 MSTORE PUSH1 0x40 SWAP1 KECCAK256 SLOAD PUSH2 0x1085 JUMPI PUSH1 0x1 SLOAD DUP2 EQ PUSH2 0x1085 JUMPI PUSH1 0x0 DUP2 DUP2 MSTORE PUSH1 0x5 PUSH1 0x20 MSTORE PUSH1 0x40 SWAP1 KECCAK256 DUP5 SWAP1 SSTORE JUMPDEST POP JUMPDEST DUP4 DUP6 PUSH1 0x1 PUSH1 0x1 PUSH1 0xA0 SHL SUB AND DUP8 PUSH1 0x1 PUSH1 0x1 PUSH1 0xA0 SHL SUB AND PUSH32 0xDDF252AD1BE2C89B69C2B068FC378DAA952BA7F163C4A11628F55A4DF523B3EF PUSH1 0x40 MLOAD PUSH1 0x40 MLOAD DUP1 SWAP2 SUB SWAP1 LOG4 POP POP POP POP POP POP JUMP JUMPDEST PUSH1 0x0 PUSH1 0x18 DUP3 DUP2 SLOAD DUP2 LT PUSH2 0xCE4 JUMPI PUSH2 0xCE4 PUSH2 0x2ABE JUMP JUMPDEST PUSH2 0x10ED PUSH2 0x1F2A JUMP JUMPDEST DUP1 MLOAD PUSH2 0x1100 SWAP1 PUSH1 0xC SWAP1 PUSH1 0x20 DUP5 ADD SWAP1 PUSH2 0x242B JUMP JUMPDEST POP POP JUMP JUMPDEST PUSH2 0x110C PUSH2 0x1F2A JUMP JUMPDEST PUSH1 0x0 DUP1 SLOAD PUSH1 0x40 MLOAD PUSH1 0x1 PUSH1 0x1 PUSH1 0xA0 SHL SUB SWAP1 SWAP2 AND SWAP2 SELFBALANCE DUP1 ISZERO PUSH2 0x8FC MUL SWAP3 SWAP1 SWAP2 DUP2 DUP2 DUP2 DUP6 DUP9 DUP9 CALL SWAP4 POP POP POP POP ISZERO DUP1 ISZERO PUSH2 0x1146 JUMPI RETURNDATASIZE PUSH1 0x0 DUP1 RETURNDATACOPY RETURNDATASIZE PUSH1 0x0 REVERT JUMPDEST POP JUMP JUMPDEST PUSH2 0xE3E DUP4 DUP4 DUP4 PUSH1 0x40 MLOAD DUP1 PUSH1 0x20 ADD PUSH1 0x40 MSTORE DUP1 PUSH1 0x0 DUP2 MSTORE POP PUSH2 0x194A JUMP JUMPDEST PUSH2 0x116C PUSH2 0x1F2A JUMP JUMPDEST DUP1 MLOAD PUSH2 0x1100 SWAP1 PUSH1 0xA SWAP1 PUSH1 0x20 DUP5 ADD SWAP1 PUSH2 0x242B JUMP JUMPDEST PUSH1 0x0 PUSH1 0x19 DUP3 DUP2 SLOAD DUP2 LT PUSH2 0xCE4 JUMPI PUSH2 0xCE4 PUSH2 0x2ABE JUMP JUMPDEST PUSH1 0x0 PUSH1 0x1B DUP3 DUP2 SLOAD DUP2 LT PUSH2 0xCE4 JUMPI PUSH2 0xCE4 PUSH2 0x2ABE JUMP JUMPDEST PUSH2 0x11B1 PUSH2 0x1F2A JUMP JUMPDEST PUSH1 0x0 JUMPDEST DUP2 DUP2 LT ISZERO PUSH2 0xE3E JUMPI PUSH1 0x1 PUSH1 0x16 PUSH1 0x0 DUP6 DUP6 DUP6 DUP2 DUP2 LT PUSH2 0x11D4 JUMPI PUSH2 0x11D4 PUSH2 0x2ABE JUMP JUMPDEST SWAP1 POP PUSH1 0x20 MUL ADD PUSH1 0x20 DUP2 ADD SWAP1 PUSH2 0x11E9 SWAP2 SWAP1 PUSH2 0x2566 JUMP JUMPDEST PUSH1 0x1 PUSH1 0x1 PUSH1 0xA0 SHL SUB AND DUP2 MSTORE PUSH1 0x20 DUP2 ADD SWAP2 SWAP1 SWAP2 MSTORE PUSH1 0x40 ADD PUSH1 0x0 KECCAK256 DUP1 SLOAD PUSH1 0xFF NOT AND SWAP2 ISZERO ISZERO SWAP2 SWAP1 SWAP2 OR SWAP1 SSTORE DUP1 PUSH2 0x121B DUP2 PUSH2 0x2A63 JUMP JUMPDEST SWAP2 POP POP PUSH2 0x11B4 JUMP JUMPDEST PUSH2 0x122B PUSH2 0x1F2A JUMP JUMPDEST PUSH1 0x15 DUP1 SLOAD PUSH3 0xFF0000 NOT AND PUSH3 0x10000 OR SWAP1 SSTORE JUMP JUMPDEST PUSH1 0x0 PUSH2 0xBD8 DUP3 PUSH2 0x1FAC JUMP JUMPDEST PUSH1 0x0 PUSH1 0x1 PUSH1 0x1 PUSH1 0xA0 SHL SUB DUP3 AND PUSH2 0x1272 JUMPI PUSH1 0x40 MLOAD PUSH4 0x23D3AD81 PUSH1 0xE2 SHL DUP2 MSTORE PUSH1 0x4 ADD PUSH1 0x40 MLOAD DUP1 SWAP2 SUB SWAP1 REVERT JUMPDEST POP PUSH1 0x1 PUSH1 0x1 PUSH1 0xA0 SHL SUB AND PUSH1 0x0 SWAP1 DUP2 MSTORE PUSH1 0x6 PUSH1 0x20 MSTORE PUSH1 0x40 SWAP1 KECCAK256 SLOAD PUSH8 0xFFFFFFFFFFFFFFFF AND SWAP1 JUMP JUMPDEST PUSH2 0x12A0 PUSH2 0x1F2A JUMP JUMPDEST PUSH2 0x12AA PUSH1 0x0 PUSH2 0x200D JUMP JUMPDEST JUMP JUMPDEST CALLER PUSH2 0x12B6 DUP3 PUSH2 0x123E JUMP JUMPDEST PUSH1 0x1 PUSH1 0x1 PUSH1 0xA0 SHL SUB AND EQ PUSH2 0x12C9 JUMPI PUSH1 0x0 DUP1 REVERT JUMPDEST PUSH1 0x15 SLOAD PUSH2 0x100 SWAP1 DIV PUSH1 0xFF AND ISZERO PUSH2 0x12DE JUMPI PUSH1 0x0 DUP1 REVERT JUMPDEST PUSH1 0x19 DUP2 DUP2 SLOAD DUP2 LT PUSH2 0x12F1 JUMPI PUSH2 0x12F1 PUSH2 0x2ABE JUMP JUMPDEST SWAP1 PUSH1 0x0 MSTORE PUSH1 0x20 PUSH1 0x0 KECCAK256 SWAP1 PUSH1 0x20 SWAP2 DUP3 DUP3 DIV ADD SWAP2 SWAP1 MOD SWAP1 SLOAD SWAP1 PUSH2 0x100 EXP SWAP1 DIV PUSH1 0xFF AND ISZERO ISZERO PUSH1 0x1 ISZERO ISZERO EQ ISZERO PUSH2 0x1335 JUMPI PUSH1 0x40 MLOAD PUSH3 0x461BCD PUSH1 0xE5 SHL DUP2 MSTORE PUSH1 0x4 ADD PUSH2 0xECC SWAP1 PUSH2 0x2970 JUMP JUMPDEST PUSH1 0x1 PUSH1 0x19 DUP3 DUP2 SLOAD DUP2 LT PUSH2 0xEEA JUMPI PUSH2 0xEEA PUSH2 0x2ABE JUMP JUMPDEST PUSH2 0x1352 PUSH2 0x1F2A JUMP JUMPDEST DUP1 MLOAD PUSH2 0x1100 SWAP1 PUSH1 0xF SWAP1 PUSH1 0x20 DUP5 ADD SWAP1 PUSH2 0x242B JUMP JUMPDEST PUSH2 0x136D PUSH2 0x1F2A JUMP JUMPDEST DUP1 MLOAD PUSH2 0x1100 SWAP1 PUSH1 0xB SWAP1 PUSH1 0x20 DUP5 ADD SWAP1 PUSH2 0x242B JUMP JUMPDEST PUSH1 0x0 PUSH1 0x1C DUP3 DUP2 SLOAD DUP2 LT PUSH2 0xCE4 JUMPI PUSH2 0xCE4 PUSH2 0x2ABE JUMP JUMPDEST PUSH1 0x60 PUSH1 0x4 DUP1 SLOAD PUSH2 0xC08 SWAP1 PUSH2 0x2A28 JUMP JUMPDEST CALLER PUSH2 0x13AE DUP3 PUSH2 0x123E JUMP JUMPDEST PUSH1 0x1 PUSH1 0x1 PUSH1 0xA0 SHL SUB AND EQ PUSH2 0x1404 JUMPI PUSH1 0x40 MLOAD PUSH3 0x461BCD PUSH1 0xE5 SHL DUP2 MSTORE PUSH1 0x20 PUSH1 0x4 DUP3 ADD MSTORE PUSH1 0x1B PUSH1 0x24 DUP3 ADD MSTORE PUSH32 0x736F72727920796F7520617265206E6F7420746865206F776E65720000000000 PUSH1 0x44 DUP3 ADD MSTORE PUSH1 0x64 ADD PUSH2 0xECC JUMP JUMPDEST PUSH1 0x15 SLOAD PUSH2 0x100 SWAP1 DIV PUSH1 0xFF AND ISZERO PUSH2 0x145C JUMPI PUSH1 0x40 MLOAD PUSH3 0x461BCD PUSH1 0xE5 SHL DUP2 MSTORE PUSH1 0x20 PUSH1 0x4 DUP3 ADD MSTORE PUSH1 0x17 PUSH1 0x24 DUP3 ADD MSTORE PUSH32 0x636C61696D206973206E6F742061637469766520796574000000000000000000 PUSH1 0x44 DUP3 ADD MSTORE PUSH1 0x64 ADD PUSH2 0xECC JUMP JUMPDEST PUSH1 0x18 DUP2 DUP2 SLOAD DUP2 LT PUSH2 0x146F JUMPI PUSH2 0x146F PUSH2 0x2ABE JUMP JUMPDEST SWAP1 PUSH1 0x0 MSTORE PUSH1 0x20 PUSH1 0x0 KECCAK256 SWAP1 PUSH1 0x20 SWAP2 DUP3 DUP3 DIV ADD SWAP2 SWAP1 MOD SWAP1 SLOAD SWAP1 PUSH2 0x100 EXP SWAP1 DIV PUSH1 0xFF AND ISZERO ISZERO PUSH1 0x1 ISZERO ISZERO EQ ISZERO PUSH2 0x14B3 JUMPI PUSH1 0x40 MLOAD PUSH3 0x461BCD PUSH1 0xE5 SHL DUP2 MSTORE PUSH1 0x4 ADD PUSH2 0xECC SWAP1 PUSH2 0x2970 JUMP JUMPDEST PUSH1 0x1 PUSH1 0x18 DUP3 DUP2 SLOAD DUP2 LT PUSH2 0xEEA JUMPI PUSH2 0xEEA PUSH2 0x2ABE JUMP JUMPDEST PUSH1 0x0 PUSH2 0x14D7 PUSH1 0x2 SLOAD PUSH1 0x1 SLOAD SUB SWAP1 JUMP JUMPDEST PUSH1 0x15 SLOAD SWAP1 SWAP2 POP PUSH1 0xFF AND ISZERO PUSH2 0x1579 JUMPI PUSH1 0x40 MLOAD PUSH3 0x461BCD PUSH1 0xE5 SHL DUP2 MSTORE PUSH1 0x20 PUSH1 0x4 DUP3 ADD MSTORE PUSH1 0x5F PUSH1 0x24 DUP3 ADD MSTORE PUSH32 0x574F414820686F6C6420757020746865206D696E74206973206E6F7420796574 PUSH1 0x44 DUP3 ADD MSTORE PUSH32 0x206C6976652C2061206C6974746C6520746F6F206561726C792074686572652E PUSH1 0x64 DUP3 ADD MSTORE PUSH32 0x2E2E206F72206C6174653F205472616E736D697373696F6E20456E64696E6700 PUSH1 0x84 DUP3 ADD MSTORE PUSH1 0xA4 ADD PUSH2 0xECC JUMP JUMPDEST PUSH1 0x0 DUP3 GT PUSH2 0x15EF JUMPI PUSH1 0x40 MLOAD PUSH3 0x461BCD PUSH1 0xE5 SHL DUP2 MSTORE PUSH1 0x20 PUSH1 0x4 DUP3 ADD MSTORE PUSH1 0x3F PUSH1 0x24 DUP3 ADD MSTORE PUSH32 0x6D757374206D696E74206174206C656173742031206E66742C2030206973206E PUSH1 0x44 DUP3 ADD MSTORE PUSH32 0x6F7420616C6C6F7765642E205472616E736D697373696F6E20456E64696E6700 PUSH1 0x64 DUP3 ADD MSTORE PUSH1 0x84 ADD PUSH2 0xECC JUMP JUMPDEST PUSH1 0x13 SLOAD PUSH2 0x15FC DUP4 DUP4 PUSH2 0x299A JUMP JUMPDEST GT ISZERO PUSH2 0x1666 JUMPI PUSH1 0x40 MLOAD PUSH3 0x461BCD PUSH1 0xE5 SHL DUP2 MSTORE PUSH1 0x20 PUSH1 0x4 DUP3 ADD MSTORE PUSH1 0x33 PUSH1 0x24 DUP3 ADD MSTORE PUSH32 0x5468697320736574206F66207368697274732068617665206265656E206D696E PUSH1 0x44 DUP3 ADD MSTORE PUSH19 0x3A32B21030B63932B0B23C961039B7B9393C97 PUSH1 0x69 SHL PUSH1 0x64 DUP3 ADD MSTORE PUSH1 0x84 ADD PUSH2 0xECC JUMP JUMPDEST PUSH1 0x12 SLOAD PUSH2 0x1673 DUP4 DUP4 PUSH2 0x299A JUMP JUMPDEST GT ISZERO PUSH2 0x16DF JUMPI PUSH1 0x40 MLOAD PUSH3 0x461BCD PUSH1 0xE5 SHL DUP2 MSTORE PUSH1 0x20 PUSH1 0x4 DUP3 ADD MSTORE PUSH1 0x35 PUSH1 0x24 DUP3 ADD MSTORE PUSH32 0x6C6F6F6B73206C696B652077652061726520706F70756C6172206D6178207375 PUSH1 0x44 DUP3 ADD MSTORE PUSH21 0x1C1C1B1E481A185CC81899595B881C995858DA1959 PUSH1 0x5A SHL PUSH1 0x64 DUP3 ADD MSTORE PUSH1 0x84 ADD PUSH2 0xECC JUMP JUMPDEST PUSH1 0x0 SLOAD PUSH1 0x1 PUSH1 0x1 PUSH1 0xA0 SHL SUB AND CALLER EQ PUSH2 0x1851 JUMPI PUSH1 0x1 DUP3 GT ISZERO PUSH2 0x1739 JUMPI PUSH1 0x40 MLOAD PUSH3 0x461BCD PUSH1 0xE5 SHL DUP2 MSTORE PUSH1 0x20 PUSH1 0x4 DUP3 ADD MSTORE PUSH1 0x14 PUSH1 0x24 DUP3 ADD MSTORE PUSH20 0x37B7363C90189030BA1030903A34B6B2901D149 PUSH1 0x65 SHL PUSH1 0x44 DUP3 ADD MSTORE PUSH1 0x64 ADD PUSH2 0xECC JUMP JUMPDEST PUSH1 0x15 SLOAD PUSH1 0x1 PUSH1 0x30 SHL SWAP1 DIV PUSH1 0xFF AND ISZERO ISZERO PUSH1 0x1 EQ ISZERO PUSH2 0x17FF JUMPI CALLER PUSH1 0x0 SWAP1 DUP2 MSTORE PUSH1 0x16 PUSH1 0x20 MSTORE PUSH1 0x40 SWAP1 KECCAK256 SLOAD PUSH1 0xFF AND PUSH2 0x17A1 JUMPI PUSH1 0x40 MLOAD PUSH3 0x461BCD PUSH1 0xE5 SHL DUP2 MSTORE PUSH1 0x20 PUSH1 0x4 DUP3 ADD MSTORE PUSH1 0xF PUSH1 0x24 DUP3 ADD MSTORE PUSH15 0x139BDD08105B1B1BDDDB1A5CDD1959 PUSH1 0x8A SHL PUSH1 0x44 DUP3 ADD MSTORE PUSH1 0x64 ADD PUSH2 0xECC JUMP JUMPDEST CALLER PUSH1 0x0 SWAP1 DUP2 MSTORE PUSH1 0x17 PUSH1 0x20 MSTORE PUSH1 0x40 SWAP1 KECCAK256 SLOAD PUSH1 0x14 SLOAD PUSH2 0x17BE DUP5 DUP4 PUSH2 0x299A JUMP JUMPDEST GT ISZERO PUSH2 0x17FD JUMPI PUSH1 0x40 MLOAD PUSH3 0x461BCD PUSH1 0xE5 SHL DUP2 MSTORE PUSH1 0x20 PUSH1 0x4 DUP3 ADD MSTORE PUSH1 0xE PUSH1 0x24 DUP3 ADD MSTORE PUSH14 0x105B1C9958591E481B5A5B9D1959 PUSH1 0x92 SHL PUSH1 0x44 DUP3 ADD MSTORE PUSH1 0x64 ADD PUSH2 0xECC JUMP JUMPDEST POP JUMPDEST DUP2 PUSH1 0x11 SLOAD PUSH2 0x180D SWAP2 SWAP1 PUSH2 0x29C6 JUMP JUMPDEST CALLVALUE LT ISZERO PUSH2 0x1851 JUMPI PUSH1 0x40 MLOAD PUSH3 0x461BCD PUSH1 0xE5 SHL DUP2 MSTORE PUSH1 0x20 PUSH1 0x4 DUP3 ADD MSTORE PUSH1 0x12 PUSH1 0x24 DUP3 ADD MSTORE PUSH18 0x86DEE6E840C8DECAE6DC4EE840DAC2E8C6D PUSH1 0x73 SHL PUSH1 0x44 DUP3 ADD MSTORE PUSH1 0x64 ADD PUSH2 0xECC JUMP JUMPDEST PUSH2 0x185B CALLER DUP4 PUSH2 0x205D JUMP JUMPDEST CALLER PUSH1 0x0 SWAP1 DUP2 MSTORE PUSH1 0x17 PUSH1 0x20 MSTORE PUSH1 0x40 DUP2 KECCAK256 DUP1 SLOAD DUP5 SWAP3 SWAP1 PUSH2 0x187A SWAP1 DUP5 SWAP1 PUSH2 0x299A JUMP JUMPDEST SWAP1 SWAP2 SSTORE POP POP POP POP JUMP JUMPDEST CALLER PUSH1 0x0 DUP2 DUP2 MSTORE PUSH1 0x8 PUSH1 0x20 SWAP1 DUP2 MSTORE PUSH1 0x40 DUP1 DUP4 KECCAK256 PUSH1 0x1 PUSH1 0x1 PUSH1 0xA0 SHL SUB DUP8 AND DUP1 DUP6 MSTORE SWAP1 DUP4 MSTORE SWAP3 DUP2 SWAP1 KECCAK256 DUP1 SLOAD PUSH1 0xFF NOT AND DUP7 ISZERO ISZERO SWAP1 DUP2 OR SWAP1 SWAP2 SSTORE SWAP1 MLOAD SWAP1 DUP2 MSTORE SWAP2 SWAP3 SWAP2 PUSH32 0x17307EAB39AB6107E8899845AD3D59BD9653F200F220920489CA2B5937696C31 SWAP2 ADD PUSH1 0x40 MLOAD DUP1 SWAP2 SUB SWAP1 LOG3 POP POP JUMP JUMPDEST PUSH2 0x18F7 PUSH2 0x1F2A JUMP JUMPDEST PUSH1 0x15 DUP1 SLOAD PUSH6 0xFF0000000000 NOT AND PUSH6 0x10000000000 OR SWAP1 SSTORE JUMP JUMPDEST PUSH2 0x1918 PUSH2 0x1F2A JUMP JUMPDEST PUSH1 0x15 DUP1 SLOAD PUSH5 0xFF00000000 NOT AND PUSH5 0x100000000 OR SWAP1 SSTORE JUMP JUMPDEST PUSH2 0x1937 PUSH2 0x1F2A JUMP JUMPDEST DUP1 MLOAD PUSH2 0x1100 SWAP1 PUSH1 0xD SWAP1 PUSH1 0x20 DUP5 ADD SWAP1 PUSH2 0x242B JUMP JUMPDEST PUSH2 0x1955 DUP5 DUP5 DUP5 PUSH2 0xF3F JUMP JUMPDEST PUSH1 0x1 PUSH1 0x1 PUSH1 0xA0 SHL SUB DUP4 AND EXTCODESIZE ISZERO PUSH2 0x198E JUMPI PUSH2 0x1971 DUP5 DUP5 DUP5 DUP5 PUSH2 0x2077 JUMP JUMPDEST PUSH2 0x198E JUMPI PUSH1 0x40 MLOAD PUSH4 0x68D2BF6B PUSH1 0xE1 SHL DUP2 MSTORE PUSH1 0x4 ADD PUSH1 0x40 MLOAD DUP1 SWAP2 SUB SWAP1 REVERT JUMPDEST POP POP POP POP JUMP JUMPDEST PUSH2 0x199C PUSH2 0x1F2A JUMP JUMPDEST PUSH1 0x13 SSTORE JUMP JUMPDEST PUSH1 0x10 DUP1 SLOAD PUSH2 0x19AE SWAP1 PUSH2 0x2A28 JUMP JUMPDEST DUP1 PUSH1 0x1F ADD PUSH1 0x20 DUP1 SWAP2 DIV MUL PUSH1 0x20 ADD PUSH1 0x40 MLOAD SWAP1 DUP2 ADD PUSH1 0x40 MSTORE DUP1 SWAP3 SWAP2 SWAP1 DUP2 DUP2 MSTORE PUSH1 0x20 ADD DUP3 DUP1 SLOAD PUSH2 0x19DA SWAP1 PUSH2 0x2A28 JUMP JUMPDEST DUP1 ISZERO PUSH2 0x1A27 JUMPI DUP1 PUSH1 0x1F LT PUSH2 0x19FC JUMPI PUSH2 0x100 DUP1 DUP4 SLOAD DIV MUL DUP4 MSTORE SWAP2 PUSH1 0x20 ADD SWAP2 PUSH2 0x1A27 JUMP JUMPDEST DUP3 ADD SWAP2 SWAP1 PUSH1 0x0 MSTORE PUSH1 0x20 PUSH1 0x0 KECCAK256 SWAP1 JUMPDEST DUP2 SLOAD DUP2 MSTORE SWAP1 PUSH1 0x1 ADD SWAP1 PUSH1 0x20 ADD DUP1 DUP4 GT PUSH2 0x1A0A JUMPI DUP3 SWAP1 SUB PUSH1 0x1F AND DUP3 ADD SWAP2 JUMPDEST POP POP POP POP POP DUP2 JUMP JUMPDEST PUSH1 0x60 PUSH2 0x1A3A DUP3 PUSH2 0x1F84 JUMP JUMPDEST PUSH2 0x1A9E JUMPI PUSH1 0x40 MLOAD PUSH3 0x461BCD PUSH1 0xE5 SHL DUP2 MSTORE PUSH1 0x20 PUSH1 0x4 DUP3 ADD MSTORE PUSH1 0x2F PUSH1 0x24 DUP3 ADD MSTORE PUSH32 0x4552433732314D657461646174613A2055524920717565727920666F72206E6F PUSH1 0x44 DUP3 ADD MSTORE PUSH15 0x3732BC34B9BA32B73A103A37B5B2B7 PUSH1 0x89 SHL PUSH1 0x64 DUP3 ADD MSTORE PUSH1 0x84 ADD PUSH2 0xECC JUMP JUMPDEST PUSH1 0x18 DUP3 DUP2 SLOAD DUP2 LT PUSH2 0x1AB1 JUMPI PUSH2 0x1AB1 PUSH2 0x2ABE JUMP JUMPDEST SWAP1 PUSH1 0x0 MSTORE PUSH1 0x20 PUSH1 0x0 KECCAK256 SWAP1 PUSH1 0x20 SWAP2 DUP3 DUP3 DIV ADD SWAP2 SWAP1 MOD SWAP1 SLOAD SWAP1 PUSH2 0x100 EXP SWAP1 DIV PUSH1 0xFF AND ISZERO ISZERO PUSH1 0x1 ISZERO ISZERO EQ ISZERO PUSH2 0x1B3C JUMPI PUSH1 0x0 PUSH2 0x1AE7 PUSH2 0x216F JUMP JUMPDEST SWAP1 POP PUSH1 0x0 DUP2 MLOAD GT PUSH2 0x1B07 JUMPI PUSH1 0x40 MLOAD DUP1 PUSH1 0x20 ADD PUSH1 0x40 MSTORE DUP1 PUSH1 0x0 DUP2 MSTORE POP PUSH2 0x1B35 JUMP JUMPDEST DUP1 PUSH2 0x1B11 DUP5 PUSH2 0x217E JUMP JUMPDEST PUSH1 0x10 PUSH1 0x40 MLOAD PUSH1 0x20 ADD PUSH2 0x1B25 SWAP4 SWAP3 SWAP2 SWAP1 PUSH2 0x2818 JUMP JUMPDEST PUSH1 0x40 MLOAD PUSH1 0x20 DUP2 DUP4 SUB SUB DUP2 MSTORE SWAP1 PUSH1 0x40 MSTORE JUMPDEST SWAP4 SWAP3 POP POP POP JUMP JUMPDEST PUSH1 0x19 DUP3 DUP2 SLOAD DUP2 LT PUSH2 0x1B4F JUMPI PUSH2 0x1B4F PUSH2 0x2ABE JUMP JUMPDEST SWAP1 PUSH1 0x0 MSTORE PUSH1 0x20 PUSH1 0x0 KECCAK256 SWAP1 PUSH1 0x20 SWAP2 DUP3 DUP3 DIV ADD SWAP2 SWAP1 MOD SWAP1 SLOAD SWAP1 PUSH2 0x100 EXP SWAP1 DIV PUSH1 0xFF AND ISZERO ISZERO PUSH1 0x1 ISZERO ISZERO EQ ISZERO PUSH2 0x1B85 JUMPI PUSH1 0x0 PUSH2 0x1AE7 PUSH2 0x227C JUMP JUMPDEST PUSH1 0x1A DUP3 DUP2 SLOAD DUP2 LT PUSH2 0x1B98 JUMPI PUSH2 0x1B98 PUSH2 0x2ABE JUMP JUMPDEST SWAP1 PUSH1 0x0 MSTORE PUSH1 0x20 PUSH1 0x0 KECCAK256 SWAP1 PUSH1 0x20 SWAP2 DUP3 DUP3 DIV ADD SWAP2 SWAP1 MOD SWAP1 SLOAD SWAP1 PUSH2 0x100 EXP SWAP1 DIV PUSH1 0xFF AND ISZERO ISZERO PUSH1 0x1 ISZERO ISZERO EQ ISZERO PUSH2 0x1BCE JUMPI PUSH1 0x0 PUSH2 0x1AE7 PUSH2 0x228B JUMP JUMPDEST PUSH1 0x1B DUP3 DUP2 SLOAD DUP2 LT PUSH2 0x1BE1 JUMPI PUSH2 0x1BE1 PUSH2 0x2ABE JUMP JUMPDEST SWAP1 PUSH1 0x0 MSTORE PUSH1 0x20 PUSH1 0x0 KECCAK256 SWAP1 PUSH1 0x20 SWAP2 DUP3 DUP3 DIV ADD SWAP2 SWAP1 MOD SWAP1 SLOAD SWAP1 PUSH2 0x100 EXP SWAP1 DIV PUSH1 0xFF AND ISZERO ISZERO PUSH1 0x1 ISZERO ISZERO EQ ISZERO PUSH2 0x1C17 JUMPI PUSH1 0x0 PUSH2 0x1AE7 PUSH2 0x229A JUMP JUMPDEST PUSH1 0x1C DUP3 DUP2 SLOAD DUP2 LT PUSH2 0x1C2A JUMPI PUSH2 0x1C2A PUSH2 0x2ABE JUMP JUMPDEST SWAP1 PUSH1 0x0 MSTORE PUSH1 0x20 PUSH1 0x0 KECCAK256 SWAP1 PUSH1 0x20 SWAP2 DUP3 DUP3 DIV ADD SWAP2 SWAP1 MOD SWAP1 SLOAD SWAP1 PUSH2 0x100 EXP SWAP1 DIV PUSH1 0xFF AND ISZERO ISZERO PUSH1 0x1 ISZERO ISZERO EQ ISZERO PUSH2 0x1C60 JUMPI PUSH1 0x0 PUSH2 0x1AE7 PUSH2 0x22A9 JUMP JUMPDEST PUSH1 0x0 PUSH2 0x1AE7 PUSH2 0x22B8 JUMP JUMPDEST PUSH2 0x1C72 PUSH2 0x1F2A JUMP JUMPDEST DUP1 MLOAD PUSH2 0x1100 SWAP1 PUSH1 0xE SWAP1 PUSH1 0x20 DUP5 ADD SWAP1 PUSH2 0x242B JUMP JUMPDEST PUSH1 0x60 PUSH1 0x0 PUSH2 0x1C96 PUSH1 0x2 SLOAD PUSH1 0x1 SLOAD SUB SWAP1 JUMP JUMPDEST SWAP1 POP PUSH1 0x0 PUSH2 0x1CA3 DUP5 PUSH2 0x1249 JUMP JUMPDEST PUSH8 0xFFFFFFFFFFFFFFFF DUP2 GT ISZERO PUSH2 0x1CBB JUMPI PUSH2 0x1CBB PUSH2 0x2AD4 JUMP JUMPDEST PUSH1 0x40 MLOAD SWAP1 DUP1 DUP3 MSTORE DUP1 PUSH1 0x20 MUL PUSH1 0x20 ADD DUP3 ADD PUSH1 0x40 MSTORE DUP1 ISZERO PUSH2 0x1CE4 JUMPI DUP2 PUSH1 0x20 ADD PUSH1 0x20 DUP3 MUL DUP1 CALLDATASIZE DUP4 CALLDATACOPY ADD SWAP1 POP JUMPDEST POP SWAP1 POP PUSH1 0x0 DUP1 JUMPDEST DUP4 DUP2 LT ISZERO PUSH2 0x1D53 JUMPI DUP6 PUSH1 0x1 PUSH1 0x1 PUSH1 0xA0 SHL SUB AND PUSH2 0x1D06 DUP3 PUSH2 0x123E JUMP JUMPDEST PUSH1 0x1 PUSH1 0x1 PUSH1 0xA0 SHL SUB AND EQ ISZERO PUSH2 0x1D41 JUMPI DUP1 DUP4 DUP4 DUP2 MLOAD DUP2 LT PUSH2 0x1D28 JUMPI PUSH2 0x1D28 PUSH2 0x2ABE JUMP JUMPDEST PUSH1 0x20 SWAP1 DUP2 MUL SWAP2 SWAP1 SWAP2 ADD ADD MSTORE DUP2 PUSH2 0x1D3D DUP2 PUSH2 0x2A63 JUMP JUMPDEST SWAP3 POP POP JUMPDEST DUP1 PUSH2 0x1D4B DUP2 PUSH2 0x2A63 JUMP JUMPDEST SWAP2 POP POP PUSH2 0x1CEB JUMP JUMPDEST POP SWAP1 SWAP5 SWAP4 POP POP POP POP JUMP JUMPDEST PUSH2 0x1D65 PUSH2 0x1F2A JUMP JUMPDEST DUP1 MLOAD PUSH2 0x1100 SWAP1 PUSH1 0x10 SWAP1 PUSH1 0x20 DUP5 ADD SWAP1 PUSH2 0x242B JUMP JUMPDEST CALLER PUSH2 0x1D82 DUP3 PUSH2 0x123E JUMP JUMPDEST PUSH1 0x1 PUSH1 0x1 PUSH1 0xA0 SHL SUB AND EQ PUSH2 0x1D95 JUMPI PUSH1 0x0 DUP1 REVERT JUMPDEST PUSH1 0x15 SLOAD PUSH2 0x100 SWAP1 DIV PUSH1 0xFF AND ISZERO PUSH2 0x1DAA JUMPI PUSH1 0x0 DUP1 REVERT JUMPDEST PUSH1 0x1C DUP2 DUP2 SLOAD DUP2 LT PUSH2 0x1DBD JUMPI PUSH2 0x1DBD PUSH2 0x2ABE JUMP JUMPDEST SWAP1 PUSH1 0x0 MSTORE PUSH1 0x20 PUSH1 0x0 KECCAK256 SWAP1 PUSH1 0x20 SWAP2 DUP3 DUP3 DIV ADD SWAP2 SWAP1 MOD SWAP1 SLOAD SWAP1 PUSH2 0x100 EXP SWAP1 DIV PUSH1 0xFF AND ISZERO ISZERO PUSH1 0x1 ISZERO ISZERO EQ ISZERO PUSH2 0x1E01 JUMPI PUSH1 0x40 MLOAD PUSH3 0x461BCD PUSH1 0xE5 SHL DUP2 MSTORE PUSH1 0x4 ADD PUSH2 0xECC SWAP1 PUSH2 0x2970 JUMP JUMPDEST PUSH1 0x1 PUSH1 0x1C DUP3 DUP2 SLOAD DUP2 LT PUSH2 0xEEA JUMPI PUSH2 0xEEA PUSH2 0x2ABE JUMP JUMPDEST PUSH2 0x1E1E PUSH2 0x1F2A JUMP JUMPDEST PUSH1 0x1 PUSH1 0x1 PUSH1 0xA0 SHL SUB DUP2 AND PUSH2 0x1E83 JUMPI PUSH1 0x40 MLOAD PUSH3 0x461BCD PUSH1 0xE5 SHL DUP2 MSTORE PUSH1 0x20 PUSH1 0x4 DUP3 ADD MSTORE PUSH1 0x26 PUSH1 0x24 DUP3 ADD MSTORE PUSH32 0x4F776E61626C653A206E6577206F776E657220697320746865207A65726F2061 PUSH1 0x44 DUP3 ADD MSTORE PUSH6 0x646472657373 PUSH1 0xD0 SHL PUSH1 0x64 DUP3 ADD MSTORE PUSH1 0x84 ADD PUSH2 0xECC JUMP JUMPDEST PUSH2 0x1146 DUP2 PUSH2 0x200D JUMP JUMPDEST CALLER PUSH2 0x1E96 DUP3 PUSH2 0x123E JUMP JUMPDEST PUSH1 0x1 PUSH1 0x1 PUSH1 0xA0 SHL SUB AND EQ PUSH2 0x1EA9 JUMPI PUSH1 0x0 DUP1 REVERT JUMPDEST PUSH1 0x15 SLOAD PUSH2 0x100 SWAP1 DIV PUSH1 0xFF AND ISZERO PUSH2 0x1EBE JUMPI PUSH1 0x0 DUP1 REVERT JUMPDEST PUSH1 0x1A DUP2 DUP2 SLOAD DUP2 LT PUSH2 0x1ED1 JUMPI PUSH2 0x1ED1 PUSH2 0x2ABE JUMP JUMPDEST SWAP1 PUSH1 0x0 MSTORE PUSH1 0x20 PUSH1 0x0 KECCAK256 SWAP1 PUSH1 0x20 SWAP2 DUP3 DUP3 DIV ADD SWAP2 SWAP1 MOD SWAP1 SLOAD SWAP1 PUSH2 0x100 EXP SWAP1 DIV PUSH1 0xFF AND ISZERO ISZERO PUSH1 0x1 ISZERO ISZERO EQ ISZERO PUSH2 0x1F15 JUMPI PUSH1 0x40 MLOAD PUSH3 0x461BCD PUSH1 0xE5 SHL DUP2 MSTORE PUSH1 0x4 ADD PUSH2 0xECC SWAP1 PUSH2 0x2970 JUMP JUMPDEST PUSH1 0x1 PUSH1 0x1A DUP3 DUP2 SLOAD DUP2 LT PUSH2 0xEEA JUMPI PUSH2 0xEEA PUSH2 0x2ABE JUMP JUMPDEST PUSH1 0x0 SLOAD PUSH1 0x1 PUSH1 0x1 PUSH1 0xA0 SHL SUB AND CALLER EQ PUSH2 0x12AA JUMPI PUSH1 0x40 MLOAD PUSH3 0x461BCD PUSH1 0xE5 SHL DUP2 MSTORE PUSH1 0x20 PUSH1 0x4 DUP3 ADD DUP2 SWAP1 MSTORE PUSH1 0x24 DUP3 ADD MSTORE PUSH32 0x4F776E61626C653A2063616C6C6572206973206E6F7420746865206F776E6572 PUSH1 0x44 DUP3 ADD MSTORE PUSH1 0x64 ADD PUSH2 0xECC JUMP JUMPDEST PUSH1 0x0 PUSH1 0x1 SLOAD DUP3 LT DUP1 ISZERO PUSH2 0xBD8 JUMPI POP POP PUSH1 0x0 SWAP1 DUP2 MSTORE PUSH1 0x5 PUSH1 0x20 MSTORE PUSH1 0x40 SWAP1 KECCAK256 SLOAD PUSH1 0x1 PUSH1 0xE0 SHL AND ISZERO SWAP1 JUMP JUMPDEST PUSH1 0x0 DUP2 PUSH1 0x1 SLOAD DUP2 LT ISZERO PUSH2 0x1FF4 JUMPI PUSH1 0x0 DUP2 DUP2 MSTORE PUSH1 0x5 PUSH1 0x20 MSTORE PUSH1 0x40 SWAP1 KECCAK256 SLOAD PUSH1 0x1 PUSH1 0xE0 SHL DUP2 AND PUSH2 0x1FF2 JUMPI JUMPDEST DUP1 PUSH2 0x1B35 JUMPI POP PUSH1 0x0 NOT ADD PUSH1 0x0 DUP2 DUP2 MSTORE PUSH1 0x5 PUSH1 0x20 MSTORE PUSH1 0x40 SWAP1 KECCAK256 SLOAD PUSH2 0x1FD4 JUMP JUMPDEST POP JUMPDEST PUSH1 0x40 MLOAD PUSH4 0x6F96CDA1 PUSH1 0xE1 SHL DUP2 MSTORE PUSH1 0x4 ADD PUSH1 0x40 MLOAD DUP1 SWAP2 SUB SWAP1 REVERT JUMPDEST PUSH1 0x0 DUP1 SLOAD PUSH1 0x1 PUSH1 0x1 PUSH1 0xA0 SHL SUB DUP4 DUP2 AND PUSH1 0x1 PUSH1 0x1 PUSH1 0xA0 SHL SUB NOT DUP4 AND DUP2 OR DUP5 SSTORE PUSH1 0x40 MLOAD SWAP2 SWAP1 SWAP3 AND SWAP3 DUP4 SWAP2 PUSH32 0x8BE0079C531659141344CD1FD0A4F28419497F9722A3DAAFE3B4186F6B6457E0 SWAP2 SWAP1 LOG3 POP POP JUMP JUMPDEST PUSH2 0x1100 DUP3 DUP3 PUSH1 0x40 MLOAD DUP1 PUSH1 0x20 ADD PUSH1 0x40 MSTORE DUP1 PUSH1 0x0 DUP2 MSTORE POP PUSH2 0x22C7 JUMP JUMPDEST PUSH1 0x40 MLOAD PUSH4 0xA85BD01 PUSH1 0xE1 SHL DUP2 MSTORE PUSH1 0x0 SWAP1 PUSH1 0x1 PUSH1 0x1 PUSH1 0xA0 SHL SUB DUP6 AND SWAP1 PUSH4 0x150B7A02 SWAP1 PUSH2 0x20AC SWAP1 CALLER SWAP1 DUP10 SWAP1 DUP9 SWAP1 DUP9 SWAP1 PUSH1 0x4 ADD PUSH2 0x28DC JUMP JUMPDEST PUSH1 0x20 PUSH1 0x40 MLOAD DUP1 DUP4 SUB DUP2 PUSH1 0x0 DUP8 DUP1 EXTCODESIZE ISZERO DUP1 ISZERO PUSH2 0x20C6 JUMPI PUSH1 0x0 DUP1 REVERT JUMPDEST POP GAS CALL SWAP3 POP POP POP DUP1 ISZERO PUSH2 0x20F6 JUMPI POP PUSH1 0x40 DUP1 MLOAD PUSH1 0x1F RETURNDATASIZE SWAP1 DUP2 ADD PUSH1 0x1F NOT AND DUP3 ADD SWAP1 SWAP3 MSTORE PUSH2 0x20F3 SWAP2 DUP2 ADD SWAP1 PUSH2 0x276D JUMP JUMPDEST PUSH1 0x1 JUMPDEST PUSH2 0x2151 JUMPI RETURNDATASIZE DUP1 DUP1 ISZERO PUSH2 0x2124 JUMPI PUSH1 0x40 MLOAD SWAP2 POP PUSH1 0x1F NOT PUSH1 0x3F RETURNDATASIZE ADD AND DUP3 ADD PUSH1 0x40 MSTORE RETURNDATASIZE DUP3 MSTORE RETURNDATASIZE PUSH1 0x0 PUSH1 0x20 DUP5 ADD RETURNDATACOPY PUSH2 0x2129 JUMP JUMPDEST PUSH1 0x60 SWAP2 POP JUMPDEST POP DUP1 MLOAD PUSH2 0x2149 JUMPI PUSH1 0x40 MLOAD PUSH4 0x68D2BF6B PUSH1 0xE1 SHL DUP2 MSTORE PUSH1 0x4 ADD PUSH1 0x40 MLOAD DUP1 SWAP2 SUB SWAP1 REVERT JUMPDEST DUP1 MLOAD DUP2 PUSH1 0x20 ADD REVERT JUMPDEST PUSH1 0x1 PUSH1 0x1 PUSH1 0xE0 SHL SUB NOT AND PUSH4 0xA85BD01 PUSH1 0xE1 SHL EQ SWAP1 POP JUMPDEST SWAP5 SWAP4 POP POP POP POP JUMP JUMPDEST PUSH1 0x60 PUSH1 0xB DUP1 SLOAD PUSH2 0xC08 SWAP1 PUSH2 0x2A28 JUMP JUMPDEST PUSH1 0x60 DUP2 PUSH2 0x21A2 JUMPI POP POP PUSH1 0x40 DUP1 MLOAD DUP1 DUP3 ADD SWAP1 SWAP2 MSTORE PUSH1 0x1 DUP2 MSTORE PUSH1 0x3 PUSH1 0xFC SHL PUSH1 0x20 DUP3 ADD MSTORE SWAP1 JUMP JUMPDEST DUP2 PUSH1 0x0 JUMPDEST DUP2 ISZERO PUSH2 0x21CC JUMPI DUP1 PUSH2 0x21B6 DUP2 PUSH2 0x2A63 JUMP JUMPDEST SWAP2 POP PUSH2 0x21C5 SWAP1 POP PUSH1 0xA DUP4 PUSH2 0x29B2 JUMP JUMPDEST SWAP2 POP PUSH2 0x21A6 JUMP JUMPDEST PUSH1 0x0 DUP2 PUSH8 0xFFFFFFFFFFFFFFFF DUP2 GT ISZERO PUSH2 0x21E7 JUMPI PUSH2 0x21E7 PUSH2 0x2AD4 JUMP JUMPDEST PUSH1 0x40 MLOAD SWAP1 DUP1 DUP3 MSTORE DUP1 PUSH1 0x1F ADD PUSH1 0x1F NOT AND PUSH1 0x20 ADD DUP3 ADD PUSH1 0x40 MSTORE DUP1 ISZERO PUSH2 0x2211 JUMPI PUSH1 0x20 DUP3 ADD DUP2 DUP1 CALLDATASIZE DUP4 CALLDATACOPY ADD SWAP1 POP JUMPDEST POP SWAP1 POP JUMPDEST DUP5 ISZERO PUSH2 0x2167 JUMPI PUSH2 0x2226 PUSH1 0x1 DUP4 PUSH2 0x29E5 JUMP JUMPDEST SWAP2 POP PUSH2 0x2233 PUSH1 0xA DUP7 PUSH2 0x2A7E JUMP JUMPDEST PUSH2 0x223E SWAP1 PUSH1 0x30 PUSH2 0x299A JUMP JUMPDEST PUSH1 0xF8 SHL DUP2 DUP4 DUP2 MLOAD DUP2 LT PUSH2 0x2253 JUMPI PUSH2 0x2253 PUSH2 0x2ABE JUMP JUMPDEST PUSH1 0x20 ADD ADD SWAP1 PUSH1 0x1 PUSH1 0x1 PUSH1 0xF8 SHL SUB NOT AND SWAP1 DUP2 PUSH1 0x0 BYTE SWAP1 MSTORE8 POP PUSH2 0x2275 PUSH1 0xA DUP7 PUSH2 0x29B2 JUMP JUMPDEST SWAP5 POP PUSH2 0x2215 JUMP JUMPDEST PUSH1 0x60 PUSH1 0xC DUP1 SLOAD PUSH2 0xC08 SWAP1 PUSH2 0x2A28 JUMP JUMPDEST PUSH1 0x60 PUSH1 0xD DUP1 SLOAD PUSH2 0xC08 SWAP1 PUSH2 0x2A28 JUMP JUMPDEST PUSH1 0x60 PUSH1 0xE DUP1 SLOAD PUSH2 0xC08 SWAP1 PUSH2 0x2A28 JUMP JUMPDEST PUSH1 0x60 PUSH1 0xF DUP1 SLOAD PUSH2 0xC08 SWAP1 PUSH2 0x2A28 JUMP JUMPDEST PUSH1 0x60 PUSH1 0xA DUP1 SLOAD PUSH2 0xC08 SWAP1 PUSH2 0x2A28 JUMP JUMPDEST PUSH2 0x22D1 DUP4 DUP4 PUSH2 0x2334 JUMP JUMPDEST PUSH1 0x1 PUSH1 0x1 PUSH1 0xA0 SHL SUB DUP4 AND EXTCODESIZE ISZERO PUSH2 0xE3E JUMPI PUSH1 0x1 SLOAD DUP3 DUP2 SUB JUMPDEST PUSH2 0x22FB PUSH1 0x0 DUP7 DUP4 DUP1 PUSH1 0x1 ADD SWAP5 POP DUP7 PUSH2 0x2077 JUMP JUMPDEST PUSH2 0x2318 JUMPI PUSH1 0x40 MLOAD PUSH4 0x68D2BF6B PUSH1 0xE1 SHL DUP2 MSTORE PUSH1 0x4 ADD PUSH1 0x40 MLOAD DUP1 SWAP2 SUB SWAP1 REVERT JUMPDEST DUP2 DUP2 LT PUSH2 0x22E8 JUMPI DUP2 PUSH1 0x1 SLOAD EQ PUSH2 0x232D JUMPI PUSH1 0x0 DUP1 REVERT JUMPDEST POP POP POP POP POP JUMP JUMPDEST PUSH1 0x1 SLOAD DUP2 PUSH2 0x2355 JUMPI PUSH1 0x40 MLOAD PUSH4 0xB562E8DD PUSH1 0xE0 SHL DUP2 MSTORE PUSH1 0x4 ADD PUSH1 0x40 MLOAD DUP1 SWAP2 SUB SWAP1 REVERT JUMPDEST PUSH1 0x1 PUSH1 0x1 PUSH1 0xA0 SHL SUB DUP4 AND PUSH1 0x0 DUP2 DUP2 MSTORE PUSH1 0x6 PUSH1 0x20 SWAP1 DUP2 MSTORE PUSH1 0x40 DUP1 DUP4 KECCAK256 DUP1 SLOAD PUSH9 0x10000000000000001 DUP9 MUL ADD SWAP1 SSTORE DUP5 DUP4 MSTORE PUSH1 0x5 SWAP1 SWAP2 MSTORE DUP2 KECCAK256 PUSH1 0x1 DUP6 EQ PUSH1 0xE1 SHL TIMESTAMP PUSH1 0xA0 SHL OR DUP4 OR SWAP1 SSTORE DUP3 DUP5 ADD SWAP1 DUP4 SWAP1 DUP4 SWAP1 PUSH32 0xDDF252AD1BE2C89B69C2B068FC378DAA952BA7F163C4A11628F55A4DF523B3EF DUP2 DUP1 LOG4 PUSH1 0x1 DUP4 ADD JUMPDEST DUP2 DUP2 EQ PUSH2 0x2404 JUMPI DUP1 DUP4 PUSH1 0x0 PUSH32 0xDDF252AD1BE2C89B69C2B068FC378DAA952BA7F163C4A11628F55A4DF523B3EF PUSH1 0x0 DUP1 LOG4 PUSH1 0x1 ADD PUSH2 0x23CC JUMP JUMPDEST POP DUP2 PUSH2 0x2422 JUMPI PUSH1 0x40 MLOAD PUSH3 0x2E0763 PUSH1 0xE8 SHL DUP2 MSTORE PUSH1 0x4 ADD PUSH1 0x40 MLOAD DUP1 SWAP2 SUB SWAP1 REVERT JUMPDEST PUSH1 0x1 SSTORE POP POP POP POP JUMP JUMPDEST DUP3 DUP1 SLOAD PUSH2 0x2437 SWAP1 PUSH2 0x2A28 JUMP JUMPDEST SWAP1 PUSH1 0x0 MSTORE PUSH1 0x20 PUSH1 0x0 KECCAK256 SWAP1 PUSH1 0x1F ADD PUSH1 0x20 SWAP1 DIV DUP2 ADD SWAP3 DUP3 PUSH2 0x2459 JUMPI PUSH1 0x0 DUP6 SSTORE PUSH2 0x249F JUMP JUMPDEST DUP3 PUSH1 0x1F LT PUSH2 0x2472 JUMPI DUP1 MLOAD PUSH1 0xFF NOT AND DUP4 DUP1 ADD OR DUP6 SSTORE PUSH2 0x249F JUMP JUMPDEST DUP3 DUP1 ADD PUSH1 0x1 ADD DUP6 SSTORE DUP3 ISZERO PUSH2 0x249F JUMPI SWAP2 DUP3 ADD JUMPDEST DUP3 DUP2 GT ISZERO PUSH2 0x249F JUMPI DUP3 MLOAD DUP3 SSTORE SWAP2 PUSH1 0x20 ADD SWAP2 SWAP1 PUSH1 0x1 ADD SWAP1 PUSH2 0x2484 JUMP JUMPDEST POP PUSH2 0x24AB SWAP3 SWAP2 POP PUSH2 0x24AF JUMP JUMPDEST POP SWAP1 JUMP JUMPDEST JUMPDEST DUP1 DUP3 GT ISZERO PUSH2 0x24AB JUMPI PUSH1 0x0 DUP2 SSTORE PUSH1 0x1 ADD PUSH2 0x24B0 JUMP JUMPDEST PUSH1 0x0 PUSH8 0xFFFFFFFFFFFFFFFF DUP1 DUP5 GT ISZERO PUSH2 0x24DF JUMPI PUSH2 0x24DF PUSH2 0x2AD4 JUMP JUMPDEST PUSH1 0x40 MLOAD PUSH1 0x1F DUP6 ADD PUSH1 0x1F NOT SWAP1 DUP2 AND PUSH1 0x3F ADD AND DUP2 ADD SWAP1 DUP3 DUP3 GT DUP2 DUP4 LT OR ISZERO PUSH2 0x2507 JUMPI PUSH2 0x2507 PUSH2 0x2AD4 JUMP JUMPDEST DUP2 PUSH1 0x40 MSTORE DUP1 SWAP4 POP DUP6 DUP2 MSTORE DUP7 DUP7 DUP7 ADD GT ISZERO PUSH2 0x2520 JUMPI PUSH1 0x0 DUP1 REVERT JUMPDEST DUP6 DUP6 PUSH1 0x20 DUP4 ADD CALLDATACOPY PUSH1 0x0 PUSH1 0x20 DUP8 DUP4 ADD ADD MSTORE POP POP POP SWAP4 SWAP3 POP POP POP JUMP JUMPDEST DUP1 CALLDATALOAD PUSH1 0x1 PUSH1 0x1 PUSH1 0xA0 SHL SUB DUP2 AND DUP2 EQ PUSH2 0x2551 JUMPI PUSH1 0x0 DUP1 REVERT JUMPDEST SWAP2 SWAP1 POP JUMP JUMPDEST DUP1 CALLDATALOAD DUP1 ISZERO ISZERO DUP2 EQ PUSH2 0x2551 JUMPI PUSH1 0x0 DUP1 REVERT JUMPDEST PUSH1 0x0 PUSH1 0x20 DUP3 DUP5 SUB SLT ISZERO PUSH2 0x2578 JUMPI PUSH1 0x0 DUP1 REVERT JUMPDEST PUSH2 0x1B35 DUP3 PUSH2 0x253A JUMP JUMPDEST PUSH1 0x0 DUP1 PUSH1 0x40 DUP4 DUP6 SUB SLT ISZERO PUSH2 0x2594 JUMPI PUSH1 0x0 DUP1 REVERT JUMPDEST PUSH2 0x259D DUP4 PUSH2 0x253A JUMP JUMPDEST SWAP2 POP PUSH2 0x25AB PUSH1 0x20 DUP5 ADD PUSH2 0x253A JUMP JUMPDEST SWAP1 POP SWAP3 POP SWAP3 SWAP1 POP JUMP JUMPDEST PUSH1 0x0 DUP1 PUSH1 0x0 PUSH1 0x60 DUP5 DUP7 SUB SLT ISZERO PUSH2 0x25C9 JUMPI PUSH1 0x0 DUP1 REVERT JUMPDEST PUSH2 0x25D2 DUP5 PUSH2 0x253A JUMP JUMPDEST SWAP3 POP PUSH2 0x25E0 PUSH1 0x20 DUP6 ADD PUSH2 0x253A JUMP JUMPDEST SWAP2 POP PUSH1 0x40 DUP5 ADD CALLDATALOAD SWAP1 POP SWAP3 POP SWAP3 POP SWAP3 JUMP JUMPDEST PUSH1 0x0 DUP1 PUSH1 0x0 DUP1 PUSH1 0x80 DUP6 DUP8 SUB SLT ISZERO PUSH2 0x2606 JUMPI PUSH1 0x0 DUP1 REVERT JUMPDEST PUSH2 0x260F DUP6 PUSH2 0x253A JUMP JUMPDEST SWAP4 POP PUSH2 0x261D PUSH1 0x20 DUP7 ADD PUSH2 0x253A JUMP JUMPDEST SWAP3 POP PUSH1 0x40 DUP6 ADD CALLDATALOAD SWAP2 POP PUSH1 0x60 DUP6 ADD CALLDATALOAD PUSH8 0xFFFFFFFFFFFFFFFF DUP2 GT ISZERO PUSH2 0x2640 JUMPI PUSH1 0x0 DUP1 REVERT JUMPDEST DUP6 ADD PUSH1 0x1F DUP2 ADD DUP8 SGT PUSH2 0x2651 JUMPI PUSH1 0x0 DUP1 REVERT JUMPDEST PUSH2 0x2660 DUP8 DUP3 CALLDATALOAD PUSH1 0x20 DUP5 ADD PUSH2 0x24C4 JUMP JUMPDEST SWAP2 POP POP SWAP3 SWAP6 SWAP2 SWAP5 POP SWAP3 POP JUMP JUMPDEST PUSH1 0x0 DUP1 PUSH1 0x40 DUP4 DUP6 SUB SLT ISZERO PUSH2 0x267F JUMPI PUSH1 0x0 DUP1 REVERT JUMPDEST PUSH2 0x2688 DUP4 PUSH2 0x253A JUMP JUMPDEST SWAP2 POP PUSH2 0x25AB PUSH1 0x20 DUP5 ADD PUSH2 0x2556 JUMP JUMPDEST PUSH1 0x0 DUP1 PUSH1 0x40 DUP4 DUP6 SUB SLT ISZERO PUSH2 0x26A9 JUMPI PUSH1 0x0 DUP1 REVERT JUMPDEST PUSH2 0x26B2 DUP4 PUSH2 0x253A JUMP JUMPDEST SWAP5 PUSH1 0x20 SWAP4 SWAP1 SWAP4 ADD CALLDATALOAD SWAP4 POP POP POP JUMP JUMPDEST PUSH1 0x0 DUP1 PUSH1 0x20 DUP4 DUP6 SUB SLT ISZERO PUSH2 0x26D3 JUMPI PUSH1 0x0 DUP1 REVERT JUMPDEST DUP3 CALLDATALOAD PUSH8 0xFFFFFFFFFFFFFFFF DUP1 DUP3 GT ISZERO PUSH2 0x26EB JUMPI PUSH1 0x0 DUP1 REVERT JUMPDEST DUP2 DUP6 ADD SWAP2 POP DUP6 PUSH1 0x1F DUP4 ADD SLT PUSH2 0x26FF JUMPI PUSH1 0x0 DUP1 REVERT JUMPDEST DUP2 CALLDATALOAD DUP2 DUP2 GT ISZERO PUSH2 0x270E JUMPI PUSH1 0x0 DUP1 REVERT JUMPDEST DUP7 PUSH1 0x20 DUP3 PUSH1 0x5 SHL DUP6 ADD ADD GT ISZERO PUSH2 0x2723 JUMPI PUSH1 0x0 DUP1 REVERT JUMPDEST PUSH1 0x20 SWAP3 SWAP1 SWAP3 ADD SWAP7 SWAP2 SWAP6 POP SWAP1 SWAP4 POP POP POP POP JUMP JUMPDEST PUSH1 0x0 PUSH1 0x20 DUP3 DUP5 SUB SLT ISZERO PUSH2 0x2747 JUMPI PUSH1 0x0 DUP1 REVERT JUMPDEST PUSH2 0x1B35 DUP3 PUSH2 0x2556 JUMP JUMPDEST PUSH1 0x0 PUSH1 0x20 DUP3 DUP5 SUB SLT ISZERO PUSH2 0x2762 JUMPI PUSH1 0x0 DUP1 REVERT JUMPDEST DUP2 CALLDATALOAD PUSH2 0x1B35 DUP2 PUSH2 0x2AEA JUMP JUMPDEST PUSH1 0x0 PUSH1 0x20 DUP3 DUP5 SUB SLT ISZERO PUSH2 0x277F JUMPI PUSH1 0x0 DUP1 REVERT JUMPDEST DUP2 MLOAD PUSH2 0x1B35 DUP2 PUSH2 0x2AEA JUMP JUMPDEST PUSH1 0x0 PUSH1 0x20 DUP3 DUP5 SUB SLT ISZERO PUSH2 0x279C JUMPI PUSH1 0x0 DUP1 REVERT JUMPDEST DUP2 CALLDATALOAD PUSH8 0xFFFFFFFFFFFFFFFF DUP2 GT ISZERO PUSH2 0x27B3 JUMPI PUSH1 0x0 DUP1 REVERT JUMPDEST DUP3 ADD PUSH1 0x1F DUP2 ADD DUP5 SGT PUSH2 0x27C4 JUMPI PUSH1 0x0 DUP1 REVERT JUMPDEST PUSH2 0x2167 DUP5 DUP3 CALLDATALOAD PUSH1 0x20 DUP5 ADD PUSH2 0x24C4 JUMP JUMPDEST PUSH1 0x0 PUSH1 0x20 DUP3 DUP5 SUB SLT ISZERO PUSH2 0x27E5 JUMPI PUSH1 0x0 DUP1 REVERT JUMPDEST POP CALLDATALOAD SWAP2 SWAP1 POP JUMP JUMPDEST PUSH1 0x0 DUP2 MLOAD DUP1 DUP5 MSTORE PUSH2 0x2804 DUP2 PUSH1 0x20 DUP7 ADD PUSH1 0x20 DUP7 ADD PUSH2 0x29FC JUMP JUMPDEST PUSH1 0x1F ADD PUSH1 0x1F NOT AND SWAP3 SWAP1 SWAP3 ADD PUSH1 0x20 ADD SWAP3 SWAP2 POP POP JUMP JUMPDEST PUSH1 0x0 DUP5 MLOAD PUSH1 0x20 PUSH2 0x282B DUP3 DUP6 DUP4 DUP11 ADD PUSH2 0x29FC JUMP JUMPDEST DUP6 MLOAD SWAP2 DUP5 ADD SWAP2 PUSH2 0x283E DUP2 DUP5 DUP5 DUP11 ADD PUSH2 0x29FC JUMP JUMPDEST DUP6 SLOAD SWAP3 ADD SWAP2 PUSH1 0x0 SWAP1 PUSH1 0x1 DUP2 DUP2 SHR SWAP1 DUP1 DUP4 AND DUP1 PUSH2 0x285B JUMPI PUSH1 0x7F DUP4 AND SWAP3 POP JUMPDEST DUP6 DUP4 LT DUP2 EQ ISZERO PUSH2 0x2879 JUMPI PUSH4 0x4E487B71 PUSH1 0xE0 SHL DUP6 MSTORE PUSH1 0x22 PUSH1 0x4 MSTORE PUSH1 0x24 DUP6 REVERT JUMPDEST DUP1 DUP1 ISZERO PUSH2 0x288D JUMPI PUSH1 0x1 DUP2 EQ PUSH2 0x289E JUMPI PUSH2 0x28CB JUMP JUMPDEST PUSH1 0xFF NOT DUP6 AND DUP9 MSTORE DUP4 DUP9 ADD SWAP6 POP PUSH2 0x28CB JUMP JUMPDEST PUSH1 0x0 DUP12 DUP2 MSTORE PUSH1 0x20 SWAP1 KECCAK256 PUSH1 0x0 JUMPDEST DUP6 DUP2 LT ISZERO PUSH2 0x28C3 JUMPI DUP2 SLOAD DUP11 DUP3 ADD MSTORE SWAP1 DUP5 ADD SWAP1 DUP9 ADD PUSH2 0x28AA JUMP JUMPDEST POP POP DUP4 DUP9 ADD SWAP6 POP JUMPDEST POP SWAP4 SWAP12 SWAP11 POP POP POP POP POP POP POP POP POP POP POP JUMP JUMPDEST PUSH1 0x1 PUSH1 0x1 PUSH1 0xA0 SHL SUB DUP6 DUP2 AND DUP3 MSTORE DUP5 AND PUSH1 0x20 DUP3 ADD MSTORE PUSH1 0x40 DUP2 ADD DUP4 SWAP1 MSTORE PUSH1 0x80 PUSH1 0x60 DUP3 ADD DUP2 SWAP1 MSTORE PUSH1 0x0 SWAP1 PUSH2 0x290F SWAP1 DUP4 ADD DUP5 PUSH2 0x27EC JUMP JUMPDEST SWAP7 SWAP6 POP POP POP POP POP POP JUMP JUMPDEST PUSH1 0x20 DUP1 DUP3 MSTORE DUP3 MLOAD DUP3 DUP3 ADD DUP2 SWAP1 MSTORE PUSH1 0x0 SWAP2 SWAP1 DUP5 DUP3 ADD SWAP1 PUSH1 0x40 DUP6 ADD SWAP1 DUP5 JUMPDEST DUP2 DUP2 LT ISZERO PUSH2 0x2951 JUMPI DUP4 MLOAD DUP4 MSTORE SWAP3 DUP5 ADD SWAP3 SWAP2 DUP5 ADD SWAP2 PUSH1 0x1 ADD PUSH2 0x2935 JUMP JUMPDEST POP SWAP1 SWAP7 SWAP6 POP POP POP POP POP POP JUMP JUMPDEST PUSH1 0x20 DUP2 MSTORE PUSH1 0x0 PUSH2 0x1B35 PUSH1 0x20 DUP4 ADD DUP5 PUSH2 0x27EC JUMP JUMPDEST PUSH1 0x20 DUP1 DUP3 MSTORE PUSH1 0x10 SWAP1 DUP3 ADD MSTORE PUSH16 0x616C726561647920636C61696D656421 PUSH1 0x80 SHL PUSH1 0x40 DUP3 ADD MSTORE PUSH1 0x60 ADD SWAP1 JUMP JUMPDEST PUSH1 0x0 DUP3 NOT DUP3 GT ISZERO PUSH2 0x29AD JUMPI PUSH2 0x29AD PUSH2 0x2A92 JUMP JUMPDEST POP ADD SWAP1 JUMP JUMPDEST PUSH1 0x0 DUP3 PUSH2 0x29C1 JUMPI PUSH2 0x29C1 PUSH2 0x2AA8 JUMP JUMPDEST POP DIV SWAP1 JUMP JUMPDEST PUSH1 0x0 DUP2 PUSH1 0x0 NOT DIV DUP4 GT DUP3 ISZERO ISZERO AND ISZERO PUSH2 0x29E0 JUMPI PUSH2 0x29E0 PUSH2 0x2A92 JUMP JUMPDEST POP MUL SWAP1 JUMP JUMPDEST PUSH1 0x0 DUP3 DUP3 LT ISZERO PUSH2 0x29F7 JUMPI PUSH2 0x29F7 PUSH2 0x2A92 JUMP JUMPDEST POP SUB SWAP1 JUMP JUMPDEST PUSH1 0x0 JUMPDEST DUP4 DUP2 LT ISZERO PUSH2 0x2A17 JUMPI DUP2 DUP2 ADD MLOAD DUP4 DUP3 ADD MSTORE PUSH1 0x20 ADD PUSH2 0x29FF JUMP JUMPDEST DUP4 DUP2 GT ISZERO PUSH2 0x198E JUMPI POP POP PUSH1 0x0 SWAP2 ADD MSTORE JUMP JUMPDEST PUSH1 0x1 DUP2 DUP2 SHR SWAP1 DUP3 AND DUP1 PUSH2 0x2A3C JUMPI PUSH1 0x7F DUP3 AND SWAP2 POP JUMPDEST PUSH1 0x20 DUP3 LT DUP2 EQ ISZERO PUSH2 0x2A5D JUMPI PUSH4 0x4E487B71 PUSH1 0xE0 SHL PUSH1 0x0 MSTORE PUSH1 0x22 PUSH1 0x4 MSTORE PUSH1 0x24 PUSH1 0x0 REVERT JUMPDEST POP SWAP2 SWAP1 POP JUMP JUMPDEST PUSH1 0x0 PUSH1 0x0 NOT DUP3 EQ ISZERO PUSH2 0x2A77 JUMPI PUSH2 0x2A77 PUSH2 0x2A92 JUMP JUMPDEST POP PUSH1 0x1 ADD SWAP1 JUMP JUMPDEST PUSH1 0x0 DUP3 PUSH2 0x2A8D JUMPI PUSH2 0x2A8D PUSH2 0x2AA8 JUMP JUMPDEST POP MOD SWAP1 JUMP JUMPDEST PUSH4 0x4E487B71 PUSH1 0xE0 SHL PUSH1 0x0 MSTORE PUSH1 0x11 PUSH1 0x4 MSTORE PUSH1 0x24 PUSH1 0x0 REVERT JUMPDEST PUSH4 0x4E487B71 PUSH1 0xE0 SHL PUSH1 0x0 MSTORE PUSH1 0x12 PUSH1 0x4 MSTORE PUSH1 0x24 PUSH1 0x0 REVERT JUMPDEST PUSH4 0x4E487B71 PUSH1 0xE0 SHL PUSH1 0x0 MSTORE PUSH1 0x32 PUSH1 0x4 MSTORE PUSH1 0x24 PUSH1 0x0 REVERT JUMPDEST PUSH4 0x4E487B71 PUSH1 0xE0 SHL PUSH1 0x0 MSTORE PUSH1 0x41 PUSH1 0x4 MSTORE PUSH1 0x24 PUSH1 0x0 REVERT JUMPDEST PUSH1 0x1 PUSH1 0x1 PUSH1 0xE0 SHL SUB NOT DUP2 AND DUP2 EQ PUSH2 0x1146 JUMPI PUSH1 0x0 DUP1 REVERT INVALID LOG2 PUSH5 0x6970667358 0x22 SLT KECCAK256 LOG1 JUMP LOG0 DIV 0xB1 0xB8 BALANCE SWAP14 ADD TIMESTAMP 0xD 0xB3 0xB1 0xC3 0xE1 0xC5 CALLVALUE 0xE0 GASPRICE 0x49 0xB9 0x23 PUSH4 0x5240908E XOR PUSH19 0x1A2A5864736F6C634300080700330000000000 "
		},
		"gasEstimates": {
			"creation": {
				"codeDepositCost": "2212400",
				"executionCost": "infinite",
				"totalCost": "infinite"
			},
			"external": {
				"AllowlistLimit()": "2385",
				"addressMintedBalance(address)": "2653",
				"allowlist(address)": "2631",
				"allowlistUsers(address[])": "infinite",
				"approve(address,uint256)": "infinite",
				"balanceOf(address)": "2664",
				"baseExtension()": "infinite",
				"checkClaimed(uint256)": "6371",
				"checkClaimed2(uint256)": "6326",
				"checkClaimed3(uint256)": "6371",
				"checkClaimed4(uint256)": "6348",
				"checkClaimed5(uint256)": "6304",
				"claimItem1(uint256)": "infinite",
				"claimItem2(uint256)": "infinite",
				"claimItem3(uint256)": "infinite",
				"claimItem4(uint256)": "infinite",
				"claimItem5(uint256)": "infinite",
				"claimactive()": "2399",
				"claimactive2()": "2400",
				"claimactive3()": "2444",
				"claimactive4()": "2423",
				"claimactive5()": "2422",
				"cost()": "2408",
				"currentSet()": "2386",
				"getApproved(uint256)": "6970",
				"isAllowlisted(address)": "2607",
				"isApprovedForAll(address,address)": "infinite",
				"maxSupply()": "2406",
				"mint(uint256)": "infinite",
				"name()": "infinite",
				"onlyAllowlisted()": "2449",
				"owner()": "2421",
				"ownerOf(uint256)": "infinite",
				"ownerOfTokenIds(address)": "infinite",
				"pause(bool)": "26807",
				"paused()": "2366",
				"removeUsersFromAllowlist(address[])": "infinite",
				"renounceOwnership()": "infinite",
				"safeTransferFrom(address,address,uint256)": "infinite",
				"safeTransferFrom(address,address,uint256,bytes)": "infinite",
				"setApprovalForAll(address,bool)": "infinite",
				"setBaseExtension(string)": "infinite",
				"setBaseURI(string)": "infinite",
				"setClaimURI(string)": "infinite",
				"setClaimURI2(string)": "infinite",
				"setClaimURI3(string)": "infinite",
				"setClaimURI4(string)": "infinite",
				"setClaimURI5(string)": "infinite",
				"setCurrentSetAmount(uint256)": "24555",
				"setOnlyAllowlisted(bool)": "26803",
				"supportsInterface(bytes4)": "602",
				"symbol()": "infinite",
				"toggleclaimactive()": "26623",
				"toggleclaimactive2()": "26621",
				"toggleclaimactive3()": "26602",
				"toggleclaimactive4()": "26600",
				"toggleclaimactive5()": "26665",
				"tokenURI(uint256)": "infinite",
				"totalSupply()": "4510",
				"transferFrom(address,address,uint256)": "infinite",
				"transferOwnership(address)": "28443",
				"withdraw()": "infinite"
			},
			"internal": {
				"_baseURI()": "infinite",
				"_claimURI()": "infinite",
				"_claimURI2()": "infinite",
				"_claimURI3()": "infinite",
				"_claimURI4()": "infinite",
				"_claimURI5()": "infinite"
			}
		},
		"methodIdentifiers": {
			"AllowlistLimit()": "b3807b1d",
			"addressMintedBalance(address)": "18cae269",
			"allowlist(address)": "a7cd52cb",
			"allowlistUsers(address[])": "5b9e3ccf",
			"approve(address,uint256)": "095ea7b3",
			"balanceOf(address)": "70a08231",
			"baseExtension()": "c6682862",
			"checkClaimed(uint256)": "35a55caa",
			"checkClaimed2(uint256)": "58211373",
			"checkClaimed3(uint256)": "09533e46",
			"checkClaimed4(uint256)": "593e6fe4",
			"checkClaimed5(uint256)": "8965dd97",
			"claimItem1(uint256)": "9b3929da",
			"claimItem2(uint256)": "7ccd381d",
			"claimItem3(uint256)": "fd1dae2e",
			"claimItem4(uint256)": "176cd645",
			"claimItem5(uint256)": "eade46e6",
			"claimactive()": "cfa03291",
			"claimactive2()": "39516a26",
			"claimactive3()": "8198d162",
			"claimactive4()": "330ba7ad",
			"claimactive5()": "7f0a6f65",
			"cost()": "13faede6",
			"currentSet()": "30b86627",
			"getApproved(uint256)": "081812fc",
			"isAllowlisted(address)": "05a3b809",
			"isApprovedForAll(address,address)": "e985e9c5",
			"maxSupply()": "d5abeb01",
			"mint(uint256)": "a0712d68",
			"name()": "06fdde03",
			"onlyAllowlisted()": "674c02aa",
			"owner()": "8da5cb5b",
			"ownerOf(uint256)": "6352211e",
			"ownerOfTokenIds(address)": "ca8a7d5e",
			"pause(bool)": "02329a29",
			"paused()": "5c975abb",
			"removeUsersFromAllowlist(address[])": "142b0fbe",
			"renounceOwnership()": "715018a6",
			"safeTransferFrom(address,address,uint256)": "42842e0e",
			"safeTransferFrom(address,address,uint256,bytes)": "b88d4fde",
			"setApprovalForAll(address,bool)": "a22cb465",
			"setBaseExtension(string)": "da3ef23f",
			"setBaseURI(string)": "55f804b3",
			"setClaimURI(string)": "7ea63e2b",
			"setClaimURI2(string)": "36404ff9",
			"setClaimURI3(string)": "b824ad23",
			"setClaimURI4(string)": "c8a7f86d",
			"setClaimURI5(string)": "7d8afd0f",
			"setCurrentSetAmount(uint256)": "c4d2e8d6",
			"setOnlyAllowlisted(bool)": "17dc10c4",
			"supportsInterface(bytes4)": "01ffc9a7",
			"symbol()": "95d89b41",
			"toggleclaimactive()": "13ef321f",
			"toggleclaimactive2()": "605def51",
			"toggleclaimactive3()": "01ddabe7",
			"toggleclaimactive4()": "b1544bde",
			"toggleclaimactive5()": "ac034467",
			"tokenURI(uint256)": "c87b56dd",
			"totalSupply()": "18160ddd",
			"transferFrom(address,address,uint256)": "23b872dd",
			"transferOwnership(address)": "f2fde38b",
			"withdraw()": "3ccfd60b"
		}
	},
	"abi": [
		{
			"inputs": [
				{
					"internalType": "string",
					"name": "_initBaseURI",
					"type": "string"
				},
				{
					"internalType": "string",
					"name": "_initClaimURI",
					"type": "string"
				}
			],
			"stateMutability": "nonpayable",
			"type": "constructor"
		},
		{
			"inputs": [],
			"name": "ApprovalCallerNotOwnerNorApproved",
			"type": "error"
		},
		{
			"inputs": [],
			"name": "ApprovalQueryForNonexistentToken",
			"type": "error"
		},
		{
			"inputs": [],
			"name": "BalanceQueryForZeroAddress",
			"type": "error"
		},
		{
			"inputs": [],
			"name": "MintERC2309QuantityExceedsLimit",
			"type": "error"
		},
		{
			"inputs": [],
			"name": "MintToZeroAddress",
			"type": "error"
		},
		{
			"inputs": [],
			"name": "MintZeroQuantity",
			"type": "error"
		},
		{
			"inputs": [],
			"name": "OwnerQueryForNonexistentToken",
			"type": "error"
		},
		{
			"inputs": [],
			"name": "OwnershipNotInitializedForExtraData",
			"type": "error"
		},
		{
			"inputs": [],
			"name": "TransferCallerNotOwnerNorApproved",
			"type": "error"
		},
		{
			"inputs": [],
			"name": "TransferFromIncorrectOwner",
			"type": "error"
		},
		{
			"inputs": [],
			"name": "TransferToNonERC721ReceiverImplementer",
			"type": "error"
		},
		{
			"inputs": [],
			"name": "TransferToZeroAddress",
			"type": "error"
		},
		{
			"inputs": [],
			"name": "URIQueryForNonexistentToken",
			"type": "error"
		},
		{
			"anonymous": false,
			"inputs": [
				{
					"indexed": true,
					"internalType": "address",
					"name": "owner",
					"type": "address"
				},
				{
					"indexed": true,
					"internalType": "address",
					"name": "approved",
					"type": "address"
				},
				{
					"indexed": true,
					"internalType": "uint256",
					"name": "tokenId",
					"type": "uint256"
				}
			],
			"name": "Approval",
			"type": "event"
		},
		{
			"anonymous": false,
			"inputs": [
				{
					"indexed": true,
					"internalType": "address",
					"name": "owner",
					"type": "address"
				},
				{
					"indexed": true,
					"internalType": "address",
					"name": "operator",
					"type": "address"
				},
				{
					"indexed": false,
					"internalType": "bool",
					"name": "approved",
					"type": "bool"
				}
			],
			"name": "ApprovalForAll",
			"type": "event"
		},
		{
			"anonymous": false,
			"inputs": [
				{
					"indexed": true,
					"internalType": "uint256",
					"name": "fromTokenId",
					"type": "uint256"
				},
				{
					"indexed": false,
					"internalType": "uint256",
					"name": "toTokenId",
					"type": "uint256"
				},
				{
					"indexed": true,
					"internalType": "address",
					"name": "from",
					"type": "address"
				},
				{
					"indexed": true,
					"internalType": "address",
					"name": "to",
					"type": "address"
				}
			],
			"name": "ConsecutiveTransfer",
			"type": "event"
		},
		{
			"anonymous": false,
			"inputs": [
				{
					"indexed": true,
					"internalType": "address",
					"name": "previousOwner",
					"type": "address"
				},
				{
					"indexed": true,
					"internalType": "address",
					"name": "newOwner",
					"type": "address"
				}
			],
			"name": "OwnershipTransferred",
			"type": "event"
		},
		{
			"anonymous": false,
			"inputs": [
				{
					"indexed": true,
					"internalType": "address",
					"name": "from",
					"type": "address"
				},
				{
					"indexed": true,
					"internalType": "address",
					"name": "to",
					"type": "address"
				},
				{
					"indexed": true,
					"internalType": "uint256",
					"name": "tokenId",
					"type": "uint256"
				}
			],
			"name": "Transfer",
			"type": "event"
		},
		{
			"inputs": [],
			"name": "AllowlistLimit",
			"outputs": [
				{
					"internalType": "uint256",
					"name": "",
					"type": "uint256"
				}
			],
			"stateMutability": "view",
			"type": "function"
		},
		{
			"inputs": [
				{
					"internalType": "address",
					"name": "",
					"type": "address"
				}
			],
			"name": "addressMintedBalance",
			"outputs": [
				{
					"internalType": "uint256",
					"name": "",
					"type": "uint256"
				}
			],
			"stateMutability": "view",
			"type": "function"
		},
		{
			"inputs": [
				{
					"internalType": "address",
					"name": "",
					"type": "address"
				}
			],
			"name": "allowlist",
			"outputs": [
				{
					"internalType": "bool",
					"name": "",
					"type": "bool"
				}
			],
			"stateMutability": "view",
			"type": "function"
		},
		{
			"inputs": [
				{
					"internalType": "address[]",
					"name": "addresses",
					"type": "address[]"
				}
			],
			"name": "allowlistUsers",
			"outputs": [],
			"stateMutability": "nonpayable",
			"type": "function"
		},
		{
			"inputs": [
				{
					"internalType": "address",
					"name": "to",
					"type": "address"
				},
				{
					"internalType": "uint256",
					"name": "tokenId",
					"type": "uint256"
				}
			],
			"name": "approve",
			"outputs": [],
			"stateMutability": "nonpayable",
			"type": "function"
		},
		{
			"inputs": [
				{
					"internalType": "address",
					"name": "owner",
					"type": "address"
				}
			],
			"name": "balanceOf",
			"outputs": [
				{
					"internalType": "uint256",
					"name": "",
					"type": "uint256"
				}
			],
			"stateMutability": "view",
			"type": "function"
		},
		{
			"inputs": [],
			"name": "baseExtension",
			"outputs": [
				{
					"internalType": "string",
					"name": "",
					"type": "string"
				}
			],
			"stateMutability": "view",
			"type": "function"
		},
		{
			"inputs": [
				{
					"internalType": "uint256",
					"name": "tokenId",
					"type": "uint256"
				}
			],
			"name": "checkClaimed",
			"outputs": [
				{
					"internalType": "bool",
					"name": "",
					"type": "bool"
				}
			],
			"stateMutability": "view",
			"type": "function"
		},
		{
			"inputs": [
				{
					"internalType": "uint256",
					"name": "tokenId",
					"type": "uint256"
				}
			],
			"name": "checkClaimed2",
			"outputs": [
				{
					"internalType": "bool",
					"name": "",
					"type": "bool"
				}
			],
			"stateMutability": "view",
			"type": "function"
		},
		{
			"inputs": [
				{
					"internalType": "uint256",
					"name": "tokenId",
					"type": "uint256"
				}
			],
			"name": "checkClaimed3",
			"outputs": [
				{
					"internalType": "bool",
					"name": "",
					"type": "bool"
				}
			],
			"stateMutability": "view",
			"type": "function"
		},
		{
			"inputs": [
				{
					"internalType": "uint256",
					"name": "tokenId",
					"type": "uint256"
				}
			],
			"name": "checkClaimed4",
			"outputs": [
				{
					"internalType": "bool",
					"name": "",
					"type": "bool"
				}
			],
			"stateMutability": "view",
			"type": "function"
		},
		{
			"inputs": [
				{
					"internalType": "uint256",
					"name": "tokenId",
					"type": "uint256"
				}
			],
			"name": "checkClaimed5",
			"outputs": [
				{
					"internalType": "bool",
					"name": "",
					"type": "bool"
				}
			],
			"stateMutability": "view",
			"type": "function"
		},
		{
			"inputs": [
				{
					"internalType": "uint256",
					"name": "tokenId",
					"type": "uint256"
				}
			],
			"name": "claimItem1",
			"outputs": [],
			"stateMutability": "nonpayable",
			"type": "function"
		},
		{
			"inputs": [
				{
					"internalType": "uint256",
					"name": "tokenId",
					"type": "uint256"
				}
			],
			"name": "claimItem2",
			"outputs": [],
			"stateMutability": "nonpayable",
			"type": "function"
		},
		{
			"inputs": [
				{
					"internalType": "uint256",
					"name": "tokenId",
					"type": "uint256"
				}
			],
			"name": "claimItem3",
			"outputs": [],
			"stateMutability": "nonpayable",
			"type": "function"
		},
		{
			"inputs": [
				{
					"internalType": "uint256",
					"name": "tokenId",
					"type": "uint256"
				}
			],
			"name": "claimItem4",
			"outputs": [],
			"stateMutability": "nonpayable",
			"type": "function"
		},
		{
			"inputs": [
				{
					"internalType": "uint256",
					"name": "tokenId",
					"type": "uint256"
				}
			],
			"name": "claimItem5",
			"outputs": [],
			"stateMutability": "nonpayable",
			"type": "function"
		},
		{
			"inputs": [],
			"name": "claimactive",
			"outputs": [
				{
					"internalType": "bool",
					"name": "",
					"type": "bool"
				}
			],
			"stateMutability": "view",
			"type": "function"
		},
		{
			"inputs": [],
			"name": "claimactive2",
			"outputs": [
				{
					"internalType": "bool",
					"name": "",
					"type": "bool"
				}
			],
			"stateMutability": "view",
			"type": "function"
		},
		{
			"inputs": [],
			"name": "claimactive3",
			"outputs": [
				{
					"internalType": "bool",
					"name": "",
					"type": "bool"
				}
			],
			"stateMutability": "view",
			"type": "function"
		},
		{
			"inputs": [],
			"name": "claimactive4",
			"outputs": [
				{
					"internalType": "bool",
					"name": "",
					"type": "bool"
				}
			],
			"stateMutability": "view",
			"type": "function"
		},
		{
			"inputs": [],
			"name": "claimactive5",
			"outputs": [
				{
					"internalType": "bool",
					"name": "",
					"type": "bool"
				}
			],
			"stateMutability": "view",
			"type": "function"
		},
		{
			"inputs": [],
			"name": "cost",
			"outputs": [
				{
					"internalType": "uint256",
					"name": "",
					"type": "uint256"
				}
			],
			"stateMutability": "view",
			"type": "function"
		},
		{
			"inputs": [],
			"name": "currentSet",
			"outputs": [
				{
					"internalType": "uint256",
					"name": "",
					"type": "uint256"
				}
			],
			"stateMutability": "view",
			"type": "function"
		},
		{
			"inputs": [
				{
					"internalType": "uint256",
					"name": "tokenId",
					"type": "uint256"
				}
			],
			"name": "getApproved",
			"outputs": [
				{
					"internalType": "address",
					"name": "",
					"type": "address"
				}
			],
			"stateMutability": "view",
			"type": "function"
		},
		{
			"inputs": [
				{
					"internalType": "address",
					"name": "_user",
					"type": "address"
				}
			],
			"name": "isAllowlisted",
			"outputs": [
				{
					"internalType": "bool",
					"name": "",
					"type": "bool"
				}
			],
			"stateMutability": "view",
			"type": "function"
		},
		{
			"inputs": [
				{
					"internalType": "address",
					"name": "owner",
					"type": "address"
				},
				{
					"internalType": "address",
					"name": "operator",
					"type": "address"
				}
			],
			"name": "isApprovedForAll",
			"outputs": [
				{
					"internalType": "bool",
					"name": "",
					"type": "bool"
				}
			],
			"stateMutability": "view",
			"type": "function"
		},
		{
			"inputs": [],
			"name": "maxSupply",
			"outputs": [
				{
					"internalType": "uint256",
					"name": "",
					"type": "uint256"
				}
			],
			"stateMutability": "view",
			"type": "function"
		},
		{
			"inputs": [
				{
					"internalType": "uint256",
					"name": "_mintAmount",
					"type": "uint256"
				}
			],
			"name": "mint",
			"outputs": [],
			"stateMutability": "payable",
			"type": "function"
		},
		{
			"inputs": [],
			"name": "name",
			"outputs": [
				{
					"internalType": "string",
					"name": "",
					"type": "string"
				}
			],
			"stateMutability": "view",
			"type": "function"
		},
		{
			"inputs": [],
			"name": "onlyAllowlisted",
			"outputs": [
				{
					"internalType": "bool",
					"name": "",
					"type": "bool"
				}
			],
			"stateMutability": "view",
			"type": "function"
		},
		{
			"inputs": [],
			"name": "owner",
			"outputs": [
				{
					"internalType": "address",
					"name": "",
					"type": "address"
				}
			],
			"stateMutability": "view",
			"type": "function"
		},
		{
			"inputs": [
				{
					"internalType": "uint256",
					"name": "tokenId",
					"type": "uint256"
				}
			],
			"name": "ownerOf",
			"outputs": [
				{
					"internalType": "address",
					"name": "",
					"type": "address"
				}
			],
			"stateMutability": "view",
			"type": "function"
		},
		{
			"inputs": [
				{
					"internalType": "address",
					"name": "tokenOwner",
					"type": "address"
				}
			],
			"name": "ownerOfTokenIds",
			"outputs": [
				{
					"internalType": "uint256[]",
					"name": "",
					"type": "uint256[]"
				}
			],
			"stateMutability": "view",
			"type": "function"
		},
		{
			"inputs": [
				{
					"internalType": "bool",
					"name": "_state",
					"type": "bool"
				}
			],
			"name": "pause",
			"outputs": [],
			"stateMutability": "nonpayable",
			"type": "function"
		},
		{
			"inputs": [],
			"name": "paused",
			"outputs": [
				{
					"internalType": "bool",
					"name": "",
					"type": "bool"
				}
			],
			"stateMutability": "view",
			"type": "function"
		},
		{
			"inputs": [
				{
					"internalType": "address[]",
					"name": "addresses",
					"type": "address[]"
				}
			],
			"name": "removeUsersFromAllowlist",
			"outputs": [],
			"stateMutability": "nonpayable",
			"type": "function"
		},
		{
			"inputs": [],
			"name": "renounceOwnership",
			"outputs": [],
			"stateMutability": "nonpayable",
			"type": "function"
		},
		{
			"inputs": [
				{
					"internalType": "address",
					"name": "from",
					"type": "address"
				},
				{
					"internalType": "address",
					"name": "to",
					"type": "address"
				},
				{
					"internalType": "uint256",
					"name": "tokenId",
					"type": "uint256"
				}
			],
			"name": "safeTransferFrom",
			"outputs": [],
			"stateMutability": "nonpayable",
			"type": "function"
		},
		{
			"inputs": [
				{
					"internalType": "address",
					"name": "from",
					"type": "address"
				},
				{
					"internalType": "address",
					"name": "to",
					"type": "address"
				},
				{
					"internalType": "uint256",
					"name": "tokenId",
					"type": "uint256"
				},
				{
					"internalType": "bytes",
					"name": "_data",
					"type": "bytes"
				}
			],
			"name": "safeTransferFrom",
			"outputs": [],
			"stateMutability": "nonpayable",
			"type": "function"
		},
		{
			"inputs": [
				{
					"internalType": "address",
					"name": "operator",
					"type": "address"
				},
				{
					"internalType": "bool",
					"name": "approved",
					"type": "bool"
				}
			],
			"name": "setApprovalForAll",
			"outputs": [],
			"stateMutability": "nonpayable",
			"type": "function"
		},
		{
			"inputs": [
				{
					"internalType": "string",
					"name": "_newBaseExtension",
					"type": "string"
				}
			],
			"name": "setBaseExtension",
			"outputs": [],
			"stateMutability": "nonpayable",
			"type": "function"
		},
		{
			"inputs": [
				{
					"internalType": "string",
					"name": "_newBaseURI",
					"type": "string"
				}
			],
			"name": "setBaseURI",
			"outputs": [],
			"stateMutability": "nonpayable",
			"type": "function"
		},
		{
			"inputs": [
				{
					"internalType": "string",
					"name": "_newClaimURI",
					"type": "string"
				}
			],
			"name": "setClaimURI",
			"outputs": [],
			"stateMutability": "nonpayable",
			"type": "function"
		},
		{
			"inputs": [
				{
					"internalType": "string",
					"name": "_newClaimURI",
					"type": "string"
				}
			],
			"name": "setClaimURI2",
			"outputs": [],
			"stateMutability": "nonpayable",
			"type": "function"
		},
		{
			"inputs": [
				{
					"internalType": "string",
					"name": "_newClaimURI",
					"type": "string"
				}
			],
			"name": "setClaimURI3",
			"outputs": [],
			"stateMutability": "nonpayable",
			"type": "function"
		},
		{
			"inputs": [
				{
					"internalType": "string",
					"name": "_newClaimURI",
					"type": "string"
				}
			],
			"name": "setClaimURI4",
			"outputs": [],
			"stateMutability": "nonpayable",
			"type": "function"
		},
		{
			"inputs": [
				{
					"internalType": "string",
					"name": "_newClaimURI",
					"type": "string"
				}
			],
			"name": "setClaimURI5",
			"outputs": [],
			"stateMutability": "nonpayable",
			"type": "function"
		},
		{
			"inputs": [
				{
					"internalType": "uint256",
					"name": "setTotal",
					"type": "uint256"
				}
			],
			"name": "setCurrentSetAmount",
			"outputs": [],
			"stateMutability": "nonpayable",
			"type": "function"
		},
		{
			"inputs": [
				{
					"internalType": "bool",
					"name": "_state",
					"type": "bool"
				}
			],
			"name": "setOnlyAllowlisted",
			"outputs": [],
			"stateMutability": "nonpayable",
			"type": "function"
		},
		{
			"inputs": [
				{
					"internalType": "bytes4",
					"name": "interfaceId",
					"type": "bytes4"
				}
			],
			"name": "supportsInterface",
			"outputs": [
				{
					"internalType": "bool",
					"name": "",
					"type": "bool"
				}
			],
			"stateMutability": "view",
			"type": "function"
		},
		{
			"inputs": [],
			"name": "symbol",
			"outputs": [
				{
					"internalType": "string",
					"name": "",
					"type": "string"
				}
			],
			"stateMutability": "view",
			"type": "function"
		},
		{
			"inputs": [],
			"name": "toggleclaimactive",
			"outputs": [],
			"stateMutability": "nonpayable",
			"type": "function"
		},
		{
			"inputs": [],
			"name": "toggleclaimactive2",
			"outputs": [],
			"stateMutability": "nonpayable",
			"type": "function"
		},
		{
			"inputs": [],
			"name": "toggleclaimactive3",
			"outputs": [],
			"stateMutability": "nonpayable",
			"type": "function"
		},
		{
			"inputs": [],
			"name": "toggleclaimactive4",
			"outputs": [],
			"stateMutability": "nonpayable",
			"type": "function"
		},
		{
			"inputs": [],
			"name": "toggleclaimactive5",
			"outputs": [],
			"stateMutability": "nonpayable",
			"type": "function"
		},
		{
			"inputs": [
				{
					"internalType": "uint256",
					"name": "tokenId",
					"type": "uint256"
				}
			],
			"name": "tokenURI",
			"outputs": [
				{
					"internalType": "string",
					"name": "",
					"type": "string"
				}
			],
			"stateMutability": "view",
			"type": "function"
		},
		{
			"inputs": [],
			"name": "totalSupply",
			"outputs": [
				{
					"internalType": "uint256",
					"name": "",
					"type": "uint256"
				}
			],
			"stateMutability": "view",
			"type": "function"
		},
		{
			"inputs": [
				{
					"internalType": "address",
					"name": "from",
					"type": "address"
				},
				{
					"internalType": "address",
					"name": "to",
					"type": "address"
				},
				{
					"internalType": "uint256",
					"name": "tokenId",
					"type": "uint256"
				}
			],
			"name": "transferFrom",
			"outputs": [],
			"stateMutability": "nonpayable",
			"type": "function"
		},
		{
			"inputs": [
				{
					"internalType": "address",
					"name": "newOwner",
					"type": "address"
				}
			],
			"name": "transferOwnership",
			"outputs": [],
			"stateMutability": "nonpayable",
			"type": "function"
		},
		{
			"inputs": [],
			"name": "withdraw",
			"outputs": [],
			"stateMutability": "payable",
			"type": "function"
		}
	]
}