{
	"data": {
		"bytecode": {
			"linkReferences": {},
			"object": "60c06040526005608081905264173539b7b760d91b60a0908152620000289160109190620003d8565b5066753d533d96800060115560466012819055600960135560056014556015805466ffffffffffffff19169055604080518281526108e0810190915290602082016108c080368337505081516200008792601892506020019062000467565b506012546001600160401b03811115620000a557620000a56200067e565b604051908082528060200260200182016040528015620000cf578160200160208202803683370190505b508051620000e69160199160209091019062000467565b506012546001600160401b038111156200010457620001046200067e565b6040519080825280602002602001820160405280156200012e578160200160208202803683370190505b5080516200014591601a9160209091019062000467565b506012546001600160401b038111156200016357620001636200067e565b6040519080825280602002602001820160405280156200018d578160200160208202803683370190505b508051620001a491601b9160209091019062000467565b506012546001600160401b03811115620001c257620001c26200067e565b604051908082528060200260200182016040528015620001ec578160200160208202803683370190505b5080516200020391601c9160209091019062000467565b503480156200021157600080fd5b506040516200323e3803806200323e8339810160408190526200023491620005d7565b6040518060400160405280600881526020016734b6b4ba32b9ba1960c11b81525060405180604001604052806003815260200162494d4960e81b8152506200028b62000285620002e160201b60201c565b620002e5565b8151620002a0906003906020850190620003d8565b508051620002b6906004906020840190620003d8565b50506000600190815560095550620002ce8262000335565b620002d98162000358565b505062000694565b3390565b600080546001600160a01b038381166001600160a01b0319831681178455604051919092169283917f8be0079c531659141344cd1fd0a4f28419497f9722a3daafe3b4186f6b6457e09190a35050565b6200033f62000377565b80516200035490600a906020840190620003d8565b5050565b6200036262000377565b80516200035490600b906020840190620003d8565b6000546001600160a01b03163314620003d65760405162461bcd60e51b815260206004820181905260248201527f4f776e61626c653a2063616c6c6572206973206e6f7420746865206f776e6572604482015260640160405180910390fd5b565b828054620003e69062000641565b90600052602060002090601f0160209004810192826200040a576000855562000455565b82601f106200042557805160ff191683800117855562000455565b8280016001018555821562000455579182015b828111156200045557825182559160200191906001019062000438565b506200046392915062000509565b5090565b82805482825590600052602060002090601f01602090048101928215620004555791602002820160005b83821115620004d057835183826101000a81548160ff021916908315150217905550926020019260010160208160000104928301926001030262000491565b8015620004ff5782816101000a81549060ff0219169055600101602081600001049283019260010302620004d0565b5050620004639291505b5b808211156200046357600081556001016200050a565b600082601f8301126200053257600080fd5b81516001600160401b03808211156200054f576200054f6200067e565b604051601f8301601f19908116603f011681019082821181831017156200057a576200057a6200067e565b816040528381526020925086838588010111156200059757600080fd5b600091505b83821015620005bb57858201830151818301840152908201906200059c565b83821115620005cd5760008385830101525b9695505050505050565b60008060408385031215620005eb57600080fd5b82516001600160401b03808211156200060357600080fd5b620006118683870162000520565b935060208501519150808211156200062857600080fd5b50620006378582860162000520565b9150509250929050565b600181811c908216806200065657607f821691505b602082108114156200067857634e487b7160e01b600052602260045260246000fd5b50919050565b634e487b7160e01b600052604160045260246000fd5b612b9a80620006a46000396000f3fe6080604052600436106103ad5760003560e01c80637ccd381d116101e7578063b824ad231161010d578063d5abeb01116100a0578063f2a4c34e1161006f578063f2a4c34e14610b26578063f2fde38b14610b46578063f968f34214610b66578063fd1dae2e14610b8657600080fd5b8063d5abeb0114610a87578063da3ef23f14610a9d578063e985e9c514610abd578063eade46e614610b0657600080fd5b8063c87b56dd116100dc578063c87b56dd146109fb578063c8a7f86d14610a1b578063ca8a7d5e14610a3b578063cfa0329114610a6857600080fd5b8063b824ad2314610986578063b88d4fde146109a6578063c4d2e8d6146109c6578063c6682862146109e657600080fd5b80638ffa5ec611610185578063a0712d6811610154578063a0712d681461090d578063a22cb46514610920578063a7cd52cb14610940578063b3807b1d1461097057600080fd5b80638ffa5ec61461089857806395d89b41146108b8578063998b3dee146108cd5780639b3929da146108ed57600080fd5b80637f0a6f65116101c15780637f0a6f65146108165780638198d162146108395780638965dd971461085a5780638da5cb5b1461087a57600080fd5b80637ccd381d146107b65780637d8afd0f146107d65780637ea63e2b146107f657600080fd5b8063330ba7ad116102d7578063593e6fe41161026a578063674c02aa11610239578063674c02aa14610740578063674f272a1461076157806370a0823114610781578063715018a6146107a157600080fd5b8063593e6fe4146106c65780635b9e3ccf146106e65780635c975abb146107065780636352211e1461072057600080fd5b80633ccfd60b116102a65780633ccfd60b1461065e57806342842e0e1461066657806355f804b31461068657806358211373146106a657600080fd5b8063330ba7ad146105dc57806335a55caa146105fe57806336404ff91461061e57806339516a261461063e57600080fd5b806313faede61161034f57806318160ddd1161031e57806318160ddd1461056057806318cae2691461057957806323b872dd146105a657806330b86627146105c657600080fd5b806313faede6146104dc578063142b0fbe14610500578063176cd6451461052057806317dc10c41461054057600080fd5b806306fdde031161038b57806306fdde0314610442578063081812fc1461046457806309533e461461049c578063095ea7b3146104bc57600080fd5b806301ffc9a7146103b257806302329a29146103e757806305a3b80914610409575b600080fd5b3480156103be57600080fd5b506103d26103cd3660046127b4565b610ba6565b60405190151581526020015b60405180910390f35b3480156103f357600080fd5b50610407610402366004612799565b610bf8565b005b34801561041557600080fd5b506103d26104243660046125ca565b6001600160a01b031660009081526016602052604090205460ff1690565b34801561044e57600080fd5b50610457610c13565b6040516103de91906129c1565b34801561047057600080fd5b5061048461047f366004612837565b610ca5565b6040516001600160a01b0390911681526020016103de565b3480156104a857600080fd5b506103d26104b7366004612837565b610ce9565b3480156104c857600080fd5b506104076104d73660046126fa565b610d25565b3480156104e857600080fd5b506104f260115481565b6040519081526020016103de565b34801561050c57600080fd5b5061040761051b366004612724565b610dc5565b34801561052c57600080fd5b5061040761053b366004612837565b610e44565b34801561054c57600080fd5b5061040761055b366004612799565b610f17565b34801561056c57600080fd5b50600254600154036104f2565b34801561058557600080fd5b506104f26105943660046125ca565b60176020526000908152604090205481565b3480156105b257600080fd5b506104076105c1366004612618565b610f40565b3480156105d257600080fd5b506104f260135481565b3480156105e857600080fd5b506015546103d290640100000000900460ff1681565b34801561060a57600080fd5b506103d2610619366004612837565b6110d1565b34801561062a57600080fd5b506104076106393660046127ee565b6110e6565b34801561064a57600080fd5b506015546103d29062010000900460ff1681565b610407611105565b34801561067257600080fd5b50610407610681366004612618565b61114a565b34801561069257600080fd5b506104076106a13660046127ee565b611165565b3480156106b257600080fd5b506103d26106c1366004612837565b611180565b3480156106d257600080fd5b506103d26106e1366004612837565b611195565b3480156106f257600080fd5b50610407610701366004612724565b6111aa565b34801561071257600080fd5b506015546103d29060ff1681565b34801561072c57600080fd5b5061048461073b366004612837565b611224565b34801561074c57600080fd5b506015546103d290600160301b900460ff1681565b34801561076d57600080fd5b5061040761077c366004612799565b61122f565b34801561078d57600080fd5b506104f261079c3660046125ca565b611255565b3480156107ad57600080fd5b506104076112a4565b3480156107c257600080fd5b506104076107d1366004612837565b6112b8565b3480156107e257600080fd5b506104076107f13660046127ee565b611356565b34801561080257600080fd5b506104076108113660046127ee565b611371565b34801561082257600080fd5b506015546103d29065010000000000900460ff1681565b34801561084557600080fd5b506015546103d2906301000000900460ff1681565b34801561086657600080fd5b506103d2610875366004612837565b61138c565b34801561088657600080fd5b506000546001600160a01b0316610484565b3480156108a457600080fd5b506104076108b3366004612799565b6113a1565b3480156108c457600080fd5b506104576113cb565b3480156108d957600080fd5b506104076108e8366004612799565b6113da565b3480156108f957600080fd5b50610407610908366004612837565b611402565b61040761091b366004612837565b611526565b34801561092c57600080fd5b5061040761093b3660046126d0565b6118e1565b34801561094c57600080fd5b506103d261095b3660046125ca565b60166020526000908152604090205460ff1681565b34801561097c57600080fd5b506104f260145481565b34801561099257600080fd5b506104076109a13660046127ee565b61194d565b3480156109b257600080fd5b506104076109c1366004612654565b611968565b3480156109d257600080fd5b506104076109e1366004612837565b6119b2565b3480156109f257600080fd5b506104576119bf565b348015610a0757600080fd5b50610457610a16366004612837565b611a4d565b348015610a2757600080fd5b50610407610a363660046127ee565b611c88565b348015610a4757600080fd5b50610a5b610a563660046125ca565b611ca3565b6040516103de919061297d565b348015610a7457600080fd5b506015546103d290610100900460ff1681565b348015610a9357600080fd5b506104f260125481565b348015610aa957600080fd5b50610407610ab83660046127ee565b611d7b565b348015610ac957600080fd5b506103d2610ad83660046125e5565b6001600160a01b03918216600090815260086020908152604080832093909416825291909152205460ff1690565b348015610b1257600080fd5b50610407610b21366004612837565b611d96565b348015610b3257600080fd5b50610407610b41366004612799565b611e34565b348015610b5257600080fd5b50610407610b613660046125ca565b611e56565b348015610b7257600080fd5b50610407610b81366004612799565b611ecc565b348015610b9257600080fd5b50610407610ba1366004612837565b611ef0565b60006301ffc9a760e01b6001600160e01b031983161480610bd757506380ac58cd60e01b6001600160e01b03198316145b80610bf25750635b5e139f60e01b6001600160e01b03198316145b92915050565b610c00611f8e565b6015805460ff1916911515919091179055565b606060038054610c2290612a8c565b80601f0160208091040260200160405190810160405280929190818152602001828054610c4e90612a8c565b8015610c9b5780601f10610c7057610100808354040283529160200191610c9b565b820191906000526020600020905b815481529060010190602001808311610c7e57829003601f168201915b5050505050905090565b6000610cb082611fe8565b610ccd576040516333d1c03960e21b815260040160405180910390fd5b506000908152600760205260409020546001600160a01b031690565b6000601a8281548110610cfe57610cfe612b22565b90600052602060002090602091828204019190069054906101000a900460ff169050919050565b6000610d3082611224565b9050336001600160a01b03821614610d6957610d4c8133610ad8565b610d69576040516367d9dca160e11b815260040160405180910390fd5b60008281526007602052604080822080546001600160a01b0319166001600160a01b0387811691821790925591518593918516917f8c5be1e5ebec7d5bd14f71427d1e84f3dd0314c0f7b2291e5b200ac8c7c3b92591a4505050565b610dcd611f8e565b60005b81811015610e3f57600060166000858585818110610df057610df0612b22565b9050602002016020810190610e0591906125ca565b6001600160a01b031681526020810191909152604001600020805460ff191691151591909117905580610e3781612ac7565b915050610dd0565b505050565b33610e4e82611224565b6001600160a01b031614610e6157600080fd5b601554610100900460ff1615610e7657600080fd5b601b8181548110610e8957610e89612b22565b90600052602060002090602091828204019190069054906101000a900460ff161515600115151415610ed65760405162461bcd60e51b8152600401610ecd906129d4565b60405180910390fd5b6001601b8281548110610eeb57610eeb612b22565b90600052602060002090602091828204019190066101000a81548160ff02191690831515021790555050565b610f1f611f8e565b60158054911515600160301b0266ff00000000000019909216919091179055565b6000610f4b82612010565b9050836001600160a01b0316816001600160a01b031614610f7e5760405162a1148160e81b815260040160405180910390fd5b60008281526007602052604090208054338082146001600160a01b03881690911417610fcb57610fae8633610ad8565b610fcb57604051632ce44b5f60e11b815260040160405180910390fd5b6001600160a01b038516610ff257604051633a954ecd60e21b815260040160405180910390fd5b8015610ffd57600082555b6001600160a01b038681166000908152600660205260408082208054600019019055918716808252919020805460010190554260a01b17600160e11b17600085815260056020526040902055600160e11b831661108857600184016000818152600560205260409020546110865760015481146110865760008181526005602052604090208490555b505b83856001600160a01b0316876001600160a01b03167fddf252ad1be2c89b69c2b068fc378daa952ba7f163c4a11628f55a4df523b3ef60405160405180910390a4505050505050565b600060188281548110610cfe57610cfe612b22565b6110ee611f8e565b805161110190600c90602084019061248f565b5050565b61110d611f8e565b600080546040516001600160a01b03909116914780156108fc02929091818181858888f19350505050158015611147573d6000803e3d6000fd5b50565b610e3f83838360405180602001604052806000815250611968565b61116d611f8e565b805161110190600a90602084019061248f565b600060198281548110610cfe57610cfe612b22565b6000601b8281548110610cfe57610cfe612b22565b6111b2611f8e565b60005b81811015610e3f576001601660008585858181106111d5576111d5612b22565b90506020020160208101906111ea91906125ca565b6001600160a01b031681526020810191909152604001600020805460ff19169115159190911790558061121c81612ac7565b9150506111b5565b6000610bf282612010565b611237611f8e565b6015805491151563010000000263ff00000019909216919091179055565b60006001600160a01b03821661127e576040516323d3ad8160e21b815260040160405180910390fd5b506001600160a01b031660009081526006602052604090205467ffffffffffffffff1690565b6112ac611f8e565b6112b66000612071565b565b336112c282611224565b6001600160a01b0316146112d557600080fd5b601554610100900460ff16156112ea57600080fd5b601981815481106112fd576112fd612b22565b90600052602060002090602091828204019190069054906101000a900460ff1615156001151514156113415760405162461bcd60e51b8152600401610ecd906129d4565b600160198281548110610eeb57610eeb612b22565b61135e611f8e565b805161110190600f90602084019061248f565b611379611f8e565b805161110190600b90602084019061248f565b6000601c8281548110610cfe57610cfe612b22565b6113a9611f8e565b60158054911515650100000000000265ff000000000019909216919091179055565b606060048054610c2290612a8c565b6113e2611f8e565b601580549115156401000000000264ff0000000019909216919091179055565b3361140c82611224565b6001600160a01b0316146114625760405162461bcd60e51b815260206004820152601b60248201527f736f72727920796f7520617265206e6f7420746865206f776e657200000000006044820152606401610ecd565b601554610100900460ff16156114ba5760405162461bcd60e51b815260206004820152601760248201527f636c61696d206973206e6f7420616374697665207965740000000000000000006044820152606401610ecd565b601881815481106114cd576114cd612b22565b90600052602060002090602091828204019190069054906101000a900460ff1615156001151514156115115760405162461bcd60e51b8152600401610ecd906129d4565b600160188281548110610eeb57610eeb612b22565b60006115356002546001540390565b60155490915060ff16156115d75760405162461bcd60e51b815260206004820152605f60248201527f574f414820686f6c6420757020746865206d696e74206973206e6f742079657460448201527f206c6976652c2061206c6974746c6520746f6f206561726c792074686572652e60648201527f2e2e206f72206c6174653f205472616e736d697373696f6e20456e64696e6700608482015260a401610ecd565b6000821161164d5760405162461bcd60e51b815260206004820152603f60248201527f6d757374206d696e74206174206c656173742031206e66742c2030206973206e60448201527f6f7420616c6c6f7765642e205472616e736d697373696f6e20456e64696e67006064820152608401610ecd565b60135461165a83836129fe565b11156116c45760405162461bcd60e51b815260206004820152603360248201527f5468697320736574206f66207368697274732068617665206265656e206d696e6044820152723a32b21030b63932b0b23c961039b7b9393c9760691b6064820152608401610ecd565b6012546116d183836129fe565b111561173d5760405162461bcd60e51b815260206004820152603560248201527f6c6f6f6b73206c696b652077652061726520706f70756c6172206d61782073756044820152741c1c1b1e481a185cc81899595b881c995858da1959605a1b6064820152608401610ecd565b6000546001600160a01b031633146118af5760018211156117975760405162461bcd60e51b8152602060048201526014602482015273037b7363c90189030ba1030903a34b6b2901d14960651b6044820152606401610ecd565b601554600160301b900460ff1615156001141561185d573360009081526016602052604090205460ff166117ff5760405162461bcd60e51b815260206004820152600f60248201526e139bdd08105b1b1bdddb1a5cdd1959608a1b6044820152606401610ecd565b3360009081526017602052604090205460145461181c84836129fe565b111561185b5760405162461bcd60e51b815260206004820152600e60248201526d105b1c9958591e481b5a5b9d195960921b6044820152606401610ecd565b505b8160115461186b9190612a2a565b3410156118af5760405162461bcd60e51b8152602060048201526012602482015271086dee6e840c8decae6dc4ee840dac2e8c6d60731b6044820152606401610ecd565b6118b933836120c1565b33600090815260176020526040812080548492906118d89084906129fe565b90915550505050565b3360008181526008602090815260408083206001600160a01b03871680855290835292819020805460ff191686151590811790915590519081529192917f17307eab39ab6107e8899845ad3d59bd9653f200f220920489ca2b5937696c31910160405180910390a35050565b611955611f8e565b805161110190600d90602084019061248f565b611973848484610f40565b6001600160a01b0383163b156119ac5761198f848484846120db565b6119ac576040516368d2bf6b60e11b815260040160405180910390fd5b50505050565b6119ba611f8e565b601355565b601080546119cc90612a8c565b80601f01602080910402602001604051908101604052809291908181526020018280546119f890612a8c565b8015611a455780601f10611a1a57610100808354040283529160200191611a45565b820191906000526020600020905b815481529060010190602001808311611a2857829003601f168201915b505050505081565b6060611a5882611fe8565b611abc5760405162461bcd60e51b815260206004820152602f60248201527f4552433732314d657461646174613a2055524920717565727920666f72206e6f60448201526e3732bc34b9ba32b73a103a37b5b2b760891b6064820152608401610ecd565b60188281548110611acf57611acf612b22565b90600052602060002090602091828204019190069054906101000a900460ff161515600115151415611b5a576000611b056121d3565b90506000815111611b255760405180602001604052806000815250611b53565b80611b2f846121e2565b6010604051602001611b439392919061287c565b6040516020818303038152906040525b9392505050565b60198281548110611b6d57611b6d612b22565b90600052602060002090602091828204019190069054906101000a900460ff161515600115151415611ba3576000611b056122e0565b601a8281548110611bb657611bb6612b22565b90600052602060002090602091828204019190069054906101000a900460ff161515600115151415611bec576000611b056122ef565b601b8281548110611bff57611bff612b22565b90600052602060002090602091828204019190069054906101000a900460ff161515600115151415611c35576000611b056122fe565b601c8281548110611c4857611c48612b22565b90600052602060002090602091828204019190069054906101000a900460ff161515600115151415611c7e576000611b0561230d565b6000611b0561231c565b611c90611f8e565b805161110190600e90602084019061248f565b60606000611cb46002546001540390565b90506000611cc184611255565b67ffffffffffffffff811115611cd957611cd9612b38565b604051908082528060200260200182016040528015611d02578160200160208202803683370190505b5090506000805b83811015611d7157856001600160a01b0316611d2482611224565b6001600160a01b03161415611d5f5780838381518110611d4657611d46612b22565b602090810291909101015281611d5b81612ac7565b9250505b80611d6981612ac7565b915050611d09565b5090949350505050565b611d83611f8e565b805161110190601090602084019061248f565b33611da082611224565b6001600160a01b031614611db357600080fd5b601554610100900460ff1615611dc857600080fd5b601c8181548110611ddb57611ddb612b22565b90600052602060002090602091828204019190069054906101000a900460ff161515600115151415611e1f5760405162461bcd60e51b8152600401610ecd906129d4565b6001601c8281548110610eeb57610eeb612b22565b611e3c611f8e565b601580549115156101000261ff0019909216919091179055565b611e5e611f8e565b6001600160a01b038116611ec35760405162461bcd60e51b815260206004820152602660248201527f4f776e61626c653a206e6577206f776e657220697320746865207a65726f206160448201526564647265737360d01b6064820152608401610ecd565b61114781612071565b611ed4611f8e565b60158054911515620100000262ff000019909216919091179055565b33611efa82611224565b6001600160a01b031614611f0d57600080fd5b601554610100900460ff1615611f2257600080fd5b601a8181548110611f3557611f35612b22565b90600052602060002090602091828204019190069054906101000a900460ff161515600115151415611f795760405162461bcd60e51b8152600401610ecd906129d4565b6001601a8281548110610eeb57610eeb612b22565b6000546001600160a01b031633146112b65760405162461bcd60e51b815260206004820181905260248201527f4f776e61626c653a2063616c6c6572206973206e6f7420746865206f776e65726044820152606401610ecd565b600060015482108015610bf2575050600090815260056020526040902054600160e01b161590565b60008160015481101561205857600081815260056020526040902054600160e01b8116612056575b80611b53575060001901600081815260056020526040902054612038565b505b604051636f96cda160e11b815260040160405180910390fd5b600080546001600160a01b038381166001600160a01b0319831681178455604051919092169283917f8be0079c531659141344cd1fd0a4f28419497f9722a3daafe3b4186f6b6457e09190a35050565b61110182826040518060200160405280600081525061232b565b604051630a85bd0160e11b81526000906001600160a01b0385169063150b7a0290612110903390899088908890600401612940565b602060405180830381600087803b15801561212a57600080fd5b505af192505050801561215a575060408051601f3d908101601f19168201909252612157918101906127d1565b60015b6121b5573d808015612188576040519150601f19603f3d011682016040523d82523d6000602084013e61218d565b606091505b5080516121ad576040516368d2bf6b60e11b815260040160405180910390fd5b805181602001fd5b6001600160e01b031916630a85bd0160e11b1490505b949350505050565b6060600b8054610c2290612a8c565b6060816122065750506040805180820190915260018152600360fc1b602082015290565b8160005b8115612230578061221a81612ac7565b91506122299050600a83612a16565b915061220a565b60008167ffffffffffffffff81111561224b5761224b612b38565b6040519080825280601f01601f191660200182016040528015612275576020820181803683370190505b5090505b84156121cb5761228a600183612a49565b9150612297600a86612ae2565b6122a29060306129fe565b60f81b8183815181106122b7576122b7612b22565b60200101906001600160f81b031916908160001a9053506122d9600a86612a16565b9450612279565b6060600c8054610c2290612a8c565b6060600d8054610c2290612a8c565b6060600e8054610c2290612a8c565b6060600f8054610c2290612a8c565b6060600a8054610c2290612a8c565b6123358383612398565b6001600160a01b0383163b15610e3f576001548281035b61235f60008683806001019450866120db565b61237c576040516368d2bf6b60e11b815260040160405180910390fd5b81811061234c57816001541461239157600080fd5b5050505050565b600154816123b95760405163b562e8dd60e01b815260040160405180910390fd5b6001600160a01b03831660008181526006602090815260408083208054680100000000000000018802019055848352600590915281206001851460e11b4260a01b178317905582840190839083907fddf252ad1be2c89b69c2b068fc378daa952ba7f163c4a11628f55a4df523b3ef8180a4600183015b81811461246857808360007fddf252ad1be2c89b69c2b068fc378daa952ba7f163c4a11628f55a4df523b3ef600080a4600101612430565b508161248657604051622e076360e81b815260040160405180910390fd5b60015550505050565b82805461249b90612a8c565b90600052602060002090601f0160209004810192826124bd5760008555612503565b82601f106124d657805160ff1916838001178555612503565b82800160010185558215612503579182015b828111156125035782518255916020019190600101906124e8565b5061250f929150612513565b5090565b5b8082111561250f5760008155600101612514565b600067ffffffffffffffff8084111561254357612543612b38565b604051601f8501601f19908116603f0116810190828211818310171561256b5761256b612b38565b8160405280935085815286868601111561258457600080fd5b858560208301376000602087830101525050509392505050565b80356001600160a01b03811681146125b557600080fd5b919050565b803580151581146125b557600080fd5b6000602082840312156125dc57600080fd5b611b538261259e565b600080604083850312156125f857600080fd5b6126018361259e565b915061260f6020840161259e565b90509250929050565b60008060006060848603121561262d57600080fd5b6126368461259e565b92506126446020850161259e565b9150604084013590509250925092565b6000806000806080858703121561266a57600080fd5b6126738561259e565b93506126816020860161259e565b925060408501359150606085013567ffffffffffffffff8111156126a457600080fd5b8501601f810187136126b557600080fd5b6126c487823560208401612528565b91505092959194509250565b600080604083850312156126e357600080fd5b6126ec8361259e565b915061260f602084016125ba565b6000806040838503121561270d57600080fd5b6127168361259e565b946020939093013593505050565b6000806020838503121561273757600080fd5b823567ffffffffffffffff8082111561274f57600080fd5b818501915085601f83011261276357600080fd5b81358181111561277257600080fd5b8660208260051b850101111561278757600080fd5b60209290920196919550909350505050565b6000602082840312156127ab57600080fd5b611b53826125ba565b6000602082840312156127c657600080fd5b8135611b5381612b4e565b6000602082840312156127e357600080fd5b8151611b5381612b4e565b60006020828403121561280057600080fd5b813567ffffffffffffffff81111561281757600080fd5b8201601f8101841361282857600080fd5b6121cb84823560208401612528565b60006020828403121561284957600080fd5b5035919050565b60008151808452612868816020860160208601612a60565b601f01601f19169290920160200192915050565b60008451602061288f8285838a01612a60565b8551918401916128a28184848a01612a60565b8554920191600090600181811c90808316806128bf57607f831692505b8583108114156128dd57634e487b7160e01b85526022600452602485fd5b8080156128f157600181146129025761292f565b60ff1985168852838801955061292f565b60008b81526020902060005b858110156129275781548a82015290840190880161290e565b505083880195505b50939b9a5050505050505050505050565b6001600160a01b038581168252841660208201526040810183905260806060820181905260009061297390830184612850565b9695505050505050565b6020808252825182820181905260009190848201906040850190845b818110156129b557835183529284019291840191600101612999565b50909695505050505050565b602081526000611b536020830184612850565b60208082526010908201526f616c726561647920636c61696d65642160801b604082015260600190565b60008219821115612a1157612a11612af6565b500190565b600082612a2557612a25612b0c565b500490565b6000816000190483118215151615612a4457612a44612af6565b500290565b600082821015612a5b57612a5b612af6565b500390565b60005b83811015612a7b578181015183820152602001612a63565b838111156119ac5750506000910152565b600181811c90821680612aa057607f821691505b60208210811415612ac157634e487b7160e01b600052602260045260246000fd5b50919050565b6000600019821415612adb57612adb612af6565b5060010190565b600082612af157612af1612b0c565b500690565b634e487b7160e01b600052601160045260246000fd5b634e487b7160e01b600052601260045260246000fd5b634e487b7160e01b600052603260045260246000fd5b634e487b7160e01b600052604160045260246000fd5b6001600160e01b03198116811461114757600080fdfea264697066735822122067dad0f203ac547462366cce5a3322fe9ea8dc2410f88d71465dadae185cb35364736f6c63430008070033",
			"opcodes": "PUSH1 0xC0 PUSH1 0x40 MSTORE PUSH1 0x5 PUSH1 0x80 DUP2 SWAP1 MSTORE PUSH5 0x173539B7B7 PUSH1 0xD9 SHL PUSH1 0xA0 SWAP1 DUP2 MSTORE PUSH3 0x28 SWAP2 PUSH1 0x10 SWAP2 SWAP1 PUSH3 0x3D8 JUMP JUMPDEST POP PUSH7 0x753D533D968000 PUSH1 0x11 SSTORE PUSH1 0x46 PUSH1 0x12 DUP2 SWAP1 SSTORE PUSH1 0x9 PUSH1 0x13 SSTORE PUSH1 0x5 PUSH1 0x14 SSTORE PUSH1 0x15 DUP1 SLOAD PUSH7 0xFFFFFFFFFFFFFF NOT AND SWAP1 SSTORE PUSH1 0x40 DUP1 MLOAD DUP3 DUP2 MSTORE PUSH2 0x8E0 DUP2 ADD SWAP1 SWAP2 MSTORE SWAP1 PUSH1 0x20 DUP3 ADD PUSH2 0x8C0 DUP1 CALLDATASIZE DUP4 CALLDATACOPY POP POP DUP2 MLOAD PUSH3 0x87 SWAP3 PUSH1 0x18 SWAP3 POP PUSH1 0x20 ADD SWAP1 PUSH3 0x467 JUMP JUMPDEST POP PUSH1 0x12 SLOAD PUSH1 0x1 PUSH1 0x1 PUSH1 0x40 SHL SUB DUP2 GT ISZERO PUSH3 0xA5 JUMPI PUSH3 0xA5 PUSH3 0x67E JUMP JUMPDEST PUSH1 0x40 MLOAD SWAP1 DUP1 DUP3 MSTORE DUP1 PUSH1 0x20 MUL PUSH1 0x20 ADD DUP3 ADD PUSH1 0x40 MSTORE DUP1 ISZERO PUSH3 0xCF JUMPI DUP2 PUSH1 0x20 ADD PUSH1 0x20 DUP3 MUL DUP1 CALLDATASIZE DUP4 CALLDATACOPY ADD SWAP1 POP JUMPDEST POP DUP1 MLOAD PUSH3 0xE6 SWAP2 PUSH1 0x19 SWAP2 PUSH1 0x20 SWAP1 SWAP2 ADD SWAP1 PUSH3 0x467 JUMP JUMPDEST POP PUSH1 0x12 SLOAD PUSH1 0x1 PUSH1 0x1 PUSH1 0x40 SHL SUB DUP2 GT ISZERO PUSH3 0x104 JUMPI PUSH3 0x104 PUSH3 0x67E JUMP JUMPDEST PUSH1 0x40 MLOAD SWAP1 DUP1 DUP3 MSTORE DUP1 PUSH1 0x20 MUL PUSH1 0x20 ADD DUP3 ADD PUSH1 0x40 MSTORE DUP1 ISZERO PUSH3 0x12E JUMPI DUP2 PUSH1 0x20 ADD PUSH1 0x20 DUP3 MUL DUP1 CALLDATASIZE DUP4 CALLDATACOPY ADD SWAP1 POP JUMPDEST POP DUP1 MLOAD PUSH3 0x145 SWAP2 PUSH1 0x1A SWAP2 PUSH1 0x20 SWAP1 SWAP2 ADD SWAP1 PUSH3 0x467 JUMP JUMPDEST POP PUSH1 0x12 SLOAD PUSH1 0x1 PUSH1 0x1 PUSH1 0x40 SHL SUB DUP2 GT ISZERO PUSH3 0x163 JUMPI PUSH3 0x163 PUSH3 0x67E JUMP JUMPDEST PUSH1 0x40 MLOAD SWAP1 DUP1 DUP3 MSTORE DUP1 PUSH1 0x20 MUL PUSH1 0x20 ADD DUP3 ADD PUSH1 0x40 MSTORE DUP1 ISZERO PUSH3 0x18D JUMPI DUP2 PUSH1 0x20 ADD PUSH1 0x20 DUP3 MUL DUP1 CALLDATASIZE DUP4 CALLDATACOPY ADD SWAP1 POP JUMPDEST POP DUP1 MLOAD PUSH3 0x1A4 SWAP2 PUSH1 0x1B SWAP2 PUSH1 0x20 SWAP1 SWAP2 ADD SWAP1 PUSH3 0x467 JUMP JUMPDEST POP PUSH1 0x12 SLOAD PUSH1 0x1 PUSH1 0x1 PUSH1 0x40 SHL SUB DUP2 GT ISZERO PUSH3 0x1C2 JUMPI PUSH3 0x1C2 PUSH3 0x67E JUMP JUMPDEST PUSH1 0x40 MLOAD SWAP1 DUP1 DUP3 MSTORE DUP1 PUSH1 0x20 MUL PUSH1 0x20 ADD DUP3 ADD PUSH1 0x40 MSTORE DUP1 ISZERO PUSH3 0x1EC JUMPI DUP2 PUSH1 0x20 ADD PUSH1 0x20 DUP3 MUL DUP1 CALLDATASIZE DUP4 CALLDATACOPY ADD SWAP1 POP JUMPDEST POP DUP1 MLOAD PUSH3 0x203 SWAP2 PUSH1 0x1C SWAP2 PUSH1 0x20 SWAP1 SWAP2 ADD SWAP1 PUSH3 0x467 JUMP JUMPDEST POP CALLVALUE DUP1 ISZERO PUSH3 0x211 JUMPI PUSH1 0x0 DUP1 REVERT JUMPDEST POP PUSH1 0x40 MLOAD PUSH3 0x323E CODESIZE SUB DUP1 PUSH3 0x323E DUP4 CODECOPY DUP2 ADD PUSH1 0x40 DUP2 SWAP1 MSTORE PUSH3 0x234 SWAP2 PUSH3 0x5D7 JUMP JUMPDEST PUSH1 0x40 MLOAD DUP1 PUSH1 0x40 ADD PUSH1 0x40 MSTORE DUP1 PUSH1 0x8 DUP2 MSTORE PUSH1 0x20 ADD PUSH8 0x34B6B4BA32B9BA19 PUSH1 0xC1 SHL DUP2 MSTORE POP PUSH1 0x40 MLOAD DUP1 PUSH1 0x40 ADD PUSH1 0x40 MSTORE DUP1 PUSH1 0x3 DUP2 MSTORE PUSH1 0x20 ADD PUSH3 0x494D49 PUSH1 0xE8 SHL DUP2 MSTORE POP PUSH3 0x28B PUSH3 0x285 PUSH3 0x2E1 PUSH1 0x20 SHL PUSH1 0x20 SHR JUMP JUMPDEST PUSH3 0x2E5 JUMP JUMPDEST DUP2 MLOAD PUSH3 0x2A0 SWAP1 PUSH1 0x3 SWAP1 PUSH1 0x20 DUP6 ADD SWAP1 PUSH3 0x3D8 JUMP JUMPDEST POP DUP1 MLOAD PUSH3 0x2B6 SWAP1 PUSH1 0x4 SWAP1 PUSH1 0x20 DUP5 ADD SWAP1 PUSH3 0x3D8 JUMP JUMPDEST POP POP PUSH1 0x0 PUSH1 0x1 SWAP1 DUP2 SSTORE PUSH1 0x9 SSTORE POP PUSH3 0x2CE DUP3 PUSH3 0x335 JUMP JUMPDEST PUSH3 0x2D9 DUP2 PUSH3 0x358 JUMP JUMPDEST POP POP PUSH3 0x694 JUMP JUMPDEST CALLER SWAP1 JUMP JUMPDEST PUSH1 0x0 DUP1 SLOAD PUSH1 0x1 PUSH1 0x1 PUSH1 0xA0 SHL SUB DUP4 DUP2 AND PUSH1 0x1 PUSH1 0x1 PUSH1 0xA0 SHL SUB NOT DUP4 AND DUP2 OR DUP5 SSTORE PUSH1 0x40 MLOAD SWAP2 SWAP1 SWAP3 AND SWAP3 DUP4 SWAP2 PUSH32 0x8BE0079C531659141344CD1FD0A4F28419497F9722A3DAAFE3B4186F6B6457E0 SWAP2 SWAP1 LOG3 POP POP JUMP JUMPDEST PUSH3 0x33F PUSH3 0x377 JUMP JUMPDEST DUP1 MLOAD PUSH3 0x354 SWAP1 PUSH1 0xA SWAP1 PUSH1 0x20 DUP5 ADD SWAP1 PUSH3 0x3D8 JUMP JUMPDEST POP POP JUMP JUMPDEST PUSH3 0x362 PUSH3 0x377 JUMP JUMPDEST DUP1 MLOAD PUSH3 0x354 SWAP1 PUSH1 0xB SWAP1 PUSH1 0x20 DUP5 ADD SWAP1 PUSH3 0x3D8 JUMP JUMPDEST PUSH1 0x0 SLOAD PUSH1 0x1 PUSH1 0x1 PUSH1 0xA0 SHL SUB AND CALLER EQ PUSH3 0x3D6 JUMPI PUSH1 0x40 MLOAD PUSH3 0x461BCD PUSH1 0xE5 SHL DUP2 MSTORE PUSH1 0x20 PUSH1 0x4 DUP3 ADD DUP2 SWAP1 MSTORE PUSH1 0x24 DUP3 ADD MSTORE PUSH32 0x4F776E61626C653A2063616C6C6572206973206E6F7420746865206F776E6572 PUSH1 0x44 DUP3 ADD MSTORE PUSH1 0x64 ADD PUSH1 0x40 MLOAD DUP1 SWAP2 SUB SWAP1 REVERT JUMPDEST JUMP JUMPDEST DUP3 DUP1 SLOAD PUSH3 0x3E6 SWAP1 PUSH3 0x641 JUMP JUMPDEST SWAP1 PUSH1 0x0 MSTORE PUSH1 0x20 PUSH1 0x0 KECCAK256 SWAP1 PUSH1 0x1F ADD PUSH1 0x20 SWAP1 DIV DUP2 ADD SWAP3 DUP3 PUSH3 0x40A JUMPI PUSH1 0x0 DUP6 SSTORE PUSH3 0x455 JUMP JUMPDEST DUP3 PUSH1 0x1F LT PUSH3 0x425 JUMPI DUP1 MLOAD PUSH1 0xFF NOT AND DUP4 DUP1 ADD OR DUP6 SSTORE PUSH3 0x455 JUMP JUMPDEST DUP3 DUP1 ADD PUSH1 0x1 ADD DUP6 SSTORE DUP3 ISZERO PUSH3 0x455 JUMPI SWAP2 DUP3 ADD JUMPDEST DUP3 DUP2 GT ISZERO PUSH3 0x455 JUMPI DUP3 MLOAD DUP3 SSTORE SWAP2 PUSH1 0x20 ADD SWAP2 SWAP1 PUSH1 0x1 ADD SWAP1 PUSH3 0x438 JUMP JUMPDEST POP PUSH3 0x463 SWAP3 SWAP2 POP PUSH3 0x509 JUMP JUMPDEST POP SWAP1 JUMP JUMPDEST DUP3 DUP1 SLOAD DUP3 DUP3 SSTORE SWAP1 PUSH1 0x0 MSTORE PUSH1 0x20 PUSH1 0x0 KECCAK256 SWAP1 PUSH1 0x1F ADD PUSH1 0x20 SWAP1 DIV DUP2 ADD SWAP3 DUP3 ISZERO PUSH3 0x455 JUMPI SWAP2 PUSH1 0x20 MUL DUP3 ADD PUSH1 0x0 JUMPDEST DUP4 DUP3 GT ISZERO PUSH3 0x4D0 JUMPI DUP4 MLOAD DUP4 DUP3 PUSH2 0x100 EXP DUP2 SLOAD DUP2 PUSH1 0xFF MUL NOT AND SWAP1 DUP4 ISZERO ISZERO MUL OR SWAP1 SSTORE POP SWAP3 PUSH1 0x20 ADD SWAP3 PUSH1 0x1 ADD PUSH1 0x20 DUP2 PUSH1 0x0 ADD DIV SWAP3 DUP4 ADD SWAP3 PUSH1 0x1 SUB MUL PUSH3 0x491 JUMP JUMPDEST DUP1 ISZERO PUSH3 0x4FF JUMPI DUP3 DUP2 PUSH2 0x100 EXP DUP2 SLOAD SWAP1 PUSH1 0xFF MUL NOT AND SWAP1 SSTORE PUSH1 0x1 ADD PUSH1 0x20 DUP2 PUSH1 0x0 ADD DIV SWAP3 DUP4 ADD SWAP3 PUSH1 0x1 SUB MUL PUSH3 0x4D0 JUMP JUMPDEST POP POP PUSH3 0x463 SWAP3 SWAP2 POP JUMPDEST JUMPDEST DUP1 DUP3 GT ISZERO PUSH3 0x463 JUMPI PUSH1 0x0 DUP2 SSTORE PUSH1 0x1 ADD PUSH3 0x50A JUMP JUMPDEST PUSH1 0x0 DUP3 PUSH1 0x1F DUP4 ADD SLT PUSH3 0x532 JUMPI PUSH1 0x0 DUP1 REVERT JUMPDEST DUP2 MLOAD PUSH1 0x1 PUSH1 0x1 PUSH1 0x40 SHL SUB DUP1 DUP3 GT ISZERO PUSH3 0x54F JUMPI PUSH3 0x54F PUSH3 0x67E JUMP JUMPDEST PUSH1 0x40 MLOAD PUSH1 0x1F DUP4 ADD PUSH1 0x1F NOT SWAP1 DUP2 AND PUSH1 0x3F ADD AND DUP2 ADD SWAP1 DUP3 DUP3 GT DUP2 DUP4 LT OR ISZERO PUSH3 0x57A JUMPI PUSH3 0x57A PUSH3 0x67E JUMP JUMPDEST DUP2 PUSH1 0x40 MSTORE DUP4 DUP2 MSTORE PUSH1 0x20 SWAP3 POP DUP7 DUP4 DUP6 DUP9 ADD ADD GT ISZERO PUSH3 0x597 JUMPI PUSH1 0x0 DUP1 REVERT JUMPDEST PUSH1 0x0 SWAP2 POP JUMPDEST DUP4 DUP3 LT ISZERO PUSH3 0x5BB JUMPI DUP6 DUP3 ADD DUP4 ADD MLOAD DUP2 DUP4 ADD DUP5 ADD MSTORE SWAP1 DUP3 ADD SWAP1 PUSH3 0x59C JUMP JUMPDEST DUP4 DUP3 GT ISZERO PUSH3 0x5CD JUMPI PUSH1 0x0 DUP4 DUP6 DUP4 ADD ADD MSTORE JUMPDEST SWAP7 SWAP6 POP POP POP POP POP POP JUMP JUMPDEST PUSH1 0x0 DUP1 PUSH1 0x40 DUP4 DUP6 SUB SLT ISZERO PUSH3 0x5EB JUMPI PUSH1 0x0 DUP1 REVERT JUMPDEST DUP3 MLOAD PUSH1 0x1 PUSH1 0x1 PUSH1 0x40 SHL SUB DUP1 DUP3 GT ISZERO PUSH3 0x603 JUMPI PUSH1 0x0 DUP1 REVERT JUMPDEST PUSH3 0x611 DUP7 DUP4 DUP8 ADD PUSH3 0x520 JUMP JUMPDEST SWAP4 POP PUSH1 0x20 DUP6 ADD MLOAD SWAP2 POP DUP1 DUP3 GT ISZERO PUSH3 0x628 JUMPI PUSH1 0x0 DUP1 REVERT JUMPDEST POP PUSH3 0x637 DUP6 DUP3 DUP7 ADD PUSH3 0x520 JUMP JUMPDEST SWAP2 POP POP SWAP3 POP SWAP3 SWAP1 POP JUMP JUMPDEST PUSH1 0x1 DUP2 DUP2 SHR SWAP1 DUP3 AND DUP1 PUSH3 0x656 JUMPI PUSH1 0x7F DUP3 AND SWAP2 POP JUMPDEST PUSH1 0x20 DUP3 LT DUP2 EQ ISZERO PUSH3 0x678 JUMPI PUSH4 0x4E487B71 PUSH1 0xE0 SHL PUSH1 0x0 MSTORE PUSH1 0x22 PUSH1 0x4 MSTORE PUSH1 0x24 PUSH1 0x0 REVERT JUMPDEST POP SWAP2 SWAP1 POP JUMP JUMPDEST PUSH4 0x4E487B71 PUSH1 0xE0 SHL PUSH1 0x0 MSTORE PUSH1 0x41 PUSH1 0x4 MSTORE PUSH1 0x24 PUSH1 0x0 REVERT JUMPDEST PUSH2 0x2B9A DUP1 PUSH3 0x6A4 PUSH1 0x0 CODECOPY PUSH1 0x0 RETURN INVALID PUSH1 0x80 PUSH1 0x40 MSTORE PUSH1 0x4 CALLDATASIZE LT PUSH2 0x3AD JUMPI PUSH1 0x0 CALLDATALOAD PUSH1 0xE0 SHR DUP1 PUSH4 0x7CCD381D GT PUSH2 0x1E7 JUMPI DUP1 PUSH4 0xB824AD23 GT PUSH2 0x10D JUMPI DUP1 PUSH4 0xD5ABEB01 GT PUSH2 0xA0 JUMPI DUP1 PUSH4 0xF2A4C34E GT PUSH2 0x6F JUMPI DUP1 PUSH4 0xF2A4C34E EQ PUSH2 0xB26 JUMPI DUP1 PUSH4 0xF2FDE38B EQ PUSH2 0xB46 JUMPI DUP1 PUSH4 0xF968F342 EQ PUSH2 0xB66 JUMPI DUP1 PUSH4 0xFD1DAE2E EQ PUSH2 0xB86 JUMPI PUSH1 0x0 DUP1 REVERT JUMPDEST DUP1 PUSH4 0xD5ABEB01 EQ PUSH2 0xA87 JUMPI DUP1 PUSH4 0xDA3EF23F EQ PUSH2 0xA9D JUMPI DUP1 PUSH4 0xE985E9C5 EQ PUSH2 0xABD JUMPI DUP1 PUSH4 0xEADE46E6 EQ PUSH2 0xB06 JUMPI PUSH1 0x0 DUP1 REVERT JUMPDEST DUP1 PUSH4 0xC87B56DD GT PUSH2 0xDC JUMPI DUP1 PUSH4 0xC87B56DD EQ PUSH2 0x9FB JUMPI DUP1 PUSH4 0xC8A7F86D EQ PUSH2 0xA1B JUMPI DUP1 PUSH4 0xCA8A7D5E EQ PUSH2 0xA3B JUMPI DUP1 PUSH4 0xCFA03291 EQ PUSH2 0xA68 JUMPI PUSH1 0x0 DUP1 REVERT JUMPDEST DUP1 PUSH4 0xB824AD23 EQ PUSH2 0x986 JUMPI DUP1 PUSH4 0xB88D4FDE EQ PUSH2 0x9A6 JUMPI DUP1 PUSH4 0xC4D2E8D6 EQ PUSH2 0x9C6 JUMPI DUP1 PUSH4 0xC6682862 EQ PUSH2 0x9E6 JUMPI PUSH1 0x0 DUP1 REVERT JUMPDEST DUP1 PUSH4 0x8FFA5EC6 GT PUSH2 0x185 JUMPI DUP1 PUSH4 0xA0712D68 GT PUSH2 0x154 JUMPI DUP1 PUSH4 0xA0712D68 EQ PUSH2 0x90D JUMPI DUP1 PUSH4 0xA22CB465 EQ PUSH2 0x920 JUMPI DUP1 PUSH4 0xA7CD52CB EQ PUSH2 0x940 JUMPI DUP1 PUSH4 0xB3807B1D EQ PUSH2 0x970 JUMPI PUSH1 0x0 DUP1 REVERT JUMPDEST DUP1 PUSH4 0x8FFA5EC6 EQ PUSH2 0x898 JUMPI DUP1 PUSH4 0x95D89B41 EQ PUSH2 0x8B8 JUMPI DUP1 PUSH4 0x998B3DEE EQ PUSH2 0x8CD JUMPI DUP1 PUSH4 0x9B3929DA EQ PUSH2 0x8ED JUMPI PUSH1 0x0 DUP1 REVERT JUMPDEST DUP1 PUSH4 0x7F0A6F65 GT PUSH2 0x1C1 JUMPI DUP1 PUSH4 0x7F0A6F65 EQ PUSH2 0x816 JUMPI DUP1 PUSH4 0x8198D162 EQ PUSH2 0x839 JUMPI DUP1 PUSH4 0x8965DD97 EQ PUSH2 0x85A JUMPI DUP1 PUSH4 0x8DA5CB5B EQ PUSH2 0x87A JUMPI PUSH1 0x0 DUP1 REVERT JUMPDEST DUP1 PUSH4 0x7CCD381D EQ PUSH2 0x7B6 JUMPI DUP1 PUSH4 0x7D8AFD0F EQ PUSH2 0x7D6 JUMPI DUP1 PUSH4 0x7EA63E2B EQ PUSH2 0x7F6 JUMPI PUSH1 0x0 DUP1 REVERT JUMPDEST DUP1 PUSH4 0x330BA7AD GT PUSH2 0x2D7 JUMPI DUP1 PUSH4 0x593E6FE4 GT PUSH2 0x26A JUMPI DUP1 PUSH4 0x674C02AA GT PUSH2 0x239 JUMPI DUP1 PUSH4 0x674C02AA EQ PUSH2 0x740 JUMPI DUP1 PUSH4 0x674F272A EQ PUSH2 0x761 JUMPI DUP1 PUSH4 0x70A08231 EQ PUSH2 0x781 JUMPI DUP1 PUSH4 0x715018A6 EQ PUSH2 0x7A1 JUMPI PUSH1 0x0 DUP1 REVERT JUMPDEST DUP1 PUSH4 0x593E6FE4 EQ PUSH2 0x6C6 JUMPI DUP1 PUSH4 0x5B9E3CCF EQ PUSH2 0x6E6 JUMPI DUP1 PUSH4 0x5C975ABB EQ PUSH2 0x706 JUMPI DUP1 PUSH4 0x6352211E EQ PUSH2 0x720 JUMPI PUSH1 0x0 DUP1 REVERT JUMPDEST DUP1 PUSH4 0x3CCFD60B GT PUSH2 0x2A6 JUMPI DUP1 PUSH4 0x3CCFD60B EQ PUSH2 0x65E JUMPI DUP1 PUSH4 0x42842E0E EQ PUSH2 0x666 JUMPI DUP1 PUSH4 0x55F804B3 EQ PUSH2 0x686 JUMPI DUP1 PUSH4 0x58211373 EQ PUSH2 0x6A6 JUMPI PUSH1 0x0 DUP1 REVERT JUMPDEST DUP1 PUSH4 0x330BA7AD EQ PUSH2 0x5DC JUMPI DUP1 PUSH4 0x35A55CAA EQ PUSH2 0x5FE JUMPI DUP1 PUSH4 0x36404FF9 EQ PUSH2 0x61E JUMPI DUP1 PUSH4 0x39516A26 EQ PUSH2 0x63E JUMPI PUSH1 0x0 DUP1 REVERT JUMPDEST DUP1 PUSH4 0x13FAEDE6 GT PUSH2 0x34F JUMPI DUP1 PUSH4 0x18160DDD GT PUSH2 0x31E JUMPI DUP1 PUSH4 0x18160DDD EQ PUSH2 0x560 JUMPI DUP1 PUSH4 0x18CAE269 EQ PUSH2 0x579 JUMPI DUP1 PUSH4 0x23B872DD EQ PUSH2 0x5A6 JUMPI DUP1 PUSH4 0x30B86627 EQ PUSH2 0x5C6 JUMPI PUSH1 0x0 DUP1 REVERT JUMPDEST DUP1 PUSH4 0x13FAEDE6 EQ PUSH2 0x4DC JUMPI DUP1 PUSH4 0x142B0FBE EQ PUSH2 0x500 JUMPI DUP1 PUSH4 0x176CD645 EQ PUSH2 0x520 JUMPI DUP1 PUSH4 0x17DC10C4 EQ PUSH2 0x540 JUMPI PUSH1 0x0 DUP1 REVERT JUMPDEST DUP1 PUSH4 0x6FDDE03 GT PUSH2 0x38B JUMPI DUP1 PUSH4 0x6FDDE03 EQ PUSH2 0x442 JUMPI DUP1 PUSH4 0x81812FC EQ PUSH2 0x464 JUMPI DUP1 PUSH4 0x9533E46 EQ PUSH2 0x49C JUMPI DUP1 PUSH4 0x95EA7B3 EQ PUSH2 0x4BC JUMPI PUSH1 0x0 DUP1 REVERT JUMPDEST DUP1 PUSH4 0x1FFC9A7 EQ PUSH2 0x3B2 JUMPI DUP1 PUSH4 0x2329A29 EQ PUSH2 0x3E7 JUMPI DUP1 PUSH4 0x5A3B809 EQ PUSH2 0x409 JUMPI JUMPDEST PUSH1 0x0 DUP1 REVERT JUMPDEST CALLVALUE DUP1 ISZERO PUSH2 0x3BE JUMPI PUSH1 0x0 DUP1 REVERT JUMPDEST POP PUSH2 0x3D2 PUSH2 0x3CD CALLDATASIZE PUSH1 0x4 PUSH2 0x27B4 JUMP JUMPDEST PUSH2 0xBA6 JUMP JUMPDEST PUSH1 0x40 MLOAD SWAP1 ISZERO ISZERO DUP2 MSTORE PUSH1 0x20 ADD JUMPDEST PUSH1 0x40 MLOAD DUP1 SWAP2 SUB SWAP1 RETURN JUMPDEST CALLVALUE DUP1 ISZERO PUSH2 0x3F3 JUMPI PUSH1 0x0 DUP1 REVERT JUMPDEST POP PUSH2 0x407 PUSH2 0x402 CALLDATASIZE PUSH1 0x4 PUSH2 0x2799 JUMP JUMPDEST PUSH2 0xBF8 JUMP JUMPDEST STOP JUMPDEST CALLVALUE DUP1 ISZERO PUSH2 0x415 JUMPI PUSH1 0x0 DUP1 REVERT JUMPDEST POP PUSH2 0x3D2 PUSH2 0x424 CALLDATASIZE PUSH1 0x4 PUSH2 0x25CA JUMP JUMPDEST PUSH1 0x1 PUSH1 0x1 PUSH1 0xA0 SHL SUB AND PUSH1 0x0 SWAP1 DUP2 MSTORE PUSH1 0x16 PUSH1 0x20 MSTORE PUSH1 0x40 SWAP1 KECCAK256 SLOAD PUSH1 0xFF AND SWAP1 JUMP JUMPDEST CALLVALUE DUP1 ISZERO PUSH2 0x44E JUMPI PUSH1 0x0 DUP1 REVERT JUMPDEST POP PUSH2 0x457 PUSH2 0xC13 JUMP JUMPDEST PUSH1 0x40 MLOAD PUSH2 0x3DE SWAP2 SWAP1 PUSH2 0x29C1 JUMP JUMPDEST CALLVALUE DUP1 ISZERO PUSH2 0x470 JUMPI PUSH1 0x0 DUP1 REVERT JUMPDEST POP PUSH2 0x484 PUSH2 0x47F CALLDATASIZE PUSH1 0x4 PUSH2 0x2837 JUMP JUMPDEST PUSH2 0xCA5 JUMP JUMPDEST PUSH1 0x40 MLOAD PUSH1 0x1 PUSH1 0x1 PUSH1 0xA0 SHL SUB SWAP1 SWAP2 AND DUP2 MSTORE PUSH1 0x20 ADD PUSH2 0x3DE JUMP JUMPDEST CALLVALUE DUP1 ISZERO PUSH2 0x4A8 JUMPI PUSH1 0x0 DUP1 REVERT JUMPDEST POP PUSH2 0x3D2 PUSH2 0x4B7 CALLDATASIZE PUSH1 0x4 PUSH2 0x2837 JUMP JUMPDEST PUSH2 0xCE9 JUMP JUMPDEST CALLVALUE DUP1 ISZERO PUSH2 0x4C8 JUMPI PUSH1 0x0 DUP1 REVERT JUMPDEST POP PUSH2 0x407 PUSH2 0x4D7 CALLDATASIZE PUSH1 0x4 PUSH2 0x26FA JUMP JUMPDEST PUSH2 0xD25 JUMP JUMPDEST CALLVALUE DUP1 ISZERO PUSH2 0x4E8 JUMPI PUSH1 0x0 DUP1 REVERT JUMPDEST POP PUSH2 0x4F2 PUSH1 0x11 SLOAD DUP2 JUMP JUMPDEST PUSH1 0x40 MLOAD SWAP1 DUP2 MSTORE PUSH1 0x20 ADD PUSH2 0x3DE JUMP JUMPDEST CALLVALUE DUP1 ISZERO PUSH2 0x50C JUMPI PUSH1 0x0 DUP1 REVERT JUMPDEST POP PUSH2 0x407 PUSH2 0x51B CALLDATASIZE PUSH1 0x4 PUSH2 0x2724 JUMP JUMPDEST PUSH2 0xDC5 JUMP JUMPDEST CALLVALUE DUP1 ISZERO PUSH2 0x52C JUMPI PUSH1 0x0 DUP1 REVERT JUMPDEST POP PUSH2 0x407 PUSH2 0x53B CALLDATASIZE PUSH1 0x4 PUSH2 0x2837 JUMP JUMPDEST PUSH2 0xE44 JUMP JUMPDEST CALLVALUE DUP1 ISZERO PUSH2 0x54C JUMPI PUSH1 0x0 DUP1 REVERT JUMPDEST POP PUSH2 0x407 PUSH2 0x55B CALLDATASIZE PUSH1 0x4 PUSH2 0x2799 JUMP JUMPDEST PUSH2 0xF17 JUMP JUMPDEST CALLVALUE DUP1 ISZERO PUSH2 0x56C JUMPI PUSH1 0x0 DUP1 REVERT JUMPDEST POP PUSH1 0x2 SLOAD PUSH1 0x1 SLOAD SUB PUSH2 0x4F2 JUMP JUMPDEST CALLVALUE DUP1 ISZERO PUSH2 0x585 JUMPI PUSH1 0x0 DUP1 REVERT JUMPDEST POP PUSH2 0x4F2 PUSH2 0x594 CALLDATASIZE PUSH1 0x4 PUSH2 0x25CA JUMP JUMPDEST PUSH1 0x17 PUSH1 0x20 MSTORE PUSH1 0x0 SWAP1 DUP2 MSTORE PUSH1 0x40 SWAP1 KECCAK256 SLOAD DUP2 JUMP JUMPDEST CALLVALUE DUP1 ISZERO PUSH2 0x5B2 JUMPI PUSH1 0x0 DUP1 REVERT JUMPDEST POP PUSH2 0x407 PUSH2 0x5C1 CALLDATASIZE PUSH1 0x4 PUSH2 0x2618 JUMP JUMPDEST PUSH2 0xF40 JUMP JUMPDEST CALLVALUE DUP1 ISZERO PUSH2 0x5D2 JUMPI PUSH1 0x0 DUP1 REVERT JUMPDEST POP PUSH2 0x4F2 PUSH1 0x13 SLOAD DUP2 JUMP JUMPDEST CALLVALUE DUP1 ISZERO PUSH2 0x5E8 JUMPI PUSH1 0x0 DUP1 REVERT JUMPDEST POP PUSH1 0x15 SLOAD PUSH2 0x3D2 SWAP1 PUSH5 0x100000000 SWAP1 DIV PUSH1 0xFF AND DUP2 JUMP JUMPDEST CALLVALUE DUP1 ISZERO PUSH2 0x60A JUMPI PUSH1 0x0 DUP1 REVERT JUMPDEST POP PUSH2 0x3D2 PUSH2 0x619 CALLDATASIZE PUSH1 0x4 PUSH2 0x2837 JUMP JUMPDEST PUSH2 0x10D1 JUMP JUMPDEST CALLVALUE DUP1 ISZERO PUSH2 0x62A JUMPI PUSH1 0x0 DUP1 REVERT JUMPDEST POP PUSH2 0x407 PUSH2 0x639 CALLDATASIZE PUSH1 0x4 PUSH2 0x27EE JUMP JUMPDEST PUSH2 0x10E6 JUMP JUMPDEST CALLVALUE DUP1 ISZERO PUSH2 0x64A JUMPI PUSH1 0x0 DUP1 REVERT JUMPDEST POP PUSH1 0x15 SLOAD PUSH2 0x3D2 SWAP1 PUSH3 0x10000 SWAP1 DIV PUSH1 0xFF AND DUP2 JUMP JUMPDEST PUSH2 0x407 PUSH2 0x1105 JUMP JUMPDEST CALLVALUE DUP1 ISZERO PUSH2 0x672 JUMPI PUSH1 0x0 DUP1 REVERT JUMPDEST POP PUSH2 0x407 PUSH2 0x681 CALLDATASIZE PUSH1 0x4 PUSH2 0x2618 JUMP JUMPDEST PUSH2 0x114A JUMP JUMPDEST CALLVALUE DUP1 ISZERO PUSH2 0x692 JUMPI PUSH1 0x0 DUP1 REVERT JUMPDEST POP PUSH2 0x407 PUSH2 0x6A1 CALLDATASIZE PUSH1 0x4 PUSH2 0x27EE JUMP JUMPDEST PUSH2 0x1165 JUMP JUMPDEST CALLVALUE DUP1 ISZERO PUSH2 0x6B2 JUMPI PUSH1 0x0 DUP1 REVERT JUMPDEST POP PUSH2 0x3D2 PUSH2 0x6C1 CALLDATASIZE PUSH1 0x4 PUSH2 0x2837 JUMP JUMPDEST PUSH2 0x1180 JUMP JUMPDEST CALLVALUE DUP1 ISZERO PUSH2 0x6D2 JUMPI PUSH1 0x0 DUP1 REVERT JUMPDEST POP PUSH2 0x3D2 PUSH2 0x6E1 CALLDATASIZE PUSH1 0x4 PUSH2 0x2837 JUMP JUMPDEST PUSH2 0x1195 JUMP JUMPDEST CALLVALUE DUP1 ISZERO PUSH2 0x6F2 JUMPI PUSH1 0x0 DUP1 REVERT JUMPDEST POP PUSH2 0x407 PUSH2 0x701 CALLDATASIZE PUSH1 0x4 PUSH2 0x2724 JUMP JUMPDEST PUSH2 0x11AA JUMP JUMPDEST CALLVALUE DUP1 ISZERO PUSH2 0x712 JUMPI PUSH1 0x0 DUP1 REVERT JUMPDEST POP PUSH1 0x15 SLOAD PUSH2 0x3D2 SWAP1 PUSH1 0xFF AND DUP2 JUMP JUMPDEST CALLVALUE DUP1 ISZERO PUSH2 0x72C JUMPI PUSH1 0x0 DUP1 REVERT JUMPDEST POP PUSH2 0x484 PUSH2 0x73B CALLDATASIZE PUSH1 0x4 PUSH2 0x2837 JUMP JUMPDEST PUSH2 0x1224 JUMP JUMPDEST CALLVALUE DUP1 ISZERO PUSH2 0x74C JUMPI PUSH1 0x0 DUP1 REVERT JUMPDEST POP PUSH1 0x15 SLOAD PUSH2 0x3D2 SWAP1 PUSH1 0x1 PUSH1 0x30 SHL SWAP1 DIV PUSH1 0xFF AND DUP2 JUMP JUMPDEST CALLVALUE DUP1 ISZERO PUSH2 0x76D JUMPI PUSH1 0x0 DUP1 REVERT JUMPDEST POP PUSH2 0x407 PUSH2 0x77C CALLDATASIZE PUSH1 0x4 PUSH2 0x2799 JUMP JUMPDEST PUSH2 0x122F JUMP JUMPDEST CALLVALUE DUP1 ISZERO PUSH2 0x78D JUMPI PUSH1 0x0 DUP1 REVERT JUMPDEST POP PUSH2 0x4F2 PUSH2 0x79C CALLDATASIZE PUSH1 0x4 PUSH2 0x25CA JUMP JUMPDEST PUSH2 0x1255 JUMP JUMPDEST CALLVALUE DUP1 ISZERO PUSH2 0x7AD JUMPI PUSH1 0x0 DUP1 REVERT JUMPDEST POP PUSH2 0x407 PUSH2 0x12A4 JUMP JUMPDEST CALLVALUE DUP1 ISZERO PUSH2 0x7C2 JUMPI PUSH1 0x0 DUP1 REVERT JUMPDEST POP PUSH2 0x407 PUSH2 0x7D1 CALLDATASIZE PUSH1 0x4 PUSH2 0x2837 JUMP JUMPDEST PUSH2 0x12B8 JUMP JUMPDEST CALLVALUE DUP1 ISZERO PUSH2 0x7E2 JUMPI PUSH1 0x0 DUP1 REVERT JUMPDEST POP PUSH2 0x407 PUSH2 0x7F1 CALLDATASIZE PUSH1 0x4 PUSH2 0x27EE JUMP JUMPDEST PUSH2 0x1356 JUMP JUMPDEST CALLVALUE DUP1 ISZERO PUSH2 0x802 JUMPI PUSH1 0x0 DUP1 REVERT JUMPDEST POP PUSH2 0x407 PUSH2 0x811 CALLDATASIZE PUSH1 0x4 PUSH2 0x27EE JUMP JUMPDEST PUSH2 0x1371 JUMP JUMPDEST CALLVALUE DUP1 ISZERO PUSH2 0x822 JUMPI PUSH1 0x0 DUP1 REVERT JUMPDEST POP PUSH1 0x15 SLOAD PUSH2 0x3D2 SWAP1 PUSH6 0x10000000000 SWAP1 DIV PUSH1 0xFF AND DUP2 JUMP JUMPDEST CALLVALUE DUP1 ISZERO PUSH2 0x845 JUMPI PUSH1 0x0 DUP1 REVERT JUMPDEST POP PUSH1 0x15 SLOAD PUSH2 0x3D2 SWAP1 PUSH4 0x1000000 SWAP1 DIV PUSH1 0xFF AND DUP2 JUMP JUMPDEST CALLVALUE DUP1 ISZERO PUSH2 0x866 JUMPI PUSH1 0x0 DUP1 REVERT JUMPDEST POP PUSH2 0x3D2 PUSH2 0x875 CALLDATASIZE PUSH1 0x4 PUSH2 0x2837 JUMP JUMPDEST PUSH2 0x138C JUMP JUMPDEST CALLVALUE DUP1 ISZERO PUSH2 0x886 JUMPI PUSH1 0x0 DUP1 REVERT JUMPDEST POP PUSH1 0x0 SLOAD PUSH1 0x1 PUSH1 0x1 PUSH1 0xA0 SHL SUB AND PUSH2 0x484 JUMP JUMPDEST CALLVALUE DUP1 ISZERO PUSH2 0x8A4 JUMPI PUSH1 0x0 DUP1 REVERT JUMPDEST POP PUSH2 0x407 PUSH2 0x8B3 CALLDATASIZE PUSH1 0x4 PUSH2 0x2799 JUMP JUMPDEST PUSH2 0x13A1 JUMP JUMPDEST CALLVALUE DUP1 ISZERO PUSH2 0x8C4 JUMPI PUSH1 0x0 DUP1 REVERT JUMPDEST POP PUSH2 0x457 PUSH2 0x13CB JUMP JUMPDEST CALLVALUE DUP1 ISZERO PUSH2 0x8D9 JUMPI PUSH1 0x0 DUP1 REVERT JUMPDEST POP PUSH2 0x407 PUSH2 0x8E8 CALLDATASIZE PUSH1 0x4 PUSH2 0x2799 JUMP JUMPDEST PUSH2 0x13DA JUMP JUMPDEST CALLVALUE DUP1 ISZERO PUSH2 0x8F9 JUMPI PUSH1 0x0 DUP1 REVERT JUMPDEST POP PUSH2 0x407 PUSH2 0x908 CALLDATASIZE PUSH1 0x4 PUSH2 0x2837 JUMP JUMPDEST PUSH2 0x1402 JUMP JUMPDEST PUSH2 0x407 PUSH2 0x91B CALLDATASIZE PUSH1 0x4 PUSH2 0x2837 JUMP JUMPDEST PUSH2 0x1526 JUMP JUMPDEST CALLVALUE DUP1 ISZERO PUSH2 0x92C JUMPI PUSH1 0x0 DUP1 REVERT JUMPDEST POP PUSH2 0x407 PUSH2 0x93B CALLDATASIZE PUSH1 0x4 PUSH2 0x26D0 JUMP JUMPDEST PUSH2 0x18E1 JUMP JUMPDEST CALLVALUE DUP1 ISZERO PUSH2 0x94C JUMPI PUSH1 0x0 DUP1 REVERT JUMPDEST POP PUSH2 0x3D2 PUSH2 0x95B CALLDATASIZE PUSH1 0x4 PUSH2 0x25CA JUMP JUMPDEST PUSH1 0x16 PUSH1 0x20 MSTORE PUSH1 0x0 SWAP1 DUP2 MSTORE PUSH1 0x40 SWAP1 KECCAK256 SLOAD PUSH1 0xFF AND DUP2 JUMP JUMPDEST CALLVALUE DUP1 ISZERO PUSH2 0x97C JUMPI PUSH1 0x0 DUP1 REVERT JUMPDEST POP PUSH2 0x4F2 PUSH1 0x14 SLOAD DUP2 JUMP JUMPDEST CALLVALUE DUP1 ISZERO PUSH2 0x992 JUMPI PUSH1 0x0 DUP1 REVERT JUMPDEST POP PUSH2 0x407 PUSH2 0x9A1 CALLDATASIZE PUSH1 0x4 PUSH2 0x27EE JUMP JUMPDEST PUSH2 0x194D JUMP JUMPDEST CALLVALUE DUP1 ISZERO PUSH2 0x9B2 JUMPI PUSH1 0x0 DUP1 REVERT JUMPDEST POP PUSH2 0x407 PUSH2 0x9C1 CALLDATASIZE PUSH1 0x4 PUSH2 0x2654 JUMP JUMPDEST PUSH2 0x1968 JUMP JUMPDEST CALLVALUE DUP1 ISZERO PUSH2 0x9D2 JUMPI PUSH1 0x0 DUP1 REVERT JUMPDEST POP PUSH2 0x407 PUSH2 0x9E1 CALLDATASIZE PUSH1 0x4 PUSH2 0x2837 JUMP JUMPDEST PUSH2 0x19B2 JUMP JUMPDEST CALLVALUE DUP1 ISZERO PUSH2 0x9F2 JUMPI PUSH1 0x0 DUP1 REVERT JUMPDEST POP PUSH2 0x457 PUSH2 0x19BF JUMP JUMPDEST CALLVALUE DUP1 ISZERO PUSH2 0xA07 JUMPI PUSH1 0x0 DUP1 REVERT JUMPDEST POP PUSH2 0x457 PUSH2 0xA16 CALLDATASIZE PUSH1 0x4 PUSH2 0x2837 JUMP JUMPDEST PUSH2 0x1A4D JUMP JUMPDEST CALLVALUE DUP1 ISZERO PUSH2 0xA27 JUMPI PUSH1 0x0 DUP1 REVERT JUMPDEST POP PUSH2 0x407 PUSH2 0xA36 CALLDATASIZE PUSH1 0x4 PUSH2 0x27EE JUMP JUMPDEST PUSH2 0x1C88 JUMP JUMPDEST CALLVALUE DUP1 ISZERO PUSH2 0xA47 JUMPI PUSH1 0x0 DUP1 REVERT JUMPDEST POP PUSH2 0xA5B PUSH2 0xA56 CALLDATASIZE PUSH1 0x4 PUSH2 0x25CA JUMP JUMPDEST PUSH2 0x1CA3 JUMP JUMPDEST PUSH1 0x40 MLOAD PUSH2 0x3DE SWAP2 SWAP1 PUSH2 0x297D JUMP JUMPDEST CALLVALUE DUP1 ISZERO PUSH2 0xA74 JUMPI PUSH1 0x0 DUP1 REVERT JUMPDEST POP PUSH1 0x15 SLOAD PUSH2 0x3D2 SWAP1 PUSH2 0x100 SWAP1 DIV PUSH1 0xFF AND DUP2 JUMP JUMPDEST CALLVALUE DUP1 ISZERO PUSH2 0xA93 JUMPI PUSH1 0x0 DUP1 REVERT JUMPDEST POP PUSH2 0x4F2 PUSH1 0x12 SLOAD DUP2 JUMP JUMPDEST CALLVALUE DUP1 ISZERO PUSH2 0xAA9 JUMPI PUSH1 0x0 DUP1 REVERT JUMPDEST POP PUSH2 0x407 PUSH2 0xAB8 CALLDATASIZE PUSH1 0x4 PUSH2 0x27EE JUMP JUMPDEST PUSH2 0x1D7B JUMP JUMPDEST CALLVALUE DUP1 ISZERO PUSH2 0xAC9 JUMPI PUSH1 0x0 DUP1 REVERT JUMPDEST POP PUSH2 0x3D2 PUSH2 0xAD8 CALLDATASIZE PUSH1 0x4 PUSH2 0x25E5 JUMP JUMPDEST PUSH1 0x1 PUSH1 0x1 PUSH1 0xA0 SHL SUB SWAP2 DUP3 AND PUSH1 0x0 SWAP1 DUP2 MSTORE PUSH1 0x8 PUSH1 0x20 SWAP1 DUP2 MSTORE PUSH1 0x40 DUP1 DUP4 KECCAK256 SWAP4 SWAP1 SWAP5 AND DUP3 MSTORE SWAP2 SWAP1 SWAP2 MSTORE KECCAK256 SLOAD PUSH1 0xFF AND SWAP1 JUMP JUMPDEST CALLVALUE DUP1 ISZERO PUSH2 0xB12 JUMPI PUSH1 0x0 DUP1 REVERT JUMPDEST POP PUSH2 0x407 PUSH2 0xB21 CALLDATASIZE PUSH1 0x4 PUSH2 0x2837 JUMP JUMPDEST PUSH2 0x1D96 JUMP JUMPDEST CALLVALUE DUP1 ISZERO PUSH2 0xB32 JUMPI PUSH1 0x0 DUP1 REVERT JUMPDEST POP PUSH2 0x407 PUSH2 0xB41 CALLDATASIZE PUSH1 0x4 PUSH2 0x2799 JUMP JUMPDEST PUSH2 0x1E34 JUMP JUMPDEST CALLVALUE DUP1 ISZERO PUSH2 0xB52 JUMPI PUSH1 0x0 DUP1 REVERT JUMPDEST POP PUSH2 0x407 PUSH2 0xB61 CALLDATASIZE PUSH1 0x4 PUSH2 0x25CA JUMP JUMPDEST PUSH2 0x1E56 JUMP JUMPDEST CALLVALUE DUP1 ISZERO PUSH2 0xB72 JUMPI PUSH1 0x0 DUP1 REVERT JUMPDEST POP PUSH2 0x407 PUSH2 0xB81 CALLDATASIZE PUSH1 0x4 PUSH2 0x2799 JUMP JUMPDEST PUSH2 0x1ECC JUMP JUMPDEST CALLVALUE DUP1 ISZERO PUSH2 0xB92 JUMPI PUSH1 0x0 DUP1 REVERT JUMPDEST POP PUSH2 0x407 PUSH2 0xBA1 CALLDATASIZE PUSH1 0x4 PUSH2 0x2837 JUMP JUMPDEST PUSH2 0x1EF0 JUMP JUMPDEST PUSH1 0x0 PUSH4 0x1FFC9A7 PUSH1 0xE0 SHL PUSH1 0x1 PUSH1 0x1 PUSH1 0xE0 SHL SUB NOT DUP4 AND EQ DUP1 PUSH2 0xBD7 JUMPI POP PUSH4 0x80AC58CD PUSH1 0xE0 SHL PUSH1 0x1 PUSH1 0x1 PUSH1 0xE0 SHL SUB NOT DUP4 AND EQ JUMPDEST DUP1 PUSH2 0xBF2 JUMPI POP PUSH4 0x5B5E139F PUSH1 0xE0 SHL PUSH1 0x1 PUSH1 0x1 PUSH1 0xE0 SHL SUB NOT DUP4 AND EQ JUMPDEST SWAP3 SWAP2 POP POP JUMP JUMPDEST PUSH2 0xC00 PUSH2 0x1F8E JUMP JUMPDEST PUSH1 0x15 DUP1 SLOAD PUSH1 0xFF NOT AND SWAP2 ISZERO ISZERO SWAP2 SWAP1 SWAP2 OR SWAP1 SSTORE JUMP JUMPDEST PUSH1 0x60 PUSH1 0x3 DUP1 SLOAD PUSH2 0xC22 SWAP1 PUSH2 0x2A8C JUMP JUMPDEST DUP1 PUSH1 0x1F ADD PUSH1 0x20 DUP1 SWAP2 DIV MUL PUSH1 0x20 ADD PUSH1 0x40 MLOAD SWAP1 DUP2 ADD PUSH1 0x40 MSTORE DUP1 SWAP3 SWAP2 SWAP1 DUP2 DUP2 MSTORE PUSH1 0x20 ADD DUP3 DUP1 SLOAD PUSH2 0xC4E SWAP1 PUSH2 0x2A8C JUMP JUMPDEST DUP1 ISZERO PUSH2 0xC9B JUMPI DUP1 PUSH1 0x1F LT PUSH2 0xC70 JUMPI PUSH2 0x100 DUP1 DUP4 SLOAD DIV MUL DUP4 MSTORE SWAP2 PUSH1 0x20 ADD SWAP2 PUSH2 0xC9B JUMP JUMPDEST DUP3 ADD SWAP2 SWAP1 PUSH1 0x0 MSTORE PUSH1 0x20 PUSH1 0x0 KECCAK256 SWAP1 JUMPDEST DUP2 SLOAD DUP2 MSTORE SWAP1 PUSH1 0x1 ADD SWAP1 PUSH1 0x20 ADD DUP1 DUP4 GT PUSH2 0xC7E JUMPI DUP3 SWAP1 SUB PUSH1 0x1F AND DUP3 ADD SWAP2 JUMPDEST POP POP POP POP POP SWAP1 POP SWAP1 JUMP JUMPDEST PUSH1 0x0 PUSH2 0xCB0 DUP3 PUSH2 0x1FE8 JUMP JUMPDEST PUSH2 0xCCD JUMPI PUSH1 0x40 MLOAD PUSH4 0x33D1C039 PUSH1 0xE2 SHL DUP2 MSTORE PUSH1 0x4 ADD PUSH1 0x40 MLOAD DUP1 SWAP2 SUB SWAP1 REVERT JUMPDEST POP PUSH1 0x0 SWAP1 DUP2 MSTORE PUSH1 0x7 PUSH1 0x20 MSTORE PUSH1 0x40 SWAP1 KECCAK256 SLOAD PUSH1 0x1 PUSH1 0x1 PUSH1 0xA0 SHL SUB AND SWAP1 JUMP JUMPDEST PUSH1 0x0 PUSH1 0x1A DUP3 DUP2 SLOAD DUP2 LT PUSH2 0xCFE JUMPI PUSH2 0xCFE PUSH2 0x2B22 JUMP JUMPDEST SWAP1 PUSH1 0x0 MSTORE PUSH1 0x20 PUSH1 0x0 KECCAK256 SWAP1 PUSH1 0x20 SWAP2 DUP3 DUP3 DIV ADD SWAP2 SWAP1 MOD SWAP1 SLOAD SWAP1 PUSH2 0x100 EXP SWAP1 DIV PUSH1 0xFF AND SWAP1 POP SWAP2 SWAP1 POP JUMP JUMPDEST PUSH1 0x0 PUSH2 0xD30 DUP3 PUSH2 0x1224 JUMP JUMPDEST SWAP1 POP CALLER PUSH1 0x1 PUSH1 0x1 PUSH1 0xA0 SHL SUB DUP3 AND EQ PUSH2 0xD69 JUMPI PUSH2 0xD4C DUP2 CALLER PUSH2 0xAD8 JUMP JUMPDEST PUSH2 0xD69 JUMPI PUSH1 0x40 MLOAD PUSH4 0x67D9DCA1 PUSH1 0xE1 SHL DUP2 MSTORE PUSH1 0x4 ADD PUSH1 0x40 MLOAD DUP1 SWAP2 SUB SWAP1 REVERT JUMPDEST PUSH1 0x0 DUP3 DUP2 MSTORE PUSH1 0x7 PUSH1 0x20 MSTORE PUSH1 0x40 DUP1 DUP3 KECCAK256 DUP1 SLOAD PUSH1 0x1 PUSH1 0x1 PUSH1 0xA0 SHL SUB NOT AND PUSH1 0x1 PUSH1 0x1 PUSH1 0xA0 SHL SUB DUP8 DUP2 AND SWAP2 DUP3 OR SWAP1 SWAP3 SSTORE SWAP2 MLOAD DUP6 SWAP4 SWAP2 DUP6 AND SWAP2 PUSH32 0x8C5BE1E5EBEC7D5BD14F71427D1E84F3DD0314C0F7B2291E5B200AC8C7C3B925 SWAP2 LOG4 POP POP POP JUMP JUMPDEST PUSH2 0xDCD PUSH2 0x1F8E JUMP JUMPDEST PUSH1 0x0 JUMPDEST DUP2 DUP2 LT ISZERO PUSH2 0xE3F JUMPI PUSH1 0x0 PUSH1 0x16 PUSH1 0x0 DUP6 DUP6 DUP6 DUP2 DUP2 LT PUSH2 0xDF0 JUMPI PUSH2 0xDF0 PUSH2 0x2B22 JUMP JUMPDEST SWAP1 POP PUSH1 0x20 MUL ADD PUSH1 0x20 DUP2 ADD SWAP1 PUSH2 0xE05 SWAP2 SWAP1 PUSH2 0x25CA JUMP JUMPDEST PUSH1 0x1 PUSH1 0x1 PUSH1 0xA0 SHL SUB AND DUP2 MSTORE PUSH1 0x20 DUP2 ADD SWAP2 SWAP1 SWAP2 MSTORE PUSH1 0x40 ADD PUSH1 0x0 KECCAK256 DUP1 SLOAD PUSH1 0xFF NOT AND SWAP2 ISZERO ISZERO SWAP2 SWAP1 SWAP2 OR SWAP1 SSTORE DUP1 PUSH2 0xE37 DUP2 PUSH2 0x2AC7 JUMP JUMPDEST SWAP2 POP POP PUSH2 0xDD0 JUMP JUMPDEST POP POP POP JUMP JUMPDEST CALLER PUSH2 0xE4E DUP3 PUSH2 0x1224 JUMP JUMPDEST PUSH1 0x1 PUSH1 0x1 PUSH1 0xA0 SHL SUB AND EQ PUSH2 0xE61 JUMPI PUSH1 0x0 DUP1 REVERT JUMPDEST PUSH1 0x15 SLOAD PUSH2 0x100 SWAP1 DIV PUSH1 0xFF AND ISZERO PUSH2 0xE76 JUMPI PUSH1 0x0 DUP1 REVERT JUMPDEST PUSH1 0x1B DUP2 DUP2 SLOAD DUP2 LT PUSH2 0xE89 JUMPI PUSH2 0xE89 PUSH2 0x2B22 JUMP JUMPDEST SWAP1 PUSH1 0x0 MSTORE PUSH1 0x20 PUSH1 0x0 KECCAK256 SWAP1 PUSH1 0x20 SWAP2 DUP3 DUP3 DIV ADD SWAP2 SWAP1 MOD SWAP1 SLOAD SWAP1 PUSH2 0x100 EXP SWAP1 DIV PUSH1 0xFF AND ISZERO ISZERO PUSH1 0x1 ISZERO ISZERO EQ ISZERO PUSH2 0xED6 JUMPI PUSH1 0x40 MLOAD PUSH3 0x461BCD PUSH1 0xE5 SHL DUP2 MSTORE PUSH1 0x4 ADD PUSH2 0xECD SWAP1 PUSH2 0x29D4 JUMP JUMPDEST PUSH1 0x40 MLOAD DUP1 SWAP2 SUB SWAP1 REVERT JUMPDEST PUSH1 0x1 PUSH1 0x1B DUP3 DUP2 SLOAD DUP2 LT PUSH2 0xEEB JUMPI PUSH2 0xEEB PUSH2 0x2B22 JUMP JUMPDEST SWAP1 PUSH1 0x0 MSTORE PUSH1 0x20 PUSH1 0x0 KECCAK256 SWAP1 PUSH1 0x20 SWAP2 DUP3 DUP3 DIV ADD SWAP2 SWAP1 MOD PUSH2 0x100 EXP DUP2 SLOAD DUP2 PUSH1 0xFF MUL NOT AND SWAP1 DUP4 ISZERO ISZERO MUL OR SWAP1 SSTORE POP POP JUMP JUMPDEST PUSH2 0xF1F PUSH2 0x1F8E JUMP JUMPDEST PUSH1 0x15 DUP1 SLOAD SWAP2 ISZERO ISZERO PUSH1 0x1 PUSH1 0x30 SHL MUL PUSH7 0xFF000000000000 NOT SWAP1 SWAP3 AND SWAP2 SWAP1 SWAP2 OR SWAP1 SSTORE JUMP JUMPDEST PUSH1 0x0 PUSH2 0xF4B DUP3 PUSH2 0x2010 JUMP JUMPDEST SWAP1 POP DUP4 PUSH1 0x1 PUSH1 0x1 PUSH1 0xA0 SHL SUB AND DUP2 PUSH1 0x1 PUSH1 0x1 PUSH1 0xA0 SHL SUB AND EQ PUSH2 0xF7E JUMPI PUSH1 0x40 MLOAD PUSH3 0xA11481 PUSH1 0xE8 SHL DUP2 MSTORE PUSH1 0x4 ADD PUSH1 0x40 MLOAD DUP1 SWAP2 SUB SWAP1 REVERT JUMPDEST PUSH1 0x0 DUP3 DUP2 MSTORE PUSH1 0x7 PUSH1 0x20 MSTORE PUSH1 0x40 SWAP1 KECCAK256 DUP1 SLOAD CALLER DUP1 DUP3 EQ PUSH1 0x1 PUSH1 0x1 PUSH1 0xA0 SHL SUB DUP9 AND SWAP1 SWAP2 EQ OR PUSH2 0xFCB JUMPI PUSH2 0xFAE DUP7 CALLER PUSH2 0xAD8 JUMP JUMPDEST PUSH2 0xFCB JUMPI PUSH1 0x40 MLOAD PUSH4 0x2CE44B5F PUSH1 0xE1 SHL DUP2 MSTORE PUSH1 0x4 ADD PUSH1 0x40 MLOAD DUP1 SWAP2 SUB SWAP1 REVERT JUMPDEST PUSH1 0x1 PUSH1 0x1 PUSH1 0xA0 SHL SUB DUP6 AND PUSH2 0xFF2 JUMPI PUSH1 0x40 MLOAD PUSH4 0x3A954ECD PUSH1 0xE2 SHL DUP2 MSTORE PUSH1 0x4 ADD PUSH1 0x40 MLOAD DUP1 SWAP2 SUB SWAP1 REVERT JUMPDEST DUP1 ISZERO PUSH2 0xFFD JUMPI PUSH1 0x0 DUP3 SSTORE JUMPDEST PUSH1 0x1 PUSH1 0x1 PUSH1 0xA0 SHL SUB DUP7 DUP2 AND PUSH1 0x0 SWAP1 DUP2 MSTORE PUSH1 0x6 PUSH1 0x20 MSTORE PUSH1 0x40 DUP1 DUP3 KECCAK256 DUP1 SLOAD PUSH1 0x0 NOT ADD SWAP1 SSTORE SWAP2 DUP8 AND DUP1 DUP3 MSTORE SWAP2 SWAP1 KECCAK256 DUP1 SLOAD PUSH1 0x1 ADD SWAP1 SSTORE TIMESTAMP PUSH1 0xA0 SHL OR PUSH1 0x1 PUSH1 0xE1 SHL OR PUSH1 0x0 DUP6 DUP2 MSTORE PUSH1 0x5 PUSH1 0x20 MSTORE PUSH1 0x40 SWAP1 KECCAK256 SSTORE PUSH1 0x1 PUSH1 0xE1 SHL DUP4 AND PUSH2 0x1088 JUMPI PUSH1 0x1 DUP5 ADD PUSH1 0x0 DUP2 DUP2 MSTORE PUSH1 0x5 PUSH1 0x20 MSTORE PUSH1 0x40 SWAP1 KECCAK256 SLOAD PUSH2 0x1086 JUMPI PUSH1 0x1 SLOAD DUP2 EQ PUSH2 0x1086 JUMPI PUSH1 0x0 DUP2 DUP2 MSTORE PUSH1 0x5 PUSH1 0x20 MSTORE PUSH1 0x40 SWAP1 KECCAK256 DUP5 SWAP1 SSTORE JUMPDEST POP JUMPDEST DUP4 DUP6 PUSH1 0x1 PUSH1 0x1 PUSH1 0xA0 SHL SUB AND DUP8 PUSH1 0x1 PUSH1 0x1 PUSH1 0xA0 SHL SUB AND PUSH32 0xDDF252AD1BE2C89B69C2B068FC378DAA952BA7F163C4A11628F55A4DF523B3EF PUSH1 0x40 MLOAD PUSH1 0x40 MLOAD DUP1 SWAP2 SUB SWAP1 LOG4 POP POP POP POP POP POP JUMP JUMPDEST PUSH1 0x0 PUSH1 0x18 DUP3 DUP2 SLOAD DUP2 LT PUSH2 0xCFE JUMPI PUSH2 0xCFE PUSH2 0x2B22 JUMP JUMPDEST PUSH2 0x10EE PUSH2 0x1F8E JUMP JUMPDEST DUP1 MLOAD PUSH2 0x1101 SWAP1 PUSH1 0xC SWAP1 PUSH1 0x20 DUP5 ADD SWAP1 PUSH2 0x248F JUMP JUMPDEST POP POP JUMP JUMPDEST PUSH2 0x110D PUSH2 0x1F8E JUMP JUMPDEST PUSH1 0x0 DUP1 SLOAD PUSH1 0x40 MLOAD PUSH1 0x1 PUSH1 0x1 PUSH1 0xA0 SHL SUB SWAP1 SWAP2 AND SWAP2 SELFBALANCE DUP1 ISZERO PUSH2 0x8FC MUL SWAP3 SWAP1 SWAP2 DUP2 DUP2 DUP2 DUP6 DUP9 DUP9 CALL SWAP4 POP POP POP POP ISZERO DUP1 ISZERO PUSH2 0x1147 JUMPI RETURNDATASIZE PUSH1 0x0 DUP1 RETURNDATACOPY RETURNDATASIZE PUSH1 0x0 REVERT JUMPDEST POP JUMP JUMPDEST PUSH2 0xE3F DUP4 DUP4 DUP4 PUSH1 0x40 MLOAD DUP1 PUSH1 0x20 ADD PUSH1 0x40 MSTORE DUP1 PUSH1 0x0 DUP2 MSTORE POP PUSH2 0x1968 JUMP JUMPDEST PUSH2 0x116D PUSH2 0x1F8E JUMP JUMPDEST DUP1 MLOAD PUSH2 0x1101 SWAP1 PUSH1 0xA SWAP1 PUSH1 0x20 DUP5 ADD SWAP1 PUSH2 0x248F JUMP JUMPDEST PUSH1 0x0 PUSH1 0x19 DUP3 DUP2 SLOAD DUP2 LT PUSH2 0xCFE JUMPI PUSH2 0xCFE PUSH2 0x2B22 JUMP JUMPDEST PUSH1 0x0 PUSH1 0x1B DUP3 DUP2 SLOAD DUP2 LT PUSH2 0xCFE JUMPI PUSH2 0xCFE PUSH2 0x2B22 JUMP JUMPDEST PUSH2 0x11B2 PUSH2 0x1F8E JUMP JUMPDEST PUSH1 0x0 JUMPDEST DUP2 DUP2 LT ISZERO PUSH2 0xE3F JUMPI PUSH1 0x1 PUSH1 0x16 PUSH1 0x0 DUP6 DUP6 DUP6 DUP2 DUP2 LT PUSH2 0x11D5 JUMPI PUSH2 0x11D5 PUSH2 0x2B22 JUMP JUMPDEST SWAP1 POP PUSH1 0x20 MUL ADD PUSH1 0x20 DUP2 ADD SWAP1 PUSH2 0x11EA SWAP2 SWAP1 PUSH2 0x25CA JUMP JUMPDEST PUSH1 0x1 PUSH1 0x1 PUSH1 0xA0 SHL SUB AND DUP2 MSTORE PUSH1 0x20 DUP2 ADD SWAP2 SWAP1 SWAP2 MSTORE PUSH1 0x40 ADD PUSH1 0x0 KECCAK256 DUP1 SLOAD PUSH1 0xFF NOT AND SWAP2 ISZERO ISZERO SWAP2 SWAP1 SWAP2 OR SWAP1 SSTORE DUP1 PUSH2 0x121C DUP2 PUSH2 0x2AC7 JUMP JUMPDEST SWAP2 POP POP PUSH2 0x11B5 JUMP JUMPDEST PUSH1 0x0 PUSH2 0xBF2 DUP3 PUSH2 0x2010 JUMP JUMPDEST PUSH2 0x1237 PUSH2 0x1F8E JUMP JUMPDEST PUSH1 0x15 DUP1 SLOAD SWAP2 ISZERO ISZERO PUSH4 0x1000000 MUL PUSH4 0xFF000000 NOT SWAP1 SWAP3 AND SWAP2 SWAP1 SWAP2 OR SWAP1 SSTORE JUMP JUMPDEST PUSH1 0x0 PUSH1 0x1 PUSH1 0x1 PUSH1 0xA0 SHL SUB DUP3 AND PUSH2 0x127E JUMPI PUSH1 0x40 MLOAD PUSH4 0x23D3AD81 PUSH1 0xE2 SHL DUP2 MSTORE PUSH1 0x4 ADD PUSH1 0x40 MLOAD DUP1 SWAP2 SUB SWAP1 REVERT JUMPDEST POP PUSH1 0x1 PUSH1 0x1 PUSH1 0xA0 SHL SUB AND PUSH1 0x0 SWAP1 DUP2 MSTORE PUSH1 0x6 PUSH1 0x20 MSTORE PUSH1 0x40 SWAP1 KECCAK256 SLOAD PUSH8 0xFFFFFFFFFFFFFFFF AND SWAP1 JUMP JUMPDEST PUSH2 0x12AC PUSH2 0x1F8E JUMP JUMPDEST PUSH2 0x12B6 PUSH1 0x0 PUSH2 0x2071 JUMP JUMPDEST JUMP JUMPDEST CALLER PUSH2 0x12C2 DUP3 PUSH2 0x1224 JUMP JUMPDEST PUSH1 0x1 PUSH1 0x1 PUSH1 0xA0 SHL SUB AND EQ PUSH2 0x12D5 JUMPI PUSH1 0x0 DUP1 REVERT JUMPDEST PUSH1 0x15 SLOAD PUSH2 0x100 SWAP1 DIV PUSH1 0xFF AND ISZERO PUSH2 0x12EA JUMPI PUSH1 0x0 DUP1 REVERT JUMPDEST PUSH1 0x19 DUP2 DUP2 SLOAD DUP2 LT PUSH2 0x12FD JUMPI PUSH2 0x12FD PUSH2 0x2B22 JUMP JUMPDEST SWAP1 PUSH1 0x0 MSTORE PUSH1 0x20 PUSH1 0x0 KECCAK256 SWAP1 PUSH1 0x20 SWAP2 DUP3 DUP3 DIV ADD SWAP2 SWAP1 MOD SWAP1 SLOAD SWAP1 PUSH2 0x100 EXP SWAP1 DIV PUSH1 0xFF AND ISZERO ISZERO PUSH1 0x1 ISZERO ISZERO EQ ISZERO PUSH2 0x1341 JUMPI PUSH1 0x40 MLOAD PUSH3 0x461BCD PUSH1 0xE5 SHL DUP2 MSTORE PUSH1 0x4 ADD PUSH2 0xECD SWAP1 PUSH2 0x29D4 JUMP JUMPDEST PUSH1 0x1 PUSH1 0x19 DUP3 DUP2 SLOAD DUP2 LT PUSH2 0xEEB JUMPI PUSH2 0xEEB PUSH2 0x2B22 JUMP JUMPDEST PUSH2 0x135E PUSH2 0x1F8E JUMP JUMPDEST DUP1 MLOAD PUSH2 0x1101 SWAP1 PUSH1 0xF SWAP1 PUSH1 0x20 DUP5 ADD SWAP1 PUSH2 0x248F JUMP JUMPDEST PUSH2 0x1379 PUSH2 0x1F8E JUMP JUMPDEST DUP1 MLOAD PUSH2 0x1101 SWAP1 PUSH1 0xB SWAP1 PUSH1 0x20 DUP5 ADD SWAP1 PUSH2 0x248F JUMP JUMPDEST PUSH1 0x0 PUSH1 0x1C DUP3 DUP2 SLOAD DUP2 LT PUSH2 0xCFE JUMPI PUSH2 0xCFE PUSH2 0x2B22 JUMP JUMPDEST PUSH2 0x13A9 PUSH2 0x1F8E JUMP JUMPDEST PUSH1 0x15 DUP1 SLOAD SWAP2 ISZERO ISZERO PUSH6 0x10000000000 MUL PUSH6 0xFF0000000000 NOT SWAP1 SWAP3 AND SWAP2 SWAP1 SWAP2 OR SWAP1 SSTORE JUMP JUMPDEST PUSH1 0x60 PUSH1 0x4 DUP1 SLOAD PUSH2 0xC22 SWAP1 PUSH2 0x2A8C JUMP JUMPDEST PUSH2 0x13E2 PUSH2 0x1F8E JUMP JUMPDEST PUSH1 0x15 DUP1 SLOAD SWAP2 ISZERO ISZERO PUSH5 0x100000000 MUL PUSH5 0xFF00000000 NOT SWAP1 SWAP3 AND SWAP2 SWAP1 SWAP2 OR SWAP1 SSTORE JUMP JUMPDEST CALLER PUSH2 0x140C DUP3 PUSH2 0x1224 JUMP JUMPDEST PUSH1 0x1 PUSH1 0x1 PUSH1 0xA0 SHL SUB AND EQ PUSH2 0x1462 JUMPI PUSH1 0x40 MLOAD PUSH3 0x461BCD PUSH1 0xE5 SHL DUP2 MSTORE PUSH1 0x20 PUSH1 0x4 DUP3 ADD MSTORE PUSH1 0x1B PUSH1 0x24 DUP3 ADD MSTORE PUSH32 0x736F72727920796F7520617265206E6F7420746865206F776E65720000000000 PUSH1 0x44 DUP3 ADD MSTORE PUSH1 0x64 ADD PUSH2 0xECD JUMP JUMPDEST PUSH1 0x15 SLOAD PUSH2 0x100 SWAP1 DIV PUSH1 0xFF AND ISZERO PUSH2 0x14BA JUMPI PUSH1 0x40 MLOAD PUSH3 0x461BCD PUSH1 0xE5 SHL DUP2 MSTORE PUSH1 0x20 PUSH1 0x4 DUP3 ADD MSTORE PUSH1 0x17 PUSH1 0x24 DUP3 ADD MSTORE PUSH32 0x636C61696D206973206E6F742061637469766520796574000000000000000000 PUSH1 0x44 DUP3 ADD MSTORE PUSH1 0x64 ADD PUSH2 0xECD JUMP JUMPDEST PUSH1 0x18 DUP2 DUP2 SLOAD DUP2 LT PUSH2 0x14CD JUMPI PUSH2 0x14CD PUSH2 0x2B22 JUMP JUMPDEST SWAP1 PUSH1 0x0 MSTORE PUSH1 0x20 PUSH1 0x0 KECCAK256 SWAP1 PUSH1 0x20 SWAP2 DUP3 DUP3 DIV ADD SWAP2 SWAP1 MOD SWAP1 SLOAD SWAP1 PUSH2 0x100 EXP SWAP1 DIV PUSH1 0xFF AND ISZERO ISZERO PUSH1 0x1 ISZERO ISZERO EQ ISZERO PUSH2 0x1511 JUMPI PUSH1 0x40 MLOAD PUSH3 0x461BCD PUSH1 0xE5 SHL DUP2 MSTORE PUSH1 0x4 ADD PUSH2 0xECD SWAP1 PUSH2 0x29D4 JUMP JUMPDEST PUSH1 0x1 PUSH1 0x18 DUP3 DUP2 SLOAD DUP2 LT PUSH2 0xEEB JUMPI PUSH2 0xEEB PUSH2 0x2B22 JUMP JUMPDEST PUSH1 0x0 PUSH2 0x1535 PUSH1 0x2 SLOAD PUSH1 0x1 SLOAD SUB SWAP1 JUMP JUMPDEST PUSH1 0x15 SLOAD SWAP1 SWAP2 POP PUSH1 0xFF AND ISZERO PUSH2 0x15D7 JUMPI PUSH1 0x40 MLOAD PUSH3 0x461BCD PUSH1 0xE5 SHL DUP2 MSTORE PUSH1 0x20 PUSH1 0x4 DUP3 ADD MSTORE PUSH1 0x5F PUSH1 0x24 DUP3 ADD MSTORE PUSH32 0x574F414820686F6C6420757020746865206D696E74206973206E6F7420796574 PUSH1 0x44 DUP3 ADD MSTORE PUSH32 0x206C6976652C2061206C6974746C6520746F6F206561726C792074686572652E PUSH1 0x64 DUP3 ADD MSTORE PUSH32 0x2E2E206F72206C6174653F205472616E736D697373696F6E20456E64696E6700 PUSH1 0x84 DUP3 ADD MSTORE PUSH1 0xA4 ADD PUSH2 0xECD JUMP JUMPDEST PUSH1 0x0 DUP3 GT PUSH2 0x164D JUMPI PUSH1 0x40 MLOAD PUSH3 0x461BCD PUSH1 0xE5 SHL DUP2 MSTORE PUSH1 0x20 PUSH1 0x4 DUP3 ADD MSTORE PUSH1 0x3F PUSH1 0x24 DUP3 ADD MSTORE PUSH32 0x6D757374206D696E74206174206C656173742031206E66742C2030206973206E PUSH1 0x44 DUP3 ADD MSTORE PUSH32 0x6F7420616C6C6F7765642E205472616E736D697373696F6E20456E64696E6700 PUSH1 0x64 DUP3 ADD MSTORE PUSH1 0x84 ADD PUSH2 0xECD JUMP JUMPDEST PUSH1 0x13 SLOAD PUSH2 0x165A DUP4 DUP4 PUSH2 0x29FE JUMP JUMPDEST GT ISZERO PUSH2 0x16C4 JUMPI PUSH1 0x40 MLOAD PUSH3 0x461BCD PUSH1 0xE5 SHL DUP2 MSTORE PUSH1 0x20 PUSH1 0x4 DUP3 ADD MSTORE PUSH1 0x33 PUSH1 0x24 DUP3 ADD MSTORE PUSH32 0x5468697320736574206F66207368697274732068617665206265656E206D696E PUSH1 0x44 DUP3 ADD MSTORE PUSH19 0x3A32B21030B63932B0B23C961039B7B9393C97 PUSH1 0x69 SHL PUSH1 0x64 DUP3 ADD MSTORE PUSH1 0x84 ADD PUSH2 0xECD JUMP JUMPDEST PUSH1 0x12 SLOAD PUSH2 0x16D1 DUP4 DUP4 PUSH2 0x29FE JUMP JUMPDEST GT ISZERO PUSH2 0x173D JUMPI PUSH1 0x40 MLOAD PUSH3 0x461BCD PUSH1 0xE5 SHL DUP2 MSTORE PUSH1 0x20 PUSH1 0x4 DUP3 ADD MSTORE PUSH1 0x35 PUSH1 0x24 DUP3 ADD MSTORE PUSH32 0x6C6F6F6B73206C696B652077652061726520706F70756C6172206D6178207375 PUSH1 0x44 DUP3 ADD MSTORE PUSH21 0x1C1C1B1E481A185CC81899595B881C995858DA1959 PUSH1 0x5A SHL PUSH1 0x64 DUP3 ADD MSTORE PUSH1 0x84 ADD PUSH2 0xECD JUMP JUMPDEST PUSH1 0x0 SLOAD PUSH1 0x1 PUSH1 0x1 PUSH1 0xA0 SHL SUB AND CALLER EQ PUSH2 0x18AF JUMPI PUSH1 0x1 DUP3 GT ISZERO PUSH2 0x1797 JUMPI PUSH1 0x40 MLOAD PUSH3 0x461BCD PUSH1 0xE5 SHL DUP2 MSTORE PUSH1 0x20 PUSH1 0x4 DUP3 ADD MSTORE PUSH1 0x14 PUSH1 0x24 DUP3 ADD MSTORE PUSH20 0x37B7363C90189030BA1030903A34B6B2901D149 PUSH1 0x65 SHL PUSH1 0x44 DUP3 ADD MSTORE PUSH1 0x64 ADD PUSH2 0xECD JUMP JUMPDEST PUSH1 0x15 SLOAD PUSH1 0x1 PUSH1 0x30 SHL SWAP1 DIV PUSH1 0xFF AND ISZERO ISZERO PUSH1 0x1 EQ ISZERO PUSH2 0x185D JUMPI CALLER PUSH1 0x0 SWAP1 DUP2 MSTORE PUSH1 0x16 PUSH1 0x20 MSTORE PUSH1 0x40 SWAP1 KECCAK256 SLOAD PUSH1 0xFF AND PUSH2 0x17FF JUMPI PUSH1 0x40 MLOAD PUSH3 0x461BCD PUSH1 0xE5 SHL DUP2 MSTORE PUSH1 0x20 PUSH1 0x4 DUP3 ADD MSTORE PUSH1 0xF PUSH1 0x24 DUP3 ADD MSTORE PUSH15 0x139BDD08105B1B1BDDDB1A5CDD1959 PUSH1 0x8A SHL PUSH1 0x44 DUP3 ADD MSTORE PUSH1 0x64 ADD PUSH2 0xECD JUMP JUMPDEST CALLER PUSH1 0x0 SWAP1 DUP2 MSTORE PUSH1 0x17 PUSH1 0x20 MSTORE PUSH1 0x40 SWAP1 KECCAK256 SLOAD PUSH1 0x14 SLOAD PUSH2 0x181C DUP5 DUP4 PUSH2 0x29FE JUMP JUMPDEST GT ISZERO PUSH2 0x185B JUMPI PUSH1 0x40 MLOAD PUSH3 0x461BCD PUSH1 0xE5 SHL DUP2 MSTORE PUSH1 0x20 PUSH1 0x4 DUP3 ADD MSTORE PUSH1 0xE PUSH1 0x24 DUP3 ADD MSTORE PUSH14 0x105B1C9958591E481B5A5B9D1959 PUSH1 0x92 SHL PUSH1 0x44 DUP3 ADD MSTORE PUSH1 0x64 ADD PUSH2 0xECD JUMP JUMPDEST POP JUMPDEST DUP2 PUSH1 0x11 SLOAD PUSH2 0x186B SWAP2 SWAP1 PUSH2 0x2A2A JUMP JUMPDEST CALLVALUE LT ISZERO PUSH2 0x18AF JUMPI PUSH1 0x40 MLOAD PUSH3 0x461BCD PUSH1 0xE5 SHL DUP2 MSTORE PUSH1 0x20 PUSH1 0x4 DUP3 ADD MSTORE PUSH1 0x12 PUSH1 0x24 DUP3 ADD MSTORE PUSH18 0x86DEE6E840C8DECAE6DC4EE840DAC2E8C6D PUSH1 0x73 SHL PUSH1 0x44 DUP3 ADD MSTORE PUSH1 0x64 ADD PUSH2 0xECD JUMP JUMPDEST PUSH2 0x18B9 CALLER DUP4 PUSH2 0x20C1 JUMP JUMPDEST CALLER PUSH1 0x0 SWAP1 DUP2 MSTORE PUSH1 0x17 PUSH1 0x20 MSTORE PUSH1 0x40 DUP2 KECCAK256 DUP1 SLOAD DUP5 SWAP3 SWAP1 PUSH2 0x18D8 SWAP1 DUP5 SWAP1 PUSH2 0x29FE JUMP JUMPDEST SWAP1 SWAP2 SSTORE POP POP POP POP JUMP JUMPDEST CALLER PUSH1 0x0 DUP2 DUP2 MSTORE PUSH1 0x8 PUSH1 0x20 SWAP1 DUP2 MSTORE PUSH1 0x40 DUP1 DUP4 KECCAK256 PUSH1 0x1 PUSH1 0x1 PUSH1 0xA0 SHL SUB DUP8 AND DUP1 DUP6 MSTORE SWAP1 DUP4 MSTORE SWAP3 DUP2 SWAP1 KECCAK256 DUP1 SLOAD PUSH1 0xFF NOT AND DUP7 ISZERO ISZERO SWAP1 DUP2 OR SWAP1 SWAP2 SSTORE SWAP1 MLOAD SWAP1 DUP2 MSTORE SWAP2 SWAP3 SWAP2 PUSH32 0x17307EAB39AB6107E8899845AD3D59BD9653F200F220920489CA2B5937696C31 SWAP2 ADD PUSH1 0x40 MLOAD DUP1 SWAP2 SUB SWAP1 LOG3 POP POP JUMP JUMPDEST PUSH2 0x1955 PUSH2 0x1F8E JUMP JUMPDEST DUP1 MLOAD PUSH2 0x1101 SWAP1 PUSH1 0xD SWAP1 PUSH1 0x20 DUP5 ADD SWAP1 PUSH2 0x248F JUMP JUMPDEST PUSH2 0x1973 DUP5 DUP5 DUP5 PUSH2 0xF40 JUMP JUMPDEST PUSH1 0x1 PUSH1 0x1 PUSH1 0xA0 SHL SUB DUP4 AND EXTCODESIZE ISZERO PUSH2 0x19AC JUMPI PUSH2 0x198F DUP5 DUP5 DUP5 DUP5 PUSH2 0x20DB JUMP JUMPDEST PUSH2 0x19AC JUMPI PUSH1 0x40 MLOAD PUSH4 0x68D2BF6B PUSH1 0xE1 SHL DUP2 MSTORE PUSH1 0x4 ADD PUSH1 0x40 MLOAD DUP1 SWAP2 SUB SWAP1 REVERT JUMPDEST POP POP POP POP JUMP JUMPDEST PUSH2 0x19BA PUSH2 0x1F8E JUMP JUMPDEST PUSH1 0x13 SSTORE JUMP JUMPDEST PUSH1 0x10 DUP1 SLOAD PUSH2 0x19CC SWAP1 PUSH2 0x2A8C JUMP JUMPDEST DUP1 PUSH1 0x1F ADD PUSH1 0x20 DUP1 SWAP2 DIV MUL PUSH1 0x20 ADD PUSH1 0x40 MLOAD SWAP1 DUP2 ADD PUSH1 0x40 MSTORE DUP1 SWAP3 SWAP2 SWAP1 DUP2 DUP2 MSTORE PUSH1 0x20 ADD DUP3 DUP1 SLOAD PUSH2 0x19F8 SWAP1 PUSH2 0x2A8C JUMP JUMPDEST DUP1 ISZERO PUSH2 0x1A45 JUMPI DUP1 PUSH1 0x1F LT PUSH2 0x1A1A JUMPI PUSH2 0x100 DUP1 DUP4 SLOAD DIV MUL DUP4 MSTORE SWAP2 PUSH1 0x20 ADD SWAP2 PUSH2 0x1A45 JUMP JUMPDEST DUP3 ADD SWAP2 SWAP1 PUSH1 0x0 MSTORE PUSH1 0x20 PUSH1 0x0 KECCAK256 SWAP1 JUMPDEST DUP2 SLOAD DUP2 MSTORE SWAP1 PUSH1 0x1 ADD SWAP1 PUSH1 0x20 ADD DUP1 DUP4 GT PUSH2 0x1A28 JUMPI DUP3 SWAP1 SUB PUSH1 0x1F AND DUP3 ADD SWAP2 JUMPDEST POP POP POP POP POP DUP2 JUMP JUMPDEST PUSH1 0x60 PUSH2 0x1A58 DUP3 PUSH2 0x1FE8 JUMP JUMPDEST PUSH2 0x1ABC JUMPI PUSH1 0x40 MLOAD PUSH3 0x461BCD PUSH1 0xE5 SHL DUP2 MSTORE PUSH1 0x20 PUSH1 0x4 DUP3 ADD MSTORE PUSH1 0x2F PUSH1 0x24 DUP3 ADD MSTORE PUSH32 0x4552433732314D657461646174613A2055524920717565727920666F72206E6F PUSH1 0x44 DUP3 ADD MSTORE PUSH15 0x3732BC34B9BA32B73A103A37B5B2B7 PUSH1 0x89 SHL PUSH1 0x64 DUP3 ADD MSTORE PUSH1 0x84 ADD PUSH2 0xECD JUMP JUMPDEST PUSH1 0x18 DUP3 DUP2 SLOAD DUP2 LT PUSH2 0x1ACF JUMPI PUSH2 0x1ACF PUSH2 0x2B22 JUMP JUMPDEST SWAP1 PUSH1 0x0 MSTORE PUSH1 0x20 PUSH1 0x0 KECCAK256 SWAP1 PUSH1 0x20 SWAP2 DUP3 DUP3 DIV ADD SWAP2 SWAP1 MOD SWAP1 SLOAD SWAP1 PUSH2 0x100 EXP SWAP1 DIV PUSH1 0xFF AND ISZERO ISZERO PUSH1 0x1 ISZERO ISZERO EQ ISZERO PUSH2 0x1B5A JUMPI PUSH1 0x0 PUSH2 0x1B05 PUSH2 0x21D3 JUMP JUMPDEST SWAP1 POP PUSH1 0x0 DUP2 MLOAD GT PUSH2 0x1B25 JUMPI PUSH1 0x40 MLOAD DUP1 PUSH1 0x20 ADD PUSH1 0x40 MSTORE DUP1 PUSH1 0x0 DUP2 MSTORE POP PUSH2 0x1B53 JUMP JUMPDEST DUP1 PUSH2 0x1B2F DUP5 PUSH2 0x21E2 JUMP JUMPDEST PUSH1 0x10 PUSH1 0x40 MLOAD PUSH1 0x20 ADD PUSH2 0x1B43 SWAP4 SWAP3 SWAP2 SWAP1 PUSH2 0x287C JUMP JUMPDEST PUSH1 0x40 MLOAD PUSH1 0x20 DUP2 DUP4 SUB SUB DUP2 MSTORE SWAP1 PUSH1 0x40 MSTORE JUMPDEST SWAP4 SWAP3 POP POP POP JUMP JUMPDEST PUSH1 0x19 DUP3 DUP2 SLOAD DUP2 LT PUSH2 0x1B6D JUMPI PUSH2 0x1B6D PUSH2 0x2B22 JUMP JUMPDEST SWAP1 PUSH1 0x0 MSTORE PUSH1 0x20 PUSH1 0x0 KECCAK256 SWAP1 PUSH1 0x20 SWAP2 DUP3 DUP3 DIV ADD SWAP2 SWAP1 MOD SWAP1 SLOAD SWAP1 PUSH2 0x100 EXP SWAP1 DIV PUSH1 0xFF AND ISZERO ISZERO PUSH1 0x1 ISZERO ISZERO EQ ISZERO PUSH2 0x1BA3 JUMPI PUSH1 0x0 PUSH2 0x1B05 PUSH2 0x22E0 JUMP JUMPDEST PUSH1 0x1A DUP3 DUP2 SLOAD DUP2 LT PUSH2 0x1BB6 JUMPI PUSH2 0x1BB6 PUSH2 0x2B22 JUMP JUMPDEST SWAP1 PUSH1 0x0 MSTORE PUSH1 0x20 PUSH1 0x0 KECCAK256 SWAP1 PUSH1 0x20 SWAP2 DUP3 DUP3 DIV ADD SWAP2 SWAP1 MOD SWAP1 SLOAD SWAP1 PUSH2 0x100 EXP SWAP1 DIV PUSH1 0xFF AND ISZERO ISZERO PUSH1 0x1 ISZERO ISZERO EQ ISZERO PUSH2 0x1BEC JUMPI PUSH1 0x0 PUSH2 0x1B05 PUSH2 0x22EF JUMP JUMPDEST PUSH1 0x1B DUP3 DUP2 SLOAD DUP2 LT PUSH2 0x1BFF JUMPI PUSH2 0x1BFF PUSH2 0x2B22 JUMP JUMPDEST SWAP1 PUSH1 0x0 MSTORE PUSH1 0x20 PUSH1 0x0 KECCAK256 SWAP1 PUSH1 0x20 SWAP2 DUP3 DUP3 DIV ADD SWAP2 SWAP1 MOD SWAP1 SLOAD SWAP1 PUSH2 0x100 EXP SWAP1 DIV PUSH1 0xFF AND ISZERO ISZERO PUSH1 0x1 ISZERO ISZERO EQ ISZERO PUSH2 0x1C35 JUMPI PUSH1 0x0 PUSH2 0x1B05 PUSH2 0x22FE JUMP JUMPDEST PUSH1 0x1C DUP3 DUP2 SLOAD DUP2 LT PUSH2 0x1C48 JUMPI PUSH2 0x1C48 PUSH2 0x2B22 JUMP JUMPDEST SWAP1 PUSH1 0x0 MSTORE PUSH1 0x20 PUSH1 0x0 KECCAK256 SWAP1 PUSH1 0x20 SWAP2 DUP3 DUP3 DIV ADD SWAP2 SWAP1 MOD SWAP1 SLOAD SWAP1 PUSH2 0x100 EXP SWAP1 DIV PUSH1 0xFF AND ISZERO ISZERO PUSH1 0x1 ISZERO ISZERO EQ ISZERO PUSH2 0x1C7E JUMPI PUSH1 0x0 PUSH2 0x1B05 PUSH2 0x230D JUMP JUMPDEST PUSH1 0x0 PUSH2 0x1B05 PUSH2 0x231C JUMP JUMPDEST PUSH2 0x1C90 PUSH2 0x1F8E JUMP JUMPDEST DUP1 MLOAD PUSH2 0x1101 SWAP1 PUSH1 0xE SWAP1 PUSH1 0x20 DUP5 ADD SWAP1 PUSH2 0x248F JUMP JUMPDEST PUSH1 0x60 PUSH1 0x0 PUSH2 0x1CB4 PUSH1 0x2 SLOAD PUSH1 0x1 SLOAD SUB SWAP1 JUMP JUMPDEST SWAP1 POP PUSH1 0x0 PUSH2 0x1CC1 DUP5 PUSH2 0x1255 JUMP JUMPDEST PUSH8 0xFFFFFFFFFFFFFFFF DUP2 GT ISZERO PUSH2 0x1CD9 JUMPI PUSH2 0x1CD9 PUSH2 0x2B38 JUMP JUMPDEST PUSH1 0x40 MLOAD SWAP1 DUP1 DUP3 MSTORE DUP1 PUSH1 0x20 MUL PUSH1 0x20 ADD DUP3 ADD PUSH1 0x40 MSTORE DUP1 ISZERO PUSH2 0x1D02 JUMPI DUP2 PUSH1 0x20 ADD PUSH1 0x20 DUP3 MUL DUP1 CALLDATASIZE DUP4 CALLDATACOPY ADD SWAP1 POP JUMPDEST POP SWAP1 POP PUSH1 0x0 DUP1 JUMPDEST DUP4 DUP2 LT ISZERO PUSH2 0x1D71 JUMPI DUP6 PUSH1 0x1 PUSH1 0x1 PUSH1 0xA0 SHL SUB AND PUSH2 0x1D24 DUP3 PUSH2 0x1224 JUMP JUMPDEST PUSH1 0x1 PUSH1 0x1 PUSH1 0xA0 SHL SUB AND EQ ISZERO PUSH2 0x1D5F JUMPI DUP1 DUP4 DUP4 DUP2 MLOAD DUP2 LT PUSH2 0x1D46 JUMPI PUSH2 0x1D46 PUSH2 0x2B22 JUMP JUMPDEST PUSH1 0x20 SWAP1 DUP2 MUL SWAP2 SWAP1 SWAP2 ADD ADD MSTORE DUP2 PUSH2 0x1D5B DUP2 PUSH2 0x2AC7 JUMP JUMPDEST SWAP3 POP POP JUMPDEST DUP1 PUSH2 0x1D69 DUP2 PUSH2 0x2AC7 JUMP JUMPDEST SWAP2 POP POP PUSH2 0x1D09 JUMP JUMPDEST POP SWAP1 SWAP5 SWAP4 POP POP POP POP JUMP JUMPDEST PUSH2 0x1D83 PUSH2 0x1F8E JUMP JUMPDEST DUP1 MLOAD PUSH2 0x1101 SWAP1 PUSH1 0x10 SWAP1 PUSH1 0x20 DUP5 ADD SWAP1 PUSH2 0x248F JUMP JUMPDEST CALLER PUSH2 0x1DA0 DUP3 PUSH2 0x1224 JUMP JUMPDEST PUSH1 0x1 PUSH1 0x1 PUSH1 0xA0 SHL SUB AND EQ PUSH2 0x1DB3 JUMPI PUSH1 0x0 DUP1 REVERT JUMPDEST PUSH1 0x15 SLOAD PUSH2 0x100 SWAP1 DIV PUSH1 0xFF AND ISZERO PUSH2 0x1DC8 JUMPI PUSH1 0x0 DUP1 REVERT JUMPDEST PUSH1 0x1C DUP2 DUP2 SLOAD DUP2 LT PUSH2 0x1DDB JUMPI PUSH2 0x1DDB PUSH2 0x2B22 JUMP JUMPDEST SWAP1 PUSH1 0x0 MSTORE PUSH1 0x20 PUSH1 0x0 KECCAK256 SWAP1 PUSH1 0x20 SWAP2 DUP3 DUP3 DIV ADD SWAP2 SWAP1 MOD SWAP1 SLOAD SWAP1 PUSH2 0x100 EXP SWAP1 DIV PUSH1 0xFF AND ISZERO ISZERO PUSH1 0x1 ISZERO ISZERO EQ ISZERO PUSH2 0x1E1F JUMPI PUSH1 0x40 MLOAD PUSH3 0x461BCD PUSH1 0xE5 SHL DUP2 MSTORE PUSH1 0x4 ADD PUSH2 0xECD SWAP1 PUSH2 0x29D4 JUMP JUMPDEST PUSH1 0x1 PUSH1 0x1C DUP3 DUP2 SLOAD DUP2 LT PUSH2 0xEEB JUMPI PUSH2 0xEEB PUSH2 0x2B22 JUMP JUMPDEST PUSH2 0x1E3C PUSH2 0x1F8E JUMP JUMPDEST PUSH1 0x15 DUP1 SLOAD SWAP2 ISZERO ISZERO PUSH2 0x100 MUL PUSH2 0xFF00 NOT SWAP1 SWAP3 AND SWAP2 SWAP1 SWAP2 OR SWAP1 SSTORE JUMP JUMPDEST PUSH2 0x1E5E PUSH2 0x1F8E JUMP JUMPDEST PUSH1 0x1 PUSH1 0x1 PUSH1 0xA0 SHL SUB DUP2 AND PUSH2 0x1EC3 JUMPI PUSH1 0x40 MLOAD PUSH3 0x461BCD PUSH1 0xE5 SHL DUP2 MSTORE PUSH1 0x20 PUSH1 0x4 DUP3 ADD MSTORE PUSH1 0x26 PUSH1 0x24 DUP3 ADD MSTORE PUSH32 0x4F776E61626C653A206E6577206F776E657220697320746865207A65726F2061 PUSH1 0x44 DUP3 ADD MSTORE PUSH6 0x646472657373 PUSH1 0xD0 SHL PUSH1 0x64 DUP3 ADD MSTORE PUSH1 0x84 ADD PUSH2 0xECD JUMP JUMPDEST PUSH2 0x1147 DUP2 PUSH2 0x2071 JUMP JUMPDEST PUSH2 0x1ED4 PUSH2 0x1F8E JUMP JUMPDEST PUSH1 0x15 DUP1 SLOAD SWAP2 ISZERO ISZERO PUSH3 0x10000 MUL PUSH3 0xFF0000 NOT SWAP1 SWAP3 AND SWAP2 SWAP1 SWAP2 OR SWAP1 SSTORE JUMP JUMPDEST CALLER PUSH2 0x1EFA DUP3 PUSH2 0x1224 JUMP JUMPDEST PUSH1 0x1 PUSH1 0x1 PUSH1 0xA0 SHL SUB AND EQ PUSH2 0x1F0D JUMPI PUSH1 0x0 DUP1 REVERT JUMPDEST PUSH1 0x15 SLOAD PUSH2 0x100 SWAP1 DIV PUSH1 0xFF AND ISZERO PUSH2 0x1F22 JUMPI PUSH1 0x0 DUP1 REVERT JUMPDEST PUSH1 0x1A DUP2 DUP2 SLOAD DUP2 LT PUSH2 0x1F35 JUMPI PUSH2 0x1F35 PUSH2 0x2B22 JUMP JUMPDEST SWAP1 PUSH1 0x0 MSTORE PUSH1 0x20 PUSH1 0x0 KECCAK256 SWAP1 PUSH1 0x20 SWAP2 DUP3 DUP3 DIV ADD SWAP2 SWAP1 MOD SWAP1 SLOAD SWAP1 PUSH2 0x100 EXP SWAP1 DIV PUSH1 0xFF AND ISZERO ISZERO PUSH1 0x1 ISZERO ISZERO EQ ISZERO PUSH2 0x1F79 JUMPI PUSH1 0x40 MLOAD PUSH3 0x461BCD PUSH1 0xE5 SHL DUP2 MSTORE PUSH1 0x4 ADD PUSH2 0xECD SWAP1 PUSH2 0x29D4 JUMP JUMPDEST PUSH1 0x1 PUSH1 0x1A DUP3 DUP2 SLOAD DUP2 LT PUSH2 0xEEB JUMPI PUSH2 0xEEB PUSH2 0x2B22 JUMP JUMPDEST PUSH1 0x0 SLOAD PUSH1 0x1 PUSH1 0x1 PUSH1 0xA0 SHL SUB AND CALLER EQ PUSH2 0x12B6 JUMPI PUSH1 0x40 MLOAD PUSH3 0x461BCD PUSH1 0xE5 SHL DUP2 MSTORE PUSH1 0x20 PUSH1 0x4 DUP3 ADD DUP2 SWAP1 MSTORE PUSH1 0x24 DUP3 ADD MSTORE PUSH32 0x4F776E61626C653A2063616C6C6572206973206E6F7420746865206F776E6572 PUSH1 0x44 DUP3 ADD MSTORE PUSH1 0x64 ADD PUSH2 0xECD JUMP JUMPDEST PUSH1 0x0 PUSH1 0x1 SLOAD DUP3 LT DUP1 ISZERO PUSH2 0xBF2 JUMPI POP POP PUSH1 0x0 SWAP1 DUP2 MSTORE PUSH1 0x5 PUSH1 0x20 MSTORE PUSH1 0x40 SWAP1 KECCAK256 SLOAD PUSH1 0x1 PUSH1 0xE0 SHL AND ISZERO SWAP1 JUMP JUMPDEST PUSH1 0x0 DUP2 PUSH1 0x1 SLOAD DUP2 LT ISZERO PUSH2 0x2058 JUMPI PUSH1 0x0 DUP2 DUP2 MSTORE PUSH1 0x5 PUSH1 0x20 MSTORE PUSH1 0x40 SWAP1 KECCAK256 SLOAD PUSH1 0x1 PUSH1 0xE0 SHL DUP2 AND PUSH2 0x2056 JUMPI JUMPDEST DUP1 PUSH2 0x1B53 JUMPI POP PUSH1 0x0 NOT ADD PUSH1 0x0 DUP2 DUP2 MSTORE PUSH1 0x5 PUSH1 0x20 MSTORE PUSH1 0x40 SWAP1 KECCAK256 SLOAD PUSH2 0x2038 JUMP JUMPDEST POP JUMPDEST PUSH1 0x40 MLOAD PUSH4 0x6F96CDA1 PUSH1 0xE1 SHL DUP2 MSTORE PUSH1 0x4 ADD PUSH1 0x40 MLOAD DUP1 SWAP2 SUB SWAP1 REVERT JUMPDEST PUSH1 0x0 DUP1 SLOAD PUSH1 0x1 PUSH1 0x1 PUSH1 0xA0 SHL SUB DUP4 DUP2 AND PUSH1 0x1 PUSH1 0x1 PUSH1 0xA0 SHL SUB NOT DUP4 AND DUP2 OR DUP5 SSTORE PUSH1 0x40 MLOAD SWAP2 SWAP1 SWAP3 AND SWAP3 DUP4 SWAP2 PUSH32 0x8BE0079C531659141344CD1FD0A4F28419497F9722A3DAAFE3B4186F6B6457E0 SWAP2 SWAP1 LOG3 POP POP JUMP JUMPDEST PUSH2 0x1101 DUP3 DUP3 PUSH1 0x40 MLOAD DUP1 PUSH1 0x20 ADD PUSH1 0x40 MSTORE DUP1 PUSH1 0x0 DUP2 MSTORE POP PUSH2 0x232B JUMP JUMPDEST PUSH1 0x40 MLOAD PUSH4 0xA85BD01 PUSH1 0xE1 SHL DUP2 MSTORE PUSH1 0x0 SWAP1 PUSH1 0x1 PUSH1 0x1 PUSH1 0xA0 SHL SUB DUP6 AND SWAP1 PUSH4 0x150B7A02 SWAP1 PUSH2 0x2110 SWAP1 CALLER SWAP1 DUP10 SWAP1 DUP9 SWAP1 DUP9 SWAP1 PUSH1 0x4 ADD PUSH2 0x2940 JUMP JUMPDEST PUSH1 0x20 PUSH1 0x40 MLOAD DUP1 DUP4 SUB DUP2 PUSH1 0x0 DUP8 DUP1 EXTCODESIZE ISZERO DUP1 ISZERO PUSH2 0x212A JUMPI PUSH1 0x0 DUP1 REVERT JUMPDEST POP GAS CALL SWAP3 POP POP POP DUP1 ISZERO PUSH2 0x215A JUMPI POP PUSH1 0x40 DUP1 MLOAD PUSH1 0x1F RETURNDATASIZE SWAP1 DUP2 ADD PUSH1 0x1F NOT AND DUP3 ADD SWAP1 SWAP3 MSTORE PUSH2 0x2157 SWAP2 DUP2 ADD SWAP1 PUSH2 0x27D1 JUMP JUMPDEST PUSH1 0x1 JUMPDEST PUSH2 0x21B5 JUMPI RETURNDATASIZE DUP1 DUP1 ISZERO PUSH2 0x2188 JUMPI PUSH1 0x40 MLOAD SWAP2 POP PUSH1 0x1F NOT PUSH1 0x3F RETURNDATASIZE ADD AND DUP3 ADD PUSH1 0x40 MSTORE RETURNDATASIZE DUP3 MSTORE RETURNDATASIZE PUSH1 0x0 PUSH1 0x20 DUP5 ADD RETURNDATACOPY PUSH2 0x218D JUMP JUMPDEST PUSH1 0x60 SWAP2 POP JUMPDEST POP DUP1 MLOAD PUSH2 0x21AD JUMPI PUSH1 0x40 MLOAD PUSH4 0x68D2BF6B PUSH1 0xE1 SHL DUP2 MSTORE PUSH1 0x4 ADD PUSH1 0x40 MLOAD DUP1 SWAP2 SUB SWAP1 REVERT JUMPDEST DUP1 MLOAD DUP2 PUSH1 0x20 ADD REVERT JUMPDEST PUSH1 0x1 PUSH1 0x1 PUSH1 0xE0 SHL SUB NOT AND PUSH4 0xA85BD01 PUSH1 0xE1 SHL EQ SWAP1 POP JUMPDEST SWAP5 SWAP4 POP POP POP POP JUMP JUMPDEST PUSH1 0x60 PUSH1 0xB DUP1 SLOAD PUSH2 0xC22 SWAP1 PUSH2 0x2A8C JUMP JUMPDEST PUSH1 0x60 DUP2 PUSH2 0x2206 JUMPI POP POP PUSH1 0x40 DUP1 MLOAD DUP1 DUP3 ADD SWAP1 SWAP2 MSTORE PUSH1 0x1 DUP2 MSTORE PUSH1 0x3 PUSH1 0xFC SHL PUSH1 0x20 DUP3 ADD MSTORE SWAP1 JUMP JUMPDEST DUP2 PUSH1 0x0 JUMPDEST DUP2 ISZERO PUSH2 0x2230 JUMPI DUP1 PUSH2 0x221A DUP2 PUSH2 0x2AC7 JUMP JUMPDEST SWAP2 POP PUSH2 0x2229 SWAP1 POP PUSH1 0xA DUP4 PUSH2 0x2A16 JUMP JUMPDEST SWAP2 POP PUSH2 0x220A JUMP JUMPDEST PUSH1 0x0 DUP2 PUSH8 0xFFFFFFFFFFFFFFFF DUP2 GT ISZERO PUSH2 0x224B JUMPI PUSH2 0x224B PUSH2 0x2B38 JUMP JUMPDEST PUSH1 0x40 MLOAD SWAP1 DUP1 DUP3 MSTORE DUP1 PUSH1 0x1F ADD PUSH1 0x1F NOT AND PUSH1 0x20 ADD DUP3 ADD PUSH1 0x40 MSTORE DUP1 ISZERO PUSH2 0x2275 JUMPI PUSH1 0x20 DUP3 ADD DUP2 DUP1 CALLDATASIZE DUP4 CALLDATACOPY ADD SWAP1 POP JUMPDEST POP SWAP1 POP JUMPDEST DUP5 ISZERO PUSH2 0x21CB JUMPI PUSH2 0x228A PUSH1 0x1 DUP4 PUSH2 0x2A49 JUMP JUMPDEST SWAP2 POP PUSH2 0x2297 PUSH1 0xA DUP7 PUSH2 0x2AE2 JUMP JUMPDEST PUSH2 0x22A2 SWAP1 PUSH1 0x30 PUSH2 0x29FE JUMP JUMPDEST PUSH1 0xF8 SHL DUP2 DUP4 DUP2 MLOAD DUP2 LT PUSH2 0x22B7 JUMPI PUSH2 0x22B7 PUSH2 0x2B22 JUMP JUMPDEST PUSH1 0x20 ADD ADD SWAP1 PUSH1 0x1 PUSH1 0x1 PUSH1 0xF8 SHL SUB NOT AND SWAP1 DUP2 PUSH1 0x0 BYTE SWAP1 MSTORE8 POP PUSH2 0x22D9 PUSH1 0xA DUP7 PUSH2 0x2A16 JUMP JUMPDEST SWAP5 POP PUSH2 0x2279 JUMP JUMPDEST PUSH1 0x60 PUSH1 0xC DUP1 SLOAD PUSH2 0xC22 SWAP1 PUSH2 0x2A8C JUMP JUMPDEST PUSH1 0x60 PUSH1 0xD DUP1 SLOAD PUSH2 0xC22 SWAP1 PUSH2 0x2A8C JUMP JUMPDEST PUSH1 0x60 PUSH1 0xE DUP1 SLOAD PUSH2 0xC22 SWAP1 PUSH2 0x2A8C JUMP JUMPDEST PUSH1 0x60 PUSH1 0xF DUP1 SLOAD PUSH2 0xC22 SWAP1 PUSH2 0x2A8C JUMP JUMPDEST PUSH1 0x60 PUSH1 0xA DUP1 SLOAD PUSH2 0xC22 SWAP1 PUSH2 0x2A8C JUMP JUMPDEST PUSH2 0x2335 DUP4 DUP4 PUSH2 0x2398 JUMP JUMPDEST PUSH1 0x1 PUSH1 0x1 PUSH1 0xA0 SHL SUB DUP4 AND EXTCODESIZE ISZERO PUSH2 0xE3F JUMPI PUSH1 0x1 SLOAD DUP3 DUP2 SUB JUMPDEST PUSH2 0x235F PUSH1 0x0 DUP7 DUP4 DUP1 PUSH1 0x1 ADD SWAP5 POP DUP7 PUSH2 0x20DB JUMP JUMPDEST PUSH2 0x237C JUMPI PUSH1 0x40 MLOAD PUSH4 0x68D2BF6B PUSH1 0xE1 SHL DUP2 MSTORE PUSH1 0x4 ADD PUSH1 0x40 MLOAD DUP1 SWAP2 SUB SWAP1 REVERT JUMPDEST DUP2 DUP2 LT PUSH2 0x234C JUMPI DUP2 PUSH1 0x1 SLOAD EQ PUSH2 0x2391 JUMPI PUSH1 0x0 DUP1 REVERT JUMPDEST POP POP POP POP POP JUMP JUMPDEST PUSH1 0x1 SLOAD DUP2 PUSH2 0x23B9 JUMPI PUSH1 0x40 MLOAD PUSH4 0xB562E8DD PUSH1 0xE0 SHL DUP2 MSTORE PUSH1 0x4 ADD PUSH1 0x40 MLOAD DUP1 SWAP2 SUB SWAP1 REVERT JUMPDEST PUSH1 0x1 PUSH1 0x1 PUSH1 0xA0 SHL SUB DUP4 AND PUSH1 0x0 DUP2 DUP2 MSTORE PUSH1 0x6 PUSH1 0x20 SWAP1 DUP2 MSTORE PUSH1 0x40 DUP1 DUP4 KECCAK256 DUP1 SLOAD PUSH9 0x10000000000000001 DUP9 MUL ADD SWAP1 SSTORE DUP5 DUP4 MSTORE PUSH1 0x5 SWAP1 SWAP2 MSTORE DUP2 KECCAK256 PUSH1 0x1 DUP6 EQ PUSH1 0xE1 SHL TIMESTAMP PUSH1 0xA0 SHL OR DUP4 OR SWAP1 SSTORE DUP3 DUP5 ADD SWAP1 DUP4 SWAP1 DUP4 SWAP1 PUSH32 0xDDF252AD1BE2C89B69C2B068FC378DAA952BA7F163C4A11628F55A4DF523B3EF DUP2 DUP1 LOG4 PUSH1 0x1 DUP4 ADD JUMPDEST DUP2 DUP2 EQ PUSH2 0x2468 JUMPI DUP1 DUP4 PUSH1 0x0 PUSH32 0xDDF252AD1BE2C89B69C2B068FC378DAA952BA7F163C4A11628F55A4DF523B3EF PUSH1 0x0 DUP1 LOG4 PUSH1 0x1 ADD PUSH2 0x2430 JUMP JUMPDEST POP DUP2 PUSH2 0x2486 JUMPI PUSH1 0x40 MLOAD PUSH3 0x2E0763 PUSH1 0xE8 SHL DUP2 MSTORE PUSH1 0x4 ADD PUSH1 0x40 MLOAD DUP1 SWAP2 SUB SWAP1 REVERT JUMPDEST PUSH1 0x1 SSTORE POP POP POP POP JUMP JUMPDEST DUP3 DUP1 SLOAD PUSH2 0x249B SWAP1 PUSH2 0x2A8C JUMP JUMPDEST SWAP1 PUSH1 0x0 MSTORE PUSH1 0x20 PUSH1 0x0 KECCAK256 SWAP1 PUSH1 0x1F ADD PUSH1 0x20 SWAP1 DIV DUP2 ADD SWAP3 DUP3 PUSH2 0x24BD JUMPI PUSH1 0x0 DUP6 SSTORE PUSH2 0x2503 JUMP JUMPDEST DUP3 PUSH1 0x1F LT PUSH2 0x24D6 JUMPI DUP1 MLOAD PUSH1 0xFF NOT AND DUP4 DUP1 ADD OR DUP6 SSTORE PUSH2 0x2503 JUMP JUMPDEST DUP3 DUP1 ADD PUSH1 0x1 ADD DUP6 SSTORE DUP3 ISZERO PUSH2 0x2503 JUMPI SWAP2 DUP3 ADD JUMPDEST DUP3 DUP2 GT ISZERO PUSH2 0x2503 JUMPI DUP3 MLOAD DUP3 SSTORE SWAP2 PUSH1 0x20 ADD SWAP2 SWAP1 PUSH1 0x1 ADD SWAP1 PUSH2 0x24E8 JUMP JUMPDEST POP PUSH2 0x250F SWAP3 SWAP2 POP PUSH2 0x2513 JUMP JUMPDEST POP SWAP1 JUMP JUMPDEST JUMPDEST DUP1 DUP3 GT ISZERO PUSH2 0x250F JUMPI PUSH1 0x0 DUP2 SSTORE PUSH1 0x1 ADD PUSH2 0x2514 JUMP JUMPDEST PUSH1 0x0 PUSH8 0xFFFFFFFFFFFFFFFF DUP1 DUP5 GT ISZERO PUSH2 0x2543 JUMPI PUSH2 0x2543 PUSH2 0x2B38 JUMP JUMPDEST PUSH1 0x40 MLOAD PUSH1 0x1F DUP6 ADD PUSH1 0x1F NOT SWAP1 DUP2 AND PUSH1 0x3F ADD AND DUP2 ADD SWAP1 DUP3 DUP3 GT DUP2 DUP4 LT OR ISZERO PUSH2 0x256B JUMPI PUSH2 0x256B PUSH2 0x2B38 JUMP JUMPDEST DUP2 PUSH1 0x40 MSTORE DUP1 SWAP4 POP DUP6 DUP2 MSTORE DUP7 DUP7 DUP7 ADD GT ISZERO PUSH2 0x2584 JUMPI PUSH1 0x0 DUP1 REVERT JUMPDEST DUP6 DUP6 PUSH1 0x20 DUP4 ADD CALLDATACOPY PUSH1 0x0 PUSH1 0x20 DUP8 DUP4 ADD ADD MSTORE POP POP POP SWAP4 SWAP3 POP POP POP JUMP JUMPDEST DUP1 CALLDATALOAD PUSH1 0x1 PUSH1 0x1 PUSH1 0xA0 SHL SUB DUP2 AND DUP2 EQ PUSH2 0x25B5 JUMPI PUSH1 0x0 DUP1 REVERT JUMPDEST SWAP2 SWAP1 POP JUMP JUMPDEST DUP1 CALLDATALOAD DUP1 ISZERO ISZERO DUP2 EQ PUSH2 0x25B5 JUMPI PUSH1 0x0 DUP1 REVERT JUMPDEST PUSH1 0x0 PUSH1 0x20 DUP3 DUP5 SUB SLT ISZERO PUSH2 0x25DC JUMPI PUSH1 0x0 DUP1 REVERT JUMPDEST PUSH2 0x1B53 DUP3 PUSH2 0x259E JUMP JUMPDEST PUSH1 0x0 DUP1 PUSH1 0x40 DUP4 DUP6 SUB SLT ISZERO PUSH2 0x25F8 JUMPI PUSH1 0x0 DUP1 REVERT JUMPDEST PUSH2 0x2601 DUP4 PUSH2 0x259E JUMP JUMPDEST SWAP2 POP PUSH2 0x260F PUSH1 0x20 DUP5 ADD PUSH2 0x259E JUMP JUMPDEST SWAP1 POP SWAP3 POP SWAP3 SWAP1 POP JUMP JUMPDEST PUSH1 0x0 DUP1 PUSH1 0x0 PUSH1 0x60 DUP5 DUP7 SUB SLT ISZERO PUSH2 0x262D JUMPI PUSH1 0x0 DUP1 REVERT JUMPDEST PUSH2 0x2636 DUP5 PUSH2 0x259E JUMP JUMPDEST SWAP3 POP PUSH2 0x2644 PUSH1 0x20 DUP6 ADD PUSH2 0x259E JUMP JUMPDEST SWAP2 POP PUSH1 0x40 DUP5 ADD CALLDATALOAD SWAP1 POP SWAP3 POP SWAP3 POP SWAP3 JUMP JUMPDEST PUSH1 0x0 DUP1 PUSH1 0x0 DUP1 PUSH1 0x80 DUP6 DUP8 SUB SLT ISZERO PUSH2 0x266A JUMPI PUSH1 0x0 DUP1 REVERT JUMPDEST PUSH2 0x2673 DUP6 PUSH2 0x259E JUMP JUMPDEST SWAP4 POP PUSH2 0x2681 PUSH1 0x20 DUP7 ADD PUSH2 0x259E JUMP JUMPDEST SWAP3 POP PUSH1 0x40 DUP6 ADD CALLDATALOAD SWAP2 POP PUSH1 0x60 DUP6 ADD CALLDATALOAD PUSH8 0xFFFFFFFFFFFFFFFF DUP2 GT ISZERO PUSH2 0x26A4 JUMPI PUSH1 0x0 DUP1 REVERT JUMPDEST DUP6 ADD PUSH1 0x1F DUP2 ADD DUP8 SGT PUSH2 0x26B5 JUMPI PUSH1 0x0 DUP1 REVERT JUMPDEST PUSH2 0x26C4 DUP8 DUP3 CALLDATALOAD PUSH1 0x20 DUP5 ADD PUSH2 0x2528 JUMP JUMPDEST SWAP2 POP POP SWAP3 SWAP6 SWAP2 SWAP5 POP SWAP3 POP JUMP JUMPDEST PUSH1 0x0 DUP1 PUSH1 0x40 DUP4 DUP6 SUB SLT ISZERO PUSH2 0x26E3 JUMPI PUSH1 0x0 DUP1 REVERT JUMPDEST PUSH2 0x26EC DUP4 PUSH2 0x259E JUMP JUMPDEST SWAP2 POP PUSH2 0x260F PUSH1 0x20 DUP5 ADD PUSH2 0x25BA JUMP JUMPDEST PUSH1 0x0 DUP1 PUSH1 0x40 DUP4 DUP6 SUB SLT ISZERO PUSH2 0x270D JUMPI PUSH1 0x0 DUP1 REVERT JUMPDEST PUSH2 0x2716 DUP4 PUSH2 0x259E JUMP JUMPDEST SWAP5 PUSH1 0x20 SWAP4 SWAP1 SWAP4 ADD CALLDATALOAD SWAP4 POP POP POP JUMP JUMPDEST PUSH1 0x0 DUP1 PUSH1 0x20 DUP4 DUP6 SUB SLT ISZERO PUSH2 0x2737 JUMPI PUSH1 0x0 DUP1 REVERT JUMPDEST DUP3 CALLDATALOAD PUSH8 0xFFFFFFFFFFFFFFFF DUP1 DUP3 GT ISZERO PUSH2 0x274F JUMPI PUSH1 0x0 DUP1 REVERT JUMPDEST DUP2 DUP6 ADD SWAP2 POP DUP6 PUSH1 0x1F DUP4 ADD SLT PUSH2 0x2763 JUMPI PUSH1 0x0 DUP1 REVERT JUMPDEST DUP2 CALLDATALOAD DUP2 DUP2 GT ISZERO PUSH2 0x2772 JUMPI PUSH1 0x0 DUP1 REVERT JUMPDEST DUP7 PUSH1 0x20 DUP3 PUSH1 0x5 SHL DUP6 ADD ADD GT ISZERO PUSH2 0x2787 JUMPI PUSH1 0x0 DUP1 REVERT JUMPDEST PUSH1 0x20 SWAP3 SWAP1 SWAP3 ADD SWAP7 SWAP2 SWAP6 POP SWAP1 SWAP4 POP POP POP POP JUMP JUMPDEST PUSH1 0x0 PUSH1 0x20 DUP3 DUP5 SUB SLT ISZERO PUSH2 0x27AB JUMPI PUSH1 0x0 DUP1 REVERT JUMPDEST PUSH2 0x1B53 DUP3 PUSH2 0x25BA JUMP JUMPDEST PUSH1 0x0 PUSH1 0x20 DUP3 DUP5 SUB SLT ISZERO PUSH2 0x27C6 JUMPI PUSH1 0x0 DUP1 REVERT JUMPDEST DUP2 CALLDATALOAD PUSH2 0x1B53 DUP2 PUSH2 0x2B4E JUMP JUMPDEST PUSH1 0x0 PUSH1 0x20 DUP3 DUP5 SUB SLT ISZERO PUSH2 0x27E3 JUMPI PUSH1 0x0 DUP1 REVERT JUMPDEST DUP2 MLOAD PUSH2 0x1B53 DUP2 PUSH2 0x2B4E JUMP JUMPDEST PUSH1 0x0 PUSH1 0x20 DUP3 DUP5 SUB SLT ISZERO PUSH2 0x2800 JUMPI PUSH1 0x0 DUP1 REVERT JUMPDEST DUP2 CALLDATALOAD PUSH8 0xFFFFFFFFFFFFFFFF DUP2 GT ISZERO PUSH2 0x2817 JUMPI PUSH1 0x0 DUP1 REVERT JUMPDEST DUP3 ADD PUSH1 0x1F DUP2 ADD DUP5 SGT PUSH2 0x2828 JUMPI PUSH1 0x0 DUP1 REVERT JUMPDEST PUSH2 0x21CB DUP5 DUP3 CALLDATALOAD PUSH1 0x20 DUP5 ADD PUSH2 0x2528 JUMP JUMPDEST PUSH1 0x0 PUSH1 0x20 DUP3 DUP5 SUB SLT ISZERO PUSH2 0x2849 JUMPI PUSH1 0x0 DUP1 REVERT JUMPDEST POP CALLDATALOAD SWAP2 SWAP1 POP JUMP JUMPDEST PUSH1 0x0 DUP2 MLOAD DUP1 DUP5 MSTORE PUSH2 0x2868 DUP2 PUSH1 0x20 DUP7 ADD PUSH1 0x20 DUP7 ADD PUSH2 0x2A60 JUMP JUMPDEST PUSH1 0x1F ADD PUSH1 0x1F NOT AND SWAP3 SWAP1 SWAP3 ADD PUSH1 0x20 ADD SWAP3 SWAP2 POP POP JUMP JUMPDEST PUSH1 0x0 DUP5 MLOAD PUSH1 0x20 PUSH2 0x288F DUP3 DUP6 DUP4 DUP11 ADD PUSH2 0x2A60 JUMP JUMPDEST DUP6 MLOAD SWAP2 DUP5 ADD SWAP2 PUSH2 0x28A2 DUP2 DUP5 DUP5 DUP11 ADD PUSH2 0x2A60 JUMP JUMPDEST DUP6 SLOAD SWAP3 ADD SWAP2 PUSH1 0x0 SWAP1 PUSH1 0x1 DUP2 DUP2 SHR SWAP1 DUP1 DUP4 AND DUP1 PUSH2 0x28BF JUMPI PUSH1 0x7F DUP4 AND SWAP3 POP JUMPDEST DUP6 DUP4 LT DUP2 EQ ISZERO PUSH2 0x28DD JUMPI PUSH4 0x4E487B71 PUSH1 0xE0 SHL DUP6 MSTORE PUSH1 0x22 PUSH1 0x4 MSTORE PUSH1 0x24 DUP6 REVERT JUMPDEST DUP1 DUP1 ISZERO PUSH2 0x28F1 JUMPI PUSH1 0x1 DUP2 EQ PUSH2 0x2902 JUMPI PUSH2 0x292F JUMP JUMPDEST PUSH1 0xFF NOT DUP6 AND DUP9 MSTORE DUP4 DUP9 ADD SWAP6 POP PUSH2 0x292F JUMP JUMPDEST PUSH1 0x0 DUP12 DUP2 MSTORE PUSH1 0x20 SWAP1 KECCAK256 PUSH1 0x0 JUMPDEST DUP6 DUP2 LT ISZERO PUSH2 0x2927 JUMPI DUP2 SLOAD DUP11 DUP3 ADD MSTORE SWAP1 DUP5 ADD SWAP1 DUP9 ADD PUSH2 0x290E JUMP JUMPDEST POP POP DUP4 DUP9 ADD SWAP6 POP JUMPDEST POP SWAP4 SWAP12 SWAP11 POP POP POP POP POP POP POP POP POP POP POP JUMP JUMPDEST PUSH1 0x1 PUSH1 0x1 PUSH1 0xA0 SHL SUB DUP6 DUP2 AND DUP3 MSTORE DUP5 AND PUSH1 0x20 DUP3 ADD MSTORE PUSH1 0x40 DUP2 ADD DUP4 SWAP1 MSTORE PUSH1 0x80 PUSH1 0x60 DUP3 ADD DUP2 SWAP1 MSTORE PUSH1 0x0 SWAP1 PUSH2 0x2973 SWAP1 DUP4 ADD DUP5 PUSH2 0x2850 JUMP JUMPDEST SWAP7 SWAP6 POP POP POP POP POP POP JUMP JUMPDEST PUSH1 0x20 DUP1 DUP3 MSTORE DUP3 MLOAD DUP3 DUP3 ADD DUP2 SWAP1 MSTORE PUSH1 0x0 SWAP2 SWAP1 DUP5 DUP3 ADD SWAP1 PUSH1 0x40 DUP6 ADD SWAP1 DUP5 JUMPDEST DUP2 DUP2 LT ISZERO PUSH2 0x29B5 JUMPI DUP4 MLOAD DUP4 MSTORE SWAP3 DUP5 ADD SWAP3 SWAP2 DUP5 ADD SWAP2 PUSH1 0x1 ADD PUSH2 0x2999 JUMP JUMPDEST POP SWAP1 SWAP7 SWAP6 POP POP POP POP POP POP JUMP JUMPDEST PUSH1 0x20 DUP2 MSTORE PUSH1 0x0 PUSH2 0x1B53 PUSH1 0x20 DUP4 ADD DUP5 PUSH2 0x2850 JUMP JUMPDEST PUSH1 0x20 DUP1 DUP3 MSTORE PUSH1 0x10 SWAP1 DUP3 ADD MSTORE PUSH16 0x616C726561647920636C61696D656421 PUSH1 0x80 SHL PUSH1 0x40 DUP3 ADD MSTORE PUSH1 0x60 ADD SWAP1 JUMP JUMPDEST PUSH1 0x0 DUP3 NOT DUP3 GT ISZERO PUSH2 0x2A11 JUMPI PUSH2 0x2A11 PUSH2 0x2AF6 JUMP JUMPDEST POP ADD SWAP1 JUMP JUMPDEST PUSH1 0x0 DUP3 PUSH2 0x2A25 JUMPI PUSH2 0x2A25 PUSH2 0x2B0C JUMP JUMPDEST POP DIV SWAP1 JUMP JUMPDEST PUSH1 0x0 DUP2 PUSH1 0x0 NOT DIV DUP4 GT DUP3 ISZERO ISZERO AND ISZERO PUSH2 0x2A44 JUMPI PUSH2 0x2A44 PUSH2 0x2AF6 JUMP JUMPDEST POP MUL SWAP1 JUMP JUMPDEST PUSH1 0x0 DUP3 DUP3 LT ISZERO PUSH2 0x2A5B JUMPI PUSH2 0x2A5B PUSH2 0x2AF6 JUMP JUMPDEST POP SUB SWAP1 JUMP JUMPDEST PUSH1 0x0 JUMPDEST DUP4 DUP2 LT ISZERO PUSH2 0x2A7B JUMPI DUP2 DUP2 ADD MLOAD DUP4 DUP3 ADD MSTORE PUSH1 0x20 ADD PUSH2 0x2A63 JUMP JUMPDEST DUP4 DUP2 GT ISZERO PUSH2 0x19AC JUMPI POP POP PUSH1 0x0 SWAP2 ADD MSTORE JUMP JUMPDEST PUSH1 0x1 DUP2 DUP2 SHR SWAP1 DUP3 AND DUP1 PUSH2 0x2AA0 JUMPI PUSH1 0x7F DUP3 AND SWAP2 POP JUMPDEST PUSH1 0x20 DUP3 LT DUP2 EQ ISZERO PUSH2 0x2AC1 JUMPI PUSH4 0x4E487B71 PUSH1 0xE0 SHL PUSH1 0x0 MSTORE PUSH1 0x22 PUSH1 0x4 MSTORE PUSH1 0x24 PUSH1 0x0 REVERT JUMPDEST POP SWAP2 SWAP1 POP JUMP JUMPDEST PUSH1 0x0 PUSH1 0x0 NOT DUP3 EQ ISZERO PUSH2 0x2ADB JUMPI PUSH2 0x2ADB PUSH2 0x2AF6 JUMP JUMPDEST POP PUSH1 0x1 ADD SWAP1 JUMP JUMPDEST PUSH1 0x0 DUP3 PUSH2 0x2AF1 JUMPI PUSH2 0x2AF1 PUSH2 0x2B0C JUMP JUMPDEST POP MOD SWAP1 JUMP JUMPDEST PUSH4 0x4E487B71 PUSH1 0xE0 SHL PUSH1 0x0 MSTORE PUSH1 0x11 PUSH1 0x4 MSTORE PUSH1 0x24 PUSH1 0x0 REVERT JUMPDEST PUSH4 0x4E487B71 PUSH1 0xE0 SHL PUSH1 0x0 MSTORE PUSH1 0x12 PUSH1 0x4 MSTORE PUSH1 0x24 PUSH1 0x0 REVERT JUMPDEST PUSH4 0x4E487B71 PUSH1 0xE0 SHL PUSH1 0x0 MSTORE PUSH1 0x32 PUSH1 0x4 MSTORE PUSH1 0x24 PUSH1 0x0 REVERT JUMPDEST PUSH4 0x4E487B71 PUSH1 0xE0 SHL PUSH1 0x0 MSTORE PUSH1 0x41 PUSH1 0x4 MSTORE PUSH1 0x24 PUSH1 0x0 REVERT JUMPDEST PUSH1 0x1 PUSH1 0x1 PUSH1 0xE0 SHL SUB NOT DUP2 AND DUP2 EQ PUSH2 0x1147 JUMPI PUSH1 0x0 DUP1 REVERT INVALID LOG2 PUSH5 0x6970667358 0x22 SLT KECCAK256 PUSH8 0xDAD0F203AC547462 CALLDATASIZE PUSH13 0xCE5A3322FE9EA8DC2410F88D71 CHAINID 0x5D 0xAD 0xAE XOR 0x5C 0xB3 MSTORE8 PUSH5 0x736F6C6343 STOP ADDMOD SMOD STOP CALLER "
		},
		"gasEstimates": {
			"creation": {
				"codeDepositCost": "2232400",
				"executionCost": "infinite",
				"totalCost": "infinite"
			},
			"external": {
				"AllowlistLimit()": "2428",
				"addressMintedBalance(address)": "2609",
				"allowlist(address)": "2631",
				"allowlistUsers(address[])": "infinite",
				"approve(address,uint256)": "infinite",
				"balanceOf(address)": "2706",
				"baseExtension()": "infinite",
				"checkClaimed(uint256)": "6327",
				"checkClaimed2(uint256)": "6370",
				"checkClaimed3(uint256)": "6349",
				"checkClaimed4(uint256)": "6304",
				"checkClaimed5(uint256)": "6348",
				"claimItem1(uint256)": "infinite",
				"claimItem2(uint256)": "infinite",
				"claimItem3(uint256)": "infinite",
				"claimItem4(uint256)": "infinite",
				"claimItem5(uint256)": "infinite",
				"claimactive()": "2443",
				"claimactive2()": "2445",
				"claimactive3()": "2400",
				"claimactive4()": "2379",
				"claimactive5()": "2378",
				"cost()": "2364",
				"currentSet()": "2429",
				"getApproved(uint256)": "6948",
				"isAllowlisted(address)": "2652",
				"isApprovedForAll(address,address)": "infinite",
				"maxSupply()": "2362",
				"mint(uint256)": "infinite",
				"name()": "infinite",
				"onlyAllowlisted()": "2383",
				"owner()": "2465",
				"ownerOf(uint256)": "infinite",
				"ownerOfTokenIds(address)": "infinite",
				"pause(bool)": "26785",
				"paused()": "2411",
				"removeUsersFromAllowlist(address[])": "infinite",
				"renounceOwnership()": "infinite",
				"safeTransferFrom(address,address,uint256)": "infinite",
				"safeTransferFrom(address,address,uint256,bytes)": "infinite",
				"setApprovalForAll(address,bool)": "infinite",
				"setBaseExtension(string)": "infinite",
				"setBaseURI(string)": "infinite",
				"setClaimURI(string)": "infinite",
				"setClaimURI2(string)": "infinite",
				"setClaimURI3(string)": "infinite",
				"setClaimURI4(string)": "infinite",
				"setClaimURI5(string)": "infinite",
				"setCurrentSetAmount(uint256)": "24600",
				"setOnlyAllowlisted(bool)": "26848",
				"supportsInterface(bytes4)": "580",
				"symbol()": "infinite",
				"toggleclaimactive(bool)": "26773",
				"toggleclaimactive2(bool)": "26817",
				"toggleclaimactive3(bool)": "26796",
				"toggleclaimactive4(bool)": "26819",
				"toggleclaimactive5(bool)": "26775",
				"tokenURI(uint256)": "infinite",
				"totalSupply()": "4466",
				"transferFrom(address,address,uint256)": "infinite",
				"transferOwnership(address)": "28421",
				"withdraw()": "infinite"
			},
			"internal": {
				"_baseURI()": "infinite",
				"_claimURI()": "infinite",
				"_claimURI2()": "infinite",
				"_claimURI3()": "infinite",
				"_claimURI4()": "infinite",
				"_claimURI5()": "infinite"
			}
		},
		"methodIdentifiers": {
			"AllowlistLimit()": "b3807b1d",
			"addressMintedBalance(address)": "18cae269",
			"allowlist(address)": "a7cd52cb",
			"allowlistUsers(address[])": "5b9e3ccf",
			"approve(address,uint256)": "095ea7b3",
			"balanceOf(address)": "70a08231",
			"baseExtension()": "c6682862",
			"checkClaimed(uint256)": "35a55caa",
			"checkClaimed2(uint256)": "58211373",
			"checkClaimed3(uint256)": "09533e46",
			"checkClaimed4(uint256)": "593e6fe4",
			"checkClaimed5(uint256)": "8965dd97",
			"claimItem1(uint256)": "9b3929da",
			"claimItem2(uint256)": "7ccd381d",
			"claimItem3(uint256)": "fd1dae2e",
			"claimItem4(uint256)": "176cd645",
			"claimItem5(uint256)": "eade46e6",
			"claimactive()": "cfa03291",
			"claimactive2()": "39516a26",
			"claimactive3()": "8198d162",
			"claimactive4()": "330ba7ad",
			"claimactive5()": "7f0a6f65",
			"cost()": "13faede6",
			"currentSet()": "30b86627",
			"getApproved(uint256)": "081812fc",
			"isAllowlisted(address)": "05a3b809",
			"isApprovedForAll(address,address)": "e985e9c5",
			"maxSupply()": "d5abeb01",
			"mint(uint256)": "a0712d68",
			"name()": "06fdde03",
			"onlyAllowlisted()": "674c02aa",
			"owner()": "8da5cb5b",
			"ownerOf(uint256)": "6352211e",
			"ownerOfTokenIds(address)": "ca8a7d5e",
			"pause(bool)": "02329a29",
			"paused()": "5c975abb",
			"removeUsersFromAllowlist(address[])": "142b0fbe",
			"renounceOwnership()": "715018a6",
			"safeTransferFrom(address,address,uint256)": "42842e0e",
			"safeTransferFrom(address,address,uint256,bytes)": "b88d4fde",
			"setApprovalForAll(address,bool)": "a22cb465",
			"setBaseExtension(string)": "da3ef23f",
			"setBaseURI(string)": "55f804b3",
			"setClaimURI(string)": "7ea63e2b",
			"setClaimURI2(string)": "36404ff9",
			"setClaimURI3(string)": "b824ad23",
			"setClaimURI4(string)": "c8a7f86d",
			"setClaimURI5(string)": "7d8afd0f",
			"setCurrentSetAmount(uint256)": "c4d2e8d6",
			"setOnlyAllowlisted(bool)": "17dc10c4",
			"supportsInterface(bytes4)": "01ffc9a7",
			"symbol()": "95d89b41",
			"toggleclaimactive(bool)": "f2a4c34e",
			"toggleclaimactive2(bool)": "f968f342",
			"toggleclaimactive3(bool)": "674f272a",
			"toggleclaimactive4(bool)": "998b3dee",
			"toggleclaimactive5(bool)": "8ffa5ec6",
			"tokenURI(uint256)": "c87b56dd",
			"totalSupply()": "18160ddd",
			"transferFrom(address,address,uint256)": "23b872dd",
			"transferOwnership(address)": "f2fde38b",
			"withdraw()": "3ccfd60b"
		}
	},
	"abi": [
		{
			"inputs": [
				{
					"internalType": "string",
					"name": "_initBaseURI",
					"type": "string"
				},
				{
					"internalType": "string",
					"name": "_initClaimURI",
					"type": "string"
				}
			],
			"stateMutability": "nonpayable",
			"type": "constructor"
		},
		{
			"inputs": [],
			"name": "ApprovalCallerNotOwnerNorApproved",
			"type": "error"
		},
		{
			"inputs": [],
			"name": "ApprovalQueryForNonexistentToken",
			"type": "error"
		},
		{
			"inputs": [],
			"name": "BalanceQueryForZeroAddress",
			"type": "error"
		},
		{
			"inputs": [],
			"name": "MintERC2309QuantityExceedsLimit",
			"type": "error"
		},
		{
			"inputs": [],
			"name": "MintToZeroAddress",
			"type": "error"
		},
		{
			"inputs": [],
			"name": "MintZeroQuantity",
			"type": "error"
		},
		{
			"inputs": [],
			"name": "OwnerQueryForNonexistentToken",
			"type": "error"
		},
		{
			"inputs": [],
			"name": "OwnershipNotInitializedForExtraData",
			"type": "error"
		},
		{
			"inputs": [],
			"name": "TransferCallerNotOwnerNorApproved",
			"type": "error"
		},
		{
			"inputs": [],
			"name": "TransferFromIncorrectOwner",
			"type": "error"
		},
		{
			"inputs": [],
			"name": "TransferToNonERC721ReceiverImplementer",
			"type": "error"
		},
		{
			"inputs": [],
			"name": "TransferToZeroAddress",
			"type": "error"
		},
		{
			"inputs": [],
			"name": "URIQueryForNonexistentToken",
			"type": "error"
		},
		{
			"anonymous": false,
			"inputs": [
				{
					"indexed": true,
					"internalType": "address",
					"name": "owner",
					"type": "address"
				},
				{
					"indexed": true,
					"internalType": "address",
					"name": "approved",
					"type": "address"
				},
				{
					"indexed": true,
					"internalType": "uint256",
					"name": "tokenId",
					"type": "uint256"
				}
			],
			"name": "Approval",
			"type": "event"
		},
		{
			"anonymous": false,
			"inputs": [
				{
					"indexed": true,
					"internalType": "address",
					"name": "owner",
					"type": "address"
				},
				{
					"indexed": true,
					"internalType": "address",
					"name": "operator",
					"type": "address"
				},
				{
					"indexed": false,
					"internalType": "bool",
					"name": "approved",
					"type": "bool"
				}
			],
			"name": "ApprovalForAll",
			"type": "event"
		},
		{
			"anonymous": false,
			"inputs": [
				{
					"indexed": true,
					"internalType": "uint256",
					"name": "fromTokenId",
					"type": "uint256"
				},
				{
					"indexed": false,
					"internalType": "uint256",
					"name": "toTokenId",
					"type": "uint256"
				},
				{
					"indexed": true,
					"internalType": "address",
					"name": "from",
					"type": "address"
				},
				{
					"indexed": true,
					"internalType": "address",
					"name": "to",
					"type": "address"
				}
			],
			"name": "ConsecutiveTransfer",
			"type": "event"
		},
		{
			"anonymous": false,
			"inputs": [
				{
					"indexed": true,
					"internalType": "address",
					"name": "previousOwner",
					"type": "address"
				},
				{
					"indexed": true,
					"internalType": "address",
					"name": "newOwner",
					"type": "address"
				}
			],
			"name": "OwnershipTransferred",
			"type": "event"
		},
		{
			"anonymous": false,
			"inputs": [
				{
					"indexed": true,
					"internalType": "address",
					"name": "from",
					"type": "address"
				},
				{
					"indexed": true,
					"internalType": "address",
					"name": "to",
					"type": "address"
				},
				{
					"indexed": true,
					"internalType": "uint256",
					"name": "tokenId",
					"type": "uint256"
				}
			],
			"name": "Transfer",
			"type": "event"
		},
		{
			"inputs": [],
			"name": "AllowlistLimit",
			"outputs": [
				{
					"internalType": "uint256",
					"name": "",
					"type": "uint256"
				}
			],
			"stateMutability": "view",
			"type": "function"
		},
		{
			"inputs": [
				{
					"internalType": "address",
					"name": "",
					"type": "address"
				}
			],
			"name": "addressMintedBalance",
			"outputs": [
				{
					"internalType": "uint256",
					"name": "",
					"type": "uint256"
				}
			],
			"stateMutability": "view",
			"type": "function"
		},
		{
			"inputs": [
				{
					"internalType": "address",
					"name": "",
					"type": "address"
				}
			],
			"name": "allowlist",
			"outputs": [
				{
					"internalType": "bool",
					"name": "",
					"type": "bool"
				}
			],
			"stateMutability": "view",
			"type": "function"
		},
		{
			"inputs": [
				{
					"internalType": "address[]",
					"name": "addresses",
					"type": "address[]"
				}
			],
			"name": "allowlistUsers",
			"outputs": [],
			"stateMutability": "nonpayable",
			"type": "function"
		},
		{
			"inputs": [
				{
					"internalType": "address",
					"name": "to",
					"type": "address"
				},
				{
					"internalType": "uint256",
					"name": "tokenId",
					"type": "uint256"
				}
			],
			"name": "approve",
			"outputs": [],
			"stateMutability": "nonpayable",
			"type": "function"
		},
		{
			"inputs": [
				{
					"internalType": "address",
					"name": "owner",
					"type": "address"
				}
			],
			"name": "balanceOf",
			"outputs": [
				{
					"internalType": "uint256",
					"name": "",
					"type": "uint256"
				}
			],
			"stateMutability": "view",
			"type": "function"
		},
		{
			"inputs": [],
			"name": "baseExtension",
			"outputs": [
				{
					"internalType": "string",
					"name": "",
					"type": "string"
				}
			],
			"stateMutability": "view",
			"type": "function"
		},
		{
			"inputs": [
				{
					"internalType": "uint256",
					"name": "tokenId",
					"type": "uint256"
				}
			],
			"name": "checkClaimed",
			"outputs": [
				{
					"internalType": "bool",
					"name": "",
					"type": "bool"
				}
			],
			"stateMutability": "view",
			"type": "function"
		},
		{
			"inputs": [
				{
					"internalType": "uint256",
					"name": "tokenId",
					"type": "uint256"
				}
			],
			"name": "checkClaimed2",
			"outputs": [
				{
					"internalType": "bool",
					"name": "",
					"type": "bool"
				}
			],
			"stateMutability": "view",
			"type": "function"
		},
		{
			"inputs": [
				{
					"internalType": "uint256",
					"name": "tokenId",
					"type": "uint256"
				}
			],
			"name": "checkClaimed3",
			"outputs": [
				{
					"internalType": "bool",
					"name": "",
					"type": "bool"
				}
			],
			"stateMutability": "view",
			"type": "function"
		},
		{
			"inputs": [
				{
					"internalType": "uint256",
					"name": "tokenId",
					"type": "uint256"
				}
			],
			"name": "checkClaimed4",
			"outputs": [
				{
					"internalType": "bool",
					"name": "",
					"type": "bool"
				}
			],
			"stateMutability": "view",
			"type": "function"
		},
		{
			"inputs": [
				{
					"internalType": "uint256",
					"name": "tokenId",
					"type": "uint256"
				}
			],
			"name": "checkClaimed5",
			"outputs": [
				{
					"internalType": "bool",
					"name": "",
					"type": "bool"
				}
			],
			"stateMutability": "view",
			"type": "function"
		},
		{
			"inputs": [
				{
					"internalType": "uint256",
					"name": "tokenId",
					"type": "uint256"
				}
			],
			"name": "claimItem1",
			"outputs": [],
			"stateMutability": "nonpayable",
			"type": "function"
		},
		{
			"inputs": [
				{
					"internalType": "uint256",
					"name": "tokenId",
					"type": "uint256"
				}
			],
			"name": "claimItem2",
			"outputs": [],
			"stateMutability": "nonpayable",
			"type": "function"
		},
		{
			"inputs": [
				{
					"internalType": "uint256",
					"name": "tokenId",
					"type": "uint256"
				}
			],
			"name": "claimItem3",
			"outputs": [],
			"stateMutability": "nonpayable",
			"type": "function"
		},
		{
			"inputs": [
				{
					"internalType": "uint256",
					"name": "tokenId",
					"type": "uint256"
				}
			],
			"name": "claimItem4",
			"outputs": [],
			"stateMutability": "nonpayable",
			"type": "function"
		},
		{
			"inputs": [
				{
					"internalType": "uint256",
					"name": "tokenId",
					"type": "uint256"
				}
			],
			"name": "claimItem5",
			"outputs": [],
			"stateMutability": "nonpayable",
			"type": "function"
		},
		{
			"inputs": [],
			"name": "claimactive",
			"outputs": [
				{
					"internalType": "bool",
					"name": "",
					"type": "bool"
				}
			],
			"stateMutability": "view",
			"type": "function"
		},
		{
			"inputs": [],
			"name": "claimactive2",
			"outputs": [
				{
					"internalType": "bool",
					"name": "",
					"type": "bool"
				}
			],
			"stateMutability": "view",
			"type": "function"
		},
		{
			"inputs": [],
			"name": "claimactive3",
			"outputs": [
				{
					"internalType": "bool",
					"name": "",
					"type": "bool"
				}
			],
			"stateMutability": "view",
			"type": "function"
		},
		{
			"inputs": [],
			"name": "claimactive4",
			"outputs": [
				{
					"internalType": "bool",
					"name": "",
					"type": "bool"
				}
			],
			"stateMutability": "view",
			"type": "function"
		},
		{
			"inputs": [],
			"name": "claimactive5",
			"outputs": [
				{
					"internalType": "bool",
					"name": "",
					"type": "bool"
				}
			],
			"stateMutability": "view",
			"type": "function"
		},
		{
			"inputs": [],
			"name": "cost",
			"outputs": [
				{
					"internalType": "uint256",
					"name": "",
					"type": "uint256"
				}
			],
			"stateMutability": "view",
			"type": "function"
		},
		{
			"inputs": [],
			"name": "currentSet",
			"outputs": [
				{
					"internalType": "uint256",
					"name": "",
					"type": "uint256"
				}
			],
			"stateMutability": "view",
			"type": "function"
		},
		{
			"inputs": [
				{
					"internalType": "uint256",
					"name": "tokenId",
					"type": "uint256"
				}
			],
			"name": "getApproved",
			"outputs": [
				{
					"internalType": "address",
					"name": "",
					"type": "address"
				}
			],
			"stateMutability": "view",
			"type": "function"
		},
		{
			"inputs": [
				{
					"internalType": "address",
					"name": "_user",
					"type": "address"
				}
			],
			"name": "isAllowlisted",
			"outputs": [
				{
					"internalType": "bool",
					"name": "",
					"type": "bool"
				}
			],
			"stateMutability": "view",
			"type": "function"
		},
		{
			"inputs": [
				{
					"internalType": "address",
					"name": "owner",
					"type": "address"
				},
				{
					"internalType": "address",
					"name": "operator",
					"type": "address"
				}
			],
			"name": "isApprovedForAll",
			"outputs": [
				{
					"internalType": "bool",
					"name": "",
					"type": "bool"
				}
			],
			"stateMutability": "view",
			"type": "function"
		},
		{
			"inputs": [],
			"name": "maxSupply",
			"outputs": [
				{
					"internalType": "uint256",
					"name": "",
					"type": "uint256"
				}
			],
			"stateMutability": "view",
			"type": "function"
		},
		{
			"inputs": [
				{
					"internalType": "uint256",
					"name": "_mintAmount",
					"type": "uint256"
				}
			],
			"name": "mint",
			"outputs": [],
			"stateMutability": "payable",
			"type": "function"
		},
		{
			"inputs": [],
			"name": "name",
			"outputs": [
				{
					"internalType": "string",
					"name": "",
					"type": "string"
				}
			],
			"stateMutability": "view",
			"type": "function"
		},
		{
			"inputs": [],
			"name": "onlyAllowlisted",
			"outputs": [
				{
					"internalType": "bool",
					"name": "",
					"type": "bool"
				}
			],
			"stateMutability": "view",
			"type": "function"
		},
		{
			"inputs": [],
			"name": "owner",
			"outputs": [
				{
					"internalType": "address",
					"name": "",
					"type": "address"
				}
			],
			"stateMutability": "view",
			"type": "function"
		},
		{
			"inputs": [
				{
					"internalType": "uint256",
					"name": "tokenId",
					"type": "uint256"
				}
			],
			"name": "ownerOf",
			"outputs": [
				{
					"internalType": "address",
					"name": "",
					"type": "address"
				}
			],
			"stateMutability": "view",
			"type": "function"
		},
		{
			"inputs": [
				{
					"internalType": "address",
					"name": "tokenOwner",
					"type": "address"
				}
			],
			"name": "ownerOfTokenIds",
			"outputs": [
				{
					"internalType": "uint256[]",
					"name": "",
					"type": "uint256[]"
				}
			],
			"stateMutability": "view",
			"type": "function"
		},
		{
			"inputs": [
				{
					"internalType": "bool",
					"name": "_state",
					"type": "bool"
				}
			],
			"name": "pause",
			"outputs": [],
			"stateMutability": "nonpayable",
			"type": "function"
		},
		{
			"inputs": [],
			"name": "paused",
			"outputs": [
				{
					"internalType": "bool",
					"name": "",
					"type": "bool"
				}
			],
			"stateMutability": "view",
			"type": "function"
		},
		{
			"inputs": [
				{
					"internalType": "address[]",
					"name": "addresses",
					"type": "address[]"
				}
			],
			"name": "removeUsersFromAllowlist",
			"outputs": [],
			"stateMutability": "nonpayable",
			"type": "function"
		},
		{
			"inputs": [],
			"name": "renounceOwnership",
			"outputs": [],
			"stateMutability": "nonpayable",
			"type": "function"
		},
		{
			"inputs": [
				{
					"internalType": "address",
					"name": "from",
					"type": "address"
				},
				{
					"internalType": "address",
					"name": "to",
					"type": "address"
				},
				{
					"internalType": "uint256",
					"name": "tokenId",
					"type": "uint256"
				}
			],
			"name": "safeTransferFrom",
			"outputs": [],
			"stateMutability": "nonpayable",
			"type": "function"
		},
		{
			"inputs": [
				{
					"internalType": "address",
					"name": "from",
					"type": "address"
				},
				{
					"internalType": "address",
					"name": "to",
					"type": "address"
				},
				{
					"internalType": "uint256",
					"name": "tokenId",
					"type": "uint256"
				},
				{
					"internalType": "bytes",
					"name": "_data",
					"type": "bytes"
				}
			],
			"name": "safeTransferFrom",
			"outputs": [],
			"stateMutability": "nonpayable",
			"type": "function"
		},
		{
			"inputs": [
				{
					"internalType": "address",
					"name": "operator",
					"type": "address"
				},
				{
					"internalType": "bool",
					"name": "approved",
					"type": "bool"
				}
			],
			"name": "setApprovalForAll",
			"outputs": [],
			"stateMutability": "nonpayable",
			"type": "function"
		},
		{
			"inputs": [
				{
					"internalType": "string",
					"name": "_newBaseExtension",
					"type": "string"
				}
			],
			"name": "setBaseExtension",
			"outputs": [],
			"stateMutability": "nonpayable",
			"type": "function"
		},
		{
			"inputs": [
				{
					"internalType": "string",
					"name": "_newBaseURI",
					"type": "string"
				}
			],
			"name": "setBaseURI",
			"outputs": [],
			"stateMutability": "nonpayable",
			"type": "function"
		},
		{
			"inputs": [
				{
					"internalType": "string",
					"name": "_newClaimURI",
					"type": "string"
				}
			],
			"name": "setClaimURI",
			"outputs": [],
			"stateMutability": "nonpayable",
			"type": "function"
		},
		{
			"inputs": [
				{
					"internalType": "string",
					"name": "_newClaimURI",
					"type": "string"
				}
			],
			"name": "setClaimURI2",
			"outputs": [],
			"stateMutability": "nonpayable",
			"type": "function"
		},
		{
			"inputs": [
				{
					"internalType": "string",
					"name": "_newClaimURI",
					"type": "string"
				}
			],
			"name": "setClaimURI3",
			"outputs": [],
			"stateMutability": "nonpayable",
			"type": "function"
		},
		{
			"inputs": [
				{
					"internalType": "string",
					"name": "_newClaimURI",
					"type": "string"
				}
			],
			"name": "setClaimURI4",
			"outputs": [],
			"stateMutability": "nonpayable",
			"type": "function"
		},
		{
			"inputs": [
				{
					"internalType": "string",
					"name": "_newClaimURI",
					"type": "string"
				}
			],
			"name": "setClaimURI5",
			"outputs": [],
			"stateMutability": "nonpayable",
			"type": "function"
		},
		{
			"inputs": [
				{
					"internalType": "uint256",
					"name": "setTotal",
					"type": "uint256"
				}
			],
			"name": "setCurrentSetAmount",
			"outputs": [],
			"stateMutability": "nonpayable",
			"type": "function"
		},
		{
			"inputs": [
				{
					"internalType": "bool",
					"name": "_state",
					"type": "bool"
				}
			],
			"name": "setOnlyAllowlisted",
			"outputs": [],
			"stateMutability": "nonpayable",
			"type": "function"
		},
		{
			"inputs": [
				{
					"internalType": "bytes4",
					"name": "interfaceId",
					"type": "bytes4"
				}
			],
			"name": "supportsInterface",
			"outputs": [
				{
					"internalType": "bool",
					"name": "",
					"type": "bool"
				}
			],
			"stateMutability": "view",
			"type": "function"
		},
		{
			"inputs": [],
			"name": "symbol",
			"outputs": [
				{
					"internalType": "string",
					"name": "",
					"type": "string"
				}
			],
			"stateMutability": "view",
			"type": "function"
		},
		{
			"inputs": [
				{
					"internalType": "bool",
					"name": "_state",
					"type": "bool"
				}
			],
			"name": "toggleclaimactive",
			"outputs": [],
			"stateMutability": "nonpayable",
			"type": "function"
		},
		{
			"inputs": [
				{
					"internalType": "bool",
					"name": "_state",
					"type": "bool"
				}
			],
			"name": "toggleclaimactive2",
			"outputs": [],
			"stateMutability": "nonpayable",
			"type": "function"
		},
		{
			"inputs": [
				{
					"internalType": "bool",
					"name": "_state",
					"type": "bool"
				}
			],
			"name": "toggleclaimactive3",
			"outputs": [],
			"stateMutability": "nonpayable",
			"type": "function"
		},
		{
			"inputs": [
				{
					"internalType": "bool",
					"name": "_state",
					"type": "bool"
				}
			],
			"name": "toggleclaimactive4",
			"outputs": [],
			"stateMutability": "nonpayable",
			"type": "function"
		},
		{
			"inputs": [
				{
					"internalType": "bool",
					"name": "_state",
					"type": "bool"
				}
			],
			"name": "toggleclaimactive5",
			"outputs": [],
			"stateMutability": "nonpayable",
			"type": "function"
		},
		{
			"inputs": [
				{
					"internalType": "uint256",
					"name": "tokenId",
					"type": "uint256"
				}
			],
			"name": "tokenURI",
			"outputs": [
				{
					"internalType": "string",
					"name": "",
					"type": "string"
				}
			],
			"stateMutability": "view",
			"type": "function"
		},
		{
			"inputs": [],
			"name": "totalSupply",
			"outputs": [
				{
					"internalType": "uint256",
					"name": "",
					"type": "uint256"
				}
			],
			"stateMutability": "view",
			"type": "function"
		},
		{
			"inputs": [
				{
					"internalType": "address",
					"name": "from",
					"type": "address"
				},
				{
					"internalType": "address",
					"name": "to",
					"type": "address"
				},
				{
					"internalType": "uint256",
					"name": "tokenId",
					"type": "uint256"
				}
			],
			"name": "transferFrom",
			"outputs": [],
			"stateMutability": "nonpayable",
			"type": "function"
		},
		{
			"inputs": [
				{
					"internalType": "address",
					"name": "newOwner",
					"type": "address"
				}
			],
			"name": "transferOwnership",
			"outputs": [],
			"stateMutability": "nonpayable",
			"type": "function"
		},
		{
			"inputs": [],
			"name": "withdraw",
			"outputs": [],
			"stateMutability": "payable",
			"type": "function"
		}
	]
}